Archive member included to satisfy reference by file (symbol)

/Users/Luppy/PineTime/pinetime-rust-mynewt/bin/targets/nrf52_boot/app/hw/bsp/nrf52/hw_bsp_nrf52.a(gcc_startup_nrf52.o)
                              (Reset_Handler)
/Users/Luppy/PineTime/pinetime-rust-mynewt/bin/targets/nrf52_boot/app/hw/bsp/nrf52/hw_bsp_nrf52.a(sbrk.o)
                              /Users/Luppy/PineTime/pinetime-rust-mynewt/bin/targets/nrf52_boot/app/hw/bsp/nrf52/hw_bsp_nrf52.a(gcc_startup_nrf52.o) (_sbrkInit)
/Users/Luppy/PineTime/pinetime-rust-mynewt/bin/targets/nrf52_boot/app/hw/mcu/nordic/nrf52xxx/hw_mcu_nordic_nrf52xxx.a(hal_system.o)
                              /Users/Luppy/PineTime/pinetime-rust-mynewt/bin/targets/nrf52_boot/app/hw/bsp/nrf52/hw_bsp_nrf52.a(gcc_startup_nrf52.o) (hal_system_init)
/Users/Luppy/PineTime/pinetime-rust-mynewt/bin/targets/nrf52_boot/app/hw/mcu/nordic/nrf52xxx/hw_mcu_nordic_nrf52xxx.a(system_nrf52.o)
                              /Users/Luppy/PineTime/pinetime-rust-mynewt/bin/targets/nrf52_boot/app/hw/bsp/nrf52/hw_bsp_nrf52.a(gcc_startup_nrf52.o) (SystemInit)
/Users/Luppy/PineTime/pinetime-rust-mynewt/bin/targets/nrf52_boot/app/libc/baselibc/libc_baselibc.a(start.o)
                              /Users/Luppy/PineTime/pinetime-rust-mynewt/bin/targets/nrf52_boot/app/hw/bsp/nrf52/hw_bsp_nrf52.a(gcc_startup_nrf52.o) (_start)
/Users/Luppy/PineTime/pinetime-rust-mynewt/bin/targets/nrf52_boot/app/apps/boot_stub/apps_boot_stub.a(boot.o)
                              /Users/Luppy/PineTime/pinetime-rust-mynewt/bin/targets/nrf52_boot/app/libc/baselibc/libc_baselibc.a(start.o) (main)
/Users/Luppy/PineTime/pinetime-rust-mynewt/bin/targets/nrf52_boot/app/hw/bsp/nrf52/hw_bsp_nrf52.a(hal_bsp.o)
                              /Users/Luppy/PineTime/pinetime-rust-mynewt/bin/targets/nrf52_boot/app/apps/boot_stub/apps_boot_stub.a(boot.o) (hal_bsp_init)
/Users/Luppy/PineTime/pinetime-rust-mynewt/bin/targets/nrf52_boot/app/hw/cmsis-core/hw_cmsis-core.a(cmsis_nvic.o)
                              /Users/Luppy/PineTime/pinetime-rust-mynewt/bin/targets/nrf52_boot/app/hw/mcu/nordic/nrf52xxx/hw_mcu_nordic_nrf52xxx.a(system_nrf52.o) (NVIC_Relocate)
/Users/Luppy/PineTime/pinetime-rust-mynewt/bin/targets/nrf52_boot/app/hw/hal/hw_hal.a(hal_common.o)
                              /Users/Luppy/PineTime/pinetime-rust-mynewt/bin/targets/nrf52_boot/app/libc/baselibc/libc_baselibc.a(start.o) (_exit)
/Users/Luppy/PineTime/pinetime-rust-mynewt/bin/targets/nrf52_boot/app/hw/mcu/nordic/nrf52xxx/hw_mcu_nordic_nrf52xxx.a(hal_flash.o)
                              /Users/Luppy/PineTime/pinetime-rust-mynewt/bin/targets/nrf52_boot/app/hw/bsp/nrf52/hw_bsp_nrf52.a(hal_bsp.o) (nrf52k_flash_dev)
/Users/Luppy/PineTime/pinetime-rust-mynewt/bin/targets/nrf52_boot/app/hw/mcu/nordic/nrf52xxx/hw_mcu_nordic_nrf52xxx.a(hal_reset_cause.o)
                              /Users/Luppy/PineTime/pinetime-rust-mynewt/bin/targets/nrf52_boot/app/hw/hal/hw_hal.a(hal_common.o) (hal_reset_cause)
/Users/Luppy/PineTime/pinetime-rust-mynewt/bin/targets/nrf52_boot/app/hw/mcu/nordic/nrf52xxx/hw_mcu_nordic_nrf52xxx.a(hal_system_start.o)
                              /Users/Luppy/PineTime/pinetime-rust-mynewt/bin/targets/nrf52_boot/app/apps/boot_stub/apps_boot_stub.a(boot.o) (hal_system_start)
/Users/Luppy/PineTime/pinetime-rust-mynewt/bin/targets/nrf52_boot/app/hw/mcu/nordic/nrf52xxx/hw_mcu_nordic_nrf52xxx.a(nrf52_periph.o)
                              /Users/Luppy/PineTime/pinetime-rust-mynewt/bin/targets/nrf52_boot/app/hw/bsp/nrf52/hw_bsp_nrf52.a(hal_bsp.o) (nrf52_periph_create)
/Users/Luppy/PineTime/pinetime-rust-mynewt/bin/targets/nrf52_boot/app/hw/mcu/nordic/nrf52xxx/hw_mcu_nordic_nrf52xxx.a(hal_timer.o)
                              /Users/Luppy/PineTime/pinetime-rust-mynewt/bin/targets/nrf52_boot/app/hw/mcu/nordic/nrf52xxx/hw_mcu_nordic_nrf52xxx.a(nrf52_periph.o) (hal_timer_init)
/Users/Luppy/PineTime/pinetime-rust-mynewt/bin/targets/nrf52_boot/app/kernel/os/kernel_os.a(os_fault.o)
                              /Users/Luppy/PineTime/pinetime-rust-mynewt/bin/targets/nrf52_boot/app/hw/mcu/nordic/nrf52xxx/hw_mcu_nordic_nrf52xxx.a(hal_flash.o) (__assert_func)
/Users/Luppy/PineTime/pinetime-rust-mynewt/bin/targets/nrf52_boot/app/kernel/os/kernel_os.a(os_cputime.o)
                              /Users/Luppy/PineTime/pinetime-rust-mynewt/bin/targets/nrf52_boot/app/hw/mcu/nordic/nrf52xxx/hw_mcu_nordic_nrf52xxx.a(nrf52_periph.o) (os_cputime_init)
/Users/Luppy/PineTime/pinetime-rust-mynewt/bin/targets/nrf52_boot/app/kernel/os/kernel_os.a(os_cputime_1mhz.o)
                              /Users/Luppy/PineTime/pinetime-rust-mynewt/bin/targets/nrf52_boot/app/kernel/os/kernel_os.a(os_cputime.o) (os_cputime_nsecs_to_ticks)
/Users/Luppy/PineTime/pinetime-rust-mynewt/bin/targets/nrf52_boot/app/kernel/os/kernel_os.a(os_arch_arm.o)
                              /Users/Luppy/PineTime/pinetime-rust-mynewt/bin/targets/nrf52_boot/app/kernel/os/kernel_os.a(os_fault.o) (os_arch_save_sr)
/Users/Luppy/PineTime/pinetime-rust-mynewt/bin/targets/nrf52_boot/app/kernel/os/kernel_os.a(os.o)
                              /Users/Luppy/PineTime/pinetime-rust-mynewt/bin/targets/nrf52_boot/app/kernel/os/kernel_os.a(os_arch_arm.o) (g_os_started)
/Users/Luppy/PineTime/pinetime-rust-mynewt/bin/targets/nrf52_boot/app/kernel/os/kernel_os.a(os_callout.o)
                              /Users/Luppy/PineTime/pinetime-rust-mynewt/bin/targets/nrf52_boot/app/kernel/os/kernel_os.a(os.o) (g_callout_list)
/Users/Luppy/PineTime/pinetime-rust-mynewt/bin/targets/nrf52_boot/app/kernel/os/kernel_os.a(os_dev.o)
                              /Users/Luppy/PineTime/pinetime-rust-mynewt/bin/targets/nrf52_boot/app/kernel/os/kernel_os.a(os.o) (os_dev_initialize_all)
/Users/Luppy/PineTime/pinetime-rust-mynewt/bin/targets/nrf52_boot/app/kernel/os/kernel_os.a(os_eventq.o)
                              /Users/Luppy/PineTime/pinetime-rust-mynewt/bin/targets/nrf52_boot/app/kernel/os/kernel_os.a(os.o) (os_eventq_init)
/Users/Luppy/PineTime/pinetime-rust-mynewt/bin/targets/nrf52_boot/app/kernel/os/kernel_os.a(os_mempool.o)
                              /Users/Luppy/PineTime/pinetime-rust-mynewt/bin/targets/nrf52_boot/app/kernel/os/kernel_os.a(os.o) (os_mempool_module_init)
/Users/Luppy/PineTime/pinetime-rust-mynewt/bin/targets/nrf52_boot/app/kernel/os/kernel_os.a(os_msys.o)
                              /Users/Luppy/PineTime/pinetime-rust-mynewt/bin/targets/nrf52_boot/app/kernel/os/kernel_os.a(os.o) (os_msys_init)
/Users/Luppy/PineTime/pinetime-rust-mynewt/bin/targets/nrf52_boot/app/kernel/os/kernel_os.a(os_sanity.o)
                              /Users/Luppy/PineTime/pinetime-rust-mynewt/bin/targets/nrf52_boot/app/kernel/os/kernel_os.a(os.o) (os_sanity_run)
/Users/Luppy/PineTime/pinetime-rust-mynewt/bin/targets/nrf52_boot/app/kernel/os/kernel_os.a(os_sched.o)
                              /Users/Luppy/PineTime/pinetime-rust-mynewt/bin/targets/nrf52_boot/app/kernel/os/kernel_os.a(os_arch_arm.o) (os_sched_ctx_sw_hook)
/Users/Luppy/PineTime/pinetime-rust-mynewt/bin/targets/nrf52_boot/app/kernel/os/kernel_os.a(os_task.o)
                              /Users/Luppy/PineTime/pinetime-rust-mynewt/bin/targets/nrf52_boot/app/kernel/os/kernel_os.a(os.o) (os_task_init)
/Users/Luppy/PineTime/pinetime-rust-mynewt/bin/targets/nrf52_boot/app/kernel/os/kernel_os.a(os_time.o)
                              /Users/Luppy/PineTime/pinetime-rust-mynewt/bin/targets/nrf52_boot/app/kernel/os/kernel_os.a(os.o) (os_time_get)
/Users/Luppy/PineTime/pinetime-rust-mynewt/bin/targets/nrf52_boot/app/kernel/os/kernel_os.a(HAL_CM4.o)
                              /Users/Luppy/PineTime/pinetime-rust-mynewt/bin/targets/nrf52_boot/app/kernel/os/kernel_os.a(os_arch_arm.o) (os_set_env)
/Users/Luppy/PineTime/pinetime-rust-mynewt/bin/targets/nrf52_boot/app/kernel/os/kernel_os.a(SVC_Table.o)
                              /Users/Luppy/PineTime/pinetime-rust-mynewt/bin/targets/nrf52_boot/app/kernel/os/kernel_os.a(HAL_CM4.o) (SVC_Table)
/Users/Luppy/PineTime/pinetime-rust-mynewt/bin/targets/nrf52_boot/app/kernel/os/kernel_os.a(os_mbuf.o)
                              /Users/Luppy/PineTime/pinetime-rust-mynewt/bin/targets/nrf52_boot/app/kernel/os/kernel_os.a(os_msys.o) (os_mbuf_get)
/Users/Luppy/PineTime/pinetime-rust-mynewt/bin/targets/nrf52_boot/app/kernel/os/kernel_os.a(os_mutex.o)
                              /Users/Luppy/PineTime/pinetime-rust-mynewt/bin/targets/nrf52_boot/app/kernel/os/kernel_os.a(os_sanity.o) (os_mutex_init)
/Users/Luppy/PineTime/pinetime-rust-mynewt/bin/targets/nrf52_boot/app/libc/baselibc/libc_baselibc.a(memcmp.o)
                              /Users/Luppy/PineTime/pinetime-rust-mynewt/bin/targets/nrf52_boot/app/kernel/os/kernel_os.a(os_mbuf.o) (memcmp)
/Users/Luppy/PineTime/pinetime-rust-mynewt/bin/targets/nrf52_boot/app/libc/baselibc/libc_baselibc.a(memcpy.o)
                              /Users/Luppy/PineTime/pinetime-rust-mynewt/bin/targets/nrf52_boot/app/hw/mcu/nordic/nrf52xxx/hw_mcu_nordic_nrf52xxx.a(hal_flash.o) (memcpy)
/Users/Luppy/PineTime/pinetime-rust-mynewt/bin/targets/nrf52_boot/app/libc/baselibc/libc_baselibc.a(memmove.o)
                              /Users/Luppy/PineTime/pinetime-rust-mynewt/bin/targets/nrf52_boot/app/kernel/os/kernel_os.a(os_mbuf.o) (memmove)
/Users/Luppy/PineTime/pinetime-rust-mynewt/bin/targets/nrf52_boot/app/libc/baselibc/libc_baselibc.a(memset.o)
                              /Users/Luppy/PineTime/pinetime-rust-mynewt/bin/targets/nrf52_boot/app/kernel/os/kernel_os.a(os_callout.o) (memset)
/Users/Luppy/PineTime/pinetime-rust-mynewt/bin/targets/nrf52_boot/app/libc/baselibc/libc_baselibc.a(strcmp.o)
                              /Users/Luppy/PineTime/pinetime-rust-mynewt/bin/targets/nrf52_boot/app/kernel/os/kernel_os.a(os_dev.o) (strcmp)
/Users/Luppy/PineTime/pinetime-rust-mynewt/bin/targets/nrf52_boot/app/libc/baselibc/libc_baselibc.a(strncpy.o)
                              /Users/Luppy/PineTime/pinetime-rust-mynewt/bin/targets/nrf52_boot/app/kernel/os/kernel_os.a(os_mempool.o) (strncpy)
/Users/Luppy/PineTime/pinetime-rust-mynewt/bin/targets/nrf52_boot/app/sys/sysdown/sys_sysdown.a(sysdown.o)
                              /Users/Luppy/PineTime/pinetime-rust-mynewt/bin/targets/nrf52_boot/app/kernel/os/kernel_os.a(os.o) (sysdown)
/Users/Luppy/PineTime/pinetime-rust-mynewt/bin/targets/nrf52_boot/generated/bin/nrf52_boot-sysinit-app.a(nrf52_boot-sysdown-app.o)
                              /Users/Luppy/PineTime/pinetime-rust-mynewt/bin/targets/nrf52_boot/app/sys/sysdown/sys_sysdown.a(sysdown.o) (sysdown_cbs)
/Users/Luppy/PineTime/pinetime-rust-mynewt/bin/targets/nrf52_boot/generated/bin/nrf52_boot-sysinit-app.a(nrf52_boot-sysflash.o)
                              /Users/Luppy/PineTime/pinetime-rust-mynewt/bin/targets/nrf52_boot/app/apps/boot_stub/apps_boot_stub.a(boot.o) (sysflash_map_dflt)
/Users/Luppy/PineTime/pinetime-rust-mynewt/bin/targets/nrf52_boot/app/hw/mcu/nordic/nrf52xxx/hw_mcu_nordic_nrf52xxx.a(hal_os_tick.o)
                              /Users/Luppy/PineTime/pinetime-rust-mynewt/bin/targets/nrf52_boot/app/kernel/os/kernel_os.a(os.o) (os_tick_idle)
/Users/Luppy/PineTime/pinetime-rust-mynewt/bin/targets/nrf52_boot/app/hw/mcu/nordic/nrf52xxx/hw_mcu_nordic_nrf52xxx.a(hal_watchdog.o)
                              /Users/Luppy/PineTime/pinetime-rust-mynewt/bin/targets/nrf52_boot/app/kernel/os/kernel_os.a(os.o) (hal_watchdog_init)
/usr/local/Cellar/arm-none-eabi-gcc/7-2018-q2-update/gcc/bin/../lib/gcc/arm-none-eabi/7.3.1/thumb/v7e-m/libgcc.a(_aeabi_uldivmod.o)
                              /Users/Luppy/PineTime/pinetime-rust-mynewt/bin/targets/nrf52_boot/app/kernel/os/kernel_os.a(os_time.o) (__aeabi_uldivmod)
/usr/local/Cellar/arm-none-eabi-gcc/7-2018-q2-update/gcc/bin/../lib/gcc/arm-none-eabi/7.3.1/thumb/v7e-m/libgcc.a(_udivmoddi4.o)
                              /usr/local/Cellar/arm-none-eabi-gcc/7-2018-q2-update/gcc/bin/../lib/gcc/arm-none-eabi/7.3.1/thumb/v7e-m/libgcc.a(_aeabi_uldivmod.o) (__udivmoddi4)
/usr/local/Cellar/arm-none-eabi-gcc/7-2018-q2-update/gcc/bin/../lib/gcc/arm-none-eabi/7.3.1/thumb/v7e-m/libgcc.a(_dvmd_tls.o)
                              /usr/local/Cellar/arm-none-eabi-gcc/7-2018-q2-update/gcc/bin/../lib/gcc/arm-none-eabi/7.3.1/thumb/v7e-m/libgcc.a(_aeabi_uldivmod.o) (__aeabi_ldiv0)

Allocating common symbols
Common symbol       size              file

g_os_task_list      0x8               /Users/Luppy/PineTime/pinetime-rust-mynewt/bin/targets/nrf52_boot/app/kernel/os/kernel_os.a(os_task.o)
g_os_mempool_list   0x8               /Users/Luppy/PineTime/pinetime-rust-mynewt/bin/targets/nrf52_boot/app/kernel/os/kernel_os.a(os_mempool.o)
g_callout_list      0x8               /Users/Luppy/PineTime/pinetime-rust-mynewt/bin/targets/nrf52_boot/app/kernel/os/kernel_os.a(os_callout.o)
g_current_task      0x4               /Users/Luppy/PineTime/pinetime-rust-mynewt/bin/targets/nrf52_boot/app/kernel/os/kernel_os.a(os_sched.o)
sysdown_active      0x1               /Users/Luppy/PineTime/pinetime-rust-mynewt/bin/targets/nrf52_boot/app/sys/sysdown/sys_sysdown.a(sysdown.o)
g_task_id           0x1               /Users/Luppy/PineTime/pinetime-rust-mynewt/bin/targets/nrf52_boot/app/kernel/os/kernel_os.a(os_task.o)
g_os_sanity_check_mu
                    0xc               /Users/Luppy/PineTime/pinetime-rust-mynewt/bin/targets/nrf52_boot/app/kernel/os/kernel_os.a(os_sanity.o)
g_os_time           0x4               /Users/Luppy/PineTime/pinetime-rust-mynewt/bin/targets/nrf52_boot/app/kernel/os/kernel_os.a(os_time.o)
g_idle_task         0x50              /Users/Luppy/PineTime/pinetime-rust-mynewt/bin/targets/nrf52_boot/app/kernel/os/kernel_os.a(os.o)
g_os_last_ctx_sw_time
                    0x4               /Users/Luppy/PineTime/pinetime-rust-mynewt/bin/targets/nrf52_boot/app/kernel/os/kernel_os.a(os_sched.o)
g_os_idle_ctr       0x4               /Users/Luppy/PineTime/pinetime-rust-mynewt/bin/targets/nrf52_boot/app/kernel/os/kernel_os.a(os.o)
nrf52_hal_timer0    0x1c              /Users/Luppy/PineTime/pinetime-rust-mynewt/bin/targets/nrf52_boot/app/hw/mcu/nordic/nrf52xxx/hw_mcu_nordic_nrf52xxx.a(hal_timer.o)
_estack             0x4               /Users/Luppy/PineTime/pinetime-rust-mynewt/bin/targets/nrf52_boot/app/apps/boot_stub/apps_boot_stub.a(boot.o)
g_hal_os_tick       0xc               /Users/Luppy/PineTime/pinetime-rust-mynewt/bin/targets/nrf52_boot/app/hw/mcu/nordic/nrf52xxx/hw_mcu_nordic_nrf52xxx.a(hal_os_tick.o)
g_os_started        0x4               /Users/Luppy/PineTime/pinetime-rust-mynewt/bin/targets/nrf52_boot/app/kernel/os/kernel_os.a(os.o)
g_os_main_task      0x50              /Users/Luppy/PineTime/pinetime-rust-mynewt/bin/targets/nrf52_boot/app/kernel/os/kernel_os.a(os.o)

Discarded input sections

 .data          0x0000000000000000        0x0 /Users/Luppy/PineTime/pinetime-rust-mynewt/bin/targets/nrf52_boot/app/hw/bsp/nrf52/hw_bsp_nrf52.a(gcc_startup_nrf52.o)
 .bss           0x0000000000000000        0x0 /Users/Luppy/PineTime/pinetime-rust-mynewt/bin/targets/nrf52_boot/app/hw/bsp/nrf52/hw_bsp_nrf52.a(gcc_startup_nrf52.o)
 .ARM.extab     0x0000000000000000        0x0 /Users/Luppy/PineTime/pinetime-rust-mynewt/bin/targets/nrf52_boot/app/hw/bsp/nrf52/hw_bsp_nrf52.a(gcc_startup_nrf52.o)
 .text          0x0000000000000000        0x0 /Users/Luppy/PineTime/pinetime-rust-mynewt/bin/targets/nrf52_boot/app/hw/bsp/nrf52/hw_bsp_nrf52.a(sbrk.o)
 .bss           0x0000000000000000        0x0 /Users/Luppy/PineTime/pinetime-rust-mynewt/bin/targets/nrf52_boot/app/hw/bsp/nrf52/hw_bsp_nrf52.a(sbrk.o)
 .text._sbrk    0x0000000000000000       0x3c /Users/Luppy/PineTime/pinetime-rust-mynewt/bin/targets/nrf52_boot/app/hw/bsp/nrf52/hw_bsp_nrf52.a(sbrk.o)
 .text          0x0000000000000000        0x0 /Users/Luppy/PineTime/pinetime-rust-mynewt/bin/targets/nrf52_boot/app/hw/mcu/nordic/nrf52xxx/hw_mcu_nordic_nrf52xxx.a(hal_system.o)
 .data          0x0000000000000000        0x0 /Users/Luppy/PineTime/pinetime-rust-mynewt/bin/targets/nrf52_boot/app/hw/mcu/nordic/nrf52xxx/hw_mcu_nordic_nrf52xxx.a(hal_system.o)
 .bss           0x0000000000000000        0x0 /Users/Luppy/PineTime/pinetime-rust-mynewt/bin/targets/nrf52_boot/app/hw/mcu/nordic/nrf52xxx/hw_mcu_nordic_nrf52xxx.a(hal_system.o)
 .text          0x0000000000000000        0x0 /Users/Luppy/PineTime/pinetime-rust-mynewt/bin/targets/nrf52_boot/app/hw/mcu/nordic/nrf52xxx/hw_mcu_nordic_nrf52xxx.a(system_nrf52.o)
 .data          0x0000000000000000        0x0 /Users/Luppy/PineTime/pinetime-rust-mynewt/bin/targets/nrf52_boot/app/hw/mcu/nordic/nrf52xxx/hw_mcu_nordic_nrf52xxx.a(system_nrf52.o)
 .bss           0x0000000000000000        0x0 /Users/Luppy/PineTime/pinetime-rust-mynewt/bin/targets/nrf52_boot/app/hw/mcu/nordic/nrf52xxx/hw_mcu_nordic_nrf52xxx.a(system_nrf52.o)
 .text          0x0000000000000000        0x0 /Users/Luppy/PineTime/pinetime-rust-mynewt/bin/targets/nrf52_boot/app/libc/baselibc/libc_baselibc.a(start.o)
 .data          0x0000000000000000        0x0 /Users/Luppy/PineTime/pinetime-rust-mynewt/bin/targets/nrf52_boot/app/libc/baselibc/libc_baselibc.a(start.o)
 .bss           0x0000000000000000        0x0 /Users/Luppy/PineTime/pinetime-rust-mynewt/bin/targets/nrf52_boot/app/libc/baselibc/libc_baselibc.a(start.o)
 .text          0x0000000000000000        0x0 /Users/Luppy/PineTime/pinetime-rust-mynewt/bin/targets/nrf52_boot/app/apps/boot_stub/apps_boot_stub.a(boot.o)
 .data          0x0000000000000000        0x0 /Users/Luppy/PineTime/pinetime-rust-mynewt/bin/targets/nrf52_boot/app/apps/boot_stub/apps_boot_stub.a(boot.o)
 .bss           0x0000000000000000        0x0 /Users/Luppy/PineTime/pinetime-rust-mynewt/bin/targets/nrf52_boot/app/apps/boot_stub/apps_boot_stub.a(boot.o)
Memory Configuration

Name             Origin             Length             Attributes
FLASH            0x0000000000000000 0x0000000000004000 xr
RAM              0x0000000020000000 0x0000000000010000 xrw
*default*        0x0000000000000000 0xffffffffffffffff

Linker script and memory map

START GROUP
LOAD /Users/Luppy/PineTime/pinetime-rust-mynewt/bin/targets/nrf52_boot/app/apps/boot_stub/apps_boot_stub.a
LOAD /Users/Luppy/PineTime/pinetime-rust-mynewt/bin/targets/nrf52_boot/app/hw/bsp/nrf52/hw_bsp_nrf52.a
LOAD /Users/Luppy/PineTime/pinetime-rust-mynewt/bin/targets/nrf52_boot/app/hw/cmsis-core/hw_cmsis-core.a
LOAD /Users/Luppy/PineTime/pinetime-rust-mynewt/bin/targets/nrf52_boot/app/hw/hal/hw_hal.a
LOAD /Users/Luppy/PineTime/pinetime-rust-mynewt/bin/targets/nrf52_boot/app/hw/mcu/nordic/hw_mcu_nordic.a
LOAD /Users/Luppy/PineTime/pinetime-rust-mynewt/bin/targets/nrf52_boot/app/hw/mcu/nordic/nrf52xxx/hw_mcu_nordic_nrf52xxx.a
LOAD /Users/Luppy/PineTime/pinetime-rust-mynewt/bin/targets/nrf52_boot/app/kernel/os/kernel_os.a
LOAD /Users/Luppy/PineTime/pinetime-rust-mynewt/bin/targets/nrf52_boot/app/libc/baselibc/libc_baselibc.a
LOAD /Users/Luppy/PineTime/pinetime-rust-mynewt/bin/targets/nrf52_boot/app/sys/flash_map/sys_flash_map.a
LOAD /Users/Luppy/PineTime/pinetime-rust-mynewt/bin/targets/nrf52_boot/app/sys/log/modlog/sys_log_modlog.a
LOAD /Users/Luppy/PineTime/pinetime-rust-mynewt/bin/targets/nrf52_boot/app/sys/log/stub/sys_log_stub.a
LOAD /Users/Luppy/PineTime/pinetime-rust-mynewt/bin/targets/nrf52_boot/app/sys/mfg/sys_mfg.a
LOAD /Users/Luppy/PineTime/pinetime-rust-mynewt/bin/targets/nrf52_boot/app/sys/sysdown/sys_sysdown.a
LOAD /Users/Luppy/PineTime/pinetime-rust-mynewt/bin/targets/nrf52_boot/app/sys/sysinit/sys_sysinit.a
LOAD /Users/Luppy/PineTime/pinetime-rust-mynewt/bin/targets/nrf52_boot/app/util/mem/util_mem.a
LOAD /Users/Luppy/PineTime/pinetime-rust-mynewt/bin/targets/nrf52_boot/app/util/rwlock/util_rwlock.a
LOAD /Users/Luppy/PineTime/pinetime-rust-mynewt/bin/targets/nrf52_boot/generated/bin/nrf52_boot-sysinit-app.a
END GROUP
LOAD /usr/local/Cellar/arm-none-eabi-gcc/7-2018-q2-update/gcc/bin/../lib/gcc/arm-none-eabi/7.3.1/thumb/v7e-m/libgcc.a
START GROUP
LOAD /usr/local/Cellar/arm-none-eabi-gcc/7-2018-q2-update/gcc/bin/../lib/gcc/arm-none-eabi/7.3.1/thumb/v7e-m/libgcc.a
LOAD /usr/local/Cellar/arm-none-eabi-gcc/7-2018-q2-update/gcc/bin/../lib/gcc/arm-none-eabi/7.3.1/../../../../arm-none-eabi/lib/thumb/v7e-m/libg.a
LOAD /usr/local/Cellar/arm-none-eabi-gcc/7-2018-q2-update/gcc/bin/../lib/gcc/arm-none-eabi/7.3.1/../../../../arm-none-eabi/lib/thumb/v7e-m/libc.a
END GROUP
START GROUP
LOAD /usr/local/Cellar/arm-none-eabi-gcc/7-2018-q2-update/gcc/bin/../lib/gcc/arm-none-eabi/7.3.1/thumb/v7e-m/libgcc.a
LOAD /usr/local/Cellar/arm-none-eabi-gcc/7-2018-q2-update/gcc/bin/../lib/gcc/arm-none-eabi/7.3.1/../../../../arm-none-eabi/lib/thumb/v7e-m/libc.a
LOAD /usr/local/Cellar/arm-none-eabi-gcc/7-2018-q2-update/gcc/bin/../lib/gcc/arm-none-eabi/7.3.1/../../../../arm-none-eabi/lib/thumb/v7e-m/libnosys.a
END GROUP
                0x0000000000000000                _imghdr_size = 0x0

.imghdr         0x0000000000000000        0x0
                0x0000000000000000                . = (. + _imghdr_size)
                0x0000000000000000                __text = .

.text           0x0000000000000000      0xb48
                0x0000000000000000                __isr_vector_start = .
 *(.isr_vector)
 .isr_vector    0x0000000000000000       0xd8 /Users/Luppy/PineTime/pinetime-rust-mynewt/bin/targets/nrf52_boot/app/hw/bsp/nrf52/hw_bsp_nrf52.a(gcc_startup_nrf52.o)
                0x0000000000000000                __isr_vector
                0x00000000000000d8                __isr_vector_end = .
 *(.text*)
 .text          0x00000000000000d8       0x70 /Users/Luppy/PineTime/pinetime-rust-mynewt/bin/targets/nrf52_boot/app/hw/bsp/nrf52/hw_bsp_nrf52.a(gcc_startup_nrf52.o)
                0x00000000000000d8                Reset_Handler
                0x0000000000000134                NMI_Handler
                0x0000000000000136                HardFault_Handler
                0x0000000000000138                MemoryManagement_Handler
                0x000000000000013a                BusFault_Handler
                0x000000000000013c                UsageFault_Handler
                0x0000000000000144                POWER_CLOCK_IRQHandler
                0x0000000000000144                RADIO_IRQHandler
                0x0000000000000144                PDM_IRQHandler
                0x0000000000000144                TEMP_IRQHandler
                0x0000000000000144                QDEC_IRQHandler
                0x0000000000000144                TIMER3_IRQHandler
                0x0000000000000144                SPIM0_SPIS0_TWIM0_TWIS0_SPI0_TWI0_IRQHandler
                0x0000000000000144                UARTE0_UART0_IRQHandler
                0x0000000000000144                TIMER4_IRQHandler
                0x0000000000000144                I2S_IRQHandler
                0x0000000000000144                SWI4_EGU4_IRQHandler
                0x0000000000000144                TIMER0_IRQHandler
                0x0000000000000144                TIMER1_IRQHandler
                0x0000000000000144                PWM2_IRQHandler
                0x0000000000000144                ECB_IRQHandler
                0x0000000000000144                SPIM1_SPIS1_TWIM1_TWIS1_SPI1_TWI1_IRQHandler
                0x0000000000000144                Default_Handler
                0x0000000000000144                SAADC_IRQHandler
                0x0000000000000144                CCM_AAR_IRQHandler
                0x0000000000000144                WDT_IRQHandler
                0x0000000000000144                SWI5_EGU5_IRQHandler
                0x0000000000000144                RNG_IRQHandler
                0x0000000000000144                RTC2_IRQHandler
                0x0000000000000144                PWM0_IRQHandler
                0x0000000000000144                SWI3_EGU3_IRQHandler
                0x0000000000000144                RTC1_IRQHandler
                0x0000000000000144                SWI1_EGU1_IRQHandler
                0x0000000000000144                SPIM2_SPIS2_SPI2_IRQHandler
                0x0000000000000144                NFCT_IRQHandler
                0x0000000000000144                MWU_IRQHandler
                0x0000000000000144                TIMER2_IRQHandler
                0x0000000000000144                COMP_LPCOMP_IRQHandler
                0x0000000000000144                RTC0_IRQHandler
                0x0000000000000144                SWI0_EGU0_IRQHandler
                0x0000000000000144                SWI2_EGU2_IRQHandler
                0x0000000000000144                GPIOTE_IRQHandler
                0x0000000000000144                PWM1_IRQHandler
 .text._sbrkInit
                0x0000000000000148       0x10 /Users/Luppy/PineTime/pinetime-rust-mynewt/bin/targets/nrf52_boot/app/hw/bsp/nrf52/hw_bsp_nrf52.a(sbrk.o)
                0x0000000000000148                _sbrkInit
 .text.hal_system_init
                0x0000000000000158        0xc /Users/Luppy/PineTime/pinetime-rust-mynewt/bin/targets/nrf52_boot/app/hw/mcu/nordic/nrf52xxx/hw_mcu_nordic_nrf52xxx.a(hal_system.o)
                0x0000000000000158                hal_system_init
 .text.hal_debugger_connected
                0x0000000000000164       0x10 /Users/Luppy/PineTime/pinetime-rust-mynewt/bin/targets/nrf52_boot/app/hw/mcu/nordic/nrf52xxx/hw_mcu_nordic_nrf52xxx.a(hal_system.o)
                0x0000000000000164                hal_debugger_connected
 .text.hal_system_reset
                0x0000000000000174       0x2c /Users/Luppy/PineTime/pinetime-rust-mynewt/bin/targets/nrf52_boot/app/hw/mcu/nordic/nrf52xxx/hw_mcu_nordic_nrf52xxx.a(hal_system.o)
                0x0000000000000174                hal_system_reset
 .text.hal_system_clock_start
                0x00000000000001a0       0x4c /Users/Luppy/PineTime/pinetime-rust-mynewt/bin/targets/nrf52_boot/app/hw/mcu/nordic/nrf52xxx/hw_mcu_nordic_nrf52xxx.a(hal_system.o)
                0x00000000000001a0                hal_system_clock_start
 .text.errata_16
                0x00000000000001ec       0x3c /Users/Luppy/PineTime/pinetime-rust-mynewt/bin/targets/nrf52_boot/app/hw/mcu/nordic/nrf52xxx/hw_mcu_nordic_nrf52xxx.a(system_nrf52.o)
 .text.errata_31
                0x0000000000000228       0x4c /Users/Luppy/PineTime/pinetime-rust-mynewt/bin/targets/nrf52_boot/app/hw/mcu/nordic/nrf52xxx/hw_mcu_nordic_nrf52xxx.a(system_nrf52.o)
 .text.errata_32
                0x0000000000000274       0x3c /Users/Luppy/PineTime/pinetime-rust-mynewt/bin/targets/nrf52_boot/app/hw/mcu/nordic/nrf52xxx/hw_mcu_nordic_nrf52xxx.a(system_nrf52.o)
 .text.errata_36
                0x00000000000002b0       0x4c /Users/Luppy/PineTime/pinetime-rust-mynewt/bin/targets/nrf52_boot/app/hw/mcu/nordic/nrf52xxx/hw_mcu_nordic_nrf52xxx.a(system_nrf52.o)
 .text.errata_37
                0x00000000000002fc       0x3c /Users/Luppy/PineTime/pinetime-rust-mynewt/bin/targets/nrf52_boot/app/hw/mcu/nordic/nrf52xxx/hw_mcu_nordic_nrf52xxx.a(system_nrf52.o)
 .text.errata_57
                0x0000000000000338       0x3c /Users/Luppy/PineTime/pinetime-rust-mynewt/bin/targets/nrf52_boot/app/hw/mcu/nordic/nrf52xxx/hw_mcu_nordic_nrf52xxx.a(system_nrf52.o)
 .text.errata_66
                0x0000000000000374       0x3c /Users/Luppy/PineTime/pinetime-rust-mynewt/bin/targets/nrf52_boot/app/hw/mcu/nordic/nrf52xxx/hw_mcu_nordic_nrf52xxx.a(system_nrf52.o)
 .text.errata_108
                0x00000000000003b0       0x4c /Users/Luppy/PineTime/pinetime-rust-mynewt/bin/targets/nrf52_boot/app/hw/mcu/nordic/nrf52xxx/hw_mcu_nordic_nrf52xxx.a(system_nrf52.o)
 .text.SystemCoreClockUpdate
                0x00000000000003fc       0x10 /Users/Luppy/PineTime/pinetime-rust-mynewt/bin/targets/nrf52_boot/app/hw/mcu/nordic/nrf52xxx/hw_mcu_nordic_nrf52xxx.a(system_nrf52.o)
                0x00000000000003fc                SystemCoreClockUpdate
 .text.SystemInit
                0x000000000000040c      0x1c0 /Users/Luppy/PineTime/pinetime-rust-mynewt/bin/targets/nrf52_boot/app/hw/mcu/nordic/nrf52xxx/hw_mcu_nordic_nrf52xxx.a(system_nrf52.o)
                0x000000000000040c                SystemInit
 .text._start   0x00000000000005cc        0xe /Users/Luppy/PineTime/pinetime-rust-mynewt/bin/targets/nrf52_boot/app/libc/baselibc/libc_baselibc.a(start.o)
                0x00000000000005cc                _start
 .text._init    0x00000000000005da        0x2 /Users/Luppy/PineTime/pinetime-rust-mynewt/bin/targets/nrf52_boot/app/libc/baselibc/libc_baselibc.a(start.o)
                0x00000000000005da                _init
 .text.main     0x00000000000005dc       0x14 /Users/Luppy/PineTime/pinetime-rust-mynewt/bin/targets/nrf52_boot/app/apps/boot_stub/apps_boot_stub.a(boot.o)
                0x00000000000005dc                main
 .text.hal_bsp_init
                0x00000000000005f0        0xc /Users/Luppy/PineTime/pinetime-rust-mynewt/bin/targets/nrf52_boot/app/hw/bsp/nrf52/hw_bsp_nrf52.a(hal_bsp.o)
                0x00000000000005f0                hal_bsp_init
 .text.NVIC_Relocate
                0x00000000000005fc       0x34 /Users/Luppy/PineTime/pinetime-rust-mynewt/bin/targets/nrf52_boot/app/hw/cmsis-core/hw_cmsis-core.a(cmsis_nvic.o)
                0x00000000000005fc                NVIC_Relocate
 .text._exit    0x0000000000000630        0x6 /Users/Luppy/PineTime/pinetime-rust-mynewt/bin/targets/nrf52_boot/app/hw/hal/hw_hal.a(hal_common.o)
                0x0000000000000630                _exit
 .text.hal_system_start
                0x0000000000000636        0xa /Users/Luppy/PineTime/pinetime-rust-mynewt/bin/targets/nrf52_boot/app/hw/mcu/nordic/nrf52xxx/hw_mcu_nordic_nrf52xxx.a(hal_system_start.o)
                0x0000000000000636                hal_system_start
 .text.nrf52_periph_create_timers
                0x0000000000000640       0x34 /Users/Luppy/PineTime/pinetime-rust-mynewt/bin/targets/nrf52_boot/app/hw/mcu/nordic/nrf52xxx/hw_mcu_nordic_nrf52xxx.a(nrf52_periph.o)
 .text.nrf52_periph_create
                0x0000000000000674        0x8 /Users/Luppy/PineTime/pinetime-rust-mynewt/bin/targets/nrf52_boot/app/hw/mcu/nordic/nrf52xxx/hw_mcu_nordic_nrf52xxx.a(nrf52_periph.o)
                0x0000000000000674                nrf52_periph_create
 .text.nrf_read_timer_cntr
                0x000000000000067c        0xa /Users/Luppy/PineTime/pinetime-rust-mynewt/bin/targets/nrf52_boot/app/hw/mcu/nordic/nrf52xxx/hw_mcu_nordic_nrf52xxx.a(hal_timer.o)
 *fill*         0x0000000000000686        0x2 
 .text.nrf_timer_set_ocmp
                0x0000000000000688       0xb4 /Users/Luppy/PineTime/pinetime-rust-mynewt/bin/targets/nrf52_boot/app/hw/mcu/nordic/nrf52xxx/hw_mcu_nordic_nrf52xxx.a(hal_timer.o)
 .text.nrf_timer_disable_ocmp
                0x000000000000073c        0xa /Users/Luppy/PineTime/pinetime-rust-mynewt/bin/targets/nrf52_boot/app/hw/mcu/nordic/nrf52xxx/hw_mcu_nordic_nrf52xxx.a(hal_timer.o)
 .text.nrf_rtc_disable_ocmp
                0x0000000000000746        0xa /Users/Luppy/PineTime/pinetime-rust-mynewt/bin/targets/nrf52_boot/app/hw/mcu/nordic/nrf52xxx/hw_mcu_nordic_nrf52xxx.a(hal_timer.o)
 .text.hal_timer_read_bsptimer
                0x0000000000000750       0x54 /Users/Luppy/PineTime/pinetime-rust-mynewt/bin/targets/nrf52_boot/app/hw/mcu/nordic/nrf52xxx/hw_mcu_nordic_nrf52xxx.a(hal_timer.o)
 .text.hal_timer_chk_queue
                0x00000000000007a4       0x76 /Users/Luppy/PineTime/pinetime-rust-mynewt/bin/targets/nrf52_boot/app/hw/mcu/nordic/nrf52xxx/hw_mcu_nordic_nrf52xxx.a(hal_timer.o)
 .text.hal_timer_irq_handler
                0x000000000000081a       0x2c /Users/Luppy/PineTime/pinetime-rust-mynewt/bin/targets/nrf52_boot/app/hw/mcu/nordic/nrf52xxx/hw_mcu_nordic_nrf52xxx.a(hal_timer.o)
 *fill*         0x0000000000000846        0x2 
 .text.nrf52_timer0_irq_handler
                0x0000000000000848       0x10 /Users/Luppy/PineTime/pinetime-rust-mynewt/bin/targets/nrf52_boot/app/hw/mcu/nordic/nrf52xxx/hw_mcu_nordic_nrf52xxx.a(hal_timer.o)
                0x0000000000000848                nrf52_timer0_irq_handler
 .text.hal_timer_init
                0x0000000000000858       0x60 /Users/Luppy/PineTime/pinetime-rust-mynewt/bin/targets/nrf52_boot/app/hw/mcu/nordic/nrf52xxx/hw_mcu_nordic_nrf52xxx.a(hal_timer.o)
                0x0000000000000858                hal_timer_init
 .text.hal_timer_config
                0x00000000000008b8       0xf8 /Users/Luppy/PineTime/pinetime-rust-mynewt/bin/targets/nrf52_boot/app/hw/mcu/nordic/nrf52xxx/hw_mcu_nordic_nrf52xxx.a(hal_timer.o)
                0x00000000000008b8                hal_timer_config
 .text.__assert_func
                0x00000000000009b0       0x24 /Users/Luppy/PineTime/pinetime-rust-mynewt/bin/targets/nrf52_boot/app/kernel/os/kernel_os.a(os_fault.o)
                0x00000000000009b0                __assert_func
 .text.os_default_irq
                0x00000000000009d4       0x18 /Users/Luppy/PineTime/pinetime-rust-mynewt/bin/targets/nrf52_boot/app/kernel/os/kernel_os.a(os_fault.o)
                0x00000000000009d4                os_default_irq
 .text.os_cputime_init
                0x00000000000009ec        0xc /Users/Luppy/PineTime/pinetime-rust-mynewt/bin/targets/nrf52_boot/app/kernel/os/kernel_os.a(os_cputime.o)
                0x00000000000009ec                os_cputime_init
 .text.timer_handler
                0x00000000000009f8        0xa /Users/Luppy/PineTime/pinetime-rust-mynewt/bin/targets/nrf52_boot/app/kernel/os/kernel_os.a(os_arch_arm.o)
                0x00000000000009f8                timer_handler
 .text.os_arch_save_sr
                0x0000000000000a02        0xc /Users/Luppy/PineTime/pinetime-rust-mynewt/bin/targets/nrf52_boot/app/kernel/os/kernel_os.a(os_arch_arm.o)
                0x0000000000000a02                os_arch_save_sr
 *fill*         0x0000000000000a0e        0x2 
 .text.os_time_advance
                0x0000000000000a10       0x10 /Users/Luppy/PineTime/pinetime-rust-mynewt/bin/targets/nrf52_boot/app/kernel/os/kernel_os.a(os_time.o)
                0x0000000000000a10                os_time_advance
 .text          0x0000000000000a20       0xc8 /Users/Luppy/PineTime/pinetime-rust-mynewt/bin/targets/nrf52_boot/app/kernel/os/kernel_os.a(HAL_CM4.o)
                0x0000000000000a20                os_set_env
                0x0000000000000a34                os_arch_init_task_stack
                0x0000000000000a3a                SVC_Handler
                0x0000000000000a80                PendSV_Handler
                0x0000000000000aaa                SysTick_Handler
                0x0000000000000ab6                os_default_irq_asm
 *(.init)
 *(.fini)
 *crtbegin.o(.ctors)
 *crtbegin?.o(.ctors)
 *(EXCLUDE_FILE(*crtend.o *crtend?.o) .ctors)
 *(SORT_BY_NAME(.ctors.*))
 *(.ctors)
 *crtbegin.o(.dtors)
 *crtbegin?.o(.dtors)
 *(EXCLUDE_FILE(*crtend.o *crtend?.o) .dtors)
 *(SORT_BY_NAME(.dtors.*))
 *(.dtors)
 *(.rodata*)
 .rodata.nrf52_hal_timers
                0x0000000000000ae8       0x18 /Users/Luppy/PineTime/pinetime-rust-mynewt/bin/targets/nrf52_boot/app/hw/mcu/nordic/nrf52xxx/hw_mcu_nordic_nrf52xxx.a(hal_timer.o)
 .rodata.sysflash_map_dflt
                0x0000000000000b00       0x48 /Users/Luppy/PineTime/pinetime-rust-mynewt/bin/targets/nrf52_boot/generated/bin/nrf52_boot-sysinit-app.a(nrf52_boot-sysflash.o)
                0x0000000000000b00                sysflash_map_dflt
 *(.eh_frame*)
                0x0000000000000b48                . = ALIGN (0x4)

.glue_7         0x0000000000000b48        0x0
 .glue_7        0x0000000000000b48        0x0 linker stubs

.glue_7t        0x0000000000000b48        0x0
 .glue_7t       0x0000000000000b48        0x0 linker stubs

.vfp11_veneer   0x0000000000000b48        0x0
 .vfp11_veneer  0x0000000000000b48        0x0 linker stubs

.v4_bx          0x0000000000000b48        0x0
 .v4_bx         0x0000000000000b48        0x0 linker stubs

.iplt           0x0000000000000b48        0x0
 .iplt          0x0000000000000b48        0x0 /Users/Luppy/PineTime/pinetime-rust-mynewt/bin/targets/nrf52_boot/app/hw/bsp/nrf52/hw_bsp_nrf52.a(gcc_startup_nrf52.o)

.ARM.extab      0x0000000000000b48        0x0
 *(.ARM.extab* .gnu.linkonce.armextab.*)
                0x0000000000000b48                . = ALIGN (0x4)
                0x0000000000000b48                __exidx_start = .

.ARM.exidx      0x0000000000000b48       0x18
 *(.ARM.exidx* .gnu.linkonce.armexidx.*)
 .ARM.exidx     0x0000000000000b48        0x8 /Users/Luppy/PineTime/pinetime-rust-mynewt/bin/targets/nrf52_boot/app/hw/bsp/nrf52/hw_bsp_nrf52.a(gcc_startup_nrf52.o)
 .ARM.exidx     0x0000000000000b50       0x10 /Users/Luppy/PineTime/pinetime-rust-mynewt/bin/targets/nrf52_boot/app/kernel/os/kernel_os.a(HAL_CM4.o)
                                         0x30 (size before relaxing)
                0x0000000000000b60                . = ALIGN (0x4)
                0x0000000000000b60                __exidx_end = .
                0x0000000000000b60                __etext = .

.rel.dyn        0x0000000000000b60        0x0
 .rel.iplt      0x0000000000000b60        0x0 /Users/Luppy/PineTime/pinetime-rust-mynewt/bin/targets/nrf52_boot/app/hw/bsp/nrf52/hw_bsp_nrf52.a(gcc_startup_nrf52.o)

.vector_relocation
                0x0000000020000000       0xd8
                0x0000000020000000                . = ALIGN (0x4)
                0x0000000020000000                __vector_tbl_reloc__ = .
                0x00000000200000d8                . = (. + (__isr_vector_end - __isr_vector_start))
 *fill*         0x0000000020000000       0xd8 
                0x00000000200000d8                . = ALIGN (0x4)

.rtt            0x00000000200000d8        0x0
                0x00000000200000d8                . = ALIGN (0x4)
 *(.rtt)
                0x00000000200000d8                . = ALIGN (0x4)

.data           0x00000000200000d8       0x18 load address 0x0000000000000b60
                0x00000000200000d8                __data_start__ = .
 *(vtable)
 *(.data*)
 .data          0x00000000200000d8        0xc /Users/Luppy/PineTime/pinetime-rust-mynewt/bin/targets/nrf52_boot/app/hw/bsp/nrf52/hw_bsp_nrf52.a(sbrk.o)
 .data.SystemCoreClock
                0x00000000200000e4        0x4 /Users/Luppy/PineTime/pinetime-rust-mynewt/bin/targets/nrf52_boot/app/hw/mcu/nordic/nrf52xxx/hw_mcu_nordic_nrf52xxx.a(system_nrf52.o)
                0x00000000200000e4                SystemCoreClock
 .data.g_os_run_list
                0x00000000200000e8        0x8 /Users/Luppy/PineTime/pinetime-rust-mynewt/bin/targets/nrf52_boot/app/kernel/os/kernel_os.a(os_sched.o)
                0x00000000200000e8                g_os_run_list
 .data          0x00000000200000f0        0x0 /Users/Luppy/PineTime/pinetime-rust-mynewt/bin/targets/nrf52_boot/app/kernel/os/kernel_os.a(HAL_CM4.o)
                0x00000000200000f0                __aeabi_unwind_cpp_pr0
                0x00000000200000f0                . = ALIGN (0x4)
                [!provide]                        PROVIDE (__preinit_array_start = .)
 *(.preinit_array)
                [!provide]                        PROVIDE (__preinit_array_end = .)
                0x00000000200000f0                . = ALIGN (0x4)
                [!provide]                        PROVIDE (__init_array_start = .)
 *(SORT_BY_NAME(.init_array.*))
 *(.init_array)
                [!provide]                        PROVIDE (__init_array_end = .)
                0x00000000200000f0                . = ALIGN (0x4)
                [!provide]                        PROVIDE (__fini_array_start = .)
 *(SORT_BY_NAME(.fini_array.*))
 *(.fini_array)
                [!provide]                        PROVIDE (__fini_array_end = .)
 *(.jcr)
                0x00000000200000f0                . = ALIGN (0x4)
                0x00000000200000f0                __data_end__ = .

.igot.plt       0x00000000200000f0        0x0 load address 0x0000000000000b78
 .igot.plt      0x00000000200000f0        0x0 /Users/Luppy/PineTime/pinetime-rust-mynewt/bin/targets/nrf52_boot/app/hw/bsp/nrf52/hw_bsp_nrf52.a(gcc_startup_nrf52.o)

.bssnz          0x00000000200000f0        0x0 load address 0x0000000000000b78
                0x00000000200000f0                . = ALIGN (0x4)
                0x00000000200000f0                __bssnz_start__ = .
 *(.bss.core.nz*)
                0x00000000200000f0                . = ALIGN (0x4)
                0x00000000200000f0                __bssnz_end__ = .

.bss            0x00000000200000f0       0x2c load address 0x0000000000000b78
                0x00000000200000f0                . = ALIGN (0x4)
                0x00000000200000f0                __bss_start__ = .
 *(.bss*)
 .bss.os_flags  0x00000000200000f0        0x4 /Users/Luppy/PineTime/pinetime-rust-mynewt/bin/targets/nrf52_boot/app/kernel/os/kernel_os.a(os_arch_arm.o)
                0x00000000200000f0                os_flags
 *(COMMON)
 COMMON         0x00000000200000f4       0x1c /Users/Luppy/PineTime/pinetime-rust-mynewt/bin/targets/nrf52_boot/app/hw/mcu/nordic/nrf52xxx/hw_mcu_nordic_nrf52xxx.a(hal_timer.o)
                0x00000000200000f4                nrf52_hal_timer0
 COMMON         0x0000000020000110        0x8 /Users/Luppy/PineTime/pinetime-rust-mynewt/bin/targets/nrf52_boot/app/kernel/os/kernel_os.a(os_sched.o)
                0x0000000020000110                g_current_task
                0x0000000020000114                g_os_last_ctx_sw_time
 COMMON         0x0000000020000118        0x4 /Users/Luppy/PineTime/pinetime-rust-mynewt/bin/targets/nrf52_boot/app/kernel/os/kernel_os.a(os_time.o)
                0x0000000020000118                g_os_time
                0x000000002000011c                . = ALIGN (0x4)
                0x000000002000011c                __bss_end__ = .
                0x0000000020000120                . = ALIGN (0x8)
                0x0000000020000120                __HeapBase = .

.stack_dummy    0x0000000020000120      0x1b0 load address 0x0000000000000b78
 *(.stack*)
 .stack         0x0000000020000120      0x1b0 /Users/Luppy/PineTime/pinetime-rust-mynewt/bin/targets/nrf52_boot/app/hw/bsp/nrf52/hw_bsp_nrf52.a(gcc_startup_nrf52.o)
                0x0000000020000000                _ram_start = ORIGIN (RAM)
                0x0000000020010000                __StackTop = (ORIGIN (RAM) + LENGTH (RAM))
                0x000000002000fe50                __StackLimit = (__StackTop - SIZEOF (.stack_dummy))
                [!provide]                        PROVIDE (__stack = __StackTop)
                0x000000002000fe50                __HeapLimit = __StackLimit
                0x0000000000000001                ASSERT ((__HeapBase <= __HeapLimit), region RAM overflowed with stack)
OUTPUT(/Users/Luppy/PineTime/pinetime-rust-mynewt/bin/targets/nrf52_boot/app/apps/boot_stub/boot_stub.elf elf32-littlearm)

.heap           0x0000000000000000        0x0
 .heap          0x0000000000000000        0x0 /Users/Luppy/PineTime/pinetime-rust-mynewt/bin/targets/nrf52_boot/app/hw/bsp/nrf52/hw_bsp_nrf52.a(gcc_startup_nrf52.o)

.ARM.attributes
                0x0000000000000000       0x2f
 .ARM.attributes
                0x0000000000000000       0x1b /Users/Luppy/PineTime/pinetime-rust-mynewt/bin/targets/nrf52_boot/app/hw/bsp/nrf52/hw_bsp_nrf52.a(gcc_startup_nrf52.o)
 .ARM.attributes
                0x000000000000001b       0x33 /Users/Luppy/PineTime/pinetime-rust-mynewt/bin/targets/nrf52_boot/app/hw/bsp/nrf52/hw_bsp_nrf52.a(sbrk.o)
 .ARM.attributes
                0x000000000000004e       0x33 /Users/Luppy/PineTime/pinetime-rust-mynewt/bin/targets/nrf52_boot/app/hw/mcu/nordic/nrf52xxx/hw_mcu_nordic_nrf52xxx.a(hal_system.o)
 .ARM.attributes
                0x0000000000000081       0x33 /Users/Luppy/PineTime/pinetime-rust-mynewt/bin/targets/nrf52_boot/app/hw/mcu/nordic/nrf52xxx/hw_mcu_nordic_nrf52xxx.a(system_nrf52.o)
 .ARM.attributes
                0x00000000000000b4       0x33 /Users/Luppy/PineTime/pinetime-rust-mynewt/bin/targets/nrf52_boot/app/libc/baselibc/libc_baselibc.a(start.o)
 .ARM.attributes
                0x00000000000000e7       0x33 /Users/Luppy/PineTime/pinetime-rust-mynewt/bin/targets/nrf52_boot/app/apps/boot_stub/apps_boot_stub.a(boot.o)
 .ARM.attributes
                0x000000000000011a       0x33 /Users/Luppy/PineTime/pinetime-rust-mynewt/bin/targets/nrf52_boot/app/hw/bsp/nrf52/hw_bsp_nrf52.a(hal_bsp.o)
 .ARM.attributes
                0x000000000000014d       0x33 /Users/Luppy/PineTime/pinetime-rust-mynewt/bin/targets/nrf52_boot/app/hw/cmsis-core/hw_cmsis-core.a(cmsis_nvic.o)
 .ARM.attributes
                0x0000000000000180       0x33 /Users/Luppy/PineTime/pinetime-rust-mynewt/bin/targets/nrf52_boot/app/hw/hal/hw_hal.a(hal_common.o)
 .ARM.attributes
                0x00000000000001b3       0x33 /Users/Luppy/PineTime/pinetime-rust-mynewt/bin/targets/nrf52_boot/app/hw/mcu/nordic/nrf52xxx/hw_mcu_nordic_nrf52xxx.a(hal_system_start.o)
 .ARM.attributes
                0x00000000000001e6       0x33 /Users/Luppy/PineTime/pinetime-rust-mynewt/bin/targets/nrf52_boot/app/hw/mcu/nordic/nrf52xxx/hw_mcu_nordic_nrf52xxx.a(nrf52_periph.o)
 .ARM.attributes
                0x0000000000000219       0x33 /Users/Luppy/PineTime/pinetime-rust-mynewt/bin/targets/nrf52_boot/app/hw/mcu/nordic/nrf52xxx/hw_mcu_nordic_nrf52xxx.a(hal_timer.o)
 .ARM.attributes
                0x000000000000024c       0x33 /Users/Luppy/PineTime/pinetime-rust-mynewt/bin/targets/nrf52_boot/app/kernel/os/kernel_os.a(os_fault.o)
 .ARM.attributes
                0x000000000000027f       0x33 /Users/Luppy/PineTime/pinetime-rust-mynewt/bin/targets/nrf52_boot/app/kernel/os/kernel_os.a(os_cputime.o)
 .ARM.attributes
                0x00000000000002b2       0x33 /Users/Luppy/PineTime/pinetime-rust-mynewt/bin/targets/nrf52_boot/app/kernel/os/kernel_os.a(os_arch_arm.o)
 .ARM.attributes
                0x00000000000002e5       0x33 /Users/Luppy/PineTime/pinetime-rust-mynewt/bin/targets/nrf52_boot/app/kernel/os/kernel_os.a(os_sched.o)
 .ARM.attributes
                0x0000000000000318       0x33 /Users/Luppy/PineTime/pinetime-rust-mynewt/bin/targets/nrf52_boot/app/kernel/os/kernel_os.a(os_time.o)
 .ARM.attributes
                0x000000000000034b       0x21 /Users/Luppy/PineTime/pinetime-rust-mynewt/bin/targets/nrf52_boot/app/kernel/os/kernel_os.a(HAL_CM4.o)
 .ARM.attributes
                0x000000000000036c       0x33 /Users/Luppy/PineTime/pinetime-rust-mynewt/bin/targets/nrf52_boot/generated/bin/nrf52_boot-sysinit-app.a(nrf52_boot-sysflash.o)

.comment        0x0000000000000000       0x7f
 .comment       0x0000000000000000       0x7f /Users/Luppy/PineTime/pinetime-rust-mynewt/bin/targets/nrf52_boot/app/hw/bsp/nrf52/hw_bsp_nrf52.a(sbrk.o)
                                         0x80 (size before relaxing)
 .comment       0x000000000000007f       0x80 /Users/Luppy/PineTime/pinetime-rust-mynewt/bin/targets/nrf52_boot/app/hw/mcu/nordic/nrf52xxx/hw_mcu_nordic_nrf52xxx.a(hal_system.o)
 .comment       0x000000000000007f       0x80 /Users/Luppy/PineTime/pinetime-rust-mynewt/bin/targets/nrf52_boot/app/hw/mcu/nordic/nrf52xxx/hw_mcu_nordic_nrf52xxx.a(system_nrf52.o)
 .comment       0x000000000000007f       0x80 /Users/Luppy/PineTime/pinetime-rust-mynewt/bin/targets/nrf52_boot/app/libc/baselibc/libc_baselibc.a(start.o)
 .comment       0x000000000000007f       0x80 /Users/Luppy/PineTime/pinetime-rust-mynewt/bin/targets/nrf52_boot/app/apps/boot_stub/apps_boot_stub.a(boot.o)
 .comment       0x000000000000007f       0x80 /Users/Luppy/PineTime/pinetime-rust-mynewt/bin/targets/nrf52_boot/app/hw/bsp/nrf52/hw_bsp_nrf52.a(hal_bsp.o)
 .comment       0x000000000000007f       0x80 /Users/Luppy/PineTime/pinetime-rust-mynewt/bin/targets/nrf52_boot/app/hw/cmsis-core/hw_cmsis-core.a(cmsis_nvic.o)
 .comment       0x000000000000007f       0x80 /Users/Luppy/PineTime/pinetime-rust-mynewt/bin/targets/nrf52_boot/app/hw/hal/hw_hal.a(hal_common.o)
 .comment       0x000000000000007f       0x80 /Users/Luppy/PineTime/pinetime-rust-mynewt/bin/targets/nrf52_boot/app/hw/mcu/nordic/nrf52xxx/hw_mcu_nordic_nrf52xxx.a(hal_system_start.o)
 .comment       0x000000000000007f       0x80 /Users/Luppy/PineTime/pinetime-rust-mynewt/bin/targets/nrf52_boot/app/hw/mcu/nordic/nrf52xxx/hw_mcu_nordic_nrf52xxx.a(nrf52_periph.o)
 .comment       0x000000000000007f       0x80 /Users/Luppy/PineTime/pinetime-rust-mynewt/bin/targets/nrf52_boot/app/hw/mcu/nordic/nrf52xxx/hw_mcu_nordic_nrf52xxx.a(hal_timer.o)
 .comment       0x000000000000007f       0x80 /Users/Luppy/PineTime/pinetime-rust-mynewt/bin/targets/nrf52_boot/app/kernel/os/kernel_os.a(os_fault.o)
 .comment       0x000000000000007f       0x80 /Users/Luppy/PineTime/pinetime-rust-mynewt/bin/targets/nrf52_boot/app/kernel/os/kernel_os.a(os_cputime.o)
 .comment       0x000000000000007f       0x80 /Users/Luppy/PineTime/pinetime-rust-mynewt/bin/targets/nrf52_boot/app/kernel/os/kernel_os.a(os_arch_arm.o)
 .comment       0x000000000000007f       0x80 /Users/Luppy/PineTime/pinetime-rust-mynewt/bin/targets/nrf52_boot/app/kernel/os/kernel_os.a(os_sched.o)
 .comment       0x000000000000007f       0x80 /Users/Luppy/PineTime/pinetime-rust-mynewt/bin/targets/nrf52_boot/app/kernel/os/kernel_os.a(os_time.o)
 .comment       0x000000000000007f       0x80 /Users/Luppy/PineTime/pinetime-rust-mynewt/bin/targets/nrf52_boot/generated/bin/nrf52_boot-sysinit-app.a(nrf52_boot-sysflash.o)

.svc_table      0x0000000000000000        0x4
 .svc_table     0x0000000000000000        0x4 /Users/Luppy/PineTime/pinetime-rust-mynewt/bin/targets/nrf52_boot/app/kernel/os/kernel_os.a(SVC_Table.o)
                0x0000000000000000                SVC_Count
                0x0000000000000000                SVC_Table

.debug_line     0x0000000000000000     0x4909
 .debug_line    0x0000000000000000       0x99 /Users/Luppy/PineTime/pinetime-rust-mynewt/bin/targets/nrf52_boot/app/hw/bsp/nrf52/hw_bsp_nrf52.a(gcc_startup_nrf52.o)
 .debug_line    0x0000000000000099       0x68 /Users/Luppy/PineTime/pinetime-rust-mynewt/bin/targets/nrf52_boot/app/hw/bsp/nrf52/hw_bsp_nrf52.a(sbrk.o)
 .debug_line    0x0000000000000101      0x234 /Users/Luppy/PineTime/pinetime-rust-mynewt/bin/targets/nrf52_boot/app/hw/mcu/nordic/nrf52xxx/hw_mcu_nordic_nrf52xxx.a(hal_system.o)
 .debug_line    0x0000000000000335      0x399 /Users/Luppy/PineTime/pinetime-rust-mynewt/bin/targets/nrf52_boot/app/hw/mcu/nordic/nrf52xxx/hw_mcu_nordic_nrf52xxx.a(system_nrf52.o)
 .debug_line    0x00000000000006ce      0x43f /Users/Luppy/PineTime/pinetime-rust-mynewt/bin/targets/nrf52_boot/app/libc/baselibc/libc_baselibc.a(start.o)
 .debug_line    0x0000000000000b0d      0x474 /Users/Luppy/PineTime/pinetime-rust-mynewt/bin/targets/nrf52_boot/app/apps/boot_stub/apps_boot_stub.a(boot.o)
 .debug_line    0x0000000000000f81      0x566 /Users/Luppy/PineTime/pinetime-rust-mynewt/bin/targets/nrf52_boot/app/hw/bsp/nrf52/hw_bsp_nrf52.a(hal_bsp.o)
 .debug_line    0x00000000000014e7      0x1d0 /Users/Luppy/PineTime/pinetime-rust-mynewt/bin/targets/nrf52_boot/app/hw/cmsis-core/hw_cmsis-core.a(cmsis_nvic.o)
 .debug_line    0x00000000000016b7      0x1a3 /Users/Luppy/PineTime/pinetime-rust-mynewt/bin/targets/nrf52_boot/app/hw/hal/hw_hal.a(hal_common.o)
 .debug_line    0x000000000000185a      0x25d /Users/Luppy/PineTime/pinetime-rust-mynewt/bin/targets/nrf52_boot/app/hw/mcu/nordic/nrf52xxx/hw_mcu_nordic_nrf52xxx.a(hal_system_start.o)
 .debug_line    0x0000000000001ab7      0x559 /Users/Luppy/PineTime/pinetime-rust-mynewt/bin/targets/nrf52_boot/app/hw/mcu/nordic/nrf52xxx/hw_mcu_nordic_nrf52xxx.a(nrf52_periph.o)
 .debug_line    0x0000000000002010      0x8c5 /Users/Luppy/PineTime/pinetime-rust-mynewt/bin/targets/nrf52_boot/app/hw/mcu/nordic/nrf52xxx/hw_mcu_nordic_nrf52xxx.a(hal_timer.o)
 .debug_line    0x00000000000028d5      0x56f /Users/Luppy/PineTime/pinetime-rust-mynewt/bin/targets/nrf52_boot/app/kernel/os/kernel_os.a(os_fault.o)
 .debug_line    0x0000000000002e44      0x522 /Users/Luppy/PineTime/pinetime-rust-mynewt/bin/targets/nrf52_boot/app/kernel/os/kernel_os.a(os_cputime.o)
 .debug_line    0x0000000000003366      0x695 /Users/Luppy/PineTime/pinetime-rust-mynewt/bin/targets/nrf52_boot/app/kernel/os/kernel_os.a(os_arch_arm.o)
 .debug_line    0x00000000000039fb      0x6ab /Users/Luppy/PineTime/pinetime-rust-mynewt/bin/targets/nrf52_boot/app/kernel/os/kernel_os.a(os_sched.o)
 .debug_line    0x00000000000040a6      0x5ec /Users/Luppy/PineTime/pinetime-rust-mynewt/bin/targets/nrf52_boot/app/kernel/os/kernel_os.a(os_time.o)
 .debug_line    0x0000000000004692       0xc9 /Users/Luppy/PineTime/pinetime-rust-mynewt/bin/targets/nrf52_boot/app/kernel/os/kernel_os.a(HAL_CM4.o)
 .debug_line    0x000000000000475b      0x1ae /Users/Luppy/PineTime/pinetime-rust-mynewt/bin/targets/nrf52_boot/generated/bin/nrf52_boot-sysinit-app.a(nrf52_boot-sysflash.o)

.debug_info     0x0000000000000000     0xa2ad
 .debug_info    0x0000000000000000       0x26 /Users/Luppy/PineTime/pinetime-rust-mynewt/bin/targets/nrf52_boot/app/hw/bsp/nrf52/hw_bsp_nrf52.a(gcc_startup_nrf52.o)
 .debug_info    0x0000000000000026      0x119 /Users/Luppy/PineTime/pinetime-rust-mynewt/bin/targets/nrf52_boot/app/hw/bsp/nrf52/hw_bsp_nrf52.a(sbrk.o)
 .debug_info    0x000000000000013f      0x8cb /Users/Luppy/PineTime/pinetime-rust-mynewt/bin/targets/nrf52_boot/app/hw/mcu/nordic/nrf52xxx/hw_mcu_nordic_nrf52xxx.a(hal_system.o)
 .debug_info    0x0000000000000a0a      0xdc2 /Users/Luppy/PineTime/pinetime-rust-mynewt/bin/targets/nrf52_boot/app/hw/mcu/nordic/nrf52xxx/hw_mcu_nordic_nrf52xxx.a(system_nrf52.o)
 .debug_info    0x00000000000017cc      0x646 /Users/Luppy/PineTime/pinetime-rust-mynewt/bin/targets/nrf52_boot/app/libc/baselibc/libc_baselibc.a(start.o)
 .debug_info    0x0000000000001e12      0x616 /Users/Luppy/PineTime/pinetime-rust-mynewt/bin/targets/nrf52_boot/app/apps/boot_stub/apps_boot_stub.a(boot.o)
 .debug_info    0x0000000000002428      0x873 /Users/Luppy/PineTime/pinetime-rust-mynewt/bin/targets/nrf52_boot/app/hw/bsp/nrf52/hw_bsp_nrf52.a(hal_bsp.o)
 .debug_info    0x0000000000002c9b      0x2da /Users/Luppy/PineTime/pinetime-rust-mynewt/bin/targets/nrf52_boot/app/hw/cmsis-core/hw_cmsis-core.a(cmsis_nvic.o)
 .debug_info    0x0000000000002f75      0x196 /Users/Luppy/PineTime/pinetime-rust-mynewt/bin/targets/nrf52_boot/app/hw/hal/hw_hal.a(hal_common.o)
 .debug_info    0x000000000000310b      0x2f3 /Users/Luppy/PineTime/pinetime-rust-mynewt/bin/targets/nrf52_boot/app/hw/mcu/nordic/nrf52xxx/hw_mcu_nordic_nrf52xxx.a(hal_system_start.o)
 .debug_info    0x00000000000033fe      0x766 /Users/Luppy/PineTime/pinetime-rust-mynewt/bin/targets/nrf52_boot/app/hw/mcu/nordic/nrf52xxx/hw_mcu_nordic_nrf52xxx.a(nrf52_periph.o)
 .debug_info    0x0000000000003b64     0x24a1 /Users/Luppy/PineTime/pinetime-rust-mynewt/bin/targets/nrf52_boot/app/hw/mcu/nordic/nrf52xxx/hw_mcu_nordic_nrf52xxx.a(hal_timer.o)
 .debug_info    0x0000000000006005      0xae9 /Users/Luppy/PineTime/pinetime-rust-mynewt/bin/targets/nrf52_boot/app/kernel/os/kernel_os.a(os_fault.o)
 .debug_info    0x0000000000006aee      0x99f /Users/Luppy/PineTime/pinetime-rust-mynewt/bin/targets/nrf52_boot/app/kernel/os/kernel_os.a(os_cputime.o)
 .debug_info    0x000000000000748d     0x12f3 /Users/Luppy/PineTime/pinetime-rust-mynewt/bin/targets/nrf52_boot/app/kernel/os/kernel_os.a(os_arch_arm.o)
 .debug_info    0x0000000000008780      0xc58 /Users/Luppy/PineTime/pinetime-rust-mynewt/bin/targets/nrf52_boot/app/kernel/os/kernel_os.a(os_sched.o)
 .debug_info    0x00000000000093d8      0xd6b /Users/Luppy/PineTime/pinetime-rust-mynewt/bin/targets/nrf52_boot/app/kernel/os/kernel_os.a(os_time.o)
 .debug_info    0x000000000000a143       0x26 /Users/Luppy/PineTime/pinetime-rust-mynewt/bin/targets/nrf52_boot/app/kernel/os/kernel_os.a(HAL_CM4.o)
 .debug_info    0x000000000000a169      0x144 /Users/Luppy/PineTime/pinetime-rust-mynewt/bin/targets/nrf52_boot/generated/bin/nrf52_boot-sysinit-app.a(nrf52_boot-sysflash.o)

.debug_abbrev   0x0000000000000000     0x1ffa
 .debug_abbrev  0x0000000000000000       0x14 /Users/Luppy/PineTime/pinetime-rust-mynewt/bin/targets/nrf52_boot/app/hw/bsp/nrf52/hw_bsp_nrf52.a(gcc_startup_nrf52.o)
 .debug_abbrev  0x0000000000000014       0xb9 /Users/Luppy/PineTime/pinetime-rust-mynewt/bin/targets/nrf52_boot/app/hw/bsp/nrf52/hw_bsp_nrf52.a(sbrk.o)
 .debug_abbrev  0x00000000000000cd      0x1cb /Users/Luppy/PineTime/pinetime-rust-mynewt/bin/targets/nrf52_boot/app/hw/mcu/nordic/nrf52xxx/hw_mcu_nordic_nrf52xxx.a(hal_system.o)
 .debug_abbrev  0x0000000000000298      0x1de /Users/Luppy/PineTime/pinetime-rust-mynewt/bin/targets/nrf52_boot/app/hw/mcu/nordic/nrf52xxx/hw_mcu_nordic_nrf52xxx.a(system_nrf52.o)
 .debug_abbrev  0x0000000000000476      0x194 /Users/Luppy/PineTime/pinetime-rust-mynewt/bin/targets/nrf52_boot/app/libc/baselibc/libc_baselibc.a(start.o)
 .debug_abbrev  0x000000000000060a      0x13b /Users/Luppy/PineTime/pinetime-rust-mynewt/bin/targets/nrf52_boot/app/apps/boot_stub/apps_boot_stub.a(boot.o)
 .debug_abbrev  0x0000000000000745      0x1aa /Users/Luppy/PineTime/pinetime-rust-mynewt/bin/targets/nrf52_boot/app/hw/bsp/nrf52/hw_bsp_nrf52.a(hal_bsp.o)
 .debug_abbrev  0x00000000000008ef       0xf5 /Users/Luppy/PineTime/pinetime-rust-mynewt/bin/targets/nrf52_boot/app/hw/cmsis-core/hw_cmsis-core.a(cmsis_nvic.o)
 .debug_abbrev  0x00000000000009e4       0xe5 /Users/Luppy/PineTime/pinetime-rust-mynewt/bin/targets/nrf52_boot/app/hw/hal/hw_hal.a(hal_common.o)
 .debug_abbrev  0x0000000000000ac9      0x1af /Users/Luppy/PineTime/pinetime-rust-mynewt/bin/targets/nrf52_boot/app/hw/mcu/nordic/nrf52xxx/hw_mcu_nordic_nrf52xxx.a(hal_system_start.o)
 .debug_abbrev  0x0000000000000c78      0x196 /Users/Luppy/PineTime/pinetime-rust-mynewt/bin/targets/nrf52_boot/app/hw/mcu/nordic/nrf52xxx/hw_mcu_nordic_nrf52xxx.a(nrf52_periph.o)
 .debug_abbrev  0x0000000000000e0e      0x474 /Users/Luppy/PineTime/pinetime-rust-mynewt/bin/targets/nrf52_boot/app/hw/mcu/nordic/nrf52xxx/hw_mcu_nordic_nrf52xxx.a(hal_timer.o)
 .debug_abbrev  0x0000000000001282      0x1cd /Users/Luppy/PineTime/pinetime-rust-mynewt/bin/targets/nrf52_boot/app/kernel/os/kernel_os.a(os_fault.o)
 .debug_abbrev  0x000000000000144f      0x1b3 /Users/Luppy/PineTime/pinetime-rust-mynewt/bin/targets/nrf52_boot/app/kernel/os/kernel_os.a(os_cputime.o)
 .debug_abbrev  0x0000000000001602      0x372 /Users/Luppy/PineTime/pinetime-rust-mynewt/bin/targets/nrf52_boot/app/kernel/os/kernel_os.a(os_arch_arm.o)
 .debug_abbrev  0x0000000000001974      0x2e8 /Users/Luppy/PineTime/pinetime-rust-mynewt/bin/targets/nrf52_boot/app/kernel/os/kernel_os.a(os_sched.o)
 .debug_abbrev  0x0000000000001c5c      0x2f9 /Users/Luppy/PineTime/pinetime-rust-mynewt/bin/targets/nrf52_boot/app/kernel/os/kernel_os.a(os_time.o)
 .debug_abbrev  0x0000000000001f55       0x14 /Users/Luppy/PineTime/pinetime-rust-mynewt/bin/targets/nrf52_boot/app/kernel/os/kernel_os.a(HAL_CM4.o)
 .debug_abbrev  0x0000000000001f69       0x91 /Users/Luppy/PineTime/pinetime-rust-mynewt/bin/targets/nrf52_boot/generated/bin/nrf52_boot-sysinit-app.a(nrf52_boot-sysflash.o)

.debug_aranges  0x0000000000000000      0x4f0
 .debug_aranges
                0x0000000000000000       0x20 /Users/Luppy/PineTime/pinetime-rust-mynewt/bin/targets/nrf52_boot/app/hw/bsp/nrf52/hw_bsp_nrf52.a(gcc_startup_nrf52.o)
 .debug_aranges
                0x0000000000000020       0x28 /Users/Luppy/PineTime/pinetime-rust-mynewt/bin/targets/nrf52_boot/app/hw/bsp/nrf52/hw_bsp_nrf52.a(sbrk.o)
 .debug_aranges
                0x0000000000000048       0x38 /Users/Luppy/PineTime/pinetime-rust-mynewt/bin/targets/nrf52_boot/app/hw/mcu/nordic/nrf52xxx/hw_mcu_nordic_nrf52xxx.a(hal_system.o)
 .debug_aranges
                0x0000000000000080       0x68 /Users/Luppy/PineTime/pinetime-rust-mynewt/bin/targets/nrf52_boot/app/hw/mcu/nordic/nrf52xxx/hw_mcu_nordic_nrf52xxx.a(system_nrf52.o)
 .debug_aranges
                0x00000000000000e8       0x28 /Users/Luppy/PineTime/pinetime-rust-mynewt/bin/targets/nrf52_boot/app/libc/baselibc/libc_baselibc.a(start.o)
 .debug_aranges
                0x0000000000000110       0x20 /Users/Luppy/PineTime/pinetime-rust-mynewt/bin/targets/nrf52_boot/app/apps/boot_stub/apps_boot_stub.a(boot.o)
 .debug_aranges
                0x0000000000000130       0x40 /Users/Luppy/PineTime/pinetime-rust-mynewt/bin/targets/nrf52_boot/app/hw/bsp/nrf52/hw_bsp_nrf52.a(hal_bsp.o)
 .debug_aranges
                0x0000000000000170       0x20 /Users/Luppy/PineTime/pinetime-rust-mynewt/bin/targets/nrf52_boot/app/hw/cmsis-core/hw_cmsis-core.a(cmsis_nvic.o)
 .debug_aranges
                0x0000000000000190       0x30 /Users/Luppy/PineTime/pinetime-rust-mynewt/bin/targets/nrf52_boot/app/hw/hal/hw_hal.a(hal_common.o)
 .debug_aranges
                0x00000000000001c0       0x28 /Users/Luppy/PineTime/pinetime-rust-mynewt/bin/targets/nrf52_boot/app/hw/mcu/nordic/nrf52xxx/hw_mcu_nordic_nrf52xxx.a(hal_system_start.o)
 .debug_aranges
                0x00000000000001e8       0x28 /Users/Luppy/PineTime/pinetime-rust-mynewt/bin/targets/nrf52_boot/app/hw/mcu/nordic/nrf52xxx/hw_mcu_nordic_nrf52xxx.a(nrf52_periph.o)
 .debug_aranges
                0x0000000000000210       0xa8 /Users/Luppy/PineTime/pinetime-rust-mynewt/bin/targets/nrf52_boot/app/hw/mcu/nordic/nrf52xxx/hw_mcu_nordic_nrf52xxx.a(hal_timer.o)
 .debug_aranges
                0x00000000000002b8       0x28 /Users/Luppy/PineTime/pinetime-rust-mynewt/bin/targets/nrf52_boot/app/kernel/os/kernel_os.a(os_fault.o)
 .debug_aranges
                0x00000000000002e0       0x60 /Users/Luppy/PineTime/pinetime-rust-mynewt/bin/targets/nrf52_boot/app/kernel/os/kernel_os.a(os_cputime.o)
 .debug_aranges
                0x0000000000000340       0x68 /Users/Luppy/PineTime/pinetime-rust-mynewt/bin/targets/nrf52_boot/app/kernel/os/kernel_os.a(os_arch_arm.o)
 .debug_aranges
                0x00000000000003a8       0x78 /Users/Luppy/PineTime/pinetime-rust-mynewt/bin/targets/nrf52_boot/app/kernel/os/kernel_os.a(os_sched.o)
 .debug_aranges
                0x0000000000000420       0x98 /Users/Luppy/PineTime/pinetime-rust-mynewt/bin/targets/nrf52_boot/app/kernel/os/kernel_os.a(os_time.o)
 .debug_aranges
                0x00000000000004b8       0x20 /Users/Luppy/PineTime/pinetime-rust-mynewt/bin/targets/nrf52_boot/app/kernel/os/kernel_os.a(HAL_CM4.o)
 .debug_aranges
                0x00000000000004d8       0x18 /Users/Luppy/PineTime/pinetime-rust-mynewt/bin/targets/nrf52_boot/generated/bin/nrf52_boot-sysinit-app.a(nrf52_boot-sysflash.o)

.debug_str      0x0000000000000000     0x248c
 .debug_str     0x0000000000000000       0x6d /Users/Luppy/PineTime/pinetime-rust-mynewt/bin/targets/nrf52_boot/app/hw/bsp/nrf52/hw_bsp_nrf52.a(gcc_startup_nrf52.o)
 .debug_str     0x000000000000006d      0x15c /Users/Luppy/PineTime/pinetime-rust-mynewt/bin/targets/nrf52_boot/app/hw/bsp/nrf52/hw_bsp_nrf52.a(sbrk.o)
                                        0x1c5 (size before relaxing)
 .debug_str     0x00000000000001c9      0x3dd /Users/Luppy/PineTime/pinetime-rust-mynewt/bin/targets/nrf52_boot/app/hw/mcu/nordic/nrf52xxx/hw_mcu_nordic_nrf52xxx.a(hal_system.o)
                                        0x556 (size before relaxing)
 .debug_str     0x00000000000005a6      0x274 /Users/Luppy/PineTime/pinetime-rust-mynewt/bin/targets/nrf52_boot/app/hw/mcu/nordic/nrf52xxx/hw_mcu_nordic_nrf52xxx.a(system_nrf52.o)
                                        0x638 (size before relaxing)
 .debug_str     0x000000000000081a      0x307 /Users/Luppy/PineTime/pinetime-rust-mynewt/bin/targets/nrf52_boot/app/libc/baselibc/libc_baselibc.a(start.o)
                                        0x54e (size before relaxing)
 .debug_str     0x0000000000000b21       0x55 /Users/Luppy/PineTime/pinetime-rust-mynewt/bin/targets/nrf52_boot/app/apps/boot_stub/apps_boot_stub.a(boot.o)
                                        0x558 (size before relaxing)
 .debug_str     0x0000000000000b76      0x391 /Users/Luppy/PineTime/pinetime-rust-mynewt/bin/targets/nrf52_boot/app/hw/bsp/nrf52/hw_bsp_nrf52.a(hal_bsp.o)
                                        0x8cc (size before relaxing)
 .debug_str     0x0000000000000f07       0x78 /Users/Luppy/PineTime/pinetime-rust-mynewt/bin/targets/nrf52_boot/app/hw/cmsis-core/hw_cmsis-core.a(cmsis_nvic.o)
                                        0x29e (size before relaxing)
 .debug_str     0x0000000000000f7f      0x11f /Users/Luppy/PineTime/pinetime-rust-mynewt/bin/targets/nrf52_boot/app/hw/hal/hw_hal.a(hal_common.o)
                                        0x2bf (size before relaxing)
 .debug_str     0x000000000000109e       0xa7 /Users/Luppy/PineTime/pinetime-rust-mynewt/bin/targets/nrf52_boot/app/hw/mcu/nordic/nrf52xxx/hw_mcu_nordic_nrf52xxx.a(hal_system_start.o)
                                        0x2f1 (size before relaxing)
 .debug_str     0x0000000000001145      0x138 /Users/Luppy/PineTime/pinetime-rust-mynewt/bin/targets/nrf52_boot/app/hw/mcu/nordic/nrf52xxx/hw_mcu_nordic_nrf52xxx.a(nrf52_periph.o)
                                        0x696 (size before relaxing)
 .debug_str     0x000000000000127d      0x81b /Users/Luppy/PineTime/pinetime-rust-mynewt/bin/targets/nrf52_boot/app/hw/mcu/nordic/nrf52xxx/hw_mcu_nordic_nrf52xxx.a(hal_timer.o)
                                       0x12a3 (size before relaxing)
 .debug_str     0x0000000000001a98      0x175 /Users/Luppy/PineTime/pinetime-rust-mynewt/bin/targets/nrf52_boot/app/kernel/os/kernel_os.a(os_fault.o)
                                        0x718 (size before relaxing)
 .debug_str     0x0000000000001c0d      0x11d /Users/Luppy/PineTime/pinetime-rust-mynewt/bin/targets/nrf52_boot/app/kernel/os/kernel_os.a(os_cputime.o)
                                        0x6e6 (size before relaxing)
 .debug_str     0x0000000000001d2a      0x298 /Users/Luppy/PineTime/pinetime-rust-mynewt/bin/targets/nrf52_boot/app/kernel/os/kernel_os.a(os_arch_arm.o)
                                        0xc3a (size before relaxing)
 .debug_str     0x0000000000001fc2      0x1b7 /Users/Luppy/PineTime/pinetime-rust-mynewt/bin/targets/nrf52_boot/app/kernel/os/kernel_os.a(os_sched.o)
                                        0x8bd (size before relaxing)
 .debug_str     0x0000000000002179      0x295 /Users/Luppy/PineTime/pinetime-rust-mynewt/bin/targets/nrf52_boot/app/kernel/os/kernel_os.a(os_time.o)
                                        0x8e2 (size before relaxing)
 .debug_str     0x000000000000240e       0x43 /Users/Luppy/PineTime/pinetime-rust-mynewt/bin/targets/nrf52_boot/app/kernel/os/kernel_os.a(HAL_CM4.o)
                                         0x7c (size before relaxing)
 .debug_str     0x0000000000002451       0x3b /Users/Luppy/PineTime/pinetime-rust-mynewt/bin/targets/nrf52_boot/generated/bin/nrf52_boot-sysinit-app.a(nrf52_boot-sysflash.o)
                                        0x242 (size before relaxing)

.debug_loc      0x0000000000000000     0x1e98
 .debug_loc     0x0000000000000000       0x8d /Users/Luppy/PineTime/pinetime-rust-mynewt/bin/targets/nrf52_boot/app/hw/bsp/nrf52/hw_bsp_nrf52.a(sbrk.o)
 .debug_loc     0x000000000000008d       0x13 /Users/Luppy/PineTime/pinetime-rust-mynewt/bin/targets/nrf52_boot/app/libc/baselibc/libc_baselibc.a(start.o)
 .debug_loc     0x00000000000000a0       0x20 /Users/Luppy/PineTime/pinetime-rust-mynewt/bin/targets/nrf52_boot/app/apps/boot_stub/apps_boot_stub.a(boot.o)
 .debug_loc     0x00000000000000c0       0xf5 /Users/Luppy/PineTime/pinetime-rust-mynewt/bin/targets/nrf52_boot/app/hw/bsp/nrf52/hw_bsp_nrf52.a(hal_bsp.o)
 .debug_loc     0x00000000000001b5       0x13 /Users/Luppy/PineTime/pinetime-rust-mynewt/bin/targets/nrf52_boot/app/hw/cmsis-core/hw_cmsis-core.a(cmsis_nvic.o)
 .debug_loc     0x00000000000001c8       0xb9 /Users/Luppy/PineTime/pinetime-rust-mynewt/bin/targets/nrf52_boot/app/hw/hal/hw_hal.a(hal_common.o)
 .debug_loc     0x0000000000000281       0x40 /Users/Luppy/PineTime/pinetime-rust-mynewt/bin/targets/nrf52_boot/app/hw/mcu/nordic/nrf52xxx/hw_mcu_nordic_nrf52xxx.a(hal_system_start.o)
 .debug_loc     0x00000000000002c1       0x29 /Users/Luppy/PineTime/pinetime-rust-mynewt/bin/targets/nrf52_boot/app/hw/mcu/nordic/nrf52xxx/hw_mcu_nordic_nrf52xxx.a(nrf52_periph.o)
 .debug_loc     0x00000000000002ea      0xc4e /Users/Luppy/PineTime/pinetime-rust-mynewt/bin/targets/nrf52_boot/app/hw/mcu/nordic/nrf52xxx/hw_mcu_nordic_nrf52xxx.a(hal_timer.o)
 .debug_loc     0x0000000000000f38       0xa5 /Users/Luppy/PineTime/pinetime-rust-mynewt/bin/targets/nrf52_boot/app/kernel/os/kernel_os.a(os_fault.o)
 .debug_loc     0x0000000000000fdd      0x2ef /Users/Luppy/PineTime/pinetime-rust-mynewt/bin/targets/nrf52_boot/app/kernel/os/kernel_os.a(os_cputime.o)
 .debug_loc     0x00000000000012cc      0x263 /Users/Luppy/PineTime/pinetime-rust-mynewt/bin/targets/nrf52_boot/app/kernel/os/kernel_os.a(os_arch_arm.o)
 .debug_loc     0x000000000000152f      0x44f /Users/Luppy/PineTime/pinetime-rust-mynewt/bin/targets/nrf52_boot/app/kernel/os/kernel_os.a(os_sched.o)
 .debug_loc     0x000000000000197e      0x51a /Users/Luppy/PineTime/pinetime-rust-mynewt/bin/targets/nrf52_boot/app/kernel/os/kernel_os.a(os_time.o)

.debug_ranges   0x0000000000000000      0x3b0
 .debug_ranges  0x0000000000000000       0x18 /Users/Luppy/PineTime/pinetime-rust-mynewt/bin/targets/nrf52_boot/app/hw/bsp/nrf52/hw_bsp_nrf52.a(sbrk.o)
 .debug_ranges  0x0000000000000018       0x28 /Users/Luppy/PineTime/pinetime-rust-mynewt/bin/targets/nrf52_boot/app/hw/mcu/nordic/nrf52xxx/hw_mcu_nordic_nrf52xxx.a(hal_system.o)
 .debug_ranges  0x0000000000000040       0x58 /Users/Luppy/PineTime/pinetime-rust-mynewt/bin/targets/nrf52_boot/app/hw/mcu/nordic/nrf52xxx/hw_mcu_nordic_nrf52xxx.a(system_nrf52.o)
 .debug_ranges  0x0000000000000098       0x18 /Users/Luppy/PineTime/pinetime-rust-mynewt/bin/targets/nrf52_boot/app/libc/baselibc/libc_baselibc.a(start.o)
 .debug_ranges  0x00000000000000b0       0x10 /Users/Luppy/PineTime/pinetime-rust-mynewt/bin/targets/nrf52_boot/app/apps/boot_stub/apps_boot_stub.a(boot.o)
 .debug_ranges  0x00000000000000c0       0x30 /Users/Luppy/PineTime/pinetime-rust-mynewt/bin/targets/nrf52_boot/app/hw/bsp/nrf52/hw_bsp_nrf52.a(hal_bsp.o)
 .debug_ranges  0x00000000000000f0       0x10 /Users/Luppy/PineTime/pinetime-rust-mynewt/bin/targets/nrf52_boot/app/hw/cmsis-core/hw_cmsis-core.a(cmsis_nvic.o)
 .debug_ranges  0x0000000000000100       0x20 /Users/Luppy/PineTime/pinetime-rust-mynewt/bin/targets/nrf52_boot/app/hw/hal/hw_hal.a(hal_common.o)
 .debug_ranges  0x0000000000000120       0x18 /Users/Luppy/PineTime/pinetime-rust-mynewt/bin/targets/nrf52_boot/app/hw/mcu/nordic/nrf52xxx/hw_mcu_nordic_nrf52xxx.a(hal_system_start.o)
 .debug_ranges  0x0000000000000138       0x18 /Users/Luppy/PineTime/pinetime-rust-mynewt/bin/targets/nrf52_boot/app/hw/mcu/nordic/nrf52xxx/hw_mcu_nordic_nrf52xxx.a(nrf52_periph.o)
 .debug_ranges  0x0000000000000150       0x98 /Users/Luppy/PineTime/pinetime-rust-mynewt/bin/targets/nrf52_boot/app/hw/mcu/nordic/nrf52xxx/hw_mcu_nordic_nrf52xxx.a(hal_timer.o)
 .debug_ranges  0x00000000000001e8       0x18 /Users/Luppy/PineTime/pinetime-rust-mynewt/bin/targets/nrf52_boot/app/kernel/os/kernel_os.a(os_fault.o)
 .debug_ranges  0x0000000000000200       0x50 /Users/Luppy/PineTime/pinetime-rust-mynewt/bin/targets/nrf52_boot/app/kernel/os/kernel_os.a(os_cputime.o)
 .debug_ranges  0x0000000000000250       0x58 /Users/Luppy/PineTime/pinetime-rust-mynewt/bin/targets/nrf52_boot/app/kernel/os/kernel_os.a(os_arch_arm.o)
 .debug_ranges  0x00000000000002a8       0x80 /Users/Luppy/PineTime/pinetime-rust-mynewt/bin/targets/nrf52_boot/app/kernel/os/kernel_os.a(os_sched.o)
 .debug_ranges  0x0000000000000328       0x88 /Users/Luppy/PineTime/pinetime-rust-mynewt/bin/targets/nrf52_boot/app/kernel/os/kernel_os.a(os_time.o)

.debug_frame    0x0000000000000000      0x9d4
 .debug_frame   0x0000000000000000       0x30 /Users/Luppy/PineTime/pinetime-rust-mynewt/bin/targets/nrf52_boot/app/hw/bsp/nrf52/hw_bsp_nrf52.a(sbrk.o)
 .debug_frame   0x0000000000000030       0x58 /Users/Luppy/PineTime/pinetime-rust-mynewt/bin/targets/nrf52_boot/app/hw/mcu/nordic/nrf52xxx/hw_mcu_nordic_nrf52xxx.a(hal_system.o)
 .debug_frame   0x0000000000000088       0xb8 /Users/Luppy/PineTime/pinetime-rust-mynewt/bin/targets/nrf52_boot/app/hw/mcu/nordic/nrf52xxx/hw_mcu_nordic_nrf52xxx.a(system_nrf52.o)
 .debug_frame   0x0000000000000140       0x38 /Users/Luppy/PineTime/pinetime-rust-mynewt/bin/targets/nrf52_boot/app/libc/baselibc/libc_baselibc.a(start.o)
 .debug_frame   0x0000000000000178       0x28 /Users/Luppy/PineTime/pinetime-rust-mynewt/bin/targets/nrf52_boot/app/apps/boot_stub/apps_boot_stub.a(boot.o)
 .debug_frame   0x00000000000001a0       0x68 /Users/Luppy/PineTime/pinetime-rust-mynewt/bin/targets/nrf52_boot/app/hw/bsp/nrf52/hw_bsp_nrf52.a(hal_bsp.o)
 .debug_frame   0x0000000000000208       0x20 /Users/Luppy/PineTime/pinetime-rust-mynewt/bin/targets/nrf52_boot/app/hw/cmsis-core/hw_cmsis-core.a(cmsis_nvic.o)
 .debug_frame   0x0000000000000228       0x50 /Users/Luppy/PineTime/pinetime-rust-mynewt/bin/targets/nrf52_boot/app/hw/hal/hw_hal.a(hal_common.o)
 .debug_frame   0x0000000000000278       0x38 /Users/Luppy/PineTime/pinetime-rust-mynewt/bin/targets/nrf52_boot/app/hw/mcu/nordic/nrf52xxx/hw_mcu_nordic_nrf52xxx.a(hal_system_start.o)
 .debug_frame   0x00000000000002b0       0x40 /Users/Luppy/PineTime/pinetime-rust-mynewt/bin/targets/nrf52_boot/app/hw/mcu/nordic/nrf52xxx/hw_mcu_nordic_nrf52xxx.a(nrf52_periph.o)
 .debug_frame   0x00000000000002f0      0x1e8 /Users/Luppy/PineTime/pinetime-rust-mynewt/bin/targets/nrf52_boot/app/hw/mcu/nordic/nrf52xxx/hw_mcu_nordic_nrf52xxx.a(hal_timer.o)
 .debug_frame   0x00000000000004d8       0x40 /Users/Luppy/PineTime/pinetime-rust-mynewt/bin/targets/nrf52_boot/app/kernel/os/kernel_os.a(os_fault.o)
 .debug_frame   0x0000000000000518       0xec /Users/Luppy/PineTime/pinetime-rust-mynewt/bin/targets/nrf52_boot/app/kernel/os/kernel_os.a(os_cputime.o)
 .debug_frame   0x0000000000000604       0xf4 /Users/Luppy/PineTime/pinetime-rust-mynewt/bin/targets/nrf52_boot/app/kernel/os/kernel_os.a(os_arch_arm.o)
 .debug_frame   0x00000000000006f8      0x120 /Users/Luppy/PineTime/pinetime-rust-mynewt/bin/targets/nrf52_boot/app/kernel/os/kernel_os.a(os_sched.o)
 .debug_frame   0x0000000000000818      0x1bc /Users/Luppy/PineTime/pinetime-rust-mynewt/bin/targets/nrf52_boot/app/kernel/os/kernel_os.a(os_time.o)
