Archive member included to satisfy reference by file (symbol)

/Users/Luppy/PineTime/pinetime-logo-loader/bin/targets/nrf52_my_sensor/app/hw/bsp/nrf52/hw_bsp_nrf52.a(gcc_startup_nrf52.o)
                              (Reset_Handler)
/Users/Luppy/PineTime/pinetime-logo-loader/bin/targets/nrf52_my_sensor/app/hw/bsp/nrf52/hw_bsp_nrf52.a(sbrk.o)
                              /Users/Luppy/PineTime/pinetime-logo-loader/bin/targets/nrf52_my_sensor/app/hw/bsp/nrf52/hw_bsp_nrf52.a(gcc_startup_nrf52.o) (_sbrkInit)
/Users/Luppy/PineTime/pinetime-logo-loader/bin/targets/nrf52_my_sensor/app/hw/mcu/nordic/nrf52xxx/hw_mcu_nordic_nrf52xxx.a(hal_system.o)
                              /Users/Luppy/PineTime/pinetime-logo-loader/bin/targets/nrf52_my_sensor/app/hw/bsp/nrf52/hw_bsp_nrf52.a(gcc_startup_nrf52.o) (hal_system_init)
/Users/Luppy/PineTime/pinetime-logo-loader/bin/targets/nrf52_my_sensor/app/hw/mcu/nordic/nrf52xxx/hw_mcu_nordic_nrf52xxx.a(system_nrf52.o)
                              /Users/Luppy/PineTime/pinetime-logo-loader/bin/targets/nrf52_my_sensor/app/hw/bsp/nrf52/hw_bsp_nrf52.a(gcc_startup_nrf52.o) (SystemInit)
/Users/Luppy/PineTime/pinetime-logo-loader/bin/targets/nrf52_my_sensor/app/libc/baselibc/libc_baselibc.a(start.o)
                              /Users/Luppy/PineTime/pinetime-logo-loader/bin/targets/nrf52_my_sensor/app/hw/bsp/nrf52/hw_bsp_nrf52.a(gcc_startup_nrf52.o) (_start)
/Users/Luppy/PineTime/pinetime-logo-loader/bin/targets/nrf52_my_sensor/app/libs/rust_app/libs_rust_app.a(app-5a5ad30fd2c694e7.druid-4e098a748cece73f.1b05q285c68j33x.rcgu.o.rcgu.o)
                              /Users/Luppy/PineTime/pinetime-logo-loader/bin/targets/nrf52_my_sensor/app/libc/baselibc/libc_baselibc.a(start.o) (main)
/Users/Luppy/PineTime/pinetime-logo-loader/bin/targets/nrf52_my_sensor/app/libs/rust_app/libs_rust_app.a(compiler_builtins-7064ec948caca4e9.compiler_builtins.28t0v07i-cgu.10.rcgu.o)
                              /Users/Luppy/PineTime/pinetime-logo-loader/bin/targets/nrf52_my_sensor/app/libs/rust_app/libs_rust_app.a(app-5a5ad30fd2c694e7.druid-4e098a748cece73f.1b05q285c68j33x.rcgu.o.rcgu.o) (__aeabi_memclr)
/Users/Luppy/PineTime/pinetime-logo-loader/bin/targets/nrf52_my_sensor/app/libs/rust_app/libs_rust_app.a(compiler_builtins-7064ec948caca4e9.compiler_builtins.28t0v07i-cgu.63.rcgu.o)
                              /Users/Luppy/PineTime/pinetime-logo-loader/bin/targets/nrf52_my_sensor/app/libs/rust_app/libs_rust_app.a(compiler_builtins-7064ec948caca4e9.compiler_builtins.28t0v07i-cgu.10.rcgu.o) (__divmoddi4)
/Users/Luppy/PineTime/pinetime-logo-loader/bin/targets/nrf52_my_sensor/app/libs/rust_app/libs_rust_app.a(compiler_builtins-7064ec948caca4e9.compiler_builtins.28t0v07i-cgu.81.rcgu.o)
                              /Users/Luppy/PineTime/pinetime-logo-loader/bin/targets/nrf52_my_sensor/app/libs/rust_app/libs_rust_app.a(app-5a5ad30fd2c694e7.druid-4e098a748cece73f.1b05q285c68j33x.rcgu.o.rcgu.o) (memcmp)
/Users/Luppy/PineTime/pinetime-logo-loader/bin/targets/nrf52_my_sensor/app/libs/rust_app/libs_rust_app.a(compiler_builtins-7064ec948caca4e9.compiler_builtins.28t0v07i-cgu.98.rcgu.o)
                              /Users/Luppy/PineTime/pinetime-logo-loader/bin/targets/nrf52_my_sensor/app/libs/rust_app/libs_rust_app.a(compiler_builtins-7064ec948caca4e9.compiler_builtins.28t0v07i-cgu.10.rcgu.o) (__udivmoddi4)
/Users/Luppy/PineTime/pinetime-logo-loader/bin/targets/nrf52_my_sensor/app/libs/rust_app/libs_rust_app.a(divsi3.o)
                              /Users/Luppy/PineTime/pinetime-logo-loader/bin/targets/nrf52_my_sensor/app/libs/rust_app/libs_rust_app.a(compiler_builtins-7064ec948caca4e9.compiler_builtins.28t0v07i-cgu.10.rcgu.o) (__aeabi_idiv)
/Users/Luppy/PineTime/pinetime-logo-loader/bin/targets/nrf52_my_sensor/app/libs/rust_app/libs_rust_app.a(udivmodsi4.o)
                              /Users/Luppy/PineTime/pinetime-logo-loader/bin/targets/nrf52_my_sensor/app/libs/rust_app/libs_rust_app.a(compiler_builtins-7064ec948caca4e9.compiler_builtins.28t0v07i-cgu.10.rcgu.o) (__udivmodsi4)
/Users/Luppy/PineTime/pinetime-logo-loader/bin/targets/nrf52_my_sensor/app/libs/rust_app/libs_rust_app.a(aeabi_div0.o)
                              /Users/Luppy/PineTime/pinetime-logo-loader/bin/targets/nrf52_my_sensor/app/libs/rust_app/libs_rust_app.a(udivmodsi4.o) (__aeabi_idiv0)
/Users/Luppy/PineTime/pinetime-logo-loader/bin/targets/nrf52_my_sensor/app/libs/rust_app/libs_rust_app.a(compiler_builtins-7064ec948caca4e9.compiler_builtins.28t0v07i-cgu.120.rcgu.o)
                              /Users/Luppy/PineTime/pinetime-logo-loader/bin/targets/nrf52_my_sensor/app/libs/rust_app/libs_rust_app.a(compiler_builtins-7064ec948caca4e9.compiler_builtins.28t0v07i-cgu.98.rcgu.o) (compiler_builtins::int::udiv::__udivmoddi4)
/Users/Luppy/PineTime/pinetime-logo-loader/bin/targets/nrf52_my_sensor/app/libs/rust_app/libs_rust_app.a(udivsi3.o)
                              /Users/Luppy/PineTime/pinetime-logo-loader/bin/targets/nrf52_my_sensor/app/libs/rust_app/libs_rust_app.a(compiler_builtins-7064ec948caca4e9.compiler_builtins.28t0v07i-cgu.120.rcgu.o) (__udivsi3)
/Users/Luppy/PineTime/pinetime-logo-loader/bin/targets/nrf52_my_sensor/app/libs/rust_app/libs_rust_app.a(umodsi3.o)
                              /Users/Luppy/PineTime/pinetime-logo-loader/bin/targets/nrf52_my_sensor/app/libs/rust_app/libs_rust_app.a(compiler_builtins-7064ec948caca4e9.compiler_builtins.28t0v07i-cgu.120.rcgu.o) (__umodsi3)
/Users/Luppy/PineTime/pinetime-logo-loader/bin/targets/nrf52_my_sensor/app/libs/semihosting_console/libs_semihosting_console.a(semihosting_console.o)
                              /Users/Luppy/PineTime/pinetime-logo-loader/bin/targets/nrf52_my_sensor/app/libs/rust_app/libs_rust_app.a(app-5a5ad30fd2c694e7.druid-4e098a748cece73f.1b05q285c68j33x.rcgu.o.rcgu.o) (console_flush)
/Users/Luppy/PineTime/pinetime-logo-loader/bin/targets/nrf52_my_sensor/app/libs/semihosting_console/libs_semihosting_console.a(console.o)
                              /Users/Luppy/PineTime/pinetime-logo-loader/bin/targets/nrf52_my_sensor/app/libs/semihosting_console/libs_semihosting_console.a(semihosting_console.o) (g_silence_console)
/Users/Luppy/PineTime/pinetime-logo-loader/bin/targets/nrf52_my_sensor/app/libs/semihosting_console/libs_semihosting_console.a(console_fmt.o)
                              /Users/Luppy/PineTime/pinetime-logo-loader/bin/targets/nrf52_my_sensor/app/libs/semihosting_console/libs_semihosting_console.a(semihosting_console.o) (console_printf)
/Users/Luppy/PineTime/pinetime-logo-loader/bin/targets/nrf52_my_sensor/app/libs/semihosting_console/libs_semihosting_console.a(ticks.o)
                              /Users/Luppy/PineTime/pinetime-logo-loader/bin/targets/nrf52_my_sensor/app/libs/semihosting_console/libs_semihosting_console.a(console_fmt.o) (console_get_ticks)
/Users/Luppy/PineTime/pinetime-logo-loader/bin/targets/nrf52_my_sensor/app/sys/sysinit/sys_sysinit.a(sysinit.o)
                              /Users/Luppy/PineTime/pinetime-logo-loader/bin/targets/nrf52_my_sensor/app/libs/semihosting_console/libs_semihosting_console.a(console.o) (sysinit_active)
/Users/Luppy/PineTime/pinetime-logo-loader/bin/targets/nrf52_my_sensor/app/apps/my_sensor_app/apps_my_sensor_app.a(ble_main.o)
                              /Users/Luppy/PineTime/pinetime-logo-loader/bin/targets/nrf52_my_sensor/app/libs/rust_app/libs_rust_app.a(app-5a5ad30fd2c694e7.druid-4e098a748cece73f.1b05q285c68j33x.rcgu.o.rcgu.o) (start_ble)
/Users/Luppy/PineTime/pinetime-logo-loader/bin/targets/nrf52_my_sensor/app/apps/my_sensor_app/apps_my_sensor_app.a(ble_misc.o)
                              /Users/Luppy/PineTime/pinetime-logo-loader/bin/targets/nrf52_my_sensor/app/apps/my_sensor_app/apps_my_sensor_app.a(ble_main.o) (print_addr)
/Users/Luppy/PineTime/pinetime-logo-loader/bin/targets/nrf52_my_sensor/app/apps/my_sensor_app/apps_my_sensor_app.a(flash_test.o)
                              /Users/Luppy/PineTime/pinetime-logo-loader/bin/targets/nrf52_my_sensor/app/libs/rust_app/libs_rust_app.a(app-5a5ad30fd2c694e7.druid-4e098a748cece73f.1b05q285c68j33x.rcgu.o.rcgu.o) (test_flash)
/Users/Luppy/PineTime/pinetime-logo-loader/bin/targets/nrf52_my_sensor/app/apps/my_sensor_app/apps_my_sensor_app.a(write_graphic.o)
                              /Users/Luppy/PineTime/pinetime-logo-loader/bin/targets/nrf52_my_sensor/app/libs/rust_app/libs_rust_app.a(app-5a5ad30fd2c694e7.druid-4e098a748cece73f.1b05q285c68j33x.rcgu.o.rcgu.o) (write_graphic)
/Users/Luppy/PineTime/pinetime-logo-loader/bin/targets/nrf52_my_sensor/app/apps/my_sensor_app/apps_my_sensor_app.a(ble_gatt_svr.o)
                              /Users/Luppy/PineTime/pinetime-logo-loader/bin/targets/nrf52_my_sensor/app/apps/my_sensor_app/apps_my_sensor_app.a(ble_main.o) (gatt_svr_register_cb)
/Users/Luppy/PineTime/pinetime-logo-loader/bin/targets/nrf52_my_sensor/app/hw/bsp/nrf52/hw_bsp_nrf52.a(hal_bsp.o)
                              /Users/Luppy/PineTime/pinetime-logo-loader/bin/targets/nrf52_my_sensor/app/apps/my_sensor_app/apps_my_sensor_app.a(flash_test.o) (hal_bsp_flash_dev)
/Users/Luppy/PineTime/pinetime-logo-loader/bin/targets/nrf52_my_sensor/app/hw/cmsis-core/hw_cmsis-core.a(cmsis_nvic.o)
                              /Users/Luppy/PineTime/pinetime-logo-loader/bin/targets/nrf52_my_sensor/app/hw/mcu/nordic/nrf52xxx/hw_mcu_nordic_nrf52xxx.a(system_nrf52.o) (NVIC_Relocate)
/Users/Luppy/PineTime/pinetime-logo-loader/bin/targets/nrf52_my_sensor/app/hw/drivers/flash/spiflash/hw_drivers_flash_spiflash.a(spiflash.o)
                              /Users/Luppy/PineTime/pinetime-logo-loader/bin/targets/nrf52_my_sensor/app/hw/bsp/nrf52/hw_bsp_nrf52.a(hal_bsp.o) (spiflash_dev)
/Users/Luppy/PineTime/pinetime-logo-loader/bin/targets/nrf52_my_sensor/app/hw/hal/hw_hal.a(hal_flash.o)
                              /Users/Luppy/PineTime/pinetime-logo-loader/bin/targets/nrf52_my_sensor/app/apps/my_sensor_app/apps_my_sensor_app.a(flash_test.o) (hal_flash_sector_size)
/Users/Luppy/PineTime/pinetime-logo-loader/bin/targets/nrf52_my_sensor/app/hw/mcu/nordic/nrf52xxx/hw_mcu_nordic_nrf52xxx.a(hal_flash.o)
                              /Users/Luppy/PineTime/pinetime-logo-loader/bin/targets/nrf52_my_sensor/app/hw/bsp/nrf52/hw_bsp_nrf52.a(hal_bsp.o) (nrf52k_flash_dev)
/Users/Luppy/PineTime/pinetime-logo-loader/bin/targets/nrf52_my_sensor/app/hw/mcu/nordic/nrf52xxx/hw_mcu_nordic_nrf52xxx.a(hal_gpio.o)
                              /Users/Luppy/PineTime/pinetime-logo-loader/bin/targets/nrf52_my_sensor/app/libs/rust_app/libs_rust_app.a(app-5a5ad30fd2c694e7.druid-4e098a748cece73f.1b05q285c68j33x.rcgu.o.rcgu.o) (hal_gpio_init_out)
/Users/Luppy/PineTime/pinetime-logo-loader/bin/targets/nrf52_my_sensor/app/hw/mcu/nordic/nrf52xxx/hw_mcu_nordic_nrf52xxx.a(hal_i2c.o)
                              /Users/Luppy/PineTime/pinetime-logo-loader/bin/targets/nrf52_my_sensor/app/libs/rust_app/libs_rust_app.a(app-5a5ad30fd2c694e7.druid-4e098a748cece73f.1b05q285c68j33x.rcgu.o.rcgu.o) (hal_i2c_master_write)
/Users/Luppy/PineTime/pinetime-logo-loader/bin/targets/nrf52_my_sensor/app/hw/mcu/nordic/nrf52xxx/hw_mcu_nordic_nrf52xxx.a(hal_spi.o)
                              /Users/Luppy/PineTime/pinetime-logo-loader/bin/targets/nrf52_my_sensor/app/libs/rust_app/libs_rust_app.a(app-5a5ad30fd2c694e7.druid-4e098a748cece73f.1b05q285c68j33x.rcgu.o.rcgu.o) (hal_spi_config)
/Users/Luppy/PineTime/pinetime-logo-loader/bin/targets/nrf52_my_sensor/app/hw/mcu/nordic/nrf52xxx/hw_mcu_nordic_nrf52xxx.a(hal_watchdog.o)
                              /Users/Luppy/PineTime/pinetime-logo-loader/bin/targets/nrf52_my_sensor/app/libs/rust_app/libs_rust_app.a(app-5a5ad30fd2c694e7.druid-4e098a748cece73f.1b05q285c68j33x.rcgu.o.rcgu.o) (hal_watchdog_tickle)
/Users/Luppy/PineTime/pinetime-logo-loader/bin/targets/nrf52_my_sensor/app/hw/mcu/nordic/nrf52xxx/hw_mcu_nordic_nrf52xxx.a(nrf52_periph.o)
                              /Users/Luppy/PineTime/pinetime-logo-loader/bin/targets/nrf52_my_sensor/app/hw/bsp/nrf52/hw_bsp_nrf52.a(hal_bsp.o) (nrf52_periph_create)
/Users/Luppy/PineTime/pinetime-logo-loader/bin/targets/nrf52_my_sensor/app/hw/mcu/nordic/nrf52xxx/hw_mcu_nordic_nrf52xxx.a(hal_timer.o)
                              /Users/Luppy/PineTime/pinetime-logo-loader/bin/targets/nrf52_my_sensor/app/hw/mcu/nordic/nrf52xxx/hw_mcu_nordic_nrf52xxx.a(nrf52_periph.o) (hal_timer_init)
/Users/Luppy/PineTime/pinetime-logo-loader/bin/targets/nrf52_my_sensor/app/kernel/os/kernel_os.a(os_fault.o)
                              /Users/Luppy/PineTime/pinetime-logo-loader/bin/targets/nrf52_my_sensor/app/libs/semihosting_console/libs_semihosting_console.a(console.o) (__assert_func)
/Users/Luppy/PineTime/pinetime-logo-loader/bin/targets/nrf52_my_sensor/app/kernel/os/kernel_os.a(os.o)
                              /Users/Luppy/PineTime/pinetime-logo-loader/bin/targets/nrf52_my_sensor/app/libc/baselibc/libc_baselibc.a(start.o) (os_init)
/Users/Luppy/PineTime/pinetime-logo-loader/bin/targets/nrf52_my_sensor/app/kernel/os/kernel_os.a(os_callout.o)
                              /Users/Luppy/PineTime/pinetime-logo-loader/bin/targets/nrf52_my_sensor/app/kernel/os/kernel_os.a(os.o) (os_callout_wakeup_ticks)
/Users/Luppy/PineTime/pinetime-logo-loader/bin/targets/nrf52_my_sensor/app/kernel/os/kernel_os.a(os_cputime.o)
                              /Users/Luppy/PineTime/pinetime-logo-loader/bin/targets/nrf52_my_sensor/app/hw/mcu/nordic/nrf52xxx/hw_mcu_nordic_nrf52xxx.a(nrf52_periph.o) (os_cputime_init)
/Users/Luppy/PineTime/pinetime-logo-loader/bin/targets/nrf52_my_sensor/app/kernel/os/kernel_os.a(os_cputime_pwr2.o)
                              /Users/Luppy/PineTime/pinetime-logo-loader/bin/targets/nrf52_my_sensor/app/hw/drivers/flash/spiflash/hw_drivers_flash_spiflash.a(spiflash.o) (os_cputime_usecs_to_ticks)
/Users/Luppy/PineTime/pinetime-logo-loader/bin/targets/nrf52_my_sensor/app/kernel/os/kernel_os.a(os_dev.o)
                              /Users/Luppy/PineTime/pinetime-logo-loader/bin/targets/nrf52_my_sensor/app/kernel/os/kernel_os.a(os.o) (os_dev_initialize_all)
/Users/Luppy/PineTime/pinetime-logo-loader/bin/targets/nrf52_my_sensor/app/kernel/os/kernel_os.a(os_eventq.o)
                              /Users/Luppy/PineTime/pinetime-logo-loader/bin/targets/nrf52_my_sensor/app/libs/rust_app/libs_rust_app.a(app-5a5ad30fd2c694e7.druid-4e098a748cece73f.1b05q285c68j33x.rcgu.o.rcgu.o) (os_eventq_init)
/Users/Luppy/PineTime/pinetime-logo-loader/bin/targets/nrf52_my_sensor/app/kernel/os/kernel_os.a(os_mbuf.o)
                              /Users/Luppy/PineTime/pinetime-logo-loader/bin/targets/nrf52_my_sensor/app/libs/rust_app/libs_rust_app.a(app-5a5ad30fd2c694e7.druid-4e098a748cece73f.1b05q285c68j33x.rcgu.o.rcgu.o) (os_mqueue_init)
/Users/Luppy/PineTime/pinetime-logo-loader/bin/targets/nrf52_my_sensor/app/kernel/os/kernel_os.a(os_mempool.o)
                              /Users/Luppy/PineTime/pinetime-logo-loader/bin/targets/nrf52_my_sensor/app/kernel/os/kernel_os.a(os_mbuf.o) (os_memblock_get)
/Users/Luppy/PineTime/pinetime-logo-loader/bin/targets/nrf52_my_sensor/app/kernel/os/kernel_os.a(os_msys.o)
                              /Users/Luppy/PineTime/pinetime-logo-loader/bin/targets/nrf52_my_sensor/app/libs/rust_app/libs_rust_app.a(app-5a5ad30fd2c694e7.druid-4e098a748cece73f.1b05q285c68j33x.rcgu.o.rcgu.o) (os_msys_get_pkthdr)
/Users/Luppy/PineTime/pinetime-logo-loader/bin/targets/nrf52_my_sensor/app/kernel/os/kernel_os.a(os_mutex.o)
                              /Users/Luppy/PineTime/pinetime-logo-loader/bin/targets/nrf52_my_sensor/app/libs/semihosting_console/libs_semihosting_console.a(console.o) (os_mutex_init)
/Users/Luppy/PineTime/pinetime-logo-loader/bin/targets/nrf52_my_sensor/app/kernel/os/kernel_os.a(os_sanity.o)
                              /Users/Luppy/PineTime/pinetime-logo-loader/bin/targets/nrf52_my_sensor/app/kernel/os/kernel_os.a(os.o) (os_sanity_run)
/Users/Luppy/PineTime/pinetime-logo-loader/bin/targets/nrf52_my_sensor/app/kernel/os/kernel_os.a(os_sched.o)
                              /Users/Luppy/PineTime/pinetime-logo-loader/bin/targets/nrf52_my_sensor/app/kernel/os/kernel_os.a(os_eventq.o) (os_sched_get_current_task)
/Users/Luppy/PineTime/pinetime-logo-loader/bin/targets/nrf52_my_sensor/app/kernel/os/kernel_os.a(os_sem.o)
                              /Users/Luppy/PineTime/pinetime-logo-loader/bin/targets/nrf52_my_sensor/app/libs/rust_app/libs_rust_app.a(app-5a5ad30fd2c694e7.druid-4e098a748cece73f.1b05q285c68j33x.rcgu.o.rcgu.o) (os_sem_init)
/Users/Luppy/PineTime/pinetime-logo-loader/bin/targets/nrf52_my_sensor/app/kernel/os/kernel_os.a(os_task.o)
                              /Users/Luppy/PineTime/pinetime-logo-loader/bin/targets/nrf52_my_sensor/app/libs/rust_app/libs_rust_app.a(app-5a5ad30fd2c694e7.druid-4e098a748cece73f.1b05q285c68j33x.rcgu.o.rcgu.o) (os_task_init)
/Users/Luppy/PineTime/pinetime-logo-loader/bin/targets/nrf52_my_sensor/app/kernel/os/kernel_os.a(os_time.o)
                              /Users/Luppy/PineTime/pinetime-logo-loader/bin/targets/nrf52_my_sensor/app/libs/semihosting_console/libs_semihosting_console.a(console_fmt.o) (os_time_get)
/Users/Luppy/PineTime/pinetime-logo-loader/bin/targets/nrf52_my_sensor/app/kernel/os/kernel_os.a(os_arch_arm.o)
                              /Users/Luppy/PineTime/pinetime-logo-loader/bin/targets/nrf52_my_sensor/app/kernel/os/kernel_os.a(os_sched.o) (os_arch_ctx_sw)
/Users/Luppy/PineTime/pinetime-logo-loader/bin/targets/nrf52_my_sensor/app/kernel/os/kernel_os.a(HAL_CM4.o)
                              /Users/Luppy/PineTime/pinetime-logo-loader/bin/targets/nrf52_my_sensor/app/kernel/os/kernel_os.a(os_arch_arm.o) (os_set_env)
/Users/Luppy/PineTime/pinetime-logo-loader/bin/targets/nrf52_my_sensor/app/kernel/os/kernel_os.a(SVC_Table.o)
                              /Users/Luppy/PineTime/pinetime-logo-loader/bin/targets/nrf52_my_sensor/app/kernel/os/kernel_os.a(HAL_CM4.o) (SVC_Table)
/Users/Luppy/PineTime/pinetime-logo-loader/bin/targets/nrf52_my_sensor/app/libc/baselibc/libc_baselibc.a(lrand48.o)
                              /Users/Luppy/PineTime/pinetime-logo-loader/bin/targets/nrf52_my_sensor/app/apps/my_sensor_app/apps_my_sensor_app.a(ble_gatt_svr.o) (lrand48)
/Users/Luppy/PineTime/pinetime-logo-loader/bin/targets/nrf52_my_sensor/app/libc/baselibc/libc_baselibc.a(srand48.o)
                              /Users/Luppy/PineTime/pinetime-logo-loader/bin/targets/nrf52_my_sensor/app/libc/baselibc/libc_baselibc.a(lrand48.o) (__rand48_seed)
/Users/Luppy/PineTime/pinetime-logo-loader/bin/targets/nrf52_my_sensor/app/libc/baselibc/libc_baselibc.a(strcmp.o)
                              /Users/Luppy/PineTime/pinetime-logo-loader/bin/targets/nrf52_my_sensor/app/kernel/os/kernel_os.a(os_dev.o) (strcmp)
/Users/Luppy/PineTime/pinetime-logo-loader/bin/targets/nrf52_my_sensor/app/libc/baselibc/libc_baselibc.a(strlen.o)
                              /Users/Luppy/PineTime/pinetime-logo-loader/bin/targets/nrf52_my_sensor/app/libs/semihosting_console/libs_semihosting_console.a(semihosting_console.o) (strlen)
/Users/Luppy/PineTime/pinetime-logo-loader/bin/targets/nrf52_my_sensor/app/libc/baselibc/libc_baselibc.a(strncat.o)
                              /Users/Luppy/PineTime/pinetime-logo-loader/bin/targets/nrf52_my_sensor/app/kernel/os/kernel_os.a(os_mempool.o) (strncat)
/Users/Luppy/PineTime/pinetime-logo-loader/bin/targets/nrf52_my_sensor/app/libc/baselibc/libc_baselibc.a(tinyprintf.o)
                              /Users/Luppy/PineTime/pinetime-logo-loader/bin/targets/nrf52_my_sensor/app/libs/semihosting_console/libs_semihosting_console.a(console_fmt.o) (printf)
/Users/Luppy/PineTime/pinetime-logo-loader/bin/targets/nrf52_my_sensor/app/libc/baselibc/libc_baselibc.a(vprintf.o)
                              /Users/Luppy/PineTime/pinetime-logo-loader/bin/targets/nrf52_my_sensor/app/libs/semihosting_console/libs_semihosting_console.a(console_fmt.o) (vprintf)
/Users/Luppy/PineTime/pinetime-logo-loader/bin/targets/nrf52_my_sensor/app/libc/baselibc/libc_baselibc.a(jrand48.o)
                              /Users/Luppy/PineTime/pinetime-logo-loader/bin/targets/nrf52_my_sensor/app/libc/baselibc/libc_baselibc.a(lrand48.o) (jrand48)
/Users/Luppy/PineTime/pinetime-logo-loader/bin/targets/nrf52_my_sensor/app/libc/baselibc/libc_baselibc.a(memfile.o)
                              /Users/Luppy/PineTime/pinetime-logo-loader/bin/targets/nrf52_my_sensor/app/libc/baselibc/libc_baselibc.a(tinyprintf.o) (fmemopen_w)
/Users/Luppy/PineTime/pinetime-logo-loader/bin/targets/nrf52_my_sensor/app/libc/baselibc/libc_baselibc.a(mynewt.o)
                              /Users/Luppy/PineTime/pinetime-logo-loader/bin/targets/nrf52_my_sensor/app/libc/baselibc/libc_baselibc.a(tinyprintf.o) (stdout)
/Users/Luppy/PineTime/pinetime-logo-loader/bin/targets/nrf52_my_sensor/app/libs/mynewt_rust/libs_mynewt_rust.a(mynewt_rust.o)
                              /Users/Luppy/PineTime/pinetime-logo-loader/bin/targets/nrf52_my_sensor/app/libs/rust_app/libs_rust_app.a(app-5a5ad30fd2c694e7.druid-4e098a748cece73f.1b05q285c68j33x.rcgu.o.rcgu.o) (rust_sysinit)
/Users/Luppy/PineTime/pinetime-logo-loader/bin/targets/nrf52_my_sensor/app/libs/rust_app/libs_rust_app.a(compiler_builtins-7064ec948caca4e9.compiler_builtins.28t0v07i-cgu.12.rcgu.o)
                              /Users/Luppy/PineTime/pinetime-logo-loader/bin/targets/nrf52_my_sensor/app/libs/semihosting_console/libs_semihosting_console.a(semihosting_console.o) (__aeabi_dcmplt)
/Users/Luppy/PineTime/pinetime-logo-loader/bin/targets/nrf52_my_sensor/app/libs/rust_app/libs_rust_app.a(truncdfsf2.o)
                              /Users/Luppy/PineTime/pinetime-logo-loader/bin/targets/nrf52_my_sensor/app/libs/semihosting_console/libs_semihosting_console.a(semihosting_console.o) (__aeabi_d2f)
/Users/Luppy/PineTime/pinetime-logo-loader/bin/targets/nrf52_my_sensor/app/mgmt/imgmgr/mgmt_imgmgr.a(imgmgr.o)
                              /Users/Luppy/PineTime/pinetime-logo-loader/bin/targets/nrf52_my_sensor/app/apps/my_sensor_app/apps_my_sensor_app.a(ble_main.o) (imgr_my_version)
/Users/Luppy/PineTime/pinetime-logo-loader/bin/targets/nrf52_my_sensor/app/mgmt/imgmgr/mgmt_imgmgr.a(imgmgr_util.o)
                              /Users/Luppy/PineTime/pinetime-logo-loader/bin/targets/nrf52_my_sensor/app/apps/my_sensor_app/apps_my_sensor_app.a(ble_main.o) (imgr_ver_str)
/Users/Luppy/PineTime/pinetime-logo-loader/bin/targets/nrf52_my_sensor/app/mgmt/mgmt.a(mgmt.o)
                              /Users/Luppy/PineTime/pinetime-logo-loader/bin/targets/nrf52_my_sensor/app/mgmt/imgmgr/mgmt_imgmgr.a(imgmgr.o) (mgmt_register_group)
/Users/Luppy/PineTime/pinetime-logo-loader/bin/targets/nrf52_my_sensor/app/nimble/host/nimble_host.a(ble_gap.o)
                              /Users/Luppy/PineTime/pinetime-logo-loader/bin/targets/nrf52_my_sensor/app/apps/my_sensor_app/apps_my_sensor_app.a(ble_main.o) (ble_gap_conn_find)
/Users/Luppy/PineTime/pinetime-logo-loader/bin/targets/nrf52_my_sensor/app/nimble/host/nimble_host.a(ble_gattc.o)
                              /Users/Luppy/PineTime/pinetime-logo-loader/bin/targets/nrf52_my_sensor/app/nimble/host/nimble_host.a(ble_gap.o) (ble_gattc_connection_broken)
/Users/Luppy/PineTime/pinetime-logo-loader/bin/targets/nrf52_my_sensor/app/nimble/host/nimble_host.a(ble_gatts.o)
                              /Users/Luppy/PineTime/pinetime-logo-loader/bin/targets/nrf52_my_sensor/app/nimble/host/nimble_host.a(ble_gap.o) (ble_gatts_connection_broken)
/Users/Luppy/PineTime/pinetime-logo-loader/bin/targets/nrf52_my_sensor/app/nimble/host/nimble_host.a(ble_hs.o)
                              /Users/Luppy/PineTime/pinetime-logo-loader/bin/targets/nrf52_my_sensor/app/nimble/host/nimble_host.a(ble_gap.o) (ble_hs_lock)
/Users/Luppy/PineTime/pinetime-logo-loader/bin/targets/nrf52_my_sensor/app/nimble/host/nimble_host.a(ble_hs_adv.o)
                              /Users/Luppy/PineTime/pinetime-logo-loader/bin/targets/nrf52_my_sensor/app/nimble/host/nimble_host.a(ble_gap.o) (ble_hs_adv_set_fields)
/Users/Luppy/PineTime/pinetime-logo-loader/bin/targets/nrf52_my_sensor/app/nimble/host/nimble_host.a(ble_hs_atomic.o)
                              /Users/Luppy/PineTime/pinetime-logo-loader/bin/targets/nrf52_my_sensor/app/nimble/host/nimble_host.a(ble_gap.o) (ble_hs_atomic_conn_delete)
/Users/Luppy/PineTime/pinetime-logo-loader/bin/targets/nrf52_my_sensor/app/nimble/host/nimble_host.a(ble_hs_cfg.o)
                              /Users/Luppy/PineTime/pinetime-logo-loader/bin/targets/nrf52_my_sensor/app/apps/my_sensor_app/apps_my_sensor_app.a(ble_main.o) (ble_hs_cfg)
/Users/Luppy/PineTime/pinetime-logo-loader/bin/targets/nrf52_my_sensor/app/nimble/host/nimble_host.a(ble_hs_conn.o)
                              /Users/Luppy/PineTime/pinetime-logo-loader/bin/targets/nrf52_my_sensor/app/nimble/host/nimble_host.a(ble_gap.o) (ble_hs_conn_can_alloc)
/Users/Luppy/PineTime/pinetime-logo-loader/bin/targets/nrf52_my_sensor/app/nimble/host/nimble_host.a(ble_hs_flow.o)
                              /Users/Luppy/PineTime/pinetime-logo-loader/bin/targets/nrf52_my_sensor/app/nimble/host/nimble_host.a(ble_gap.o) (ble_hs_flow_connection_broken)
/Users/Luppy/PineTime/pinetime-logo-loader/bin/targets/nrf52_my_sensor/app/nimble/host/nimble_host.a(ble_hs_hci.o)
                              /Users/Luppy/PineTime/pinetime-logo-loader/bin/targets/nrf52_my_sensor/app/nimble/host/nimble_host.a(ble_gap.o) (ble_hs_hci_cmd_tx)
/Users/Luppy/PineTime/pinetime-logo-loader/bin/targets/nrf52_my_sensor/app/nimble/host/nimble_host.a(ble_hs_hci_cmd.o)
                              /Users/Luppy/PineTime/pinetime-logo-loader/bin/targets/nrf52_my_sensor/app/nimble/host/nimble_host.a(ble_hs_hci.o) (ble_hs_hci_cmd_send_buf)
/Users/Luppy/PineTime/pinetime-logo-loader/bin/targets/nrf52_my_sensor/app/nimble/host/nimble_host.a(ble_hs_hci_evt.o)
                              /Users/Luppy/PineTime/pinetime-logo-loader/bin/targets/nrf52_my_sensor/app/nimble/host/nimble_host.a(ble_hs.o) (ble_hs_hci_evt_process)
/Users/Luppy/PineTime/pinetime-logo-loader/bin/targets/nrf52_my_sensor/app/nimble/host/nimble_host.a(ble_hs_hci_util.o)
                              /Users/Luppy/PineTime/pinetime-logo-loader/bin/targets/nrf52_my_sensor/app/nimble/host/nimble_host.a(ble_hs_hci.o) (ble_hs_hci_util_handle_pb_bc_join)
/Users/Luppy/PineTime/pinetime-logo-loader/bin/targets/nrf52_my_sensor/app/nimble/host/nimble_host.a(ble_hs_id.o)
                              /Users/Luppy/PineTime/pinetime-logo-loader/bin/targets/nrf52_my_sensor/app/nimble/host/nimble_host.a(ble_hs_conn.o) (ble_hs_id_addr)
/Users/Luppy/PineTime/pinetime-logo-loader/bin/targets/nrf52_my_sensor/app/nimble/host/nimble_host.a(ble_hs_log.o)
                              /Users/Luppy/PineTime/pinetime-logo-loader/bin/targets/nrf52_my_sensor/app/nimble/host/nimble_host.a(ble_hs_hci.o) (ble_hs_log_mbuf)
/Users/Luppy/PineTime/pinetime-logo-loader/bin/targets/nrf52_my_sensor/app/nimble/host/nimble_host.a(ble_hs_mbuf.o)
                              /Users/Luppy/PineTime/pinetime-logo-loader/bin/targets/nrf52_my_sensor/app/nimble/host/nimble_host.a(ble_hs_hci.o) (ble_hs_mbuf_acl_pkt)
/Users/Luppy/PineTime/pinetime-logo-loader/bin/targets/nrf52_my_sensor/app/nimble/host/nimble_host.a(ble_hs_misc.o)
                              /Users/Luppy/PineTime/pinetime-logo-loader/bin/targets/nrf52_my_sensor/app/nimble/host/nimble_host.a(ble_hs_conn.o) (ble_hs_misc_own_addr_type_to_id)
/Users/Luppy/PineTime/pinetime-logo-loader/bin/targets/nrf52_my_sensor/app/nimble/host/nimble_host.a(ble_hs_mqueue.o)
                              /Users/Luppy/PineTime/pinetime-logo-loader/bin/targets/nrf52_my_sensor/app/nimble/host/nimble_host.a(ble_hs.o) (ble_mqueue_init)
/Users/Luppy/PineTime/pinetime-logo-loader/bin/targets/nrf52_my_sensor/app/nimble/host/nimble_host.a(ble_hs_pvcy.o)
                              /Users/Luppy/PineTime/pinetime-logo-loader/bin/targets/nrf52_my_sensor/app/nimble/host/nimble_host.a(ble_gap.o) (ble_hs_pvcy_remove_entry)
/Users/Luppy/PineTime/pinetime-logo-loader/bin/targets/nrf52_my_sensor/app/nimble/host/nimble_host.a(ble_hs_startup.o)
                              /Users/Luppy/PineTime/pinetime-logo-loader/bin/targets/nrf52_my_sensor/app/nimble/host/nimble_host.a(ble_hs.o) (ble_hs_startup_go)
/Users/Luppy/PineTime/pinetime-logo-loader/bin/targets/nrf52_my_sensor/app/nimble/host/nimble_host.a(ble_hs_stop.o)
                              /Users/Luppy/PineTime/pinetime-logo-loader/bin/targets/nrf52_my_sensor/app/nimble/host/nimble_host.a(ble_hs.o) (ble_hs_stop_init)
/Users/Luppy/PineTime/pinetime-logo-loader/bin/targets/nrf52_my_sensor/app/nimble/host/nimble_host.a(ble_l2cap.o)
                              /Users/Luppy/PineTime/pinetime-logo-loader/bin/targets/nrf52_my_sensor/app/nimble/host/nimble_host.a(ble_hs_conn.o) (ble_l2cap_chan_free)
/Users/Luppy/PineTime/pinetime-logo-loader/bin/targets/nrf52_my_sensor/app/nimble/host/nimble_host.a(ble_l2cap_sig.o)
                              /Users/Luppy/PineTime/pinetime-logo-loader/bin/targets/nrf52_my_sensor/app/nimble/host/nimble_host.a(ble_gap.o) (ble_l2cap_sig_update)
/Users/Luppy/PineTime/pinetime-logo-loader/bin/targets/nrf52_my_sensor/app/nimble/host/nimble_host.a(ble_l2cap_sig_cmd.o)
                              /Users/Luppy/PineTime/pinetime-logo-loader/bin/targets/nrf52_my_sensor/app/nimble/host/nimble_host.a(ble_l2cap_sig.o) (ble_l2cap_sig_tx)
/Users/Luppy/PineTime/pinetime-logo-loader/bin/targets/nrf52_my_sensor/app/nimble/host/nimble_host.a(ble_sm.o)
                              /Users/Luppy/PineTime/pinetime-logo-loader/bin/targets/nrf52_my_sensor/app/nimble/host/nimble_host.a(ble_hs_hci_evt.o) (ble_sm_enc_change_rx)
/Users/Luppy/PineTime/pinetime-logo-loader/bin/targets/nrf52_my_sensor/app/nimble/host/nimble_host.a(ble_sm_cmd.o)
                              /Users/Luppy/PineTime/pinetime-logo-loader/bin/targets/nrf52_my_sensor/app/nimble/host/nimble_host.a(ble_sm.o) (ble_sm_cmd_get)
/Users/Luppy/PineTime/pinetime-logo-loader/bin/targets/nrf52_my_sensor/app/nimble/host/nimble_host.a(ble_sm_lgcy.o)
                              /Users/Luppy/PineTime/pinetime-logo-loader/bin/targets/nrf52_my_sensor/app/nimble/host/nimble_host.a(ble_sm.o) (ble_sm_lgcy_io_action)
/Users/Luppy/PineTime/pinetime-logo-loader/bin/targets/nrf52_my_sensor/app/nimble/host/nimble_host.a(ble_store.o)
                              /Users/Luppy/PineTime/pinetime-logo-loader/bin/targets/nrf52_my_sensor/app/nimble/host/nimble_host.a(ble_sm.o) (ble_store_read_our_sec)
/Users/Luppy/PineTime/pinetime-logo-loader/bin/targets/nrf52_my_sensor/app/nimble/host/nimble_host.a(ble_store_util.o)
                              /Users/Luppy/PineTime/pinetime-logo-loader/bin/targets/nrf52_my_sensor/app/nimble/host/nimble_host.a(ble_gap.o) (ble_store_util_bonded_peers)
/Users/Luppy/PineTime/pinetime-logo-loader/bin/targets/nrf52_my_sensor/app/nimble/host/nimble_host.a(ble_uuid.o)
                              /Users/Luppy/PineTime/pinetime-logo-loader/bin/targets/nrf52_my_sensor/app/nimble/host/nimble_host.a(ble_hs_adv.o) (ble_uuid_init_from_buf)
/Users/Luppy/PineTime/pinetime-logo-loader/bin/targets/nrf52_my_sensor/app/nimble/host/nimble_host.a(ble_att.o)
                              /Users/Luppy/PineTime/pinetime-logo-loader/bin/targets/nrf52_my_sensor/app/nimble/host/nimble_host.a(ble_gattc.o) (ble_att_conn_chan_find)
/Users/Luppy/PineTime/pinetime-logo-loader/bin/targets/nrf52_my_sensor/app/nimble/host/nimble_host.a(ble_att_clt.o)
                              /Users/Luppy/PineTime/pinetime-logo-loader/bin/targets/nrf52_my_sensor/app/nimble/host/nimble_host.a(ble_att.o) (ble_att_clt_rx_error)
/Users/Luppy/PineTime/pinetime-logo-loader/bin/targets/nrf52_my_sensor/app/nimble/host/nimble_host.a(ble_att_cmd.o)
                              /Users/Luppy/PineTime/pinetime-logo-loader/bin/targets/nrf52_my_sensor/app/nimble/host/nimble_host.a(ble_att_clt.o) (ble_att_cmd_get)
/Users/Luppy/PineTime/pinetime-logo-loader/bin/targets/nrf52_my_sensor/app/nimble/host/nimble_host.a(ble_att_svr.o)
                              /Users/Luppy/PineTime/pinetime-logo-loader/bin/targets/nrf52_my_sensor/app/nimble/host/nimble_host.a(ble_gatts.o) (ble_att_svr_register)
/Users/Luppy/PineTime/pinetime-logo-loader/bin/targets/nrf52_my_sensor/app/nimble/host/nimble_host.a(ble_sm_alg.o)
                              /Users/Luppy/PineTime/pinetime-logo-loader/bin/targets/nrf52_my_sensor/app/nimble/host/nimble_host.a(ble_sm_lgcy.o) (ble_sm_alg_s1)
/Users/Luppy/PineTime/pinetime-logo-loader/bin/targets/nrf52_my_sensor/app/nimble/host/services/dis/nimble_host_services_dis.a(ble_svc_dis.o)
                              /Users/Luppy/PineTime/pinetime-logo-loader/bin/targets/nrf52_my_sensor/app/apps/my_sensor_app/apps_my_sensor_app.a(ble_main.o) (ble_svc_dis_firmware_revision_set)
/Users/Luppy/PineTime/pinetime-logo-loader/bin/targets/nrf52_my_sensor/app/nimble/host/services/gap/nimble_host_services_gap.a(ble_svc_gap.o)
                              /Users/Luppy/PineTime/pinetime-logo-loader/bin/targets/nrf52_my_sensor/app/apps/my_sensor_app/apps_my_sensor_app.a(ble_main.o) (ble_svc_gap_device_name)
/Users/Luppy/PineTime/pinetime-logo-loader/bin/targets/nrf52_my_sensor/app/nimble/host/util/nimble_host_util.a(addr.o)
                              /Users/Luppy/PineTime/pinetime-logo-loader/bin/targets/nrf52_my_sensor/app/apps/my_sensor_app/apps_my_sensor_app.a(ble_main.o) (ble_hs_util_ensure_addr)
/Users/Luppy/PineTime/pinetime-logo-loader/bin/targets/nrf52_my_sensor/app/nimble/transport/ram/nimble_transport_ram.a(ble_hci_ram.o)
                              /Users/Luppy/PineTime/pinetime-logo-loader/bin/targets/nrf52_my_sensor/app/nimble/host/nimble_host.a(ble_hs.o) (ble_hci_trans_cfg_hs)
/Users/Luppy/PineTime/pinetime-logo-loader/bin/targets/nrf52_my_sensor/app/sys/config/sys_config.a(config_store.o)
                              /Users/Luppy/PineTime/pinetime-logo-loader/bin/targets/nrf52_my_sensor/app/apps/my_sensor_app/apps_my_sensor_app.a(ble_main.o) (conf_load)
/Users/Luppy/PineTime/pinetime-logo-loader/bin/targets/nrf52_my_sensor/app/sys/config/sys_config.a(config.o)
                              /Users/Luppy/PineTime/pinetime-logo-loader/bin/targets/nrf52_my_sensor/app/sys/config/sys_config.a(config_store.o) (conf_lock)
/Users/Luppy/PineTime/pinetime-logo-loader/bin/targets/nrf52_my_sensor/app/sys/flash_map/sys_flash_map.a(flash_map.o)
                              /Users/Luppy/PineTime/pinetime-logo-loader/bin/targets/nrf52_my_sensor/app/mgmt/imgmgr/mgmt_imgmgr.a(imgmgr.o) (flash_area_open)
/Users/Luppy/PineTime/pinetime-logo-loader/bin/targets/nrf52_my_sensor/app/sys/mfg/sys_mfg.a(mfg.o)
                              /Users/Luppy/PineTime/pinetime-logo-loader/bin/targets/nrf52_my_sensor/app/sys/flash_map/sys_flash_map.a(flash_map.o) (mfg_seek_next_with_type)
/Users/Luppy/PineTime/pinetime-logo-loader/bin/targets/nrf52_my_sensor/app/sys/sysdown/sys_sysdown.a(sysdown.o)
                              /Users/Luppy/PineTime/pinetime-logo-loader/bin/targets/nrf52_my_sensor/app/kernel/os/kernel_os.a(os.o) (sysdown)
/Users/Luppy/PineTime/pinetime-logo-loader/bin/targets/nrf52_my_sensor/app/util/mem/util_mem.a(mem.o)
                              /Users/Luppy/PineTime/pinetime-logo-loader/bin/targets/nrf52_my_sensor/app/kernel/os/kernel_os.a(os_msys.o) (mem_init_mbuf_pool)
/Users/Luppy/PineTime/pinetime-logo-loader/bin/targets/nrf52_my_sensor/generated/bin/nrf52_my_sensor-sysinit-app.a(nrf52_my_sensor-sysdown-app.o)
                              /Users/Luppy/PineTime/pinetime-logo-loader/bin/targets/nrf52_my_sensor/app/sys/sysdown/sys_sysdown.a(sysdown.o) (sysdown_cbs)
/Users/Luppy/PineTime/pinetime-logo-loader/bin/targets/nrf52_my_sensor/generated/bin/nrf52_my_sensor-sysinit-app.a(nrf52_my_sensor-sysflash.o)
                              /Users/Luppy/PineTime/pinetime-logo-loader/bin/targets/nrf52_my_sensor/app/sys/flash_map/sys_flash_map.a(flash_map.o) (sysflash_map_dflt)
/Users/Luppy/PineTime/pinetime-logo-loader/bin/targets/nrf52_my_sensor/generated/bin/nrf52_my_sensor-sysinit-app.a(nrf52_my_sensor-sysinit-app.o)
                              /Users/Luppy/PineTime/pinetime-logo-loader/bin/targets/nrf52_my_sensor/app/libs/mynewt_rust/libs_mynewt_rust.a(mynewt_rust.o) (sysinit_app)
/Users/Luppy/PineTime/pinetime-logo-loader/bin/targets/nrf52_my_sensor/app/boot/bootutil/boot_bootutil.a(bootutil_misc.o)
                              /Users/Luppy/PineTime/pinetime-logo-loader/bin/targets/nrf52_my_sensor/app/mgmt/imgmgr/mgmt_imgmgr.a(imgmgr.o) (boot_current_slot)
/Users/Luppy/PineTime/pinetime-logo-loader/bin/targets/nrf52_my_sensor/app/boot/split/boot_split.a(split.o)
                              /Users/Luppy/PineTime/pinetime-logo-loader/bin/targets/nrf52_my_sensor/generated/bin/nrf52_my_sensor-sysinit-app.a(nrf52_my_sensor-sysinit-app.o) (split_app_init)
/Users/Luppy/PineTime/pinetime-logo-loader/bin/targets/nrf52_my_sensor/app/cmd/img_mgmt/cmd_img_mgmt.a(img_mgmt.o)
                              /Users/Luppy/PineTime/pinetime-logo-loader/bin/targets/nrf52_my_sensor/app/mgmt/imgmgr/mgmt_imgmgr.a(imgmgr.o) (img_mgmt_read_info)
/Users/Luppy/PineTime/pinetime-logo-loader/bin/targets/nrf52_my_sensor/app/cmd/img_mgmt/cmd_img_mgmt.a(img_mgmt_state.o)
                              /Users/Luppy/PineTime/pinetime-logo-loader/bin/targets/nrf52_my_sensor/app/mgmt/imgmgr/mgmt_imgmgr.a(imgmgr.o) (img_mgmt_state_flags)
/Users/Luppy/PineTime/pinetime-logo-loader/bin/targets/nrf52_my_sensor/app/cmd/img_mgmt/cmd_img_mgmt.a(img_mgmt_util.o)
                              /Users/Luppy/PineTime/pinetime-logo-loader/bin/targets/nrf52_my_sensor/app/cmd/img_mgmt/cmd_img_mgmt.a(img_mgmt_state.o) (img_mgmt_ver_str)
/Users/Luppy/PineTime/pinetime-logo-loader/bin/targets/nrf52_my_sensor/app/cmd/img_mgmt/port/mynewt/cmd_img_mgmt_port_mynewt.a(mynewt_img_mgmt.o)
                              /Users/Luppy/PineTime/pinetime-logo-loader/bin/targets/nrf52_my_sensor/app/cmd/img_mgmt/cmd_img_mgmt.a(img_mgmt.o) (img_mgmt_impl_upload_inspect)
/Users/Luppy/PineTime/pinetime-logo-loader/bin/targets/nrf52_my_sensor/app/cmd/img_mgmt/port/mynewt/cmd_img_mgmt_port_mynewt.a(mynewt_img_mgmt_log.o)
                              /Users/Luppy/PineTime/pinetime-logo-loader/bin/targets/nrf52_my_sensor/app/cmd/img_mgmt/cmd_img_mgmt.a(img_mgmt.o) (img_mgmt_impl_log_upload_start)
/Users/Luppy/PineTime/pinetime-logo-loader/bin/targets/nrf52_my_sensor/app/cmd/os_mgmt/cmd_os_mgmt.a(os_mgmt.o)
                              /Users/Luppy/PineTime/pinetime-logo-loader/bin/targets/nrf52_my_sensor/generated/bin/nrf52_my_sensor-sysinit-app.a(nrf52_my_sensor-sysinit-app.o) (os_mgmt_module_init)
/Users/Luppy/PineTime/pinetime-logo-loader/bin/targets/nrf52_my_sensor/app/cmd/os_mgmt/port/mynewt/cmd_os_mgmt_port_mynewt.a(mynewt_os_mgmt.o)
                              /Users/Luppy/PineTime/pinetime-logo-loader/bin/targets/nrf52_my_sensor/app/cmd/os_mgmt/cmd_os_mgmt.a(os_mgmt.o) (os_mgmt_impl_task_info)
/Users/Luppy/PineTime/pinetime-logo-loader/bin/targets/nrf52_my_sensor/app/crypto/tinycrypt/crypto_tinycrypt.a(aes_encrypt.o)
                              /Users/Luppy/PineTime/pinetime-logo-loader/bin/targets/nrf52_my_sensor/app/nimble/host/nimble_host.a(ble_sm_alg.o) (tc_aes128_set_encrypt_key)
/Users/Luppy/PineTime/pinetime-logo-loader/bin/targets/nrf52_my_sensor/app/crypto/tinycrypt/crypto_tinycrypt.a(utils.o)
                              /Users/Luppy/PineTime/pinetime-logo-loader/bin/targets/nrf52_my_sensor/app/crypto/tinycrypt/crypto_tinycrypt.a(aes_encrypt.o) (_copy)
/Users/Luppy/PineTime/pinetime-logo-loader/bin/targets/nrf52_my_sensor/app/encoding/base64/encoding_base64.a(base64.o)
                              /Users/Luppy/PineTime/pinetime-logo-loader/bin/targets/nrf52_my_sensor/app/sys/config/sys_config.a(config.o) (base64_encode)
/Users/Luppy/PineTime/pinetime-logo-loader/bin/targets/nrf52_my_sensor/app/encoding/tinycbor/encoding_tinycbor.a(cborencoder.o)
                              /Users/Luppy/PineTime/pinetime-logo-loader/bin/targets/nrf52_my_sensor/app/mgmt/mgmt.a(mgmt.o) (cbor_encoder_init)
/Users/Luppy/PineTime/pinetime-logo-loader/bin/targets/nrf52_my_sensor/app/encoding/tinycbor/encoding_tinycbor.a(cborparser.o)
                              /Users/Luppy/PineTime/pinetime-logo-loader/bin/targets/nrf52_my_sensor/app/mgmt/mgmt.a(mgmt.o) (cbor_parser_init)
/Users/Luppy/PineTime/pinetime-logo-loader/bin/targets/nrf52_my_sensor/app/hw/mcu/nordic/nrf52xxx/hw_mcu_nordic_nrf52xxx.a(hal_os_tick.o)
                              /Users/Luppy/PineTime/pinetime-logo-loader/bin/targets/nrf52_my_sensor/app/kernel/os/kernel_os.a(os.o) (os_tick_idle)
/Users/Luppy/PineTime/pinetime-logo-loader/bin/targets/nrf52_my_sensor/app/hw/sensor/creator/hw_sensor_creator.a(sensor_creator.o)
                              /Users/Luppy/PineTime/pinetime-logo-loader/bin/targets/nrf52_my_sensor/generated/bin/nrf52_my_sensor-sysinit-app.a(nrf52_my_sensor-sysinit-app.o) (sensor_dev_create)
/Users/Luppy/PineTime/pinetime-logo-loader/bin/targets/nrf52_my_sensor/app/hw/sensor/hw_sensor.a(sensor.o)
                              /Users/Luppy/PineTime/pinetime-logo-loader/bin/targets/nrf52_my_sensor/generated/bin/nrf52_my_sensor-sysinit-app.a(nrf52_my_sensor-sysinit-app.o) (sensor_pkg_init)
/Users/Luppy/PineTime/pinetime-logo-loader/bin/targets/nrf52_my_sensor/app/kernel/os/kernel_os.a(endian.o)
                              /Users/Luppy/PineTime/pinetime-logo-loader/bin/targets/nrf52_my_sensor/app/nimble/host/nimble_host.a(ble_gatts.o) (put_le16)
/Users/Luppy/PineTime/pinetime-logo-loader/bin/targets/nrf52_my_sensor/app/libc/baselibc/libc_baselibc.a(malloc.o)
                              /Users/Luppy/PineTime/pinetime-logo-loader/bin/targets/nrf52_my_sensor/app/nimble/host/nimble_host.a(ble_gatts.o) (malloc)
/Users/Luppy/PineTime/pinetime-logo-loader/bin/targets/nrf52_my_sensor/app/libc/baselibc/libc_baselibc.a(realloc.o)
                              /Users/Luppy/PineTime/pinetime-logo-loader/bin/targets/nrf52_my_sensor/app/nimble/host/nimble_host.a(ble_gatts.o) (realloc)
/Users/Luppy/PineTime/pinetime-logo-loader/bin/targets/nrf52_my_sensor/app/libc/baselibc/libc_baselibc.a(sprintf.o)
                              /Users/Luppy/PineTime/pinetime-logo-loader/bin/targets/nrf52_my_sensor/app/mgmt/imgmgr/mgmt_imgmgr.a(imgmgr_util.o) (sprintf)
/Users/Luppy/PineTime/pinetime-logo-loader/bin/targets/nrf52_my_sensor/app/libc/baselibc/libc_baselibc.a(strchr.o)
                              /Users/Luppy/PineTime/pinetime-logo-loader/bin/targets/nrf52_my_sensor/app/encoding/base64/encoding_base64.a(base64.o) (strchr)
/Users/Luppy/PineTime/pinetime-logo-loader/bin/targets/nrf52_my_sensor/app/libc/baselibc/libc_baselibc.a(strcpy.o)
                              /Users/Luppy/PineTime/pinetime-logo-loader/bin/targets/nrf52_my_sensor/app/sys/config/sys_config.a(config_store.o) (strcpy)
/Users/Luppy/PineTime/pinetime-logo-loader/bin/targets/nrf52_my_sensor/app/libc/baselibc/libc_baselibc.a(strncpy.o)
                              /Users/Luppy/PineTime/pinetime-logo-loader/bin/targets/nrf52_my_sensor/app/sys/config/sys_config.a(config_store.o) (strncpy)
/Users/Luppy/PineTime/pinetime-logo-loader/bin/targets/nrf52_my_sensor/app/libc/baselibc/libc_baselibc.a(strsep.o)
                              /Users/Luppy/PineTime/pinetime-logo-loader/bin/targets/nrf52_my_sensor/app/mgmt/imgmgr/mgmt_imgmgr.a(imgmgr_util.o) (strsep)
/Users/Luppy/PineTime/pinetime-logo-loader/bin/targets/nrf52_my_sensor/app/libc/baselibc/libc_baselibc.a(strtok_r.o)
                              /Users/Luppy/PineTime/pinetime-logo-loader/bin/targets/nrf52_my_sensor/app/sys/config/sys_config.a(config.o) (strtok_r)
/Users/Luppy/PineTime/pinetime-logo-loader/bin/targets/nrf52_my_sensor/app/libc/baselibc/libc_baselibc.a(strtoll.o)
                              /Users/Luppy/PineTime/pinetime-logo-loader/bin/targets/nrf52_my_sensor/app/sys/config/sys_config.a(config.o) (strtoll)
/Users/Luppy/PineTime/pinetime-logo-loader/bin/targets/nrf52_my_sensor/app/libc/baselibc/libc_baselibc.a(strtoul.o)
                              /Users/Luppy/PineTime/pinetime-logo-loader/bin/targets/nrf52_my_sensor/app/mgmt/imgmgr/mgmt_imgmgr.a(imgmgr_util.o) (strtoul)
/Users/Luppy/PineTime/pinetime-logo-loader/bin/targets/nrf52_my_sensor/app/libc/baselibc/libc_baselibc.a(strtoull.o)
                              /Users/Luppy/PineTime/pinetime-logo-loader/bin/targets/nrf52_my_sensor/app/sys/config/sys_config.a(config.o) (strtoull)
/Users/Luppy/PineTime/pinetime-logo-loader/bin/targets/nrf52_my_sensor/app/libc/baselibc/libc_baselibc.a(strntoumax.o)
                              /Users/Luppy/PineTime/pinetime-logo-loader/bin/targets/nrf52_my_sensor/app/libc/baselibc/libc_baselibc.a(strtoll.o) (strntoumax)
/Users/Luppy/PineTime/pinetime-logo-loader/bin/targets/nrf52_my_sensor/app/libc/baselibc/libc_baselibc.a(strpbrk.o)
                              /Users/Luppy/PineTime/pinetime-logo-loader/bin/targets/nrf52_my_sensor/app/libc/baselibc/libc_baselibc.a(strsep.o) (strpbrk)
/Users/Luppy/PineTime/pinetime-logo-loader/bin/targets/nrf52_my_sensor/app/libs/rust_app/libs_rust_app.a(popcountsi2.o)
                              /Users/Luppy/PineTime/pinetime-logo-loader/bin/targets/nrf52_my_sensor/app/nimble/host/nimble_host.a(ble_hs_id.o) (__popcountsi2)
/Users/Luppy/PineTime/pinetime-logo-loader/bin/targets/nrf52_my_sensor/app/libs/sensor_coap/libs_sensor_coap.a(sensor_coap.o)
                              /Users/Luppy/PineTime/pinetime-logo-loader/bin/targets/nrf52_my_sensor/generated/bin/nrf52_my_sensor-sysinit-app.a(nrf52_my_sensor-sysinit-app.o) (init_sensor_coap)
/Users/Luppy/PineTime/pinetime-logo-loader/bin/targets/nrf52_my_sensor/app/libs/sensor_network/libs_sensor_network.a(sensor_network.o)
                              /Users/Luppy/PineTime/pinetime-logo-loader/bin/targets/nrf52_my_sensor/generated/bin/nrf52_my_sensor-sysinit-app.a(nrf52_my_sensor-sysinit-app.o) (sensor_network_init)
/Users/Luppy/PineTime/pinetime-logo-loader/bin/targets/nrf52_my_sensor/app/libs/temp_stub/libs_temp_stub.a(creator.o)
                              /Users/Luppy/PineTime/pinetime-logo-loader/bin/targets/nrf52_my_sensor/generated/bin/nrf52_my_sensor-sysinit-app.a(nrf52_my_sensor-sysinit-app.o) (temp_stub_create)
/Users/Luppy/PineTime/pinetime-logo-loader/bin/targets/nrf52_my_sensor/app/libs/temp_stub/libs_temp_stub.a(temp_stub.o)
                              /Users/Luppy/PineTime/pinetime-logo-loader/bin/targets/nrf52_my_sensor/app/libs/temp_stub/libs_temp_stub.a(creator.o) (temp_stub_default_cfg)
/Users/Luppy/PineTime/pinetime-logo-loader/bin/targets/nrf52_my_sensor/app/mgmt/smp/mgmt_smp.a(smp.o)
                              /Users/Luppy/PineTime/pinetime-logo-loader/bin/targets/nrf52_my_sensor/generated/bin/nrf52_my_sensor-sysinit-app.a(nrf52_my_sensor-sysinit-app.o) (smp_pkg_init)
/Users/Luppy/PineTime/pinetime-logo-loader/bin/targets/nrf52_my_sensor/app/mgmt/smp/transport/ble/mgmt_smp_transport_ble.a(smp_ble.o)
                              /Users/Luppy/PineTime/pinetime-logo-loader/bin/targets/nrf52_my_sensor/generated/bin/nrf52_my_sensor-sysinit-app.a(nrf52_my_sensor-sysinit-app.o) (smp_ble_pkg_init)
/Users/Luppy/PineTime/pinetime-logo-loader/bin/targets/nrf52_my_sensor/app/net/oic/net_oic.a(oc_buffer.o)
                              /Users/Luppy/PineTime/pinetime-logo-loader/bin/targets/nrf52_my_sensor/app/libs/sensor_coap/libs_sensor_coap.a(sensor_coap.o) (oc_allocate_mbuf)
/Users/Luppy/PineTime/pinetime-logo-loader/bin/targets/nrf52_my_sensor/app/net/oic/net_oic.a(oc_ri.o)
                              /Users/Luppy/PineTime/pinetime-logo-loader/bin/targets/nrf52_my_sensor/app/libs/sensor_coap/libs_sensor_coap.a(sensor_coap.o) (oc_ri_remove_client_cb_by_mid)
/Users/Luppy/PineTime/pinetime-logo-loader/bin/targets/nrf52_my_sensor/app/net/oic/net_oic.a(coap.o)
                              /Users/Luppy/PineTime/pinetime-logo-loader/bin/targets/nrf52_my_sensor/app/net/oic/net_oic.a(oc_ri.o) (coap_get_mid)
/Users/Luppy/PineTime/pinetime-logo-loader/bin/targets/nrf52_my_sensor/app/net/oic/net_oic.a(engine.o)
                              /Users/Luppy/PineTime/pinetime-logo-loader/bin/targets/nrf52_my_sensor/app/net/oic/net_oic.a(oc_ri.o) (coap_engine_init)
/Users/Luppy/PineTime/pinetime-logo-loader/bin/targets/nrf52_my_sensor/app/net/oic/net_oic.a(transactions.o)
                              /Users/Luppy/PineTime/pinetime-logo-loader/bin/targets/nrf52_my_sensor/app/net/oic/net_oic.a(engine.o) (coap_transaction_init)
/Users/Luppy/PineTime/pinetime-logo-loader/bin/targets/nrf52_my_sensor/app/net/oic/net_oic.a(adaptor.o)
                              /Users/Luppy/PineTime/pinetime-logo-loader/bin/targets/nrf52_my_sensor/app/net/oic/net_oic.a(oc_buffer.o) (oc_evq_get)
/Users/Luppy/PineTime/pinetime-logo-loader/bin/targets/nrf52_my_sensor/app/net/oic/net_oic.a(ble_adaptor.o)
                              /Users/Luppy/PineTime/pinetime-logo-loader/bin/targets/nrf52_my_sensor/generated/bin/nrf52_my_sensor-sysinit-app.a(nrf52_my_sensor-sysinit-app.o) (oc_register_gatt)
/Users/Luppy/PineTime/pinetime-logo-loader/bin/targets/nrf52_my_sensor/app/net/oic/net_oic.a(clock.o)
                              /Users/Luppy/PineTime/pinetime-logo-loader/bin/targets/nrf52_my_sensor/app/net/oic/net_oic.a(oc_ri.o) (oc_clock_time)
/Users/Luppy/PineTime/pinetime-logo-loader/bin/targets/nrf52_my_sensor/app/net/oic/net_oic.a(conns.o)
                              /Users/Luppy/PineTime/pinetime-logo-loader/bin/targets/nrf52_my_sensor/app/net/oic/net_oic.a(adaptor.o) (oc_conn_init)
/Users/Luppy/PineTime/pinetime-logo-loader/bin/targets/nrf52_my_sensor/app/net/oic/net_oic.a(ip4_adaptor.o)
                              /Users/Luppy/PineTime/pinetime-logo-loader/bin/targets/nrf52_my_sensor/generated/bin/nrf52_my_sensor-sysinit-app.a(nrf52_my_sensor-sysinit-app.o) (oc_register_ip4)
/Users/Luppy/PineTime/pinetime-logo-loader/bin/targets/nrf52_my_sensor/app/net/oic/net_oic.a(ip_adaptor.o)
                              /Users/Luppy/PineTime/pinetime-logo-loader/bin/targets/nrf52_my_sensor/generated/bin/nrf52_my_sensor-sysinit-app.a(nrf52_my_sensor-sysinit-app.o) (oc_register_ip6)
/Users/Luppy/PineTime/pinetime-logo-loader/bin/targets/nrf52_my_sensor/app/net/oic/net_oic.a(lora_adaptor.o)
                              /Users/Luppy/PineTime/pinetime-logo-loader/bin/targets/nrf52_my_sensor/generated/bin/nrf52_my_sensor-sysinit-app.a(nrf52_my_sensor-sysinit-app.o) (oc_register_lora)
/Users/Luppy/PineTime/pinetime-logo-loader/bin/targets/nrf52_my_sensor/app/net/oic/net_oic.a(random.o)
                              /Users/Luppy/PineTime/pinetime-logo-loader/bin/targets/nrf52_my_sensor/app/net/oic/net_oic.a(oc_ri.o) (oc_random_rand)
/Users/Luppy/PineTime/pinetime-logo-loader/bin/targets/nrf52_my_sensor/app/net/oic/net_oic.a(serial_adaptor.o)
                              /Users/Luppy/PineTime/pinetime-logo-loader/bin/targets/nrf52_my_sensor/generated/bin/nrf52_my_sensor-sysinit-app.a(nrf52_my_sensor-sysinit-app.o) (oc_register_serial)
/Users/Luppy/PineTime/pinetime-logo-loader/bin/targets/nrf52_my_sensor/app/net/oic/net_oic.a(tcp4_adaptor.o)
                              /Users/Luppy/PineTime/pinetime-logo-loader/bin/targets/nrf52_my_sensor/generated/bin/nrf52_my_sensor-sysinit-app.a(nrf52_my_sensor-sysinit-app.o) (oc_register_tcp4)
/Users/Luppy/PineTime/pinetime-logo-loader/bin/targets/nrf52_my_sensor/app/net/oic/net_oic.a(oc_core_res.o)
                              /Users/Luppy/PineTime/pinetime-logo-loader/bin/targets/nrf52_my_sensor/app/net/oic/net_oic.a(oc_ri.o) (oc_core_get_resource_by_index)
/Users/Luppy/PineTime/pinetime-logo-loader/bin/targets/nrf52_my_sensor/app/net/oic/net_oic.a(oc_discovery.o)
                              /Users/Luppy/PineTime/pinetime-logo-loader/bin/targets/nrf52_my_sensor/app/net/oic/net_oic.a(oc_ri.o) (oc_create_discovery_resource)
/Users/Luppy/PineTime/pinetime-logo-loader/bin/targets/nrf52_my_sensor/app/net/oic/net_oic.a(oc_helpers.o)
                              /Users/Luppy/PineTime/pinetime-logo-loader/bin/targets/nrf52_my_sensor/app/net/oic/net_oic.a(oc_ri.o) (oc_new_string)
/Users/Luppy/PineTime/pinetime-logo-loader/bin/targets/nrf52_my_sensor/app/net/oic/net_oic.a(oc_rep.o)
                              /Users/Luppy/PineTime/pinetime-logo-loader/bin/targets/nrf52_my_sensor/app/net/oic/net_oic.a(oc_ri.o) (oc_rep_new)
/Users/Luppy/PineTime/pinetime-logo-loader/bin/targets/nrf52_my_sensor/app/net/oic/net_oic.a(oc_server_api.o)
                              /Users/Luppy/PineTime/pinetime-logo-loader/bin/targets/nrf52_my_sensor/app/net/oic/net_oic.a(oc_discovery.o) (oc_process_baseline_interface)
/Users/Luppy/PineTime/pinetime-logo-loader/bin/targets/nrf52_my_sensor/app/net/oic/net_oic.a(oc_uuid.o)
                              /Users/Luppy/PineTime/pinetime-logo-loader/bin/targets/nrf52_my_sensor/app/net/oic/net_oic.a(oc_core_res.o) (oc_uuid_to_str)
/Users/Luppy/PineTime/pinetime-logo-loader/bin/targets/nrf52_my_sensor/app/nimble/controller/nimble_controller.a(ble_ll.o)
                              /Users/Luppy/PineTime/pinetime-logo-loader/bin/targets/nrf52_my_sensor/generated/bin/nrf52_my_sensor-sysinit-app.a(nrf52_my_sensor-sysinit-app.o) (ble_ll_init)
/Users/Luppy/PineTime/pinetime-logo-loader/bin/targets/nrf52_my_sensor/app/nimble/controller/nimble_controller.a(ble_ll_adv.o)
                              /Users/Luppy/PineTime/pinetime-logo-loader/bin/targets/nrf52_my_sensor/app/nimble/controller/nimble_controller.a(ble_ll.o) (ble_ll_adv_rx_isr_end)
/Users/Luppy/PineTime/pinetime-logo-loader/bin/targets/nrf52_my_sensor/app/nimble/controller/nimble_controller.a(ble_ll_conn.o)
                              /Users/Luppy/PineTime/pinetime-logo-loader/bin/targets/nrf52_my_sensor/app/nimble/controller/nimble_controller.a(ble_ll.o) (ble_ll_conn_wfr_timer_exp)
/Users/Luppy/PineTime/pinetime-logo-loader/bin/targets/nrf52_my_sensor/app/nimble/controller/nimble_controller.a(ble_ll_conn_hci.o)
                              /Users/Luppy/PineTime/pinetime-logo-loader/bin/targets/nrf52_my_sensor/app/nimble/controller/nimble_controller.a(ble_ll_adv.o) (ble_ll_conn_comp_event_send)
/Users/Luppy/PineTime/pinetime-logo-loader/bin/targets/nrf52_my_sensor/app/nimble/controller/nimble_controller.a(ble_ll_ctrl.o)
                              /Users/Luppy/PineTime/pinetime-logo-loader/bin/targets/nrf52_my_sensor/app/nimble/controller/nimble_controller.a(ble_ll_conn_hci.o) (ble_ll_calc_session_key)
/Users/Luppy/PineTime/pinetime-logo-loader/bin/targets/nrf52_my_sensor/app/nimble/controller/nimble_controller.a(ble_ll_hci.o)
                              /Users/Luppy/PineTime/pinetime-logo-loader/bin/targets/nrf52_my_sensor/app/nimble/controller/nimble_controller.a(ble_ll_adv.o) (ble_ll_hci_adv_mode_ext)
/Users/Luppy/PineTime/pinetime-logo-loader/bin/targets/nrf52_my_sensor/app/nimble/controller/nimble_controller.a(ble_ll_hci_ev.o)
                              /Users/Luppy/PineTime/pinetime-logo-loader/bin/targets/nrf52_my_sensor/app/nimble/controller/nimble_controller.a(ble_ll_conn.o) (ble_ll_hci_ev_datalen_chg)
/Users/Luppy/PineTime/pinetime-logo-loader/bin/targets/nrf52_my_sensor/app/nimble/controller/nimble_controller.a(ble_ll_rand.o)
                              /Users/Luppy/PineTime/pinetime-logo-loader/bin/targets/nrf52_my_sensor/app/nimble/controller/nimble_controller.a(ble_ll_ctrl.o) (ble_ll_rand_data_get)
/Users/Luppy/PineTime/pinetime-logo-loader/bin/targets/nrf52_my_sensor/app/nimble/controller/nimble_controller.a(ble_ll_resolv.o)
                              /Users/Luppy/PineTime/pinetime-logo-loader/bin/targets/nrf52_my_sensor/app/nimble/controller/nimble_controller.a(ble_ll_hci.o) (ble_ll_resolv_list_clr)
/Users/Luppy/PineTime/pinetime-logo-loader/bin/targets/nrf52_my_sensor/app/nimble/controller/nimble_controller.a(ble_ll_rfmgmt.o)
                              /Users/Luppy/PineTime/pinetime-logo-loader/bin/targets/nrf52_my_sensor/app/nimble/controller/nimble_controller.a(ble_ll.o) (ble_ll_rfmgmt_init)
/Users/Luppy/PineTime/pinetime-logo-loader/bin/targets/nrf52_my_sensor/app/nimble/controller/nimble_controller.a(ble_ll_scan.o)
                              /Users/Luppy/PineTime/pinetime-logo-loader/bin/targets/nrf52_my_sensor/app/nimble/controller/nimble_controller.a(ble_ll_conn.o) (ble_ll_scan_sm_stop)
/Users/Luppy/PineTime/pinetime-logo-loader/bin/targets/nrf52_my_sensor/app/nimble/controller/nimble_controller.a(ble_ll_sched.o)
                              /Users/Luppy/PineTime/pinetime-logo-loader/bin/targets/nrf52_my_sensor/app/nimble/controller/nimble_controller.a(ble_ll_conn.o) (ble_ll_sched_conn_reschedule)
/Users/Luppy/PineTime/pinetime-logo-loader/bin/targets/nrf52_my_sensor/app/nimble/controller/nimble_controller.a(ble_ll_supp_cmd.o)
                              /Users/Luppy/PineTime/pinetime-logo-loader/bin/targets/nrf52_my_sensor/app/nimble/controller/nimble_controller.a(ble_ll_hci.o) (g_ble_ll_supp_cmds)
/Users/Luppy/PineTime/pinetime-logo-loader/bin/targets/nrf52_my_sensor/app/nimble/controller/nimble_controller.a(ble_ll_utils.o)
                              /Users/Luppy/PineTime/pinetime-logo-loader/bin/targets/nrf52_my_sensor/app/nimble/controller/nimble_controller.a(ble_ll_conn.o) (ble_ll_utils_calc_access_addr)
/Users/Luppy/PineTime/pinetime-logo-loader/bin/targets/nrf52_my_sensor/app/nimble/controller/nimble_controller.a(ble_ll_whitelist.o)
                              /Users/Luppy/PineTime/pinetime-logo-loader/bin/targets/nrf52_my_sensor/app/nimble/controller/nimble_controller.a(ble_ll.o) (ble_ll_whitelist_clear)
/Users/Luppy/PineTime/pinetime-logo-loader/bin/targets/nrf52_my_sensor/app/nimble/drivers/nrf52/nimble_drivers_nrf52.a(ble_hw.o)
                              /Users/Luppy/PineTime/pinetime-logo-loader/bin/targets/nrf52_my_sensor/app/nimble/controller/nimble_controller.a(ble_ll.o) (ble_hw_get_public_addr)
/Users/Luppy/PineTime/pinetime-logo-loader/bin/targets/nrf52_my_sensor/app/nimble/drivers/nrf52/nimble_drivers_nrf52.a(ble_phy.o)
                              /Users/Luppy/PineTime/pinetime-logo-loader/bin/targets/nrf52_my_sensor/app/nimble/controller/nimble_controller.a(ble_ll.o) (ble_phy_rxpdu_copy)
/Users/Luppy/PineTime/pinetime-logo-loader/bin/targets/nrf52_my_sensor/app/nimble/host/nimble_host.a(ble_hs_shutdown.o)
                              /Users/Luppy/PineTime/pinetime-logo-loader/bin/targets/nrf52_my_sensor/generated/bin/nrf52_my_sensor-sysinit-app.a(nrf52_my_sensor-sysdown-app.o) (ble_hs_shutdown)
/Users/Luppy/PineTime/pinetime-logo-loader/bin/targets/nrf52_my_sensor/app/nimble/host/services/ans/nimble_host_services_ans.a(ble_svc_ans.o)
                              /Users/Luppy/PineTime/pinetime-logo-loader/bin/targets/nrf52_my_sensor/generated/bin/nrf52_my_sensor-sysinit-app.a(nrf52_my_sensor-sysinit-app.o) (ble_svc_ans_init)
/Users/Luppy/PineTime/pinetime-logo-loader/bin/targets/nrf52_my_sensor/app/nimble/host/services/gatt/nimble_host_services_gatt.a(ble_svc_gatt.o)
                              /Users/Luppy/PineTime/pinetime-logo-loader/bin/targets/nrf52_my_sensor/generated/bin/nrf52_my_sensor-sysinit-app.a(nrf52_my_sensor-sysinit-app.o) (ble_svc_gatt_init)
/Users/Luppy/PineTime/pinetime-logo-loader/bin/targets/nrf52_my_sensor/app/nimble/host/store/config/nimble_host_store_config.a(ble_store_config.o)
                              /Users/Luppy/PineTime/pinetime-logo-loader/bin/targets/nrf52_my_sensor/generated/bin/nrf52_my_sensor-sysinit-app.a(nrf52_my_sensor-sysinit-app.o) (ble_store_config_init)
/Users/Luppy/PineTime/pinetime-logo-loader/bin/targets/nrf52_my_sensor/app/nimble/host/store/config/nimble_host_store_config.a(ble_store_config_conf.o)
                              /Users/Luppy/PineTime/pinetime-logo-loader/bin/targets/nrf52_my_sensor/app/nimble/host/store/config/nimble_host_store_config.a(ble_store_config.o) (ble_store_config_persist_our_secs)
/Users/Luppy/PineTime/pinetime-logo-loader/bin/targets/nrf52_my_sensor/app/smp/smp.a(smp.o)
                              /Users/Luppy/PineTime/pinetime-logo-loader/bin/targets/nrf52_my_sensor/app/mgmt/smp/mgmt_smp.a(smp.o) (smp_process_request_packet)
/Users/Luppy/PineTime/pinetime-logo-loader/bin/targets/nrf52_my_sensor/app/sys/config/sys_config.a(config_init.o)
                              /Users/Luppy/PineTime/pinetime-logo-loader/bin/targets/nrf52_my_sensor/generated/bin/nrf52_my_sensor-sysinit-app.a(nrf52_my_sensor-sysinit-app.o) (config_pkg_init)
/Users/Luppy/PineTime/pinetime-logo-loader/bin/targets/nrf52_my_sensor/app/sys/log/modlog/sys_log_modlog.a(modlog.o)
                              /Users/Luppy/PineTime/pinetime-logo-loader/bin/targets/nrf52_my_sensor/generated/bin/nrf52_my_sensor-sysinit-app.a(nrf52_my_sensor-sysinit-app.o) (modlog_init)
/Users/Luppy/PineTime/pinetime-logo-loader/bin/targets/nrf52_my_sensor/app/sys/reboot/sys_reboot.a(log_reboot.o)
                              /Users/Luppy/PineTime/pinetime-logo-loader/bin/targets/nrf52_my_sensor/app/cmd/os_mgmt/port/mynewt/cmd_os_mgmt_port_mynewt.a(mynewt_os_mgmt.o) (log_reboot)
/Users/Luppy/PineTime/pinetime-logo-loader/bin/targets/nrf52_my_sensor/app/util/scfg/util_scfg.a(scfg.o)
                              /Users/Luppy/PineTime/pinetime-logo-loader/bin/targets/nrf52_my_sensor/app/boot/split/boot_split.a(split.o) (scfg_save_val)
/Users/Luppy/PineTime/pinetime-logo-loader/bin/targets/nrf52_my_sensor/app/util/util.a(mcumgr_util.o)
                              /Users/Luppy/PineTime/pinetime-logo-loader/bin/targets/nrf52_my_sensor/app/cmd/img_mgmt/cmd_img_mgmt.a(img_mgmt_util.o) (ull_to_s)
/Users/Luppy/PineTime/pinetime-logo-loader/bin/targets/nrf52_my_sensor/app/apps/my_sensor_app/apps_my_sensor_app.a(low_power.o)
                              /Users/Luppy/PineTime/pinetime-logo-loader/bin/targets/nrf52_my_sensor/app/libs/sensor_network/libs_sensor_network.a(sensor_network.o) (power_standby_wakeup)
/Users/Luppy/PineTime/pinetime-logo-loader/bin/targets/nrf52_my_sensor/app/apps/my_sensor_app/apps_my_sensor_app.a(support.o)
                              /Users/Luppy/PineTime/pinetime-logo-loader/bin/targets/nrf52_my_sensor/app/net/oic/net_oic.a(oc_buffer.o) (__wrap_coap_receive)
/Users/Luppy/PineTime/pinetime-logo-loader/bin/targets/nrf52_my_sensor/app/boot/bootutil/boot_bootutil.a(loader.o)
                              /Users/Luppy/PineTime/pinetime-logo-loader/bin/targets/nrf52_my_sensor/app/boot/split/boot_split.a(split.o) (split_go)
/Users/Luppy/PineTime/pinetime-logo-loader/bin/targets/nrf52_my_sensor/app/boot/bootutil/boot_bootutil.a(swap_misc.o)
                              /Users/Luppy/PineTime/pinetime-logo-loader/bin/targets/nrf52_my_sensor/app/boot/bootutil/boot_bootutil.a(loader.o) (swap_read_status)
/Users/Luppy/PineTime/pinetime-logo-loader/bin/targets/nrf52_my_sensor/app/boot/bootutil/boot_bootutil.a(swap_scratch.o)
                              /Users/Luppy/PineTime/pinetime-logo-loader/bin/targets/nrf52_my_sensor/app/boot/bootutil/boot_bootutil.a(loader.o) (boot_read_image_header)
/Users/Luppy/PineTime/pinetime-logo-loader/bin/targets/nrf52_my_sensor/app/boot/bootutil/boot_bootutil.a(image_validate.o)
                              /Users/Luppy/PineTime/pinetime-logo-loader/bin/targets/nrf52_my_sensor/app/boot/bootutil/boot_bootutil.a(loader.o) (bootutil_img_validate)
/Users/Luppy/PineTime/pinetime-logo-loader/bin/targets/nrf52_my_sensor/app/boot/bootutil/boot_bootutil.a(tlv.o)
                              /Users/Luppy/PineTime/pinetime-logo-loader/bin/targets/nrf52_my_sensor/app/boot/bootutil/boot_bootutil.a(image_validate.o) (bootutil_tlv_iter_begin)
/Users/Luppy/PineTime/pinetime-logo-loader/bin/targets/nrf52_my_sensor/app/boot/mynewt/flash_map_backend/boot_mynewt_flash_map_backend.a(flash_map_extended.o)
                              /Users/Luppy/PineTime/pinetime-logo-loader/bin/targets/nrf52_my_sensor/app/boot/bootutil/boot_bootutil.a(loader.o) (flash_area_id_from_multi_image_slot)
/Users/Luppy/PineTime/pinetime-logo-loader/bin/targets/nrf52_my_sensor/app/cborattr/cborattr.a(cborattr.o)
                              /Users/Luppy/PineTime/pinetime-logo-loader/bin/targets/nrf52_my_sensor/app/cmd/img_mgmt/cmd_img_mgmt.a(img_mgmt.o) (cbor_read_object)
/Users/Luppy/PineTime/pinetime-logo-loader/bin/targets/nrf52_my_sensor/app/crypto/mbedtls/crypto_mbedtls.a(sha256.o)
                              /Users/Luppy/PineTime/pinetime-logo-loader/bin/targets/nrf52_my_sensor/app/boot/bootutil/boot_bootutil.a(image_validate.o) (mbedtls_sha256_init)
/Users/Luppy/PineTime/pinetime-logo-loader/bin/targets/nrf52_my_sensor/app/crypto/mbedtls/crypto_mbedtls.a(platform_util.o)
                              /Users/Luppy/PineTime/pinetime-logo-loader/bin/targets/nrf52_my_sensor/app/crypto/mbedtls/crypto_mbedtls.a(sha256.o) (mbedtls_platform_zeroize)
/Users/Luppy/PineTime/pinetime-logo-loader/bin/targets/nrf52_my_sensor/app/encoding/json/encoding_json.a(json_encode.o)
                              /Users/Luppy/PineTime/pinetime-logo-loader/bin/targets/nrf52_my_sensor/app/libs/sensor_coap/libs_sensor_coap.a(sensor_coap.o) (json_encode_object_start)
/Users/Luppy/PineTime/pinetime-logo-loader/bin/targets/nrf52_my_sensor/app/encoding/tinycbor/encoding_tinycbor.a(cbor_buf_reader.o)
                              /Users/Luppy/PineTime/pinetime-logo-loader/bin/targets/nrf52_my_sensor/app/cborattr/cborattr.a(cborattr.o) (cbor_buf_reader_init)
/Users/Luppy/PineTime/pinetime-logo-loader/bin/targets/nrf52_my_sensor/app/encoding/tinycbor/encoding_tinycbor.a(cbor_buf_writer.o)
                              /Users/Luppy/PineTime/pinetime-logo-loader/bin/targets/nrf52_my_sensor/app/sys/reboot/sys_reboot.a(log_reboot.o) (cbor_buf_writer_init)
/Users/Luppy/PineTime/pinetime-logo-loader/bin/targets/nrf52_my_sensor/app/encoding/tinycbor/encoding_tinycbor.a(cbor_mbuf_reader.o)
                              /Users/Luppy/PineTime/pinetime-logo-loader/bin/targets/nrf52_my_sensor/app/mgmt/smp/mgmt_smp.a(smp.o) (cbor_mbuf_reader_init)
/Users/Luppy/PineTime/pinetime-logo-loader/bin/targets/nrf52_my_sensor/app/encoding/tinycbor/encoding_tinycbor.a(cbor_mbuf_writer.o)
                              /Users/Luppy/PineTime/pinetime-logo-loader/bin/targets/nrf52_my_sensor/app/mgmt/smp/mgmt_smp.a(smp.o) (cbor_mbuf_writer_init)
/Users/Luppy/PineTime/pinetime-logo-loader/bin/targets/nrf52_my_sensor/app/hw/mcu/nordic/nrf52xxx/hw_mcu_nordic_nrf52xxx.a(nrf52_clock.o)
                              /Users/Luppy/PineTime/pinetime-logo-loader/bin/targets/nrf52_my_sensor/app/nimble/drivers/nrf52/nimble_drivers_nrf52.a(ble_phy.o) (nrf52_clock_hfxo_request)
/Users/Luppy/PineTime/pinetime-logo-loader/bin/targets/nrf52_my_sensor/app/hw/mcu/nordic/nrf52xxx/hw_mcu_nordic_nrf52xxx.a(nrf52_hw_id.o)
                              /Users/Luppy/PineTime/pinetime-logo-loader/bin/targets/nrf52_my_sensor/app/libs/sensor_network/libs_sensor_network.a(sensor_network.o) (hal_bsp_hw_id_len)
/Users/Luppy/PineTime/pinetime-logo-loader/bin/targets/nrf52_my_sensor/app/kernel/os/kernel_os.a(os_error.o)
                              /Users/Luppy/PineTime/pinetime-logo-loader/bin/targets/nrf52_my_sensor/app/util/scfg/util_scfg.a(scfg.o) (os_error_to_sys)
/Users/Luppy/PineTime/pinetime-logo-loader/bin/targets/nrf52_my_sensor/app/kernel/os/kernel_os.a(os_heap.o)
                              /Users/Luppy/PineTime/pinetime-logo-loader/bin/targets/nrf52_my_sensor/app/boot/bootutil/boot_bootutil.a(loader.o) (os_malloc)
/Users/Luppy/PineTime/pinetime-logo-loader/bin/targets/nrf52_my_sensor/app/libc/baselibc/libc_baselibc.a(memchr.o)
                              /Users/Luppy/PineTime/pinetime-logo-loader/bin/targets/nrf52_my_sensor/app/net/oic/net_oic.a(oc_ri.o) (memchr)
/Users/Luppy/PineTime/pinetime-logo-loader/bin/targets/nrf52_my_sensor/app/libc/baselibc/libc_baselibc.a(strncasecmp.o)
                              /Users/Luppy/PineTime/pinetime-logo-loader/bin/targets/nrf52_my_sensor/app/net/oic/net_oic.a(oc_ri.o) (strncasecmp)
/Users/Luppy/PineTime/pinetime-logo-loader/bin/targets/nrf52_my_sensor/app/libc/baselibc/libc_baselibc.a(strncmp.o)
                              /Users/Luppy/PineTime/pinetime-logo-loader/bin/targets/nrf52_my_sensor/app/net/oic/net_oic.a(oc_ri.o) (strncmp)

Discarded input sections

 .data          0x0000000000000000        0x0 /Users/Luppy/PineTime/pinetime-logo-loader/bin/targets/nrf52_my_sensor/app/hw/bsp/nrf52/hw_bsp_nrf52.a(gcc_startup_nrf52.o)
 .bss           0x0000000000000000        0x0 /Users/Luppy/PineTime/pinetime-logo-loader/bin/targets/nrf52_my_sensor/app/hw/bsp/nrf52/hw_bsp_nrf52.a(gcc_startup_nrf52.o)
 .ARM.extab     0x0000000000000000        0x0 /Users/Luppy/PineTime/pinetime-logo-loader/bin/targets/nrf52_my_sensor/app/hw/bsp/nrf52/hw_bsp_nrf52.a(gcc_startup_nrf52.o)
 .text          0x0000000000000000        0x0 /Users/Luppy/PineTime/pinetime-logo-loader/bin/targets/nrf52_my_sensor/app/hw/bsp/nrf52/hw_bsp_nrf52.a(sbrk.o)
 .bss           0x0000000000000000        0x0 /Users/Luppy/PineTime/pinetime-logo-loader/bin/targets/nrf52_my_sensor/app/hw/bsp/nrf52/hw_bsp_nrf52.a(sbrk.o)
 .text          0x0000000000000000        0x0 /Users/Luppy/PineTime/pinetime-logo-loader/bin/targets/nrf52_my_sensor/app/hw/mcu/nordic/nrf52xxx/hw_mcu_nordic_nrf52xxx.a(hal_system.o)
 .data          0x0000000000000000        0x0 /Users/Luppy/PineTime/pinetime-logo-loader/bin/targets/nrf52_my_sensor/app/hw/mcu/nordic/nrf52xxx/hw_mcu_nordic_nrf52xxx.a(hal_system.o)
 .bss           0x0000000000000000        0x0 /Users/Luppy/PineTime/pinetime-logo-loader/bin/targets/nrf52_my_sensor/app/hw/mcu/nordic/nrf52xxx/hw_mcu_nordic_nrf52xxx.a(hal_system.o)
 .text          0x0000000000000000        0x0 /Users/Luppy/PineTime/pinetime-logo-loader/bin/targets/nrf52_my_sensor/app/hw/mcu/nordic/nrf52xxx/hw_mcu_nordic_nrf52xxx.a(system_nrf52.o)
 .data          0x0000000000000000        0x0 /Users/Luppy/PineTime/pinetime-logo-loader/bin/targets/nrf52_my_sensor/app/hw/mcu/nordic/nrf52xxx/hw_mcu_nordic_nrf52xxx.a(system_nrf52.o)
 .bss           0x0000000000000000        0x0 /Users/Luppy/PineTime/pinetime-logo-loader/bin/targets/nrf52_my_sensor/app/hw/mcu/nordic/nrf52xxx/hw_mcu_nordic_nrf52xxx.a(system_nrf52.o)
 .text          0x0000000000000000        0x0 /Users/Luppy/PineTime/pinetime-logo-loader/bin/targets/nrf52_my_sensor/app/libc/baselibc/libc_baselibc.a(start.o)
 .data          0x0000000000000000        0x0 /Users/Luppy/PineTime/pinetime-logo-loader/bin/targets/nrf52_my_sensor/app/libc/baselibc/libc_baselibc.a(start.o)
 .bss           0x0000000000000000        0x0 /Users/Luppy/PineTime/pinetime-logo-loader/bin/targets/nrf52_my_sensor/app/libc/baselibc/libc_baselibc.a(start.o)
 .text          0x0000000000000000        0x0 /Users/Luppy/PineTime/pinetime-logo-loader/bin/targets/nrf52_my_sensor/app/libs/rust_app/libs_rust_app.a(app-5a5ad30fd2c694e7.druid-4e098a748cece73f.1b05q285c68j33x.rcgu.o.rcgu.o)
 .rodata.CORE_PERIPHERALS
                0x0000000000000000        0x0 /Users/Luppy/PineTime/pinetime-logo-loader/bin/targets/nrf52_my_sensor/app/libs/rust_app/libs_rust_app.a(app-5a5ad30fd2c694e7.druid-4e098a748cece73f.1b05q285c68j33x.rcgu.o.rcgu.o)
 .text          0x0000000000000000        0x0 /Users/Luppy/PineTime/pinetime-logo-loader/bin/targets/nrf52_my_sensor/app/libs/rust_app/libs_rust_app.a(compiler_builtins-7064ec948caca4e9.compiler_builtins.28t0v07i-cgu.10.rcgu.o)
Memory Configuration

Name             Origin             Length             Attributes
FLASH            0x0000000000008000 0x0000000000073c00 xr
RAM              0x0000000020000000 0x0000000000010000 xrw
*default*        0x0000000000000000 0xffffffffffffffff

Linker script and memory map

START GROUP
LOAD /Users/Luppy/PineTime/pinetime-logo-loader/bin/targets/nrf52_my_sensor/app/apps/my_sensor_app/apps_my_sensor_app.a
LOAD /Users/Luppy/PineTime/pinetime-logo-loader/bin/targets/nrf52_my_sensor/app/boot/bootutil/boot_bootutil.a
LOAD /Users/Luppy/PineTime/pinetime-logo-loader/bin/targets/nrf52_my_sensor/app/boot/mynewt/flash_map_backend/boot_mynewt_flash_map_backend.a
LOAD /Users/Luppy/PineTime/pinetime-logo-loader/bin/targets/nrf52_my_sensor/app/boot/split/boot_split.a
LOAD /Users/Luppy/PineTime/pinetime-logo-loader/bin/targets/nrf52_my_sensor/app/cborattr/cborattr.a
LOAD /Users/Luppy/PineTime/pinetime-logo-loader/bin/targets/nrf52_my_sensor/app/cmd/img_mgmt/cmd_img_mgmt.a
LOAD /Users/Luppy/PineTime/pinetime-logo-loader/bin/targets/nrf52_my_sensor/app/cmd/img_mgmt/port/mynewt/cmd_img_mgmt_port_mynewt.a
LOAD /Users/Luppy/PineTime/pinetime-logo-loader/bin/targets/nrf52_my_sensor/app/cmd/os_mgmt/cmd_os_mgmt.a
LOAD /Users/Luppy/PineTime/pinetime-logo-loader/bin/targets/nrf52_my_sensor/app/cmd/os_mgmt/port/mynewt/cmd_os_mgmt_port_mynewt.a
LOAD /Users/Luppy/PineTime/pinetime-logo-loader/bin/targets/nrf52_my_sensor/app/crypto/mbedtls/crypto_mbedtls.a
LOAD /Users/Luppy/PineTime/pinetime-logo-loader/bin/targets/nrf52_my_sensor/app/crypto/tinycrypt/crypto_tinycrypt.a
LOAD /Users/Luppy/PineTime/pinetime-logo-loader/bin/targets/nrf52_my_sensor/app/encoding/base64/encoding_base64.a
LOAD /Users/Luppy/PineTime/pinetime-logo-loader/bin/targets/nrf52_my_sensor/app/encoding/json/encoding_json.a
LOAD /Users/Luppy/PineTime/pinetime-logo-loader/bin/targets/nrf52_my_sensor/app/encoding/tinycbor/encoding_tinycbor.a
LOAD /Users/Luppy/PineTime/pinetime-logo-loader/bin/targets/nrf52_my_sensor/app/hw/bsp/nrf52/hw_bsp_nrf52.a
LOAD /Users/Luppy/PineTime/pinetime-logo-loader/bin/targets/nrf52_my_sensor/app/hw/cmsis-core/hw_cmsis-core.a
LOAD /Users/Luppy/PineTime/pinetime-logo-loader/bin/targets/nrf52_my_sensor/app/hw/drivers/flash/spiflash/hw_drivers_flash_spiflash.a
LOAD /Users/Luppy/PineTime/pinetime-logo-loader/bin/targets/nrf52_my_sensor/app/hw/hal/hw_hal.a
LOAD /Users/Luppy/PineTime/pinetime-logo-loader/bin/targets/nrf52_my_sensor/app/hw/mcu/nordic/hw_mcu_nordic.a
LOAD /Users/Luppy/PineTime/pinetime-logo-loader/bin/targets/nrf52_my_sensor/app/hw/mcu/nordic/nrf52xxx/hw_mcu_nordic_nrf52xxx.a
LOAD /Users/Luppy/PineTime/pinetime-logo-loader/bin/targets/nrf52_my_sensor/app/hw/sensor/creator/hw_sensor_creator.a
LOAD /Users/Luppy/PineTime/pinetime-logo-loader/bin/targets/nrf52_my_sensor/app/hw/sensor/hw_sensor.a
LOAD /Users/Luppy/PineTime/pinetime-logo-loader/bin/targets/nrf52_my_sensor/app/kernel/os/kernel_os.a
LOAD /Users/Luppy/PineTime/pinetime-logo-loader/bin/targets/nrf52_my_sensor/app/libc/baselibc/libc_baselibc.a
LOAD /Users/Luppy/PineTime/pinetime-logo-loader/bin/targets/nrf52_my_sensor/app/libs/mynewt_rust/libs_mynewt_rust.a
LOAD /Users/Luppy/PineTime/pinetime-logo-loader/bin/targets/nrf52_my_sensor/app/libs/rust_app/libs_rust_app.a
LOAD /Users/Luppy/PineTime/pinetime-logo-loader/bin/targets/nrf52_my_sensor/app/libs/rust_libcore/libs_rust_libcore.a
LOAD /Users/Luppy/PineTime/pinetime-logo-loader/bin/targets/nrf52_my_sensor/app/libs/semihosting_console/libs_semihosting_console.a
LOAD /Users/Luppy/PineTime/pinetime-logo-loader/bin/targets/nrf52_my_sensor/app/libs/sensor_coap/libs_sensor_coap.a
LOAD /Users/Luppy/PineTime/pinetime-logo-loader/bin/targets/nrf52_my_sensor/app/libs/sensor_network/libs_sensor_network.a
LOAD /Users/Luppy/PineTime/pinetime-logo-loader/bin/targets/nrf52_my_sensor/app/libs/temp_stub/libs_temp_stub.a
LOAD /Users/Luppy/PineTime/pinetime-logo-loader/bin/targets/nrf52_my_sensor/app/mgmt/imgmgr/mgmt_imgmgr.a
LOAD /Users/Luppy/PineTime/pinetime-logo-loader/bin/targets/nrf52_my_sensor/app/mgmt/mgmt.a
LOAD /Users/Luppy/PineTime/pinetime-logo-loader/bin/targets/nrf52_my_sensor/app/mgmt/smp/mgmt_smp.a
LOAD /Users/Luppy/PineTime/pinetime-logo-loader/bin/targets/nrf52_my_sensor/app/mgmt/smp/transport/ble/mgmt_smp_transport_ble.a
LOAD /Users/Luppy/PineTime/pinetime-logo-loader/bin/targets/nrf52_my_sensor/app/net/oic/net_oic.a
LOAD /Users/Luppy/PineTime/pinetime-logo-loader/bin/targets/nrf52_my_sensor/app/nimble/controller/nimble_controller.a
LOAD /Users/Luppy/PineTime/pinetime-logo-loader/bin/targets/nrf52_my_sensor/app/nimble/drivers/nrf52/nimble_drivers_nrf52.a
LOAD /Users/Luppy/PineTime/pinetime-logo-loader/bin/targets/nrf52_my_sensor/app/nimble/host/nimble_host.a
LOAD /Users/Luppy/PineTime/pinetime-logo-loader/bin/targets/nrf52_my_sensor/app/nimble/host/services/ans/nimble_host_services_ans.a
LOAD /Users/Luppy/PineTime/pinetime-logo-loader/bin/targets/nrf52_my_sensor/app/nimble/host/services/dis/nimble_host_services_dis.a
LOAD /Users/Luppy/PineTime/pinetime-logo-loader/bin/targets/nrf52_my_sensor/app/nimble/host/services/gap/nimble_host_services_gap.a
LOAD /Users/Luppy/PineTime/pinetime-logo-loader/bin/targets/nrf52_my_sensor/app/nimble/host/services/gatt/nimble_host_services_gatt.a
LOAD /Users/Luppy/PineTime/pinetime-logo-loader/bin/targets/nrf52_my_sensor/app/nimble/host/store/config/nimble_host_store_config.a
LOAD /Users/Luppy/PineTime/pinetime-logo-loader/bin/targets/nrf52_my_sensor/app/nimble/host/util/nimble_host_util.a
LOAD /Users/Luppy/PineTime/pinetime-logo-loader/bin/targets/nrf52_my_sensor/app/nimble/transport/ram/nimble_transport_ram.a
LOAD /Users/Luppy/PineTime/pinetime-logo-loader/bin/targets/nrf52_my_sensor/app/smp/smp.a
LOAD /Users/Luppy/PineTime/pinetime-logo-loader/bin/targets/nrf52_my_sensor/app/sys/config/sys_config.a
LOAD /Users/Luppy/PineTime/pinetime-logo-loader/bin/targets/nrf52_my_sensor/app/sys/flash_map/sys_flash_map.a
LOAD /Users/Luppy/PineTime/pinetime-logo-loader/bin/targets/nrf52_my_sensor/app/sys/log/modlog/sys_log_modlog.a
LOAD /Users/Luppy/PineTime/pinetime-logo-loader/bin/targets/nrf52_my_sensor/app/sys/log/stub/sys_log_stub.a
LOAD /Users/Luppy/PineTime/pinetime-logo-loader/bin/targets/nrf52_my_sensor/app/sys/mfg/sys_mfg.a
LOAD /Users/Luppy/PineTime/pinetime-logo-loader/bin/targets/nrf52_my_sensor/app/sys/reboot/sys_reboot.a
LOAD /Users/Luppy/PineTime/pinetime-logo-loader/bin/targets/nrf52_my_sensor/app/sys/sysdown/sys_sysdown.a
LOAD /Users/Luppy/PineTime/pinetime-logo-loader/bin/targets/nrf52_my_sensor/app/sys/sysinit/sys_sysinit.a
LOAD /Users/Luppy/PineTime/pinetime-logo-loader/bin/targets/nrf52_my_sensor/app/util/mem/util_mem.a
LOAD /Users/Luppy/PineTime/pinetime-logo-loader/bin/targets/nrf52_my_sensor/app/util/rwlock/util_rwlock.a
LOAD /Users/Luppy/PineTime/pinetime-logo-loader/bin/targets/nrf52_my_sensor/app/util/scfg/util_scfg.a
LOAD /Users/Luppy/PineTime/pinetime-logo-loader/bin/targets/nrf52_my_sensor/app/util/util.a
LOAD /Users/Luppy/PineTime/pinetime-logo-loader/bin/targets/nrf52_my_sensor/generated/bin/nrf52_my_sensor-sysinit-app.a
END GROUP
LOAD /usr/local/Cellar/arm-none-eabi-gcc/7-2018-q2-update/gcc/bin/../lib/gcc/arm-none-eabi/7.3.1/thumb/v7e-m/fpv4-sp/hard/libgcc.a
LOAD /usr/local/Cellar/arm-none-eabi-gcc/7-2018-q2-update/gcc/bin/../lib/gcc/arm-none-eabi/7.3.1/../../../../arm-none-eabi/lib/thumb/v7e-m/fpv4-sp/hard/libm.a
START GROUP
LOAD /usr/local/Cellar/arm-none-eabi-gcc/7-2018-q2-update/gcc/bin/../lib/gcc/arm-none-eabi/7.3.1/thumb/v7e-m/fpv4-sp/hard/libgcc.a
LOAD /usr/local/Cellar/arm-none-eabi-gcc/7-2018-q2-update/gcc/bin/../lib/gcc/arm-none-eabi/7.3.1/../../../../arm-none-eabi/lib/thumb/v7e-m/fpv4-sp/hard/libg.a
LOAD /usr/local/Cellar/arm-none-eabi-gcc/7-2018-q2-update/gcc/bin/../lib/gcc/arm-none-eabi/7.3.1/../../../../arm-none-eabi/lib/thumb/v7e-m/fpv4-sp/hard/libc.a
END GROUP
START GROUP
LOAD /usr/local/Cellar/arm-none-eabi-gcc/7-2018-q2-update/gcc/bin/../lib/gcc/arm-none-eabi/7.3.1/thumb/v7e-m/fpv4-sp/hard/libgcc.a
LOAD /usr/local/Cellar/arm-none-eabi-gcc/7-2018-q2-update/gcc/bin/../lib/gcc/arm-none-eabi/7.3.1/../../../../arm-none-eabi/lib/thumb/v7e-m/fpv4-sp/hard/libc.a
LOAD /usr/local/Cellar/arm-none-eabi-gcc/7-2018-q2-update/gcc/bin/../lib/gcc/arm-none-eabi/7.3.1/../../../../arm-none-eabi/lib/thumb/v7e-m/fpv4-sp/hard/libnosys.a
END GROUP
                0x0000000000000020                _imghdr_size = 0x20

.imghdr         0x0000000000008000       0x20
                0x0000000000008020                . = (. + _imghdr_size)
 *fill*         0x0000000000008000       0x20 
                0x0000000000008020                __text = .

.text           0x0000000000008020    0x4c9c4
                0x0000000000008020                __isr_vector_start = .
 *(.isr_vector)
 .isr_vector    0x0000000000008020       0xd8 /Users/Luppy/PineTime/pinetime-logo-loader/bin/targets/nrf52_my_sensor/app/hw/bsp/nrf52/hw_bsp_nrf52.a(gcc_startup_nrf52.o)
                0x0000000000008020                __isr_vector
                0x00000000000080f8                __isr_vector_end = .
 *(.text*)
 .text          0x00000000000080f8       0x70 /Users/Luppy/PineTime/pinetime-logo-loader/bin/targets/nrf52_my_sensor/app/hw/bsp/nrf52/hw_bsp_nrf52.a(gcc_startup_nrf52.o)
                0x00000000000080f8                Reset_Handler
                0x0000000000008154                NMI_Handler
                0x0000000000008156                HardFault_Handler
                0x0000000000008158                MemoryManagement_Handler
                0x000000000000815a                BusFault_Handler
                0x000000000000815c                UsageFault_Handler
                0x0000000000008164                POWER_CLOCK_IRQHandler
                0x0000000000008164                RADIO_IRQHandler
                0x0000000000008164                PDM_IRQHandler
                0x0000000000008164                TEMP_IRQHandler
                0x0000000000008164                QDEC_IRQHandler
                0x0000000000008164                TIMER3_IRQHandler
                0x0000000000008164                SPIM0_SPIS0_TWIM0_TWIS0_SPI0_TWI0_IRQHandler
                0x0000000000008164                UARTE0_UART0_IRQHandler
                0x0000000000008164                TIMER4_IRQHandler
                0x0000000000008164                I2S_IRQHandler
                0x0000000000008164                SWI4_EGU4_IRQHandler
                0x0000000000008164                TIMER0_IRQHandler
                0x0000000000008164                TIMER1_IRQHandler
                0x0000000000008164                PWM2_IRQHandler
                0x0000000000008164                ECB_IRQHandler
                0x0000000000008164                SPIM1_SPIS1_TWIM1_TWIS1_SPI1_TWI1_IRQHandler
                0x0000000000008164                Default_Handler
                0x0000000000008164                SAADC_IRQHandler
                0x0000000000008164                CCM_AAR_IRQHandler
                0x0000000000008164                WDT_IRQHandler
                0x0000000000008164                SWI5_EGU5_IRQHandler
                0x0000000000008164                RNG_IRQHandler
                0x0000000000008164                RTC2_IRQHandler
                0x0000000000008164                PWM0_IRQHandler
                0x0000000000008164                SWI3_EGU3_IRQHandler
                0x0000000000008164                RTC1_IRQHandler
                0x0000000000008164                SWI1_EGU1_IRQHandler
                0x0000000000008164                SPIM2_SPIS2_SPI2_IRQHandler
                0x0000000000008164                NFCT_IRQHandler
                0x0000000000008164                MWU_IRQHandler
                0x0000000000008164                TIMER2_IRQHandler
                0x0000000000008164                COMP_LPCOMP_IRQHandler
                0x0000000000008164                RTC0_IRQHandler
                0x0000000000008164                SWI0_EGU0_IRQHandler
                0x0000000000008164                SWI2_EGU2_IRQHandler
                0x0000000000008164                GPIOTE_IRQHandler
                0x0000000000008164                PWM1_IRQHandler
 .text._sbrkInit
                0x0000000000008168       0x10 /Users/Luppy/PineTime/pinetime-logo-loader/bin/targets/nrf52_my_sensor/app/hw/bsp/nrf52/hw_bsp_nrf52.a(sbrk.o)
                0x0000000000008168                _sbrkInit
 .text._sbrk    0x0000000000008178       0x3c /Users/Luppy/PineTime/pinetime-logo-loader/bin/targets/nrf52_my_sensor/app/hw/bsp/nrf52/hw_bsp_nrf52.a(sbrk.o)
                0x0000000000008178                _sbrk
 .text.hal_system_init
                0x00000000000081b4        0xc /Users/Luppy/PineTime/pinetime-logo-loader/bin/targets/nrf52_my_sensor/app/hw/mcu/nordic/nrf52xxx/hw_mcu_nordic_nrf52xxx.a(hal_system.o)
                0x00000000000081b4                hal_system_init
 .text.hal_debugger_connected
                0x00000000000081c0       0x10 /Users/Luppy/PineTime/pinetime-logo-loader/bin/targets/nrf52_my_sensor/app/hw/mcu/nordic/nrf52xxx/hw_mcu_nordic_nrf52xxx.a(hal_system.o)
                0x00000000000081c0                hal_debugger_connected
 .text.hal_system_reset
                0x00000000000081d0       0x2c /Users/Luppy/PineTime/pinetime-logo-loader/bin/targets/nrf52_my_sensor/app/hw/mcu/nordic/nrf52xxx/hw_mcu_nordic_nrf52xxx.a(hal_system.o)
                0x00000000000081d0                hal_system_reset
 .text.hal_system_clock_start
                0x00000000000081fc       0x4c /Users/Luppy/PineTime/pinetime-logo-loader/bin/targets/nrf52_my_sensor/app/hw/mcu/nordic/nrf52xxx/hw_mcu_nordic_nrf52xxx.a(hal_system.o)
                0x00000000000081fc                hal_system_clock_start
 .text.errata_16
                0x0000000000008248       0x3c /Users/Luppy/PineTime/pinetime-logo-loader/bin/targets/nrf52_my_sensor/app/hw/mcu/nordic/nrf52xxx/hw_mcu_nordic_nrf52xxx.a(system_nrf52.o)
 .text.errata_31
                0x0000000000008284       0x4c /Users/Luppy/PineTime/pinetime-logo-loader/bin/targets/nrf52_my_sensor/app/hw/mcu/nordic/nrf52xxx/hw_mcu_nordic_nrf52xxx.a(system_nrf52.o)
 .text.errata_32
                0x00000000000082d0       0x3c /Users/Luppy/PineTime/pinetime-logo-loader/bin/targets/nrf52_my_sensor/app/hw/mcu/nordic/nrf52xxx/hw_mcu_nordic_nrf52xxx.a(system_nrf52.o)
 .text.errata_36
                0x000000000000830c       0x4c /Users/Luppy/PineTime/pinetime-logo-loader/bin/targets/nrf52_my_sensor/app/hw/mcu/nordic/nrf52xxx/hw_mcu_nordic_nrf52xxx.a(system_nrf52.o)
 .text.errata_37
                0x0000000000008358       0x3c /Users/Luppy/PineTime/pinetime-logo-loader/bin/targets/nrf52_my_sensor/app/hw/mcu/nordic/nrf52xxx/hw_mcu_nordic_nrf52xxx.a(system_nrf52.o)
 .text.errata_57
                0x0000000000008394       0x3c /Users/Luppy/PineTime/pinetime-logo-loader/bin/targets/nrf52_my_sensor/app/hw/mcu/nordic/nrf52xxx/hw_mcu_nordic_nrf52xxx.a(system_nrf52.o)
 .text.errata_66
                0x00000000000083d0       0x3c /Users/Luppy/PineTime/pinetime-logo-loader/bin/targets/nrf52_my_sensor/app/hw/mcu/nordic/nrf52xxx/hw_mcu_nordic_nrf52xxx.a(system_nrf52.o)
 .text.errata_108
                0x000000000000840c       0x4c /Users/Luppy/PineTime/pinetime-logo-loader/bin/targets/nrf52_my_sensor/app/hw/mcu/nordic/nrf52xxx/hw_mcu_nordic_nrf52xxx.a(system_nrf52.o)
 .text.SystemCoreClockUpdate
                0x0000000000008458       0x10 /Users/Luppy/PineTime/pinetime-logo-loader/bin/targets/nrf52_my_sensor/app/hw/mcu/nordic/nrf52xxx/hw_mcu_nordic_nrf52xxx.a(system_nrf52.o)
                0x0000000000008458                SystemCoreClockUpdate
 .text.SystemInit
                0x0000000000008468      0x1d4 /Users/Luppy/PineTime/pinetime-logo-loader/bin/targets/nrf52_my_sensor/app/hw/mcu/nordic/nrf52xxx/hw_mcu_nordic_nrf52xxx.a(system_nrf52.o)
                0x0000000000008468                SystemInit
 .text._start   0x000000000000863c       0x14 /Users/Luppy/PineTime/pinetime-logo-loader/bin/targets/nrf52_my_sensor/app/libc/baselibc/libc_baselibc.a(start.o)
                0x000000000000863c                _start
 .text._init    0x0000000000008650        0x2 /Users/Luppy/PineTime/pinetime-logo-loader/bin/targets/nrf52_my_sensor/app/libc/baselibc/libc_baselibc.a(start.o)
                0x0000000000008650                _init
 .text.main     0x0000000000008652       0xec /Users/Luppy/PineTime/pinetime-logo-loader/bin/targets/nrf52_my_sensor/app/libs/rust_app/libs_rust_app.a(app-5a5ad30fd2c694e7.druid-4e098a748cece73f.1b05q285c68j33x.rcgu.o.rcgu.o)
                0x0000000000008652                main
 .text._ZN3app7display12test_display17h66e92a6d9f61d6b3E
                0x000000000000873e      0x226 /Users/Luppy/PineTime/pinetime-logo-loader/bin/targets/nrf52_my_sensor/app/libs/rust_app/libs_rust_app.a(app-5a5ad30fd2c694e7.druid-4e098a748cece73f.1b05q285c68j33x.rcgu.o.rcgu.o)
 .text._ZN3app12touch_sensor18start_touch_sensor17hbb6226293bbaead0E
                0x0000000000008964      0x220 /Users/Luppy/PineTime/pinetime-logo-loader/bin/targets/nrf52_my_sensor/app/libs/rust_app/libs_rust_app.a(app-5a5ad30fd2c694e7.druid-4e098a748cece73f.1b05q285c68j33x.rcgu.o.rcgu.o)
 .text._ZN4core6result19Result$LT$T$C$E$GT$6expect17hce415f853b38bd33E
                0x0000000000008b84       0x4a /Users/Luppy/PineTime/pinetime-logo-loader/bin/targets/nrf52_my_sensor/app/libs/rust_app/libs_rust_app.a(app-5a5ad30fd2c694e7.druid-4e098a748cece73f.1b05q285c68j33x.rcgu.o.rcgu.o)
 .text._ZN4core3ptr13drop_in_place17h7439cbe2ea7887f4E
                0x0000000000008bce        0x8 /Users/Luppy/PineTime/pinetime-logo-loader/bin/targets/nrf52_my_sensor/app/libs/rust_app/libs_rust_app.a(app-5a5ad30fd2c694e7.druid-4e098a748cece73f.1b05q285c68j33x.rcgu.o.rcgu.o)
 .text._ZN3app12touch_sensor20touch_event_callback17h03ae2bdf3ca20888E
                0x0000000000008bd6      0x10c /Users/Luppy/PineTime/pinetime-logo-loader/bin/targets/nrf52_my_sensor/app/libs/rust_app/libs_rust_app.a(app-5a5ad30fd2c694e7.druid-4e098a748cece73f.1b05q285c68j33x.rcgu.o.rcgu.o)
 .text._ZN3app12touch_sensor23touch_interrupt_handler17hc83c181af3443e25E
                0x0000000000008ce2       0x40 /Users/Luppy/PineTime/pinetime-logo-loader/bin/targets/nrf52_my_sensor/app/libs/rust_app/libs_rust_app.a(app-5a5ad30fd2c694e7.druid-4e098a748cece73f.1b05q285c68j33x.rcgu.o.rcgu.o)
 .text._ZN4core3fmt9Arguments6new_v117h66b292e0aac39bb7E
                0x0000000000008d22       0x3a /Users/Luppy/PineTime/pinetime-logo-loader/bin/targets/nrf52_my_sensor/app/libs/rust_app/libs_rust_app.a(app-5a5ad30fd2c694e7.druid-4e098a748cece73f.1b05q285c68j33x.rcgu.o.rcgu.o)
 .text._ZN3app12touch_sensor14read_touchdata17h1e5eb2eda3f4c798E
                0x0000000000008d5c      0x734 /Users/Luppy/PineTime/pinetime-logo-loader/bin/targets/nrf52_my_sensor/app/libs/rust_app/libs_rust_app.a(app-5a5ad30fd2c694e7.druid-4e098a748cece73f.1b05q285c68j33x.rcgu.o.rcgu.o)
 .text._ZN3app12handle_touch17h4f09b167cab94de1E
                0x0000000000009490       0x2c /Users/Luppy/PineTime/pinetime-logo-loader/bin/targets/nrf52_my_sensor/app/libs/rust_app/libs_rust_app.a(app-5a5ad30fd2c694e7.druid-4e098a748cece73f.1b05q285c68j33x.rcgu.o.rcgu.o)
 .text._ZN3app12touch_sensor19read_register_range17h12ebf7d47151df95E
                0x00000000000094bc      0x15a /Users/Luppy/PineTime/pinetime-logo-loader/bin/targets/nrf52_my_sensor/app/libs/rust_app/libs_rust_app.a(app-5a5ad30fd2c694e7.druid-4e098a748cece73f.1b05q285c68j33x.rcgu.o.rcgu.o)
 .text._ZN17embedded_graphics10primitives6circle15Circle$LT$C$GT$3new17h1d9af25a4663eaf4E
                0x0000000000009616       0x48 /Users/Luppy/PineTime/pinetime-logo-loader/bin/targets/nrf52_my_sensor/app/libs/rust_app/libs_rust_app.a(app-5a5ad30fd2c694e7.druid-4e098a748cece73f.1b05q285c68j33x.rcgu.o.rcgu.o)
 .text._ZN119_$LT$embedded_graphics..primitives..circle..Circle$LT$C$GT$$u20$as$u20$embedded_graphics..style..WithStyle$LT$C$GT$$GT$4fill17hb6992cce0dda9638E
                0x000000000000965e       0x2a /Users/Luppy/PineTime/pinetime-logo-loader/bin/targets/nrf52_my_sensor/app/libs/rust_app/libs_rust_app.a(app-5a5ad30fd2c694e7.druid-4e098a748cece73f.1b05q285c68j33x.rcgu.o.rcgu.o)
 .text._ZN22piet_embedded_graphics7display15draw_to_display17h31538630eaa3c0b5E
                0x0000000000009688       0x40 /Users/Luppy/PineTime/pinetime-logo-loader/bin/targets/nrf52_my_sensor/app/libs/rust_app/libs_rust_app.a(app-5a5ad30fd2c694e7.druid-4e098a748cece73f.1b05q285c68j33x.rcgu.o.rcgu.o)
 .text._ZN22piet_embedded_graphics5batch11draw_blocks17hba9a20bbe7f23711E
                0x00000000000096c8      0x196 /Users/Luppy/PineTime/pinetime-logo-loader/bin/targets/nrf52_my_sensor/app/libs/rust_app/libs_rust_app.a(app-5a5ad30fd2c694e7.druid-4e098a748cece73f.1b05q285c68j33x.rcgu.o.rcgu.o)
 .text._ZN22piet_embedded_graphics5batch7to_rows17h9eecc78b683c4e56E
                0x000000000000985e       0x6c /Users/Luppy/PineTime/pinetime-logo-loader/bin/targets/nrf52_my_sensor/app/libs/rust_app/libs_rust_app.a(app-5a5ad30fd2c694e7.druid-4e098a748cece73f.1b05q285c68j33x.rcgu.o.rcgu.o)
 .text._ZN22piet_embedded_graphics5batch9to_blocks17hc41207664993711eE
                0x00000000000098ca       0x56 /Users/Luppy/PineTime/pinetime-logo-loader/bin/targets/nrf52_my_sensor/app/libs/rust_app/libs_rust_app.a(app-5a5ad30fd2c694e7.druid-4e098a748cece73f.1b05q285c68j33x.rcgu.o.rcgu.o)
 .text._ZN63_$LT$I$u20$as$u20$core..iter..traits..collect..IntoIterator$GT$9into_iter17h4313948599e6a0ebE
                0x0000000000009920        0xe /Users/Luppy/PineTime/pinetime-logo-loader/bin/targets/nrf52_my_sensor/app/libs/rust_app/libs_rust_app.a(app-5a5ad30fd2c694e7.druid-4e098a748cece73f.1b05q285c68j33x.rcgu.o.rcgu.o)
 .text._ZN112_$LT$piet_embedded_graphics..batch..BlockIterator$LT$R$GT$$u20$as$u20$core..iter..traits..iterator..Iterator$GT$4next17h8675dfdd10c47c16E
                0x000000000000992e      0x312 /Users/Luppy/PineTime/pinetime-logo-loader/bin/targets/nrf52_my_sensor/app/libs/rust_app/libs_rust_app.a(app-5a5ad30fd2c694e7.druid-4e098a748cece73f.1b05q285c68j33x.rcgu.o.rcgu.o)
 .text._ZN4core3ptr13drop_in_place17h5a43f23e1a9a3e47E
                0x0000000000009c40       0x1a /Users/Luppy/PineTime/pinetime-logo-loader/bin/targets/nrf52_my_sensor/app/libs/rust_app/libs_rust_app.a(app-5a5ad30fd2c694e7.druid-4e098a748cece73f.1b05q285c68j33x.rcgu.o.rcgu.o)
 .text._ZN4core3ptr13drop_in_place17h0448b9de32848eddE
                0x0000000000009c5a       0x12 /Users/Luppy/PineTime/pinetime-logo-loader/bin/targets/nrf52_my_sensor/app/libs/rust_app/libs_rust_app.a(app-5a5ad30fd2c694e7.druid-4e098a748cece73f.1b05q285c68j33x.rcgu.o.rcgu.o)
 .text._ZN110_$LT$piet_embedded_graphics..batch..RowIterator$LT$P$GT$$u20$as$u20$core..iter..traits..iterator..Iterator$GT$4next17he7dce9107d9943f4E
                0x0000000000009c6c      0x276 /Users/Luppy/PineTime/pinetime-logo-loader/bin/targets/nrf52_my_sensor/app/libs/rust_app/libs_rust_app.a(app-5a5ad30fd2c694e7.druid-4e098a748cece73f.1b05q285c68j33x.rcgu.o.rcgu.o)
 .text.rust_begin_unwind
                0x0000000000009ee2       0xd6 /Users/Luppy/PineTime/pinetime-logo-loader/bin/targets/nrf52_my_sensor/app/libs/rust_app/libs_rust_app.a(app-5a5ad30fd2c694e7.druid-4e098a748cece73f.1b05q285c68j33x.rcgu.o.rcgu.o)
 .text._ZN54_$LT$dyn$u20$core..any..Any$u2b$core..marker..Send$GT$12downcast_ref17h4357550aa305058eE
                0x0000000000009fb8       0x12 /Users/Luppy/PineTime/pinetime-logo-loader/bin/targets/nrf52_my_sensor/app/libs/rust_app/libs_rust_app.a(app-5a5ad30fd2c694e7.druid-4e098a748cece73f.1b05q285c68j33x.rcgu.o.rcgu.o)
 .text._ZN4core6option15Option$LT$T$GT$6unwrap17hc079627759dd7cf5E
                0x0000000000009fca       0x2c /Users/Luppy/PineTime/pinetime-logo-loader/bin/targets/nrf52_my_sensor/app/libs/rust_app/libs_rust_app.a(app-5a5ad30fd2c694e7.druid-4e098a748cece73f.1b05q285c68j33x.rcgu.o.rcgu.o)
 .text._ZN31_$LT$dyn$u20$core..any..Any$GT$12downcast_ref17h103afab3f701ffdbE
                0x0000000000009ff6       0x28 /Users/Luppy/PineTime/pinetime-logo-loader/bin/targets/nrf52_my_sensor/app/libs/rust_app/libs_rust_app.a(app-5a5ad30fd2c694e7.druid-4e098a748cece73f.1b05q285c68j33x.rcgu.o.rcgu.o)
 .text._ZN31_$LT$dyn$u20$core..any..Any$GT$2is17h7d7201aaf2af81fcE
                0x000000000000a01e       0x2e /Users/Luppy/PineTime/pinetime-logo-loader/bin/targets/nrf52_my_sensor/app/libs/rust_app/libs_rust_app.a(app-5a5ad30fd2c694e7.druid-4e098a748cece73f.1b05q285c68j33x.rcgu.o.rcgu.o)
 .text._ZN4core3any6TypeId2of17h18081548bcffaddfE
                0x000000000000a04c       0x26 /Users/Luppy/PineTime/pinetime-logo-loader/bin/targets/nrf52_my_sensor/app/libs/rust_app/libs_rust_app.a(app-5a5ad30fd2c694e7.druid-4e098a748cece73f.1b05q285c68j33x.rcgu.o.rcgu.o)
 .text._ZN58_$LT$core..any..TypeId$u20$as$u20$core..cmp..PartialEq$GT$2eq17h80b746327105e8bfE
                0x000000000000a072       0x24 /Users/Luppy/PineTime/pinetime-logo-loader/bin/targets/nrf52_my_sensor/app/libs/rust_app/libs_rust_app.a(app-5a5ad30fd2c694e7.druid-4e098a748cece73f.1b05q285c68j33x.rcgu.o.rcgu.o)
 .text._ZN4core3ops8function6FnOnce9call_once17h502aec03116bacd5E
                0x000000000000a096        0x6 /Users/Luppy/PineTime/pinetime-logo-loader/bin/targets/nrf52_my_sensor/app/libs/rust_app/libs_rust_app.a(app-5a5ad30fd2c694e7.druid-4e098a748cece73f.1b05q285c68j33x.rcgu.o.rcgu.o)
 .text._ZN4core9panicking5panic17h692a68e116a8c946E
                0x000000000000a09c       0x2e /Users/Luppy/PineTime/pinetime-logo-loader/bin/targets/nrf52_my_sensor/app/libs/rust_app/libs_rust_app.a(app-5a5ad30fd2c694e7.druid-4e098a748cece73f.1b05q285c68j33x.rcgu.o.rcgu.o)
 .text._ZN4core9panicking18panic_bounds_check17h7f690c17f5cde826E
                0x000000000000a0ca       0x42 /Users/Luppy/PineTime/pinetime-logo-loader/bin/targets/nrf52_my_sensor/app/libs/rust_app/libs_rust_app.a(app-5a5ad30fd2c694e7.druid-4e098a748cece73f.1b05q285c68j33x.rcgu.o.rcgu.o)
 .text._ZN4core3fmt3num3imp52_$LT$impl$u20$core..fmt..Display$u20$for$u20$u32$GT$3fmt17hdb1c3f4f049b855eE
                0x000000000000a10c      0x15e /Users/Luppy/PineTime/pinetime-logo-loader/bin/targets/nrf52_my_sensor/app/libs/rust_app/libs_rust_app.a(app-5a5ad30fd2c694e7.druid-4e098a748cece73f.1b05q285c68j33x.rcgu.o.rcgu.o)
 .text._ZN4core9panicking9panic_fmt17h1abf46b1849e1e64E
                0x000000000000a26a       0x26 /Users/Luppy/PineTime/pinetime-logo-loader/bin/targets/nrf52_my_sensor/app/libs/rust_app/libs_rust_app.a(app-5a5ad30fd2c694e7.druid-4e098a748cece73f.1b05q285c68j33x.rcgu.o.rcgu.o)
 .text._ZN4core3ptr13drop_in_place17h00770497a4e91b46E
                0x000000000000a290        0x2 /Users/Luppy/PineTime/pinetime-logo-loader/bin/targets/nrf52_my_sensor/app/libs/rust_app/libs_rust_app.a(app-5a5ad30fd2c694e7.druid-4e098a748cece73f.1b05q285c68j33x.rcgu.o.rcgu.o)
 .text._ZN36_$LT$T$u20$as$u20$core..any..Any$GT$7type_id17hed9a745734db4e1eE
                0x000000000000a292       0x12 /Users/Luppy/PineTime/pinetime-logo-loader/bin/targets/nrf52_my_sensor/app/libs/rust_app/libs_rust_app.a(app-5a5ad30fd2c694e7.druid-4e098a748cece73f.1b05q285c68j33x.rcgu.o.rcgu.o)
 .text._ZN4core3fmt9Formatter12pad_integral17h6e28dd252c211acbE
                0x000000000000a2a4      0x52a /Users/Luppy/PineTime/pinetime-logo-loader/bin/targets/nrf52_my_sensor/app/libs/rust_app/libs_rust_app.a(app-5a5ad30fd2c694e7.druid-4e098a748cece73f.1b05q285c68j33x.rcgu.o.rcgu.o)
 .text._ZN4core3fmt9Formatter12pad_integral12write_prefix17haf2cd0756c277841E
                0x000000000000a7ce       0x60 /Users/Luppy/PineTime/pinetime-logo-loader/bin/targets/nrf52_my_sensor/app/libs/rust_app/libs_rust_app.a(app-5a5ad30fd2c694e7.druid-4e098a748cece73f.1b05q285c68j33x.rcgu.o.rcgu.o)
 .text._ZN4core5slice24slice_end_index_len_fail17h9295d59ebe71138aE
                0x000000000000a82e       0x42 /Users/Luppy/PineTime/pinetime-logo-loader/bin/targets/nrf52_my_sensor/app/libs/rust_app/libs_rust_app.a(app-5a5ad30fd2c694e7.druid-4e098a748cece73f.1b05q285c68j33x.rcgu.o.rcgu.o)
 .text._ZN4core5slice26slice_start_index_len_fail17h39c8935ae8ad5aa3E
                0x000000000000a870       0x42 /Users/Luppy/PineTime/pinetime-logo-loader/bin/targets/nrf52_my_sensor/app/libs/rust_app/libs_rust_app.a(app-5a5ad30fd2c694e7.druid-4e098a748cece73f.1b05q285c68j33x.rcgu.o.rcgu.o)
 *fill*         0x000000000000a8b2        0x2 
 .text._ZN4core3fmt9Formatter3pad17h30a0701a50ac9df4E
                0x000000000000a8b4      0x6ac /Users/Luppy/PineTime/pinetime-logo-loader/bin/targets/nrf52_my_sensor/app/libs/rust_app/libs_rust_app.a(app-5a5ad30fd2c694e7.druid-4e098a748cece73f.1b05q285c68j33x.rcgu.o.rcgu.o)
 .text._ZN4core3str16slice_error_fail17he2e3a7810bf7cf5dE
                0x000000000000af60      0x566 /Users/Luppy/PineTime/pinetime-logo-loader/bin/targets/nrf52_my_sensor/app/libs/rust_app/libs_rust_app.a(app-5a5ad30fd2c694e7.druid-4e098a748cece73f.1b05q285c68j33x.rcgu.o.rcgu.o)
 .text._ZN44_$LT$$RF$T$u20$as$u20$core..fmt..Display$GT$3fmt17h7fbf59b3963cac8fE
                0x000000000000b4c6       0x14 /Users/Luppy/PineTime/pinetime-logo-loader/bin/targets/nrf52_my_sensor/app/libs/rust_app/libs_rust_app.a(app-5a5ad30fd2c694e7.druid-4e098a748cece73f.1b05q285c68j33x.rcgu.o.rcgu.o)
 *fill*         0x000000000000b4da        0x2 
 .text._ZN41_$LT$char$u20$as$u20$core..fmt..Debug$GT$3fmt17hd3d2e1ab22d0b6f7E
                0x000000000000b4dc      0x28a /Users/Luppy/PineTime/pinetime-logo-loader/bin/targets/nrf52_my_sensor/app/libs/rust_app/libs_rust_app.a(app-5a5ad30fd2c694e7.druid-4e098a748cece73f.1b05q285c68j33x.rcgu.o.rcgu.o)
 .text._ZN71_$LT$core..ops..range..Range$LT$Idx$GT$$u20$as$u20$core..fmt..Debug$GT$3fmt17h2311f1d2c5e93f1eE
                0x000000000000b766       0x5e /Users/Luppy/PineTime/pinetime-logo-loader/bin/targets/nrf52_my_sensor/app/libs/rust_app/libs_rust_app.a(app-5a5ad30fd2c694e7.druid-4e098a748cece73f.1b05q285c68j33x.rcgu.o.rcgu.o)
 .text._ZN4core3fmt3num52_$LT$impl$u20$core..fmt..Debug$u20$for$u20$usize$GT$3fmt17hf552110c6cafc5f0E
                0x000000000000b7c4      0x44c /Users/Luppy/PineTime/pinetime-logo-loader/bin/targets/nrf52_my_sensor/app/libs/rust_app/libs_rust_app.a(app-5a5ad30fd2c694e7.druid-4e098a748cece73f.1b05q285c68j33x.rcgu.o.rcgu.o)
 .text._ZN4core3fmt5write17h9ef962977dc1c967E
                0x000000000000bc10      0x408 /Users/Luppy/PineTime/pinetime-logo-loader/bin/targets/nrf52_my_sensor/app/libs/rust_app/libs_rust_app.a(app-5a5ad30fd2c694e7.druid-4e098a748cece73f.1b05q285c68j33x.rcgu.o.rcgu.o)
 .text._ZN4core7unicode12unicode_data15grapheme_extend6lookup17h0d25c0b206ba48cfE
                0x000000000000c018      0x1d8 /Users/Luppy/PineTime/pinetime-logo-loader/bin/targets/nrf52_my_sensor/app/libs/rust_app/libs_rust_app.a(app-5a5ad30fd2c694e7.druid-4e098a748cece73f.1b05q285c68j33x.rcgu.o.rcgu.o)
 .text._ZN4core7unicode9printable12is_printable17h979646fe95db1825E
                0x000000000000c1f0      0x5b2 /Users/Luppy/PineTime/pinetime-logo-loader/bin/targets/nrf52_my_sensor/app/libs/rust_app/libs_rust_app.a(app-5a5ad30fd2c694e7.druid-4e098a748cece73f.1b05q285c68j33x.rcgu.o.rcgu.o)
 .text._ZN4core5slice22slice_index_order_fail17h823adfe0d4cb0d4eE
                0x000000000000c7a2       0x42 /Users/Luppy/PineTime/pinetime-logo-loader/bin/targets/nrf52_my_sensor/app/libs/rust_app/libs_rust_app.a(app-5a5ad30fd2c694e7.druid-4e098a748cece73f.1b05q285c68j33x.rcgu.o.rcgu.o)
 .text._ZN4core3fmt3num53_$LT$impl$u20$core..fmt..LowerHex$u20$for$u20$i16$GT$3fmt17h2ce08ea4962a89bfE
                0x000000000000c7e4      0x134 /Users/Luppy/PineTime/pinetime-logo-loader/bin/targets/nrf52_my_sensor/app/libs/rust_app/libs_rust_app.a(app-5a5ad30fd2c694e7.druid-4e098a748cece73f.1b05q285c68j33x.rcgu.o.rcgu.o)
 .text._ZN4core6option18expect_none_failed17h6759d4401d28ac1fE
                0x000000000000c918       0x52 /Users/Luppy/PineTime/pinetime-logo-loader/bin/targets/nrf52_my_sensor/app/libs/rust_app/libs_rust_app.a(app-5a5ad30fd2c694e7.druid-4e098a748cece73f.1b05q285c68j33x.rcgu.o.rcgu.o)
 .text._ZN42_$LT$$RF$T$u20$as$u20$core..fmt..Debug$GT$3fmt17hfa4813af48620bbbE
                0x000000000000c96a       0x12 /Users/Luppy/PineTime/pinetime-logo-loader/bin/targets/nrf52_my_sensor/app/libs/rust_app/libs_rust_app.a(app-5a5ad30fd2c694e7.druid-4e098a748cece73f.1b05q285c68j33x.rcgu.o.rcgu.o)
 .text._ZN4core5panic9PanicInfo8location17h6e90b1f5ec8cea30E
                0x000000000000c97c        0x4 /Users/Luppy/PineTime/pinetime-logo-loader/bin/targets/nrf52_my_sensor/app/libs/rust_app/libs_rust_app.a(app-5a5ad30fd2c694e7.druid-4e098a748cece73f.1b05q285c68j33x.rcgu.o.rcgu.o)
 .text._ZN4core5panic8Location4file17hfc9aa9a4958c9c3aE
                0x000000000000c980       0x10 /Users/Luppy/PineTime/pinetime-logo-loader/bin/targets/nrf52_my_sensor/app/libs/rust_app/libs_rust_app.a(app-5a5ad30fd2c694e7.druid-4e098a748cece73f.1b05q285c68j33x.rcgu.o.rcgu.o)
 .text._ZN4core5panic8Location4line17h81a396f742303977E
                0x000000000000c990        0x4 /Users/Luppy/PineTime/pinetime-logo-loader/bin/targets/nrf52_my_sensor/app/libs/rust_app/libs_rust_app.a(app-5a5ad30fd2c694e7.druid-4e098a748cece73f.1b05q285c68j33x.rcgu.o.rcgu.o)
 .text._ZN68_$LT$core..fmt..builders..PadAdapter$u20$as$u20$core..fmt..Write$GT$9write_str17h138013a888c27a5fE
                0x000000000000c994      0x2f6 /Users/Luppy/PineTime/pinetime-logo-loader/bin/targets/nrf52_my_sensor/app/libs/rust_app/libs_rust_app.a(app-5a5ad30fd2c694e7.druid-4e098a748cece73f.1b05q285c68j33x.rcgu.o.rcgu.o)
 .text._ZN4core5slice6memchr6memchr17h3f3c76f4fb920cb5E
                0x000000000000cc8a      0x2d4 /Users/Luppy/PineTime/pinetime-logo-loader/bin/targets/nrf52_my_sensor/app/libs/rust_app/libs_rust_app.a(app-5a5ad30fd2c694e7.druid-4e098a748cece73f.1b05q285c68j33x.rcgu.o.rcgu.o)
 .text._ZN4core3fmt5Write10write_char17h5d67aa88a81e33c9E
                0x000000000000cf5e      0x104 /Users/Luppy/PineTime/pinetime-logo-loader/bin/targets/nrf52_my_sensor/app/libs/rust_app/libs_rust_app.a(app-5a5ad30fd2c694e7.druid-4e098a748cece73f.1b05q285c68j33x.rcgu.o.rcgu.o)
 .text._ZN4core3fmt5Write9write_fmt17h38fb31c31c17e9f9E
                0x000000000000d062       0x34 /Users/Luppy/PineTime/pinetime-logo-loader/bin/targets/nrf52_my_sensor/app/libs/rust_app/libs_rust_app.a(app-5a5ad30fd2c694e7.druid-4e098a748cece73f.1b05q285c68j33x.rcgu.o.rcgu.o)
 .text._ZN50_$LT$$RF$mut$u20$W$u20$as$u20$core..fmt..Write$GT$9write_str17h2a2c0fbd2944ddf2E
                0x000000000000d096        0x6 /Users/Luppy/PineTime/pinetime-logo-loader/bin/targets/nrf52_my_sensor/app/libs/rust_app/libs_rust_app.a(app-5a5ad30fd2c694e7.druid-4e098a748cece73f.1b05q285c68j33x.rcgu.o.rcgu.o)
 .text._ZN50_$LT$$RF$mut$u20$W$u20$as$u20$core..fmt..Write$GT$10write_char17h5e6c6af36ed21ae6E
                0x000000000000d09c      0x106 /Users/Luppy/PineTime/pinetime-logo-loader/bin/targets/nrf52_my_sensor/app/libs/rust_app/libs_rust_app.a(app-5a5ad30fd2c694e7.druid-4e098a748cece73f.1b05q285c68j33x.rcgu.o.rcgu.o)
 .text._ZN50_$LT$$RF$mut$u20$W$u20$as$u20$core..fmt..Write$GT$9write_fmt17hcb6782a600c8b176E
                0x000000000000d1a2       0x36 /Users/Luppy/PineTime/pinetime-logo-loader/bin/targets/nrf52_my_sensor/app/libs/rust_app/libs_rust_app.a(app-5a5ad30fd2c694e7.druid-4e098a748cece73f.1b05q285c68j33x.rcgu.o.rcgu.o)
 .text._ZN4core3fmt8builders10DebugTuple5field17h42f29fd14dabed12E
                0x000000000000d1d8      0x19e /Users/Luppy/PineTime/pinetime-logo-loader/bin/targets/nrf52_my_sensor/app/libs/rust_app/libs_rust_app.a(app-5a5ad30fd2c694e7.druid-4e098a748cece73f.1b05q285c68j33x.rcgu.o.rcgu.o)
 .text._ZN4core3fmt8builders10DebugTuple6finish17h3a7e5029f38a97e8E
                0x000000000000d376       0xbc /Users/Luppy/PineTime/pinetime-logo-loader/bin/targets/nrf52_my_sensor/app/libs/rust_app/libs_rust_app.a(app-5a5ad30fd2c694e7.druid-4e098a748cece73f.1b05q285c68j33x.rcgu.o.rcgu.o)
 .text._ZN59_$LT$core..fmt..Arguments$u20$as$u20$core..fmt..Display$GT$3fmt17ha0f932f4d1670864E
                0x000000000000d432       0x2a /Users/Luppy/PineTime/pinetime-logo-loader/bin/targets/nrf52_my_sensor/app/libs/rust_app/libs_rust_app.a(app-5a5ad30fd2c694e7.druid-4e098a748cece73f.1b05q285c68j33x.rcgu.o.rcgu.o)
 .text._ZN4core3fmt9Formatter15debug_lower_hex17h32e771fbd6977590E
                0x000000000000d45c        0x8 /Users/Luppy/PineTime/pinetime-logo-loader/bin/targets/nrf52_my_sensor/app/libs/rust_app/libs_rust_app.a(app-5a5ad30fd2c694e7.druid-4e098a748cece73f.1b05q285c68j33x.rcgu.o.rcgu.o)
 .text._ZN4core3fmt9Formatter15debug_upper_hex17hc266d1b6d11b4325E
                0x000000000000d464        0x8 /Users/Luppy/PineTime/pinetime-logo-loader/bin/targets/nrf52_my_sensor/app/libs/rust_app/libs_rust_app.a(app-5a5ad30fd2c694e7.druid-4e098a748cece73f.1b05q285c68j33x.rcgu.o.rcgu.o)
 .text._ZN4core3fmt9Formatter11debug_tuple17h7ca2586663fb4282E
                0x000000000000d46c       0x44 /Users/Luppy/PineTime/pinetime-logo-loader/bin/targets/nrf52_my_sensor/app/libs/rust_app/libs_rust_app.a(app-5a5ad30fd2c694e7.druid-4e098a748cece73f.1b05q285c68j33x.rcgu.o.rcgu.o)
 .text._ZN4core3fmt3num52_$LT$impl$u20$core..fmt..LowerHex$u20$for$u20$i8$GT$3fmt17h227d1d33bce12de6E
                0x000000000000d4b0       0xb2 /Users/Luppy/PineTime/pinetime-logo-loader/bin/targets/nrf52_my_sensor/app/libs/rust_app/libs_rust_app.a(app-5a5ad30fd2c694e7.druid-4e098a748cece73f.1b05q285c68j33x.rcgu.o.rcgu.o)
 .text._ZN4core3fmt3num3imp51_$LT$impl$u20$core..fmt..Display$u20$for$u20$u8$GT$3fmt17he1215fae8fc109a6E
                0x000000000000d562       0xb4 /Users/Luppy/PineTime/pinetime-logo-loader/bin/targets/nrf52_my_sensor/app/libs/rust_app/libs_rust_app.a(app-5a5ad30fd2c694e7.druid-4e098a748cece73f.1b05q285c68j33x.rcgu.o.rcgu.o)
 .text._ZN4core3fmt3num53_$LT$impl$u20$core..fmt..LowerHex$u20$for$u20$i32$GT$3fmt17hd5d79fa77578a25cE
                0x000000000000d616      0x166 /Users/Luppy/PineTime/pinetime-logo-loader/bin/targets/nrf52_my_sensor/app/libs/rust_app/libs_rust_app.a(app-5a5ad30fd2c694e7.druid-4e098a748cece73f.1b05q285c68j33x.rcgu.o.rcgu.o)
 .text._ZN4core3fmt3num52_$LT$impl$u20$core..fmt..UpperHex$u20$for$u20$i8$GT$3fmt17h49faffa4ffd77a83E
                0x000000000000d77c       0xb2 /Users/Luppy/PineTime/pinetime-logo-loader/bin/targets/nrf52_my_sensor/app/libs/rust_app/libs_rust_app.a(app-5a5ad30fd2c694e7.druid-4e098a748cece73f.1b05q285c68j33x.rcgu.o.rcgu.o)
 .text._ZN4core3fmt3num53_$LT$impl$u20$core..fmt..UpperHex$u20$for$u20$i16$GT$3fmt17h69ad5ddfcf66875bE
                0x000000000000d82e      0x134 /Users/Luppy/PineTime/pinetime-logo-loader/bin/targets/nrf52_my_sensor/app/libs/rust_app/libs_rust_app.a(app-5a5ad30fd2c694e7.druid-4e098a748cece73f.1b05q285c68j33x.rcgu.o.rcgu.o)
 .text._ZN4core3fmt3num53_$LT$impl$u20$core..fmt..UpperHex$u20$for$u20$i32$GT$3fmt17h17399146398f03efE
                0x000000000000d962      0x166 /Users/Luppy/PineTime/pinetime-logo-loader/bin/targets/nrf52_my_sensor/app/libs/rust_app/libs_rust_app.a(app-5a5ad30fd2c694e7.druid-4e098a748cece73f.1b05q285c68j33x.rcgu.o.rcgu.o)
 .text._ZN4core3fmt3num3imp52_$LT$impl$u20$core..fmt..Display$u20$for$u20$u16$GT$3fmt17hefeb01a1c4395347E
                0x000000000000dac8      0x132 /Users/Luppy/PineTime/pinetime-logo-loader/bin/targets/nrf52_my_sensor/app/libs/rust_app/libs_rust_app.a(app-5a5ad30fd2c694e7.druid-4e098a748cece73f.1b05q285c68j33x.rcgu.o.rcgu.o)
 .text._ZN4core3fmt3num3imp52_$LT$impl$u20$core..fmt..Display$u20$for$u20$i32$GT$3fmt17h15dc3f61d8b49843E
                0x000000000000dbfa      0x182 /Users/Luppy/PineTime/pinetime-logo-loader/bin/targets/nrf52_my_sensor/app/libs/rust_app/libs_rust_app.a(app-5a5ad30fd2c694e7.druid-4e098a748cece73f.1b05q285c68j33x.rcgu.o.rcgu.o)
 .text._ZN85_$LT$core..slice..Iter$LT$T$GT$$u20$as$u20$core..iter..traits..iterator..Iterator$GT$4next17h0a69119e75134489E
                0x000000000000dd7c       0xbc /Users/Luppy/PineTime/pinetime-logo-loader/bin/targets/nrf52_my_sensor/app/libs/rust_app/libs_rust_app.a(app-5a5ad30fd2c694e7.druid-4e098a748cece73f.1b05q285c68j33x.rcgu.o.rcgu.o)
 .text._ZN4core3ptr8non_null16NonNull$LT$T$GT$6as_ptr17h2d2b81517009ffc2E
                0x000000000000de38        0x8 /Users/Luppy/PineTime/pinetime-logo-loader/bin/targets/nrf52_my_sensor/app/libs/rust_app/libs_rust_app.a(app-5a5ad30fd2c694e7.druid-4e098a748cece73f.1b05q285c68j33x.rcgu.o.rcgu.o)
 .text._ZN4core3ptr7mut_ptr31_$LT$impl$u20$$BP$mut$u20$T$GT$7is_null17h77d5b641b96daa61E
                0x000000000000de40        0xe /Users/Luppy/PineTime/pinetime-logo-loader/bin/targets/nrf52_my_sensor/app/libs/rust_app/libs_rust_app.a(app-5a5ad30fd2c694e7.druid-4e098a748cece73f.1b05q285c68j33x.rcgu.o.rcgu.o)
 .text._ZN4core3ptr9const_ptr33_$LT$impl$u20$$BP$const$u20$T$GT$7is_null17h227d6e6679e00a66E
                0x000000000000de4e        0xe /Users/Luppy/PineTime/pinetime-logo-loader/bin/targets/nrf52_my_sensor/app/libs/rust_app/libs_rust_app.a(app-5a5ad30fd2c694e7.druid-4e098a748cece73f.1b05q285c68j33x.rcgu.o.rcgu.o)
 .text._ZN4core3ptr7mut_ptr31_$LT$impl$u20$$BP$mut$u20$T$GT$6offset17hbdac423eb1e06e89E
                0x000000000000de5c       0x10 /Users/Luppy/PineTime/pinetime-logo-loader/bin/targets/nrf52_my_sensor/app/libs/rust_app/libs_rust_app.a(app-5a5ad30fd2c694e7.druid-4e098a748cece73f.1b05q285c68j33x.rcgu.o.rcgu.o)
 .text._ZN4core3ptr8non_null16NonNull$LT$T$GT$13new_unchecked17hb19d7ccfc5fe91c6E
                0x000000000000de6c        0xc /Users/Luppy/PineTime/pinetime-logo-loader/bin/targets/nrf52_my_sensor/app/libs/rust_app/libs_rust_app.a(app-5a5ad30fd2c694e7.druid-4e098a748cece73f.1b05q285c68j33x.rcgu.o.rcgu.o)
 .text._ZN4core3ptr9const_ptr33_$LT$impl$u20$$BP$const$u20$T$GT$15wrapping_offset17h95d22efc9dd24c04E
                0x000000000000de78       0x10 /Users/Luppy/PineTime/pinetime-logo-loader/bin/targets/nrf52_my_sensor/app/libs/rust_app/libs_rust_app.a(app-5a5ad30fd2c694e7.druid-4e098a748cece73f.1b05q285c68j33x.rcgu.o.rcgu.o)
 .text._ZN4core4iter5range101_$LT$impl$u20$core..iter..traits..iterator..Iterator$u20$for$u20$core..ops..range..Range$LT$A$GT$$GT$4next17h88f339e598c03466E
                0x000000000000de88       0x48 /Users/Luppy/PineTime/pinetime-logo-loader/bin/targets/nrf52_my_sensor/app/libs/rust_app/libs_rust_app.a(app-5a5ad30fd2c694e7.druid-4e098a748cece73f.1b05q285c68j33x.rcgu.o.rcgu.o)
 .text._ZN4core3cmp5impls57_$LT$impl$u20$core..cmp..PartialOrd$u20$for$u20$usize$GT$2lt17hb34ea7ae853398e2E
                0x000000000000ded0       0x18 /Users/Luppy/PineTime/pinetime-logo-loader/bin/targets/nrf52_my_sensor/app/libs/rust_app/libs_rust_app.a(app-5a5ad30fd2c694e7.druid-4e098a748cece73f.1b05q285c68j33x.rcgu.o.rcgu.o)
 .text._ZN4core5clone5impls54_$LT$impl$u20$core..clone..Clone$u20$for$u20$usize$GT$5clone17hf3514582d3aaa870E
                0x000000000000dee8        0xa /Users/Luppy/PineTime/pinetime-logo-loader/bin/targets/nrf52_my_sensor/app/libs/rust_app/libs_rust_app.a(app-5a5ad30fd2c694e7.druid-4e098a748cece73f.1b05q285c68j33x.rcgu.o.rcgu.o)
 .text._ZN49_$LT$usize$u20$as$u20$core..iter..range..Step$GT$17forward_unchecked17h293dbaa34c865e13E
                0x000000000000def2       0x12 /Users/Luppy/PineTime/pinetime-logo-loader/bin/targets/nrf52_my_sensor/app/libs/rust_app/libs_rust_app.a(app-5a5ad30fd2c694e7.druid-4e098a748cece73f.1b05q285c68j33x.rcgu.o.rcgu.o)
 .text._ZN4core3mem7replace17h39002d3de7c10395E
                0x000000000000df04       0x16 /Users/Luppy/PineTime/pinetime-logo-loader/bin/targets/nrf52_my_sensor/app/libs/rust_app/libs_rust_app.a(app-5a5ad30fd2c694e7.druid-4e098a748cece73f.1b05q285c68j33x.rcgu.o.rcgu.o)
 .text._ZN4core3mem4swap17ha4d57f9cc5e38179E
                0x000000000000df1a       0x12 /Users/Luppy/PineTime/pinetime-logo-loader/bin/targets/nrf52_my_sensor/app/libs/rust_app/libs_rust_app.a(app-5a5ad30fd2c694e7.druid-4e098a748cece73f.1b05q285c68j33x.rcgu.o.rcgu.o)
 .text._ZN4core3ptr23swap_nonoverlapping_one17haa5cb228a06fdfa0E
                0x000000000000df2c       0x4a /Users/Luppy/PineTime/pinetime-logo-loader/bin/targets/nrf52_my_sensor/app/libs/rust_app/libs_rust_app.a(app-5a5ad30fd2c694e7.druid-4e098a748cece73f.1b05q285c68j33x.rcgu.o.rcgu.o)
 .text._ZN4core3ptr19swap_nonoverlapping17hc1b947dbcc0800b3E
                0x000000000000df76       0x22 /Users/Luppy/PineTime/pinetime-logo-loader/bin/targets/nrf52_my_sensor/app/libs/rust_app/libs_rust_app.a(app-5a5ad30fd2c694e7.druid-4e098a748cece73f.1b05q285c68j33x.rcgu.o.rcgu.o)
 .text._ZN4core3ptr4read17h81acf6433f960886E
                0x000000000000df98       0x22 /Users/Luppy/PineTime/pinetime-logo-loader/bin/targets/nrf52_my_sensor/app/libs/rust_app/libs_rust_app.a(app-5a5ad30fd2c694e7.druid-4e098a748cece73f.1b05q285c68j33x.rcgu.o.rcgu.o)
 .text._ZN4core10intrinsics19copy_nonoverlapping17hc2d31eab3b1637a0E
                0x000000000000dfba       0x1c /Users/Luppy/PineTime/pinetime-logo-loader/bin/targets/nrf52_my_sensor/app/libs/rust_app/libs_rust_app.a(app-5a5ad30fd2c694e7.druid-4e098a748cece73f.1b05q285c68j33x.rcgu.o.rcgu.o)
 .text._ZN4core3ptr5write17hbacbd87ee57ac1c2E
                0x000000000000dfd6        0xc /Users/Luppy/PineTime/pinetime-logo-loader/bin/targets/nrf52_my_sensor/app/libs/rust_app/libs_rust_app.a(app-5a5ad30fd2c694e7.druid-4e098a748cece73f.1b05q285c68j33x.rcgu.o.rcgu.o)
 .text._ZN4core3ptr25swap_nonoverlapping_bytes17h21ad44df6d42ab5cE
                0x000000000000dfe2       0xf0 /Users/Luppy/PineTime/pinetime-logo-loader/bin/targets/nrf52_my_sensor/app/libs/rust_app/libs_rust_app.a(app-5a5ad30fd2c694e7.druid-4e098a748cece73f.1b05q285c68j33x.rcgu.o.rcgu.o)
 .text._ZN4core3ptr7mut_ptr31_$LT$impl$u20$$BP$mut$u20$T$GT$3add17h7a7c93c05c2186c3E
                0x000000000000e0d2       0x12 /Users/Luppy/PineTime/pinetime-logo-loader/bin/targets/nrf52_my_sensor/app/libs/rust_app/libs_rust_app.a(app-5a5ad30fd2c694e7.druid-4e098a748cece73f.1b05q285c68j33x.rcgu.o.rcgu.o)
 .text._ZN4core3num23_$LT$impl$u20$usize$GT$13unchecked_add17hbbf0c5985978780bE
                0x000000000000e0e4       0x10 /Users/Luppy/PineTime/pinetime-logo-loader/bin/targets/nrf52_my_sensor/app/libs/rust_app/libs_rust_app.a(app-5a5ad30fd2c694e7.druid-4e098a748cece73f.1b05q285c68j33x.rcgu.o.rcgu.o)
 .text._ZN4core3ptr9const_ptr33_$LT$impl$u20$$BP$const$u20$T$GT$12wrapping_add17h993d0ec22a8a4c8fE
                0x000000000000e0f4       0x12 /Users/Luppy/PineTime/pinetime-logo-loader/bin/targets/nrf52_my_sensor/app/libs/rust_app/libs_rust_app.a(app-5a5ad30fd2c694e7.druid-4e098a748cece73f.1b05q285c68j33x.rcgu.o.rcgu.o)
 .text._ZN4core5slice14from_raw_parts17hc2abe70f1ed09afaE
                0x000000000000e106       0x12 /Users/Luppy/PineTime/pinetime-logo-loader/bin/targets/nrf52_my_sensor/app/libs/rust_app/libs_rust_app.a(app-5a5ad30fd2c694e7.druid-4e098a748cece73f.1b05q285c68j33x.rcgu.o.rcgu.o)
 .text._ZN4core5slice29_$LT$impl$u20$$u5b$T$u5d$$GT$4iter17h3275220c3f2fbdcbE
                0x000000000000e118       0x68 /Users/Luppy/PineTime/pinetime-logo-loader/bin/targets/nrf52_my_sensor/app/libs/rust_app/libs_rust_app.a(app-5a5ad30fd2c694e7.druid-4e098a748cece73f.1b05q285c68j33x.rcgu.o.rcgu.o)
 .text._ZN42_$LT$$RF$T$u20$as$u20$core..fmt..Debug$GT$3fmt17h2042ba1bda3cefc0E
                0x000000000000e180       0x14 /Users/Luppy/PineTime/pinetime-logo-loader/bin/targets/nrf52_my_sensor/app/libs/rust_app/libs_rust_app.a(app-5a5ad30fd2c694e7.druid-4e098a748cece73f.1b05q285c68j33x.rcgu.o.rcgu.o)
 .text._ZN4core3fmt3num50_$LT$impl$u20$core..fmt..Debug$u20$for$u20$i32$GT$3fmt17ha88b8aa82c6718abE
                0x000000000000e194       0x58 /Users/Luppy/PineTime/pinetime-logo-loader/bin/targets/nrf52_my_sensor/app/libs/rust_app/libs_rust_app.a(app-5a5ad30fd2c694e7.druid-4e098a748cece73f.1b05q285c68j33x.rcgu.o.rcgu.o)
 .text._ZN4core3cmp3Ord3max17h32404d36a175d0afE
                0x000000000000e1ec       0x12 /Users/Luppy/PineTime/pinetime-logo-loader/bin/targets/nrf52_my_sensor/app/libs/rust_app/libs_rust_app.a(app-5a5ad30fd2c694e7.druid-4e098a748cece73f.1b05q285c68j33x.rcgu.o.rcgu.o)
 .text._ZN4core3cmp6max_by17h0ed8175d117ab16cE
                0x000000000000e1fe       0x82 /Users/Luppy/PineTime/pinetime-logo-loader/bin/targets/nrf52_my_sensor/app/libs/rust_app/libs_rust_app.a(app-5a5ad30fd2c694e7.druid-4e098a748cece73f.1b05q285c68j33x.rcgu.o.rcgu.o)
 .text._ZN4core3ops8function6FnOnce9call_once17h258b1d54b3a59376E
                0x000000000000e280       0x16 /Users/Luppy/PineTime/pinetime-logo-loader/bin/targets/nrf52_my_sensor/app/libs/rust_app/libs_rust_app.a(app-5a5ad30fd2c694e7.druid-4e098a748cece73f.1b05q285c68j33x.rcgu.o.rcgu.o)
 .text._ZN4core3cmp5impls48_$LT$impl$u20$core..cmp..Ord$u20$for$u20$i32$GT$3cmp17hf5ccfaf000584c0aE
                0x000000000000e296       0x42 /Users/Luppy/PineTime/pinetime-logo-loader/bin/targets/nrf52_my_sensor/app/libs/rust_app/libs_rust_app.a(app-5a5ad30fd2c694e7.druid-4e098a748cece73f.1b05q285c68j33x.rcgu.o.rcgu.o)
 .text._ZN4core3fmt10ArgumentV13new17ha01e54371aa1eea8E
                0x000000000000e2d8       0x1a /Users/Luppy/PineTime/pinetime-logo-loader/bin/targets/nrf52_my_sensor/app/libs/rust_app/libs_rust_app.a(app-5a5ad30fd2c694e7.druid-4e098a748cece73f.1b05q285c68j33x.rcgu.o.rcgu.o)
 .text._ZN17embedded_graphics5coord14internal_coord5Coord3new17h4e1049e424fa945bE
                0x000000000000e2f2       0x12 /Users/Luppy/PineTime/pinetime-logo-loader/bin/targets/nrf52_my_sensor/app/libs/rust_app/libs_rust_app.a(app-5a5ad30fd2c694e7.druid-4e098a748cece73f.1b05q285c68j33x.rcgu.o.rcgu.o)
 .text._ZN89_$LT$embedded_graphics..coord..internal_coord..Coord$u20$as$u20$core..ops..arith..Add$GT$3add17h0473f2436be68a53E
                0x000000000000e304       0x6c /Users/Luppy/PineTime/pinetime-logo-loader/bin/targets/nrf52_my_sensor/app/libs/rust_app/libs_rust_app.a(app-5a5ad30fd2c694e7.druid-4e098a748cece73f.1b05q285c68j33x.rcgu.o.rcgu.o)
 .text._ZN104_$LT$embedded_graphics..coord..internal_coord..Coord$u20$as$u20$core..ops..index..Index$LT$usize$GT$$GT$5index17ha16547a052761157E
                0x000000000000e370       0x7c /Users/Luppy/PineTime/pinetime-logo-loader/bin/targets/nrf52_my_sensor/app/libs/rust_app/libs_rust_app.a(app-5a5ad30fd2c694e7.druid-4e098a748cece73f.1b05q285c68j33x.rcgu.o.rcgu.o)
 .text._ZN4core3fmt9Arguments6new_v117h211fbc717f9d2d86E
                0x000000000000e3ec       0x3a /Users/Luppy/PineTime/pinetime-logo-loader/bin/targets/nrf52_my_sensor/app/libs/rust_app/libs_rust_app.a(app-5a5ad30fd2c694e7.druid-4e098a748cece73f.1b05q285c68j33x.rcgu.o.rcgu.o)
 .text._ZN104_$LT$embedded_graphics..coord..internal_coord..Coord$u20$as$u20$embedded_graphics..coord..ToUnsigned$GT$11to_unsigned17heaa75b1acbfe54bdE
                0x000000000000e426       0x52 /Users/Luppy/PineTime/pinetime-logo-loader/bin/targets/nrf52_my_sensor/app/libs/rust_app/libs_rust_app.a(app-5a5ad30fd2c694e7.druid-4e098a748cece73f.1b05q285c68j33x.rcgu.o.rcgu.o)
 .text._ZN17embedded_graphics13unsignedcoord23internal_unsigned_coord13UnsignedCoord3new17h3938392a2366420fE
                0x000000000000e478       0x12 /Users/Luppy/PineTime/pinetime-logo-loader/bin/targets/nrf52_my_sensor/app/libs/rust_app/libs_rust_app.a(app-5a5ad30fd2c694e7.druid-4e098a748cece73f.1b05q285c68j33x.rcgu.o.rcgu.o)
 .text._ZN126_$LT$embedded_graphics..fonts..font12x16..Font12x16Conf$u20$as$u20$embedded_graphics..fonts..font_builder..FontBuilderConf$GT$11char_offset17hca29981296f7728eE
                0x000000000000e48a       0x5a /Users/Luppy/PineTime/pinetime-logo-loader/bin/targets/nrf52_my_sensor/app/libs/rust_app/libs_rust_app.a(app-5a5ad30fd2c694e7.druid-4e098a748cece73f.1b05q285c68j33x.rcgu.o.rcgu.o)
 .text._ZN95_$LT$embedded_graphics..pixelcolor..rgb565..Rgb565$u20$as$u20$core..convert..From$LT$u8$GT$$GT$4from17h5759a33e7d05bd34E
                0x000000000000e4e4       0x2e /Users/Luppy/PineTime/pinetime-logo-loader/bin/targets/nrf52_my_sensor/app/libs/rust_app/libs_rust_app.a(app-5a5ad30fd2c694e7.druid-4e098a748cece73f.1b05q285c68j33x.rcgu.o.rcgu.o)
 .text._ZN113_$LT$embedded_graphics..pixelcolor..rgb565..Rgb565$u20$as$u20$core..convert..From$LT$$LP$u8$C$u8$C$u8$RP$$GT$$GT$4from17hf90ddb56b6d85160E
                0x000000000000e512       0x5c /Users/Luppy/PineTime/pinetime-logo-loader/bin/targets/nrf52_my_sensor/app/libs/rust_app/libs_rust_app.a(app-5a5ad30fd2c694e7.druid-4e098a748cece73f.1b05q285c68j33x.rcgu.o.rcgu.o)
 .text._ZN4core3ptr7mut_ptr31_$LT$impl$u20$$BP$mut$u20$T$GT$3add17h7ddd73f2cf393304E
                0x000000000000e56e       0x12 /Users/Luppy/PineTime/pinetime-logo-loader/bin/targets/nrf52_my_sensor/app/libs/rust_app/libs_rust_app.a(app-5a5ad30fd2c694e7.druid-4e098a748cece73f.1b05q285c68j33x.rcgu.o.rcgu.o)
 .text._ZN4core3ptr7mut_ptr31_$LT$impl$u20$$BP$mut$u20$T$GT$6offset17hdf1387e4401c6ce8E
                0x000000000000e580       0x10 /Users/Luppy/PineTime/pinetime-logo-loader/bin/targets/nrf52_my_sensor/app/libs/rust_app/libs_rust_app.a(app-5a5ad30fd2c694e7.druid-4e098a748cece73f.1b05q285c68j33x.rcgu.o.rcgu.o)
 .text._ZN4core3ptr7mut_ptr41_$LT$impl$u20$$BP$mut$u20$$u5b$T$u5d$$GT$10as_mut_ptr17h94c80403ef2ba602E
                0x000000000000e590        0xa /Users/Luppy/PineTime/pinetime-logo-loader/bin/targets/nrf52_my_sensor/app/libs/rust_app/libs_rust_app.a(app-5a5ad30fd2c694e7.druid-4e098a748cece73f.1b05q285c68j33x.rcgu.o.rcgu.o)
 .text._ZN4core5slice29_$LT$impl$u20$$u5b$T$u5d$$GT$17get_unchecked_mut17hccbadcebe2d0bc48E
                0x000000000000e59a       0x20 /Users/Luppy/PineTime/pinetime-logo-loader/bin/targets/nrf52_my_sensor/app/libs/rust_app/libs_rust_app.a(app-5a5ad30fd2c694e7.druid-4e098a748cece73f.1b05q285c68j33x.rcgu.o.rcgu.o)
 .text._ZN68_$LT$usize$u20$as$u20$core..slice..SliceIndex$LT$$u5b$T$u5d$$GT$$GT$17get_unchecked_mut17h0c8eaac2bc791c15E
                0x000000000000e5ba       0x20 /Users/Luppy/PineTime/pinetime-logo-loader/bin/targets/nrf52_my_sensor/app/libs/rust_app/libs_rust_app.a(app-5a5ad30fd2c694e7.druid-4e098a748cece73f.1b05q285c68j33x.rcgu.o.rcgu.o)
 .text._ZN63_$LT$I$u20$as$u20$core..iter..traits..collect..IntoIterator$GT$9into_iter17hf2e8429c290bf2f3E
                0x000000000000e5da        0xa /Users/Luppy/PineTime/pinetime-logo-loader/bin/targets/nrf52_my_sensor/app/libs/rust_app/libs_rust_app.a(app-5a5ad30fd2c694e7.druid-4e098a748cece73f.1b05q285c68j33x.rcgu.o.rcgu.o)
 .text._ZN4core3ptr9const_ptr33_$LT$impl$u20$$BP$const$u20$T$GT$3add17h0191ca0950eee10aE
                0x000000000000e5e4       0x12 /Users/Luppy/PineTime/pinetime-logo-loader/bin/targets/nrf52_my_sensor/app/libs/rust_app/libs_rust_app.a(app-5a5ad30fd2c694e7.druid-4e098a748cece73f.1b05q285c68j33x.rcgu.o.rcgu.o)
 .text._ZN4core3ptr20slice_from_raw_parts17h9ed554e63849949cE
                0x000000000000e5f6       0x1a /Users/Luppy/PineTime/pinetime-logo-loader/bin/targets/nrf52_my_sensor/app/libs/rust_app/libs_rust_app.a(app-5a5ad30fd2c694e7.druid-4e098a748cece73f.1b05q285c68j33x.rcgu.o.rcgu.o)
 .text._ZN4core3ptr9const_ptr33_$LT$impl$u20$$BP$const$u20$T$GT$6offset17h61a06725fe2fbe7cE
                0x000000000000e610       0x10 /Users/Luppy/PineTime/pinetime-logo-loader/bin/targets/nrf52_my_sensor/app/libs/rust_app/libs_rust_app.a(app-5a5ad30fd2c694e7.druid-4e098a748cece73f.1b05q285c68j33x.rcgu.o.rcgu.o)
 .text._ZN4core5slice29_$LT$impl$u20$$u5b$T$u5d$$GT$3len17ha89a753dca6cd9f4E
                0x000000000000e620       0x10 /Users/Luppy/PineTime/pinetime-logo-loader/bin/targets/nrf52_my_sensor/app/libs/rust_app/libs_rust_app.a(app-5a5ad30fd2c694e7.druid-4e098a748cece73f.1b05q285c68j33x.rcgu.o.rcgu.o)
 .text._ZN4core10intrinsics19copy_nonoverlapping17h8951d6cd197319f0E
                0x000000000000e630       0x1a /Users/Luppy/PineTime/pinetime-logo-loader/bin/targets/nrf52_my_sensor/app/libs/rust_app/libs_rust_app.a(app-5a5ad30fd2c694e7.druid-4e098a748cece73f.1b05q285c68j33x.rcgu.o.rcgu.o)
 .text._ZN4core5slice29_$LT$impl$u20$$u5b$T$u5d$$GT$6as_ptr17hfff97142496157afE
                0x000000000000e64a        0xa /Users/Luppy/PineTime/pinetime-logo-loader/bin/targets/nrf52_my_sensor/app/libs/rust_app/libs_rust_app.a(app-5a5ad30fd2c694e7.druid-4e098a748cece73f.1b05q285c68j33x.rcgu.o.rcgu.o)
 .text._ZN4core3ptr24slice_from_raw_parts_mut17hfabb6bdc2e29db70E
                0x000000000000e654       0x1a /Users/Luppy/PineTime/pinetime-logo-loader/bin/targets/nrf52_my_sensor/app/libs/rust_app/libs_rust_app.a(app-5a5ad30fd2c694e7.druid-4e098a748cece73f.1b05q285c68j33x.rcgu.o.rcgu.o)
 .text._ZN42_$LT$$RF$T$u20$as$u20$core..fmt..Debug$GT$3fmt17h01382979e0fdd520E
                0x000000000000e66e       0x14 /Users/Luppy/PineTime/pinetime-logo-loader/bin/targets/nrf52_my_sensor/app/libs/rust_app/libs_rust_app.a(app-5a5ad30fd2c694e7.druid-4e098a748cece73f.1b05q285c68j33x.rcgu.o.rcgu.o)
 .text._ZN4core3fmt3num50_$LT$impl$u20$core..fmt..Debug$u20$for$u20$u32$GT$3fmt17h11035ab5dd9f6377E
                0x000000000000e682       0x58 /Users/Luppy/PineTime/pinetime-logo-loader/bin/targets/nrf52_my_sensor/app/libs/rust_app/libs_rust_app.a(app-5a5ad30fd2c694e7.druid-4e098a748cece73f.1b05q285c68j33x.rcgu.o.rcgu.o)
 .text._ZN42_$LT$$RF$T$u20$as$u20$core..fmt..Debug$GT$3fmt17h09e78816f5892c06E
                0x000000000000e6da       0x14 /Users/Luppy/PineTime/pinetime-logo-loader/bin/targets/nrf52_my_sensor/app/libs/rust_app/libs_rust_app.a(app-5a5ad30fd2c694e7.druid-4e098a748cece73f.1b05q285c68j33x.rcgu.o.rcgu.o)
 .text._ZN42_$LT$$RF$T$u20$as$u20$core..fmt..Debug$GT$3fmt17h757ca64d32e45203E
                0x000000000000e6ee       0x14 /Users/Luppy/PineTime/pinetime-logo-loader/bin/targets/nrf52_my_sensor/app/libs/rust_app/libs_rust_app.a(app-5a5ad30fd2c694e7.druid-4e098a748cece73f.1b05q285c68j33x.rcgu.o.rcgu.o)
 .text._ZN4core3fmt3num49_$LT$impl$u20$core..fmt..Debug$u20$for$u20$u8$GT$3fmt17h4811c8406b49f109E
                0x000000000000e702       0x58 /Users/Luppy/PineTime/pinetime-logo-loader/bin/targets/nrf52_my_sensor/app/libs/rust_app/libs_rust_app.a(app-5a5ad30fd2c694e7.druid-4e098a748cece73f.1b05q285c68j33x.rcgu.o.rcgu.o)
 .text._ZN42_$LT$$RF$T$u20$as$u20$core..fmt..Debug$GT$3fmt17h41805565385b3a12E
                0x000000000000e75a       0x14 /Users/Luppy/PineTime/pinetime-logo-loader/bin/targets/nrf52_my_sensor/app/libs/rust_app/libs_rust_app.a(app-5a5ad30fd2c694e7.druid-4e098a748cece73f.1b05q285c68j33x.rcgu.o.rcgu.o)
 .text._ZN66_$LT$core..option..Option$LT$T$GT$$u20$as$u20$core..fmt..Debug$GT$3fmt17h1a26faaef56f0a6dE
                0x000000000000e76e       0x80 /Users/Luppy/PineTime/pinetime-logo-loader/bin/targets/nrf52_my_sensor/app/libs/rust_app/libs_rust_app.a(app-5a5ad30fd2c694e7.druid-4e098a748cece73f.1b05q285c68j33x.rcgu.o.rcgu.o)
 .text._ZN4core3ptr13drop_in_place17h1d37b3ddee561a41E
                0x000000000000e7ee        0x8 /Users/Luppy/PineTime/pinetime-logo-loader/bin/targets/nrf52_my_sensor/app/libs/rust_app/libs_rust_app.a(app-5a5ad30fd2c694e7.druid-4e098a748cece73f.1b05q285c68j33x.rcgu.o.rcgu.o)
 .text._ZN42_$LT$$RF$T$u20$as$u20$core..fmt..Debug$GT$3fmt17hddd9eee59670a928E
                0x000000000000e7f6       0x14 /Users/Luppy/PineTime/pinetime-logo-loader/bin/targets/nrf52_my_sensor/app/libs/rust_app/libs_rust_app.a(app-5a5ad30fd2c694e7.druid-4e098a748cece73f.1b05q285c68j33x.rcgu.o.rcgu.o)
 .text._ZN4core3fmt3num50_$LT$impl$u20$core..fmt..Debug$u20$for$u20$i32$GT$3fmt17hd8208ee91cb156b3E
                0x000000000000e80a       0x58 /Users/Luppy/PineTime/pinetime-logo-loader/bin/targets/nrf52_my_sensor/app/libs/rust_app/libs_rust_app.a(app-5a5ad30fd2c694e7.druid-4e098a748cece73f.1b05q285c68j33x.rcgu.o.rcgu.o)
 .text._ZN4core3cmp5impls69_$LT$impl$u20$core..cmp..PartialEq$LT$$RF$B$GT$$u20$for$u20$$RF$A$GT$2eq17h952adb9b6c3d872fE
                0x000000000000e862       0x16 /Users/Luppy/PineTime/pinetime-logo-loader/bin/targets/nrf52_my_sensor/app/libs/rust_app/libs_rust_app.a(app-5a5ad30fd2c694e7.druid-4e098a748cece73f.1b05q285c68j33x.rcgu.o.rcgu.o)
 .text._ZN4core3cmp5impls53_$LT$impl$u20$core..cmp..PartialEq$u20$for$u20$u8$GT$2eq17ha3743c564b372730E
                0x000000000000e878       0x16 /Users/Luppy/PineTime/pinetime-logo-loader/bin/targets/nrf52_my_sensor/app/libs/rust_app/libs_rust_app.a(app-5a5ad30fd2c694e7.druid-4e098a748cece73f.1b05q285c68j33x.rcgu.o.rcgu.o)
 .text._ZN4core3fmt10ArgumentV13new17h0f4085504a1b1098E
                0x000000000000e88e       0x1a /Users/Luppy/PineTime/pinetime-logo-loader/bin/targets/nrf52_my_sensor/app/libs/rust_app/libs_rust_app.a(app-5a5ad30fd2c694e7.druid-4e098a748cece73f.1b05q285c68j33x.rcgu.o.rcgu.o)
 .text._ZN4core3fmt10ArgumentV13new17h1575782b8a915d72E
                0x000000000000e8a8       0x1a /Users/Luppy/PineTime/pinetime-logo-loader/bin/targets/nrf52_my_sensor/app/libs/rust_app/libs_rust_app.a(app-5a5ad30fd2c694e7.druid-4e098a748cece73f.1b05q285c68j33x.rcgu.o.rcgu.o)
 .text._ZN4core3fmt10ArgumentV13new17h21692bd39348b571E
                0x000000000000e8c2       0x1a /Users/Luppy/PineTime/pinetime-logo-loader/bin/targets/nrf52_my_sensor/app/libs/rust_app/libs_rust_app.a(app-5a5ad30fd2c694e7.druid-4e098a748cece73f.1b05q285c68j33x.rcgu.o.rcgu.o)
 .text._ZN4core3fmt10ArgumentV13new17h361b3a6929091f51E
                0x000000000000e8dc       0x1a /Users/Luppy/PineTime/pinetime-logo-loader/bin/targets/nrf52_my_sensor/app/libs/rust_app/libs_rust_app.a(app-5a5ad30fd2c694e7.druid-4e098a748cece73f.1b05q285c68j33x.rcgu.o.rcgu.o)
 .text._ZN8heapless3vec82_$LT$impl$u20$heapless..i..Vec$LT$generic_array..GenericArray$LT$T$C$N$GT$$GT$$GT$12as_mut_slice17h72220f6f323c5f22E
                0x000000000000e8f6       0x1e /Users/Luppy/PineTime/pinetime-logo-loader/bin/targets/nrf52_my_sensor/app/libs/rust_app/libs_rust_app.a(app-5a5ad30fd2c694e7.druid-4e098a748cece73f.1b05q285c68j33x.rcgu.o.rcgu.o)
 .text._ZN4core5slice18from_raw_parts_mut17hbc5b1f3624e506ceE
                0x000000000000e914       0x12 /Users/Luppy/PineTime/pinetime-logo-loader/bin/targets/nrf52_my_sensor/app/libs/rust_app/libs_rust_app.a(app-5a5ad30fd2c694e7.druid-4e098a748cece73f.1b05q285c68j33x.rcgu.o.rcgu.o)
 .text._ZN8heapless3vec82_$LT$impl$u20$heapless..i..Vec$LT$generic_array..GenericArray$LT$T$C$N$GT$$GT$$GT$12as_mut_slice17h76405c325b69f451E
                0x000000000000e926       0x1e /Users/Luppy/PineTime/pinetime-logo-loader/bin/targets/nrf52_my_sensor/app/libs/rust_app/libs_rust_app.a(app-5a5ad30fd2c694e7.druid-4e098a748cece73f.1b05q285c68j33x.rcgu.o.rcgu.o)
 .text._ZN4core3ptr5write17ha4d9c19b14fde3d5E
                0x000000000000e944       0x10 /Users/Luppy/PineTime/pinetime-logo-loader/bin/targets/nrf52_my_sensor/app/libs/rust_app/libs_rust_app.a(app-5a5ad30fd2c694e7.druid-4e098a748cece73f.1b05q285c68j33x.rcgu.o.rcgu.o)
 .text._ZN4core3ptr7mut_ptr31_$LT$impl$u20$$BP$mut$u20$T$GT$5write17h5f761ba684765d67E
                0x000000000000e954       0x18 /Users/Luppy/PineTime/pinetime-logo-loader/bin/targets/nrf52_my_sensor/app/libs/rust_app/libs_rust_app.a(app-5a5ad30fd2c694e7.druid-4e098a748cece73f.1b05q285c68j33x.rcgu.o.rcgu.o)
 .text._ZN4core3ptr7mut_ptr31_$LT$impl$u20$$BP$mut$u20$T$GT$7is_null17h2f34a28eb1c75da6E
                0x000000000000e96c        0xe /Users/Luppy/PineTime/pinetime-logo-loader/bin/targets/nrf52_my_sensor/app/libs/rust_app/libs_rust_app.a(app-5a5ad30fd2c694e7.druid-4e098a748cece73f.1b05q285c68j33x.rcgu.o.rcgu.o)
 .text._ZN4core5slice29_$LT$impl$u20$$u5b$T$u5d$$GT$10as_mut_ptr17h07f3f36858861bc1E
                0x000000000000e97a        0xa /Users/Luppy/PineTime/pinetime-logo-loader/bin/targets/nrf52_my_sensor/app/libs/rust_app/libs_rust_app.a(app-5a5ad30fd2c694e7.druid-4e098a748cece73f.1b05q285c68j33x.rcgu.o.rcgu.o)
 .text._ZN4core3fmt9Arguments6new_v117h22cb6c4e549ca72fE
                0x000000000000e984       0x3a /Users/Luppy/PineTime/pinetime-logo-loader/bin/targets/nrf52_my_sensor/app/libs/rust_app/libs_rust_app.a(app-5a5ad30fd2c694e7.druid-4e098a748cece73f.1b05q285c68j33x.rcgu.o.rcgu.o)
 .text._ZN4core5slice29_$LT$impl$u20$$u5b$T$u5d$$GT$4last17heac043b39c402d69E
                0x000000000000e9be       0x2a /Users/Luppy/PineTime/pinetime-logo-loader/bin/targets/nrf52_my_sensor/app/libs/rust_app/libs_rust_app.a(app-5a5ad30fd2c694e7.druid-4e098a748cece73f.1b05q285c68j33x.rcgu.o.rcgu.o)
 .text._ZN4core5slice29_$LT$impl$u20$$u5b$T$u5d$$GT$6as_ptr17h62a05f33d2a31bd0E
                0x000000000000e9e8        0xa /Users/Luppy/PineTime/pinetime-logo-loader/bin/targets/nrf52_my_sensor/app/libs/rust_app/libs_rust_app.a(app-5a5ad30fd2c694e7.druid-4e098a748cece73f.1b05q285c68j33x.rcgu.o.rcgu.o)
 .text._ZN4core5slice87_$LT$impl$u20$core..iter..traits..collect..IntoIterator$u20$for$u20$$RF$$u5b$T$u5d$$GT$9into_iter17h7d9e042738b8a7abE
                0x000000000000e9f2       0x12 /Users/Luppy/PineTime/pinetime-logo-loader/bin/targets/nrf52_my_sensor/app/libs/rust_app/libs_rust_app.a(app-5a5ad30fd2c694e7.druid-4e098a748cece73f.1b05q285c68j33x.rcgu.o.rcgu.o)
 .text._ZN4core6result19Result$LT$T$C$E$GT$5is_ok17hcfaca54f91404302E
                0x000000000000ea04       0x26 /Users/Luppy/PineTime/pinetime-logo-loader/bin/targets/nrf52_my_sensor/app/libs/rust_app/libs_rust_app.a(app-5a5ad30fd2c694e7.druid-4e098a748cece73f.1b05q285c68j33x.rcgu.o.rcgu.o)
 .text._ZN4core3ptr13drop_in_place17hcb63741675f1b06cE
                0x000000000000ea2a        0x8 /Users/Luppy/PineTime/pinetime-logo-loader/bin/targets/nrf52_my_sensor/app/libs/rust_app/libs_rust_app.a(app-5a5ad30fd2c694e7.druid-4e098a748cece73f.1b05q285c68j33x.rcgu.o.rcgu.o)
 .text._ZN64_$LT$mynewt..result..MynewtError$u20$as$u20$core..fmt..Debug$GT$3fmt17h90a3356d65339eb0E
                0x000000000000ea32        0xc /Users/Luppy/PineTime/pinetime-logo-loader/bin/targets/nrf52_my_sensor/app/libs/rust_app/libs_rust_app.a(app-5a5ad30fd2c694e7.druid-4e098a748cece73f.1b05q285c68j33x.rcgu.o.rcgu.o)
 .text._ZN4core6result19Result$LT$T$C$E$GT$6expect17he59d2ceeef1ea9b5E
                0x000000000000ea3e       0x3c /Users/Luppy/PineTime/pinetime-logo-loader/bin/targets/nrf52_my_sensor/app/libs/rust_app/libs_rust_app.a(app-5a5ad30fd2c694e7.druid-4e098a748cece73f.1b05q285c68j33x.rcgu.o.rcgu.o)
 .text._ZN4core6result19Result$LT$T$C$E$GT$6is_err17hd8adf04d539fc1e0E
                0x000000000000ea7a       0x14 /Users/Luppy/PineTime/pinetime-logo-loader/bin/targets/nrf52_my_sensor/app/libs/rust_app/libs_rust_app.a(app-5a5ad30fd2c694e7.druid-4e098a748cece73f.1b05q285c68j33x.rcgu.o.rcgu.o)
 .text._ZN50_$LT$T$u20$as$u20$core..convert..From$LT$T$GT$$GT$4from17heaf980bb816198f9E
                0x000000000000ea8e        0x8 /Users/Luppy/PineTime/pinetime-logo-loader/bin/targets/nrf52_my_sensor/app/libs/rust_app/libs_rust_app.a(app-5a5ad30fd2c694e7.druid-4e098a748cece73f.1b05q285c68j33x.rcgu.o.rcgu.o)
 .text._ZN70_$LT$core..option..Option$LT$T$GT$$u20$as$u20$core..cmp..PartialEq$GT$2eq17hcc7e35776c9369a6E
                0x000000000000ea96       0x92 /Users/Luppy/PineTime/pinetime-logo-loader/bin/targets/nrf52_my_sensor/app/libs/rust_app/libs_rust_app.a(app-5a5ad30fd2c694e7.druid-4e098a748cece73f.1b05q285c68j33x.rcgu.o.rcgu.o)
 .text._ZN73_$LT$core..result..Result$LT$T$C$E$GT$$u20$as$u20$core..ops..try..Try$GT$10from_error17h6b01a5bcdfd5594bE
                0x000000000000eb28        0xc /Users/Luppy/PineTime/pinetime-logo-loader/bin/targets/nrf52_my_sensor/app/libs/rust_app/libs_rust_app.a(app-5a5ad30fd2c694e7.druid-4e098a748cece73f.1b05q285c68j33x.rcgu.o.rcgu.o)
 .text._ZN73_$LT$core..result..Result$LT$T$C$E$GT$$u20$as$u20$core..ops..try..Try$GT$11into_result17h0f9ce2599d7e7550E
                0x000000000000eb34        0x8 /Users/Luppy/PineTime/pinetime-logo-loader/bin/targets/nrf52_my_sensor/app/libs/rust_app/libs_rust_app.a(app-5a5ad30fd2c694e7.druid-4e098a748cece73f.1b05q285c68j33x.rcgu.o.rcgu.o)
 .text._ZN73_$LT$core..result..Result$LT$T$C$E$GT$$u20$as$u20$core..ops..try..Try$GT$11into_result17h7943f6d6628953d4E
                0x000000000000eb3c        0xc /Users/Luppy/PineTime/pinetime-logo-loader/bin/targets/nrf52_my_sensor/app/libs/rust_app/libs_rust_app.a(app-5a5ad30fd2c694e7.druid-4e098a748cece73f.1b05q285c68j33x.rcgu.o.rcgu.o)
 .text._ZN75_$LT$heapless..vec..Vec$LT$T$C$N$GT$$u20$as$u20$core..ops..deref..Deref$GT$5deref17hc7b1de3f491e01a8E
                0x000000000000eb48       0x10 /Users/Luppy/PineTime/pinetime-logo-loader/bin/targets/nrf52_my_sensor/app/libs/rust_app/libs_rust_app.a(app-5a5ad30fd2c694e7.druid-4e098a748cece73f.1b05q285c68j33x.rcgu.o.rcgu.o)
 .text._ZN8heapless3vec82_$LT$impl$u20$heapless..i..Vec$LT$generic_array..GenericArray$LT$T$C$N$GT$$GT$$GT$8as_slice17h46fb2e4f8c26a048E
                0x000000000000eb58       0x1e /Users/Luppy/PineTime/pinetime-logo-loader/bin/targets/nrf52_my_sensor/app/libs/rust_app/libs_rust_app.a(app-5a5ad30fd2c694e7.druid-4e098a748cece73f.1b05q285c68j33x.rcgu.o.rcgu.o)
 .text._ZN75_$LT$heapless..vec..Vec$LT$T$C$N$GT$$u20$as$u20$core..ops..deref..Deref$GT$5deref17he66ff0ed55b2281fE
                0x000000000000eb76       0x10 /Users/Luppy/PineTime/pinetime-logo-loader/bin/targets/nrf52_my_sensor/app/libs/rust_app/libs_rust_app.a(app-5a5ad30fd2c694e7.druid-4e098a748cece73f.1b05q285c68j33x.rcgu.o.rcgu.o)
 .text._ZN8heapless3vec82_$LT$impl$u20$heapless..i..Vec$LT$generic_array..GenericArray$LT$T$C$N$GT$$GT$$GT$8as_slice17h992955aed749dcdaE
                0x000000000000eb86       0x1e /Users/Luppy/PineTime/pinetime-logo-loader/bin/targets/nrf52_my_sensor/app/libs/rust_app/libs_rust_app.a(app-5a5ad30fd2c694e7.druid-4e098a748cece73f.1b05q285c68j33x.rcgu.o.rcgu.o)
 .text._ZN85_$LT$typenum..uint..UInt$LT$U$C$B$GT$$u20$as$u20$typenum..marker_traits..Unsigned$GT$8to_usize17h0d6d2068a2ff5c1aE
                0x000000000000eba4       0x1e /Users/Luppy/PineTime/pinetime-logo-loader/bin/targets/nrf52_my_sensor/app/libs/rust_app/libs_rust_app.a(app-5a5ad30fd2c694e7.druid-4e098a748cece73f.1b05q285c68j33x.rcgu.o.rcgu.o)
 .text._ZN64_$LT$typenum..bit..B0$u20$as$u20$typenum..marker_traits..Bit$GT$5to_u817hbe96fc7cb809251eE
                0x000000000000ebc2        0x4 /Users/Luppy/PineTime/pinetime-logo-loader/bin/targets/nrf52_my_sensor/app/libs/rust_app/libs_rust_app.a(app-5a5ad30fd2c694e7.druid-4e098a748cece73f.1b05q285c68j33x.rcgu.o.rcgu.o)
 .text._ZN4core7convert3num65_$LT$impl$u20$core..convert..From$LT$u8$GT$$u20$for$u20$usize$GT$4from17hcfde1a67d9fa66b5E
                0x000000000000ebc6        0xe /Users/Luppy/PineTime/pinetime-logo-loader/bin/targets/nrf52_my_sensor/app/libs/rust_app/libs_rust_app.a(app-5a5ad30fd2c694e7.druid-4e098a748cece73f.1b05q285c68j33x.rcgu.o.rcgu.o)
 .text._ZN85_$LT$typenum..uint..UInt$LT$U$C$B$GT$$u20$as$u20$typenum..marker_traits..Unsigned$GT$8to_usize17hece3856737c6af2aE
                0x000000000000ebd4       0x1e /Users/Luppy/PineTime/pinetime-logo-loader/bin/targets/nrf52_my_sensor/app/libs/rust_app/libs_rust_app.a(app-5a5ad30fd2c694e7.druid-4e098a748cece73f.1b05q285c68j33x.rcgu.o.rcgu.o)
 .text._ZN85_$LT$typenum..uint..UInt$LT$U$C$B$GT$$u20$as$u20$typenum..marker_traits..Unsigned$GT$8to_usize17h612612c2e4c5eaf8E
                0x000000000000ebf2       0x1e /Users/Luppy/PineTime/pinetime-logo-loader/bin/targets/nrf52_my_sensor/app/libs/rust_app/libs_rust_app.a(app-5a5ad30fd2c694e7.druid-4e098a748cece73f.1b05q285c68j33x.rcgu.o.rcgu.o)
 .text._ZN85_$LT$typenum..uint..UInt$LT$U$C$B$GT$$u20$as$u20$typenum..marker_traits..Unsigned$GT$8to_usize17h4573383ed2edb3d2E
                0x000000000000ec10       0x1e /Users/Luppy/PineTime/pinetime-logo-loader/bin/targets/nrf52_my_sensor/app/libs/rust_app/libs_rust_app.a(app-5a5ad30fd2c694e7.druid-4e098a748cece73f.1b05q285c68j33x.rcgu.o.rcgu.o)
 .text._ZN85_$LT$typenum..uint..UInt$LT$U$C$B$GT$$u20$as$u20$typenum..marker_traits..Unsigned$GT$8to_usize17h2637a307b03b6aa3E
                0x000000000000ec2e       0x1e /Users/Luppy/PineTime/pinetime-logo-loader/bin/targets/nrf52_my_sensor/app/libs/rust_app/libs_rust_app.a(app-5a5ad30fd2c694e7.druid-4e098a748cece73f.1b05q285c68j33x.rcgu.o.rcgu.o)
 .text._ZN85_$LT$typenum..uint..UInt$LT$U$C$B$GT$$u20$as$u20$typenum..marker_traits..Unsigned$GT$8to_usize17h499501dec0c7f972E
                0x000000000000ec4c       0x1e /Users/Luppy/PineTime/pinetime-logo-loader/bin/targets/nrf52_my_sensor/app/libs/rust_app/libs_rust_app.a(app-5a5ad30fd2c694e7.druid-4e098a748cece73f.1b05q285c68j33x.rcgu.o.rcgu.o)
 .text._ZN64_$LT$typenum..bit..B1$u20$as$u20$typenum..marker_traits..Bit$GT$5to_u817hf7f42dccb9ad1957E
                0x000000000000ec6a        0x4 /Users/Luppy/PineTime/pinetime-logo-loader/bin/targets/nrf52_my_sensor/app/libs/rust_app/libs_rust_app.a(app-5a5ad30fd2c694e7.druid-4e098a748cece73f.1b05q285c68j33x.rcgu.o.rcgu.o)
 .text._ZN73_$LT$typenum..uint..UTerm$u20$as$u20$typenum..marker_traits..Unsigned$GT$8to_usize17h07f816782e28c733E
                0x000000000000ec6e        0x4 /Users/Luppy/PineTime/pinetime-logo-loader/bin/targets/nrf52_my_sensor/app/libs/rust_app/libs_rust_app.a(app-5a5ad30fd2c694e7.druid-4e098a748cece73f.1b05q285c68j33x.rcgu.o.rcgu.o)
 .text._ZN85_$LT$typenum..uint..UInt$LT$U$C$B$GT$$u20$as$u20$typenum..marker_traits..Unsigned$GT$8to_usize17h355efcfd633c61a8E
                0x000000000000ec72       0x1e /Users/Luppy/PineTime/pinetime-logo-loader/bin/targets/nrf52_my_sensor/app/libs/rust_app/libs_rust_app.a(app-5a5ad30fd2c694e7.druid-4e098a748cece73f.1b05q285c68j33x.rcgu.o.rcgu.o)
 .text._ZN85_$LT$typenum..uint..UInt$LT$U$C$B$GT$$u20$as$u20$typenum..marker_traits..Unsigned$GT$8to_usize17h5ba2971b435f4c7eE
                0x000000000000ec90       0x1e /Users/Luppy/PineTime/pinetime-logo-loader/bin/targets/nrf52_my_sensor/app/libs/rust_app/libs_rust_app.a(app-5a5ad30fd2c694e7.druid-4e098a748cece73f.1b05q285c68j33x.rcgu.o.rcgu.o)
 .text._ZN85_$LT$typenum..uint..UInt$LT$U$C$B$GT$$u20$as$u20$typenum..marker_traits..Unsigned$GT$8to_usize17haf3326a8677663e0E
                0x000000000000ecae       0x1e /Users/Luppy/PineTime/pinetime-logo-loader/bin/targets/nrf52_my_sensor/app/libs/rust_app/libs_rust_app.a(app-5a5ad30fd2c694e7.druid-4e098a748cece73f.1b05q285c68j33x.rcgu.o.rcgu.o)
 .text._ZN85_$LT$typenum..uint..UInt$LT$U$C$B$GT$$u20$as$u20$typenum..marker_traits..Unsigned$GT$8to_usize17hc98db69805520f4bE
                0x000000000000eccc       0x1e /Users/Luppy/PineTime/pinetime-logo-loader/bin/targets/nrf52_my_sensor/app/libs/rust_app/libs_rust_app.a(app-5a5ad30fd2c694e7.druid-4e098a748cece73f.1b05q285c68j33x.rcgu.o.rcgu.o)
 .text._ZN85_$LT$typenum..uint..UInt$LT$U$C$B$GT$$u20$as$u20$typenum..marker_traits..Unsigned$GT$8to_usize17h61347deafe9029ccE
                0x000000000000ecea       0x1e /Users/Luppy/PineTime/pinetime-logo-loader/bin/targets/nrf52_my_sensor/app/libs/rust_app/libs_rust_app.a(app-5a5ad30fd2c694e7.druid-4e098a748cece73f.1b05q285c68j33x.rcgu.o.rcgu.o)
 .text._ZN85_$LT$typenum..uint..UInt$LT$U$C$B$GT$$u20$as$u20$typenum..marker_traits..Unsigned$GT$8to_usize17h63030b74daeefbc5E
                0x000000000000ed08       0x1e /Users/Luppy/PineTime/pinetime-logo-loader/bin/targets/nrf52_my_sensor/app/libs/rust_app/libs_rust_app.a(app-5a5ad30fd2c694e7.druid-4e098a748cece73f.1b05q285c68j33x.rcgu.o.rcgu.o)
 .text._ZN85_$LT$typenum..uint..UInt$LT$U$C$B$GT$$u20$as$u20$typenum..marker_traits..Unsigned$GT$8to_usize17h669025222a0ccc90E
                0x000000000000ed26       0x1e /Users/Luppy/PineTime/pinetime-logo-loader/bin/targets/nrf52_my_sensor/app/libs/rust_app/libs_rust_app.a(app-5a5ad30fd2c694e7.druid-4e098a748cece73f.1b05q285c68j33x.rcgu.o.rcgu.o)
 .text._ZN85_$LT$typenum..uint..UInt$LT$U$C$B$GT$$u20$as$u20$typenum..marker_traits..Unsigned$GT$8to_usize17h7ae2b62c2722e113E
                0x000000000000ed44       0x1e /Users/Luppy/PineTime/pinetime-logo-loader/bin/targets/nrf52_my_sensor/app/libs/rust_app/libs_rust_app.a(app-5a5ad30fd2c694e7.druid-4e098a748cece73f.1b05q285c68j33x.rcgu.o.rcgu.o)
 .text._ZN8heapless3vec16Vec$LT$T$C$N$GT$17extend_from_slice17h862f733761635ff9E
                0x000000000000ed62       0x14 /Users/Luppy/PineTime/pinetime-logo-loader/bin/targets/nrf52_my_sensor/app/libs/rust_app/libs_rust_app.a(app-5a5ad30fd2c694e7.druid-4e098a748cece73f.1b05q285c68j33x.rcgu.o.rcgu.o)
 .text._ZN8heapless3vec82_$LT$impl$u20$heapless..i..Vec$LT$generic_array..GenericArray$LT$T$C$N$GT$$GT$$GT$17extend_from_slice17h64c02ba4fffcb279E
                0x000000000000ed76       0xa2 /Users/Luppy/PineTime/pinetime-logo-loader/bin/targets/nrf52_my_sensor/app/libs/rust_app/libs_rust_app.a(app-5a5ad30fd2c694e7.druid-4e098a748cece73f.1b05q285c68j33x.rcgu.o.rcgu.o)
 .text._ZN8heapless3vec82_$LT$impl$u20$heapless..i..Vec$LT$generic_array..GenericArray$LT$T$C$N$GT$$GT$$GT$8capacity17h1f64d4fab943c45aE
                0x000000000000ee18       0x10 /Users/Luppy/PineTime/pinetime-logo-loader/bin/targets/nrf52_my_sensor/app/libs/rust_app/libs_rust_app.a(app-5a5ad30fd2c694e7.druid-4e098a748cece73f.1b05q285c68j33x.rcgu.o.rcgu.o)
 .text._ZN4core5clone5impls51_$LT$impl$u20$core..clone..Clone$u20$for$u20$u8$GT$5clone17h857c2feddee24fe4E
                0x000000000000ee28        0xa /Users/Luppy/PineTime/pinetime-logo-loader/bin/targets/nrf52_my_sensor/app/libs/rust_app/libs_rust_app.a(app-5a5ad30fd2c694e7.druid-4e098a748cece73f.1b05q285c68j33x.rcgu.o.rcgu.o)
 .text._ZN8heapless3vec82_$LT$impl$u20$heapless..i..Vec$LT$generic_array..GenericArray$LT$T$C$N$GT$$GT$$GT$14push_unchecked17hd2efd2672e14761fE
                0x000000000000ee32       0x5e /Users/Luppy/PineTime/pinetime-logo-loader/bin/targets/nrf52_my_sensor/app/libs/rust_app/libs_rust_app.a(app-5a5ad30fd2c694e7.druid-4e098a748cece73f.1b05q285c68j33x.rcgu.o.rcgu.o)
 .text._ZN8heapless3vec16Vec$LT$T$C$N$GT$4push17hf3639b43c4fef802E
                0x000000000000ee90       0x1c /Users/Luppy/PineTime/pinetime-logo-loader/bin/targets/nrf52_my_sensor/app/libs/rust_app/libs_rust_app.a(app-5a5ad30fd2c694e7.druid-4e098a748cece73f.1b05q285c68j33x.rcgu.o.rcgu.o)
 .text._ZN8heapless3vec82_$LT$impl$u20$heapless..i..Vec$LT$generic_array..GenericArray$LT$T$C$N$GT$$GT$$GT$4push17h4696e6c87666c0a5E
                0x000000000000eeac       0x4c /Users/Luppy/PineTime/pinetime-logo-loader/bin/targets/nrf52_my_sensor/app/libs/rust_app/libs_rust_app.a(app-5a5ad30fd2c694e7.druid-4e098a748cece73f.1b05q285c68j33x.rcgu.o.rcgu.o)
 .text._ZN8heapless3vec82_$LT$impl$u20$heapless..i..Vec$LT$generic_array..GenericArray$LT$T$C$N$GT$$GT$$GT$8capacity17hbda86d33d123c63eE
                0x000000000000eef8       0x10 /Users/Luppy/PineTime/pinetime-logo-loader/bin/targets/nrf52_my_sensor/app/libs/rust_app/libs_rust_app.a(app-5a5ad30fd2c694e7.druid-4e098a748cece73f.1b05q285c68j33x.rcgu.o.rcgu.o)
 .text._ZN8heapless3vec82_$LT$impl$u20$heapless..i..Vec$LT$generic_array..GenericArray$LT$T$C$N$GT$$GT$$GT$14push_unchecked17h863a0c4445096a6bE
                0x000000000000ef08       0x5e /Users/Luppy/PineTime/pinetime-logo-loader/bin/targets/nrf52_my_sensor/app/libs/rust_app/libs_rust_app.a(app-5a5ad30fd2c694e7.druid-4e098a748cece73f.1b05q285c68j33x.rcgu.o.rcgu.o)
 .text._ZN8heapless3vec16Vec$LT$T$C$N$GT$5clear17h2e7d8108f8698c01E
                0x000000000000ef66       0x10 /Users/Luppy/PineTime/pinetime-logo-loader/bin/targets/nrf52_my_sensor/app/libs/rust_app/libs_rust_app.a(app-5a5ad30fd2c694e7.druid-4e098a748cece73f.1b05q285c68j33x.rcgu.o.rcgu.o)
 .text._ZN8heapless3vec82_$LT$impl$u20$heapless..i..Vec$LT$generic_array..GenericArray$LT$T$C$N$GT$$GT$$GT$5clear17h3f6214c475223836E
                0x000000000000ef76       0x12 /Users/Luppy/PineTime/pinetime-logo-loader/bin/targets/nrf52_my_sensor/app/libs/rust_app/libs_rust_app.a(app-5a5ad30fd2c694e7.druid-4e098a748cece73f.1b05q285c68j33x.rcgu.o.rcgu.o)
 .text._ZN8heapless3vec82_$LT$impl$u20$heapless..i..Vec$LT$generic_array..GenericArray$LT$T$C$N$GT$$GT$$GT$8truncate17he326ece327740ab4E
                0x000000000000ef88       0x60 /Users/Luppy/PineTime/pinetime-logo-loader/bin/targets/nrf52_my_sensor/app/libs/rust_app/libs_rust_app.a(app-5a5ad30fd2c694e7.druid-4e098a748cece73f.1b05q285c68j33x.rcgu.o.rcgu.o)
 .text._ZN8heapless3vec16Vec$LT$T$C$N$GT$5clear17hd9c32dae2266bb34E
                0x000000000000efe8       0x10 /Users/Luppy/PineTime/pinetime-logo-loader/bin/targets/nrf52_my_sensor/app/libs/rust_app/libs_rust_app.a(app-5a5ad30fd2c694e7.druid-4e098a748cece73f.1b05q285c68j33x.rcgu.o.rcgu.o)
 .text._ZN8heapless3vec82_$LT$impl$u20$heapless..i..Vec$LT$generic_array..GenericArray$LT$T$C$N$GT$$GT$$GT$5clear17h0abd33691a008faeE
                0x000000000000eff8       0x12 /Users/Luppy/PineTime/pinetime-logo-loader/bin/targets/nrf52_my_sensor/app/libs/rust_app/libs_rust_app.a(app-5a5ad30fd2c694e7.druid-4e098a748cece73f.1b05q285c68j33x.rcgu.o.rcgu.o)
 .text._ZN8heapless3vec82_$LT$impl$u20$heapless..i..Vec$LT$generic_array..GenericArray$LT$T$C$N$GT$$GT$$GT$8truncate17h473ed59468c3f713E
                0x000000000000f00a       0x60 /Users/Luppy/PineTime/pinetime-logo-loader/bin/targets/nrf52_my_sensor/app/libs/rust_app/libs_rust_app.a(app-5a5ad30fd2c694e7.druid-4e098a748cece73f.1b05q285c68j33x.rcgu.o.rcgu.o)
 .text._ZN8heapless3vec16Vec$LT$T$C$N$GT$8capacity17h1da7ad2cefb78f50E
                0x000000000000f06a       0x10 /Users/Luppy/PineTime/pinetime-logo-loader/bin/targets/nrf52_my_sensor/app/libs/rust_app/libs_rust_app.a(app-5a5ad30fd2c694e7.druid-4e098a748cece73f.1b05q285c68j33x.rcgu.o.rcgu.o)
 .text._ZN6mynewt4Strn8validate17h4269860e85aa4307E
                0x000000000000f07a      0x13a /Users/Luppy/PineTime/pinetime-logo-loader/bin/targets/nrf52_my_sensor/app/libs/rust_app/libs_rust_app.a(app-5a5ad30fd2c694e7.druid-4e098a748cece73f.1b05q285c68j33x.rcgu.o.rcgu.o)
 .text._ZN6mynewt4Strn6as_ptr17h37736ef5db505117E
                0x000000000000f1b4       0x3a /Users/Luppy/PineTime/pinetime-logo-loader/bin/targets/nrf52_my_sensor/app/libs/rust_app/libs_rust_app.a(app-5a5ad30fd2c694e7.druid-4e098a748cece73f.1b05q285c68j33x.rcgu.o.rcgu.o)
 .text._ZN6mynewt3sys7console5print17h8be62a44502a4eacE
                0x000000000000f1ee       0x3c /Users/Luppy/PineTime/pinetime-logo-loader/bin/targets/nrf52_my_sensor/app/libs/rust_app/libs_rust_app.a(app-5a5ad30fd2c694e7.druid-4e098a748cece73f.1b05q285c68j33x.rcgu.o.rcgu.o)
 .text._ZN4core3str21_$LT$impl$u20$str$GT$6as_ptr17hb394c60595617fa7E
                0x000000000000f22a        0xa /Users/Luppy/PineTime/pinetime-logo-loader/bin/targets/nrf52_my_sensor/app/libs/rust_app/libs_rust_app.a(app-5a5ad30fd2c694e7.druid-4e098a748cece73f.1b05q285c68j33x.rcgu.o.rcgu.o)
 .text._ZN4core3str21_$LT$impl$u20$str$GT$3len17h560260be2559aa8bE
                0x000000000000f234       0x1e /Users/Luppy/PineTime/pinetime-logo-loader/bin/targets/nrf52_my_sensor/app/libs/rust_app/libs_rust_app.a(app-5a5ad30fd2c694e7.druid-4e098a748cece73f.1b05q285c68j33x.rcgu.o.rcgu.o)
 .text._ZN6mynewt3sys7console20get_dispatch_address17hb3df3f67a3c49f7bE
                0x000000000000f252        0xa /Users/Luppy/PineTime/pinetime-logo-loader/bin/targets/nrf52_my_sensor/app/libs/rust_app/libs_rust_app.a(app-5a5ad30fd2c694e7.druid-4e098a748cece73f.1b05q285c68j33x.rcgu.o.rcgu.o)
 .text._ZN6mynewt3sys7console6buffer17h90810504e4c12f2aE
                0x000000000000f25c       0x2e /Users/Luppy/PineTime/pinetime-logo-loader/bin/targets/nrf52_my_sensor/app/libs/rust_app/libs_rust_app.a(app-5a5ad30fd2c694e7.druid-4e098a748cece73f.1b05q285c68j33x.rcgu.o.rcgu.o)
 .text._ZN6mynewt3sys7console8printint17h8f419e41d1f5db21E
                0x000000000000f28a       0x10 /Users/Luppy/PineTime/pinetime-logo-loader/bin/targets/nrf52_my_sensor/app/libs/rust_app/libs_rust_app.a(app-5a5ad30fd2c694e7.druid-4e098a748cece73f.1b05q285c68j33x.rcgu.o.rcgu.o)
 .text._ZN6mynewt3sys7console5flush17h065e2f169ef8a759E
                0x000000000000f29a        0xa /Users/Luppy/PineTime/pinetime-logo-loader/bin/targets/nrf52_my_sensor/app/libs/rust_app/libs_rust_app.a(app-5a5ad30fd2c694e7.druid-4e098a748cece73f.1b05q285c68j33x.rcgu.o.rcgu.o)
 .text._ZN6mynewt3hal3SPI3new17hd23e090befa156d4E
                0x000000000000f2a4       0x10 /Users/Luppy/PineTime/pinetime-logo-loader/bin/targets/nrf52_my_sensor/app/libs/rust_app/libs_rust_app.a(app-5a5ad30fd2c694e7.druid-4e098a748cece73f.1b05q285c68j33x.rcgu.o.rcgu.o)
 .text._ZN6mynewt3hal3SPI4init17h9fdfd16254ce2593E
                0x000000000000f2b4      0x46a /Users/Luppy/PineTime/pinetime-logo-loader/bin/targets/nrf52_my_sensor/app/libs/rust_app/libs_rust_app.a(app-5a5ad30fd2c694e7.druid-4e098a748cece73f.1b05q285c68j33x.rcgu.o.rcgu.o)
 .text._ZN6mynewt3hal4GPIO3new17h8dfa83be58b07275E
                0x000000000000f71e        0x4 /Users/Luppy/PineTime/pinetime-logo-loader/bin/targets/nrf52_my_sensor/app/libs/rust_app/libs_rust_app.a(app-5a5ad30fd2c694e7.druid-4e098a748cece73f.1b05q285c68j33x.rcgu.o.rcgu.o)
 .text._ZN6mynewt3hal4GPIO4init17h00e6741aee679affE
                0x000000000000f722      0x12c /Users/Luppy/PineTime/pinetime-logo-loader/bin/targets/nrf52_my_sensor/app/libs/rust_app/libs_rust_app.a(app-5a5ad30fd2c694e7.druid-4e098a748cece73f.1b05q285c68j33x.rcgu.o.rcgu.o)
 .text._ZN74_$LT$mynewt..hal..GPIO$u20$as$u20$embedded_hal..digital..v2..OutputPin$GT$7set_low17h005f8b9f5798f7b1E
                0x000000000000f84e       0x16 /Users/Luppy/PineTime/pinetime-logo-loader/bin/targets/nrf52_my_sensor/app/libs/rust_app/libs_rust_app.a(app-5a5ad30fd2c694e7.druid-4e098a748cece73f.1b05q285c68j33x.rcgu.o.rcgu.o)
 .text._ZN74_$LT$mynewt..hal..GPIO$u20$as$u20$embedded_hal..digital..v2..OutputPin$GT$8set_high17h6249ec265f31751cE
                0x000000000000f864       0x18 /Users/Luppy/PineTime/pinetime-logo-loader/bin/targets/nrf52_my_sensor/app/libs/rust_app/libs_rust_app.a(app-5a5ad30fd2c694e7.druid-4e098a748cece73f.1b05q285c68j33x.rcgu.o.rcgu.o)
 .text._ZN6mynewt3hal5Delay3new17h07c34b2e60365b63E
                0x000000000000f87c        0x2 /Users/Luppy/PineTime/pinetime-logo-loader/bin/targets/nrf52_my_sensor/app/libs/rust_app/libs_rust_app.a(app-5a5ad30fd2c694e7.druid-4e098a748cece73f.1b05q285c68j33x.rcgu.o.rcgu.o)
 .text._ZN87_$LT$mynewt..hal..Delay$u20$as$u20$embedded_hal..blocking..delay..DelayMs$LT$u8$GT$$GT$8delay_ms17h5e3dc61524b357a2E
                0x000000000000f87e       0x56 /Users/Luppy/PineTime/pinetime-logo-loader/bin/targets/nrf52_my_sensor/app/libs/rust_app/libs_rust_app.a(app-5a5ad30fd2c694e7.druid-4e098a748cece73f.1b05q285c68j33x.rcgu.o.rcgu.o)
 .text._ZN6mynewt3spi16spi_noblock_init17h7a8d2ca3e92450dbE
                0x000000000000f8d4      0xa3e /Users/Luppy/PineTime/pinetime-logo-loader/bin/targets/nrf52_my_sensor/app/libs/rust_app/libs_rust_app.a(app-5a5ad30fd2c694e7.druid-4e098a748cece73f.1b05q285c68j33x.rcgu.o.rcgu.o)
 .text._ZN6mynewt3spi19spi_noblock_handler17h7993f57ecbf1a56aE
                0x0000000000010312      0x122 /Users/Luppy/PineTime/pinetime-logo-loader/bin/targets/nrf52_my_sensor/app/libs/rust_app/libs_rust_app.a(app-5a5ad30fd2c694e7.druid-4e098a748cece73f.1b05q285c68j33x.rcgu.o.rcgu.o)
 .text._ZN6mynewt3spi18spi_event_callback17hcbb04fe29b86fd24E
                0x0000000000010434      0x2a0 /Users/Luppy/PineTime/pinetime-logo-loader/bin/targets/nrf52_my_sensor/app/libs/rust_app/libs_rust_app.a(app-5a5ad30fd2c694e7.druid-4e098a748cece73f.1b05q285c68j33x.rcgu.o.rcgu.o)
 .text._ZN6mynewt3spi13spi_task_func17hd625363549bff497E
                0x00000000000106d4       0x32 /Users/Luppy/PineTime/pinetime-logo-loader/bin/targets/nrf52_my_sensor/app/libs/rust_app/libs_rust_app.a(app-5a5ad30fd2c694e7.druid-4e098a748cece73f.1b05q285c68j33x.rcgu.o.rcgu.o)
 .text._ZN6mynewt6kernel2os9task_init17h1c9fbbd8f15bda09E
                0x0000000000010706       0xa6 /Users/Luppy/PineTime/pinetime-logo-loader/bin/targets/nrf52_my_sensor/app/libs/rust_app/libs_rust_app.a(app-5a5ad30fd2c694e7.druid-4e098a748cece73f.1b05q285c68j33x.rcgu.o.rcgu.o)
 .text._ZN78_$LT$mynewt..result..MynewtError$u20$as$u20$core..convert..From$LT$i32$GT$$GT$4from17h984ada7f54c29133E
                0x00000000000107ac        0xc /Users/Luppy/PineTime/pinetime-logo-loader/bin/targets/nrf52_my_sensor/app/libs/rust_app/libs_rust_app.a(app-5a5ad30fd2c694e7.druid-4e098a748cece73f.1b05q285c68j33x.rcgu.o.rcgu.o)
 .text._ZN6mynewt6kernel2os10eventq_run17h955e21e85ff3e9d9E
                0x00000000000107b8       0x12 /Users/Luppy/PineTime/pinetime-logo-loader/bin/targets/nrf52_my_sensor/app/libs/rust_app/libs_rust_app.a(app-5a5ad30fd2c694e7.druid-4e098a748cece73f.1b05q285c68j33x.rcgu.o.rcgu.o)
 .text._ZN6mynewt3spi26internal_spi_noblock_write17hff3b2e83acee3e25E
                0x00000000000107ca      0x2d4 /Users/Luppy/PineTime/pinetime-logo-loader/bin/targets/nrf52_my_sensor/app/libs/rust_app/libs_rust_app.a(app-5a5ad30fd2c694e7.druid-4e098a748cece73f.1b05q285c68j33x.rcgu.o.rcgu.o)
 .text._ZN6mynewt3spi8delay_ms17hb8a969dda870485cE
                0x0000000000010a9e       0x54 /Users/Luppy/PineTime/pinetime-logo-loader/bin/targets/nrf52_my_sensor/app/libs/rust_app/libs_rust_app.a(app-5a5ad30fd2c694e7.druid-4e098a748cece73f.1b05q285c68j33x.rcgu.o.rcgu.o)
 .text._ZN6mynewt3spi25spi_noblock_write_command17h85d829dfe5246a84E
                0x0000000000010af2       0x6e /Users/Luppy/PineTime/pinetime-logo-loader/bin/targets/nrf52_my_sensor/app/libs/rust_app/libs_rust_app.a(app-5a5ad30fd2c694e7.druid-4e098a748cece73f.1b05q285c68j33x.rcgu.o.rcgu.o)
 .text._ZN6mynewt3spi23spi_noblock_write_flush17h614814e747f439b9E
                0x0000000000010b60       0xf8 /Users/Luppy/PineTime/pinetime-logo-loader/bin/targets/nrf52_my_sensor/app/libs/rust_app/libs_rust_app.a(app-5a5ad30fd2c694e7.druid-4e098a748cece73f.1b05q285c68j33x.rcgu.o.rcgu.o)
 .text._ZN6mynewt3spi17spi_noblock_write17h3ece30dfd84e90e9E
                0x0000000000010c58      0x160 /Users/Luppy/PineTime/pinetime-logo-loader/bin/targets/nrf52_my_sensor/app/libs/rust_app/libs_rust_app.a(app-5a5ad30fd2c694e7.druid-4e098a748cece73f.1b05q285c68j33x.rcgu.o.rcgu.o)
 .text._ZN6mynewt3spi22spi_noblock_write_data17he75d77fb35937406E
                0x0000000000010db8       0xec /Users/Luppy/PineTime/pinetime-logo-loader/bin/targets/nrf52_my_sensor/app/libs/rust_app/libs_rust_app.a(app-5a5ad30fd2c694e7.druid-4e098a748cece73f.1b05q285c68j33x.rcgu.o.rcgu.o)
 .text._ZN83_$LT$mynewt..result..MynewtError$u20$as$u20$core..convert..From$LT$$LP$$RP$$GT$$GT$4from17h6d56dbd6d500d4ecE
                0x0000000000010ea4        0xa /Users/Luppy/PineTime/pinetime-logo-loader/bin/targets/nrf52_my_sensor/app/libs/rust_app/libs_rust_app.a(app-5a5ad30fd2c694e7.druid-4e098a748cece73f.1b05q285c68j33x.rcgu.o.rcgu.o)
 .text._ZN6mynewt7sysinit17h1d272af2dcfda346E
                0x0000000000010eae        0xe /Users/Luppy/PineTime/pinetime-logo-loader/bin/targets/nrf52_my_sensor/app/libs/rust_app/libs_rust_app.a(app-5a5ad30fd2c694e7.druid-4e098a748cece73f.1b05q285c68j33x.rcgu.o.rcgu.o)
 .text._ZN6mynewt6kernel2os15eventq_dflt_get17h9a59474d7025d53aE
                0x0000000000010ebc       0x1a /Users/Luppy/PineTime/pinetime-logo-loader/bin/targets/nrf52_my_sensor/app/libs/rust_app/libs_rust_app.a(app-5a5ad30fd2c694e7.druid-4e098a748cece73f.1b05q285c68j33x.rcgu.o.rcgu.o)
 .text._ZN4core3ptr7mut_ptr31_$LT$impl$u20$$BP$mut$u20$T$GT$6offset17h39539c55a4c5e637E
                0x0000000000010ed6       0x10 /Users/Luppy/PineTime/pinetime-logo-loader/bin/targets/nrf52_my_sensor/app/libs/rust_app/libs_rust_app.a(app-5a5ad30fd2c694e7.druid-4e098a748cece73f.1b05q285c68j33x.rcgu.o.rcgu.o)
 .text._ZN4core3ptr7mut_ptr31_$LT$impl$u20$$BP$mut$u20$T$GT$7is_null17h36741275c7db9557E
                0x0000000000010ee6        0xe /Users/Luppy/PineTime/pinetime-logo-loader/bin/targets/nrf52_my_sensor/app/libs/rust_app/libs_rust_app.a(app-5a5ad30fd2c694e7.druid-4e098a748cece73f.1b05q285c68j33x.rcgu.o.rcgu.o)
 .text._ZN4core3ptr8non_null16NonNull$LT$T$GT$13new_unchecked17hb3130f27148d778cE
                0x0000000000010ef4        0xc /Users/Luppy/PineTime/pinetime-logo-loader/bin/targets/nrf52_my_sensor/app/libs/rust_app/libs_rust_app.a(app-5a5ad30fd2c694e7.druid-4e098a748cece73f.1b05q285c68j33x.rcgu.o.rcgu.o)
 .text._ZN4core3ptr8non_null16NonNull$LT$T$GT$6as_ptr17h64238471cac10daaE
                0x0000000000010f00        0x8 /Users/Luppy/PineTime/pinetime-logo-loader/bin/targets/nrf52_my_sensor/app/libs/rust_app/libs_rust_app.a(app-5a5ad30fd2c694e7.druid-4e098a748cece73f.1b05q285c68j33x.rcgu.o.rcgu.o)
 .text._ZN4core3ptr9const_ptr33_$LT$impl$u20$$BP$const$u20$T$GT$15wrapping_offset17h629aca7644acc8b8E
                0x0000000000010f08       0x10 /Users/Luppy/PineTime/pinetime-logo-loader/bin/targets/nrf52_my_sensor/app/libs/rust_app/libs_rust_app.a(app-5a5ad30fd2c694e7.druid-4e098a748cece73f.1b05q285c68j33x.rcgu.o.rcgu.o)
 .text._ZN4core3ptr9const_ptr33_$LT$impl$u20$$BP$const$u20$T$GT$7is_null17hb2eca0d83827965fE
                0x0000000000010f18        0xe /Users/Luppy/PineTime/pinetime-logo-loader/bin/targets/nrf52_my_sensor/app/libs/rust_app/libs_rust_app.a(app-5a5ad30fd2c694e7.druid-4e098a748cece73f.1b05q285c68j33x.rcgu.o.rcgu.o)
 .text._ZN4core3str15next_code_point17h6bdead8b68224908E
                0x0000000000010f26      0x106 /Users/Luppy/PineTime/pinetime-logo-loader/bin/targets/nrf52_my_sensor/app/libs/rust_app/libs_rust_app.a(app-5a5ad30fd2c694e7.druid-4e098a748cece73f.1b05q285c68j33x.rcgu.o.rcgu.o)
 .text._ZN85_$LT$core..slice..Iter$LT$T$GT$$u20$as$u20$core..iter..traits..iterator..Iterator$GT$4next17h402ed424e742becbE
                0x000000000001102c       0xbc /Users/Luppy/PineTime/pinetime-logo-loader/bin/targets/nrf52_my_sensor/app/libs/rust_app/libs_rust_app.a(app-5a5ad30fd2c694e7.druid-4e098a748cece73f.1b05q285c68j33x.rcgu.o.rcgu.o)
 .text._ZN69_$LT$core..option..Option$LT$T$GT$$u20$as$u20$core..ops..try..Try$GT$11into_result17hdfb359f7887de3ebE
                0x00000000000110e8       0x10 /Users/Luppy/PineTime/pinetime-logo-loader/bin/targets/nrf52_my_sensor/app/libs/rust_app/libs_rust_app.a(app-5a5ad30fd2c694e7.druid-4e098a748cece73f.1b05q285c68j33x.rcgu.o.rcgu.o)
 .text._ZN50_$LT$T$u20$as$u20$core..convert..From$LT$T$GT$$GT$4from17h54f75e2031d89cdaE
                0x00000000000110f8        0x6 /Users/Luppy/PineTime/pinetime-logo-loader/bin/targets/nrf52_my_sensor/app/libs/rust_app/libs_rust_app.a(app-5a5ad30fd2c694e7.druid-4e098a748cece73f.1b05q285c68j33x.rcgu.o.rcgu.o)
 .text._ZN69_$LT$core..option..Option$LT$T$GT$$u20$as$u20$core..ops..try..Try$GT$10from_error17h1ca421b1117d4d46E
                0x00000000000110fe        0xe /Users/Luppy/PineTime/pinetime-logo-loader/bin/targets/nrf52_my_sensor/app/libs/rust_app/libs_rust_app.a(app-5a5ad30fd2c694e7.druid-4e098a748cece73f.1b05q285c68j33x.rcgu.o.rcgu.o)
 .text._ZN4core3str15utf8_first_byte17h51c0b68e04a1d267E
                0x000000000001110c       0x1a /Users/Luppy/PineTime/pinetime-logo-loader/bin/targets/nrf52_my_sensor/app/libs/rust_app/libs_rust_app.a(app-5a5ad30fd2c694e7.druid-4e098a748cece73f.1b05q285c68j33x.rcgu.o.rcgu.o)
 .text._ZN4core3str11unwrap_or_017h1855601484da43c7E
                0x0000000000011126       0x2a /Users/Luppy/PineTime/pinetime-logo-loader/bin/targets/nrf52_my_sensor/app/libs/rust_app/libs_rust_app.a(app-5a5ad30fd2c694e7.druid-4e098a748cece73f.1b05q285c68j33x.rcgu.o.rcgu.o)
 .text._ZN4core3str18utf8_acc_cont_byte17hc6da3503f8cde2ceE
                0x0000000000011150       0x16 /Users/Luppy/PineTime/pinetime-logo-loader/bin/targets/nrf52_my_sensor/app/libs/rust_app/libs_rust_app.a(app-5a5ad30fd2c694e7.druid-4e098a748cece73f.1b05q285c68j33x.rcgu.o.rcgu.o)
 .text._ZN4core6option15Option$LT$T$GT$5ok_or17hae3b34156ba7b24aE
                0x0000000000011166       0x44 /Users/Luppy/PineTime/pinetime-logo-loader/bin/targets/nrf52_my_sensor/app/libs/rust_app/libs_rust_app.a(app-5a5ad30fd2c694e7.druid-4e098a748cece73f.1b05q285c68j33x.rcgu.o.rcgu.o)
 .text._ZN4core6option15Option$LT$T$GT$3map17hfb09b2b6c4918543E
                0x00000000000111aa       0x5a /Users/Luppy/PineTime/pinetime-logo-loader/bin/targets/nrf52_my_sensor/app/libs/rust_app/libs_rust_app.a(app-5a5ad30fd2c694e7.druid-4e098a748cece73f.1b05q285c68j33x.rcgu.o.rcgu.o)
 .text._ZN75_$LT$core..str..Chars$u20$as$u20$core..iter..traits..iterator..Iterator$GT$4next28_$u7b$$u7b$closure$u7d$$u7d$17hfdeb9716515f97f7E
                0x0000000000011204       0x10 /Users/Luppy/PineTime/pinetime-logo-loader/bin/targets/nrf52_my_sensor/app/libs/rust_app/libs_rust_app.a(app-5a5ad30fd2c694e7.druid-4e098a748cece73f.1b05q285c68j33x.rcgu.o.rcgu.o)
 .text._ZN4core4char7convert18from_u32_unchecked17h02bc6b491e5dbaa2E
                0x0000000000011214        0xc /Users/Luppy/PineTime/pinetime-logo-loader/bin/targets/nrf52_my_sensor/app/libs/rust_app/libs_rust_app.a(app-5a5ad30fd2c694e7.druid-4e098a748cece73f.1b05q285c68j33x.rcgu.o.rcgu.o)
 .text._ZN103_$LT$core..ops..range..RangeFrom$LT$usize$GT$$u20$as$u20$core..slice..SliceIndex$LT$$u5b$T$u5d$$GT$$GT$17get_unchecked_mut17h171deb7218ded034E
                0x0000000000011220       0x30 /Users/Luppy/PineTime/pinetime-logo-loader/bin/targets/nrf52_my_sensor/app/libs/rust_app/libs_rust_app.a(app-5a5ad30fd2c694e7.druid-4e098a748cece73f.1b05q285c68j33x.rcgu.o.rcgu.o)
 .text._ZN4core3ptr7mut_ptr41_$LT$impl$u20$$BP$mut$u20$$u5b$T$u5d$$GT$3len17h311b433f2dcf9341E
                0x0000000000011250       0x10 /Users/Luppy/PineTime/pinetime-logo-loader/bin/targets/nrf52_my_sensor/app/libs/rust_app/libs_rust_app.a(app-5a5ad30fd2c694e7.druid-4e098a748cece73f.1b05q285c68j33x.rcgu.o.rcgu.o)
 .text._ZN99_$LT$core..ops..range..Range$LT$usize$GT$$u20$as$u20$core..slice..SliceIndex$LT$$u5b$T$u5d$$GT$$GT$17get_unchecked_mut17h09c0fa02674b579eE
                0x0000000000011260       0x2e /Users/Luppy/PineTime/pinetime-logo-loader/bin/targets/nrf52_my_sensor/app/libs/rust_app/libs_rust_app.a(app-5a5ad30fd2c694e7.druid-4e098a748cece73f.1b05q285c68j33x.rcgu.o.rcgu.o)
 .text._ZN4core3ptr7mut_ptr41_$LT$impl$u20$$BP$mut$u20$$u5b$T$u5d$$GT$10as_mut_ptr17h04fefe634df6918aE
                0x000000000001128e        0xa /Users/Luppy/PineTime/pinetime-logo-loader/bin/targets/nrf52_my_sensor/app/libs/rust_app/libs_rust_app.a(app-5a5ad30fd2c694e7.druid-4e098a748cece73f.1b05q285c68j33x.rcgu.o.rcgu.o)
 .text._ZN4core3ptr7mut_ptr31_$LT$impl$u20$$BP$mut$u20$T$GT$3add17hfd4900107909abc6E
                0x0000000000011298       0x12 /Users/Luppy/PineTime/pinetime-logo-loader/bin/targets/nrf52_my_sensor/app/libs/rust_app/libs_rust_app.a(app-5a5ad30fd2c694e7.druid-4e098a748cece73f.1b05q285c68j33x.rcgu.o.rcgu.o)
 .text._ZN4core3ptr24slice_from_raw_parts_mut17h71f816060bf0573cE
                0x00000000000112aa       0x1a /Users/Luppy/PineTime/pinetime-logo-loader/bin/targets/nrf52_my_sensor/app/libs/rust_app/libs_rust_app.a(app-5a5ad30fd2c694e7.druid-4e098a748cece73f.1b05q285c68j33x.rcgu.o.rcgu.o)
 .text._ZN4core3ptr7mut_ptr31_$LT$impl$u20$$BP$mut$u20$T$GT$6offset17h4bf8e1a50f08603aE
                0x00000000000112c4       0x12 /Users/Luppy/PineTime/pinetime-logo-loader/bin/targets/nrf52_my_sensor/app/libs/rust_app/libs_rust_app.a(app-5a5ad30fd2c694e7.druid-4e098a748cece73f.1b05q285c68j33x.rcgu.o.rcgu.o)
 .text._ZN103_$LT$core..ops..range..RangeFrom$LT$usize$GT$$u20$as$u20$core..slice..SliceIndex$LT$$u5b$T$u5d$$GT$$GT$9index_mut17hd2abe432753ecb74E
                0x00000000000112d6       0x4a /Users/Luppy/PineTime/pinetime-logo-loader/bin/targets/nrf52_my_sensor/app/libs/rust_app/libs_rust_app.a(app-5a5ad30fd2c694e7.druid-4e098a748cece73f.1b05q285c68j33x.rcgu.o.rcgu.o)
 .text._ZN4core5slice29_$LT$impl$u20$$u5b$T$u5d$$GT$3len17ha8c8581543643b74E
                0x0000000000011320       0x10 /Users/Luppy/PineTime/pinetime-logo-loader/bin/targets/nrf52_my_sensor/app/libs/rust_app/libs_rust_app.a(app-5a5ad30fd2c694e7.druid-4e098a748cece73f.1b05q285c68j33x.rcgu.o.rcgu.o)
 .text._ZN106_$LT$embedded_graphics..fonts..font_builder..FontBuilder$LT$C$C$Conf$GT$$u20$as$u20$core..clone..Clone$GT$5clone17h2597b185a6fd6b91E
                0x0000000000011330       0x54 /Users/Luppy/PineTime/pinetime-logo-loader/bin/targets/nrf52_my_sensor/app/libs/rust_app/libs_rust_app.a(app-5a5ad30fd2c694e7.druid-4e098a748cece73f.1b05q285c68j33x.rcgu.o.rcgu.o)
 .text._ZN79_$LT$embedded_graphics..style..Style$LT$P$GT$$u20$as$u20$core..clone..Clone$GT$5clone17hbc1ed2c7cc5d4946E
                0x0000000000011384       0x58 /Users/Luppy/PineTime/pinetime-logo-loader/bin/targets/nrf52_my_sensor/app/libs/rust_app/libs_rust_app.a(app-5a5ad30fd2c694e7.druid-4e098a748cece73f.1b05q285c68j33x.rcgu.o.rcgu.o)
 .text._ZN77_$LT$core..marker..PhantomData$LT$T$GT$$u20$as$u20$core..default..Default$GT$7default17h79c8d5a2a99ff8c1E
                0x00000000000113dc        0x2 /Users/Luppy/PineTime/pinetime-logo-loader/bin/targets/nrf52_my_sensor/app/libs/rust_app/libs_rust_app.a(app-5a5ad30fd2c694e7.druid-4e098a748cece73f.1b05q285c68j33x.rcgu.o.rcgu.o)
 .text._ZN68_$LT$core..option..Option$LT$T$GT$$u20$as$u20$core..clone..Clone$GT$5clone17hf5d26da0fae4b884E
                0x00000000000113de       0x3e /Users/Luppy/PineTime/pinetime-logo-loader/bin/targets/nrf52_my_sensor/app/libs/rust_app/libs_rust_app.a(app-5a5ad30fd2c694e7.druid-4e098a748cece73f.1b05q285c68j33x.rcgu.o.rcgu.o)
 .text._ZN4core5clone5impls51_$LT$impl$u20$core..clone..Clone$u20$for$u20$u8$GT$5clone17h2093dc2d17861e05E
                0x000000000001141c        0xa /Users/Luppy/PineTime/pinetime-logo-loader/bin/targets/nrf52_my_sensor/app/libs/rust_app/libs_rust_app.a(app-5a5ad30fd2c694e7.druid-4e098a748cece73f.1b05q285c68j33x.rcgu.o.rcgu.o)
 .text._ZN84_$LT$embedded_graphics..pixelcolor..rgb565..Rgb565$u20$as$u20$core..clone..Clone$GT$5clone17h739ba3db3347b819E
                0x0000000000011426        0xa /Users/Luppy/PineTime/pinetime-logo-loader/bin/targets/nrf52_my_sensor/app/libs/rust_app/libs_rust_app.a(app-5a5ad30fd2c694e7.druid-4e098a748cece73f.1b05q285c68j33x.rcgu.o.rcgu.o)
 .text._ZN10num_traits4cast11ToPrimitive5to_u817h04666e5d097e7be5E
                0x0000000000011430       0x26 /Users/Luppy/PineTime/pinetime-logo-loader/bin/targets/nrf52_my_sensor/app/libs/rust_app/libs_rust_app.a(app-5a5ad30fd2c694e7.druid-4e098a748cece73f.1b05q285c68j33x.rcgu.o.rcgu.o)
 .text._ZN4core6option15Option$LT$T$GT$6as_ref17h12035965f3cc3ebbE
                0x0000000000011456       0x26 /Users/Luppy/PineTime/pinetime-logo-loader/bin/targets/nrf52_my_sensor/app/libs/rust_app/libs_rust_app.a(app-5a5ad30fd2c694e7.druid-4e098a748cece73f.1b05q285c68j33x.rcgu.o.rcgu.o)
 .text._ZN4core6option15Option$LT$T$GT$8and_then17h4a594980f860be1fE
                0x000000000001147c       0x60 /Users/Luppy/PineTime/pinetime-logo-loader/bin/targets/nrf52_my_sensor/app/libs/rust_app/libs_rust_app.a(app-5a5ad30fd2c694e7.druid-4e098a748cece73f.1b05q285c68j33x.rcgu.o.rcgu.o)
 .text._ZN4core3ops8function6FnOnce9call_once17h87289dca90ac569fE
                0x00000000000114dc       0x16 /Users/Luppy/PineTime/pinetime-logo-loader/bin/targets/nrf52_my_sensor/app/libs/rust_app/libs_rust_app.a(app-5a5ad30fd2c694e7.druid-4e098a748cece73f.1b05q285c68j33x.rcgu.o.rcgu.o)
 .text._ZN53_$LT$u64$u20$as$u20$num_traits..cast..ToPrimitive$GT$5to_u817h308f03ae680dc3b7E
                0x00000000000114f2       0x7e /Users/Luppy/PineTime/pinetime-logo-loader/bin/targets/nrf52_my_sensor/app/libs/rust_app/libs_rust_app.a(app-5a5ad30fd2c694e7.druid-4e098a748cece73f.1b05q285c68j33x.rcgu.o.rcgu.o)
 .text._ZN10num_traits4cast11ToPrimitive5to_u817h60812d5944f85ef9E
                0x0000000000011570       0x26 /Users/Luppy/PineTime/pinetime-logo-loader/bin/targets/nrf52_my_sensor/app/libs/rust_app/libs_rust_app.a(app-5a5ad30fd2c694e7.druid-4e098a748cece73f.1b05q285c68j33x.rcgu.o.rcgu.o)
 .text._ZN10st7735_lcd28ST7735$LT$SPI$C$DC$C$RST$GT$10hard_reset17hd925c2cebd9b7bd5E
                0x0000000000011596       0x8a /Users/Luppy/PineTime/pinetime-logo-loader/bin/targets/nrf52_my_sensor/app/libs/rust_app/libs_rust_app.a(app-5a5ad30fd2c694e7.druid-4e098a748cece73f.1b05q285c68j33x.rcgu.o.rcgu.o)
 .text._ZN4core6result19Result$LT$T$C$E$GT$7map_err17hccb0c004c0ed7177E
                0x0000000000011620       0x5a /Users/Luppy/PineTime/pinetime-logo-loader/bin/targets/nrf52_my_sensor/app/libs/rust_app/libs_rust_app.a(app-5a5ad30fd2c694e7.druid-4e098a748cece73f.1b05q285c68j33x.rcgu.o.rcgu.o)
 .text._ZN50_$LT$T$u20$as$u20$core..convert..From$LT$T$GT$$GT$4from17h61f354e52ecdf387E
                0x000000000001167a        0x6 /Users/Luppy/PineTime/pinetime-logo-loader/bin/targets/nrf52_my_sensor/app/libs/rust_app/libs_rust_app.a(app-5a5ad30fd2c694e7.druid-4e098a748cece73f.1b05q285c68j33x.rcgu.o.rcgu.o)
 .text._ZN73_$LT$core..result..Result$LT$T$C$E$GT$$u20$as$u20$core..ops..try..Try$GT$10from_error17hf454f03e4d8741f3E
                0x0000000000011680       0x10 /Users/Luppy/PineTime/pinetime-logo-loader/bin/targets/nrf52_my_sensor/app/libs/rust_app/libs_rust_app.a(app-5a5ad30fd2c694e7.druid-4e098a748cece73f.1b05q285c68j33x.rcgu.o.rcgu.o)
 .text._ZN4core6result19Result$LT$T$C$E$GT$7map_err17h5617611caecb1ac5E
                0x0000000000011690       0x5a /Users/Luppy/PineTime/pinetime-logo-loader/bin/targets/nrf52_my_sensor/app/libs/rust_app/libs_rust_app.a(app-5a5ad30fd2c694e7.druid-4e098a748cece73f.1b05q285c68j33x.rcgu.o.rcgu.o)
 .text._ZN4core6result19Result$LT$T$C$E$GT$7map_err17h7bec8099582e7f15E
                0x00000000000116ea       0x5a /Users/Luppy/PineTime/pinetime-logo-loader/bin/targets/nrf52_my_sensor/app/libs/rust_app/libs_rust_app.a(app-5a5ad30fd2c694e7.druid-4e098a748cece73f.1b05q285c68j33x.rcgu.o.rcgu.o)
 .text._ZN10st7735_lcd28ST7735$LT$SPI$C$DC$C$RST$GT$10hard_reset28_$u7b$$u7b$closure$u7d$$u7d$17h9748bf1d3119fd41E
                0x0000000000011744        0x8 /Users/Luppy/PineTime/pinetime-logo-loader/bin/targets/nrf52_my_sensor/app/libs/rust_app/libs_rust_app.a(app-5a5ad30fd2c694e7.druid-4e098a748cece73f.1b05q285c68j33x.rcgu.o.rcgu.o)
 .text._ZN10st7735_lcd28ST7735$LT$SPI$C$DC$C$RST$GT$10hard_reset28_$u7b$$u7b$closure$u7d$$u7d$17h8bc1b3f76d308ed7E
                0x000000000001174c        0x8 /Users/Luppy/PineTime/pinetime-logo-loader/bin/targets/nrf52_my_sensor/app/libs/rust_app/libs_rust_app.a(app-5a5ad30fd2c694e7.druid-4e098a748cece73f.1b05q285c68j33x.rcgu.o.rcgu.o)
 .text._ZN10st7735_lcd28ST7735$LT$SPI$C$DC$C$RST$GT$10hard_reset28_$u7b$$u7b$closure$u7d$$u7d$17h4bb03f5db33bbd8fE
                0x0000000000011754        0x8 /Users/Luppy/PineTime/pinetime-logo-loader/bin/targets/nrf52_my_sensor/app/libs/rust_app/libs_rust_app.a(app-5a5ad30fd2c694e7.druid-4e098a748cece73f.1b05q285c68j33x.rcgu.o.rcgu.o)
 .text._ZN10st7735_lcd28ST7735$LT$SPI$C$DC$C$RST$GT$10set_pixels17hf37e22ca88bd38d8E
                0x000000000001175c       0xfe /Users/Luppy/PineTime/pinetime-logo-loader/bin/targets/nrf52_my_sensor/app/libs/rust_app/libs_rust_app.a(app-5a5ad30fd2c694e7.druid-4e098a748cece73f.1b05q285c68j33x.rcgu.o.rcgu.o)
 .text._ZN10st7735_lcd28ST7735$LT$SPI$C$DC$C$RST$GT$18set_address_window17hc8a374c5afca57d3E
                0x000000000001185a      0x204 /Users/Luppy/PineTime/pinetime-logo-loader/bin/targets/nrf52_my_sensor/app/libs/rust_app/libs_rust_app.a(app-5a5ad30fd2c694e7.druid-4e098a748cece73f.1b05q285c68j33x.rcgu.o.rcgu.o)
 .text._ZN10st7735_lcd28ST7735$LT$SPI$C$DC$C$RST$GT$12write_pixels17h5781b0ab7dde0094E
                0x0000000000011a5e      0x128 /Users/Luppy/PineTime/pinetime-logo-loader/bin/targets/nrf52_my_sensor/app/libs/rust_app/libs_rust_app.a(app-5a5ad30fd2c694e7.druid-4e098a748cece73f.1b05q285c68j33x.rcgu.o.rcgu.o)
 .text._ZN4core3ptr13drop_in_place17h378d488cc8fc1c1dE
                0x0000000000011b86       0x10 /Users/Luppy/PineTime/pinetime-logo-loader/bin/targets/nrf52_my_sensor/app/libs/rust_app/libs_rust_app.a(app-5a5ad30fd2c694e7.druid-4e098a748cece73f.1b05q285c68j33x.rcgu.o.rcgu.o)
 .text._ZN73_$LT$heapless..vec..Vec$LT$T$C$N$GT$$u20$as$u20$core..ops..drop..Drop$GT$4drop17h1c6f45c257c0d476E
                0x0000000000011b96       0x1c /Users/Luppy/PineTime/pinetime-logo-loader/bin/targets/nrf52_my_sensor/app/libs/rust_app/libs_rust_app.a(app-5a5ad30fd2c694e7.druid-4e098a748cece73f.1b05q285c68j33x.rcgu.o.rcgu.o)
 .text._ZN78_$LT$heapless..vec..Vec$LT$T$C$N$GT$$u20$as$u20$core..ops..deref..DerefMut$GT$9deref_mut17hc6447222829e1031E
                0x0000000000011bb2       0x10 /Users/Luppy/PineTime/pinetime-logo-loader/bin/targets/nrf52_my_sensor/app/libs/rust_app/libs_rust_app.a(app-5a5ad30fd2c694e7.druid-4e098a748cece73f.1b05q285c68j33x.rcgu.o.rcgu.o)
 .text._ZN4core5slice77_$LT$impl$u20$core..ops..index..IndexMut$LT$I$GT$$u20$for$u20$$u5b$T$u5d$$GT$9index_mut17h8b9c6069a9877100E
                0x0000000000011bc2       0x12 /Users/Luppy/PineTime/pinetime-logo-loader/bin/targets/nrf52_my_sensor/app/libs/rust_app/libs_rust_app.a(app-5a5ad30fd2c694e7.druid-4e098a748cece73f.1b05q285c68j33x.rcgu.o.rcgu.o)
 .text._ZN90_$LT$core..ops..range..RangeFull$u20$as$u20$core..slice..SliceIndex$LT$$u5b$T$u5d$$GT$$GT$9index_mut17h978995543857afd7E
                0x0000000000011bd4        0xa /Users/Luppy/PineTime/pinetime-logo-loader/bin/targets/nrf52_my_sensor/app/libs/rust_app/libs_rust_app.a(app-5a5ad30fd2c694e7.druid-4e098a748cece73f.1b05q285c68j33x.rcgu.o.rcgu.o)
 .text._ZN8heapless3vec82_$LT$impl$u20$heapless..i..Vec$LT$generic_array..GenericArray$LT$T$C$N$GT$$GT$$GT$12as_mut_slice17h0751e6ec7b327174E
                0x0000000000011bde       0x1e /Users/Luppy/PineTime/pinetime-logo-loader/bin/targets/nrf52_my_sensor/app/libs/rust_app/libs_rust_app.a(app-5a5ad30fd2c694e7.druid-4e098a748cece73f.1b05q285c68j33x.rcgu.o.rcgu.o)
 .text._ZN4core5slice18from_raw_parts_mut17h1efb06d76d37f73dE
                0x0000000000011bfc       0x12 /Users/Luppy/PineTime/pinetime-logo-loader/bin/targets/nrf52_my_sensor/app/libs/rust_app/libs_rust_app.a(app-5a5ad30fd2c694e7.druid-4e098a748cece73f.1b05q285c68j33x.rcgu.o.rcgu.o)
 .text._ZN10st7735_lcd28ST7735$LT$SPI$C$DC$C$RST$GT$13write_command17h584314fe5f697f4eE
                0x0000000000011c0e       0x86 /Users/Luppy/PineTime/pinetime-logo-loader/bin/targets/nrf52_my_sensor/app/libs/rust_app/libs_rust_app.a(app-5a5ad30fd2c694e7.druid-4e098a748cece73f.1b05q285c68j33x.rcgu.o.rcgu.o)
 .text._ZN93_$LT$heapless..vec..Vec$LT$T$C$N$GT$$u20$as$u20$core..iter..traits..collect..IntoIterator$GT$9into_iter17h4b4e16b16fdc0333E
                0x0000000000011c94       0x2e /Users/Luppy/PineTime/pinetime-logo-loader/bin/targets/nrf52_my_sensor/app/libs/rust_app/libs_rust_app.a(app-5a5ad30fd2c694e7.druid-4e098a748cece73f.1b05q285c68j33x.rcgu.o.rcgu.o)
 .text._ZN95_$LT$heapless..vec..IntoIter$LT$T$C$N$GT$$u20$as$u20$core..iter..traits..iterator..Iterator$GT$4next17hd000596490f8b129E
                0x0000000000011cc2       0x96 /Users/Luppy/PineTime/pinetime-logo-loader/bin/targets/nrf52_my_sensor/app/libs/rust_app/libs_rust_app.a(app-5a5ad30fd2c694e7.druid-4e098a748cece73f.1b05q285c68j33x.rcgu.o.rcgu.o)
 .text._ZN4core3ptr13drop_in_place17h2504f556f1d09f0eE
                0x0000000000011d58       0x18 /Users/Luppy/PineTime/pinetime-logo-loader/bin/targets/nrf52_my_sensor/app/libs/rust_app/libs_rust_app.a(app-5a5ad30fd2c694e7.druid-4e098a748cece73f.1b05q285c68j33x.rcgu.o.rcgu.o)
 .text._ZN10st7735_lcd28ST7735$LT$SPI$C$DC$C$RST$GT$10write_word17h495158ec7012a202E
                0x0000000000011d70       0x2c /Users/Luppy/PineTime/pinetime-logo-loader/bin/targets/nrf52_my_sensor/app/libs/rust_app/libs_rust_app.a(app-5a5ad30fd2c694e7.druid-4e098a748cece73f.1b05q285c68j33x.rcgu.o.rcgu.o)
 .text._ZN4core3num21_$LT$impl$u20$u16$GT$5to_be17hfb03fd3a1fcbefe0E
                0x0000000000011d9c       0x16 /Users/Luppy/PineTime/pinetime-logo-loader/bin/targets/nrf52_my_sensor/app/libs/rust_app/libs_rust_app.a(app-5a5ad30fd2c694e7.druid-4e098a748cece73f.1b05q285c68j33x.rcgu.o.rcgu.o)
 .text._ZN10st7735_lcd28ST7735$LT$SPI$C$DC$C$RST$GT$10write_data17hb50ec00dd1773b55E
                0x0000000000011db2       0x30 /Users/Luppy/PineTime/pinetime-logo-loader/bin/targets/nrf52_my_sensor/app/libs/rust_app/libs_rust_app.a(app-5a5ad30fd2c694e7.druid-4e098a748cece73f.1b05q285c68j33x.rcgu.o.rcgu.o)
 .text._ZN4core3num21_$LT$impl$u20$u16$GT$10swap_bytes17h28d467135464be46E
                0x0000000000011de2       0x18 /Users/Luppy/PineTime/pinetime-logo-loader/bin/targets/nrf52_my_sensor/app/libs/rust_app/libs_rust_app.a(app-5a5ad30fd2c694e7.druid-4e098a748cece73f.1b05q285c68j33x.rcgu.o.rcgu.o)
 .text._ZN78_$LT$heapless..vec..IntoIter$LT$T$C$N$GT$$u20$as$u20$core..ops..drop..Drop$GT$4drop17hb2e798e7ddcff040E
                0x0000000000011dfa       0x2e /Users/Luppy/PineTime/pinetime-logo-loader/bin/targets/nrf52_my_sensor/app/libs/rust_app/libs_rust_app.a(app-5a5ad30fd2c694e7.druid-4e098a748cece73f.1b05q285c68j33x.rcgu.o.rcgu.o)
 .text._ZN4core5slice77_$LT$impl$u20$core..ops..index..IndexMut$LT$I$GT$$u20$for$u20$$u5b$T$u5d$$GT$9index_mut17h29edd35ccf3e89bfE
                0x0000000000011e28       0x20 /Users/Luppy/PineTime/pinetime-logo-loader/bin/targets/nrf52_my_sensor/app/libs/rust_app/libs_rust_app.a(app-5a5ad30fd2c694e7.druid-4e098a748cece73f.1b05q285c68j33x.rcgu.o.rcgu.o)
 .text._ZN75_$LT$heapless..vec..Vec$LT$T$C$N$GT$$u20$as$u20$core..ops..deref..Deref$GT$5deref17hc387958faec54340E
                0x0000000000011e48       0x10 /Users/Luppy/PineTime/pinetime-logo-loader/bin/targets/nrf52_my_sensor/app/libs/rust_app/libs_rust_app.a(app-5a5ad30fd2c694e7.druid-4e098a748cece73f.1b05q285c68j33x.rcgu.o.rcgu.o)
 .text._ZN4core3ptr9const_ptr33_$LT$impl$u20$$BP$const$u20$T$GT$3add17he5ffc4e37ed17948E
                0x0000000000011e58       0x12 /Users/Luppy/PineTime/pinetime-logo-loader/bin/targets/nrf52_my_sensor/app/libs/rust_app/libs_rust_app.a(app-5a5ad30fd2c694e7.druid-4e098a748cece73f.1b05q285c68j33x.rcgu.o.rcgu.o)
 .text._ZN4core3ptr9const_ptr33_$LT$impl$u20$$BP$const$u20$T$GT$4read17he631c061fb4132d1E
                0x0000000000011e6a       0x10 /Users/Luppy/PineTime/pinetime-logo-loader/bin/targets/nrf52_my_sensor/app/libs/rust_app/libs_rust_app.a(app-5a5ad30fd2c694e7.druid-4e098a748cece73f.1b05q285c68j33x.rcgu.o.rcgu.o)
 .text._ZN4core3ptr4read17h71f20df8742ada17E
                0x0000000000011e7a       0x2e /Users/Luppy/PineTime/pinetime-logo-loader/bin/targets/nrf52_my_sensor/app/libs/rust_app/libs_rust_app.a(app-5a5ad30fd2c694e7.druid-4e098a748cece73f.1b05q285c68j33x.rcgu.o.rcgu.o)
 .text._ZN4core10intrinsics19copy_nonoverlapping17h7d5a426025249f53E
                0x0000000000011ea8       0x1c /Users/Luppy/PineTime/pinetime-logo-loader/bin/targets/nrf52_my_sensor/app/libs/rust_app/libs_rust_app.a(app-5a5ad30fd2c694e7.druid-4e098a748cece73f.1b05q285c68j33x.rcgu.o.rcgu.o)
 .text._ZN4core3ptr9const_ptr33_$LT$impl$u20$$BP$const$u20$T$GT$6offset17h8d85f17aa0b34365E
                0x0000000000011ec4       0x12 /Users/Luppy/PineTime/pinetime-logo-loader/bin/targets/nrf52_my_sensor/app/libs/rust_app/libs_rust_app.a(app-5a5ad30fd2c694e7.druid-4e098a748cece73f.1b05q285c68j33x.rcgu.o.rcgu.o)
 .text._ZN8heapless3vec82_$LT$impl$u20$heapless..i..Vec$LT$generic_array..GenericArray$LT$T$C$N$GT$$GT$$GT$8as_slice17h144a69eea6b6cc4dE
                0x0000000000011ed6       0x1e /Users/Luppy/PineTime/pinetime-logo-loader/bin/targets/nrf52_my_sensor/app/libs/rust_app/libs_rust_app.a(app-5a5ad30fd2c694e7.druid-4e098a748cece73f.1b05q285c68j33x.rcgu.o.rcgu.o)
 .text._ZN4core5slice14from_raw_parts17h53c36c1c0c182ea9E
                0x0000000000011ef4       0x12 /Users/Luppy/PineTime/pinetime-logo-loader/bin/targets/nrf52_my_sensor/app/libs/rust_app/libs_rust_app.a(app-5a5ad30fd2c694e7.druid-4e098a748cece73f.1b05q285c68j33x.rcgu.o.rcgu.o)
 .text._ZN4core3ptr20slice_from_raw_parts17hfc7880a61831eb6eE
                0x0000000000011f06       0x1a /Users/Luppy/PineTime/pinetime-logo-loader/bin/targets/nrf52_my_sensor/app/libs/rust_app/libs_rust_app.a(app-5a5ad30fd2c694e7.druid-4e098a748cece73f.1b05q285c68j33x.rcgu.o.rcgu.o)
 .text._ZN4core6option15Option$LT$T$GT$6unwrap17h5a66ff0f0967d398E
                0x0000000000011f20       0x3e /Users/Luppy/PineTime/pinetime-logo-loader/bin/targets/nrf52_my_sensor/app/libs/rust_app/libs_rust_app.a(app-5a5ad30fd2c694e7.druid-4e098a748cece73f.1b05q285c68j33x.rcgu.o.rcgu.o)
 .text._ZN4core6option15Option$LT$T$GT$7is_some17h316a7b29e24c618eE
                0x0000000000011f5e       0x24 /Users/Luppy/PineTime/pinetime-logo-loader/bin/targets/nrf52_my_sensor/app/libs/rust_app/libs_rust_app.a(app-5a5ad30fd2c694e7.druid-4e098a748cece73f.1b05q285c68j33x.rcgu.o.rcgu.o)
 .text._ZN4core6option15Option$LT$T$GT$6unwrap17h2eff16e07424e33dE
                0x0000000000011f82       0x32 /Users/Luppy/PineTime/pinetime-logo-loader/bin/targets/nrf52_my_sensor/app/libs/rust_app/libs_rust_app.a(app-5a5ad30fd2c694e7.druid-4e098a748cece73f.1b05q285c68j33x.rcgu.o.rcgu.o)
 .text._ZN10st7735_lcd28ST7735$LT$SPI$C$DC$C$RST$GT$15set_orientation17ha1a9c5ffc83c3822E
                0x0000000000011fb4       0xe0 /Users/Luppy/PineTime/pinetime-logo-loader/bin/targets/nrf52_my_sensor/app/libs/rust_app/libs_rust_app.a(app-5a5ad30fd2c694e7.druid-4e098a748cece73f.1b05q285c68j33x.rcgu.o.rcgu.o)
 .text._ZN10st7735_lcd28ST7735$LT$SPI$C$DC$C$RST$GT$3new17h3e7f3cdd25f48a41E
                0x0000000000012094       0x38 /Users/Luppy/PineTime/pinetime-logo-loader/bin/targets/nrf52_my_sensor/app/libs/rust_app/libs_rust_app.a(app-5a5ad30fd2c694e7.druid-4e098a748cece73f.1b05q285c68j33x.rcgu.o.rcgu.o)
 .text._ZN10st7735_lcd28ST7735$LT$SPI$C$DC$C$RST$GT$4init17h7744266d72462c4cE
                0x00000000000120cc      0x52a /Users/Luppy/PineTime/pinetime-logo-loader/bin/targets/nrf52_my_sensor/app/libs/rust_app/libs_rust_app.a(app-5a5ad30fd2c694e7.druid-4e098a748cece73f.1b05q285c68j33x.rcgu.o.rcgu.o)
 .text._ZN125_$LT$embedded_graphics..primitives..rectangle..Rectangle$LT$C$GT$$u20$as$u20$embedded_graphics..style..WithStyle$LT$C$GT$$GT$4fill17h6ced4830f492cb8fE
                0x00000000000125f6       0x26 /Users/Luppy/PineTime/pinetime-logo-loader/bin/targets/nrf52_my_sensor/app/libs/rust_app/libs_rust_app.a(app-5a5ad30fd2c694e7.druid-4e098a748cece73f.1b05q285c68j33x.rcgu.o.rcgu.o)
 .text._ZN127_$LT$embedded_graphics..fonts..font_builder..FontBuilder$LT$C$C$Conf$GT$$u20$as$u20$embedded_graphics..fonts..Font$LT$C$GT$$GT$10render_str17h9810b7a956281d0cE
                0x000000000001261c       0x58 /Users/Luppy/PineTime/pinetime-logo-loader/bin/targets/nrf52_my_sensor/app/libs/rust_app/libs_rust_app.a(app-5a5ad30fd2c694e7.druid-4e098a748cece73f.1b05q285c68j33x.rcgu.o.rcgu.o)
 .text._ZN83_$LT$embedded_graphics..style..Style$LT$P$GT$$u20$as$u20$core..default..Default$GT$7default17hb86457dd76c1c71aE
                0x0000000000012674       0x2c /Users/Luppy/PineTime/pinetime-logo-loader/bin/targets/nrf52_my_sensor/app/libs/rust_app/libs_rust_app.a(app-5a5ad30fd2c694e7.druid-4e098a748cece73f.1b05q285c68j33x.rcgu.o.rcgu.o)
 .text._ZN127_$LT$embedded_graphics..fonts..font_builder..FontBuilder$LT$C$C$Conf$GT$$u20$as$u20$embedded_graphics..transform..Transform$GT$9translate17hd3c6d064acf4222cE
                0x00000000000126a0       0x5c /Users/Luppy/PineTime/pinetime-logo-loader/bin/targets/nrf52_my_sensor/app/libs/rust_app/libs_rust_app.a(app-5a5ad30fd2c694e7.druid-4e098a748cece73f.1b05q285c68j33x.rcgu.o.rcgu.o)
 .text._ZN129_$LT$embedded_graphics..fonts..font_builder..FontBuilder$LT$C$C$Conf$GT$$u20$as$u20$core..iter..traits..collect..IntoIterator$GT$9into_iter17h0817df2433a3d9b9E
                0x00000000000126fc       0x7e /Users/Luppy/PineTime/pinetime-logo-loader/bin/targets/nrf52_my_sensor/app/libs/rust_app/libs_rust_app.a(app-5a5ad30fd2c694e7.druid-4e098a748cece73f.1b05q285c68j33x.rcgu.o.rcgu.o)
 .text._ZN4core3str21_$LT$impl$u20$str$GT$5chars17hc4390dcc38117dadE
                0x000000000001277a       0x26 /Users/Luppy/PineTime/pinetime-logo-loader/bin/targets/nrf52_my_sensor/app/libs/rust_app/libs_rust_app.a(app-5a5ad30fd2c694e7.druid-4e098a748cece73f.1b05q285c68j33x.rcgu.o.rcgu.o)
 .text._ZN75_$LT$core..str..Chars$u20$as$u20$core..iter..traits..iterator..Iterator$GT$4next17hddacb047655a0981E
                0x00000000000127a0       0x14 /Users/Luppy/PineTime/pinetime-logo-loader/bin/targets/nrf52_my_sensor/app/libs/rust_app/libs_rust_app.a(app-5a5ad30fd2c694e7.druid-4e098a748cece73f.1b05q285c68j33x.rcgu.o.rcgu.o)
 .text._ZN132_$LT$embedded_graphics..fonts..font_builder..FontBuilder$LT$C$C$Conf$GT$$u20$as$u20$embedded_graphics..style..WithStyle$LT$C$GT$$GT$4fill17ha28183a879e77da4E
                0x00000000000127b4       0x26 /Users/Luppy/PineTime/pinetime-logo-loader/bin/targets/nrf52_my_sensor/app/libs/rust_app/libs_rust_app.a(app-5a5ad30fd2c694e7.druid-4e098a748cece73f.1b05q285c68j33x.rcgu.o.rcgu.o)
 .text._ZN132_$LT$embedded_graphics..fonts..font_builder..FontBuilder$LT$C$C$Conf$GT$$u20$as$u20$embedded_graphics..style..WithStyle$LT$C$GT$$GT$6stroke17h31c9ef580651bd74E
                0x00000000000127da       0x26 /Users/Luppy/PineTime/pinetime-logo-loader/bin/targets/nrf52_my_sensor/app/libs/rust_app/libs_rust_app.a(app-5a5ad30fd2c694e7.druid-4e098a748cece73f.1b05q285c68j33x.rcgu.o.rcgu.o)
 .text._ZN134_$LT$embedded_graphics..fonts..font_builder..FontBuilderIterator$LT$C$C$Conf$GT$$u20$as$u20$core..iter..traits..iterator..Iterator$GT$4next17h162b9b76f4cabdbeE
                0x0000000000012800      0x608 /Users/Luppy/PineTime/pinetime-logo-loader/bin/targets/nrf52_my_sensor/app/libs/rust_app/libs_rust_app.a(app-5a5ad30fd2c694e7.druid-4e098a748cece73f.1b05q285c68j33x.rcgu.o.rcgu.o)
 .text._ZN4core3str21_$LT$impl$u20$str$GT$3len17hb47ce06a10fbf1bdE
                0x0000000000012e08       0x1e /Users/Luppy/PineTime/pinetime-logo-loader/bin/targets/nrf52_my_sensor/app/libs/rust_app/libs_rust_app.a(app-5a5ad30fd2c694e7.druid-4e098a748cece73f.1b05q285c68j33x.rcgu.o.rcgu.o)
 .text._ZN50_$LT$T$u20$as$u20$core..convert..Into$LT$U$GT$$GT$4into17h07f728b16fd1327eE
                0x0000000000012e26       0x16 /Users/Luppy/PineTime/pinetime-logo-loader/bin/targets/nrf52_my_sensor/app/libs/rust_app/libs_rust_app.a(app-5a5ad30fd2c694e7.druid-4e098a748cece73f.1b05q285c68j33x.rcgu.o.rcgu.o)
 .text._ZN4core6option15Option$LT$T$GT$9unwrap_or17h420ffdb07f0dbbe2E
                0x0000000000012e3c       0x68 /Users/Luppy/PineTime/pinetime-logo-loader/bin/targets/nrf52_my_sensor/app/libs/rust_app/libs_rust_app.a(app-5a5ad30fd2c694e7.druid-4e098a748cece73f.1b05q285c68j33x.rcgu.o.rcgu.o)
 .text._ZN4core4iter6traits8iterator8Iterator4skip17hee5eb9a1cad39d55E
                0x0000000000012ea4       0x14 /Users/Luppy/PineTime/pinetime-logo-loader/bin/targets/nrf52_my_sensor/app/libs/rust_app/libs_rust_app.a(app-5a5ad30fd2c694e7.druid-4e098a748cece73f.1b05q285c68j33x.rcgu.o.rcgu.o)
 .text._ZN94_$LT$core..iter..adapters..Skip$LT$I$GT$$u20$as$u20$core..iter..traits..iterator..Iterator$GT$4next17h66191a1912706674E
                0x0000000000012eb8       0x34 /Users/Luppy/PineTime/pinetime-logo-loader/bin/targets/nrf52_my_sensor/app/libs/rust_app/libs_rust_app.a(app-5a5ad30fd2c694e7.druid-4e098a748cece73f.1b05q285c68j33x.rcgu.o.rcgu.o)
 .text._ZN4core4iter6traits8iterator8Iterator3nth17hd533f6a60fe78041E
                0x0000000000012eec       0x4e /Users/Luppy/PineTime/pinetime-logo-loader/bin/targets/nrf52_my_sensor/app/libs/rust_app/libs_rust_app.a(app-5a5ad30fd2c694e7.druid-4e098a748cece73f.1b05q285c68j33x.rcgu.o.rcgu.o)
 .text._ZN4core4iter8adapters13Skip$LT$I$GT$3new17h457c46f59daeaf28E
                0x0000000000012f3a       0x12 /Users/Luppy/PineTime/pinetime-logo-loader/bin/targets/nrf52_my_sensor/app/libs/rust_app/libs_rust_app.a(app-5a5ad30fd2c694e7.druid-4e098a748cece73f.1b05q285c68j33x.rcgu.o.rcgu.o)
 .text._ZN4core6result19Result$LT$T$C$E$GT$6expect17hf7ab5b0045433c5fE
                0x0000000000012f4c       0x40 /Users/Luppy/PineTime/pinetime-logo-loader/bin/targets/nrf52_my_sensor/app/libs/rust_app/libs_rust_app.a(app-5a5ad30fd2c694e7.druid-4e098a748cece73f.1b05q285c68j33x.rcgu.o.rcgu.o)
 .text._ZN4core3ptr13drop_in_place17hb8e496f330728993E
                0x0000000000012f8c        0x8 /Users/Luppy/PineTime/pinetime-logo-loader/bin/targets/nrf52_my_sensor/app/libs/rust_app/libs_rust_app.a(app-5a5ad30fd2c694e7.druid-4e098a748cece73f.1b05q285c68j33x.rcgu.o.rcgu.o)
 .text._ZN45_$LT$$LP$$RP$$u20$as$u20$core..fmt..Debug$GT$3fmt17ha9e21db58a910913E
                0x0000000000012f94       0x22 /Users/Luppy/PineTime/pinetime-logo-loader/bin/targets/nrf52_my_sensor/app/libs/rust_app/libs_rust_app.a(app-5a5ad30fd2c694e7.druid-4e098a748cece73f.1b05q285c68j33x.rcgu.o.rcgu.o)
 .text._ZN17embedded_graphics10primitives9rectangle18Rectangle$LT$C$GT$3new17h626c45dc940339ecE
                0x0000000000012fb6       0x58 /Users/Luppy/PineTime/pinetime-logo-loader/bin/targets/nrf52_my_sensor/app/libs/rust_app/libs_rust_app.a(app-5a5ad30fd2c694e7.druid-4e098a748cece73f.1b05q285c68j33x.rcgu.o.rcgu.o)
 .text._ZN4core3ptr13drop_in_place17h38c8116da157efc3E
                0x000000000001300e       0x10 /Users/Luppy/PineTime/pinetime-logo-loader/bin/targets/nrf52_my_sensor/app/libs/rust_app/libs_rust_app.a(app-5a5ad30fd2c694e7.druid-4e098a748cece73f.1b05q285c68j33x.rcgu.o.rcgu.o)
 .text._ZN73_$LT$heapless..vec..Vec$LT$T$C$N$GT$$u20$as$u20$core..ops..drop..Drop$GT$4drop17h64a23bc477b2ff51E
                0x000000000001301e       0x1c /Users/Luppy/PineTime/pinetime-logo-loader/bin/targets/nrf52_my_sensor/app/libs/rust_app/libs_rust_app.a(app-5a5ad30fd2c694e7.druid-4e098a748cece73f.1b05q285c68j33x.rcgu.o.rcgu.o)
 .text._ZN78_$LT$heapless..vec..Vec$LT$T$C$N$GT$$u20$as$u20$core..ops..deref..DerefMut$GT$9deref_mut17h247f7921d47ebb25E
                0x000000000001303a       0x10 /Users/Luppy/PineTime/pinetime-logo-loader/bin/targets/nrf52_my_sensor/app/libs/rust_app/libs_rust_app.a(app-5a5ad30fd2c694e7.druid-4e098a748cece73f.1b05q285c68j33x.rcgu.o.rcgu.o)
 .text._ZN8heapless3vec82_$LT$impl$u20$heapless..i..Vec$LT$generic_array..GenericArray$LT$T$C$N$GT$$GT$$GT$12as_mut_slice17hcc9474e06976ae03E
                0x000000000001304a       0x1e /Users/Luppy/PineTime/pinetime-logo-loader/bin/targets/nrf52_my_sensor/app/libs/rust_app/libs_rust_app.a(app-5a5ad30fd2c694e7.druid-4e098a748cece73f.1b05q285c68j33x.rcgu.o.rcgu.o)
 .text._ZN4core3ptr5write17h9436aca525916565E
                0x0000000000013068       0x10 /Users/Luppy/PineTime/pinetime-logo-loader/bin/targets/nrf52_my_sensor/app/libs/rust_app/libs_rust_app.a(app-5a5ad30fd2c694e7.druid-4e098a748cece73f.1b05q285c68j33x.rcgu.o.rcgu.o)
 .text._ZN4core3ptr7mut_ptr31_$LT$impl$u20$$BP$mut$u20$T$GT$5write17h8435ffecb90b40a3E
                0x0000000000013078       0x18 /Users/Luppy/PineTime/pinetime-logo-loader/bin/targets/nrf52_my_sensor/app/libs/rust_app/libs_rust_app.a(app-5a5ad30fd2c694e7.druid-4e098a748cece73f.1b05q285c68j33x.rcgu.o.rcgu.o)
 .text._ZN4core3ptr7mut_ptr31_$LT$impl$u20$$BP$mut$u20$T$GT$7is_null17h3fd9c65f20555cc7E
                0x0000000000013090        0xe /Users/Luppy/PineTime/pinetime-logo-loader/bin/targets/nrf52_my_sensor/app/libs/rust_app/libs_rust_app.a(app-5a5ad30fd2c694e7.druid-4e098a748cece73f.1b05q285c68j33x.rcgu.o.rcgu.o)
 .text._ZN4core3ptr8non_null16NonNull$LT$T$GT$13new_unchecked17hdc165b1842300683E
                0x000000000001309e        0xc /Users/Luppy/PineTime/pinetime-logo-loader/bin/targets/nrf52_my_sensor/app/libs/rust_app/libs_rust_app.a(app-5a5ad30fd2c694e7.druid-4e098a748cece73f.1b05q285c68j33x.rcgu.o.rcgu.o)
 .text._ZN4core3ptr8non_null16NonNull$LT$T$GT$6as_ptr17h500dee6ea92298aeE
                0x00000000000130aa        0x8 /Users/Luppy/PineTime/pinetime-logo-loader/bin/targets/nrf52_my_sensor/app/libs/rust_app/libs_rust_app.a(app-5a5ad30fd2c694e7.druid-4e098a748cece73f.1b05q285c68j33x.rcgu.o.rcgu.o)
 .text._ZN4core3ptr9const_ptr33_$LT$impl$u20$$BP$const$u20$T$GT$7is_null17hc637ea5fd9b45361E
                0x00000000000130b2        0xe /Users/Luppy/PineTime/pinetime-logo-loader/bin/targets/nrf52_my_sensor/app/libs/rust_app/libs_rust_app.a(app-5a5ad30fd2c694e7.druid-4e098a748cece73f.1b05q285c68j33x.rcgu.o.rcgu.o)
 .text._ZN4core5slice29_$LT$impl$u20$$u5b$T$u5d$$GT$17get_unchecked_mut17h06ceb17f1d96194eE
                0x00000000000130c0       0x20 /Users/Luppy/PineTime/pinetime-logo-loader/bin/targets/nrf52_my_sensor/app/libs/rust_app/libs_rust_app.a(app-5a5ad30fd2c694e7.druid-4e098a748cece73f.1b05q285c68j33x.rcgu.o.rcgu.o)
 .text._ZN68_$LT$usize$u20$as$u20$core..slice..SliceIndex$LT$$u5b$T$u5d$$GT$$GT$17get_unchecked_mut17h4074f3b1049eb840E
                0x00000000000130e0       0x20 /Users/Luppy/PineTime/pinetime-logo-loader/bin/targets/nrf52_my_sensor/app/libs/rust_app/libs_rust_app.a(app-5a5ad30fd2c694e7.druid-4e098a748cece73f.1b05q285c68j33x.rcgu.o.rcgu.o)
