Archive member included to satisfy reference by file (symbol)

/Users/Luppy/PineTime/master-pinetime-rust-mynewt/bin/targets/nrf52_boot/app/hw/bsp/nrf52/hw_bsp_nrf52.a(gcc_startup_nrf52.o)
                              (Reset_Handler)
/Users/Luppy/PineTime/master-pinetime-rust-mynewt/bin/targets/nrf52_boot/app/hw/bsp/nrf52/hw_bsp_nrf52.a(sbrk.o)
                              /Users/Luppy/PineTime/master-pinetime-rust-mynewt/bin/targets/nrf52_boot/app/hw/bsp/nrf52/hw_bsp_nrf52.a(gcc_startup_nrf52.o) (_sbrkInit)
/Users/Luppy/PineTime/master-pinetime-rust-mynewt/bin/targets/nrf52_boot/app/hw/mcu/nordic/nrf52xxx/hw_mcu_nordic_nrf52xxx.a(hal_system.o)
                              /Users/Luppy/PineTime/master-pinetime-rust-mynewt/bin/targets/nrf52_boot/app/hw/bsp/nrf52/hw_bsp_nrf52.a(gcc_startup_nrf52.o) (hal_system_init)
/Users/Luppy/PineTime/master-pinetime-rust-mynewt/bin/targets/nrf52_boot/app/hw/mcu/nordic/nrf52xxx/hw_mcu_nordic_nrf52xxx.a(system_nrf52.o)
                              /Users/Luppy/PineTime/master-pinetime-rust-mynewt/bin/targets/nrf52_boot/app/hw/bsp/nrf52/hw_bsp_nrf52.a(gcc_startup_nrf52.o) (SystemInit)
/Users/Luppy/PineTime/master-pinetime-rust-mynewt/bin/targets/nrf52_boot/app/libc/baselibc/libc_baselibc.a(start.o)
                              /Users/Luppy/PineTime/master-pinetime-rust-mynewt/bin/targets/nrf52_boot/app/hw/bsp/nrf52/hw_bsp_nrf52.a(gcc_startup_nrf52.o) (_start)
/Users/Luppy/PineTime/master-pinetime-rust-mynewt/bin/targets/nrf52_boot/app/boot/mynewt/boot_mynewt.a(main.o)
                              /Users/Luppy/PineTime/master-pinetime-rust-mynewt/bin/targets/nrf52_boot/app/libc/baselibc/libc_baselibc.a(start.o) (main)
/Users/Luppy/PineTime/master-pinetime-rust-mynewt/bin/targets/nrf52_boot/app/hw/bsp/nrf52/hw_bsp_nrf52.a(hal_bsp.o)
                              /Users/Luppy/PineTime/master-pinetime-rust-mynewt/bin/targets/nrf52_boot/app/boot/mynewt/boot_mynewt.a(main.o) (hal_bsp_init)
/Users/Luppy/PineTime/master-pinetime-rust-mynewt/bin/targets/nrf52_boot/app/hw/cmsis-core/hw_cmsis-core.a(cmsis_nvic.o)
                              /Users/Luppy/PineTime/master-pinetime-rust-mynewt/bin/targets/nrf52_boot/app/hw/mcu/nordic/nrf52xxx/hw_mcu_nordic_nrf52xxx.a(system_nrf52.o) (NVIC_Relocate)
/Users/Luppy/PineTime/master-pinetime-rust-mynewt/bin/targets/nrf52_boot/app/hw/drivers/flash/spiflash/hw_drivers_flash_spiflash.a(spiflash.o)
                              /Users/Luppy/PineTime/master-pinetime-rust-mynewt/bin/targets/nrf52_boot/app/hw/bsp/nrf52/hw_bsp_nrf52.a(hal_bsp.o) (spiflash_dev)
/Users/Luppy/PineTime/master-pinetime-rust-mynewt/bin/targets/nrf52_boot/app/hw/hal/hw_hal.a(hal_common.o)
                              /Users/Luppy/PineTime/master-pinetime-rust-mynewt/bin/targets/nrf52_boot/app/libc/baselibc/libc_baselibc.a(start.o) (_exit)
/Users/Luppy/PineTime/master-pinetime-rust-mynewt/bin/targets/nrf52_boot/app/hw/mcu/nordic/nrf52xxx/hw_mcu_nordic_nrf52xxx.a(hal_flash.o)
                              /Users/Luppy/PineTime/master-pinetime-rust-mynewt/bin/targets/nrf52_boot/app/hw/bsp/nrf52/hw_bsp_nrf52.a(hal_bsp.o) (nrf52k_flash_dev)
/Users/Luppy/PineTime/master-pinetime-rust-mynewt/bin/targets/nrf52_boot/app/hw/mcu/nordic/nrf52xxx/hw_mcu_nordic_nrf52xxx.a(hal_gpio.o)
                              /Users/Luppy/PineTime/master-pinetime-rust-mynewt/bin/targets/nrf52_boot/app/hw/drivers/flash/spiflash/hw_drivers_flash_spiflash.a(spiflash.o) (hal_gpio_init_out)
/Users/Luppy/PineTime/master-pinetime-rust-mynewt/bin/targets/nrf52_boot/app/hw/mcu/nordic/nrf52xxx/hw_mcu_nordic_nrf52xxx.a(hal_reset_cause.o)
                              /Users/Luppy/PineTime/master-pinetime-rust-mynewt/bin/targets/nrf52_boot/app/hw/hal/hw_hal.a(hal_common.o) (hal_reset_cause)
/Users/Luppy/PineTime/master-pinetime-rust-mynewt/bin/targets/nrf52_boot/app/hw/mcu/nordic/nrf52xxx/hw_mcu_nordic_nrf52xxx.a(hal_spi.o)
                              /Users/Luppy/PineTime/master-pinetime-rust-mynewt/bin/targets/nrf52_boot/app/hw/drivers/flash/spiflash/hw_drivers_flash_spiflash.a(spiflash.o) (hal_spi_config)
/Users/Luppy/PineTime/master-pinetime-rust-mynewt/bin/targets/nrf52_boot/app/hw/mcu/nordic/nrf52xxx/hw_mcu_nordic_nrf52xxx.a(hal_watchdog.o)
                              /Users/Luppy/PineTime/master-pinetime-rust-mynewt/bin/targets/nrf52_boot/app/boot/mynewt/boot_mynewt.a(main.o) (hal_watchdog_init)
/Users/Luppy/PineTime/master-pinetime-rust-mynewt/bin/targets/nrf52_boot/app/hw/mcu/nordic/nrf52xxx/hw_mcu_nordic_nrf52xxx.a(nrf52_periph.o)
                              /Users/Luppy/PineTime/master-pinetime-rust-mynewt/bin/targets/nrf52_boot/app/hw/bsp/nrf52/hw_bsp_nrf52.a(hal_bsp.o) (nrf52_periph_create)
/Users/Luppy/PineTime/master-pinetime-rust-mynewt/bin/targets/nrf52_boot/app/hw/mcu/nordic/nrf52xxx/hw_mcu_nordic_nrf52xxx.a(hal_timer.o)
                              /Users/Luppy/PineTime/master-pinetime-rust-mynewt/bin/targets/nrf52_boot/app/hw/mcu/nordic/nrf52xxx/hw_mcu_nordic_nrf52xxx.a(nrf52_periph.o) (hal_timer_init)
/Users/Luppy/PineTime/master-pinetime-rust-mynewt/bin/targets/nrf52_boot/app/kernel/os/kernel_os.a(os_fault.o)
                              /Users/Luppy/PineTime/master-pinetime-rust-mynewt/bin/targets/nrf52_boot/app/boot/mynewt/boot_mynewt.a(main.o) (__assert_func)
/Users/Luppy/PineTime/master-pinetime-rust-mynewt/bin/targets/nrf52_boot/app/kernel/os/kernel_os.a(os_cputime.o)
                              /Users/Luppy/PineTime/master-pinetime-rust-mynewt/bin/targets/nrf52_boot/app/hw/mcu/nordic/nrf52xxx/hw_mcu_nordic_nrf52xxx.a(nrf52_periph.o) (os_cputime_init)
/Users/Luppy/PineTime/master-pinetime-rust-mynewt/bin/targets/nrf52_boot/app/kernel/os/kernel_os.a(os_cputime_1mhz.o)
                              /Users/Luppy/PineTime/master-pinetime-rust-mynewt/bin/targets/nrf52_boot/app/kernel/os/kernel_os.a(os_cputime.o) (os_cputime_nsecs_to_ticks)
/Users/Luppy/PineTime/master-pinetime-rust-mynewt/bin/targets/nrf52_boot/app/kernel/os/kernel_os.a(os_dev.o)
                              /Users/Luppy/PineTime/master-pinetime-rust-mynewt/bin/targets/nrf52_boot/app/boot/mynewt/boot_mynewt.a(main.o) (os_dev_initialize_all)
/Users/Luppy/PineTime/master-pinetime-rust-mynewt/bin/targets/nrf52_boot/app/kernel/os/kernel_os.a(os_arch_arm.o)
                              /Users/Luppy/PineTime/master-pinetime-rust-mynewt/bin/targets/nrf52_boot/app/kernel/os/kernel_os.a(os_fault.o) (os_arch_save_sr)
/Users/Luppy/PineTime/master-pinetime-rust-mynewt/bin/targets/nrf52_boot/app/kernel/os/kernel_os.a(os.o)
                              /Users/Luppy/PineTime/master-pinetime-rust-mynewt/bin/targets/nrf52_boot/app/kernel/os/kernel_os.a(os_dev.o) (g_os_started)
/Users/Luppy/PineTime/master-pinetime-rust-mynewt/bin/targets/nrf52_boot/app/kernel/os/kernel_os.a(os_callout.o)
                              /Users/Luppy/PineTime/master-pinetime-rust-mynewt/bin/targets/nrf52_boot/app/kernel/os/kernel_os.a(os.o) (g_callout_list)
/Users/Luppy/PineTime/master-pinetime-rust-mynewt/bin/targets/nrf52_boot/app/kernel/os/kernel_os.a(os_eventq.o)
                              /Users/Luppy/PineTime/master-pinetime-rust-mynewt/bin/targets/nrf52_boot/app/kernel/os/kernel_os.a(os.o) (os_eventq_init)
/Users/Luppy/PineTime/master-pinetime-rust-mynewt/bin/targets/nrf52_boot/app/kernel/os/kernel_os.a(os_mempool.o)
                              /Users/Luppy/PineTime/master-pinetime-rust-mynewt/bin/targets/nrf52_boot/app/kernel/os/kernel_os.a(os.o) (os_mempool_module_init)
/Users/Luppy/PineTime/master-pinetime-rust-mynewt/bin/targets/nrf52_boot/app/kernel/os/kernel_os.a(os_msys.o)
                              /Users/Luppy/PineTime/master-pinetime-rust-mynewt/bin/targets/nrf52_boot/app/kernel/os/kernel_os.a(os.o) (os_msys_init)
/Users/Luppy/PineTime/master-pinetime-rust-mynewt/bin/targets/nrf52_boot/app/kernel/os/kernel_os.a(os_sanity.o)
                              /Users/Luppy/PineTime/master-pinetime-rust-mynewt/bin/targets/nrf52_boot/app/kernel/os/kernel_os.a(os.o) (os_sanity_run)
/Users/Luppy/PineTime/master-pinetime-rust-mynewt/bin/targets/nrf52_boot/app/kernel/os/kernel_os.a(os_sched.o)
                              /Users/Luppy/PineTime/master-pinetime-rust-mynewt/bin/targets/nrf52_boot/app/kernel/os/kernel_os.a(os_arch_arm.o) (os_sched_ctx_sw_hook)
/Users/Luppy/PineTime/master-pinetime-rust-mynewt/bin/targets/nrf52_boot/app/kernel/os/kernel_os.a(os_task.o)
                              /Users/Luppy/PineTime/master-pinetime-rust-mynewt/bin/targets/nrf52_boot/app/kernel/os/kernel_os.a(os.o) (os_task_init)
/Users/Luppy/PineTime/master-pinetime-rust-mynewt/bin/targets/nrf52_boot/app/kernel/os/kernel_os.a(os_time.o)
                              /Users/Luppy/PineTime/master-pinetime-rust-mynewt/bin/targets/nrf52_boot/app/kernel/os/kernel_os.a(os.o) (os_time_get)
/Users/Luppy/PineTime/master-pinetime-rust-mynewt/bin/targets/nrf52_boot/app/kernel/os/kernel_os.a(HAL_CM4.o)
                              /Users/Luppy/PineTime/master-pinetime-rust-mynewt/bin/targets/nrf52_boot/app/kernel/os/kernel_os.a(os_arch_arm.o) (os_set_env)
/Users/Luppy/PineTime/master-pinetime-rust-mynewt/bin/targets/nrf52_boot/app/kernel/os/kernel_os.a(SVC_Table.o)
                              /Users/Luppy/PineTime/master-pinetime-rust-mynewt/bin/targets/nrf52_boot/app/kernel/os/kernel_os.a(HAL_CM4.o) (SVC_Table)
/Users/Luppy/PineTime/master-pinetime-rust-mynewt/bin/targets/nrf52_boot/app/kernel/os/kernel_os.a(os_mbuf.o)
                              /Users/Luppy/PineTime/master-pinetime-rust-mynewt/bin/targets/nrf52_boot/app/kernel/os/kernel_os.a(os_msys.o) (os_mbuf_get)
/Users/Luppy/PineTime/master-pinetime-rust-mynewt/bin/targets/nrf52_boot/app/kernel/os/kernel_os.a(os_mutex.o)
                              /Users/Luppy/PineTime/master-pinetime-rust-mynewt/bin/targets/nrf52_boot/app/kernel/os/kernel_os.a(os_sanity.o) (os_mutex_init)
/Users/Luppy/PineTime/master-pinetime-rust-mynewt/bin/targets/nrf52_boot/app/libc/baselibc/libc_baselibc.a(memcmp.o)
                              /Users/Luppy/PineTime/master-pinetime-rust-mynewt/bin/targets/nrf52_boot/app/kernel/os/kernel_os.a(os_mbuf.o) (memcmp)
/Users/Luppy/PineTime/master-pinetime-rust-mynewt/bin/targets/nrf52_boot/app/libc/baselibc/libc_baselibc.a(memcpy.o)
                              /Users/Luppy/PineTime/master-pinetime-rust-mynewt/bin/targets/nrf52_boot/app/hw/mcu/nordic/nrf52xxx/hw_mcu_nordic_nrf52xxx.a(hal_flash.o) (memcpy)
/Users/Luppy/PineTime/master-pinetime-rust-mynewt/bin/targets/nrf52_boot/app/libc/baselibc/libc_baselibc.a(memmove.o)
                              /Users/Luppy/PineTime/master-pinetime-rust-mynewt/bin/targets/nrf52_boot/app/kernel/os/kernel_os.a(os_mbuf.o) (memmove)
/Users/Luppy/PineTime/master-pinetime-rust-mynewt/bin/targets/nrf52_boot/app/libc/baselibc/libc_baselibc.a(memset.o)
                              /Users/Luppy/PineTime/master-pinetime-rust-mynewt/bin/targets/nrf52_boot/app/hw/drivers/flash/spiflash/hw_drivers_flash_spiflash.a(spiflash.o) (memset)
/Users/Luppy/PineTime/master-pinetime-rust-mynewt/bin/targets/nrf52_boot/app/libc/baselibc/libc_baselibc.a(strcmp.o)
                              /Users/Luppy/PineTime/master-pinetime-rust-mynewt/bin/targets/nrf52_boot/app/kernel/os/kernel_os.a(os_dev.o) (strcmp)
/Users/Luppy/PineTime/master-pinetime-rust-mynewt/bin/targets/nrf52_boot/app/libc/baselibc/libc_baselibc.a(strncpy.o)
                              /Users/Luppy/PineTime/master-pinetime-rust-mynewt/bin/targets/nrf52_boot/app/kernel/os/kernel_os.a(os_mempool.o) (strncpy)
/Users/Luppy/PineTime/master-pinetime-rust-mynewt/bin/targets/nrf52_boot/app/libs/pinetime_boot/libs_pinetime_boot.a(pinetime_boot.o)
                              /Users/Luppy/PineTime/master-pinetime-rust-mynewt/bin/targets/nrf52_boot/app/boot/mynewt/boot_mynewt.a(main.o) (boot_custom_start)
/Users/Luppy/PineTime/master-pinetime-rust-mynewt/bin/targets/nrf52_boot/app/libs/pinetime_boot/libs_pinetime_boot.a(display.o)
                              /Users/Luppy/PineTime/master-pinetime-rust-mynewt/bin/targets/nrf52_boot/app/libs/pinetime_boot/libs_pinetime_boot.a(pinetime_boot.o) (pinetime_boot_display_image)
/Users/Luppy/PineTime/master-pinetime-rust-mynewt/bin/targets/nrf52_boot/app/libs/semihosting_console/libs_semihosting_console.a(console.o)
                              /Users/Luppy/PineTime/master-pinetime-rust-mynewt/bin/targets/nrf52_boot/app/boot/mynewt/boot_mynewt.a(main.o) (console_blocking_mode)
/Users/Luppy/PineTime/master-pinetime-rust-mynewt/bin/targets/nrf52_boot/app/libs/semihosting_console/libs_semihosting_console.a(console_fmt.o)
                              /Users/Luppy/PineTime/master-pinetime-rust-mynewt/bin/targets/nrf52_boot/app/kernel/os/kernel_os.a(os_fault.o) (console_printf)
/Users/Luppy/PineTime/master-pinetime-rust-mynewt/bin/targets/nrf52_boot/app/libs/semihosting_console/libs_semihosting_console.a(semihosting_console.o)
                              /Users/Luppy/PineTime/master-pinetime-rust-mynewt/bin/targets/nrf52_boot/app/libs/semihosting_console/libs_semihosting_console.a(console.o) (enable_buffer)
/Users/Luppy/PineTime/master-pinetime-rust-mynewt/bin/targets/nrf52_boot/app/libs/semihosting_console/libs_semihosting_console.a(ticks.o)
                              /Users/Luppy/PineTime/master-pinetime-rust-mynewt/bin/targets/nrf52_boot/app/libs/semihosting_console/libs_semihosting_console.a(console_fmt.o) (console_get_ticks)
/Users/Luppy/PineTime/master-pinetime-rust-mynewt/bin/targets/nrf52_boot/app/sys/sysdown/sys_sysdown.a(sysdown.o)
                              /Users/Luppy/PineTime/master-pinetime-rust-mynewt/bin/targets/nrf52_boot/app/kernel/os/kernel_os.a(os.o) (sysdown)
/Users/Luppy/PineTime/master-pinetime-rust-mynewt/bin/targets/nrf52_boot/app/sys/sysinit/sys_sysinit.a(sysinit.o)
                              /Users/Luppy/PineTime/master-pinetime-rust-mynewt/bin/targets/nrf52_boot/app/boot/mynewt/boot_mynewt.a(main.o) (sysinit_start)
/Users/Luppy/PineTime/master-pinetime-rust-mynewt/bin/targets/nrf52_boot/app/util/mem/util_mem.a(mem.o)
                              /Users/Luppy/PineTime/master-pinetime-rust-mynewt/bin/targets/nrf52_boot/app/kernel/os/kernel_os.a(os_msys.o) (mem_init_mbuf_pool)
/Users/Luppy/PineTime/master-pinetime-rust-mynewt/bin/targets/nrf52_boot/generated/bin/nrf52_boot-sysinit-app.a(nrf52_boot-sysdown-app.o)
                              /Users/Luppy/PineTime/master-pinetime-rust-mynewt/bin/targets/nrf52_boot/app/sys/sysdown/sys_sysdown.a(sysdown.o) (sysdown_cbs)
/Users/Luppy/PineTime/master-pinetime-rust-mynewt/bin/targets/nrf52_boot/generated/bin/nrf52_boot-sysinit-app.a(nrf52_boot-sysinit-app.o)
                              /Users/Luppy/PineTime/master-pinetime-rust-mynewt/bin/targets/nrf52_boot/app/boot/mynewt/boot_mynewt.a(main.o) (sysinit_app)
/Users/Luppy/PineTime/master-pinetime-rust-mynewt/bin/targets/nrf52_boot/app/boot/bootutil/boot_bootutil.a(bootutil_misc.o)
                              /Users/Luppy/PineTime/master-pinetime-rust-mynewt/bin/targets/nrf52_boot/app/libs/pinetime_boot/libs_pinetime_boot.a(pinetime_boot.o) (boot_set_pending)
/Users/Luppy/PineTime/master-pinetime-rust-mynewt/bin/targets/nrf52_boot/app/boot/bootutil/boot_bootutil.a(loader.o)
                              /Users/Luppy/PineTime/master-pinetime-rust-mynewt/bin/targets/nrf52_boot/app/boot/mynewt/boot_mynewt.a(main.o) (boot_go)
/Users/Luppy/PineTime/master-pinetime-rust-mynewt/bin/targets/nrf52_boot/app/boot/bootutil/boot_bootutil.a(swap_misc.o)
                              /Users/Luppy/PineTime/master-pinetime-rust-mynewt/bin/targets/nrf52_boot/app/boot/bootutil/boot_bootutil.a(loader.o) (swap_read_status)
/Users/Luppy/PineTime/master-pinetime-rust-mynewt/bin/targets/nrf52_boot/app/boot/bootutil/boot_bootutil.a(swap_scratch.o)
                              /Users/Luppy/PineTime/master-pinetime-rust-mynewt/bin/targets/nrf52_boot/app/boot/bootutil/boot_bootutil.a(loader.o) (boot_read_image_header)
/Users/Luppy/PineTime/master-pinetime-rust-mynewt/bin/targets/nrf52_boot/app/boot/bootutil/boot_bootutil.a(image_validate.o)
                              /Users/Luppy/PineTime/master-pinetime-rust-mynewt/bin/targets/nrf52_boot/app/boot/bootutil/boot_bootutil.a(loader.o) (bootutil_img_validate)
/Users/Luppy/PineTime/master-pinetime-rust-mynewt/bin/targets/nrf52_boot/app/boot/bootutil/boot_bootutil.a(tlv.o)
                              /Users/Luppy/PineTime/master-pinetime-rust-mynewt/bin/targets/nrf52_boot/app/boot/bootutil/boot_bootutil.a(image_validate.o) (bootutil_tlv_iter_begin)
/Users/Luppy/PineTime/master-pinetime-rust-mynewt/bin/targets/nrf52_boot/app/boot/mynewt/flash_map_backend/boot_mynewt_flash_map_backend.a(flash_map_extended.o)
                              /Users/Luppy/PineTime/master-pinetime-rust-mynewt/bin/targets/nrf52_boot/app/boot/bootutil/boot_bootutil.a(loader.o) (flash_area_id_from_multi_image_slot)
/Users/Luppy/PineTime/master-pinetime-rust-mynewt/bin/targets/nrf52_boot/app/crypto/mbedtls/crypto_mbedtls.a(sha256.o)
                              /Users/Luppy/PineTime/master-pinetime-rust-mynewt/bin/targets/nrf52_boot/app/boot/bootutil/boot_bootutil.a(image_validate.o) (mbedtls_sha256_init)
/Users/Luppy/PineTime/master-pinetime-rust-mynewt/bin/targets/nrf52_boot/app/crypto/mbedtls/crypto_mbedtls.a(platform_util.o)
                              /Users/Luppy/PineTime/master-pinetime-rust-mynewt/bin/targets/nrf52_boot/app/crypto/mbedtls/crypto_mbedtls.a(sha256.o) (mbedtls_platform_zeroize)
/Users/Luppy/PineTime/master-pinetime-rust-mynewt/bin/targets/nrf52_boot/app/hw/hal/hw_hal.a(hal_flash.o)
                              /Users/Luppy/PineTime/master-pinetime-rust-mynewt/bin/targets/nrf52_boot/app/libs/pinetime_boot/libs_pinetime_boot.a(display.o) (hal_flash_read)
/Users/Luppy/PineTime/master-pinetime-rust-mynewt/bin/targets/nrf52_boot/app/hw/mcu/nordic/nrf52xxx/hw_mcu_nordic_nrf52xxx.a(hal_os_tick.o)
                              /Users/Luppy/PineTime/master-pinetime-rust-mynewt/bin/targets/nrf52_boot/app/kernel/os/kernel_os.a(os.o) (os_tick_idle)
/Users/Luppy/PineTime/master-pinetime-rust-mynewt/bin/targets/nrf52_boot/app/hw/mcu/nordic/nrf52xxx/hw_mcu_nordic_nrf52xxx.a(hal_system_start.o)
                              /Users/Luppy/PineTime/master-pinetime-rust-mynewt/bin/targets/nrf52_boot/app/libs/pinetime_boot/libs_pinetime_boot.a(pinetime_boot.o) (hal_system_start)
/Users/Luppy/PineTime/master-pinetime-rust-mynewt/bin/targets/nrf52_boot/app/kernel/os/kernel_os.a(os_heap.o)
                              /Users/Luppy/PineTime/master-pinetime-rust-mynewt/bin/targets/nrf52_boot/app/boot/bootutil/boot_bootutil.a(loader.o) (os_malloc)
/Users/Luppy/PineTime/master-pinetime-rust-mynewt/bin/targets/nrf52_boot/app/libc/baselibc/libc_baselibc.a(inline.o)
                              /Users/Luppy/PineTime/master-pinetime-rust-mynewt/bin/targets/nrf52_boot/app/boot/bootutil/boot_bootutil.a(bootutil_misc.o) (puts)
/Users/Luppy/PineTime/master-pinetime-rust-mynewt/bin/targets/nrf52_boot/app/libc/baselibc/libc_baselibc.a(lrand48.o)
                              /Users/Luppy/PineTime/master-pinetime-rust-mynewt/bin/targets/nrf52_boot/app/libc/baselibc/libc_baselibc.a(inline.o) (lrand48)
/Users/Luppy/PineTime/master-pinetime-rust-mynewt/bin/targets/nrf52_boot/app/libc/baselibc/libc_baselibc.a(malloc.o)
                              /Users/Luppy/PineTime/master-pinetime-rust-mynewt/bin/targets/nrf52_boot/app/util/mem/util_mem.a(mem.o) (malloc)
/Users/Luppy/PineTime/master-pinetime-rust-mynewt/bin/targets/nrf52_boot/app/libc/baselibc/libc_baselibc.a(mynewt.o)
                              /Users/Luppy/PineTime/master-pinetime-rust-mynewt/bin/targets/nrf52_boot/app/libc/baselibc/libc_baselibc.a(inline.o) (stdout)
/Users/Luppy/PineTime/master-pinetime-rust-mynewt/bin/targets/nrf52_boot/app/libc/baselibc/libc_baselibc.a(realloc.o)
                              /Users/Luppy/PineTime/master-pinetime-rust-mynewt/bin/targets/nrf52_boot/app/kernel/os/kernel_os.a(os_heap.o) (realloc)
/Users/Luppy/PineTime/master-pinetime-rust-mynewt/bin/targets/nrf52_boot/app/libc/baselibc/libc_baselibc.a(srand48.o)
                              /Users/Luppy/PineTime/master-pinetime-rust-mynewt/bin/targets/nrf52_boot/app/libc/baselibc/libc_baselibc.a(inline.o) (srand48)
/Users/Luppy/PineTime/master-pinetime-rust-mynewt/bin/targets/nrf52_boot/app/libc/baselibc/libc_baselibc.a(strlen.o)
                              /Users/Luppy/PineTime/master-pinetime-rust-mynewt/bin/targets/nrf52_boot/app/libs/semihosting_console/libs_semihosting_console.a(semihosting_console.o) (strlen)
/Users/Luppy/PineTime/master-pinetime-rust-mynewt/bin/targets/nrf52_boot/app/libc/baselibc/libc_baselibc.a(tinyprintf.o)
                              /Users/Luppy/PineTime/master-pinetime-rust-mynewt/bin/targets/nrf52_boot/app/libs/semihosting_console/libs_semihosting_console.a(console_fmt.o) (printf)
/Users/Luppy/PineTime/master-pinetime-rust-mynewt/bin/targets/nrf52_boot/app/libc/baselibc/libc_baselibc.a(vprintf.o)
                              /Users/Luppy/PineTime/master-pinetime-rust-mynewt/bin/targets/nrf52_boot/app/libs/semihosting_console/libs_semihosting_console.a(console_fmt.o) (vprintf)
/Users/Luppy/PineTime/master-pinetime-rust-mynewt/bin/targets/nrf52_boot/app/libc/baselibc/libc_baselibc.a(jrand48.o)
                              /Users/Luppy/PineTime/master-pinetime-rust-mynewt/bin/targets/nrf52_boot/app/libc/baselibc/libc_baselibc.a(lrand48.o) (jrand48)
/Users/Luppy/PineTime/master-pinetime-rust-mynewt/bin/targets/nrf52_boot/app/libc/baselibc/libc_baselibc.a(memfile.o)
                              /Users/Luppy/PineTime/master-pinetime-rust-mynewt/bin/targets/nrf52_boot/app/libc/baselibc/libc_baselibc.a(tinyprintf.o) (fmemopen_w)
/Users/Luppy/PineTime/master-pinetime-rust-mynewt/bin/targets/nrf52_boot/app/sys/flash_map/sys_flash_map.a(flash_map.o)
                              /Users/Luppy/PineTime/master-pinetime-rust-mynewt/bin/targets/nrf52_boot/app/boot/bootutil/boot_bootutil.a(bootutil_misc.o) (flash_area_open)
/Users/Luppy/PineTime/master-pinetime-rust-mynewt/bin/targets/nrf52_boot/app/sys/log/modlog/sys_log_modlog.a(modlog.o)
                              /Users/Luppy/PineTime/master-pinetime-rust-mynewt/bin/targets/nrf52_boot/generated/bin/nrf52_boot-sysinit-app.a(nrf52_boot-sysinit-app.o) (modlog_init)
/Users/Luppy/PineTime/master-pinetime-rust-mynewt/bin/targets/nrf52_boot/app/sys/mfg/sys_mfg.a(mfg.o)
                              /Users/Luppy/PineTime/master-pinetime-rust-mynewt/bin/targets/nrf52_boot/app/sys/flash_map/sys_flash_map.a(flash_map.o) (mfg_seek_next_with_type)
/Users/Luppy/PineTime/master-pinetime-rust-mynewt/bin/targets/nrf52_boot/generated/bin/nrf52_boot-sysinit-app.a(nrf52_boot-sysflash.o)
                              /Users/Luppy/PineTime/master-pinetime-rust-mynewt/bin/targets/nrf52_boot/app/sys/flash_map/sys_flash_map.a(flash_map.o) (sysflash_map_dflt)
/usr/local/Cellar/arm-none-eabi-gcc/7-2018-q2-update/gcc/bin/../lib/gcc/arm-none-eabi/7.3.1/thumb/v7e-m/libgcc.a(_arm_cmpdf2.o)
                              /Users/Luppy/PineTime/master-pinetime-rust-mynewt/bin/targets/nrf52_boot/app/libs/semihosting_console/libs_semihosting_console.a(semihosting_console.o) (__aeabi_dcmplt)
/usr/local/Cellar/arm-none-eabi-gcc/7-2018-q2-update/gcc/bin/../lib/gcc/arm-none-eabi/7.3.1/thumb/v7e-m/libgcc.a(_arm_truncdfsf2.o)
                              /Users/Luppy/PineTime/master-pinetime-rust-mynewt/bin/targets/nrf52_boot/app/libs/semihosting_console/libs_semihosting_console.a(semihosting_console.o) (__aeabi_d2f)
/usr/local/Cellar/arm-none-eabi-gcc/7-2018-q2-update/gcc/bin/../lib/gcc/arm-none-eabi/7.3.1/thumb/v7e-m/libgcc.a(_arm_muldivsf3.o)
                              /Users/Luppy/PineTime/master-pinetime-rust-mynewt/bin/targets/nrf52_boot/app/libs/semihosting_console/libs_semihosting_console.a(semihosting_console.o) (__aeabi_fmul)
/usr/local/Cellar/arm-none-eabi-gcc/7-2018-q2-update/gcc/bin/../lib/gcc/arm-none-eabi/7.3.1/thumb/v7e-m/libgcc.a(_arm_cmpsf2.o)
                              /Users/Luppy/PineTime/master-pinetime-rust-mynewt/bin/targets/nrf52_boot/app/libs/semihosting_console/libs_semihosting_console.a(semihosting_console.o) (__aeabi_fcmplt)
/usr/local/Cellar/arm-none-eabi-gcc/7-2018-q2-update/gcc/bin/../lib/gcc/arm-none-eabi/7.3.1/thumb/v7e-m/libgcc.a(_arm_fixsfsi.o)
                              /Users/Luppy/PineTime/master-pinetime-rust-mynewt/bin/targets/nrf52_boot/app/libs/semihosting_console/libs_semihosting_console.a(semihosting_console.o) (__aeabi_f2iz)
/usr/local/Cellar/arm-none-eabi-gcc/7-2018-q2-update/gcc/bin/../lib/gcc/arm-none-eabi/7.3.1/thumb/v7e-m/libgcc.a(_aeabi_uldivmod.o)
                              /Users/Luppy/PineTime/master-pinetime-rust-mynewt/bin/targets/nrf52_boot/app/kernel/os/kernel_os.a(os_time.o) (__aeabi_uldivmod)
/usr/local/Cellar/arm-none-eabi-gcc/7-2018-q2-update/gcc/bin/../lib/gcc/arm-none-eabi/7.3.1/thumb/v7e-m/libgcc.a(_udivmoddi4.o)
                              /usr/local/Cellar/arm-none-eabi-gcc/7-2018-q2-update/gcc/bin/../lib/gcc/arm-none-eabi/7.3.1/thumb/v7e-m/libgcc.a(_aeabi_uldivmod.o) (__udivmoddi4)
/usr/local/Cellar/arm-none-eabi-gcc/7-2018-q2-update/gcc/bin/../lib/gcc/arm-none-eabi/7.3.1/thumb/v7e-m/libgcc.a(_dvmd_tls.o)
                              /usr/local/Cellar/arm-none-eabi-gcc/7-2018-q2-update/gcc/bin/../lib/gcc/arm-none-eabi/7.3.1/thumb/v7e-m/libgcc.a(_aeabi_uldivmod.o) (__aeabi_ldiv0)

Allocating common symbols
Common symbol       size              file

g_os_task_list      0x8               /Users/Luppy/PineTime/master-pinetime-rust-mynewt/bin/targets/nrf52_boot/app/kernel/os/kernel_os.a(os_task.o)
__rand48_seed       0x6               /Users/Luppy/PineTime/master-pinetime-rust-mynewt/bin/targets/nrf52_boot/app/libc/baselibc/libc_baselibc.a(srand48.o)
g_os_mempool_list   0x8               /Users/Luppy/PineTime/master-pinetime-rust-mynewt/bin/targets/nrf52_boot/app/kernel/os/kernel_os.a(os_mempool.o)
flash_map           0x4               /Users/Luppy/PineTime/master-pinetime-rust-mynewt/bin/targets/nrf52_boot/app/sys/flash_map/sys_flash_map.a(flash_map.o)
console_is_midline  0x4               /Users/Luppy/PineTime/master-pinetime-rust-mynewt/bin/targets/nrf52_boot/app/libs/semihosting_console/libs_semihosting_console.a(console.o)
g_callout_list      0x8               /Users/Luppy/PineTime/master-pinetime-rust-mynewt/bin/targets/nrf52_boot/app/kernel/os/kernel_os.a(os_callout.o)
g_current_task      0x4               /Users/Luppy/PineTime/master-pinetime-rust-mynewt/bin/targets/nrf52_boot/app/kernel/os/kernel_os.a(os_sched.o)
sysdown_active      0x1               /Users/Luppy/PineTime/master-pinetime-rust-mynewt/bin/targets/nrf52_boot/app/sys/sysdown/sys_sysdown.a(sysdown.o)
g_task_id           0x1               /Users/Luppy/PineTime/master-pinetime-rust-mynewt/bin/targets/nrf52_boot/app/kernel/os/kernel_os.a(os_task.o)
g_console_input_ignore
                    0x1               /Users/Luppy/PineTime/master-pinetime-rust-mynewt/bin/targets/nrf52_boot/app/libs/semihosting_console/libs_semihosting_console.a(console.o)
g_os_sanity_check_mu
                    0xc               /Users/Luppy/PineTime/master-pinetime-rust-mynewt/bin/targets/nrf52_boot/app/kernel/os/kernel_os.a(os_sanity.o)
sysinit_active      0x1               /Users/Luppy/PineTime/master-pinetime-rust-mynewt/bin/targets/nrf52_boot/app/sys/sysinit/sys_sysinit.a(sysinit.o)
g_os_time           0x4               /Users/Luppy/PineTime/master-pinetime-rust-mynewt/bin/targets/nrf52_boot/app/kernel/os/kernel_os.a(os_time.o)
g_idle_task         0x50              /Users/Luppy/PineTime/master-pinetime-rust-mynewt/bin/targets/nrf52_boot/app/kernel/os/kernel_os.a(os.o)
g_os_last_ctx_sw_time
                    0x4               /Users/Luppy/PineTime/master-pinetime-rust-mynewt/bin/targets/nrf52_boot/app/kernel/os/kernel_os.a(os_sched.o)
g_os_idle_ctr       0x4               /Users/Luppy/PineTime/master-pinetime-rust-mynewt/bin/targets/nrf52_boot/app/kernel/os/kernel_os.a(os.o)
nrf52_hal_spi0      0x28              /Users/Luppy/PineTime/master-pinetime-rust-mynewt/bin/targets/nrf52_boot/app/hw/mcu/nordic/nrf52xxx/hw_mcu_nordic_nrf52xxx.a(hal_spi.o)
g_silence_console   0x1               /Users/Luppy/PineTime/master-pinetime-rust-mynewt/bin/targets/nrf52_boot/app/libs/semihosting_console/libs_semihosting_console.a(console.o)
flash_map_entries   0x4               /Users/Luppy/PineTime/master-pinetime-rust-mynewt/bin/targets/nrf52_boot/app/sys/flash_map/sys_flash_map.a(flash_map.o)
nrf52_hal_timer0    0x1c              /Users/Luppy/PineTime/master-pinetime-rust-mynewt/bin/targets/nrf52_boot/app/hw/mcu/nordic/nrf52xxx/hw_mcu_nordic_nrf52xxx.a(hal_timer.o)
g_hal_os_tick       0xc               /Users/Luppy/PineTime/master-pinetime-rust-mynewt/bin/targets/nrf52_boot/app/hw/mcu/nordic/nrf52xxx/hw_mcu_nordic_nrf52xxx.a(hal_os_tick.o)
g_os_started        0x4               /Users/Luppy/PineTime/master-pinetime-rust-mynewt/bin/targets/nrf52_boot/app/kernel/os/kernel_os.a(os.o)
boot_current_slot   0x4               /Users/Luppy/PineTime/master-pinetime-rust-mynewt/bin/targets/nrf52_boot/app/boot/bootutil/boot_bootutil.a(bootutil_misc.o)
g_os_main_task      0x50              /Users/Luppy/PineTime/master-pinetime-rust-mynewt/bin/targets/nrf52_boot/app/kernel/os/kernel_os.a(os.o)

Discarded input sections

 .data          0x0000000000000000        0x0 /Users/Luppy/PineTime/master-pinetime-rust-mynewt/bin/targets/nrf52_boot/app/hw/bsp/nrf52/hw_bsp_nrf52.a(gcc_startup_nrf52.o)
 .bss           0x0000000000000000        0x0 /Users/Luppy/PineTime/master-pinetime-rust-mynewt/bin/targets/nrf52_boot/app/hw/bsp/nrf52/hw_bsp_nrf52.a(gcc_startup_nrf52.o)
 .ARM.extab     0x0000000000000000        0x0 /Users/Luppy/PineTime/master-pinetime-rust-mynewt/bin/targets/nrf52_boot/app/hw/bsp/nrf52/hw_bsp_nrf52.a(gcc_startup_nrf52.o)
 .text          0x0000000000000000        0x0 /Users/Luppy/PineTime/master-pinetime-rust-mynewt/bin/targets/nrf52_boot/app/hw/bsp/nrf52/hw_bsp_nrf52.a(sbrk.o)
 .bss           0x0000000000000000        0x0 /Users/Luppy/PineTime/master-pinetime-rust-mynewt/bin/targets/nrf52_boot/app/hw/bsp/nrf52/hw_bsp_nrf52.a(sbrk.o)
 .text._sbrk    0x0000000000000000       0x3c /Users/Luppy/PineTime/master-pinetime-rust-mynewt/bin/targets/nrf52_boot/app/hw/bsp/nrf52/hw_bsp_nrf52.a(sbrk.o)
 .text          0x0000000000000000        0x0 /Users/Luppy/PineTime/master-pinetime-rust-mynewt/bin/targets/nrf52_boot/app/hw/mcu/nordic/nrf52xxx/hw_mcu_nordic_nrf52xxx.a(hal_system.o)
 .data          0x0000000000000000        0x0 /Users/Luppy/PineTime/master-pinetime-rust-mynewt/bin/targets/nrf52_boot/app/hw/mcu/nordic/nrf52xxx/hw_mcu_nordic_nrf52xxx.a(hal_system.o)
 .bss           0x0000000000000000        0x0 /Users/Luppy/PineTime/master-pinetime-rust-mynewt/bin/targets/nrf52_boot/app/hw/mcu/nordic/nrf52xxx/hw_mcu_nordic_nrf52xxx.a(hal_system.o)
 .text          0x0000000000000000        0x0 /Users/Luppy/PineTime/master-pinetime-rust-mynewt/bin/targets/nrf52_boot/app/hw/mcu/nordic/nrf52xxx/hw_mcu_nordic_nrf52xxx.a(system_nrf52.o)
 .data          0x0000000000000000        0x0 /Users/Luppy/PineTime/master-pinetime-rust-mynewt/bin/targets/nrf52_boot/app/hw/mcu/nordic/nrf52xxx/hw_mcu_nordic_nrf52xxx.a(system_nrf52.o)
 .bss           0x0000000000000000        0x0 /Users/Luppy/PineTime/master-pinetime-rust-mynewt/bin/targets/nrf52_boot/app/hw/mcu/nordic/nrf52xxx/hw_mcu_nordic_nrf52xxx.a(system_nrf52.o)
 .text          0x0000000000000000        0x0 /Users/Luppy/PineTime/master-pinetime-rust-mynewt/bin/targets/nrf52_boot/app/libc/baselibc/libc_baselibc.a(start.o)
 .data          0x0000000000000000        0x0 /Users/Luppy/PineTime/master-pinetime-rust-mynewt/bin/targets/nrf52_boot/app/libc/baselibc/libc_baselibc.a(start.o)
 .bss           0x0000000000000000        0x0 /Users/Luppy/PineTime/master-pinetime-rust-mynewt/bin/targets/nrf52_boot/app/libc/baselibc/libc_baselibc.a(start.o)
 .text          0x0000000000000000        0x0 /Users/Luppy/PineTime/master-pinetime-rust-mynewt/bin/targets/nrf52_boot/app/boot/mynewt/boot_mynewt.a(main.o)
 .data          0x0000000000000000        0x0 /Users/Luppy/PineTime/master-pinetime-rust-mynewt/bin/targets/nrf52_boot/app/boot/mynewt/boot_mynewt.a(main.o)
 .bss           0x0000000000000000        0x0 /Users/Luppy/PineTime/master-pinetime-rust-mynewt/bin/targets/nrf52_boot/app/boot/mynewt/boot_mynewt.a(main.o)
Memory Configuration

Name             Origin             Length             Attributes
FLASH            0x0000000000000000 0x0000000000006000 xr
RAM              0x0000000020000000 0x0000000000010000 xrw
*default*        0x0000000000000000 0xffffffffffffffff

Linker script and memory map

START GROUP
LOAD /Users/Luppy/PineTime/master-pinetime-rust-mynewt/bin/targets/nrf52_boot/app/boot/bootutil/boot_bootutil.a
LOAD /Users/Luppy/PineTime/master-pinetime-rust-mynewt/bin/targets/nrf52_boot/app/boot/mynewt/boot_mynewt.a
LOAD /Users/Luppy/PineTime/master-pinetime-rust-mynewt/bin/targets/nrf52_boot/app/boot/mynewt/flash_map_backend/boot_mynewt_flash_map_backend.a
LOAD /Users/Luppy/PineTime/master-pinetime-rust-mynewt/bin/targets/nrf52_boot/app/crypto/mbedtls/crypto_mbedtls.a
LOAD /Users/Luppy/PineTime/master-pinetime-rust-mynewt/bin/targets/nrf52_boot/app/hw/bsp/nrf52/hw_bsp_nrf52.a
LOAD /Users/Luppy/PineTime/master-pinetime-rust-mynewt/bin/targets/nrf52_boot/app/hw/cmsis-core/hw_cmsis-core.a
LOAD /Users/Luppy/PineTime/master-pinetime-rust-mynewt/bin/targets/nrf52_boot/app/hw/drivers/flash/spiflash/hw_drivers_flash_spiflash.a
LOAD /Users/Luppy/PineTime/master-pinetime-rust-mynewt/bin/targets/nrf52_boot/app/hw/hal/hw_hal.a
LOAD /Users/Luppy/PineTime/master-pinetime-rust-mynewt/bin/targets/nrf52_boot/app/hw/mcu/nordic/hw_mcu_nordic.a
LOAD /Users/Luppy/PineTime/master-pinetime-rust-mynewt/bin/targets/nrf52_boot/app/hw/mcu/nordic/nrf52xxx/hw_mcu_nordic_nrf52xxx.a
LOAD /Users/Luppy/PineTime/master-pinetime-rust-mynewt/bin/targets/nrf52_boot/app/kernel/os/kernel_os.a
LOAD /Users/Luppy/PineTime/master-pinetime-rust-mynewt/bin/targets/nrf52_boot/app/libc/baselibc/libc_baselibc.a
LOAD /Users/Luppy/PineTime/master-pinetime-rust-mynewt/bin/targets/nrf52_boot/app/libs/pinetime_boot/libs_pinetime_boot.a
LOAD /Users/Luppy/PineTime/master-pinetime-rust-mynewt/bin/targets/nrf52_boot/app/libs/semihosting_console/libs_semihosting_console.a
LOAD /Users/Luppy/PineTime/master-pinetime-rust-mynewt/bin/targets/nrf52_boot/app/sys/flash_map/sys_flash_map.a
LOAD /Users/Luppy/PineTime/master-pinetime-rust-mynewt/bin/targets/nrf52_boot/app/sys/log/modlog/sys_log_modlog.a
LOAD /Users/Luppy/PineTime/master-pinetime-rust-mynewt/bin/targets/nrf52_boot/app/sys/log/stub/sys_log_stub.a
LOAD /Users/Luppy/PineTime/master-pinetime-rust-mynewt/bin/targets/nrf52_boot/app/sys/mfg/sys_mfg.a
LOAD /Users/Luppy/PineTime/master-pinetime-rust-mynewt/bin/targets/nrf52_boot/app/sys/sysdown/sys_sysdown.a
LOAD /Users/Luppy/PineTime/master-pinetime-rust-mynewt/bin/targets/nrf52_boot/app/sys/sysinit/sys_sysinit.a
LOAD /Users/Luppy/PineTime/master-pinetime-rust-mynewt/bin/targets/nrf52_boot/app/util/mem/util_mem.a
LOAD /Users/Luppy/PineTime/master-pinetime-rust-mynewt/bin/targets/nrf52_boot/app/util/rwlock/util_rwlock.a
LOAD /Users/Luppy/PineTime/master-pinetime-rust-mynewt/bin/targets/nrf52_boot/generated/bin/nrf52_boot-sysinit-app.a
END GROUP
LOAD /usr/local/Cellar/arm-none-eabi-gcc/7-2018-q2-update/gcc/bin/../lib/gcc/arm-none-eabi/7.3.1/thumb/v7e-m/libgcc.a
START GROUP
LOAD /usr/local/Cellar/arm-none-eabi-gcc/7-2018-q2-update/gcc/bin/../lib/gcc/arm-none-eabi/7.3.1/thumb/v7e-m/libgcc.a
LOAD /usr/local/Cellar/arm-none-eabi-gcc/7-2018-q2-update/gcc/bin/../lib/gcc/arm-none-eabi/7.3.1/../../../../arm-none-eabi/lib/thumb/v7e-m/libg.a
LOAD /usr/local/Cellar/arm-none-eabi-gcc/7-2018-q2-update/gcc/bin/../lib/gcc/arm-none-eabi/7.3.1/../../../../arm-none-eabi/lib/thumb/v7e-m/libc.a
END GROUP
START GROUP
LOAD /usr/local/Cellar/arm-none-eabi-gcc/7-2018-q2-update/gcc/bin/../lib/gcc/arm-none-eabi/7.3.1/thumb/v7e-m/libgcc.a
LOAD /usr/local/Cellar/arm-none-eabi-gcc/7-2018-q2-update/gcc/bin/../lib/gcc/arm-none-eabi/7.3.1/../../../../arm-none-eabi/lib/thumb/v7e-m/libc.a
LOAD /usr/local/Cellar/arm-none-eabi-gcc/7-2018-q2-update/gcc/bin/../lib/gcc/arm-none-eabi/7.3.1/../../../../arm-none-eabi/lib/thumb/v7e-m/libnosys.a
END GROUP
                0x0000000000000000                _imghdr_size = 0x0

.imghdr         0x0000000000000000        0x0
                0x0000000000000000                . = (. + _imghdr_size)
                0x0000000000000000                __text = .

.text           0x0000000000000000     0x5998
                0x0000000000000000                __isr_vector_start = .
 *(.isr_vector)
 .isr_vector    0x0000000000000000       0xd8 /Users/Luppy/PineTime/master-pinetime-rust-mynewt/bin/targets/nrf52_boot/app/hw/bsp/nrf52/hw_bsp_nrf52.a(gcc_startup_nrf52.o)
                0x0000000000000000                __isr_vector
                0x00000000000000d8                __isr_vector_end = .
 *(.text*)
 .text          0x00000000000000d8       0x70 /Users/Luppy/PineTime/master-pinetime-rust-mynewt/bin/targets/nrf52_boot/app/hw/bsp/nrf52/hw_bsp_nrf52.a(gcc_startup_nrf52.o)
                0x00000000000000d8                Reset_Handler
                0x0000000000000134                NMI_Handler
                0x0000000000000136                HardFault_Handler
                0x0000000000000138                MemoryManagement_Handler
                0x000000000000013a                BusFault_Handler
                0x000000000000013c                UsageFault_Handler
                0x0000000000000144                POWER_CLOCK_IRQHandler
                0x0000000000000144                RADIO_IRQHandler
                0x0000000000000144                PDM_IRQHandler
                0x0000000000000144                TEMP_IRQHandler
                0x0000000000000144                QDEC_IRQHandler
                0x0000000000000144                TIMER3_IRQHandler
                0x0000000000000144                SPIM0_SPIS0_TWIM0_TWIS0_SPI0_TWI0_IRQHandler
                0x0000000000000144                UARTE0_UART0_IRQHandler
                0x0000000000000144                TIMER4_IRQHandler
                0x0000000000000144                I2S_IRQHandler
                0x0000000000000144                SWI4_EGU4_IRQHandler
                0x0000000000000144                TIMER0_IRQHandler
                0x0000000000000144                TIMER1_IRQHandler
                0x0000000000000144                PWM2_IRQHandler
                0x0000000000000144                ECB_IRQHandler
                0x0000000000000144                SPIM1_SPIS1_TWIM1_TWIS1_SPI1_TWI1_IRQHandler
                0x0000000000000144                Default_Handler
                0x0000000000000144                SAADC_IRQHandler
                0x0000000000000144                CCM_AAR_IRQHandler
                0x0000000000000144                WDT_IRQHandler
                0x0000000000000144                SWI5_EGU5_IRQHandler
                0x0000000000000144                RNG_IRQHandler
                0x0000000000000144                RTC2_IRQHandler
                0x0000000000000144                PWM0_IRQHandler
                0x0000000000000144                SWI3_EGU3_IRQHandler
                0x0000000000000144                RTC1_IRQHandler
                0x0000000000000144                SWI1_EGU1_IRQHandler
                0x0000000000000144                SPIM2_SPIS2_SPI2_IRQHandler
                0x0000000000000144                NFCT_IRQHandler
                0x0000000000000144                MWU_IRQHandler
                0x0000000000000144                TIMER2_IRQHandler
                0x0000000000000144                COMP_LPCOMP_IRQHandler
                0x0000000000000144                RTC0_IRQHandler
                0x0000000000000144                SWI0_EGU0_IRQHandler
                0x0000000000000144                SWI2_EGU2_IRQHandler
                0x0000000000000144                GPIOTE_IRQHandler
                0x0000000000000144                PWM1_IRQHandler
 .text._sbrkInit
                0x0000000000000148       0x10 /Users/Luppy/PineTime/master-pinetime-rust-mynewt/bin/targets/nrf52_boot/app/hw/bsp/nrf52/hw_bsp_nrf52.a(sbrk.o)
                0x0000000000000148                _sbrkInit
 .text.hal_system_init
                0x0000000000000158        0xc /Users/Luppy/PineTime/master-pinetime-rust-mynewt/bin/targets/nrf52_boot/app/hw/mcu/nordic/nrf52xxx/hw_mcu_nordic_nrf52xxx.a(hal_system.o)
                0x0000000000000158                hal_system_init
 .text.hal_debugger_connected
                0x0000000000000164       0x10 /Users/Luppy/PineTime/master-pinetime-rust-mynewt/bin/targets/nrf52_boot/app/hw/mcu/nordic/nrf52xxx/hw_mcu_nordic_nrf52xxx.a(hal_system.o)
                0x0000000000000164                hal_debugger_connected
 .text.hal_system_reset
                0x0000000000000174       0x2c /Users/Luppy/PineTime/master-pinetime-rust-mynewt/bin/targets/nrf52_boot/app/hw/mcu/nordic/nrf52xxx/hw_mcu_nordic_nrf52xxx.a(hal_system.o)
                0x0000000000000174                hal_system_reset
 .text.hal_system_clock_start
                0x00000000000001a0       0x4c /Users/Luppy/PineTime/master-pinetime-rust-mynewt/bin/targets/nrf52_boot/app/hw/mcu/nordic/nrf52xxx/hw_mcu_nordic_nrf52xxx.a(hal_system.o)
                0x00000000000001a0                hal_system_clock_start
 .text.errata_16
                0x00000000000001ec       0x3c /Users/Luppy/PineTime/master-pinetime-rust-mynewt/bin/targets/nrf52_boot/app/hw/mcu/nordic/nrf52xxx/hw_mcu_nordic_nrf52xxx.a(system_nrf52.o)
 .text.errata_31
                0x0000000000000228       0x4c /Users/Luppy/PineTime/master-pinetime-rust-mynewt/bin/targets/nrf52_boot/app/hw/mcu/nordic/nrf52xxx/hw_mcu_nordic_nrf52xxx.a(system_nrf52.o)
 .text.errata_32
                0x0000000000000274       0x3c /Users/Luppy/PineTime/master-pinetime-rust-mynewt/bin/targets/nrf52_boot/app/hw/mcu/nordic/nrf52xxx/hw_mcu_nordic_nrf52xxx.a(system_nrf52.o)
 .text.errata_36
                0x00000000000002b0       0x4c /Users/Luppy/PineTime/master-pinetime-rust-mynewt/bin/targets/nrf52_boot/app/hw/mcu/nordic/nrf52xxx/hw_mcu_nordic_nrf52xxx.a(system_nrf52.o)
 .text.errata_37
                0x00000000000002fc       0x3c /Users/Luppy/PineTime/master-pinetime-rust-mynewt/bin/targets/nrf52_boot/app/hw/mcu/nordic/nrf52xxx/hw_mcu_nordic_nrf52xxx.a(system_nrf52.o)
 .text.errata_57
                0x0000000000000338       0x3c /Users/Luppy/PineTime/master-pinetime-rust-mynewt/bin/targets/nrf52_boot/app/hw/mcu/nordic/nrf52xxx/hw_mcu_nordic_nrf52xxx.a(system_nrf52.o)
 .text.errata_66
                0x0000000000000374       0x3c /Users/Luppy/PineTime/master-pinetime-rust-mynewt/bin/targets/nrf52_boot/app/hw/mcu/nordic/nrf52xxx/hw_mcu_nordic_nrf52xxx.a(system_nrf52.o)
 .text.errata_108
                0x00000000000003b0       0x4c /Users/Luppy/PineTime/master-pinetime-rust-mynewt/bin/targets/nrf52_boot/app/hw/mcu/nordic/nrf52xxx/hw_mcu_nordic_nrf52xxx.a(system_nrf52.o)
 .text.SystemCoreClockUpdate
                0x00000000000003fc       0x10 /Users/Luppy/PineTime/master-pinetime-rust-mynewt/bin/targets/nrf52_boot/app/hw/mcu/nordic/nrf52xxx/hw_mcu_nordic_nrf52xxx.a(system_nrf52.o)
                0x00000000000003fc                SystemCoreClockUpdate
 .text.SystemInit
                0x000000000000040c      0x1c0 /Users/Luppy/PineTime/master-pinetime-rust-mynewt/bin/targets/nrf52_boot/app/hw/mcu/nordic/nrf52xxx/hw_mcu_nordic_nrf52xxx.a(system_nrf52.o)
                0x000000000000040c                SystemInit
 .text._start   0x00000000000005cc        0xe /Users/Luppy/PineTime/master-pinetime-rust-mynewt/bin/targets/nrf52_boot/app/libc/baselibc/libc_baselibc.a(start.o)
                0x00000000000005cc                _start
 .text._init    0x00000000000005da        0x2 /Users/Luppy/PineTime/master-pinetime-rust-mynewt/bin/targets/nrf52_boot/app/libc/baselibc/libc_baselibc.a(start.o)
                0x00000000000005da                _init
 .text.flash_device_base
                0x00000000000005dc        0x6 /Users/Luppy/PineTime/master-pinetime-rust-mynewt/bin/targets/nrf52_boot/app/boot/mynewt/boot_mynewt.a(main.o)
                0x00000000000005dc                flash_device_base
 .text.main     0x00000000000005e2       0x76 /Users/Luppy/PineTime/master-pinetime-rust-mynewt/bin/targets/nrf52_boot/app/boot/mynewt/boot_mynewt.a(main.o)
                0x00000000000005e2                main
 .text.hal_bsp_flash_dev
                0x0000000000000658       0x14 /Users/Luppy/PineTime/master-pinetime-rust-mynewt/bin/targets/nrf52_boot/app/hw/bsp/nrf52/hw_bsp_nrf52.a(hal_bsp.o)
                0x0000000000000658                hal_bsp_flash_dev
 .text.hal_bsp_init
                0x000000000000066c        0xc /Users/Luppy/PineTime/master-pinetime-rust-mynewt/bin/targets/nrf52_boot/app/hw/bsp/nrf52/hw_bsp_nrf52.a(hal_bsp.o)
                0x000000000000066c                hal_bsp_init
 .text.NVIC_Relocate
                0x0000000000000678       0x34 /Users/Luppy/PineTime/master-pinetime-rust-mynewt/bin/targets/nrf52_boot/app/hw/cmsis-core/hw_cmsis-core.a(cmsis_nvic.o)
                0x0000000000000678                NVIC_Relocate
 .text.hal_spiflash_sector_info
                0x00000000000006ac       0x14 /Users/Luppy/PineTime/master-pinetime-rust-mynewt/bin/targets/nrf52_boot/app/hw/drivers/flash/spiflash/hw_drivers_flash_spiflash.a(spiflash.o)
 .text.spiflash_release_power_down_generic
                0x00000000000006c0       0x2e /Users/Luppy/PineTime/master-pinetime-rust-mynewt/bin/targets/nrf52_boot/app/hw/drivers/flash/spiflash/hw_drivers_flash_spiflash.a(spiflash.o)
 .text.spiflash_delay_us
                0x00000000000006ee        0x8 /Users/Luppy/PineTime/master-pinetime-rust-mynewt/bin/targets/nrf52_boot/app/hw/drivers/flash/spiflash/hw_drivers_flash_spiflash.a(spiflash.o)
 .text.spiflash_read_jedec_id
                0x00000000000006f6       0x5a /Users/Luppy/PineTime/master-pinetime-rust-mynewt/bin/targets/nrf52_boot/app/hw/drivers/flash/spiflash/hw_drivers_flash_spiflash.a(spiflash.o)
                0x00000000000006f6                spiflash_read_jedec_id
 .text.spiflash_read_status
                0x0000000000000750       0x2a /Users/Luppy/PineTime/master-pinetime-rust-mynewt/bin/targets/nrf52_boot/app/hw/drivers/flash/spiflash/hw_drivers_flash_spiflash.a(spiflash.o)
                0x0000000000000750                spiflash_read_status
 .text.spiflash_device_ready
                0x000000000000077a       0x16 /Users/Luppy/PineTime/master-pinetime-rust-mynewt/bin/targets/nrf52_boot/app/hw/drivers/flash/spiflash/hw_drivers_flash_spiflash.a(spiflash.o)
                0x000000000000077a                spiflash_device_ready
 .text.spiflash_wait_ready_till
                0x0000000000000790       0x50 /Users/Luppy/PineTime/master-pinetime-rust-mynewt/bin/targets/nrf52_boot/app/hw/drivers/flash/spiflash/hw_drivers_flash_spiflash.a(spiflash.o)
 .text.spiflash_wait_ready
                0x00000000000007e0       0x16 /Users/Luppy/PineTime/master-pinetime-rust-mynewt/bin/targets/nrf52_boot/app/hw/drivers/flash/spiflash/hw_drivers_flash_spiflash.a(spiflash.o)
                0x00000000000007e0                spiflash_wait_ready
 .text.hal_spiflash_read
                0x00000000000007f6       0x6a /Users/Luppy/PineTime/master-pinetime-rust-mynewt/bin/targets/nrf52_boot/app/hw/drivers/flash/spiflash/hw_drivers_flash_spiflash.a(spiflash.o)
 .text.spiflash_write_enable
                0x0000000000000860       0x20 /Users/Luppy/PineTime/master-pinetime-rust-mynewt/bin/targets/nrf52_boot/app/hw/drivers/flash/spiflash/hw_drivers_flash_spiflash.a(spiflash.o)
                0x0000000000000860                spiflash_write_enable
 .text.hal_spiflash_write
                0x0000000000000880       0xc8 /Users/Luppy/PineTime/master-pinetime-rust-mynewt/bin/targets/nrf52_boot/app/hw/drivers/flash/spiflash/hw_drivers_flash_spiflash.a(spiflash.o)
 .text.spiflash_execute_erase
                0x0000000000000948       0x78 /Users/Luppy/PineTime/master-pinetime-rust-mynewt/bin/targets/nrf52_boot/app/hw/drivers/flash/spiflash/hw_drivers_flash_spiflash.a(spiflash.o)
 .text.spiflash_erase_cmd
                0x00000000000009c0       0x2c /Users/Luppy/PineTime/master-pinetime-rust-mynewt/bin/targets/nrf52_boot/app/hw/drivers/flash/spiflash/hw_drivers_flash_spiflash.a(spiflash.o)
 .text.spiflash_sector_erase
                0x00000000000009ec        0xe /Users/Luppy/PineTime/master-pinetime-rust-mynewt/bin/targets/nrf52_boot/app/hw/drivers/flash/spiflash/hw_drivers_flash_spiflash.a(spiflash.o)
                0x00000000000009ec                spiflash_sector_erase
 .text.hal_spiflash_erase_sector
                0x00000000000009fa        0x8 /Users/Luppy/PineTime/master-pinetime-rust-mynewt/bin/targets/nrf52_boot/app/hw/drivers/flash/spiflash/hw_drivers_flash_spiflash.a(spiflash.o)
 .text.spiflash_block_32k_erase
                0x0000000000000a02       0x10 /Users/Luppy/PineTime/master-pinetime-rust-mynewt/bin/targets/nrf52_boot/app/hw/drivers/flash/spiflash/hw_drivers_flash_spiflash.a(spiflash.o)
                0x0000000000000a02                spiflash_block_32k_erase
 .text.spiflash_block_64k_erase
                0x0000000000000a12       0x10 /Users/Luppy/PineTime/master-pinetime-rust-mynewt/bin/targets/nrf52_boot/app/hw/drivers/flash/spiflash/hw_drivers_flash_spiflash.a(spiflash.o)
                0x0000000000000a12                spiflash_block_64k_erase
 .text.spiflash_chip_erase
                0x0000000000000a22       0x1c /Users/Luppy/PineTime/master-pinetime-rust-mynewt/bin/targets/nrf52_boot/app/hw/drivers/flash/spiflash/hw_drivers_flash_spiflash.a(spiflash.o)
                0x0000000000000a22                spiflash_chip_erase
 .text.spiflash_erase
                0x0000000000000a3e       0x8e /Users/Luppy/PineTime/master-pinetime-rust-mynewt/bin/targets/nrf52_boot/app/hw/drivers/flash/spiflash/hw_drivers_flash_spiflash.a(spiflash.o)
                0x0000000000000a3e                spiflash_erase
 .text.hal_spiflash_erase
                0x0000000000000acc        0x8 /Users/Luppy/PineTime/master-pinetime-rust-mynewt/bin/targets/nrf52_boot/app/hw/drivers/flash/spiflash/hw_drivers_flash_spiflash.a(spiflash.o)
 .text.spiflash_identify
                0x0000000000000ad4       0x64 /Users/Luppy/PineTime/master-pinetime-rust-mynewt/bin/targets/nrf52_boot/app/hw/drivers/flash/spiflash/hw_drivers_flash_spiflash.a(spiflash.o)
                0x0000000000000ad4                spiflash_identify
 .text.hal_spiflash_init
                0x0000000000000b38       0x3e /Users/Luppy/PineTime/master-pinetime-rust-mynewt/bin/targets/nrf52_boot/app/hw/drivers/flash/spiflash/hw_drivers_flash_spiflash.a(spiflash.o)
 .text._exit    0x0000000000000b76        0x6 /Users/Luppy/PineTime/master-pinetime-rust-mynewt/bin/targets/nrf52_boot/app/hw/hal/hw_hal.a(hal_common.o)
                0x0000000000000b76                _exit
 .text.nrf52k_flash_wait_ready
                0x0000000000000b7c       0x28 /Users/Luppy/PineTime/master-pinetime-rust-mynewt/bin/targets/nrf52_boot/app/hw/mcu/nordic/nrf52xxx/hw_mcu_nordic_nrf52xxx.a(hal_flash.o)
 .text.nrf52k_flash_erase_sector
                0x0000000000000ba4       0x54 /Users/Luppy/PineTime/master-pinetime-rust-mynewt/bin/targets/nrf52_boot/app/hw/mcu/nordic/nrf52xxx/hw_mcu_nordic_nrf52xxx.a(hal_flash.o)
 .text.nrf52k_flash_init
                0x0000000000000bf8        0x4 /Users/Luppy/PineTime/master-pinetime-rust-mynewt/bin/targets/nrf52_boot/app/hw/mcu/nordic/nrf52xxx/hw_mcu_nordic_nrf52xxx.a(hal_flash.o)
 .text.nrf52k_flash_sector_info
                0x0000000000000bfc       0x20 /Users/Luppy/PineTime/master-pinetime-rust-mynewt/bin/targets/nrf52_boot/app/hw/mcu/nordic/nrf52xxx/hw_mcu_nordic_nrf52xxx.a(hal_flash.o)
 .text.nrf52k_flash_write
                0x0000000000000c1c       0xd0 /Users/Luppy/PineTime/master-pinetime-rust-mynewt/bin/targets/nrf52_boot/app/hw/mcu/nordic/nrf52xxx/hw_mcu_nordic_nrf52xxx.a(hal_flash.o)
 .text.nrf52k_flash_read
                0x0000000000000cec        0xe /Users/Luppy/PineTime/master-pinetime-rust-mynewt/bin/targets/nrf52_boot/app/hw/mcu/nordic/nrf52xxx/hw_mcu_nordic_nrf52xxx.a(hal_flash.o)
 .text.hal_gpio_init_in
                0x0000000000000cfa       0x2c /Users/Luppy/PineTime/master-pinetime-rust-mynewt/bin/targets/nrf52_boot/app/hw/mcu/nordic/nrf52xxx/hw_mcu_nordic_nrf52xxx.a(hal_gpio.o)
                0x0000000000000cfa                hal_gpio_init_in
 .text.hal_gpio_init_out
                0x0000000000000d26       0x38 /Users/Luppy/PineTime/master-pinetime-rust-mynewt/bin/targets/nrf52_boot/app/hw/mcu/nordic/nrf52xxx/hw_mcu_nordic_nrf52xxx.a(hal_gpio.o)
                0x0000000000000d26                hal_gpio_init_out
 .text.hal_gpio_write
                0x0000000000000d5e       0x22 /Users/Luppy/PineTime/master-pinetime-rust-mynewt/bin/targets/nrf52_boot/app/hw/mcu/nordic/nrf52xxx/hw_mcu_nordic_nrf52xxx.a(hal_gpio.o)
                0x0000000000000d5e                hal_gpio_write
 .text.hal_gpio_read
                0x0000000000000d80       0x34 /Users/Luppy/PineTime/master-pinetime-rust-mynewt/bin/targets/nrf52_boot/app/hw/mcu/nordic/nrf52xxx/hw_mcu_nordic_nrf52xxx.a(hal_gpio.o)
                0x0000000000000d80                hal_gpio_read
 .text.nrf52_irqm_handler
                0x0000000000000db4       0x6e /Users/Luppy/PineTime/master-pinetime-rust-mynewt/bin/targets/nrf52_boot/app/hw/mcu/nordic/nrf52xxx/hw_mcu_nordic_nrf52xxx.a(hal_spi.o)
 *fill*         0x0000000000000e22        0x2 
 .text.nrf52_spi0_irq_handler
                0x0000000000000e24       0x18 /Users/Luppy/PineTime/master-pinetime-rust-mynewt/bin/targets/nrf52_boot/app/hw/mcu/nordic/nrf52xxx/hw_mcu_nordic_nrf52xxx.a(hal_spi.o)
                0x0000000000000e24                nrf52_spi0_irq_handler
 .text.hal_spi_stop_transfer
                0x0000000000000e3c       0x14 /Users/Luppy/PineTime/master-pinetime-rust-mynewt/bin/targets/nrf52_boot/app/hw/mcu/nordic/nrf52xxx/hw_mcu_nordic_nrf52xxx.a(hal_spi.o)
 .text.hal_spi_config_slave
                0x0000000000000e50       0x4a /Users/Luppy/PineTime/master-pinetime-rust-mynewt/bin/targets/nrf52_boot/app/hw/mcu/nordic/nrf52xxx/hw_mcu_nordic_nrf52xxx.a(hal_spi.o)
 *fill*         0x0000000000000e9a        0x2 
 .text.hal_spi_init_master
                0x0000000000000e9c       0xb8 /Users/Luppy/PineTime/master-pinetime-rust-mynewt/bin/targets/nrf52_boot/app/hw/mcu/nordic/nrf52xxx/hw_mcu_nordic_nrf52xxx.a(hal_spi.o)
 .text.hal_spi_config_master
                0x0000000000000f54       0xde /Users/Luppy/PineTime/master-pinetime-rust-mynewt/bin/targets/nrf52_boot/app/hw/mcu/nordic/nrf52xxx/hw_mcu_nordic_nrf52xxx.a(hal_spi.o)
 *fill*         0x0000000000001032        0x2 
 .text.hal_spi_config
                0x0000000000001034       0x38 /Users/Luppy/PineTime/master-pinetime-rust-mynewt/bin/targets/nrf52_boot/app/hw/mcu/nordic/nrf52xxx/hw_mcu_nordic_nrf52xxx.a(hal_spi.o)
                0x0000000000001034                hal_spi_config
 .text.hal_spi_enable
                0x000000000000106c       0x4c /Users/Luppy/PineTime/master-pinetime-rust-mynewt/bin/targets/nrf52_boot/app/hw/mcu/nordic/nrf52xxx/hw_mcu_nordic_nrf52xxx.a(hal_spi.o)
                0x000000000000106c                hal_spi_enable
 .text.hal_spi_disable
                0x00000000000010b8       0x68 /Users/Luppy/PineTime/master-pinetime-rust-mynewt/bin/targets/nrf52_boot/app/hw/mcu/nordic/nrf52xxx/hw_mcu_nordic_nrf52xxx.a(hal_spi.o)
                0x00000000000010b8                hal_spi_disable
 .text.hal_spi_init
                0x0000000000001120       0x60 /Users/Luppy/PineTime/master-pinetime-rust-mynewt/bin/targets/nrf52_boot/app/hw/mcu/nordic/nrf52xxx/hw_mcu_nordic_nrf52xxx.a(hal_spi.o)
                0x0000000000001120                hal_spi_init
 .text.hal_spi_tx_val
                0x0000000000001180       0x48 /Users/Luppy/PineTime/master-pinetime-rust-mynewt/bin/targets/nrf52_boot/app/hw/mcu/nordic/nrf52xxx/hw_mcu_nordic_nrf52xxx.a(hal_spi.o)
                0x0000000000001180                hal_spi_tx_val
 .text.hal_spi_set_txrx_cb
                0x00000000000011c8       0x2c /Users/Luppy/PineTime/master-pinetime-rust-mynewt/bin/targets/nrf52_boot/app/hw/mcu/nordic/nrf52xxx/hw_mcu_nordic_nrf52xxx.a(hal_spi.o)
                0x00000000000011c8                hal_spi_set_txrx_cb
 .text.hal_spi_txrx
                0x00000000000011f4       0xac /Users/Luppy/PineTime/master-pinetime-rust-mynewt/bin/targets/nrf52_boot/app/hw/mcu/nordic/nrf52xxx/hw_mcu_nordic_nrf52xxx.a(hal_spi.o)
                0x00000000000011f4                hal_spi_txrx
 .text.nrf52_hal_wdt_default_handler
                0x00000000000012a0        0xe /Users/Luppy/PineTime/master-pinetime-rust-mynewt/bin/targets/nrf52_boot/app/hw/mcu/nordic/nrf52xxx/hw_mcu_nordic_nrf52xxx.a(hal_watchdog.o)
 *fill*         0x00000000000012ae        0x2 
 .text.nrf52_wdt_irq_handler
                0x00000000000012b0       0x20 /Users/Luppy/PineTime/master-pinetime-rust-mynewt/bin/targets/nrf52_boot/app/hw/mcu/nordic/nrf52xxx/hw_mcu_nordic_nrf52xxx.a(hal_watchdog.o)
 .text.hal_watchdog_init
                0x00000000000012d0       0x78 /Users/Luppy/PineTime/master-pinetime-rust-mynewt/bin/targets/nrf52_boot/app/hw/mcu/nordic/nrf52xxx/hw_mcu_nordic_nrf52xxx.a(hal_watchdog.o)
                0x00000000000012d0                hal_watchdog_init
 .text.nrf52_periph_create_timers
                0x0000000000001348       0x34 /Users/Luppy/PineTime/master-pinetime-rust-mynewt/bin/targets/nrf52_boot/app/hw/mcu/nordic/nrf52xxx/hw_mcu_nordic_nrf52xxx.a(nrf52_periph.o)
 .text.nrf52_periph_create_spi
                0x000000000000137c       0x20 /Users/Luppy/PineTime/master-pinetime-rust-mynewt/bin/targets/nrf52_boot/app/hw/mcu/nordic/nrf52xxx/hw_mcu_nordic_nrf52xxx.a(nrf52_periph.o)
 .text.nrf52_periph_create
                0x000000000000139c        0xc /Users/Luppy/PineTime/master-pinetime-rust-mynewt/bin/targets/nrf52_boot/app/hw/mcu/nordic/nrf52xxx/hw_mcu_nordic_nrf52xxx.a(nrf52_periph.o)
                0x000000000000139c                nrf52_periph_create
 .text.nrf_read_timer_cntr
                0x00000000000013a8        0xa /Users/Luppy/PineTime/master-pinetime-rust-mynewt/bin/targets/nrf52_boot/app/hw/mcu/nordic/nrf52xxx/hw_mcu_nordic_nrf52xxx.a(hal_timer.o)
 *fill*         0x00000000000013b2        0x2 
 .text.nrf_timer_set_ocmp
                0x00000000000013b4       0xb4 /Users/Luppy/PineTime/master-pinetime-rust-mynewt/bin/targets/nrf52_boot/app/hw/mcu/nordic/nrf52xxx/hw_mcu_nordic_nrf52xxx.a(hal_timer.o)
 .text.nrf_timer_disable_ocmp
                0x0000000000001468        0xa /Users/Luppy/PineTime/master-pinetime-rust-mynewt/bin/targets/nrf52_boot/app/hw/mcu/nordic/nrf52xxx/hw_mcu_nordic_nrf52xxx.a(hal_timer.o)
 .text.nrf_rtc_disable_ocmp
                0x0000000000001472        0xa /Users/Luppy/PineTime/master-pinetime-rust-mynewt/bin/targets/nrf52_boot/app/hw/mcu/nordic/nrf52xxx/hw_mcu_nordic_nrf52xxx.a(hal_timer.o)
 .text.hal_timer_read_bsptimer
                0x000000000000147c       0x54 /Users/Luppy/PineTime/master-pinetime-rust-mynewt/bin/targets/nrf52_boot/app/hw/mcu/nordic/nrf52xxx/hw_mcu_nordic_nrf52xxx.a(hal_timer.o)
 .text.hal_timer_chk_queue
                0x00000000000014d0       0x76 /Users/Luppy/PineTime/master-pinetime-rust-mynewt/bin/targets/nrf52_boot/app/hw/mcu/nordic/nrf52xxx/hw_mcu_nordic_nrf52xxx.a(hal_timer.o)
 .text.hal_timer_irq_handler
                0x0000000000001546       0x2c /Users/Luppy/PineTime/master-pinetime-rust-mynewt/bin/targets/nrf52_boot/app/hw/mcu/nordic/nrf52xxx/hw_mcu_nordic_nrf52xxx.a(hal_timer.o)
 *fill*         0x0000000000001572        0x2 
 .text.nrf52_timer0_irq_handler
                0x0000000000001574       0x10 /Users/Luppy/PineTime/master-pinetime-rust-mynewt/bin/targets/nrf52_boot/app/hw/mcu/nordic/nrf52xxx/hw_mcu_nordic_nrf52xxx.a(hal_timer.o)
                0x0000000000001574                nrf52_timer0_irq_handler
 .text.hal_timer_init
                0x0000000000001584       0x60 /Users/Luppy/PineTime/master-pinetime-rust-mynewt/bin/targets/nrf52_boot/app/hw/mcu/nordic/nrf52xxx/hw_mcu_nordic_nrf52xxx.a(hal_timer.o)
                0x0000000000001584                hal_timer_init
 .text.hal_timer_config
                0x00000000000015e4       0xf8 /Users/Luppy/PineTime/master-pinetime-rust-mynewt/bin/targets/nrf52_boot/app/hw/mcu/nordic/nrf52xxx/hw_mcu_nordic_nrf52xxx.a(hal_timer.o)
                0x00000000000015e4                hal_timer_config
 .text.hal_timer_read
                0x00000000000016dc       0x30 /Users/Luppy/PineTime/master-pinetime-rust-mynewt/bin/targets/nrf52_boot/app/hw/mcu/nordic/nrf52xxx/hw_mcu_nordic_nrf52xxx.a(hal_timer.o)
                0x00000000000016dc                hal_timer_read
 .text.__assert_func
                0x000000000000170c       0x4c /Users/Luppy/PineTime/master-pinetime-rust-mynewt/bin/targets/nrf52_boot/app/kernel/os/kernel_os.a(os_fault.o)
                0x000000000000170c                __assert_func
 .text.os_default_irq
                0x0000000000001758       0x98 /Users/Luppy/PineTime/master-pinetime-rust-mynewt/bin/targets/nrf52_boot/app/kernel/os/kernel_os.a(os_fault.o)
                0x0000000000001758                os_default_irq
 .text.os_cputime_init
                0x00000000000017f0        0xc /Users/Luppy/PineTime/master-pinetime-rust-mynewt/bin/targets/nrf52_boot/app/kernel/os/kernel_os.a(os_cputime.o)
                0x00000000000017f0                os_cputime_init
 .text.os_cputime_get32
                0x00000000000017fc        0xa /Users/Luppy/PineTime/master-pinetime-rust-mynewt/bin/targets/nrf52_boot/app/kernel/os/kernel_os.a(os_cputime.o)
                0x00000000000017fc                os_cputime_get32
 .text.os_cputime_delay_ticks
                0x0000000000001806       0x16 /Users/Luppy/PineTime/master-pinetime-rust-mynewt/bin/targets/nrf52_boot/app/kernel/os/kernel_os.a(os_cputime.o)
                0x0000000000001806                os_cputime_delay_ticks
 .text.os_cputime_delay_usecs
                0x000000000000181c        0x8 /Users/Luppy/PineTime/master-pinetime-rust-mynewt/bin/targets/nrf52_boot/app/kernel/os/kernel_os.a(os_cputime.o)
                0x000000000000181c                os_cputime_delay_usecs
 .text.os_dev_initialize
                0x0000000000001824       0x26 /Users/Luppy/PineTime/master-pinetime-rust-mynewt/bin/targets/nrf52_boot/app/kernel/os/kernel_os.a(os_dev.o)
 *fill*         0x000000000000184a        0x2 
 .text.os_dev_initialize_all
                0x000000000000184c       0x2c /Users/Luppy/PineTime/master-pinetime-rust-mynewt/bin/targets/nrf52_boot/app/kernel/os/kernel_os.a(os_dev.o)
                0x000000000000184c                os_dev_initialize_all
 .text.timer_handler
                0x0000000000001878        0xa /Users/Luppy/PineTime/master-pinetime-rust-mynewt/bin/targets/nrf52_boot/app/kernel/os/kernel_os.a(os_arch_arm.o)
                0x0000000000001878                timer_handler
 .text.os_arch_save_sr
                0x0000000000001882        0xc /Users/Luppy/PineTime/master-pinetime-rust-mynewt/bin/targets/nrf52_boot/app/kernel/os/kernel_os.a(os_arch_arm.o)
                0x0000000000001882                os_arch_save_sr
 .text.os_arch_restore_sr
                0x000000000000188e        0x6 /Users/Luppy/PineTime/master-pinetime-rust-mynewt/bin/targets/nrf52_boot/app/kernel/os/kernel_os.a(os_arch_arm.o)
                0x000000000000188e                os_arch_restore_sr
 .text.os_pkg_init
                0x0000000000001894       0x22 /Users/Luppy/PineTime/master-pinetime-rust-mynewt/bin/targets/nrf52_boot/app/kernel/os/kernel_os.a(os.o)
                0x0000000000001894                os_pkg_init
 .text.os_eventq_init
                0x00000000000018b6       0x10 /Users/Luppy/PineTime/master-pinetime-rust-mynewt/bin/targets/nrf52_boot/app/kernel/os/kernel_os.a(os_eventq.o)
                0x00000000000018b6                os_eventq_init
 *fill*         0x00000000000018c6        0x2 
 .text.os_mempool_init_internal
                0x00000000000018c8       0x78 /Users/Luppy/PineTime/master-pinetime-rust-mynewt/bin/targets/nrf52_boot/app/kernel/os/kernel_os.a(os_mempool.o)
 .text.os_mempool_init
                0x0000000000001940       0x14 /Users/Luppy/PineTime/master-pinetime-rust-mynewt/bin/targets/nrf52_boot/app/kernel/os/kernel_os.a(os_mempool.o)
                0x0000000000001940                os_mempool_init
 .text.os_memblock_get
                0x0000000000001954       0x32 /Users/Luppy/PineTime/master-pinetime-rust-mynewt/bin/targets/nrf52_boot/app/kernel/os/kernel_os.a(os_mempool.o)
                0x0000000000001954                os_memblock_get
 .text.os_memblock_put_from_cb
                0x0000000000001986       0x1e /Users/Luppy/PineTime/master-pinetime-rust-mynewt/bin/targets/nrf52_boot/app/kernel/os/kernel_os.a(os_mempool.o)
                0x0000000000001986                os_memblock_put_from_cb
 .text.os_memblock_put
                0x00000000000019a4       0x26 /Users/Luppy/PineTime/master-pinetime-rust-mynewt/bin/targets/nrf52_boot/app/kernel/os/kernel_os.a(os_mempool.o)
                0x00000000000019a4                os_memblock_put
 *fill*         0x00000000000019ca        0x2 
 .text.os_mempool_module_init
                0x00000000000019cc       0x10 /Users/Luppy/PineTime/master-pinetime-rust-mynewt/bin/targets/nrf52_boot/app/kernel/os/kernel_os.a(os_mempool.o)
                0x00000000000019cc                os_mempool_module_init
 .text.os_msys_find_biggest_pool
                0x00000000000019dc       0x10 /Users/Luppy/PineTime/master-pinetime-rust-mynewt/bin/targets/nrf52_boot/app/kernel/os/kernel_os.a(os_msys.o)
 .text.os_msys_find_pool
                0x00000000000019ec       0x2c /Users/Luppy/PineTime/master-pinetime-rust-mynewt/bin/targets/nrf52_boot/app/kernel/os/kernel_os.a(os_msys.o)
 .text.os_msys_register
                0x0000000000001a18       0x4c /Users/Luppy/PineTime/master-pinetime-rust-mynewt/bin/targets/nrf52_boot/app/kernel/os/kernel_os.a(os_msys.o)
                0x0000000000001a18                os_msys_register
 .text.os_msys_init_once
                0x0000000000001a64       0x44 /Users/Luppy/PineTime/master-pinetime-rust-mynewt/bin/targets/nrf52_boot/app/kernel/os/kernel_os.a(os_msys.o)
 .text.os_msys_reset
                0x0000000000001aa8       0x10 /Users/Luppy/PineTime/master-pinetime-rust-mynewt/bin/targets/nrf52_boot/app/kernel/os/kernel_os.a(os_msys.o)
                0x0000000000001aa8                os_msys_reset
 .text.os_msys_get_pkthdr
                0x0000000000001ab8       0x28 /Users/Luppy/PineTime/master-pinetime-rust-mynewt/bin/targets/nrf52_boot/app/kernel/os/kernel_os.a(os_msys.o)
                0x0000000000001ab8                os_msys_get_pkthdr
 .text.os_msys_init
                0x0000000000001ae0       0x34 /Users/Luppy/PineTime/master-pinetime-rust-mynewt/bin/targets/nrf52_boot/app/kernel/os/kernel_os.a(os_msys.o)
                0x0000000000001ae0                os_msys_init
 .text.os_time_get
                0x0000000000001b14        0xc /Users/Luppy/PineTime/master-pinetime-rust-mynewt/bin/targets/nrf52_boot/app/kernel/os/kernel_os.a(os_time.o)
                0x0000000000001b14                os_time_get
 .text.os_time_advance
                0x0000000000001b20       0x10 /Users/Luppy/PineTime/master-pinetime-rust-mynewt/bin/targets/nrf52_boot/app/kernel/os/kernel_os.a(os_time.o)
                0x0000000000001b20                os_time_advance
 .text          0x0000000000001b30       0xc8 /Users/Luppy/PineTime/master-pinetime-rust-mynewt/bin/targets/nrf52_boot/app/kernel/os/kernel_os.a(HAL_CM4.o)
                0x0000000000001b30                os_set_env
                0x0000000000001b44                os_arch_init_task_stack
                0x0000000000001b4a                SVC_Handler
                0x0000000000001b90                PendSV_Handler
                0x0000000000001bba                SysTick_Handler
                0x0000000000001bc6                os_default_irq_asm
 .text.os_mbuf_pool_init
                0x0000000000001bf8        0xa /Users/Luppy/PineTime/master-pinetime-rust-mynewt/bin/targets/nrf52_boot/app/kernel/os/kernel_os.a(os_mbuf.o)
                0x0000000000001bf8                os_mbuf_pool_init
 .text.os_mbuf_get
                0x0000000000001c02       0x32 /Users/Luppy/PineTime/master-pinetime-rust-mynewt/bin/targets/nrf52_boot/app/kernel/os/kernel_os.a(os_mbuf.o)
                0x0000000000001c02                os_mbuf_get
 .text.os_mbuf_get_pkthdr
                0x0000000000001c34       0x36 /Users/Luppy/PineTime/master-pinetime-rust-mynewt/bin/targets/nrf52_boot/app/kernel/os/kernel_os.a(os_mbuf.o)
                0x0000000000001c34                os_mbuf_get_pkthdr
 .text.os_mbuf_free
                0x0000000000001c6a       0x14 /Users/Luppy/PineTime/master-pinetime-rust-mynewt/bin/targets/nrf52_boot/app/kernel/os/kernel_os.a(os_mbuf.o)
                0x0000000000001c6a                os_mbuf_free
 .text.os_mbuf_free_chain
                0x0000000000001c7e       0x24 /Users/Luppy/PineTime/master-pinetime-rust-mynewt/bin/targets/nrf52_boot/app/kernel/os/kernel_os.a(os_mbuf.o)
                0x0000000000001c7e                os_mbuf_free_chain
 .text.os_mbuf_len
                0x0000000000001ca2       0x14 /Users/Luppy/PineTime/master-pinetime-rust-mynewt/bin/targets/nrf52_boot/app/kernel/os/kernel_os.a(os_mbuf.o)
                0x0000000000001ca2                os_mbuf_len
 .text.os_mbuf_append
                0x0000000000001cb6       0xa8 /Users/Luppy/PineTime/master-pinetime-rust-mynewt/bin/targets/nrf52_boot/app/kernel/os/kernel_os.a(os_mbuf.o)
                0x0000000000001cb6                os_mbuf_append
 .text.os_mutex_init
                0x0000000000001d5e       0x14 /Users/Luppy/PineTime/master-pinetime-rust-mynewt/bin/targets/nrf52_boot/app/kernel/os/kernel_os.a(os_mutex.o)
                0x0000000000001d5e                os_mutex_init
 .text.memcmp   0x0000000000001d72       0x48 /Users/Luppy/PineTime/master-pinetime-rust-mynewt/bin/targets/nrf52_boot/app/libc/baselibc/libc_baselibc.a(memcmp.o)
                0x0000000000001d72                memcmp
 .text.memcpy   0x0000000000001dba       0x1a /Users/Luppy/PineTime/master-pinetime-rust-mynewt/bin/targets/nrf52_boot/app/libc/baselibc/libc_baselibc.a(memcpy.o)
                0x0000000000001dba                memcpy
 .text.memset   0x0000000000001dd4       0x38 /Users/Luppy/PineTime/master-pinetime-rust-mynewt/bin/targets/nrf52_boot/app/libc/baselibc/libc_baselibc.a(memset.o)
                0x0000000000001dd4                memset
 .text.relocate_vector_table
                0x0000000000001e0c       0x50 /Users/Luppy/PineTime/master-pinetime-rust-mynewt/bin/targets/nrf52_boot/app/libs/pinetime_boot/libs_pinetime_boot.a(pinetime_boot.o)
 .text.pinetime_boot_init
                0x0000000000001e5c       0x98 /Users/Luppy/PineTime/master-pinetime-rust-mynewt/bin/targets/nrf52_boot/app/libs/pinetime_boot/libs_pinetime_boot.a(pinetime_boot.o)
                0x0000000000001e5c                pinetime_boot_init
 .text.boot_custom_start
                0x0000000000001ef4       0x30 /Users/Luppy/PineTime/master-pinetime-rust-mynewt/bin/targets/nrf52_boot/app/libs/pinetime_boot/libs_pinetime_boot.a(pinetime_boot.o)
                0x0000000000001ef4                boot_custom_start
 .text.hard_reset
                0x0000000000001f24       0x1e /Users/Luppy/PineTime/master-pinetime-rust-mynewt/bin/targets/nrf52_boot/app/libs/pinetime_boot/libs_pinetime_boot.a(display.o)
 *fill*         0x0000000000001f42        0x2 
 .text.delay_ms
                0x0000000000001f44       0x24 /Users/Luppy/PineTime/master-pinetime-rust-mynewt/bin/targets/nrf52_boot/app/libs/pinetime_boot/libs_pinetime_boot.a(display.o)
 .text.transmit_spi
                0x0000000000001f68       0x3a /Users/Luppy/PineTime/master-pinetime-rust-mynewt/bin/targets/nrf52_boot/app/libs/pinetime_boot/libs_pinetime_boot.a(display.o)
 .text.write_data
                0x0000000000001fa2       0x1a /Users/Luppy/PineTime/master-pinetime-rust-mynewt/bin/targets/nrf52_boot/app/libs/pinetime_boot/libs_pinetime_boot.a(display.o)
 .text.write_command
                0x0000000000001fbc       0x4e /Users/Luppy/PineTime/master-pinetime-rust-mynewt/bin/targets/nrf52_boot/app/libs/pinetime_boot/libs_pinetime_boot.a(display.o)
 *fill*         0x000000000000200a        0x2 
 .text.init_display
                0x000000000000200c      0x14c /Users/Luppy/PineTime/master-pinetime-rust-mynewt/bin/targets/nrf52_boot/app/libs/pinetime_boot/libs_pinetime_boot.a(display.o)
 .text.set_orientation
                0x0000000000002158       0x28 /Users/Luppy/PineTime/master-pinetime-rust-mynewt/bin/targets/nrf52_boot/app/libs/pinetime_boot/libs_pinetime_boot.a(display.o)
 .text.set_window
                0x0000000000002180       0xd0 /Users/Luppy/PineTime/master-pinetime-rust-mynewt/bin/targets/nrf52_boot/app/libs/pinetime_boot/libs_pinetime_boot.a(display.o)
 .text.pinetime_boot_display_image
                0x0000000000002250       0xe4 /Users/Luppy/PineTime/master-pinetime-rust-mynewt/bin/targets/nrf52_boot/app/libs/pinetime_boot/libs_pinetime_boot.a(display.o)
                0x0000000000002250                pinetime_boot_display_image
 .text.console_write
                0x0000000000002334       0x1e /Users/Luppy/PineTime/master-pinetime-rust-mynewt/bin/targets/nrf52_boot/app/libs/semihosting_console/libs_semihosting_console.a(console.o)
                0x0000000000002334                console_write
 .text.console_blocking_mode
                0x0000000000002352        0x8 /Users/Luppy/PineTime/master-pinetime-rust-mynewt/bin/targets/nrf52_boot/app/libs/semihosting_console/libs_semihosting_console.a(console.o)
                0x0000000000002352                console_blocking_mode
 *fill*         0x000000000000235a        0x2 
 .text.console_pkg_init
                0x000000000000235c       0x38 /Users/Luppy/PineTime/master-pinetime-rust-mynewt/bin/targets/nrf52_boot/app/libs/semihosting_console/libs_semihosting_console.a(console.o)
                0x000000000000235c                console_pkg_init
 .text.console_printf
                0x0000000000002394       0x48 /Users/Luppy/PineTime/master-pinetime-rust-mynewt/bin/targets/nrf52_boot/app/libs/semihosting_console/libs_semihosting_console.a(console_fmt.o)
                0x0000000000002394                console_printf
 .text.__semihost
                0x00000000000023dc       0x24 /Users/Luppy/PineTime/master-pinetime-rust-mynewt/bin/targets/nrf52_boot/app/libs/semihosting_console/libs_semihosting_console.a(semihosting_console.o)
 .text.debugger_connected
                0x0000000000002400       0x10 /Users/Luppy/PineTime/master-pinetime-rust-mynewt/bin/targets/nrf52_boot/app/libs/semihosting_console/libs_semihosting_console.a(semihosting_console.o)
 .text.semihost_write
                0x0000000000002410       0x2e /Users/Luppy/PineTime/master-pinetime-rust-mynewt/bin/targets/nrf52_boot/app/libs/semihosting_console/libs_semihosting_console.a(semihosting_console.o)
 *fill*         0x000000000000243e        0x2 
 .text.console_flush
                0x0000000000002440       0x48 /Users/Luppy/PineTime/master-pinetime-rust-mynewt/bin/targets/nrf52_boot/app/libs/semihosting_console/libs_semihosting_console.a(semihosting_console.o)
                0x0000000000002440                console_flush
 .text.disable_buffer
                0x0000000000002488        0x8 /Users/Luppy/PineTime/master-pinetime-rust-mynewt/bin/targets/nrf52_boot/app/libs/semihosting_console/libs_semihosting_console.a(semihosting_console.o)
                0x0000000000002488                disable_buffer
 .text.console_buffer
                0x0000000000002490       0x54 /Users/Luppy/PineTime/master-pinetime-rust-mynewt/bin/targets/nrf52_boot/app/libs/semihosting_console/libs_semihosting_console.a(semihosting_console.o)
                0x0000000000002490                console_buffer
 .text.semihosting_console_write_ch
                0x00000000000024e4       0x1c /Users/Luppy/PineTime/master-pinetime-rust-mynewt/bin/targets/nrf52_boot/app/libs/semihosting_console/libs_semihosting_console.a(semihosting_console.o)
 .text.console_out_nolock
                0x0000000000002500       0x3c /Users/Luppy/PineTime/master-pinetime-rust-mynewt/bin/targets/nrf52_boot/app/libs/semihosting_console/libs_semihosting_console.a(semihosting_console.o)
                0x0000000000002500                console_out_nolock
 .text.semihosting_console_init
                0x000000000000253c        0x4 /Users/Luppy/PineTime/master-pinetime-rust-mynewt/bin/targets/nrf52_boot/app/libs/semihosting_console/libs_semihosting_console.a(semihosting_console.o)
                0x000000000000253c                semihosting_console_init
 .text.console_get_ticks
                0x0000000000002540        0xc /Users/Luppy/PineTime/master-pinetime-rust-mynewt/bin/targets/nrf52_boot/app/libs/semihosting_console/libs_semihosting_console.a(ticks.o)
                0x0000000000002540                console_get_ticks
 .text.sysinit_dflt_panic_cb
                0x000000000000254c        0x6 /Users/Luppy/PineTime/master-pinetime-rust-mynewt/bin/targets/nrf52_boot/app/sys/sysinit/sys_sysinit.a(sysinit.o)
 *fill*         0x0000000000002552        0x2 
 .text.sysinit_start
                0x0000000000002554        0xc /Users/Luppy/PineTime/master-pinetime-rust-mynewt/bin/targets/nrf52_boot/app/sys/sysinit/sys_sysinit.a(sysinit.o)
                0x0000000000002554                sysinit_start
 .text.sysinit_end
                0x0000000000002560        0xc /Users/Luppy/PineTime/master-pinetime-rust-mynewt/bin/targets/nrf52_boot/app/sys/sysinit/sys_sysinit.a(sysinit.o)
                0x0000000000002560                sysinit_end
 .text.mem_init_mbuf_pool
                0x000000000000256c       0x30 /Users/Luppy/PineTime/master-pinetime-rust-mynewt/bin/targets/nrf52_boot/app/util/mem/util_mem.a(mem.o)
                0x000000000000256c                mem_init_mbuf_pool
 .text.sysinit_app
                0x000000000000259c       0x1c /Users/Luppy/PineTime/master-pinetime-rust-mynewt/bin/targets/nrf52_boot/generated/bin/nrf52_boot-sysinit-app.a(nrf52_boot-sysinit-app.o)
                0x000000000000259c                sysinit_app
 .text.boot_flag_decode
                0x00000000000025b8        0xc /Users/Luppy/PineTime/master-pinetime-rust-mynewt/bin/targets/nrf52_boot/app/boot/bootutil/boot_bootutil.a(bootutil_misc.o)
 .text.boot_magic_decode
                0x00000000000025c4       0x18 /Users/Luppy/PineTime/master-pinetime-rust-mynewt/bin/targets/nrf52_boot/app/boot/bootutil/boot_bootutil.a(bootutil_misc.o)
 .text.boot_find_status
                0x00000000000025dc       0x60 /Users/Luppy/PineTime/master-pinetime-rust-mynewt/bin/targets/nrf52_boot/app/boot/bootutil/boot_bootutil.a(bootutil_misc.o)
 .text.boot_write_trailer
                0x000000000000263c       0x6a /Users/Luppy/PineTime/master-pinetime-rust-mynewt/bin/targets/nrf52_boot/app/boot/bootutil/boot_bootutil.a(bootutil_misc.o)
 .text.boot_write_trailer_flag
                0x00000000000026a6       0x16 /Users/Luppy/PineTime/master-pinetime-rust-mynewt/bin/targets/nrf52_boot/app/boot/bootutil/boot_bootutil.a(bootutil_misc.o)
 .text.boot_magic_compatible_check
                0x00000000000026bc       0x20 /Users/Luppy/PineTime/master-pinetime-rust-mynewt/bin/targets/nrf52_boot/app/boot/bootutil/boot_bootutil.a(bootutil_misc.o)
                0x00000000000026bc                boot_magic_compatible_check
 .text.boot_status_sz
                0x00000000000026dc        0x8 /Users/Luppy/PineTime/master-pinetime-rust-mynewt/bin/targets/nrf52_boot/app/boot/bootutil/boot_bootutil.a(bootutil_misc.o)
                0x00000000000026dc                boot_status_sz
 .text.boot_trailer_sz
                0x00000000000026e4        0xa /Users/Luppy/PineTime/master-pinetime-rust-mynewt/bin/targets/nrf52_boot/app/boot/bootutil/boot_bootutil.a(bootutil_misc.o)
                0x00000000000026e4                boot_trailer_sz
 .text.boot_status_entries
                0x00000000000026ee       0x1e /Users/Luppy/PineTime/master-pinetime-rust-mynewt/bin/targets/nrf52_boot/app/boot/bootutil/boot_bootutil.a(bootutil_misc.o)
                0x00000000000026ee                boot_status_entries
 .text.boot_status_off
                0x000000000000270c       0x22 /Users/Luppy/PineTime/master-pinetime-rust-mynewt/bin/targets/nrf52_boot/app/boot/bootutil/boot_bootutil.a(bootutil_misc.o)
                0x000000000000270c                boot_status_off
 .text.boot_swap_info_off
                0x000000000000272e        0x6 /Users/Luppy/PineTime/master-pinetime-rust-mynewt/bin/targets/nrf52_boot/app/boot/bootutil/boot_bootutil.a(bootutil_misc.o)
                0x000000000000272e                boot_swap_info_off
 .text.boot_read_swap_state
                0x0000000000002734       0xc0 /Users/Luppy/PineTime/master-pinetime-rust-mynewt/bin/targets/nrf52_boot/app/boot/bootutil/boot_bootutil.a(bootutil_misc.o)
                0x0000000000002734                boot_read_swap_state
 .text.boot_read_swap_state_by_id
                0x00000000000027f4       0x20 /Users/Luppy/PineTime/master-pinetime-rust-mynewt/bin/targets/nrf52_boot/app/boot/bootutil/boot_bootutil.a(bootutil_misc.o)
                0x00000000000027f4                boot_read_swap_state_by_id
 .text.boot_read_swap_size
                0x0000000000002814       0x30 /Users/Luppy/PineTime/master-pinetime-rust-mynewt/bin/targets/nrf52_boot/app/boot/bootutil/boot_bootutil.a(bootutil_misc.o)
                0x0000000000002814                boot_read_swap_size
 .text.boot_write_magic
                0x0000000000002844       0x20 /Users/Luppy/PineTime/master-pinetime-rust-mynewt/bin/targets/nrf52_boot/app/boot/bootutil/boot_bootutil.a(bootutil_misc.o)
                0x0000000000002844                boot_write_magic
 .text.boot_write_copy_done
                0x0000000000002864        0xe /Users/Luppy/PineTime/master-pinetime-rust-mynewt/bin/targets/nrf52_boot/app/boot/bootutil/boot_bootutil.a(bootutil_misc.o)
                0x0000000000002864                boot_write_copy_done
 .text.boot_write_image_ok
                0x0000000000002872        0xe /Users/Luppy/PineTime/master-pinetime-rust-mynewt/bin/targets/nrf52_boot/app/boot/bootutil/boot_bootutil.a(bootutil_misc.o)
                0x0000000000002872                boot_write_image_ok
 .text.boot_write_swap_info
                0x0000000000002880       0x44 /Users/Luppy/PineTime/master-pinetime-rust-mynewt/bin/targets/nrf52_boot/app/boot/bootutil/boot_bootutil.a(bootutil_misc.o)
                0x0000000000002880                boot_write_swap_info
 .text.boot_write_swap_size
                0x00000000000028c4       0x22 /Users/Luppy/PineTime/master-pinetime-rust-mynewt/bin/targets/nrf52_boot/app/boot/bootutil/boot_bootutil.a(bootutil_misc.o)
                0x00000000000028c4                boot_write_swap_size
 *fill*         0x00000000000028e6        0x2 
 .text.boot_swap_type_multi
                0x00000000000028e8       0xd8 /Users/Luppy/PineTime/master-pinetime-rust-mynewt/bin/targets/nrf52_boot/app/boot/bootutil/boot_bootutil.a(bootutil_misc.o)
                0x00000000000028e8                boot_swap_type_multi
 .text.boot_set_pending
                0x00000000000029c0       0x8a /Users/Luppy/PineTime/master-pinetime-rust-mynewt/bin/targets/nrf52_boot/app/boot/bootutil/boot_bootutil.a(bootutil_misc.o)
                0x00000000000029c0                boot_set_pending
 *fill*         0x0000000000002a4a        0x2 
 .text.boot_is_header_valid
                0x0000000000002a4c       0x40 /Users/Luppy/PineTime/master-pinetime-rust-mynewt/bin/targets/nrf52_boot/app/boot/bootutil/boot_bootutil.a(loader.o)
 .text.boot_write_sz
                0x0000000000002a8c       0x1c /Users/Luppy/PineTime/master-pinetime-rust-mynewt/bin/targets/nrf52_boot/app/boot/bootutil/boot_bootutil.a(loader.o)
 .text.boot_read_image_size
                0x0000000000002aa8       0x9c /Users/Luppy/PineTime/master-pinetime-rust-mynewt/bin/targets/nrf52_boot/app/boot/bootutil/boot_bootutil.a(loader.o)
 .text.boot_check_header_erased
                0x0000000000002b44       0x54 /Users/Luppy/PineTime/master-pinetime-rust-mynewt/bin/targets/nrf52_boot/app/boot/bootutil/boot_bootutil.a(loader.o)
 .text.boot_initialize_area
                0x0000000000002b98       0x48 /Users/Luppy/PineTime/master-pinetime-rust-mynewt/bin/targets/nrf52_boot/app/boot/bootutil/boot_bootutil.a(loader.o)
 .text.boot_read_sectors
                0x0000000000002be0       0x3a /Users/Luppy/PineTime/master-pinetime-rust-mynewt/bin/targets/nrf52_boot/app/boot/bootutil/boot_bootutil.a(loader.o)
 *fill*         0x0000000000002c1a        0x2 
 .text.boot_image_check
                0x0000000000002c1c       0x34 /Users/Luppy/PineTime/master-pinetime-rust-mynewt/bin/targets/nrf52_boot/app/boot/bootutil/boot_bootutil.a(loader.o)
 .text.boot_validate_slot
                0x0000000000002c50       0x98 /Users/Luppy/PineTime/master-pinetime-rust-mynewt/bin/targets/nrf52_boot/app/boot/bootutil/boot_bootutil.a(loader.o)
 .text.boot_validated_swap_type
                0x0000000000002ce8       0x38 /Users/Luppy/PineTime/master-pinetime-rust-mynewt/bin/targets/nrf52_boot/app/boot/bootutil/boot_bootutil.a(loader.o)
 .text.boot_read_image_headers
                0x0000000000002d20       0x36 /Users/Luppy/PineTime/master-pinetime-rust-mynewt/bin/targets/nrf52_boot/app/boot/bootutil/boot_bootutil.a(loader.o)
 .text.boot_status_reset
                0x0000000000002d56       0x14 /Users/Luppy/PineTime/master-pinetime-rust-mynewt/bin/targets/nrf52_boot/app/boot/bootutil/boot_bootutil.a(loader.o)
                0x0000000000002d56                boot_status_reset
 .text.boot_status_is_reset
                0x0000000000002d6a       0x22 /Users/Luppy/PineTime/master-pinetime-rust-mynewt/bin/targets/nrf52_boot/app/boot/bootutil/boot_bootutil.a(loader.o)
                0x0000000000002d6a                boot_status_is_reset
 .text.boot_swap_image
                0x0000000000002d8c       0x9c /Users/Luppy/PineTime/master-pinetime-rust-mynewt/bin/targets/nrf52_boot/app/boot/bootutil/boot_bootutil.a(loader.o)
 .text.boot_complete_partial_swap
                0x0000000000002e28       0x84 /Users/Luppy/PineTime/master-pinetime-rust-mynewt/bin/targets/nrf52_boot/app/boot/bootutil/boot_bootutil.a(loader.o)
 .text.boot_perform_update
                0x0000000000002eac       0x58 /Users/Luppy/PineTime/master-pinetime-rust-mynewt/bin/targets/nrf52_boot/app/boot/bootutil/boot_bootutil.a(loader.o)
 .text.boot_prepare_image_for_update
                0x0000000000002f04       0xe4 /Users/Luppy/PineTime/master-pinetime-rust-mynewt/bin/targets/nrf52_boot/app/boot/bootutil/boot_bootutil.a(loader.o)
 .text.boot_write_status
                0x0000000000002fe8       0x68 /Users/Luppy/PineTime/master-pinetime-rust-mynewt/bin/targets/nrf52_boot/app/boot/bootutil/boot_bootutil.a(loader.o)
                0x0000000000002fe8                boot_write_status
 .text.boot_erase_region
                0x0000000000003050        0x8 /Users/Luppy/PineTime/master-pinetime-rust-mynewt/bin/targets/nrf52_boot/app/boot/bootutil/boot_bootutil.a(loader.o)
                0x0000000000003050                boot_erase_region
 .text.boot_copy_region
                0x0000000000003058       0x58 /Users/Luppy/PineTime/master-pinetime-rust-mynewt/bin/targets/nrf52_boot/app/boot/bootutil/boot_bootutil.a(loader.o)
                0x0000000000003058                boot_copy_region
 .text.context_boot_go
                0x00000000000030b0      0x140 /Users/Luppy/PineTime/master-pinetime-rust-mynewt/bin/targets/nrf52_boot/app/boot/bootutil/boot_bootutil.a(loader.o)
                0x00000000000030b0                context_boot_go
 .text.boot_go  0x00000000000031f0       0x10 /Users/Luppy/PineTime/master-pinetime-rust-mynewt/bin/targets/nrf52_boot/app/boot/bootutil/boot_bootutil.a(loader.o)
                0x00000000000031f0                boot_go
 .text.swap_erase_trailer_sectors
                0x0000000000003200       0x84 /Users/Luppy/PineTime/master-pinetime-rust-mynewt/bin/targets/nrf52_boot/app/boot/bootutil/boot_bootutil.a(swap_misc.o)
                0x0000000000003200                swap_erase_trailer_sectors
 .text.swap_status_init
                0x0000000000003284       0x8a /Users/Luppy/PineTime/master-pinetime-rust-mynewt/bin/targets/nrf52_boot/app/boot/bootutil/boot_bootutil.a(swap_misc.o)
                0x0000000000003284                swap_status_init
 .text.swap_read_status
                0x000000000000330e       0x7c /Users/Luppy/PineTime/master-pinetime-rust-mynewt/bin/targets/nrf52_boot/app/boot/bootutil/boot_bootutil.a(swap_misc.o)
                0x000000000000330e                swap_read_status
 .text.swap_set_copy_done
                0x000000000000338a       0x1e /Users/Luppy/PineTime/master-pinetime-rust-mynewt/bin/targets/nrf52_boot/app/boot/bootutil/boot_bootutil.a(swap_misc.o)
                0x000000000000338a                swap_set_copy_done
 .text.swap_set_image_ok
                0x00000000000033a8       0x3a /Users/Luppy/PineTime/master-pinetime-rust-mynewt/bin/targets/nrf52_boot/app/boot/bootutil/boot_bootutil.a(swap_misc.o)
                0x00000000000033a8                swap_set_image_ok
 .text.boot_copy_sz
                0x00000000000033e2       0x2e /Users/Luppy/PineTime/master-pinetime-rust-mynewt/bin/targets/nrf52_boot/app/boot/bootutil/boot_bootutil.a(swap_scratch.o)
 .text.boot_swap_sectors
                0x0000000000003410      0x332 /Users/Luppy/PineTime/master-pinetime-rust-mynewt/bin/targets/nrf52_boot/app/boot/bootutil/boot_bootutil.a(swap_scratch.o)
 .text.boot_read_image_header
                0x0000000000003742       0x34 /Users/Luppy/PineTime/master-pinetime-rust-mynewt/bin/targets/nrf52_boot/app/boot/bootutil/boot_bootutil.a(swap_scratch.o)
                0x0000000000003742                boot_read_image_header
 *fill*         0x0000000000003776        0x2 
 .text.swap_read_status_bytes
                0x0000000000003778       0xbc /Users/Luppy/PineTime/master-pinetime-rust-mynewt/bin/targets/nrf52_boot/app/boot/bootutil/boot_bootutil.a(swap_scratch.o)
                0x0000000000003778                swap_read_status_bytes
 .text.boot_status_internal_off
                0x0000000000003834       0x1a /Users/Luppy/PineTime/master-pinetime-rust-mynewt/bin/targets/nrf52_boot/app/boot/bootutil/boot_bootutil.a(swap_scratch.o)
                0x0000000000003834                boot_status_internal_off
 *fill*         0x000000000000384e        0x2 
 .text.boot_slots_compatible
                0x0000000000003850      0x100 /Users/Luppy/PineTime/master-pinetime-rust-mynewt/bin/targets/nrf52_boot/app/boot/bootutil/boot_bootutil.a(swap_scratch.o)
                0x0000000000003850                boot_slots_compatible
 .text.swap_status_source
                0x0000000000003950      0x13c /Users/Luppy/PineTime/master-pinetime-rust-mynewt/bin/targets/nrf52_boot/app/boot/bootutil/boot_bootutil.a(swap_scratch.o)
                0x0000000000003950                swap_status_source
 .text.swap_run
                0x0000000000003a8c       0x7e /Users/Luppy/PineTime/master-pinetime-rust-mynewt/bin/targets/nrf52_boot/app/boot/bootutil/boot_bootutil.a(swap_scratch.o)
                0x0000000000003a8c                swap_run
 .text.bootutil_img_hash
                0x0000000000003b0a       0x7e /Users/Luppy/PineTime/master-pinetime-rust-mynewt/bin/targets/nrf52_boot/app/boot/bootutil/boot_bootutil.a(image_validate.o)
 .text.bootutil_img_validate
                0x0000000000003b88       0xba /Users/Luppy/PineTime/master-pinetime-rust-mynewt/bin/targets/nrf52_boot/app/boot/bootutil/boot_bootutil.a(image_validate.o)
                0x0000000000003b88                bootutil_img_validate
 .text.bootutil_tlv_iter_begin
                0x0000000000003c42       0xca /Users/Luppy/PineTime/master-pinetime-rust-mynewt/bin/targets/nrf52_boot/app/boot/bootutil/boot_bootutil.a(tlv.o)
                0x0000000000003c42                bootutil_tlv_iter_begin
 .text.bootutil_tlv_iter_next
                0x0000000000003d0c       0xb8 /Users/Luppy/PineTime/master-pinetime-rust-mynewt/bin/targets/nrf52_boot/app/boot/bootutil/boot_bootutil.a(tlv.o)
                0x0000000000003d0c                bootutil_tlv_iter_next
 .text.flash_area_id_from_multi_image_slot
                0x0000000000003dc4       0x12 /Users/Luppy/PineTime/master-pinetime-rust-mynewt/bin/targets/nrf52_boot/app/boot/mynewt/flash_map_backend/boot_mynewt_flash_map_backend.a(flash_map_extended.o)
                0x0000000000003dc4                flash_area_id_from_multi_image_slot
 .text.mbedtls_sha256_init
                0x0000000000003dd6        0xc /Users/Luppy/PineTime/master-pinetime-rust-mynewt/bin/targets/nrf52_boot/app/crypto/mbedtls/crypto_mbedtls.a(sha256.o)
                0x0000000000003dd6                mbedtls_sha256_init
 *fill*         0x0000000000003de2        0x2 
 .text.mbedtls_sha256_starts_ret
                0x0000000000003de4       0xa4 /Users/Luppy/PineTime/master-pinetime-rust-mynewt/bin/targets/nrf52_boot/app/crypto/mbedtls/crypto_mbedtls.a(sha256.o)
                0x0000000000003de4                mbedtls_sha256_starts_ret
 .text.mbedtls_internal_sha256_process
                0x0000000000003e88      0x128 /Users/Luppy/PineTime/master-pinetime-rust-mynewt/bin/targets/nrf52_boot/app/crypto/mbedtls/crypto_mbedtls.a(sha256.o)
                0x0000000000003e88                mbedtls_internal_sha256_process
 .text.mbedtls_sha256_update_ret
                0x0000000000003fb0       0x86 /Users/Luppy/PineTime/master-pinetime-rust-mynewt/bin/targets/nrf52_boot/app/crypto/mbedtls/crypto_mbedtls.a(sha256.o)
                0x0000000000003fb0                mbedtls_sha256_update_ret
 .text.mbedtls_sha256_finish_ret
                0x0000000000004036      0x13e /Users/Luppy/PineTime/master-pinetime-rust-mynewt/bin/targets/nrf52_boot/app/crypto/mbedtls/crypto_mbedtls.a(sha256.o)
                0x0000000000004036                mbedtls_sha256_finish_ret
 .text.hal_flash_check_addr
                0x0000000000004174       0x1e /Users/Luppy/PineTime/master-pinetime-rust-mynewt/bin/targets/nrf52_boot/app/hw/hal/hw_hal.a(hal_flash.o)
 .text.hal_flash_init
                0x0000000000004192       0x28 /Users/Luppy/PineTime/master-pinetime-rust-mynewt/bin/targets/nrf52_boot/app/hw/hal/hw_hal.a(hal_flash.o)
                0x0000000000004192                hal_flash_init
 .text.hal_flash_align
                0x00000000000041ba       0x10 /Users/Luppy/PineTime/master-pinetime-rust-mynewt/bin/targets/nrf52_boot/app/hw/hal/hw_hal.a(hal_flash.o)
                0x00000000000041ba                hal_flash_align
 .text.hal_flash_erased_val
                0x00000000000041ca       0x10 /Users/Luppy/PineTime/master-pinetime-rust-mynewt/bin/targets/nrf52_boot/app/hw/hal/hw_hal.a(hal_flash.o)
                0x00000000000041ca                hal_flash_erased_val
 .text.hal_flash_read
                0x00000000000041da       0x54 /Users/Luppy/PineTime/master-pinetime-rust-mynewt/bin/targets/nrf52_boot/app/hw/hal/hw_hal.a(hal_flash.o)
                0x00000000000041da                hal_flash_read
 *fill*         0x000000000000422e        0x2 
 .text.hal_flash_write
                0x0000000000004230       0x74 /Users/Luppy/PineTime/master-pinetime-rust-mynewt/bin/targets/nrf52_boot/app/hw/hal/hw_hal.a(hal_flash.o)
                0x0000000000004230                hal_flash_write
 .text.hal_flash_erase
                0x00000000000042a4       0xd0 /Users/Luppy/PineTime/master-pinetime-rust-mynewt/bin/targets/nrf52_boot/app/hw/hal/hw_hal.a(hal_flash.o)
                0x00000000000042a4                hal_flash_erase
 .text.hal_flash_is_erased
                0x0000000000004374       0x30 /Users/Luppy/PineTime/master-pinetime-rust-mynewt/bin/targets/nrf52_boot/app/hw/hal/hw_hal.a(hal_flash.o)
                0x0000000000004374                hal_flash_is_erased
 .text.hal_flash_isempty
                0x00000000000043a4       0x62 /Users/Luppy/PineTime/master-pinetime-rust-mynewt/bin/targets/nrf52_boot/app/hw/hal/hw_hal.a(hal_flash.o)
                0x00000000000043a4                hal_flash_isempty
 .text.hal_system_start
                0x0000000000004406        0xa /Users/Luppy/PineTime/master-pinetime-rust-mynewt/bin/targets/nrf52_boot/app/hw/mcu/nordic/nrf52xxx/hw_mcu_nordic_nrf52xxx.a(hal_system_start.o)
                0x0000000000004406                hal_system_start
 .text.fwrite   0x0000000000004410       0x1e /Users/Luppy/PineTime/master-pinetime-rust-mynewt/bin/targets/nrf52_boot/app/libc/baselibc/libc_baselibc.a(inline.o)
                0x0000000000004410                fwrite
 *fill*         0x000000000000442e        0x2 
 .text.puts     0x0000000000004430       0x34 /Users/Luppy/PineTime/master-pinetime-rust-mynewt/bin/targets/nrf52_boot/app/libc/baselibc/libc_baselibc.a(inline.o)
                0x0000000000004430                puts
 .text.stdin_read
                0x0000000000004464        0x4 /Users/Luppy/PineTime/master-pinetime-rust-mynewt/bin/targets/nrf52_boot/app/libc/baselibc/libc_baselibc.a(mynewt.o)
 .text.stdout_write
                0x0000000000004468       0x10 /Users/Luppy/PineTime/master-pinetime-rust-mynewt/bin/targets/nrf52_boot/app/libc/baselibc/libc_baselibc.a(mynewt.o)
 .text.strlen   0x0000000000004478       0x10 /Users/Luppy/PineTime/master-pinetime-rust-mynewt/bin/targets/nrf52_boot/app/libc/baselibc/libc_baselibc.a(strlen.o)
                0x0000000000004478                strlen
 .text.ui2a     0x0000000000004488       0xc0 /Users/Luppy/PineTime/master-pinetime-rust-mynewt/bin/targets/nrf52_boot/app/libc/baselibc/libc_baselibc.a(tinyprintf.o)
 .text.i2a      0x0000000000004548       0x20 /Users/Luppy/PineTime/master-pinetime-rust-mynewt/bin/targets/nrf52_boot/app/libc/baselibc/libc_baselibc.a(tinyprintf.o)
 .text.a2d      0x0000000000004568       0x30 /Users/Luppy/PineTime/master-pinetime-rust-mynewt/bin/targets/nrf52_boot/app/libc/baselibc/libc_baselibc.a(tinyprintf.o)
 .text.a2i      0x0000000000004598       0x36 /Users/Luppy/PineTime/master-pinetime-rust-mynewt/bin/targets/nrf52_boot/app/libc/baselibc/libc_baselibc.a(tinyprintf.o)
 .text.putf     0x00000000000045ce       0x2a /Users/Luppy/PineTime/master-pinetime-rust-mynewt/bin/targets/nrf52_boot/app/libc/baselibc/libc_baselibc.a(tinyprintf.o)
 .text.putchw   0x00000000000045f8      0x11c /Users/Luppy/PineTime/master-pinetime-rust-mynewt/bin/targets/nrf52_boot/app/libc/baselibc/libc_baselibc.a(tinyprintf.o)
 .text.intarg   0x0000000000004714       0x64 /Users/Luppy/PineTime/master-pinetime-rust-mynewt/bin/targets/nrf52_boot/app/libc/baselibc/libc_baselibc.a(tinyprintf.o)
 .text.tfp_format
                0x0000000000004778      0x25c /Users/Luppy/PineTime/master-pinetime-rust-mynewt/bin/targets/nrf52_boot/app/libc/baselibc/libc_baselibc.a(tinyprintf.o)
                0x0000000000004778                tfp_format
 .text.vfprintf
                0x00000000000049d4        0x8 /Users/Luppy/PineTime/master-pinetime-rust-mynewt/bin/targets/nrf52_boot/app/libc/baselibc/libc_baselibc.a(tinyprintf.o)
                0x00000000000049d4                vfprintf
 .text.printf   0x00000000000049dc       0x24 /Users/Luppy/PineTime/master-pinetime-rust-mynewt/bin/targets/nrf52_boot/app/libc/baselibc/libc_baselibc.a(tinyprintf.o)
                0x00000000000049dc                printf
 .text.vprintf  0x0000000000004a00       0x14 /Users/Luppy/PineTime/master-pinetime-rust-mynewt/bin/targets/nrf52_boot/app/libc/baselibc/libc_baselibc.a(vprintf.o)
                0x0000000000004a00                vprintf
 .text.flash_map_read_mfg
                0x0000000000004a14       0x78 /Users/Luppy/PineTime/master-pinetime-rust-mynewt/bin/targets/nrf52_boot/app/sys/flash_map/sys_flash_map.a(flash_map.o)
 .text.flash_area_open
                0x0000000000004a8c       0x40 /Users/Luppy/PineTime/master-pinetime-rust-mynewt/bin/targets/nrf52_boot/app/sys/flash_map/sys_flash_map.a(flash_map.o)
                0x0000000000004a8c                flash_area_open
 .text.flash_area_to_sectors
                0x0000000000004acc       0x7c /Users/Luppy/PineTime/master-pinetime-rust-mynewt/bin/targets/nrf52_boot/app/sys/flash_map/sys_flash_map.a(flash_map.o)
                0x0000000000004acc                flash_area_to_sectors
 .text.flash_area_read
                0x0000000000004b48       0x26 /Users/Luppy/PineTime/master-pinetime-rust-mynewt/bin/targets/nrf52_boot/app/sys/flash_map/sys_flash_map.a(flash_map.o)
                0x0000000000004b48                flash_area_read
 .text.flash_area_write
                0x0000000000004b6e       0x26 /Users/Luppy/PineTime/master-pinetime-rust-mynewt/bin/targets/nrf52_boot/app/sys/flash_map/sys_flash_map.a(flash_map.o)
                0x0000000000004b6e                flash_area_write
 .text.flash_area_erase
                0x0000000000004b94       0x26 /Users/Luppy/PineTime/master-pinetime-rust-mynewt/bin/targets/nrf52_boot/app/sys/flash_map/sys_flash_map.a(flash_map.o)
                0x0000000000004b94                flash_area_erase
 .text.flash_area_align
                0x0000000000004bba        0xa /Users/Luppy/PineTime/master-pinetime-rust-mynewt/bin/targets/nrf52_boot/app/sys/flash_map/sys_flash_map.a(flash_map.o)
                0x0000000000004bba                flash_area_align
 .text.flash_area_erased_val
                0x0000000000004bc4        0xa /Users/Luppy/PineTime/master-pinetime-rust-mynewt/bin/targets/nrf52_boot/app/sys/flash_map/sys_flash_map.a(flash_map.o)
                0x0000000000004bc4                flash_area_erased_val
 .text.flash_area_read_is_empty
                0x0000000000004bce        0xe /Users/Luppy/PineTime/master-pinetime-rust-mynewt/bin/targets/nrf52_boot/app/sys/flash_map/sys_flash_map.a(flash_map.o)
                0x0000000000004bce                flash_area_read_is_empty
 .text.flash_map_init
                0x0000000000004bdc       0x5c /Users/Luppy/PineTime/master-pinetime-rust-mynewt/bin/targets/nrf52_boot/app/sys/flash_map/sys_flash_map.a(flash_map.o)
                0x0000000000004bdc                flash_map_init
 .text.modlog_init
                0x0000000000004c38        0x2 /Users/Luppy/PineTime/master-pinetime-rust-mynewt/bin/targets/nrf52_boot/app/sys/log/modlog/sys_log_modlog.a(modlog.o)
                0x0000000000004c38                modlog_init
 *fill*         0x0000000000004c3a        0x2 
 .text.mfg_seek_next_aux
                0x0000000000004c3c       0x94 /Users/Luppy/PineTime/master-pinetime-rust-mynewt/bin/targets/nrf52_boot/app/sys/mfg/sys_mfg.a(mfg.o)
 .text.mfg_read_mmr
                0x0000000000004cd0       0x70 /Users/Luppy/PineTime/master-pinetime-rust-mynewt/bin/targets/nrf52_boot/app/sys/mfg/sys_mfg.a(mfg.o)
 .text.mfg_read_next_mmr
                0x0000000000004d40       0x54 /Users/Luppy/PineTime/master-pinetime-rust-mynewt/bin/targets/nrf52_boot/app/sys/mfg/sys_mfg.a(mfg.o)
 .text.mfg_open_flash_area
                0x0000000000004d94       0x3c /Users/Luppy/PineTime/master-pinetime-rust-mynewt/bin/targets/nrf52_boot/app/sys/mfg/sys_mfg.a(mfg.o)
 .text.mfg_read_tlv_body
                0x0000000000004dd0       0x44 /Users/Luppy/PineTime/master-pinetime-rust-mynewt/bin/targets/nrf52_boot/app/sys/mfg/sys_mfg.a(mfg.o)
 .text.mfg_seek_next
                0x0000000000004e14       0x12 /Users/Luppy/PineTime/master-pinetime-rust-mynewt/bin/targets/nrf52_boot/app/sys/mfg/sys_mfg.a(mfg.o)
                0x0000000000004e14                mfg_seek_next
 .text.mfg_seek_next_with_type
                0x0000000000004e26       0x1a /Users/Luppy/PineTime/master-pinetime-rust-mynewt/bin/targets/nrf52_boot/app/sys/mfg/sys_mfg.a(mfg.o)
                0x0000000000004e26                mfg_seek_next_with_type
 .text.mfg_read_tlv_flash_area
                0x0000000000004e40        0xa /Users/Luppy/PineTime/master-pinetime-rust-mynewt/bin/targets/nrf52_boot/app/sys/mfg/sys_mfg.a(mfg.o)
                0x0000000000004e40                mfg_read_tlv_flash_area
 .text.mfg_read_tlv_mmr_ref
                0x0000000000004e4a        0xa /Users/Luppy/PineTime/master-pinetime-rust-mynewt/bin/targets/nrf52_boot/app/sys/mfg/sys_mfg.a(mfg.o)
                0x0000000000004e4a                mfg_read_tlv_mmr_ref
 .text.mfg_init
                0x0000000000004e54       0x24 /Users/Luppy/PineTime/master-pinetime-rust-mynewt/bin/targets/nrf52_boot/app/sys/mfg/sys_mfg.a(mfg.o)
                0x0000000000004e54                mfg_init
 .text.mfg_open
                0x0000000000004e78       0x10 /Users/Luppy/PineTime/master-pinetime-rust-mynewt/bin/targets/nrf52_boot/app/sys/mfg/sys_mfg.a(mfg.o)
                0x0000000000004e78                mfg_open
 .text.mfg_read_mmr_refs
                0x0000000000004e88       0x4e /Users/Luppy/PineTime/master-pinetime-rust-mynewt/bin/targets/nrf52_boot/app/sys/mfg/sys_mfg.a(mfg.o)
 *fill*         0x0000000000004ed6        0x2 
 .text          0x0000000000004ed8       0x30 /usr/local/Cellar/arm-none-eabi-gcc/7-2018-q2-update/gcc/bin/../lib/gcc/arm-none-eabi/7.3.1/thumb/v7e-m/libgcc.a(_aeabi_uldivmod.o)
                0x0000000000004ed8                __aeabi_uldivmod
 .text          0x0000000000004f08      0x2cc /usr/local/Cellar/arm-none-eabi-gcc/7-2018-q2-update/gcc/bin/../lib/gcc/arm-none-eabi/7.3.1/thumb/v7e-m/libgcc.a(_udivmoddi4.o)
                0x0000000000004f08                __udivmoddi4
 .text          0x00000000000051d4        0x4 /usr/local/Cellar/arm-none-eabi-gcc/7-2018-q2-update/gcc/bin/../lib/gcc/arm-none-eabi/7.3.1/thumb/v7e-m/libgcc.a(_dvmd_tls.o)
                0x00000000000051d4                __aeabi_ldiv0
                0x00000000000051d4                __aeabi_idiv0
 *(.init)
 *(.fini)
 *crtbegin.o(.ctors)
 *crtbegin?.o(.ctors)
 *(EXCLUDE_FILE(*crtend.o *crtend?.o) .ctors)
 *(SORT_BY_NAME(.ctors.*))
 *(.ctors)
 *crtbegin.o(.dtors)
 *crtbegin?.o(.dtors)
 *(EXCLUDE_FILE(*crtend.o *crtend?.o) .dtors)
 *(SORT_BY_NAME(.dtors.*))
 *(.dtors)
 *(.rodata*)
 .rodata.flash_devs
                0x00000000000051d8        0x8 /Users/Luppy/PineTime/master-pinetime-rust-mynewt/bin/targets/nrf52_boot/app/hw/bsp/nrf52/hw_bsp_nrf52.a(hal_bsp.o)
 .rodata.spiflash_characteristics
                0x00000000000051e0       0x30 /Users/Luppy/PineTime/master-pinetime-rust-mynewt/bin/targets/nrf52_boot/app/hw/drivers/flash/spiflash/hw_drivers_flash_spiflash.a(spiflash.o)
 .rodata.spiflash_flash_funcs
                0x0000000000005210       0x1c /Users/Luppy/PineTime/master-pinetime-rust-mynewt/bin/targets/nrf52_boot/app/hw/drivers/flash/spiflash/hw_drivers_flash_spiflash.a(spiflash.o)
 .rodata.nrf52k_flash_dev
                0x000000000000522c       0x18 /Users/Luppy/PineTime/master-pinetime-rust-mynewt/bin/targets/nrf52_boot/app/hw/mcu/nordic/nrf52xxx/hw_mcu_nordic_nrf52xxx.a(hal_flash.o)
                0x000000000000522c                nrf52k_flash_dev
 .rodata.nrf52k_flash_funcs
                0x0000000000005244       0x1c /Users/Luppy/PineTime/master-pinetime-rust-mynewt/bin/targets/nrf52_boot/app/hw/mcu/nordic/nrf52xxx/hw_mcu_nordic_nrf52xxx.a(hal_flash.o)
 .rodata.nrf52_hal_spis
                0x0000000000005260        0xc /Users/Luppy/PineTime/master-pinetime-rust-mynewt/bin/targets/nrf52_boot/app/hw/mcu/nordic/nrf52xxx/hw_mcu_nordic_nrf52xxx.a(hal_spi.o)
 .rodata.os_bsp_spi0m_cfg
                0x000000000000526c        0x4 /Users/Luppy/PineTime/master-pinetime-rust-mynewt/bin/targets/nrf52_boot/app/hw/mcu/nordic/nrf52xxx/hw_mcu_nordic_nrf52xxx.a(nrf52_periph.o)
 .rodata.nrf52_hal_timers
                0x0000000000005270       0x18 /Users/Luppy/PineTime/master-pinetime-rust-mynewt/bin/targets/nrf52_boot/app/hw/mcu/nordic/nrf52xxx/hw_mcu_nordic_nrf52xxx.a(hal_timer.o)
 .rodata.__assert_func.str1.4
                0x0000000000005288       0x27 /Users/Luppy/PineTime/master-pinetime-rust-mynewt/bin/targets/nrf52_boot/app/kernel/os/kernel_os.a(os_fault.o)
 *fill*         0x00000000000052af        0x1 
 .rodata.os_default_irq.str1.4
                0x00000000000052b0      0x148 /Users/Luppy/PineTime/master-pinetime-rust-mynewt/bin/targets/nrf52_boot/app/kernel/os/kernel_os.a(os_fault.o)
 .rodata.os_msys_init.str1.4
                0x00000000000053f8        0x7 /Users/Luppy/PineTime/master-pinetime-rust-mynewt/bin/targets/nrf52_boot/app/kernel/os/kernel_os.a(os_msys.o)
 *fill*         0x00000000000053ff        0x1 
 .rodata.boot_custom_start.str1.4
                0x0000000000005400       0x11 /Users/Luppy/PineTime/master-pinetime-rust-mynewt/bin/targets/nrf52_boot/app/libs/pinetime_boot/libs_pinetime_boot.a(pinetime_boot.o)
 *fill*         0x0000000000005411        0x3 
 .rodata.pinetime_boot_init.str1.4
                0x0000000000005414       0x6b /Users/Luppy/PineTime/master-pinetime-rust-mynewt/bin/targets/nrf52_boot/app/libs/pinetime_boot/libs_pinetime_boot.a(pinetime_boot.o)
 *fill*         0x000000000000547f        0x1 
 .rodata.COLMOD_PARA.7864
                0x0000000000005480        0x1 /Users/Luppy/PineTime/master-pinetime-rust-mynewt/bin/targets/nrf52_boot/app/libs/pinetime_boot/libs_pinetime_boot.a(display.o)
 *fill*         0x0000000000005481        0x3 
 .rodata.FRMCTR1_PARA.7852
                0x0000000000005484        0x3 /Users/Luppy/PineTime/master-pinetime-rust-mynewt/bin/targets/nrf52_boot/app/libs/pinetime_boot/libs_pinetime_boot.a(display.o)
 *fill*         0x0000000000005487        0x1 
 .rodata.FRMCTR2_PARA.7853
                0x0000000000005488        0x3 /Users/Luppy/PineTime/master-pinetime-rust-mynewt/bin/targets/nrf52_boot/app/libs/pinetime_boot/libs_pinetime_boot.a(display.o)
 *fill*         0x000000000000548b        0x1 
 .rodata.FRMCTR3_PARA.7854
                0x000000000000548c        0x6 /Users/Luppy/PineTime/master-pinetime-rust-mynewt/bin/targets/nrf52_boot/app/libs/pinetime_boot/libs_pinetime_boot.a(display.o)
 *fill*         0x0000000000005492        0x2 
 .rodata.INVCTR_PARA.7855
                0x0000000000005494        0x1 /Users/Luppy/PineTime/master-pinetime-rust-mynewt/bin/targets/nrf52_boot/app/libs/pinetime_boot/libs_pinetime_boot.a(display.o)
 *fill*         0x0000000000005495        0x3 
 .rodata.MADCTL1_PARA.7862
                0x0000000000005498        0x1 /Users/Luppy/PineTime/master-pinetime-rust-mynewt/bin/targets/nrf52_boot/app/libs/pinetime_boot/libs_pinetime_boot.a(display.o)
 *fill*         0x0000000000005499        0x3 
 .rodata.PWCTR1_PARA.7856
                0x000000000000549c        0x3 /Users/Luppy/PineTime/master-pinetime-rust-mynewt/bin/targets/nrf52_boot/app/libs/pinetime_boot/libs_pinetime_boot.a(display.o)
 *fill*         0x000000000000549f        0x1 
 .rodata.PWCTR2_PARA.7857
                0x00000000000054a0        0x1 /Users/Luppy/PineTime/master-pinetime-rust-mynewt/bin/targets/nrf52_boot/app/libs/pinetime_boot/libs_pinetime_boot.a(display.o)
 *fill*         0x00000000000054a1        0x3 
 .rodata.PWCTR3_PARA.7858
                0x00000000000054a4        0x2 /Users/Luppy/PineTime/master-pinetime-rust-mynewt/bin/targets/nrf52_boot/app/libs/pinetime_boot/libs_pinetime_boot.a(display.o)
 *fill*         0x00000000000054a6        0x2 
 .rodata.PWCTR4_PARA.7859
                0x00000000000054a8        0x2 /Users/Luppy/PineTime/master-pinetime-rust-mynewt/bin/targets/nrf52_boot/app/libs/pinetime_boot/libs_pinetime_boot.a(display.o)
 *fill*         0x00000000000054aa        0x2 
 .rodata.PWCTR5_PARA.7860
                0x00000000000054ac        0x2 /Users/Luppy/PineTime/master-pinetime-rust-mynewt/bin/targets/nrf52_boot/app/libs/pinetime_boot/libs_pinetime_boot.a(display.o)
 *fill*         0x00000000000054ae        0x2 
 .rodata.VMCTR1_PARA.7861
                0x00000000000054b0        0x1 /Users/Luppy/PineTime/master-pinetime-rust-mynewt/bin/targets/nrf52_boot/app/libs/pinetime_boot/libs_pinetime_boot.a(display.o)
 *fill*         0x00000000000054b1        0x3 
 .rodata.pinetime_boot_display_image.str1.4
                0x00000000000054b4       0x29 /Users/Luppy/PineTime/master-pinetime-rust-mynewt/bin/targets/nrf52_boot/app/libs/pinetime_boot/libs_pinetime_boot.a(display.o)
 *fill*         0x00000000000054dd        0x3 
 .rodata.console_printf.str1.4
                0x00000000000054e0        0x7 /Users/Luppy/PineTime/master-pinetime-rust-mynewt/bin/targets/nrf52_boot/app/libs/semihosting_console/libs_semihosting_console.a(console_fmt.o)
 *fill*         0x00000000000054e7        0x1 
 .rodata        0x00000000000054e8        0x2 /Users/Luppy/PineTime/master-pinetime-rust-mynewt/bin/targets/nrf52_boot/app/boot/bootutil/boot_bootutil.a(bootutil_misc.o)
 *fill*         0x00000000000054ea        0x2 
 .rodata.boot_img_magic
                0x00000000000054ec       0x10 /Users/Luppy/PineTime/master-pinetime-rust-mynewt/bin/targets/nrf52_boot/app/boot/bootutil/boot_bootutil.a(bootutil_misc.o)
                0x00000000000054ec                boot_img_magic
 .rodata.boot_swap_tables
                0x00000000000054fc       0x12 /Users/Luppy/PineTime/master-pinetime-rust-mynewt/bin/targets/nrf52_boot/app/boot/bootutil/boot_bootutil.a(bootutil_misc.o)
 *fill*         0x000000000000550e        0x2 
 .rodata.boot_swap_type_multi.str1.4
                0x0000000000005510       0x5a /Users/Luppy/PineTime/master-pinetime-rust-mynewt/bin/targets/nrf52_boot/app/boot/bootutil/boot_bootutil.a(bootutil_misc.o)
 *fill*         0x000000000000556a        0x2 
 .rodata.boot_complete_partial_swap.str1.4
                0x000000000000556c        0xd /Users/Luppy/PineTime/master-pinetime-rust-mynewt/bin/targets/nrf52_boot/app/boot/bootutil/boot_bootutil.a(loader.o)
 *fill*         0x0000000000005579        0x3 
 .rodata.boot_prepare_image_for_update.str1.4
                0x000000000000557c       0xa0 /Users/Luppy/PineTime/master-pinetime-rust-mynewt/bin/targets/nrf52_boot/app/boot/bootutil/boot_bootutil.a(loader.o)
 .rodata.boot_validate_slot.str1.4
                0x000000000000561c       0x3e /Users/Luppy/PineTime/master-pinetime-rust-mynewt/bin/targets/nrf52_boot/app/boot/bootutil/boot_bootutil.a(loader.o)
 *fill*         0x000000000000565a        0x2 
 .rodata.context_boot_go.str1.4
                0x000000000000565c       0x27 /Users/Luppy/PineTime/master-pinetime-rust-mynewt/bin/targets/nrf52_boot/app/boot/bootutil/boot_bootutil.a(loader.o)
 *fill*         0x0000000000005683        0x1 
 .rodata.boot_slots_compatible.str1.4
                0x0000000000005684       0xd3 /Users/Luppy/PineTime/master-pinetime-rust-mynewt/bin/targets/nrf52_boot/app/boot/bootutil/boot_bootutil.a(swap_scratch.o)
 *fill*         0x0000000000005757        0x1 
 .rodata.boot_status_tables
                0x0000000000005758       0x10 /Users/Luppy/PineTime/master-pinetime-rust-mynewt/bin/targets/nrf52_boot/app/boot/bootutil/boot_bootutil.a(swap_scratch.o)
 .rodata.swap_read_status_bytes.str1.4
                0x0000000000005768       0x24 /Users/Luppy/PineTime/master-pinetime-rust-mynewt/bin/targets/nrf52_boot/app/boot/bootutil/boot_bootutil.a(swap_scratch.o)
 .rodata.swap_status_source.str1.4
                0x000000000000578c       0xc0 /Users/Luppy/PineTime/master-pinetime-rust-mynewt/bin/targets/nrf52_boot/app/boot/bootutil/boot_bootutil.a(swap_scratch.o)
                                         0xd4 (size before relaxing)
 .rodata.K      0x000000000000584c      0x100 /Users/Luppy/PineTime/master-pinetime-rust-mynewt/bin/targets/nrf52_boot/app/crypto/mbedtls/crypto_mbedtls.a(sha256.o)
 .rodata.puts.str1.4
                0x000000000000594c       0xc0 /Users/Luppy/PineTime/master-pinetime-rust-mynewt/bin/targets/nrf52_boot/app/libc/baselibc/libc_baselibc.a(inline.o)
                                          0x2 (size before relaxing)
 .rodata.stdout
                0x000000000000594c        0x4 /Users/Luppy/PineTime/master-pinetime-rust-mynewt/bin/targets/nrf52_boot/app/libc/baselibc/libc_baselibc.a(mynewt.o)
                0x000000000000594c                stdout
 .rodata.sysflash_map_dflt
                0x0000000000005950       0x48 /Users/Luppy/PineTime/master-pinetime-rust-mynewt/bin/targets/nrf52_boot/generated/bin/nrf52_boot-sysinit-app.a(nrf52_boot-sysflash.o)
                0x0000000000005950                sysflash_map_dflt
 *(.eh_frame*)
                0x0000000000005a0c                . = ALIGN (0x4)

.glue_7         0x0000000000005998        0x0
 .glue_7        0x0000000000005998        0x0 linker stubs

.glue_7t        0x0000000000005998        0x0
 .glue_7t       0x0000000000005998        0x0 linker stubs

.vfp11_veneer   0x0000000000005998        0x0
 .vfp11_veneer  0x0000000000005998        0x0 linker stubs

.v4_bx          0x0000000000005998        0x0
 .v4_bx         0x0000000000005998        0x0 linker stubs

.iplt           0x0000000000005998        0x0
 .iplt          0x0000000000005998        0x0 /Users/Luppy/PineTime/master-pinetime-rust-mynewt/bin/targets/nrf52_boot/app/hw/bsp/nrf52/hw_bsp_nrf52.a(gcc_startup_nrf52.o)

.ARM.extab      0x0000000000005998        0x0
 *(.ARM.extab* .gnu.linkonce.armextab.*)
                0x0000000000005998                . = ALIGN (0x4)
                0x0000000000005998                __exidx_start = .

.ARM.exidx      0x0000000000005998       0x18
 *(.ARM.exidx* .gnu.linkonce.armexidx.*)
 .ARM.exidx     0x0000000000005998        0x8 /Users/Luppy/PineTime/master-pinetime-rust-mynewt/bin/targets/nrf52_boot/app/hw/bsp/nrf52/hw_bsp_nrf52.a(gcc_startup_nrf52.o)
 .ARM.exidx     0x00000000000059a0       0x10 /Users/Luppy/PineTime/master-pinetime-rust-mynewt/bin/targets/nrf52_boot/app/kernel/os/kernel_os.a(HAL_CM4.o)
                                         0x30 (size before relaxing)
 .ARM.exidx     0x00000000000059b0        0x0 /usr/local/Cellar/arm-none-eabi-gcc/7-2018-q2-update/gcc/bin/../lib/gcc/arm-none-eabi/7.3.1/thumb/v7e-m/libgcc.a(_udivmoddi4.o)
                                          0x8 (size before relaxing)
                0x00000000000059b0                . = ALIGN (0x4)
                0x00000000000059b0                __exidx_end = .
                0x00000000000059b0                __etext = .

.rel.dyn        0x00000000000059b0        0x0
 .rel.iplt      0x00000000000059b0        0x0 /Users/Luppy/PineTime/master-pinetime-rust-mynewt/bin/targets/nrf52_boot/app/hw/bsp/nrf52/hw_bsp_nrf52.a(gcc_startup_nrf52.o)

.vector_relocation
                0x0000000020000000       0xd8
                0x0000000020000000                . = ALIGN (0x4)
                0x0000000020000000                __vector_tbl_reloc__ = .
                0x00000000200000d8                . = (. + (__isr_vector_end - __isr_vector_start))
 *fill*         0x0000000020000000       0xd8 
                0x00000000200000d8                . = ALIGN (0x4)

.rtt            0x00000000200000d8        0x0
                0x00000000200000d8                . = ALIGN (0x4)
 *(.rtt)
                0x00000000200000d8                . = ALIGN (0x4)

.data           0x00000000200000d8       0x84 load address 0x00000000000059b0
                0x00000000200000d8                __data_start__ = .
 *(vtable)
 *(.data*)
 .data          0x00000000200000d8        0xc /Users/Luppy/PineTime/master-pinetime-rust-mynewt/bin/targets/nrf52_boot/app/hw/bsp/nrf52/hw_bsp_nrf52.a(sbrk.o)
 .data.SystemCoreClock
                0x00000000200000e4        0x4 /Users/Luppy/PineTime/master-pinetime-rust-mynewt/bin/targets/nrf52_boot/app/hw/mcu/nordic/nrf52xxx/hw_mcu_nordic_nrf52xxx.a(system_nrf52.o)
                0x00000000200000e4                SystemCoreClock
 .data.spiflash_dev
                0x00000000200000e8       0x40 /Users/Luppy/PineTime/master-pinetime-rust-mynewt/bin/targets/nrf52_boot/app/hw/drivers/flash/spiflash/hw_drivers_flash_spiflash.a(spiflash.o)
                0x00000000200000e8                spiflash_dev
 .data.supported_chips
                0x0000000020000128       0x10 /Users/Luppy/PineTime/master-pinetime-rust-mynewt/bin/targets/nrf52_boot/app/hw/drivers/flash/spiflash/hw_drivers_flash_spiflash.a(spiflash.o)
 .data.g_msys_pool_list
                0x0000000020000138        0x8 /Users/Luppy/PineTime/master-pinetime-rust-mynewt/bin/targets/nrf52_boot/app/kernel/os/kernel_os.a(os_msys.o)
 .data.g_os_run_list
                0x0000000020000140        0x8 /Users/Luppy/PineTime/master-pinetime-rust-mynewt/bin/targets/nrf52_boot/app/kernel/os/kernel_os.a(os_sched.o)
                0x0000000020000140                g_os_run_list
 .data          0x0000000020000148        0x0 /Users/Luppy/PineTime/master-pinetime-rust-mynewt/bin/targets/nrf52_boot/app/kernel/os/kernel_os.a(HAL_CM4.o)
                0x0000000020000148                __aeabi_unwind_cpp_pr0
 .data.log_enabled
                0x0000000020000148        0x1 /Users/Luppy/PineTime/master-pinetime-rust-mynewt/bin/targets/nrf52_boot/app/libs/semihosting_console/libs_semihosting_console.a(semihosting_console.o)
 *fill*         0x0000000020000149        0x3 
 .data.sysinit_panic_cb
                0x000000002000014c        0x4 /Users/Luppy/PineTime/master-pinetime-rust-mynewt/bin/targets/nrf52_boot/app/sys/sysinit/sys_sysinit.a(sysinit.o)
                0x000000002000014c                sysinit_panic_cb
 .data._stdin   0x0000000020000150        0x4 /Users/Luppy/PineTime/master-pinetime-rust-mynewt/bin/targets/nrf52_boot/app/libc/baselibc/libc_baselibc.a(mynewt.o)
 .data._stdin_methods
                0x0000000020000154        0x8 /Users/Luppy/PineTime/master-pinetime-rust-mynewt/bin/targets/nrf52_boot/app/libc/baselibc/libc_baselibc.a(mynewt.o)
                0x000000002000015c                . = ALIGN (0x4)
                [!provide]                        PROVIDE (__preinit_array_start = .)
 *(.preinit_array)
                [!provide]                        PROVIDE (__preinit_array_end = .)
                0x000000002000015c                . = ALIGN (0x4)
                [!provide]                        PROVIDE (__init_array_start = .)
 *(SORT_BY_NAME(.init_array.*))
 *(.init_array)
                [!provide]                        PROVIDE (__init_array_end = .)
                0x000000002000015c                . = ALIGN (0x4)
                [!provide]                        PROVIDE (__fini_array_start = .)
 *(SORT_BY_NAME(.fini_array.*))
 *(.fini_array)
                [!provide]                        PROVIDE (__fini_array_end = .)
 *(.jcr)
                0x000000002000015c                . = ALIGN (0x4)
                0x000000002000015c                __data_end__ = .

.igot.plt       0x000000002000015c        0x0 load address 0x0000000000005a34
 .igot.plt      0x000000002000015c        0x0 /Users/Luppy/PineTime/master-pinetime-rust-mynewt/bin/targets/nrf52_boot/app/hw/bsp/nrf52/hw_bsp_nrf52.a(gcc_startup_nrf52.o)

.bssnz          0x000000002000015c        0x0 load address 0x0000000000005a34
                0x000000002000015c                . = ALIGN (0x4)
                0x000000002000015c                __bssnz_start__ = .
 *(.bss.core.nz*)
                0x000000002000015c                . = ALIGN (0x4)
                0x000000002000015c                __bssnz_end__ = .

.bss            0x000000002000015c     0x62c8 load address 0x0000000000005a34
                0x000000002000015c                . = ALIGN (0x4)
                0x000000002000015c                __bss_start__ = .
 *(.bss*)
 .bss.g_os_dev_list
                0x000000002000015c        0x8 /Users/Luppy/PineTime/master-pinetime-rust-mynewt/bin/targets/nrf52_boot/app/kernel/os/kernel_os.a(os_dev.o)
 .bss.os_flags  0x0000000020000164        0x4 /Users/Luppy/PineTime/master-pinetime-rust-mynewt/bin/targets/nrf52_boot/app/kernel/os/kernel_os.a(os_arch_arm.o)
                0x0000000020000164                os_flags
 .bss.os_msys_1_data
                0x0000000020000168     0x4900 /Users/Luppy/PineTime/master-pinetime-rust-mynewt/bin/targets/nrf52_boot/app/kernel/os/kernel_os.a(os_msys.o)
 .bss.os_msys_1_mbuf_pool
                0x0000000020004a68        0xc /Users/Luppy/PineTime/master-pinetime-rust-mynewt/bin/targets/nrf52_boot/app/kernel/os/kernel_os.a(os_msys.o)
 .bss.os_msys_1_mempool
                0x0000000020004a74       0x1c /Users/Luppy/PineTime/master-pinetime-rust-mynewt/bin/targets/nrf52_boot/app/kernel/os/kernel_os.a(os_msys.o)
 .bss.flash_buffer
                0x0000000020004a90      0x100 /Users/Luppy/PineTime/master-pinetime-rust-mynewt/bin/targets/nrf52_boot/app/libs/pinetime_boot/libs_pinetime_boot.a(display.o)
 .bss.avail_queue
                0x0000000020004b90       0x10 /Users/Luppy/PineTime/master-pinetime-rust-mynewt/bin/targets/nrf52_boot/app/libs/semihosting_console/libs_semihosting_console.a(console.o)
 .bss.console_write_lock
                0x0000000020004ba0        0xc /Users/Luppy/PineTime/master-pinetime-rust-mynewt/bin/targets/nrf52_boot/app/libs/semihosting_console/libs_semihosting_console.a(console.o)
 .bss.semihost_mbuf
                0x0000000020004bac        0x4 /Users/Luppy/PineTime/master-pinetime-rust-mynewt/bin/targets/nrf52_boot/app/libs/semihosting_console/libs_semihosting_console.a(semihosting_console.o)
 .bss.do_ticks  0x0000000020004bb0        0x1 /Users/Luppy/PineTime/master-pinetime-rust-mynewt/bin/targets/nrf52_boot/app/libs/semihosting_console/libs_semihosting_console.a(ticks.o)
 *fill*         0x0000000020004bb1        0x3 
 .bss.boot_data
                0x0000000020004bb4       0x6c /Users/Luppy/PineTime/master-pinetime-rust-mynewt/bin/targets/nrf52_boot/app/boot/bootutil/boot_bootutil.a(loader.o)
 .bss.buf.4971  0x0000000020004c20      0x400 /Users/Luppy/PineTime/master-pinetime-rust-mynewt/bin/targets/nrf52_boot/app/boot/bootutil/boot_bootutil.a(loader.o)
 .bss.primary_slot_sectors.5011
                0x0000000020005020      0x600 /Users/Luppy/PineTime/master-pinetime-rust-mynewt/bin/targets/nrf52_boot/app/boot/bootutil/boot_bootutil.a(loader.o)
 .bss.scratch_sectors.5013
                0x0000000020005620      0x600 /Users/Luppy/PineTime/master-pinetime-rust-mynewt/bin/targets/nrf52_boot/app/boot/bootutil/boot_bootutil.a(loader.o)
 .bss.secondary_slot_sectors.5012
                0x0000000020005c20      0x600 /Users/Luppy/PineTime/master-pinetime-rust-mynewt/bin/targets/nrf52_boot/app/boot/bootutil/boot_bootutil.a(loader.o)
 .bss.tmpbuf.4904
                0x0000000020006220      0x100 /Users/Luppy/PineTime/master-pinetime-rust-mynewt/bin/targets/nrf52_boot/app/boot/bootutil/boot_bootutil.a(loader.o)
 .bss.protected_flash
                0x0000000020006320        0x1 /Users/Luppy/PineTime/master-pinetime-rust-mynewt/bin/targets/nrf52_boot/app/hw/hal/hw_hal.a(hal_flash.o)
 *fill*         0x0000000020006321        0x3 
 .bss.mfg_areas.7780
                0x0000000020006324       0x78 /Users/Luppy/PineTime/master-pinetime-rust-mynewt/bin/targets/nrf52_boot/app/sys/flash_map/sys_flash_map.a(flash_map.o)
 .bss.mfg_initialized
                0x000000002000639c        0x1 /Users/Luppy/PineTime/master-pinetime-rust-mynewt/bin/targets/nrf52_boot/app/sys/mfg/sys_mfg.a(mfg.o)
 *fill*         0x000000002000639d        0x3 
 .bss.mfg_mmrs  0x00000000200063a0       0x18 /Users/Luppy/PineTime/master-pinetime-rust-mynewt/bin/targets/nrf52_boot/app/sys/mfg/sys_mfg.a(mfg.o)
 .bss.mfg_num_mmrs
                0x00000000200063b8        0x4 /Users/Luppy/PineTime/master-pinetime-rust-mynewt/bin/targets/nrf52_boot/app/sys/mfg/sys_mfg.a(mfg.o)
 *(COMMON)
 COMMON         0x00000000200063bc       0x28 /Users/Luppy/PineTime/master-pinetime-rust-mynewt/bin/targets/nrf52_boot/app/hw/mcu/nordic/nrf52xxx/hw_mcu_nordic_nrf52xxx.a(hal_spi.o)
                0x00000000200063bc                nrf52_hal_spi0
 COMMON         0x00000000200063e4       0x1c /Users/Luppy/PineTime/master-pinetime-rust-mynewt/bin/targets/nrf52_boot/app/hw/mcu/nordic/nrf52xxx/hw_mcu_nordic_nrf52xxx.a(hal_timer.o)
                0x00000000200063e4                nrf52_hal_timer0
 COMMON         0x0000000020006400        0x8 /Users/Luppy/PineTime/master-pinetime-rust-mynewt/bin/targets/nrf52_boot/app/kernel/os/kernel_os.a(os_mempool.o)
                0x0000000020006400                g_os_mempool_list
 COMMON         0x0000000020006408        0x8 /Users/Luppy/PineTime/master-pinetime-rust-mynewt/bin/targets/nrf52_boot/app/kernel/os/kernel_os.a(os_sched.o)
                0x0000000020006408                g_current_task
                0x000000002000640c                g_os_last_ctx_sw_time
 COMMON         0x0000000020006410        0x4 /Users/Luppy/PineTime/master-pinetime-rust-mynewt/bin/targets/nrf52_boot/app/kernel/os/kernel_os.a(os_time.o)
                0x0000000020006410                g_os_time
 COMMON         0x0000000020006414        0x6 /Users/Luppy/PineTime/master-pinetime-rust-mynewt/bin/targets/nrf52_boot/app/libs/semihosting_console/libs_semihosting_console.a(console.o)
                0x0000000020006414                console_is_midline
                0x0000000020006418                g_console_input_ignore
                0x0000000020006419                g_silence_console
 COMMON         0x000000002000641a        0x1 /Users/Luppy/PineTime/master-pinetime-rust-mynewt/bin/targets/nrf52_boot/app/sys/sysinit/sys_sysinit.a(sysinit.o)
                0x000000002000641a                sysinit_active
 *fill*         0x000000002000641b        0x1 
 COMMON         0x000000002000641c        0x8 /Users/Luppy/PineTime/master-pinetime-rust-mynewt/bin/targets/nrf52_boot/app/sys/flash_map/sys_flash_map.a(flash_map.o)
                0x000000002000641c                flash_map
                0x0000000020006420                flash_map_entries
                0x0000000020006424                . = ALIGN (0x4)
                0x0000000020006424                __bss_end__ = .
                0x0000000020006428                . = ALIGN (0x8)
                0x0000000020006428                __HeapBase = .

.stack_dummy    0x0000000020006428      0x1b0 load address 0x0000000000005a34
 *(.stack*)
 .stack         0x0000000020006428      0x1b0 /Users/Luppy/PineTime/master-pinetime-rust-mynewt/bin/targets/nrf52_boot/app/hw/bsp/nrf52/hw_bsp_nrf52.a(gcc_startup_nrf52.o)
                0x0000000020000000                _ram_start = ORIGIN (RAM)
                0x0000000020010000                __StackTop = (ORIGIN (RAM) + LENGTH (RAM))
                0x000000002000fe50                __StackLimit = (__StackTop - SIZEOF (.stack_dummy))
                [!provide]                        PROVIDE (__stack = __StackTop)
                0x000000002000fe50                __HeapLimit = __StackLimit
                0x0000000000000001                ASSERT ((__HeapBase <= __HeapLimit), region RAM overflowed with stack)
OUTPUT(/Users/Luppy/PineTime/master-pinetime-rust-mynewt/bin/targets/nrf52_boot/app/boot/mynewt/mynewt.elf elf32-littlearm)

.heap           0x0000000000000000        0x0
 .heap          0x0000000000000000        0x0 /Users/Luppy/PineTime/master-pinetime-rust-mynewt/bin/targets/nrf52_boot/app/hw/bsp/nrf52/hw_bsp_nrf52.a(gcc_startup_nrf52.o)

.ARM.attributes
                0x0000000000000000       0x2f
 .ARM.attributes
                0x0000000000000000       0x1b /Users/Luppy/PineTime/master-pinetime-rust-mynewt/bin/targets/nrf52_boot/app/hw/bsp/nrf52/hw_bsp_nrf52.a(gcc_startup_nrf52.o)
 .ARM.attributes
                0x000000000000001b       0x33 /Users/Luppy/PineTime/master-pinetime-rust-mynewt/bin/targets/nrf52_boot/app/hw/bsp/nrf52/hw_bsp_nrf52.a(sbrk.o)
 .ARM.attributes
                0x000000000000004e       0x33 /Users/Luppy/PineTime/master-pinetime-rust-mynewt/bin/targets/nrf52_boot/app/hw/mcu/nordic/nrf52xxx/hw_mcu_nordic_nrf52xxx.a(hal_system.o)
 .ARM.attributes
                0x0000000000000081       0x33 /Users/Luppy/PineTime/master-pinetime-rust-mynewt/bin/targets/nrf52_boot/app/hw/mcu/nordic/nrf52xxx/hw_mcu_nordic_nrf52xxx.a(system_nrf52.o)
 .ARM.attributes
                0x00000000000000b4       0x33 /Users/Luppy/PineTime/master-pinetime-rust-mynewt/bin/targets/nrf52_boot/app/libc/baselibc/libc_baselibc.a(start.o)
 .ARM.attributes
                0x00000000000000e7       0x33 /Users/Luppy/PineTime/master-pinetime-rust-mynewt/bin/targets/nrf52_boot/app/boot/mynewt/boot_mynewt.a(main.o)
 .ARM.attributes
                0x000000000000011a       0x33 /Users/Luppy/PineTime/master-pinetime-rust-mynewt/bin/targets/nrf52_boot/app/hw/bsp/nrf52/hw_bsp_nrf52.a(hal_bsp.o)
 .ARM.attributes
                0x000000000000014d       0x33 /Users/Luppy/PineTime/master-pinetime-rust-mynewt/bin/targets/nrf52_boot/app/hw/cmsis-core/hw_cmsis-core.a(cmsis_nvic.o)
 .ARM.attributes
                0x0000000000000180       0x33 /Users/Luppy/PineTime/master-pinetime-rust-mynewt/bin/targets/nrf52_boot/app/hw/drivers/flash/spiflash/hw_drivers_flash_spiflash.a(spiflash.o)
 .ARM.attributes
                0x00000000000001b3       0x33 /Users/Luppy/PineTime/master-pinetime-rust-mynewt/bin/targets/nrf52_boot/app/hw/hal/hw_hal.a(hal_common.o)
 .ARM.attributes
                0x00000000000001e6       0x33 /Users/Luppy/PineTime/master-pinetime-rust-mynewt/bin/targets/nrf52_boot/app/hw/mcu/nordic/nrf52xxx/hw_mcu_nordic_nrf52xxx.a(hal_flash.o)
 .ARM.attributes
                0x0000000000000219       0x33 /Users/Luppy/PineTime/master-pinetime-rust-mynewt/bin/targets/nrf52_boot/app/hw/mcu/nordic/nrf52xxx/hw_mcu_nordic_nrf52xxx.a(hal_gpio.o)
 .ARM.attributes
                0x000000000000024c       0x33 /Users/Luppy/PineTime/master-pinetime-rust-mynewt/bin/targets/nrf52_boot/app/hw/mcu/nordic/nrf52xxx/hw_mcu_nordic_nrf52xxx.a(hal_spi.o)
 .ARM.attributes
                0x000000000000027f       0x33 /Users/Luppy/PineTime/master-pinetime-rust-mynewt/bin/targets/nrf52_boot/app/hw/mcu/nordic/nrf52xxx/hw_mcu_nordic_nrf52xxx.a(hal_watchdog.o)
 .ARM.attributes
                0x00000000000002b2       0x33 /Users/Luppy/PineTime/master-pinetime-rust-mynewt/bin/targets/nrf52_boot/app/hw/mcu/nordic/nrf52xxx/hw_mcu_nordic_nrf52xxx.a(nrf52_periph.o)
 .ARM.attributes
                0x00000000000002e5       0x33 /Users/Luppy/PineTime/master-pinetime-rust-mynewt/bin/targets/nrf52_boot/app/hw/mcu/nordic/nrf52xxx/hw_mcu_nordic_nrf52xxx.a(hal_timer.o)
 .ARM.attributes
                0x0000000000000318       0x33 /Users/Luppy/PineTime/master-pinetime-rust-mynewt/bin/targets/nrf52_boot/app/kernel/os/kernel_os.a(os_fault.o)
 .ARM.attributes
                0x000000000000034b       0x33 /Users/Luppy/PineTime/master-pinetime-rust-mynewt/bin/targets/nrf52_boot/app/kernel/os/kernel_os.a(os_cputime.o)
 .ARM.attributes
                0x000000000000037e       0x33 /Users/Luppy/PineTime/master-pinetime-rust-mynewt/bin/targets/nrf52_boot/app/kernel/os/kernel_os.a(os_dev.o)
 .ARM.attributes
                0x00000000000003b1       0x33 /Users/Luppy/PineTime/master-pinetime-rust-mynewt/bin/targets/nrf52_boot/app/kernel/os/kernel_os.a(os_arch_arm.o)
 .ARM.attributes
                0x00000000000003e4       0x33 /Users/Luppy/PineTime/master-pinetime-rust-mynewt/bin/targets/nrf52_boot/app/kernel/os/kernel_os.a(os.o)
 .ARM.attributes
                0x0000000000000417       0x33 /Users/Luppy/PineTime/master-pinetime-rust-mynewt/bin/targets/nrf52_boot/app/kernel/os/kernel_os.a(os_eventq.o)
 .ARM.attributes
                0x000000000000044a       0x33 /Users/Luppy/PineTime/master-pinetime-rust-mynewt/bin/targets/nrf52_boot/app/kernel/os/kernel_os.a(os_mempool.o)
 .ARM.attributes
                0x000000000000047d       0x33 /Users/Luppy/PineTime/master-pinetime-rust-mynewt/bin/targets/nrf52_boot/app/kernel/os/kernel_os.a(os_msys.o)
 .ARM.attributes
                0x00000000000004b0       0x33 /Users/Luppy/PineTime/master-pinetime-rust-mynewt/bin/targets/nrf52_boot/app/kernel/os/kernel_os.a(os_sched.o)
 .ARM.attributes
                0x00000000000004e3       0x33 /Users/Luppy/PineTime/master-pinetime-rust-mynewt/bin/targets/nrf52_boot/app/kernel/os/kernel_os.a(os_time.o)
 .ARM.attributes
                0x0000000000000516       0x21 /Users/Luppy/PineTime/master-pinetime-rust-mynewt/bin/targets/nrf52_boot/app/kernel/os/kernel_os.a(HAL_CM4.o)
 .ARM.attributes
                0x0000000000000537       0x33 /Users/Luppy/PineTime/master-pinetime-rust-mynewt/bin/targets/nrf52_boot/app/kernel/os/kernel_os.a(os_mbuf.o)
 .ARM.attributes
                0x000000000000056a       0x33 /Users/Luppy/PineTime/master-pinetime-rust-mynewt/bin/targets/nrf52_boot/app/kernel/os/kernel_os.a(os_mutex.o)
 .ARM.attributes
                0x000000000000059d       0x33 /Users/Luppy/PineTime/master-pinetime-rust-mynewt/bin/targets/nrf52_boot/app/libc/baselibc/libc_baselibc.a(memcmp.o)
 .ARM.attributes
                0x00000000000005d0       0x33 /Users/Luppy/PineTime/master-pinetime-rust-mynewt/bin/targets/nrf52_boot/app/libc/baselibc/libc_baselibc.a(memcpy.o)
 .ARM.attributes
                0x0000000000000603       0x33 /Users/Luppy/PineTime/master-pinetime-rust-mynewt/bin/targets/nrf52_boot/app/libc/baselibc/libc_baselibc.a(memset.o)
 .ARM.attributes
                0x0000000000000636       0x33 /Users/Luppy/PineTime/master-pinetime-rust-mynewt/bin/targets/nrf52_boot/app/libs/pinetime_boot/libs_pinetime_boot.a(pinetime_boot.o)
 .ARM.attributes
                0x0000000000000669       0x33 /Users/Luppy/PineTime/master-pinetime-rust-mynewt/bin/targets/nrf52_boot/app/libs/pinetime_boot/libs_pinetime_boot.a(display.o)
 .ARM.attributes
                0x000000000000069c       0x33 /Users/Luppy/PineTime/master-pinetime-rust-mynewt/bin/targets/nrf52_boot/app/libs/semihosting_console/libs_semihosting_console.a(console.o)
 .ARM.attributes
                0x00000000000006cf       0x33 /Users/Luppy/PineTime/master-pinetime-rust-mynewt/bin/targets/nrf52_boot/app/libs/semihosting_console/libs_semihosting_console.a(console_fmt.o)
 .ARM.attributes
                0x0000000000000702       0x33 /Users/Luppy/PineTime/master-pinetime-rust-mynewt/bin/targets/nrf52_boot/app/libs/semihosting_console/libs_semihosting_console.a(semihosting_console.o)
 .ARM.attributes
                0x0000000000000735       0x33 /Users/Luppy/PineTime/master-pinetime-rust-mynewt/bin/targets/nrf52_boot/app/libs/semihosting_console/libs_semihosting_console.a(ticks.o)
 .ARM.attributes
                0x0000000000000768       0x33 /Users/Luppy/PineTime/master-pinetime-rust-mynewt/bin/targets/nrf52_boot/app/sys/sysinit/sys_sysinit.a(sysinit.o)
 .ARM.attributes
                0x000000000000079b       0x33 /Users/Luppy/PineTime/master-pinetime-rust-mynewt/bin/targets/nrf52_boot/app/util/mem/util_mem.a(mem.o)
 .ARM.attributes
                0x00000000000007ce       0x33 /Users/Luppy/PineTime/master-pinetime-rust-mynewt/bin/targets/nrf52_boot/generated/bin/nrf52_boot-sysinit-app.a(nrf52_boot-sysinit-app.o)
 .ARM.attributes
                0x0000000000000801       0x33 /Users/Luppy/PineTime/master-pinetime-rust-mynewt/bin/targets/nrf52_boot/app/boot/bootutil/boot_bootutil.a(bootutil_misc.o)
 .ARM.attributes
                0x0000000000000834       0x33 /Users/Luppy/PineTime/master-pinetime-rust-mynewt/bin/targets/nrf52_boot/app/boot/bootutil/boot_bootutil.a(loader.o)
 .ARM.attributes
                0x0000000000000867       0x33 /Users/Luppy/PineTime/master-pinetime-rust-mynewt/bin/targets/nrf52_boot/app/boot/bootutil/boot_bootutil.a(swap_misc.o)
 .ARM.attributes
                0x000000000000089a       0x33 /Users/Luppy/PineTime/master-pinetime-rust-mynewt/bin/targets/nrf52_boot/app/boot/bootutil/boot_bootutil.a(swap_scratch.o)
 .ARM.attributes
                0x00000000000008cd       0x33 /Users/Luppy/PineTime/master-pinetime-rust-mynewt/bin/targets/nrf52_boot/app/boot/bootutil/boot_bootutil.a(image_validate.o)
 .ARM.attributes
                0x0000000000000900       0x33 /Users/Luppy/PineTime/master-pinetime-rust-mynewt/bin/targets/nrf52_boot/app/boot/bootutil/boot_bootutil.a(tlv.o)
 .ARM.attributes
                0x0000000000000933       0x33 /Users/Luppy/PineTime/master-pinetime-rust-mynewt/bin/targets/nrf52_boot/app/boot/mynewt/flash_map_backend/boot_mynewt_flash_map_backend.a(flash_map_extended.o)
 .ARM.attributes
                0x0000000000000966       0x33 /Users/Luppy/PineTime/master-pinetime-rust-mynewt/bin/targets/nrf52_boot/app/crypto/mbedtls/crypto_mbedtls.a(sha256.o)
 .ARM.attributes
                0x0000000000000999       0x33 /Users/Luppy/PineTime/master-pinetime-rust-mynewt/bin/targets/nrf52_boot/app/hw/hal/hw_hal.a(hal_flash.o)
 .ARM.attributes
                0x00000000000009cc       0x33 /Users/Luppy/PineTime/master-pinetime-rust-mynewt/bin/targets/nrf52_boot/app/hw/mcu/nordic/nrf52xxx/hw_mcu_nordic_nrf52xxx.a(hal_system_start.o)
 .ARM.attributes
                0x00000000000009ff       0x33 /Users/Luppy/PineTime/master-pinetime-rust-mynewt/bin/targets/nrf52_boot/app/libc/baselibc/libc_baselibc.a(inline.o)
 .ARM.attributes
                0x0000000000000a32       0x33 /Users/Luppy/PineTime/master-pinetime-rust-mynewt/bin/targets/nrf52_boot/app/libc/baselibc/libc_baselibc.a(mynewt.o)
 .ARM.attributes
                0x0000000000000a65       0x33 /Users/Luppy/PineTime/master-pinetime-rust-mynewt/bin/targets/nrf52_boot/app/libc/baselibc/libc_baselibc.a(strlen.o)
 .ARM.attributes
                0x0000000000000a98       0x33 /Users/Luppy/PineTime/master-pinetime-rust-mynewt/bin/targets/nrf52_boot/app/libc/baselibc/libc_baselibc.a(tinyprintf.o)
 .ARM.attributes
                0x0000000000000acb       0x33 /Users/Luppy/PineTime/master-pinetime-rust-mynewt/bin/targets/nrf52_boot/app/libc/baselibc/libc_baselibc.a(vprintf.o)
 .ARM.attributes
                0x0000000000000afe       0x33 /Users/Luppy/PineTime/master-pinetime-rust-mynewt/bin/targets/nrf52_boot/app/sys/flash_map/sys_flash_map.a(flash_map.o)
 .ARM.attributes
                0x0000000000000b31       0x33 /Users/Luppy/PineTime/master-pinetime-rust-mynewt/bin/targets/nrf52_boot/app/sys/log/modlog/sys_log_modlog.a(modlog.o)
 .ARM.attributes
                0x0000000000000b64       0x33 /Users/Luppy/PineTime/master-pinetime-rust-mynewt/bin/targets/nrf52_boot/app/sys/mfg/sys_mfg.a(mfg.o)
 .ARM.attributes
                0x0000000000000b97       0x33 /Users/Luppy/PineTime/master-pinetime-rust-mynewt/bin/targets/nrf52_boot/generated/bin/nrf52_boot-sysinit-app.a(nrf52_boot-sysflash.o)
 .ARM.attributes
                0x0000000000000bca       0x1e /usr/local/Cellar/arm-none-eabi-gcc/7-2018-q2-update/gcc/bin/../lib/gcc/arm-none-eabi/7.3.1/thumb/v7e-m/libgcc.a(_aeabi_uldivmod.o)
 .ARM.attributes
                0x0000000000000be8       0x2e /usr/local/Cellar/arm-none-eabi-gcc/7-2018-q2-update/gcc/bin/../lib/gcc/arm-none-eabi/7.3.1/thumb/v7e-m/libgcc.a(_udivmoddi4.o)
 .ARM.attributes
                0x0000000000000c16       0x1e /usr/local/Cellar/arm-none-eabi-gcc/7-2018-q2-update/gcc/bin/../lib/gcc/arm-none-eabi/7.3.1/thumb/v7e-m/libgcc.a(_dvmd_tls.o)

.comment        0x0000000000000000       0x7f
 .comment       0x0000000000000000       0x7f /Users/Luppy/PineTime/master-pinetime-rust-mynewt/bin/targets/nrf52_boot/app/hw/bsp/nrf52/hw_bsp_nrf52.a(sbrk.o)
                                         0x80 (size before relaxing)
 .comment       0x000000000000007f       0x80 /Users/Luppy/PineTime/master-pinetime-rust-mynewt/bin/targets/nrf52_boot/app/hw/mcu/nordic/nrf52xxx/hw_mcu_nordic_nrf52xxx.a(hal_system.o)
 .comment       0x000000000000007f       0x80 /Users/Luppy/PineTime/master-pinetime-rust-mynewt/bin/targets/nrf52_boot/app/hw/mcu/nordic/nrf52xxx/hw_mcu_nordic_nrf52xxx.a(system_nrf52.o)
 .comment       0x000000000000007f       0x80 /Users/Luppy/PineTime/master-pinetime-rust-mynewt/bin/targets/nrf52_boot/app/libc/baselibc/libc_baselibc.a(start.o)
 .comment       0x000000000000007f       0x80 /Users/Luppy/PineTime/master-pinetime-rust-mynewt/bin/targets/nrf52_boot/app/boot/mynewt/boot_mynewt.a(main.o)
 .comment       0x000000000000007f       0x80 /Users/Luppy/PineTime/master-pinetime-rust-mynewt/bin/targets/nrf52_boot/app/hw/bsp/nrf52/hw_bsp_nrf52.a(hal_bsp.o)
 .comment       0x000000000000007f       0x80 /Users/Luppy/PineTime/master-pinetime-rust-mynewt/bin/targets/nrf52_boot/app/hw/cmsis-core/hw_cmsis-core.a(cmsis_nvic.o)
 .comment       0x000000000000007f       0x80 /Users/Luppy/PineTime/master-pinetime-rust-mynewt/bin/targets/nrf52_boot/app/hw/drivers/flash/spiflash/hw_drivers_flash_spiflash.a(spiflash.o)
 .comment       0x000000000000007f       0x80 /Users/Luppy/PineTime/master-pinetime-rust-mynewt/bin/targets/nrf52_boot/app/hw/hal/hw_hal.a(hal_common.o)
 .comment       0x000000000000007f       0x80 /Users/Luppy/PineTime/master-pinetime-rust-mynewt/bin/targets/nrf52_boot/app/hw/mcu/nordic/nrf52xxx/hw_mcu_nordic_nrf52xxx.a(hal_flash.o)
 .comment       0x000000000000007f       0x80 /Users/Luppy/PineTime/master-pinetime-rust-mynewt/bin/targets/nrf52_boot/app/hw/mcu/nordic/nrf52xxx/hw_mcu_nordic_nrf52xxx.a(hal_gpio.o)
 .comment       0x000000000000007f       0x80 /Users/Luppy/PineTime/master-pinetime-rust-mynewt/bin/targets/nrf52_boot/app/hw/mcu/nordic/nrf52xxx/hw_mcu_nordic_nrf52xxx.a(hal_spi.o)
 .comment       0x000000000000007f       0x80 /Users/Luppy/PineTime/master-pinetime-rust-mynewt/bin/targets/nrf52_boot/app/hw/mcu/nordic/nrf52xxx/hw_mcu_nordic_nrf52xxx.a(hal_watchdog.o)
 .comment       0x000000000000007f       0x80 /Users/Luppy/PineTime/master-pinetime-rust-mynewt/bin/targets/nrf52_boot/app/hw/mcu/nordic/nrf52xxx/hw_mcu_nordic_nrf52xxx.a(nrf52_periph.o)
 .comment       0x000000000000007f       0x80 /Users/Luppy/PineTime/master-pinetime-rust-mynewt/bin/targets/nrf52_boot/app/hw/mcu/nordic/nrf52xxx/hw_mcu_nordic_nrf52xxx.a(hal_timer.o)
 .comment       0x000000000000007f       0x80 /Users/Luppy/PineTime/master-pinetime-rust-mynewt/bin/targets/nrf52_boot/app/kernel/os/kernel_os.a(os_fault.o)
 .comment       0x000000000000007f       0x80 /Users/Luppy/PineTime/master-pinetime-rust-mynewt/bin/targets/nrf52_boot/app/kernel/os/kernel_os.a(os_cputime.o)
 .comment       0x000000000000007f       0x80 /Users/Luppy/PineTime/master-pinetime-rust-mynewt/bin/targets/nrf52_boot/app/kernel/os/kernel_os.a(os_dev.o)
 .comment       0x000000000000007f       0x80 /Users/Luppy/PineTime/master-pinetime-rust-mynewt/bin/targets/nrf52_boot/app/kernel/os/kernel_os.a(os_arch_arm.o)
 .comment       0x000000000000007f       0x80 /Users/Luppy/PineTime/master-pinetime-rust-mynewt/bin/targets/nrf52_boot/app/kernel/os/kernel_os.a(os.o)
 .comment       0x000000000000007f       0x80 /Users/Luppy/PineTime/master-pinetime-rust-mynewt/bin/targets/nrf52_boot/app/kernel/os/kernel_os.a(os_eventq.o)
 .comment       0x000000000000007f       0x80 /Users/Luppy/PineTime/master-pinetime-rust-mynewt/bin/targets/nrf52_boot/app/kernel/os/kernel_os.a(os_mempool.o)
 .comment       0x000000000000007f       0x80 /Users/Luppy/PineTime/master-pinetime-rust-mynewt/bin/targets/nrf52_boot/app/kernel/os/kernel_os.a(os_msys.o)
 .comment       0x000000000000007f       0x80 /Users/Luppy/PineTime/master-pinetime-rust-mynewt/bin/targets/nrf52_boot/app/kernel/os/kernel_os.a(os_sched.o)
 .comment       0x000000000000007f       0x80 /Users/Luppy/PineTime/master-pinetime-rust-mynewt/bin/targets/nrf52_boot/app/kernel/os/kernel_os.a(os_time.o)
 .comment       0x000000000000007f       0x80 /Users/Luppy/PineTime/master-pinetime-rust-mynewt/bin/targets/nrf52_boot/app/kernel/os/kernel_os.a(os_mbuf.o)
 .comment       0x000000000000007f       0x80 /Users/Luppy/PineTime/master-pinetime-rust-mynewt/bin/targets/nrf52_boot/app/kernel/os/kernel_os.a(os_mutex.o)
 .comment       0x000000000000007f       0x80 /Users/Luppy/PineTime/master-pinetime-rust-mynewt/bin/targets/nrf52_boot/app/libc/baselibc/libc_baselibc.a(memcmp.o)
 .comment       0x000000000000007f       0x80 /Users/Luppy/PineTime/master-pinetime-rust-mynewt/bin/targets/nrf52_boot/app/libc/baselibc/libc_baselibc.a(memcpy.o)
 .comment       0x000000000000007f       0x80 /Users/Luppy/PineTime/master-pinetime-rust-mynewt/bin/targets/nrf52_boot/app/libc/baselibc/libc_baselibc.a(memset.o)
 .comment       0x000000000000007f       0x80 /Users/Luppy/PineTime/master-pinetime-rust-mynewt/bin/targets/nrf52_boot/app/libs/pinetime_boot/libs_pinetime_boot.a(pinetime_boot.o)
 .comment       0x000000000000007f       0x80 /Users/Luppy/PineTime/master-pinetime-rust-mynewt/bin/targets/nrf52_boot/app/libs/pinetime_boot/libs_pinetime_boot.a(display.o)
 .comment       0x000000000000007f       0x80 /Users/Luppy/PineTime/master-pinetime-rust-mynewt/bin/targets/nrf52_boot/app/libs/semihosting_console/libs_semihosting_console.a(console.o)
 .comment       0x000000000000007f       0x80 /Users/Luppy/PineTime/master-pinetime-rust-mynewt/bin/targets/nrf52_boot/app/libs/semihosting_console/libs_semihosting_console.a(console_fmt.o)
 .comment       0x000000000000007f       0x80 /Users/Luppy/PineTime/master-pinetime-rust-mynewt/bin/targets/nrf52_boot/app/libs/semihosting_console/libs_semihosting_console.a(semihosting_console.o)
 .comment       0x000000000000007f       0x80 /Users/Luppy/PineTime/master-pinetime-rust-mynewt/bin/targets/nrf52_boot/app/libs/semihosting_console/libs_semihosting_console.a(ticks.o)
 .comment       0x000000000000007f       0x80 /Users/Luppy/PineTime/master-pinetime-rust-mynewt/bin/targets/nrf52_boot/app/sys/sysinit/sys_sysinit.a(sysinit.o)
 .comment       0x000000000000007f       0x80 /Users/Luppy/PineTime/master-pinetime-rust-mynewt/bin/targets/nrf52_boot/app/util/mem/util_mem.a(mem.o)
 .comment       0x000000000000007f       0x80 /Users/Luppy/PineTime/master-pinetime-rust-mynewt/bin/targets/nrf52_boot/generated/bin/nrf52_boot-sysinit-app.a(nrf52_boot-sysinit-app.o)
 .comment       0x000000000000007f       0x80 /Users/Luppy/PineTime/master-pinetime-rust-mynewt/bin/targets/nrf52_boot/app/boot/bootutil/boot_bootutil.a(bootutil_misc.o)
 .comment       0x000000000000007f       0x80 /Users/Luppy/PineTime/master-pinetime-rust-mynewt/bin/targets/nrf52_boot/app/boot/bootutil/boot_bootutil.a(loader.o)
 .comment       0x000000000000007f       0x80 /Users/Luppy/PineTime/master-pinetime-rust-mynewt/bin/targets/nrf52_boot/app/boot/bootutil/boot_bootutil.a(swap_misc.o)
 .comment       0x000000000000007f       0x80 /Users/Luppy/PineTime/master-pinetime-rust-mynewt/bin/targets/nrf52_boot/app/boot/bootutil/boot_bootutil.a(swap_scratch.o)
 .comment       0x000000000000007f       0x80 /Users/Luppy/PineTime/master-pinetime-rust-mynewt/bin/targets/nrf52_boot/app/boot/bootutil/boot_bootutil.a(image_validate.o)
 .comment       0x000000000000007f       0x80 /Users/Luppy/PineTime/master-pinetime-rust-mynewt/bin/targets/nrf52_boot/app/boot/bootutil/boot_bootutil.a(tlv.o)
 .comment       0x000000000000007f       0x80 /Users/Luppy/PineTime/master-pinetime-rust-mynewt/bin/targets/nrf52_boot/app/boot/mynewt/flash_map_backend/boot_mynewt_flash_map_backend.a(flash_map_extended.o)
 .comment       0x000000000000007f       0x80 /Users/Luppy/PineTime/master-pinetime-rust-mynewt/bin/targets/nrf52_boot/app/crypto/mbedtls/crypto_mbedtls.a(sha256.o)
 .comment       0x000000000000007f       0x80 /Users/Luppy/PineTime/master-pinetime-rust-mynewt/bin/targets/nrf52_boot/app/hw/hal/hw_hal.a(hal_flash.o)
 .comment       0x000000000000007f       0x80 /Users/Luppy/PineTime/master-pinetime-rust-mynewt/bin/targets/nrf52_boot/app/hw/mcu/nordic/nrf52xxx/hw_mcu_nordic_nrf52xxx.a(hal_system_start.o)
 .comment       0x000000000000007f       0x80 /Users/Luppy/PineTime/master-pinetime-rust-mynewt/bin/targets/nrf52_boot/app/libc/baselibc/libc_baselibc.a(inline.o)
 .comment       0x000000000000007f       0x80 /Users/Luppy/PineTime/master-pinetime-rust-mynewt/bin/targets/nrf52_boot/app/libc/baselibc/libc_baselibc.a(mynewt.o)
 .comment       0x000000000000007f       0x80 /Users/Luppy/PineTime/master-pinetime-rust-mynewt/bin/targets/nrf52_boot/app/libc/baselibc/libc_baselibc.a(strlen.o)
 .comment       0x000000000000007f       0x80 /Users/Luppy/PineTime/master-pinetime-rust-mynewt/bin/targets/nrf52_boot/app/libc/baselibc/libc_baselibc.a(tinyprintf.o)
 .comment       0x000000000000007f       0x80 /Users/Luppy/PineTime/master-pinetime-rust-mynewt/bin/targets/nrf52_boot/app/libc/baselibc/libc_baselibc.a(vprintf.o)
 .comment       0x000000000000007f       0x80 /Users/Luppy/PineTime/master-pinetime-rust-mynewt/bin/targets/nrf52_boot/app/sys/flash_map/sys_flash_map.a(flash_map.o)
 .comment       0x000000000000007f       0x80 /Users/Luppy/PineTime/master-pinetime-rust-mynewt/bin/targets/nrf52_boot/app/sys/log/modlog/sys_log_modlog.a(modlog.o)
 .comment       0x000000000000007f       0x80 /Users/Luppy/PineTime/master-pinetime-rust-mynewt/bin/targets/nrf52_boot/app/sys/mfg/sys_mfg.a(mfg.o)
 .comment       0x000000000000007f       0x80 /Users/Luppy/PineTime/master-pinetime-rust-mynewt/bin/targets/nrf52_boot/generated/bin/nrf52_boot-sysinit-app.a(nrf52_boot-sysflash.o)

.svc_table      0x0000000000000000        0x4
 .svc_table     0x0000000000000000        0x4 /Users/Luppy/PineTime/master-pinetime-rust-mynewt/bin/targets/nrf52_boot/app/kernel/os/kernel_os.a(SVC_Table.o)
                0x0000000000000000                SVC_Count
                0x0000000000000000                SVC_Table

.debug_line     0x0000000000000000    0x11855
 .debug_line    0x0000000000000000       0x99 /Users/Luppy/PineTime/master-pinetime-rust-mynewt/bin/targets/nrf52_boot/app/hw/bsp/nrf52/hw_bsp_nrf52.a(gcc_startup_nrf52.o)
 .debug_line    0x0000000000000099       0x68 /Users/Luppy/PineTime/master-pinetime-rust-mynewt/bin/targets/nrf52_boot/app/hw/bsp/nrf52/hw_bsp_nrf52.a(sbrk.o)
 .debug_line    0x0000000000000101      0x234 /Users/Luppy/PineTime/master-pinetime-rust-mynewt/bin/targets/nrf52_boot/app/hw/mcu/nordic/nrf52xxx/hw_mcu_nordic_nrf52xxx.a(hal_system.o)
 .debug_line    0x0000000000000335      0x399 /Users/Luppy/PineTime/master-pinetime-rust-mynewt/bin/targets/nrf52_boot/app/hw/mcu/nordic/nrf52xxx/hw_mcu_nordic_nrf52xxx.a(system_nrf52.o)
 .debug_line    0x00000000000006ce      0x43f /Users/Luppy/PineTime/master-pinetime-rust-mynewt/bin/targets/nrf52_boot/app/libc/baselibc/libc_baselibc.a(start.o)
 .debug_line    0x0000000000000b0d      0x547 /Users/Luppy/PineTime/master-pinetime-rust-mynewt/bin/targets/nrf52_boot/app/boot/mynewt/boot_mynewt.a(main.o)
 .debug_line    0x0000000000001054      0x5d9 /Users/Luppy/PineTime/master-pinetime-rust-mynewt/bin/targets/nrf52_boot/app/hw/bsp/nrf52/hw_bsp_nrf52.a(hal_bsp.o)
 .debug_line    0x000000000000162d      0x1d0 /Users/Luppy/PineTime/master-pinetime-rust-mynewt/bin/targets/nrf52_boot/app/hw/cmsis-core/hw_cmsis-core.a(cmsis_nvic.o)
 .debug_line    0x00000000000017fd      0x80e /Users/Luppy/PineTime/master-pinetime-rust-mynewt/bin/targets/nrf52_boot/app/hw/drivers/flash/spiflash/hw_drivers_flash_spiflash.a(spiflash.o)
 .debug_line    0x000000000000200b      0x1a3 /Users/Luppy/PineTime/master-pinetime-rust-mynewt/bin/targets/nrf52_boot/app/hw/hal/hw_hal.a(hal_common.o)
 .debug_line    0x00000000000021ae      0x38f /Users/Luppy/PineTime/master-pinetime-rust-mynewt/bin/targets/nrf52_boot/app/hw/mcu/nordic/nrf52xxx/hw_mcu_nordic_nrf52xxx.a(hal_flash.o)
 .debug_line    0x000000000000253d      0x663 /Users/Luppy/PineTime/master-pinetime-rust-mynewt/bin/targets/nrf52_boot/app/hw/mcu/nordic/nrf52xxx/hw_mcu_nordic_nrf52xxx.a(hal_gpio.o)
 .debug_line    0x0000000000002ba0      0x88b /Users/Luppy/PineTime/master-pinetime-rust-mynewt/bin/targets/nrf52_boot/app/hw/mcu/nordic/nrf52xxx/hw_mcu_nordic_nrf52xxx.a(hal_spi.o)
 .debug_line    0x000000000000342b      0x4bf /Users/Luppy/PineTime/master-pinetime-rust-mynewt/bin/targets/nrf52_boot/app/hw/mcu/nordic/nrf52xxx/hw_mcu_nordic_nrf52xxx.a(hal_watchdog.o)
 .debug_line    0x00000000000038ea      0x585 /Users/Luppy/PineTime/master-pinetime-rust-mynewt/bin/targets/nrf52_boot/app/hw/mcu/nordic/nrf52xxx/hw_mcu_nordic_nrf52xxx.a(nrf52_periph.o)
 .debug_line    0x0000000000003e6f      0x8c5 /Users/Luppy/PineTime/master-pinetime-rust-mynewt/bin/targets/nrf52_boot/app/hw/mcu/nordic/nrf52xxx/hw_mcu_nordic_nrf52xxx.a(hal_timer.o)
 .debug_line    0x0000000000004734      0x574 /Users/Luppy/PineTime/master-pinetime-rust-mynewt/bin/targets/nrf52_boot/app/kernel/os/kernel_os.a(os_fault.o)
 .debug_line    0x0000000000004ca8      0x522 /Users/Luppy/PineTime/master-pinetime-rust-mynewt/bin/targets/nrf52_boot/app/kernel/os/kernel_os.a(os_cputime.o)
 .debug_line    0x00000000000051ca      0x641 /Users/Luppy/PineTime/master-pinetime-rust-mynewt/bin/targets/nrf52_boot/app/kernel/os/kernel_os.a(os_dev.o)
 .debug_line    0x000000000000580b      0x6cb /Users/Luppy/PineTime/master-pinetime-rust-mynewt/bin/targets/nrf52_boot/app/kernel/os/kernel_os.a(os_arch_arm.o)
 .debug_line    0x0000000000005ed6      0x658 /Users/Luppy/PineTime/master-pinetime-rust-mynewt/bin/targets/nrf52_boot/app/kernel/os/kernel_os.a(os.o)
 .debug_line    0x000000000000652e      0x661 /Users/Luppy/PineTime/master-pinetime-rust-mynewt/bin/targets/nrf52_boot/app/kernel/os/kernel_os.a(os_eventq.o)
 .debug_line    0x0000000000006b8f      0x694 /Users/Luppy/PineTime/master-pinetime-rust-mynewt/bin/targets/nrf52_boot/app/kernel/os/kernel_os.a(os_mempool.o)
 .debug_line    0x0000000000007223      0x60f /Users/Luppy/PineTime/master-pinetime-rust-mynewt/bin/targets/nrf52_boot/app/kernel/os/kernel_os.a(os_msys.o)
 .debug_line    0x0000000000007832      0x6e1 /Users/Luppy/PineTime/master-pinetime-rust-mynewt/bin/targets/nrf52_boot/app/kernel/os/kernel_os.a(os_sched.o)
 .debug_line    0x0000000000007f13      0x5ec /Users/Luppy/PineTime/master-pinetime-rust-mynewt/bin/targets/nrf52_boot/app/kernel/os/kernel_os.a(os_time.o)
 .debug_line    0x00000000000084ff       0xc9 /Users/Luppy/PineTime/master-pinetime-rust-mynewt/bin/targets/nrf52_boot/app/kernel/os/kernel_os.a(HAL_CM4.o)
 .debug_line    0x00000000000085c8      0x9ce /Users/Luppy/PineTime/master-pinetime-rust-mynewt/bin/targets/nrf52_boot/app/kernel/os/kernel_os.a(os_mbuf.o)
 .debug_line    0x0000000000008f96      0x557 /Users/Luppy/PineTime/master-pinetime-rust-mynewt/bin/targets/nrf52_boot/app/kernel/os/kernel_os.a(os_mutex.o)
 .debug_line    0x00000000000094ed       0xd0 /Users/Luppy/PineTime/master-pinetime-rust-mynewt/bin/targets/nrf52_boot/app/libc/baselibc/libc_baselibc.a(memcmp.o)
 .debug_line    0x00000000000095bd       0xd3 /Users/Luppy/PineTime/master-pinetime-rust-mynewt/bin/targets/nrf52_boot/app/libc/baselibc/libc_baselibc.a(memcpy.o)
 .debug_line    0x0000000000009690      0x225 /Users/Luppy/PineTime/master-pinetime-rust-mynewt/bin/targets/nrf52_boot/app/libc/baselibc/libc_baselibc.a(memset.o)
 .debug_line    0x00000000000098b5      0x598 /Users/Luppy/PineTime/master-pinetime-rust-mynewt/bin/targets/nrf52_boot/app/libs/pinetime_boot/libs_pinetime_boot.a(pinetime_boot.o)
 .debug_line    0x0000000000009e4d      0x636 /Users/Luppy/PineTime/master-pinetime-rust-mynewt/bin/targets/nrf52_boot/app/libs/pinetime_boot/libs_pinetime_boot.a(display.o)
 .debug_line    0x000000000000a483      0x5a6 /Users/Luppy/PineTime/master-pinetime-rust-mynewt/bin/targets/nrf52_boot/app/libs/semihosting_console/libs_semihosting_console.a(console.o)
 .debug_line    0x000000000000aa29      0x47a /Users/Luppy/PineTime/master-pinetime-rust-mynewt/bin/targets/nrf52_boot/app/libs/semihosting_console/libs_semihosting_console.a(console_fmt.o)
 .debug_line    0x000000000000aea3      0x6b7 /Users/Luppy/PineTime/master-pinetime-rust-mynewt/bin/targets/nrf52_boot/app/libs/semihosting_console/libs_semihosting_console.a(semihosting_console.o)
 .debug_line    0x000000000000b55a      0x468 /Users/Luppy/PineTime/master-pinetime-rust-mynewt/bin/targets/nrf52_boot/app/libs/semihosting_console/libs_semihosting_console.a(ticks.o)
 .debug_line    0x000000000000b9c2      0x45f /Users/Luppy/PineTime/master-pinetime-rust-mynewt/bin/targets/nrf52_boot/app/sys/sysinit/sys_sysinit.a(sysinit.o)
 .debug_line    0x000000000000be21      0x565 /Users/Luppy/PineTime/master-pinetime-rust-mynewt/bin/targets/nrf52_boot/app/util/mem/util_mem.a(mem.o)
 .debug_line    0x000000000000c386       0x74 /Users/Luppy/PineTime/master-pinetime-rust-mynewt/bin/targets/nrf52_boot/generated/bin/nrf52_boot-sysinit-app.a(nrf52_boot-sysinit-app.o)
 .debug_line    0x000000000000c3fa      0x5c4 /Users/Luppy/PineTime/master-pinetime-rust-mynewt/bin/targets/nrf52_boot/app/boot/bootutil/boot_bootutil.a(bootutil_misc.o)
 .debug_line    0x000000000000c9be      0x7c9 /Users/Luppy/PineTime/master-pinetime-rust-mynewt/bin/targets/nrf52_boot/app/boot/bootutil/boot_bootutil.a(loader.o)
 .debug_line    0x000000000000d187      0x41c /Users/Luppy/PineTime/master-pinetime-rust-mynewt/bin/targets/nrf52_boot/app/boot/bootutil/boot_bootutil.a(swap_misc.o)
 .debug_line    0x000000000000d5a3      0x6c5 /Users/Luppy/PineTime/master-pinetime-rust-mynewt/bin/targets/nrf52_boot/app/boot/bootutil/boot_bootutil.a(swap_scratch.o)
 .debug_line    0x000000000000dc68      0x545 /Users/Luppy/PineTime/master-pinetime-rust-mynewt/bin/targets/nrf52_boot/app/boot/bootutil/boot_bootutil.a(image_validate.o)
 .debug_line    0x000000000000e1ad      0x273 /Users/Luppy/PineTime/master-pinetime-rust-mynewt/bin/targets/nrf52_boot/app/boot/bootutil/boot_bootutil.a(tlv.o)
 .debug_line    0x000000000000e420      0x1e3 /Users/Luppy/PineTime/master-pinetime-rust-mynewt/bin/targets/nrf52_boot/app/boot/mynewt/flash_map_backend/boot_mynewt_flash_map_backend.a(flash_map_extended.o)
 .debug_line    0x000000000000e603      0x60e /Users/Luppy/PineTime/master-pinetime-rust-mynewt/bin/targets/nrf52_boot/app/crypto/mbedtls/crypto_mbedtls.a(sha256.o)
 .debug_line    0x000000000000ec11      0x637 /Users/Luppy/PineTime/master-pinetime-rust-mynewt/bin/targets/nrf52_boot/app/hw/hal/hw_hal.a(hal_flash.o)
 .debug_line    0x000000000000f248      0x25d /Users/Luppy/PineTime/master-pinetime-rust-mynewt/bin/targets/nrf52_boot/app/hw/mcu/nordic/nrf52xxx/hw_mcu_nordic_nrf52xxx.a(hal_system_start.o)
 .debug_line    0x000000000000f4a5      0x3ae /Users/Luppy/PineTime/master-pinetime-rust-mynewt/bin/targets/nrf52_boot/app/libc/baselibc/libc_baselibc.a(inline.o)
 .debug_line    0x000000000000f853      0x466 /Users/Luppy/PineTime/master-pinetime-rust-mynewt/bin/targets/nrf52_boot/app/libc/baselibc/libc_baselibc.a(mynewt.o)
 .debug_line    0x000000000000fcb9       0xcf /Users/Luppy/PineTime/master-pinetime-rust-mynewt/bin/targets/nrf52_boot/app/libc/baselibc/libc_baselibc.a(strlen.o)
 .debug_line    0x000000000000fd88      0x62f /Users/Luppy/PineTime/master-pinetime-rust-mynewt/bin/targets/nrf52_boot/app/libc/baselibc/libc_baselibc.a(tinyprintf.o)
 .debug_line    0x00000000000103b7      0x121 /Users/Luppy/PineTime/master-pinetime-rust-mynewt/bin/targets/nrf52_boot/app/libc/baselibc/libc_baselibc.a(vprintf.o)
 .debug_line    0x00000000000104d8      0x6e3 /Users/Luppy/PineTime/master-pinetime-rust-mynewt/bin/targets/nrf52_boot/app/sys/flash_map/sys_flash_map.a(flash_map.o)
 .debug_line    0x0000000000010bbb      0x4a7 /Users/Luppy/PineTime/master-pinetime-rust-mynewt/bin/targets/nrf52_boot/app/sys/log/modlog/sys_log_modlog.a(modlog.o)
 .debug_line    0x0000000000011062      0x645 /Users/Luppy/PineTime/master-pinetime-rust-mynewt/bin/targets/nrf52_boot/app/sys/mfg/sys_mfg.a(mfg.o)
 .debug_line    0x00000000000116a7      0x1ae /Users/Luppy/PineTime/master-pinetime-rust-mynewt/bin/targets/nrf52_boot/generated/bin/nrf52_boot-sysinit-app.a(nrf52_boot-sysflash.o)

.debug_info     0x0000000000000000    0x2a1e1
 .debug_info    0x0000000000000000       0x26 /Users/Luppy/PineTime/master-pinetime-rust-mynewt/bin/targets/nrf52_boot/app/hw/bsp/nrf52/hw_bsp_nrf52.a(gcc_startup_nrf52.o)
 .debug_info    0x0000000000000026      0x119 /Users/Luppy/PineTime/master-pinetime-rust-mynewt/bin/targets/nrf52_boot/app/hw/bsp/nrf52/hw_bsp_nrf52.a(sbrk.o)
 .debug_info    0x000000000000013f      0x8cb /Users/Luppy/PineTime/master-pinetime-rust-mynewt/bin/targets/nrf52_boot/app/hw/mcu/nordic/nrf52xxx/hw_mcu_nordic_nrf52xxx.a(hal_system.o)
 .debug_info    0x0000000000000a0a      0xdc2 /Users/Luppy/PineTime/master-pinetime-rust-mynewt/bin/targets/nrf52_boot/app/hw/mcu/nordic/nrf52xxx/hw_mcu_nordic_nrf52xxx.a(system_nrf52.o)
 .debug_info    0x00000000000017cc      0x646 /Users/Luppy/PineTime/master-pinetime-rust-mynewt/bin/targets/nrf52_boot/app/libc/baselibc/libc_baselibc.a(start.o)
 .debug_info    0x0000000000001e12      0x8c5 /Users/Luppy/PineTime/master-pinetime-rust-mynewt/bin/targets/nrf52_boot/app/boot/mynewt/boot_mynewt.a(main.o)
 .debug_info    0x00000000000026d7      0xbed /Users/Luppy/PineTime/master-pinetime-rust-mynewt/bin/targets/nrf52_boot/app/hw/bsp/nrf52/hw_bsp_nrf52.a(hal_bsp.o)
 .debug_info    0x00000000000032c4      0x2da /Users/Luppy/PineTime/master-pinetime-rust-mynewt/bin/targets/nrf52_boot/app/hw/cmsis-core/hw_cmsis-core.a(cmsis_nvic.o)
 .debug_info    0x000000000000359e     0x1ab8 /Users/Luppy/PineTime/master-pinetime-rust-mynewt/bin/targets/nrf52_boot/app/hw/drivers/flash/spiflash/hw_drivers_flash_spiflash.a(spiflash.o)
 .debug_info    0x0000000000005056      0x196 /Users/Luppy/PineTime/master-pinetime-rust-mynewt/bin/targets/nrf52_boot/app/hw/hal/hw_hal.a(hal_common.o)
 .debug_info    0x00000000000051ec      0x771 /Users/Luppy/PineTime/master-pinetime-rust-mynewt/bin/targets/nrf52_boot/app/hw/mcu/nordic/nrf52xxx/hw_mcu_nordic_nrf52xxx.a(hal_flash.o)
 .debug_info    0x000000000000595d     0x11b6 /Users/Luppy/PineTime/master-pinetime-rust-mynewt/bin/targets/nrf52_boot/app/hw/mcu/nordic/nrf52xxx/hw_mcu_nordic_nrf52xxx.a(hal_gpio.o)
 .debug_info    0x0000000000006b13     0x27de /Users/Luppy/PineTime/master-pinetime-rust-mynewt/bin/targets/nrf52_boot/app/hw/mcu/nordic/nrf52xxx/hw_mcu_nordic_nrf52xxx.a(hal_spi.o)
 .debug_info    0x00000000000092f1      0xcf7 /Users/Luppy/PineTime/master-pinetime-rust-mynewt/bin/targets/nrf52_boot/app/hw/mcu/nordic/nrf52xxx/hw_mcu_nordic_nrf52xxx.a(hal_watchdog.o)
 .debug_info    0x0000000000009fe8      0x81a /Users/Luppy/PineTime/master-pinetime-rust-mynewt/bin/targets/nrf52_boot/app/hw/mcu/nordic/nrf52xxx/hw_mcu_nordic_nrf52xxx.a(nrf52_periph.o)
 .debug_info    0x000000000000a802     0x24a1 /Users/Luppy/PineTime/master-pinetime-rust-mynewt/bin/targets/nrf52_boot/app/hw/mcu/nordic/nrf52xxx/hw_mcu_nordic_nrf52xxx.a(hal_timer.o)
 .debug_info    0x000000000000cca3      0xbf0 /Users/Luppy/PineTime/master-pinetime-rust-mynewt/bin/targets/nrf52_boot/app/kernel/os/kernel_os.a(os_fault.o)
 .debug_info    0x000000000000d893      0x99f /Users/Luppy/PineTime/master-pinetime-rust-mynewt/bin/targets/nrf52_boot/app/kernel/os/kernel_os.a(os_cputime.o)
 .debug_info    0x000000000000e232      0xe0d /Users/Luppy/PineTime/master-pinetime-rust-mynewt/bin/targets/nrf52_boot/app/kernel/os/kernel_os.a(os_dev.o)
 .debug_info    0x000000000000f03f     0x1314 /Users/Luppy/PineTime/master-pinetime-rust-mynewt/bin/targets/nrf52_boot/app/kernel/os/kernel_os.a(os_arch_arm.o)
 .debug_info    0x0000000000010353      0xe5a /Users/Luppy/PineTime/master-pinetime-rust-mynewt/bin/targets/nrf52_boot/app/kernel/os/kernel_os.a(os.o)
 .debug_info    0x00000000000111ad      0xd54 /Users/Luppy/PineTime/master-pinetime-rust-mynewt/bin/targets/nrf52_boot/app/kernel/os/kernel_os.a(os_eventq.o)
 .debug_info    0x0000000000011f01      0xda7 /Users/Luppy/PineTime/master-pinetime-rust-mynewt/bin/targets/nrf52_boot/app/kernel/os/kernel_os.a(os_mempool.o)
 .debug_info    0x0000000000012ca8      0xd3d /Users/Luppy/PineTime/master-pinetime-rust-mynewt/bin/targets/nrf52_boot/app/kernel/os/kernel_os.a(os_msys.o)
 .debug_info    0x00000000000139e5      0xc79 /Users/Luppy/PineTime/master-pinetime-rust-mynewt/bin/targets/nrf52_boot/app/kernel/os/kernel_os.a(os_sched.o)
 .debug_info    0x000000000001465e      0xd6b /Users/Luppy/PineTime/master-pinetime-rust-mynewt/bin/targets/nrf52_boot/app/kernel/os/kernel_os.a(os_time.o)
 .debug_info    0x00000000000153c9       0x26 /Users/Luppy/PineTime/master-pinetime-rust-mynewt/bin/targets/nrf52_boot/app/kernel/os/kernel_os.a(HAL_CM4.o)
 .debug_info    0x00000000000153ef     0x1c8a /Users/Luppy/PineTime/master-pinetime-rust-mynewt/bin/targets/nrf52_boot/app/kernel/os/kernel_os.a(os_mbuf.o)
 .debug_info    0x0000000000017079      0x9c3 /Users/Luppy/PineTime/master-pinetime-rust-mynewt/bin/targets/nrf52_boot/app/kernel/os/kernel_os.a(os_mutex.o)
 .debug_info    0x0000000000017a3c       0xa0 /Users/Luppy/PineTime/master-pinetime-rust-mynewt/bin/targets/nrf52_boot/app/libc/baselibc/libc_baselibc.a(memcmp.o)
 .debug_info    0x0000000000017adc       0xf4 /Users/Luppy/PineTime/master-pinetime-rust-mynewt/bin/targets/nrf52_boot/app/libc/baselibc/libc_baselibc.a(memcpy.o)
 .debug_info    0x0000000000017bd0      0x123 /Users/Luppy/PineTime/master-pinetime-rust-mynewt/bin/targets/nrf52_boot/app/libc/baselibc/libc_baselibc.a(memset.o)
 .debug_info    0x0000000000017cf3      0xa1e /Users/Luppy/PineTime/master-pinetime-rust-mynewt/bin/targets/nrf52_boot/app/libs/pinetime_boot/libs_pinetime_boot.a(pinetime_boot.o)
 .debug_info    0x0000000000018711     0x12e6 /Users/Luppy/PineTime/master-pinetime-rust-mynewt/bin/targets/nrf52_boot/app/libs/pinetime_boot/libs_pinetime_boot.a(display.o)
 .debug_info    0x00000000000199f7      0xb34 /Users/Luppy/PineTime/master-pinetime-rust-mynewt/bin/targets/nrf52_boot/app/libs/semihosting_console/libs_semihosting_console.a(console.o)
 .debug_info    0x000000000001a52b      0x6a9 /Users/Luppy/PineTime/master-pinetime-rust-mynewt/bin/targets/nrf52_boot/app/libs/semihosting_console/libs_semihosting_console.a(console_fmt.o)
 .debug_info    0x000000000001abd4     0x103f /Users/Luppy/PineTime/master-pinetime-rust-mynewt/bin/targets/nrf52_boot/app/libs/semihosting_console/libs_semihosting_console.a(semihosting_console.o)
 .debug_info    0x000000000001bc13      0x612 /Users/Luppy/PineTime/master-pinetime-rust-mynewt/bin/targets/nrf52_boot/app/libs/semihosting_console/libs_semihosting_console.a(ticks.o)
 .debug_info    0x000000000001c225      0x699 /Users/Luppy/PineTime/master-pinetime-rust-mynewt/bin/targets/nrf52_boot/app/sys/sysinit/sys_sysinit.a(sysinit.o)
 .debug_info    0x000000000001c8be      0xeb3 /Users/Luppy/PineTime/master-pinetime-rust-mynewt/bin/targets/nrf52_boot/app/util/mem/util_mem.a(mem.o)
 .debug_info    0x000000000001d771       0xb4 /Users/Luppy/PineTime/master-pinetime-rust-mynewt/bin/targets/nrf52_boot/generated/bin/nrf52_boot-sysinit-app.a(nrf52_boot-sysinit-app.o)
 .debug_info    0x000000000001d825     0x125a /Users/Luppy/PineTime/master-pinetime-rust-mynewt/bin/targets/nrf52_boot/app/boot/bootutil/boot_bootutil.a(bootutil_misc.o)
 .debug_info    0x000000000001ea7f     0x1c75 /Users/Luppy/PineTime/master-pinetime-rust-mynewt/bin/targets/nrf52_boot/app/boot/bootutil/boot_bootutil.a(loader.o)
 .debug_info    0x00000000000206f4      0xb26 /Users/Luppy/PineTime/master-pinetime-rust-mynewt/bin/targets/nrf52_boot/app/boot/bootutil/boot_bootutil.a(swap_misc.o)
 .debug_info    0x000000000002121a     0x164b /Users/Luppy/PineTime/master-pinetime-rust-mynewt/bin/targets/nrf52_boot/app/boot/bootutil/boot_bootutil.a(swap_scratch.o)
 .debug_info    0x0000000000022865      0xd04 /Users/Luppy/PineTime/master-pinetime-rust-mynewt/bin/targets/nrf52_boot/app/boot/bootutil/boot_bootutil.a(image_validate.o)
 .debug_info    0x0000000000023569      0x42f /Users/Luppy/PineTime/master-pinetime-rust-mynewt/bin/targets/nrf52_boot/app/boot/bootutil/boot_bootutil.a(tlv.o)
 .debug_info    0x0000000000023998      0x1a7 /Users/Luppy/PineTime/master-pinetime-rust-mynewt/bin/targets/nrf52_boot/app/boot/mynewt/flash_map_backend/boot_mynewt_flash_map_backend.a(flash_map_extended.o)
 .debug_info    0x0000000000023b3f      0xcd8 /Users/Luppy/PineTime/master-pinetime-rust-mynewt/bin/targets/nrf52_boot/app/crypto/mbedtls/crypto_mbedtls.a(sha256.o)
 .debug_info    0x0000000000024817      0xfb8 /Users/Luppy/PineTime/master-pinetime-rust-mynewt/bin/targets/nrf52_boot/app/hw/hal/hw_hal.a(hal_flash.o)
 .debug_info    0x00000000000257cf      0x2f3 /Users/Luppy/PineTime/master-pinetime-rust-mynewt/bin/targets/nrf52_boot/app/hw/mcu/nordic/nrf52xxx/hw_mcu_nordic_nrf52xxx.a(hal_system_start.o)
 .debug_info    0x0000000000025ac2      0x89d /Users/Luppy/PineTime/master-pinetime-rust-mynewt/bin/targets/nrf52_boot/app/libc/baselibc/libc_baselibc.a(inline.o)
 .debug_info    0x000000000002635f      0x6b4 /Users/Luppy/PineTime/master-pinetime-rust-mynewt/bin/targets/nrf52_boot/app/libc/baselibc/libc_baselibc.a(mynewt.o)
 .debug_info    0x0000000000026a13       0x94 /Users/Luppy/PineTime/master-pinetime-rust-mynewt/bin/targets/nrf52_boot/app/libc/baselibc/libc_baselibc.a(strlen.o)
 .debug_info    0x0000000000026aa7     0x1016 /Users/Luppy/PineTime/master-pinetime-rust-mynewt/bin/targets/nrf52_boot/app/libc/baselibc/libc_baselibc.a(tinyprintf.o)
 .debug_info    0x0000000000027abd      0x1b0 /Users/Luppy/PineTime/master-pinetime-rust-mynewt/bin/targets/nrf52_boot/app/libc/baselibc/libc_baselibc.a(vprintf.o)
 .debug_info    0x0000000000027c6d     0x10ee /Users/Luppy/PineTime/master-pinetime-rust-mynewt/bin/targets/nrf52_boot/app/sys/flash_map/sys_flash_map.a(flash_map.o)
 .debug_info    0x0000000000028d5b      0x619 /Users/Luppy/PineTime/master-pinetime-rust-mynewt/bin/targets/nrf52_boot/app/sys/log/modlog/sys_log_modlog.a(modlog.o)
 .debug_info    0x0000000000029374      0xd29 /Users/Luppy/PineTime/master-pinetime-rust-mynewt/bin/targets/nrf52_boot/app/sys/mfg/sys_mfg.a(mfg.o)
 .debug_info    0x000000000002a09d      0x144 /Users/Luppy/PineTime/master-pinetime-rust-mynewt/bin/targets/nrf52_boot/generated/bin/nrf52_boot-sysinit-app.a(nrf52_boot-sysflash.o)

.debug_abbrev   0x0000000000000000     0x766b
 .debug_abbrev  0x0000000000000000       0x14 /Users/Luppy/PineTime/master-pinetime-rust-mynewt/bin/targets/nrf52_boot/app/hw/bsp/nrf52/hw_bsp_nrf52.a(gcc_startup_nrf52.o)
 .debug_abbrev  0x0000000000000014       0xb9 /Users/Luppy/PineTime/master-pinetime-rust-mynewt/bin/targets/nrf52_boot/app/hw/bsp/nrf52/hw_bsp_nrf52.a(sbrk.o)
 .debug_abbrev  0x00000000000000cd      0x1cb /Users/Luppy/PineTime/master-pinetime-rust-mynewt/bin/targets/nrf52_boot/app/hw/mcu/nordic/nrf52xxx/hw_mcu_nordic_nrf52xxx.a(hal_system.o)
 .debug_abbrev  0x0000000000000298      0x1de /Users/Luppy/PineTime/master-pinetime-rust-mynewt/bin/targets/nrf52_boot/app/hw/mcu/nordic/nrf52xxx/hw_mcu_nordic_nrf52xxx.a(system_nrf52.o)
 .debug_abbrev  0x0000000000000476      0x194 /Users/Luppy/PineTime/master-pinetime-rust-mynewt/bin/targets/nrf52_boot/app/libc/baselibc/libc_baselibc.a(start.o)
 .debug_abbrev  0x000000000000060a      0x18a /Users/Luppy/PineTime/master-pinetime-rust-mynewt/bin/targets/nrf52_boot/app/boot/mynewt/boot_mynewt.a(main.o)
 .debug_abbrev  0x0000000000000794      0x1a6 /Users/Luppy/PineTime/master-pinetime-rust-mynewt/bin/targets/nrf52_boot/app/hw/bsp/nrf52/hw_bsp_nrf52.a(hal_bsp.o)
 .debug_abbrev  0x000000000000093a       0xf5 /Users/Luppy/PineTime/master-pinetime-rust-mynewt/bin/targets/nrf52_boot/app/hw/cmsis-core/hw_cmsis-core.a(cmsis_nvic.o)
 .debug_abbrev  0x0000000000000a2f      0x2cb /Users/Luppy/PineTime/master-pinetime-rust-mynewt/bin/targets/nrf52_boot/app/hw/drivers/flash/spiflash/hw_drivers_flash_spiflash.a(spiflash.o)
 .debug_abbrev  0x0000000000000cfa       0xe5 /Users/Luppy/PineTime/master-pinetime-rust-mynewt/bin/targets/nrf52_boot/app/hw/hal/hw_hal.a(hal_common.o)
 .debug_abbrev  0x0000000000000ddf      0x24a /Users/Luppy/PineTime/master-pinetime-rust-mynewt/bin/targets/nrf52_boot/app/hw/mcu/nordic/nrf52xxx/hw_mcu_nordic_nrf52xxx.a(hal_flash.o)
 .debug_abbrev  0x0000000000001029      0x3ba /Users/Luppy/PineTime/master-pinetime-rust-mynewt/bin/targets/nrf52_boot/app/hw/mcu/nordic/nrf52xxx/hw_mcu_nordic_nrf52xxx.a(hal_gpio.o)
 .debug_abbrev  0x00000000000013e3      0x44f /Users/Luppy/PineTime/master-pinetime-rust-mynewt/bin/targets/nrf52_boot/app/hw/mcu/nordic/nrf52xxx/hw_mcu_nordic_nrf52xxx.a(hal_spi.o)
 .debug_abbrev  0x0000000000001832      0x266 /Users/Luppy/PineTime/master-pinetime-rust-mynewt/bin/targets/nrf52_boot/app/hw/mcu/nordic/nrf52xxx/hw_mcu_nordic_nrf52xxx.a(hal_watchdog.o)
 .debug_abbrev  0x0000000000001a98      0x1cc /Users/Luppy/PineTime/master-pinetime-rust-mynewt/bin/targets/nrf52_boot/app/hw/mcu/nordic/nrf52xxx/hw_mcu_nordic_nrf52xxx.a(nrf52_periph.o)
 .debug_abbrev  0x0000000000001c64      0x474 /Users/Luppy/PineTime/master-pinetime-rust-mynewt/bin/targets/nrf52_boot/app/hw/mcu/nordic/nrf52xxx/hw_mcu_nordic_nrf52xxx.a(hal_timer.o)
 .debug_abbrev  0x00000000000020d8      0x1bd /Users/Luppy/PineTime/master-pinetime-rust-mynewt/bin/targets/nrf52_boot/app/kernel/os/kernel_os.a(os_fault.o)
 .debug_abbrev  0x0000000000002295      0x1b3 /Users/Luppy/PineTime/master-pinetime-rust-mynewt/bin/targets/nrf52_boot/app/kernel/os/kernel_os.a(os_cputime.o)
 .debug_abbrev  0x0000000000002448      0x285 /Users/Luppy/PineTime/master-pinetime-rust-mynewt/bin/targets/nrf52_boot/app/kernel/os/kernel_os.a(os_dev.o)
 .debug_abbrev  0x00000000000026cd      0x372 /Users/Luppy/PineTime/master-pinetime-rust-mynewt/bin/targets/nrf52_boot/app/kernel/os/kernel_os.a(os_arch_arm.o)
 .debug_abbrev  0x0000000000002a3f      0x284 /Users/Luppy/PineTime/master-pinetime-rust-mynewt/bin/targets/nrf52_boot/app/kernel/os/kernel_os.a(os.o)
 .debug_abbrev  0x0000000000002cc3      0x2f6 /Users/Luppy/PineTime/master-pinetime-rust-mynewt/bin/targets/nrf52_boot/app/kernel/os/kernel_os.a(os_eventq.o)
 .debug_abbrev  0x0000000000002fb9      0x294 /Users/Luppy/PineTime/master-pinetime-rust-mynewt/bin/targets/nrf52_boot/app/kernel/os/kernel_os.a(os_mempool.o)
 .debug_abbrev  0x000000000000324d      0x271 /Users/Luppy/PineTime/master-pinetime-rust-mynewt/bin/targets/nrf52_boot/app/kernel/os/kernel_os.a(os_msys.o)
 .debug_abbrev  0x00000000000034be      0x2e8 /Users/Luppy/PineTime/master-pinetime-rust-mynewt/bin/targets/nrf52_boot/app/kernel/os/kernel_os.a(os_sched.o)
 .debug_abbrev  0x00000000000037a6      0x2f9 /Users/Luppy/PineTime/master-pinetime-rust-mynewt/bin/targets/nrf52_boot/app/kernel/os/kernel_os.a(os_time.o)
 .debug_abbrev  0x0000000000003a9f       0x14 /Users/Luppy/PineTime/master-pinetime-rust-mynewt/bin/targets/nrf52_boot/app/kernel/os/kernel_os.a(HAL_CM4.o)
 .debug_abbrev  0x0000000000003ab3      0x3b9 /Users/Luppy/PineTime/master-pinetime-rust-mynewt/bin/targets/nrf52_boot/app/kernel/os/kernel_os.a(os_mbuf.o)
 .debug_abbrev  0x0000000000003e6c      0x1cf /Users/Luppy/PineTime/master-pinetime-rust-mynewt/bin/targets/nrf52_boot/app/kernel/os/kernel_os.a(os_mutex.o)
 .debug_abbrev  0x000000000000403b       0x8e /Users/Luppy/PineTime/master-pinetime-rust-mynewt/bin/targets/nrf52_boot/app/libc/baselibc/libc_baselibc.a(memcmp.o)
 .debug_abbrev  0x00000000000040c9       0x8d /Users/Luppy/PineTime/master-pinetime-rust-mynewt/bin/targets/nrf52_boot/app/libc/baselibc/libc_baselibc.a(memcpy.o)
 .debug_abbrev  0x0000000000004156       0xb9 /Users/Luppy/PineTime/master-pinetime-rust-mynewt/bin/targets/nrf52_boot/app/libc/baselibc/libc_baselibc.a(memset.o)
 .debug_abbrev  0x000000000000420f      0x1c5 /Users/Luppy/PineTime/master-pinetime-rust-mynewt/bin/targets/nrf52_boot/app/libs/pinetime_boot/libs_pinetime_boot.a(pinetime_boot.o)
 .debug_abbrev  0x00000000000043d4      0x285 /Users/Luppy/PineTime/master-pinetime-rust-mynewt/bin/targets/nrf52_boot/app/libs/pinetime_boot/libs_pinetime_boot.a(display.o)
 .debug_abbrev  0x0000000000004659      0x218 /Users/Luppy/PineTime/master-pinetime-rust-mynewt/bin/targets/nrf52_boot/app/libs/semihosting_console/libs_semihosting_console.a(console.o)
 .debug_abbrev  0x0000000000004871      0x17e /Users/Luppy/PineTime/master-pinetime-rust-mynewt/bin/targets/nrf52_boot/app/libs/semihosting_console/libs_semihosting_console.a(console_fmt.o)
 .debug_abbrev  0x00000000000049ef      0x30d /Users/Luppy/PineTime/master-pinetime-rust-mynewt/bin/targets/nrf52_boot/app/libs/semihosting_console/libs_semihosting_console.a(semihosting_console.o)
 .debug_abbrev  0x0000000000004cfc      0x124 /Users/Luppy/PineTime/master-pinetime-rust-mynewt/bin/targets/nrf52_boot/app/libs/semihosting_console/libs_semihosting_console.a(ticks.o)
 .debug_abbrev  0x0000000000004e20      0x18f /Users/Luppy/PineTime/master-pinetime-rust-mynewt/bin/targets/nrf52_boot/app/sys/sysinit/sys_sysinit.a(sysinit.o)
 .debug_abbrev  0x0000000000004faf      0x254 /Users/Luppy/PineTime/master-pinetime-rust-mynewt/bin/targets/nrf52_boot/app/util/mem/util_mem.a(mem.o)
 .debug_abbrev  0x0000000000005203       0x4a /Users/Luppy/PineTime/master-pinetime-rust-mynewt/bin/targets/nrf52_boot/generated/bin/nrf52_boot-sysinit-app.a(nrf52_boot-sysinit-app.o)
 .debug_abbrev  0x000000000000524d      0x29b /Users/Luppy/PineTime/master-pinetime-rust-mynewt/bin/targets/nrf52_boot/app/boot/bootutil/boot_bootutil.a(bootutil_misc.o)
 .debug_abbrev  0x00000000000054e8      0x33b /Users/Luppy/PineTime/master-pinetime-rust-mynewt/bin/targets/nrf52_boot/app/boot/bootutil/boot_bootutil.a(loader.o)
 .debug_abbrev  0x0000000000005823      0x1de /Users/Luppy/PineTime/master-pinetime-rust-mynewt/bin/targets/nrf52_boot/app/boot/bootutil/boot_bootutil.a(swap_misc.o)
 .debug_abbrev  0x0000000000005a01      0x320 /Users/Luppy/PineTime/master-pinetime-rust-mynewt/bin/targets/nrf52_boot/app/boot/bootutil/boot_bootutil.a(swap_scratch.o)
 .debug_abbrev  0x0000000000005d21      0x217 /Users/Luppy/PineTime/master-pinetime-rust-mynewt/bin/targets/nrf52_boot/app/boot/bootutil/boot_bootutil.a(image_validate.o)
 .debug_abbrev  0x0000000000005f38      0x142 /Users/Luppy/PineTime/master-pinetime-rust-mynewt/bin/targets/nrf52_boot/app/boot/bootutil/boot_bootutil.a(tlv.o)
 .debug_abbrev  0x000000000000607a       0xdc /Users/Luppy/PineTime/master-pinetime-rust-mynewt/bin/targets/nrf52_boot/app/boot/mynewt/flash_map_backend/boot_mynewt_flash_map_backend.a(flash_map_extended.o)
 .debug_abbrev  0x0000000000006156      0x249 /Users/Luppy/PineTime/master-pinetime-rust-mynewt/bin/targets/nrf52_boot/app/crypto/mbedtls/crypto_mbedtls.a(sha256.o)
 .debug_abbrev  0x000000000000639f      0x2a1 /Users/Luppy/PineTime/master-pinetime-rust-mynewt/bin/targets/nrf52_boot/app/hw/hal/hw_hal.a(hal_flash.o)
 .debug_abbrev  0x0000000000006640      0x1af /Users/Luppy/PineTime/master-pinetime-rust-mynewt/bin/targets/nrf52_boot/app/hw/mcu/nordic/nrf52xxx/hw_mcu_nordic_nrf52xxx.a(hal_system_start.o)
 .debug_abbrev  0x00000000000067ef      0x18b /Users/Luppy/PineTime/master-pinetime-rust-mynewt/bin/targets/nrf52_boot/app/libc/baselibc/libc_baselibc.a(inline.o)
 .debug_abbrev  0x000000000000697a      0x15d /Users/Luppy/PineTime/master-pinetime-rust-mynewt/bin/targets/nrf52_boot/app/libc/baselibc/libc_baselibc.a(mynewt.o)
 .debug_abbrev  0x0000000000006ad7       0x81 /Users/Luppy/PineTime/master-pinetime-rust-mynewt/bin/targets/nrf52_boot/app/libc/baselibc/libc_baselibc.a(strlen.o)
 .debug_abbrev  0x0000000000006b58      0x337 /Users/Luppy/PineTime/master-pinetime-rust-mynewt/bin/targets/nrf52_boot/app/libc/baselibc/libc_baselibc.a(tinyprintf.o)
 .debug_abbrev  0x0000000000006e8f      0x10d /Users/Luppy/PineTime/master-pinetime-rust-mynewt/bin/targets/nrf52_boot/app/libc/baselibc/libc_baselibc.a(vprintf.o)
 .debug_abbrev  0x0000000000006f9c      0x2a5 /Users/Luppy/PineTime/master-pinetime-rust-mynewt/bin/targets/nrf52_boot/app/sys/flash_map/sys_flash_map.a(flash_map.o)
 .debug_abbrev  0x0000000000007241      0x108 /Users/Luppy/PineTime/master-pinetime-rust-mynewt/bin/targets/nrf52_boot/app/sys/log/modlog/sys_log_modlog.a(modlog.o)
 .debug_abbrev  0x0000000000007349      0x291 /Users/Luppy/PineTime/master-pinetime-rust-mynewt/bin/targets/nrf52_boot/app/sys/mfg/sys_mfg.a(mfg.o)
 .debug_abbrev  0x00000000000075da       0x91 /Users/Luppy/PineTime/master-pinetime-rust-mynewt/bin/targets/nrf52_boot/generated/bin/nrf52_boot-sysinit-app.a(nrf52_boot-sysflash.o)

.debug_aranges  0x0000000000000000     0x1508
 .debug_aranges
                0x0000000000000000       0x20 /Users/Luppy/PineTime/master-pinetime-rust-mynewt/bin/targets/nrf52_boot/app/hw/bsp/nrf52/hw_bsp_nrf52.a(gcc_startup_nrf52.o)
 .debug_aranges
                0x0000000000000020       0x28 /Users/Luppy/PineTime/master-pinetime-rust-mynewt/bin/targets/nrf52_boot/app/hw/bsp/nrf52/hw_bsp_nrf52.a(sbrk.o)
 .debug_aranges
                0x0000000000000048       0x38 /Users/Luppy/PineTime/master-pinetime-rust-mynewt/bin/targets/nrf52_boot/app/hw/mcu/nordic/nrf52xxx/hw_mcu_nordic_nrf52xxx.a(hal_system.o)
 .debug_aranges
                0x0000000000000080       0x68 /Users/Luppy/PineTime/master-pinetime-rust-mynewt/bin/targets/nrf52_boot/app/hw/mcu/nordic/nrf52xxx/hw_mcu_nordic_nrf52xxx.a(system_nrf52.o)
 .debug_aranges
                0x00000000000000e8       0x28 /Users/Luppy/PineTime/master-pinetime-rust-mynewt/bin/targets/nrf52_boot/app/libc/baselibc/libc_baselibc.a(start.o)
 .debug_aranges
                0x0000000000000110       0x28 /Users/Luppy/PineTime/master-pinetime-rust-mynewt/bin/targets/nrf52_boot/app/boot/mynewt/boot_mynewt.a(main.o)
 .debug_aranges
                0x0000000000000138       0x40 /Users/Luppy/PineTime/master-pinetime-rust-mynewt/bin/targets/nrf52_boot/app/hw/bsp/nrf52/hw_bsp_nrf52.a(hal_bsp.o)
 .debug_aranges
                0x0000000000000178       0x20 /Users/Luppy/PineTime/master-pinetime-rust-mynewt/bin/targets/nrf52_boot/app/hw/cmsis-core/hw_cmsis-core.a(cmsis_nvic.o)
 .debug_aranges
                0x0000000000000198       0xe0 /Users/Luppy/PineTime/master-pinetime-rust-mynewt/bin/targets/nrf52_boot/app/hw/drivers/flash/spiflash/hw_drivers_flash_spiflash.a(spiflash.o)
 .debug_aranges
                0x0000000000000278       0x30 /Users/Luppy/PineTime/master-pinetime-rust-mynewt/bin/targets/nrf52_boot/app/hw/hal/hw_hal.a(hal_common.o)
 .debug_aranges
                0x00000000000002a8       0x48 /Users/Luppy/PineTime/master-pinetime-rust-mynewt/bin/targets/nrf52_boot/app/hw/mcu/nordic/nrf52xxx/hw_mcu_nordic_nrf52xxx.a(hal_flash.o)
 .debug_aranges
                0x00000000000002f0       0x88 /Users/Luppy/PineTime/master-pinetime-rust-mynewt/bin/targets/nrf52_boot/app/hw/mcu/nordic/nrf52xxx/hw_mcu_nordic_nrf52xxx.a(hal_gpio.o)
 .debug_aranges
                0x0000000000000378       0xa0 /Users/Luppy/PineTime/master-pinetime-rust-mynewt/bin/targets/nrf52_boot/app/hw/mcu/nordic/nrf52xxx/hw_mcu_nordic_nrf52xxx.a(hal_spi.o)
 .debug_aranges
                0x0000000000000418       0x40 /Users/Luppy/PineTime/master-pinetime-rust-mynewt/bin/targets/nrf52_boot/app/hw/mcu/nordic/nrf52xxx/hw_mcu_nordic_nrf52xxx.a(hal_watchdog.o)
 .debug_aranges
                0x0000000000000458       0x30 /Users/Luppy/PineTime/master-pinetime-rust-mynewt/bin/targets/nrf52_boot/app/hw/mcu/nordic/nrf52xxx/hw_mcu_nordic_nrf52xxx.a(nrf52_periph.o)
 .debug_aranges
                0x0000000000000488       0xa8 /Users/Luppy/PineTime/master-pinetime-rust-mynewt/bin/targets/nrf52_boot/app/hw/mcu/nordic/nrf52xxx/hw_mcu_nordic_nrf52xxx.a(hal_timer.o)
 .debug_aranges
                0x0000000000000530       0x28 /Users/Luppy/PineTime/master-pinetime-rust-mynewt/bin/targets/nrf52_boot/app/kernel/os/kernel_os.a(os_fault.o)
 .debug_aranges
                0x0000000000000558       0x60 /Users/Luppy/PineTime/master-pinetime-rust-mynewt/bin/targets/nrf52_boot/app/kernel/os/kernel_os.a(os_cputime.o)
 .debug_aranges
                0x00000000000005b8       0x88 /Users/Luppy/PineTime/master-pinetime-rust-mynewt/bin/targets/nrf52_boot/app/kernel/os/kernel_os.a(os_dev.o)
 .debug_aranges
                0x0000000000000640       0x68 /Users/Luppy/PineTime/master-pinetime-rust-mynewt/bin/targets/nrf52_boot/app/kernel/os/kernel_os.a(os_arch_arm.o)
 .debug_aranges
                0x00000000000006a8       0x60 /Users/Luppy/PineTime/master-pinetime-rust-mynewt/bin/targets/nrf52_boot/app/kernel/os/kernel_os.a(os.o)
 .debug_aranges
                0x0000000000000708       0x70 /Users/Luppy/PineTime/master-pinetime-rust-mynewt/bin/targets/nrf52_boot/app/kernel/os/kernel_os.a(os_eventq.o)
 .debug_aranges
                0x0000000000000778       0x78 /Users/Luppy/PineTime/master-pinetime-rust-mynewt/bin/targets/nrf52_boot/app/kernel/os/kernel_os.a(os_mempool.o)
 .debug_aranges
                0x00000000000007f0       0x68 /Users/Luppy/PineTime/master-pinetime-rust-mynewt/bin/targets/nrf52_boot/app/kernel/os/kernel_os.a(os_msys.o)
 .debug_aranges
                0x0000000000000858       0x78 /Users/Luppy/PineTime/master-pinetime-rust-mynewt/bin/targets/nrf52_boot/app/kernel/os/kernel_os.a(os_sched.o)
 .debug_aranges
                0x00000000000008d0       0x98 /Users/Luppy/PineTime/master-pinetime-rust-mynewt/bin/targets/nrf52_boot/app/kernel/os/kernel_os.a(os_time.o)
 .debug_aranges
                0x0000000000000968       0x20 /Users/Luppy/PineTime/master-pinetime-rust-mynewt/bin/targets/nrf52_boot/app/kernel/os/kernel_os.a(HAL_CM4.o)
 .debug_aranges
                0x0000000000000988       0xe0 /Users/Luppy/PineTime/master-pinetime-rust-mynewt/bin/targets/nrf52_boot/app/kernel/os/kernel_os.a(os_mbuf.o)
 .debug_aranges
                0x0000000000000a68       0x30 /Users/Luppy/PineTime/master-pinetime-rust-mynewt/bin/targets/nrf52_boot/app/kernel/os/kernel_os.a(os_mutex.o)
 .debug_aranges
                0x0000000000000a98       0x20 /Users/Luppy/PineTime/master-pinetime-rust-mynewt/bin/targets/nrf52_boot/app/libc/baselibc/libc_baselibc.a(memcmp.o)
 .debug_aranges
                0x0000000000000ab8       0x20 /Users/Luppy/PineTime/master-pinetime-rust-mynewt/bin/targets/nrf52_boot/app/libc/baselibc/libc_baselibc.a(memcpy.o)
 .debug_aranges
                0x0000000000000ad8       0x20 /Users/Luppy/PineTime/master-pinetime-rust-mynewt/bin/targets/nrf52_boot/app/libc/baselibc/libc_baselibc.a(memset.o)
 .debug_aranges
                0x0000000000000af8       0x30 /Users/Luppy/PineTime/master-pinetime-rust-mynewt/bin/targets/nrf52_boot/app/libs/pinetime_boot/libs_pinetime_boot.a(pinetime_boot.o)
 .debug_aranges
                0x0000000000000b28       0x60 /Users/Luppy/PineTime/master-pinetime-rust-mynewt/bin/targets/nrf52_boot/app/libs/pinetime_boot/libs_pinetime_boot.a(display.o)
 .debug_aranges
                0x0000000000000b88       0x98 /Users/Luppy/PineTime/master-pinetime-rust-mynewt/bin/targets/nrf52_boot/app/libs/semihosting_console/libs_semihosting_console.a(console.o)
 .debug_aranges
                0x0000000000000c20       0x20 /Users/Luppy/PineTime/master-pinetime-rust-mynewt/bin/targets/nrf52_boot/app/libs/semihosting_console/libs_semihosting_console.a(console_fmt.o)
 .debug_aranges
                0x0000000000000c40       0xc0 /Users/Luppy/PineTime/master-pinetime-rust-mynewt/bin/targets/nrf52_boot/app/libs/semihosting_console/libs_semihosting_console.a(semihosting_console.o)
 .debug_aranges
                0x0000000000000d00       0x30 /Users/Luppy/PineTime/master-pinetime-rust-mynewt/bin/targets/nrf52_boot/app/libs/semihosting_console/libs_semihosting_console.a(ticks.o)
 .debug_aranges
                0x0000000000000d30       0x38 /Users/Luppy/PineTime/master-pinetime-rust-mynewt/bin/targets/nrf52_boot/app/sys/sysinit/sys_sysinit.a(sysinit.o)
 .debug_aranges
                0x0000000000000d68       0x58 /Users/Luppy/PineTime/master-pinetime-rust-mynewt/bin/targets/nrf52_boot/app/util/mem/util_mem.a(mem.o)
 .debug_aranges
                0x0000000000000dc0       0x20 /Users/Luppy/PineTime/master-pinetime-rust-mynewt/bin/targets/nrf52_boot/generated/bin/nrf52_boot-sysinit-app.a(nrf52_boot-sysinit-app.o)
 .debug_aranges
                0x0000000000000de0       0xd0 /Users/Luppy/PineTime/master-pinetime-rust-mynewt/bin/targets/nrf52_boot/app/boot/bootutil/boot_bootutil.a(bootutil_misc.o)
 .debug_aranges
                0x0000000000000eb0       0xd0 /Users/Luppy/PineTime/master-pinetime-rust-mynewt/bin/targets/nrf52_boot/app/boot/bootutil/boot_bootutil.a(loader.o)
 .debug_aranges
                0x0000000000000f80       0x40 /Users/Luppy/PineTime/master-pinetime-rust-mynewt/bin/targets/nrf52_boot/app/boot/bootutil/boot_bootutil.a(swap_misc.o)
 .debug_aranges
                0x0000000000000fc0       0x58 /Users/Luppy/PineTime/master-pinetime-rust-mynewt/bin/targets/nrf52_boot/app/boot/bootutil/boot_bootutil.a(swap_scratch.o)
 .debug_aranges
                0x0000000000001018       0x28 /Users/Luppy/PineTime/master-pinetime-rust-mynewt/bin/targets/nrf52_boot/app/boot/bootutil/boot_bootutil.a(image_validate.o)
 .debug_aranges
                0x0000000000001040       0x28 /Users/Luppy/PineTime/master-pinetime-rust-mynewt/bin/targets/nrf52_boot/app/boot/bootutil/boot_bootutil.a(tlv.o)
 .debug_aranges
                0x0000000000001068       0x28 /Users/Luppy/PineTime/master-pinetime-rust-mynewt/bin/targets/nrf52_boot/app/boot/mynewt/flash_map_backend/boot_mynewt_flash_map_backend.a(flash_map_extended.o)
 .debug_aranges
                0x0000000000001090       0x80 /Users/Luppy/PineTime/master-pinetime-rust-mynewt/bin/targets/nrf52_boot/app/crypto/mbedtls/crypto_mbedtls.a(sha256.o)
 .debug_aranges
                0x0000000000001110       0x88 /Users/Luppy/PineTime/master-pinetime-rust-mynewt/bin/targets/nrf52_boot/app/hw/hal/hw_hal.a(hal_flash.o)
 .debug_aranges
                0x0000000000001198       0x28 /Users/Luppy/PineTime/master-pinetime-rust-mynewt/bin/targets/nrf52_boot/app/hw/mcu/nordic/nrf52xxx/hw_mcu_nordic_nrf52xxx.a(hal_system_start.o)
 .debug_aranges
                0x00000000000011c0      0x118 /Users/Luppy/PineTime/master-pinetime-rust-mynewt/bin/targets/nrf52_boot/app/libc/baselibc/libc_baselibc.a(inline.o)
 .debug_aranges
                0x00000000000012d8       0x28 /Users/Luppy/PineTime/master-pinetime-rust-mynewt/bin/targets/nrf52_boot/app/libc/baselibc/libc_baselibc.a(mynewt.o)
 .debug_aranges
                0x0000000000001300       0x20 /Users/Luppy/PineTime/master-pinetime-rust-mynewt/bin/targets/nrf52_boot/app/libc/baselibc/libc_baselibc.a(strlen.o)
 .debug_aranges
                0x0000000000001320       0x80 /Users/Luppy/PineTime/master-pinetime-rust-mynewt/bin/targets/nrf52_boot/app/libc/baselibc/libc_baselibc.a(tinyprintf.o)
 .debug_aranges
                0x00000000000013a0       0x20 /Users/Luppy/PineTime/master-pinetime-rust-mynewt/bin/targets/nrf52_boot/app/libc/baselibc/libc_baselibc.a(vprintf.o)
 .debug_aranges
                0x00000000000013c0       0x90 /Users/Luppy/PineTime/master-pinetime-rust-mynewt/bin/targets/nrf52_boot/app/sys/flash_map/sys_flash_map.a(flash_map.o)
 .debug_aranges
                0x0000000000001450       0x20 /Users/Luppy/PineTime/master-pinetime-rust-mynewt/bin/targets/nrf52_boot/app/sys/log/modlog/sys_log_modlog.a(modlog.o)
 .debug_aranges
                0x0000000000001470       0x80 /Users/Luppy/PineTime/master-pinetime-rust-mynewt/bin/targets/nrf52_boot/app/sys/mfg/sys_mfg.a(mfg.o)
 .debug_aranges
                0x00000000000014f0       0x18 /Users/Luppy/PineTime/master-pinetime-rust-mynewt/bin/targets/nrf52_boot/generated/bin/nrf52_boot-sysinit-app.a(nrf52_boot-sysflash.o)

.debug_str      0x0000000000000000     0x6251
 .debug_str     0x0000000000000000       0x74 /Users/Luppy/PineTime/master-pinetime-rust-mynewt/bin/targets/nrf52_boot/app/hw/bsp/nrf52/hw_bsp_nrf52.a(gcc_startup_nrf52.o)
 .debug_str     0x0000000000000074      0x156 /Users/Luppy/PineTime/master-pinetime-rust-mynewt/bin/targets/nrf52_boot/app/hw/bsp/nrf52/hw_bsp_nrf52.a(sbrk.o)
                                        0x1cc (size before relaxing)
 .debug_str     0x00000000000001ca      0x3dd /Users/Luppy/PineTime/master-pinetime-rust-mynewt/bin/targets/nrf52_boot/app/hw/mcu/nordic/nrf52xxx/hw_mcu_nordic_nrf52xxx.a(hal_system.o)
                                        0x55d (size before relaxing)
 .debug_str     0x00000000000005a7      0x274 /Users/Luppy/PineTime/master-pinetime-rust-mynewt/bin/targets/nrf52_boot/app/hw/mcu/nordic/nrf52xxx/hw_mcu_nordic_nrf52xxx.a(system_nrf52.o)
                                        0x63f (size before relaxing)
 .debug_str     0x000000000000081b      0x2ec /Users/Luppy/PineTime/master-pinetime-rust-mynewt/bin/targets/nrf52_boot/app/libc/baselibc/libc_baselibc.a(start.o)
                                        0x555 (size before relaxing)
 .debug_str     0x0000000000000b07      0x1ea /Users/Luppy/PineTime/master-pinetime-rust-mynewt/bin/targets/nrf52_boot/app/boot/mynewt/boot_mynewt.a(main.o)
                                        0x713 (size before relaxing)
 .debug_str     0x0000000000000cf1      0x53f /Users/Luppy/PineTime/master-pinetime-rust-mynewt/bin/targets/nrf52_boot/app/hw/bsp/nrf52/hw_bsp_nrf52.a(hal_bsp.o)
                                        0xadc (size before relaxing)
 .debug_str     0x0000000000001230       0x78 /Users/Luppy/PineTime/master-pinetime-rust-mynewt/bin/targets/nrf52_boot/app/hw/cmsis-core/hw_cmsis-core.a(cmsis_nvic.o)
                                        0x2a5 (size before relaxing)
 .debug_str     0x00000000000012a8      0x43f /Users/Luppy/PineTime/master-pinetime-rust-mynewt/bin/targets/nrf52_boot/app/hw/drivers/flash/spiflash/hw_drivers_flash_spiflash.a(spiflash.o)
                                        0xbb9 (size before relaxing)
 .debug_str     0x00000000000016e7      0x10e /Users/Luppy/PineTime/master-pinetime-rust-mynewt/bin/targets/nrf52_boot/app/hw/hal/hw_hal.a(hal_common.o)
                                        0x2c6 (size before relaxing)
 .debug_str     0x00000000000017f5      0x128 /Users/Luppy/PineTime/master-pinetime-rust-mynewt/bin/targets/nrf52_boot/app/hw/mcu/nordic/nrf52xxx/hw_mcu_nordic_nrf52xxx.a(hal_flash.o)
                                        0x46c (size before relaxing)
 .debug_str     0x000000000000191d      0x372 /Users/Luppy/PineTime/master-pinetime-rust-mynewt/bin/targets/nrf52_boot/app/hw/mcu/nordic/nrf52xxx/hw_mcu_nordic_nrf52xxx.a(hal_gpio.o)
                                        0xc2c (size before relaxing)
 .debug_str     0x0000000000001c8f      0x7e8 /Users/Luppy/PineTime/master-pinetime-rust-mynewt/bin/targets/nrf52_boot/app/hw/mcu/nordic/nrf52xxx/hw_mcu_nordic_nrf52xxx.a(hal_spi.o)
                                       0x12f5 (size before relaxing)
 .debug_str     0x0000000000002477       0xe1 /Users/Luppy/PineTime/master-pinetime-rust-mynewt/bin/targets/nrf52_boot/app/hw/mcu/nordic/nrf52xxx/hw_mcu_nordic_nrf52xxx.a(hal_watchdog.o)
                                        0xa13 (size before relaxing)
 .debug_str     0x0000000000002558      0x13b /Users/Luppy/PineTime/master-pinetime-rust-mynewt/bin/targets/nrf52_boot/app/hw/mcu/nordic/nrf52xxx/hw_mcu_nordic_nrf52xxx.a(nrf52_periph.o)
                                        0x6ee (size before relaxing)
 .debug_str     0x0000000000002693      0x3d1 /Users/Luppy/PineTime/master-pinetime-rust-mynewt/bin/targets/nrf52_boot/app/hw/mcu/nordic/nrf52xxx/hw_mcu_nordic_nrf52xxx.a(hal_timer.o)
                                       0x12aa (size before relaxing)
 .debug_str     0x0000000000002a64      0x15a /Users/Luppy/PineTime/master-pinetime-rust-mynewt/bin/targets/nrf52_boot/app/kernel/os/kernel_os.a(os_fault.o)
                                        0x75b (size before relaxing)
 .debug_str     0x0000000000002bbe       0xf5 /Users/Luppy/PineTime/master-pinetime-rust-mynewt/bin/targets/nrf52_boot/app/kernel/os/kernel_os.a(os_cputime.o)
                                        0x6ed (size before relaxing)
 .debug_str     0x0000000000002cb3      0x2f3 /Users/Luppy/PineTime/master-pinetime-rust-mynewt/bin/targets/nrf52_boot/app/kernel/os/kernel_os.a(os_dev.o)
