
/Users/Luppy/PineTime/master-pinetime-rust-mynewt/bin/targets/nrf52_boot/app/boot/mynewt/mynewt.elf:     file format elf32-littlearm
/Users/Luppy/PineTime/master-pinetime-rust-mynewt/bin/targets/nrf52_boot/app/boot/mynewt/mynewt.elf
architecture: arm, flags 0x00000112:
EXEC_P, HAS_SYMS, D_PAGED
start address 0x000000d9

Program Header:
0x70000001 off    0x00015998 vaddr 0x00005998 paddr 0x00005998 align 2**2
         filesz 0x00000018 memsz 0x00000018 flags r--
    LOAD off    0x00010000 vaddr 0x00000000 paddr 0x00000000 align 2**16
         filesz 0x000059b0 memsz 0x000059b0 flags r-x
    LOAD off    0x000200d8 vaddr 0x200000d8 paddr 0x000059b0 align 2**16
         filesz 0x00000084 memsz 0x0000634c flags rw-
    LOAD off    0x00030000 vaddr 0x20000000 paddr 0x20000000 align 2**16
         filesz 0x00000000 memsz 0x000000d8 flags rw-
private flags = 5000200: [Version5 EABI] [soft-float ABI]

Sections:
Idx Name               Size      VMA       LMA       File off  Algn  Flags
  0 .text              00005998  00000000  00000000  00010000  2**2  CONTENTS, ALLOC, LOAD, READONLY, CODE
  1 .ARM.extab         00000000  00005998  00005998  0002015c  2**0  CONTENTS
  2 .ARM.exidx         00000018  00005998  00005998  00015998  2**2  CONTENTS, ALLOC, LOAD, READONLY, DATA
  3 .vector_relocation 000000d8  20000000  20000000  00030000  2**0  ALLOC
  4 .rtt               00000000  200000d8  200000d8  0002015c  2**0  CONTENTS
  5 .data              00000084  200000d8  000059b0  000200d8  2**2  CONTENTS, ALLOC, LOAD, DATA
  6 .bssnz             00000000  2000015c  2000015c  0002015c  2**0  CONTENTS
  7 .bss               000062c8  2000015c  00005a34  0002015c  2**2  ALLOC
  8 .stack_dummy       000001b0  20006428  20006428  00020160  2**3  CONTENTS, READONLY
  9 .ARM.attributes    0000002f  00000000  00000000  00020310  2**0  CONTENTS, READONLY
 10 .comment           0000007f  00000000  00000000  0002033f  2**0  CONTENTS, READONLY
 11 .svc_table         00000004  00000000  00000000  000203be  2**0  CONTENTS, READONLY
 12 .debug_line        00011855  00000000  00000000  000203c2  2**0  CONTENTS, READONLY, DEBUGGING
 13 .debug_info        0002a1e1  00000000  00000000  00031c17  2**0  CONTENTS, READONLY, DEBUGGING
 14 .debug_abbrev      0000766b  00000000  00000000  0005bdf8  2**0  CONTENTS, READONLY, DEBUGGING
 15 .debug_aranges     00001508  00000000  00000000  00063468  2**3  CONTENTS, READONLY, DEBUGGING
 16 .debug_str         00006251  00000000  00000000  00064970  2**0  CONTENTS, READONLY, DEBUGGING
 17 .debug_loc         0000f84c  00000000  00000000  0006abc1  2**0  CONTENTS, READONLY, DEBUGGING
 18 .debug_ranges      00001308  00000000  00000000  0007a40d  2**0  CONTENTS, READONLY, DEBUGGING
 19 .debug_frame       00003670  00000000  00000000  0007b718  2**2  CONTENTS, READONLY, DEBUGGING
SYMBOL TABLE:
00000000 l    d  .text	00000000 .text
00005998 l    d  .ARM.extab	00000000 .ARM.extab
00005998 l    d  .ARM.exidx	00000000 .ARM.exidx
20000000 l    d  .vector_relocation	00000000 .vector_relocation
200000d8 l    d  .rtt	00000000 .rtt
200000d8 l    d  .data	00000000 .data
2000015c l    d  .bssnz	00000000 .bssnz
2000015c l    d  .bss	00000000 .bss
20006428 l    d  .stack_dummy	00000000 .stack_dummy
00000000 l    d  .ARM.attributes	00000000 .ARM.attributes
00000000 l    d  .comment	00000000 .comment
00000000 l    d  .svc_table	00000000 .svc_table
00000000 l    d  .debug_line	00000000 .debug_line
00000000 l    d  .debug_info	00000000 .debug_info
00000000 l    d  .debug_abbrev	00000000 .debug_abbrev
00000000 l    d  .debug_aranges	00000000 .debug_aranges
00000000 l    d  .debug_str	00000000 .debug_str
00000000 l    d  .debug_loc	00000000 .debug_loc
00000000 l    d  .debug_ranges	00000000 .debug_ranges
00000000 l    d  .debug_frame	00000000 .debug_frame
00000000 l    df *ABS*	00000000 gcc_startup_nrf52.o
000001b0 l       *ABS*	00000000 Stack_Size
00000000 l       *ABS*	00000000 Heap_Size
000000e0 l       .text	00000000 .bss_zero_loop
00000000 l    df *ABS*	00000000 sbrk.c
200000d8 l     O .data	00000004 sbrkBase
200000dc l     O .data	00000004 sbrkLimit
200000e0 l     O .data	00000004 brk
00000000 l    df *ABS*	00000000 hal_system.c
00000000 l    df *ABS*	00000000 system_nrf52.c
000001ec l     F .text	0000003c errata_16
00000228 l     F .text	0000004c errata_31
00000274 l     F .text	0000003c errata_32
000002b0 l     F .text	0000004c errata_36
000002fc l     F .text	0000003c errata_37
00000338 l     F .text	0000003c errata_57
00000374 l     F .text	0000003c errata_66
000003b0 l     F .text	0000004c errata_108
00000000 l    df *ABS*	00000000 start.c
00000000 l    df *ABS*	00000000 main.c
00000000 l    df *ABS*	00000000 hal_bsp.c
000051d8 l     O .text	00000008 flash_devs
00000000 l    df *ABS*	00000000 cmsis_nvic.c
00000000 l    df *ABS*	00000000 spiflash.c
000006ac l     F .text	00000014 hal_spiflash_sector_info
000006c0 l     F .text	0000002e spiflash_release_power_down_generic
000006ee l     F .text	00000008 spiflash_delay_us
00000790 l     F .text	00000050 spiflash_wait_ready_till
000007f6 l     F .text	0000006a hal_spiflash_read
00000880 l     F .text	000000c8 hal_spiflash_write
00000948 l     F .text	00000078 spiflash_execute_erase
000009c0 l     F .text	0000002c spiflash_erase_cmd
000009fa l     F .text	00000008 hal_spiflash_erase_sector
00000acc l     F .text	00000008 hal_spiflash_erase
00000b38 l     F .text	0000003e hal_spiflash_init
00005210 l     O .text	0000001c spiflash_flash_funcs
20000128 l     O .data	00000010 supported_chips
000051e0 l     O .text	00000030 spiflash_characteristics
00000000 l    df *ABS*	00000000 hal_common.c
00000000 l    df *ABS*	00000000 hal_flash.c
00000b7c l     F .text	00000028 nrf52k_flash_wait_ready
00000ba4 l     F .text	00000054 nrf52k_flash_erase_sector
00000bf8 l     F .text	00000004 nrf52k_flash_init
00000bfc l     F .text	00000020 nrf52k_flash_sector_info
00000c1c l     F .text	000000d0 nrf52k_flash_write
00000cec l     F .text	0000000e nrf52k_flash_read
00005244 l     O .text	0000001c nrf52k_flash_funcs
00000000 l    df *ABS*	00000000 hal_gpio.c
00000000 l    df *ABS*	00000000 hal_spi.c
00000db4 l     F .text	0000006e nrf52_irqm_handler
00000e3c l     F .text	00000014 hal_spi_stop_transfer
00000e50 l     F .text	0000004a hal_spi_config_slave
00000e9c l     F .text	000000b8 hal_spi_init_master
00000f54 l     F .text	000000de hal_spi_config_master
00005260 l     O .text	0000000c nrf52_hal_spis
00000000 l    df *ABS*	00000000 hal_watchdog.c
000012a0 l     F .text	0000000e nrf52_hal_wdt_default_handler
000012b0 l     F .text	00000020 nrf52_wdt_irq_handler
00000000 l    df *ABS*	00000000 nrf52_periph.c
00001348 l     F .text	00000034 nrf52_periph_create_timers
0000137c l     F .text	00000020 nrf52_periph_create_spi
0000526c l     O .text	00000004 os_bsp_spi0m_cfg
00000000 l    df *ABS*	00000000 hal_timer.c
000013a8 l     F .text	0000000a nrf_read_timer_cntr
000013b4 l     F .text	000000b4 nrf_timer_set_ocmp
00001468 l     F .text	0000000a nrf_timer_disable_ocmp
00001472 l     F .text	0000000a nrf_rtc_disable_ocmp
0000147c l     F .text	00000054 hal_timer_read_bsptimer
000014d0 l     F .text	00000076 hal_timer_chk_queue
00001546 l     F .text	0000002c hal_timer_irq_handler
00005270 l     O .text	00000018 nrf52_hal_timers
00000000 l    df *ABS*	00000000 os_fault.c
00000000 l    df *ABS*	00000000 os_cputime.c
00000000 l    df *ABS*	00000000 os_dev.c
00001824 l     F .text	00000026 os_dev_initialize
2000015c l     O .bss	00000008 g_os_dev_list
00000000 l    df *ABS*	00000000 os_arch_arm.c
00000000 l    df *ABS*	00000000 os.c
00000000 l    df *ABS*	00000000 os_eventq.c
00000000 l    df *ABS*	00000000 os_mempool.c
000018c8 l     F .text	00000078 os_mempool_init_internal
00000000 l    df *ABS*	00000000 os_msys.c
000019dc l     F .text	00000010 os_msys_find_biggest_pool
000019ec l     F .text	0000002c os_msys_find_pool
00001a64 l     F .text	00000044 os_msys_init_once
20000168 l     O .bss	00004900 os_msys_1_data
20004a68 l     O .bss	0000000c os_msys_1_mbuf_pool
20004a74 l     O .bss	0000001c os_msys_1_mempool
20000138 l     O .data	00000008 g_msys_pool_list
00000000 l    df *ABS*	00000000 os_time.c
00000000 l    df *ABS*	00000000 HAL_CM4.o
00001b6c l       .text	00000000 SVC_User
00001b8a l       .text	00000000 SVC_Done
00000000 l    df *ABS*	00000000 os_mbuf.c
00000000 l    df *ABS*	00000000 os_mutex.c
00000000 l    df *ABS*	00000000 memcmp.c
00001d8a l       .text	00000000 test1
00001d7e l       .text	00000000 loop1
00001d90 l       .text	00000000 res1
00001dac l       .text	00000000 test2
00001db4 l       .text	00000000 done
00001da0 l       .text	00000000 loop2
00000000 l    df *ABS*	00000000 memcpy.c
00001dc0 l       .text	00000000 test1
00001dbc l       .text	00000000 loop1
00001dce l       .text	00000000 test2
00001dca l       .text	00000000 loop2
00000000 l    df *ABS*	00000000 memset.c
00000000 l    df *ABS*	00000000 pinetime_boot.c
00001e0c l     F .text	00000050 relocate_vector_table
00000000 l    df *ABS*	00000000 display.c
00001f24 l     F .text	0000001e hard_reset
00001f44 l     F .text	00000024 delay_ms
00001f68 l     F .text	0000003a transmit_spi
00001fa2 l     F .text	0000001a write_data
00001fbc l     F .text	0000004e write_command
0000200c l     F .text	0000014c init_display
00002158 l     F .text	00000028 set_orientation
00002180 l     F .text	000000d0 set_window
20004a90 l     O .bss	00000100 flash_buffer
00005480 l     O .text	00000001 COLMOD_PARA.7864
00005484 l     O .text	00000003 FRMCTR1_PARA.7852
00005488 l     O .text	00000003 FRMCTR2_PARA.7853
0000548c l     O .text	00000006 FRMCTR3_PARA.7854
00005494 l     O .text	00000001 INVCTR_PARA.7855
00005498 l     O .text	00000001 MADCTL1_PARA.7862
0000549c l     O .text	00000003 PWCTR1_PARA.7856
000054a0 l     O .text	00000001 PWCTR2_PARA.7857
000054a4 l     O .text	00000002 PWCTR3_PARA.7858
000054a8 l     O .text	00000002 PWCTR4_PARA.7859
000054ac l     O .text	00000002 PWCTR5_PARA.7860
000054b0 l     O .text	00000001 VMCTR1_PARA.7861
00000000 l    df *ABS*	00000000 console.c
20004b90 l     O .bss	00000010 avail_queue
20004ba0 l     O .bss	0000000c console_write_lock
00000000 l    df *ABS*	00000000 console_fmt.c
00000000 l    df *ABS*	00000000 semihosting_console.c
000023dc l     F .text	00000024 __semihost
00002400 l     F .text	00000010 debugger_connected
00002410 l     F .text	0000002e semihost_write
000024e4 l     F .text	0000001c semihosting_console_write_ch
20004bac l     O .bss	00000004 semihost_mbuf
20000148 l     O .data	00000001 log_enabled
00000000 l    df *ABS*	00000000 ticks.c
20004bb0 l     O .bss	00000001 do_ticks
00000000 l    df *ABS*	00000000 sysinit.c
0000254c l     F .text	00000006 sysinit_dflt_panic_cb
00000000 l    df *ABS*	00000000 mem.c
00000000 l    df *ABS*	00000000 nrf52_boot-sysinit-app.c
00000000 l    df *ABS*	00000000 bootutil_misc.c
000025b8 l     F .text	0000000c boot_flag_decode
000025c4 l     F .text	00000018 boot_magic_decode
000025dc l     F .text	00000060 boot_find_status
0000263c l     F .text	0000006a boot_write_trailer
000026a6 l     F .text	00000016 boot_write_trailer_flag
000054fc l     O .text	00000012 boot_swap_tables
00000000 l    df *ABS*	00000000 loader.c
00002a4c l     F .text	00000040 boot_is_header_valid
00002a8c l     F .text	0000001c boot_write_sz
00002aa8 l     F .text	0000009c boot_read_image_size
00002b44 l     F .text	00000054 boot_check_header_erased
00002b98 l     F .text	00000048 boot_initialize_area
00002be0 l     F .text	0000003a boot_read_sectors
00002c1c l     F .text	00000034 boot_image_check
00002c50 l     F .text	00000098 boot_validate_slot
00002ce8 l     F .text	00000038 boot_validated_swap_type
00002d20 l     F .text	00000036 boot_read_image_headers
00002d8c l     F .text	0000009c boot_swap_image
00002e28 l     F .text	00000084 boot_complete_partial_swap
00002eac l     F .text	00000058 boot_perform_update
00002f04 l     F .text	000000e4 boot_prepare_image_for_update
20004bb4 l     O .bss	0000006c boot_data
20004c20 l     O .bss	00000400 buf.4971
20005020 l     O .bss	00000600 primary_slot_sectors.5011
20005620 l     O .bss	00000600 scratch_sectors.5013
20005c20 l     O .bss	00000600 secondary_slot_sectors.5012
20006220 l     O .bss	00000100 tmpbuf.4904
00000000 l    df *ABS*	00000000 swap_misc.c
00000000 l    df *ABS*	00000000 swap_scratch.c
000033e2 l     F .text	0000002e boot_copy_sz
00003410 l     F .text	00000332 boot_swap_sectors
00005758 l     O .text	00000010 boot_status_tables
00000000 l    df *ABS*	00000000 image_validate.c
00003b0a l     F .text	0000007e bootutil_img_hash
00000000 l    df *ABS*	00000000 tlv.c
00000000 l    df *ABS*	00000000 flash_map_extended.c
00000000 l    df *ABS*	00000000 sha256.c
0000584c l     O .text	00000100 K
00000000 l    df *ABS*	00000000 hal_flash.c
00004174 l     F .text	0000001e hal_flash_check_addr
20006320 l     O .bss	00000001 protected_flash
00000000 l    df *ABS*	00000000 hal_system_start.c
00000000 l    df *ABS*	00000000 inline.c
00000000 l    df *ABS*	00000000 mynewt.c
00004464 l     F .text	00000004 stdin_read
00004468 l     F .text	00000010 stdout_write
20000150 l     O .data	00000004 _stdin
20000154 l     O .data	00000008 _stdin_methods
00000000 l    df *ABS*	00000000 strlen.c
00000000 l    df *ABS*	00000000 tinyprintf.c
00004488 l     F .text	000000c0 ui2a
00004548 l     F .text	00000020 i2a
00004568 l     F .text	00000030 a2d
00004598 l     F .text	00000036 a2i
000045ce l     F .text	0000002a putf
000045f8 l     F .text	0000011c putchw
00004714 l     F .text	00000064 intarg
00000000 l    df *ABS*	00000000 vprintf.c
00000000 l    df *ABS*	00000000 flash_map.c
00004a14 l     F .text	00000078 flash_map_read_mfg
20006324 l     O .bss	00000078 mfg_areas.7780
00000000 l    df *ABS*	00000000 modlog.c
00000000 l    df *ABS*	00000000 mfg.c
00004c3c l     F .text	00000094 mfg_seek_next_aux
00004cd0 l     F .text	00000070 mfg_read_mmr
00004d40 l     F .text	00000054 mfg_read_next_mmr
00004d94 l     F .text	0000003c mfg_open_flash_area
00004dd0 l     F .text	00000044 mfg_read_tlv_body
00004e88 l     F .text	0000004e mfg_read_mmr_refs
2000639c l     O .bss	00000001 mfg_initialized
200063a0 l     O .bss	00000018 mfg_mmrs
200063b8 l     O .bss	00000004 mfg_num_mmrs
00000000 l    df *ABS*	00000000 _aeabi_uldivmod.o
00000000 l    df *ABS*	00000000 libgcc2.c
00000000 l    df *ABS*	00000000 _dvmd_tls.o
00000000 l    df *ABS*	00000000 nrf52_boot-sysflash.c
00000000 l    df *ABS*	00000000 os_sched.c
00000000 l    df *ABS*	00000000 SVC_Table.S
00000000 l       .svc_table	00000000 SVC_End
00002490 g     F .text	00000054 console_buffer
20006428 g       .bss	00000000 __HeapBase
00000000 g       .svc_table	00000000 SVC_Count
00000144  w    F .text	00000002 TIMER2_IRQHandler
20006400 g     O .bss	00000008 g_os_mempool_list
00000144  w    F .text	00000002 RTC0_IRQHandler
00002734 g     F .text	000000c0 boot_read_swap_state
000031f0 g     F .text	00000010 boot_go
200000d8 g       .data	00000000 __data_start__
0000522c g     O .text	00000018 nrf52k_flash_dev
000049dc g     F .text	00000024 printf
0000594c g     O .text	00000004 stdout
00000144  w    F .text	00000002 SWI0_EGU0_IRQHandler
00000d5e g     F .text	00000022 hal_gpio_write
00003e88 g     F .text	00000128 mbedtls_internal_sha256_process
00000136  w    F .text	00000002 HardFault_Handler
00001584 g     F .text	00000060 hal_timer_init
00004e26 g     F .text	0000001a mfg_seek_next_with_type
00004406 g     F .text	0000000a hal_system_start
00002880 g     F .text	00000044 boot_write_swap_info
000041ba g     F .text	00000010 hal_flash_align
00000144  w    F .text	00000002 SWI2_EGU2_IRQHandler
000026bc g     F .text	00000020 boot_magic_compatible_check
00001bba g     F .text	0000000c SysTick_Handler
00000144  w    F .text	00000002 GPIOTE_IRQHandler
00001574 g     F .text	00000010 nrf52_timer0_irq_handler
000019a4 g     F .text	00000026 os_memblock_put
00000144  w    F .text	00000002 PWM1_IRQHandler
00001ab8 g     F .text	00000028 os_msys_get_pkthdr
2000641c g     O .bss	00000004 flash_map
00004374 g     F .text	00000030 hal_flash_is_erased
00001b90 g     F .text	0000002a PendSV_Handler
00000134  w    F .text	00000002 NMI_Handler
000059b0 g       .ARM.exidx	00000000 __exidx_end
00003dd6 g     F .text	0000000c mbedtls_sha256_init
00000000 g       .text	00000000 __isr_vector_start
00000174 g     F .text	0000002c hal_system_reset
20000148 g       .data	00000000 __aeabi_unwind_cpp_pr0
00000144  w    F .text	00000002 POWER_CLOCK_IRQHandler
000059b0 g       .ARM.exidx	00000000 __etext
00000144  w    F .text	00000002 RADIO_IRQHandler
00004b6e g     F .text	00000026 flash_area_write
2000015c g       .bssnz	00000000 __bssnz_start__
00000a3e g     F .text	0000008e spiflash_erase
00000144  w    F .text	00000002 PDM_IRQHandler
00003200 g     F .text	00000084 swap_erase_trailer_sectors
000030b0 g     F .text	00000140 context_boot_go
00003850 g     F .text	00000100 boot_slots_compatible
00004e40 g     F .text	0000000a mfg_read_tlv_flash_area
00002540 g     F .text	0000000c console_get_ticks
000019cc g     F .text	00000010 os_mempool_module_init
00000144  w    F .text	00000002 TEMP_IRQHandler
00000144  w    F .text	00000002 QDEC_IRQHandler
00000144  w    F .text	00000002 TIMER3_IRQHandler
00001878 g     F .text	0000000a timer_handler
00003a8c g     F .text	0000007e swap_run
0000253c g     F .text	00000004 semihosting_console_init
00001dba g     F .text	0000001a memcpy
000012d0 g     F .text	00000078 hal_watchdog_init
000017f0 g     F .text	0000000c os_cputime_init
000033a8 g     F .text	0000003a swap_set_image_ok
00004ed8 g     F .text	00000000 .hidden __aeabi_uldivmod
000043a4 g     F .text	00000062 hal_flash_isempty
00004430 g     F .text	00000034 puts
00000000 g       *ABS*	00000000 _imghdr_size
20006414 g     O .bss	00000004 console_is_midline
00001c6a g     F .text	00000014 os_mbuf_free
200000e4 g     O .data	00000004 SystemCoreClock
00000158 g     F .text	0000000c hal_system_init
00000144  w    F .text	00000002 SPIM0_SPIS0_TWIM0_TWIS0_SPI0_TWI0_IRQHandler
00004b48 g     F .text	00000026 flash_area_read
0000170c g     F .text	0000004c __assert_func
00000e24 g     F .text	00000018 nrf52_spi0_irq_handler
0000235c g     F .text	00000038 console_pkg_init
0000013c  w    F .text	00000002 UsageFault_Handler
00000a22 g     F .text	0000001c spiflash_chip_erase
00000144  w    F .text	00000002 UARTE0_UART0_IRQHandler
00004778 g     F .text	0000025c tfp_format
2000fe50 g       *ABS*	00000000 __HeapLimit
2000015c g       .bss	00000000 __bss_start__
00000164 g     F .text	00000010 hal_debugger_connected
00004230 g     F .text	00000074 hal_flash_write
00000144  w    F .text	00000002 TIMER4_IRQHandler
00004f08 g     F .text	000002cc .hidden __udivmoddi4
000026ee g     F .text	0000001e boot_status_entries
000026dc g     F .text	00000008 boot_status_sz
20006408 g     O .bss	00000004 g_current_task
00001882 g     F .text	0000000c os_arch_save_sr
00003742 g     F .text	00000034 boot_read_image_header
00002844 g     F .text	00000020 boot_write_magic
00001940 g     F .text	00000014 os_mempool_init
00000ad4 g     F .text	00000064 spiflash_identify
00001806 g     F .text	00000016 os_cputime_delay_ticks
20006418 g     O .bss	00000001 g_console_input_ignore
00005998 g       .text	00000000 __exidx_start
00003050 g     F .text	00000008 boot_erase_region
00003950 g     F .text	0000013c swap_status_source
00001cb6 g     F .text	000000a8 os_mbuf_append
00004e4a g     F .text	0000000a mfg_read_tlv_mmr_ref
00001b30 g     F .text	00000014 os_set_env
00000658 g     F .text	00000014 hal_bsp_flash_dev
0000139c g     F .text	0000000c nrf52_periph_create
00004bba g     F .text	0000000a flash_area_align
00002488 g     F .text	00000008 disable_buffer
00002394 g     F .text	00000048 console_printf
00002352 g     F .text	00000008 console_blocking_mode
00000144  w    F .text	00000002 I2S_IRQHandler
000005da g     F .text	00000002 _init
000042a4 g     F .text	000000d0 hal_flash_erase
0000272e g     F .text	00000006 boot_swap_info_off
000028c4 g     F .text	00000022 boot_write_swap_size
00002250 g     F .text	000000e4 pinetime_boot_display_image
00000144  w    F .text	00000002 SWI4_EGU4_IRQHandler
00002fe8 g     F .text	00000068 boot_write_status
00000144  w    F .text	00000002 TIMER0_IRQHandler
000028e8 g     F .text	000000d8 boot_swap_type_multi
000000d8 g     F .text	0000005c Reset_Handler
2000641a g     O .bss	00000001 sysinit_active
00002814 g     F .text	00000030 boot_read_swap_size
0000338a g     F .text	0000001e swap_set_copy_done
00001e5c g     F .text	00000098 pinetime_boot_init
00001bf8 g     F .text	0000000a os_mbuf_pool_init
00001bc6 g     F .text	0000001e os_default_irq_asm
0000330e g     F .text	0000007c swap_read_status
00004e54 g     F .text	00000024 mfg_init
00001d5e g     F .text	00000014 os_mutex_init
00000148 g     F .text	00000010 _sbrkInit
2000015c g       .bssnz	00000000 __bssnz_end__
00004bdc g     F .text	0000005c flash_map_init
00004a00 g     F .text	00000014 vprintf
00000144  w    F .text	00000002 TIMER1_IRQHandler
20000000 g       .bss	00000000 _ram_start
20000000 g       .vector_relocation	00000000 __vector_tbl_reloc__
00003778 g     F .text	000000bc swap_read_status_bytes
00000cfa g     F .text	0000002c hal_gpio_init_in
00000144  w    F .text	00000002 PWM2_IRQHandler
2000015c g       .data	00000000 __data_end__
00004036 g     F .text	0000013e mbedtls_sha256_finish_ret
00000144  w    F .text	00000002 ECB_IRQHandler
20006410 g     O .bss	00000004 g_os_time
00001120 g     F .text	00000060 hal_spi_init
20006424 g       .bss	00000000 __bss_end__
00001c02 g     F .text	00000032 os_mbuf_get
00000144  w    F .text	00000002 SPIM1_SPIS1_TWIM1_TWIS1_SPI1_TWI1_IRQHandler
0000077a g     F .text	00000016 spiflash_device_ready
00001aa8 g     F .text	00000010 os_msys_reset
00000144 g     F .text	00000002 Default_Handler
000005cc g     F .text	0000000e _start
00002864 g     F .text	0000000e boot_write_copy_done
00003834 g     F .text	0000001a boot_status_internal_off
00001b44 g     F .text	00000006 os_arch_init_task_stack
000054ec g     O .text	00000010 boot_img_magic
00000d26 g     F .text	00000038 hal_gpio_init_out
00000d80 g     F .text	00000034 hal_gpio_read
2000014c g     O .data	00000004 sysinit_panic_cb
00001954 g     F .text	00000032 os_memblock_get
0000256c g     F .text	00000030 mem_init_mbuf_pool
00002d6a g     F .text	00000022 boot_status_is_reset
00001758 g     F .text	00000098 os_default_irq
000009ec g     F .text	0000000e spiflash_sector_erase
00004bc4 g     F .text	0000000a flash_area_erased_val
00003284 g     F .text	0000008a swap_status_init
2000640c g     O .bss	00000004 g_os_last_ctx_sw_time
00001d72 g     F .text	00000048 memcmp
000051d4  w    F .text	00000002 .hidden __aeabi_ldiv0
00002554 g     F .text	0000000c sysinit_start
000015e4 g     F .text	000000f8 hal_timer_config
00003dc4 g     F .text	00000012 flash_area_id_from_multi_image_slot
00002d56 g     F .text	00000014 boot_status_reset
00003058 g     F .text	00000058 boot_copy_region
00001a18 g     F .text	0000004c os_msys_register
00004a8c g     F .text	00000040 flash_area_open
200000e8 g     O .data	00000040 spiflash_dev
00000144  w    F .text	00000002 SAADC_IRQHandler
000027f4 g     F .text	00000020 boot_read_swap_state_by_id
00001dd4 g     F .text	00000038 memset
00000000 g       .text	000000d8 __isr_vector
000005e2 g     F .text	00000076 main
000011c8 g     F .text	0000002c hal_spi_set_txrx_cb
00002500 g     F .text	0000003c console_out_nolock
000006f6 g     F .text	0000005a spiflash_read_jedec_id
00000144  w    F .text	00000002 CCM_AAR_IRQHandler
00000144  w    F .text	00000002 WDT_IRQHandler
00002560 g     F .text	0000000c sysinit_end
00004c38 g     F .text	00000002 modlog_init
00001b4a g     F .text	00000046 SVC_Handler
000041da g     F .text	00000054 hal_flash_read
000016dc g     F .text	00000030 hal_timer_read
00004b94 g     F .text	00000026 flash_area_erase
200063bc g     O .bss	00000028 nrf52_hal_spi0
00001ca2 g     F .text	00000014 os_mbuf_len
20006419 g     O .bss	00000001 g_silence_console
00000144  w    F .text	00000002 SWI5_EGU5_IRQHandler
20006420 g     O .bss	00000004 flash_map_entries
00000000 g       .text	00000000 __text
00004e14 g     F .text	00000012 mfg_seek_next
00004bce g     F .text	0000000e flash_area_read_is_empty
00002334 g     F .text	0000001e console_write
0000270c g     F .text	00000022 boot_status_off
0000040c g     F .text	000001c0 SystemInit
000017fc g     F .text	0000000a os_cputime_get32
00000144  w    F .text	00000002 RNG_IRQHandler
000041ca g     F .text	00000010 hal_flash_erased_val
00003b88 g     F .text	000000ba bootutil_img_validate
00000000 g       .svc_table	00000000 SVC_Table
00000144  w    F .text	00000002 RTC2_IRQHandler
00001180 g     F .text	00000048 hal_spi_tx_val
00000860 g     F .text	00000020 spiflash_write_enable
20010000 g       .bss	00000000 __StackTop
00002440 g     F .text	00000048 console_flush
00000144  w    F .text	00000002 PWM0_IRQHandler
00000144  w    F .text	00000002 SWI3_EGU3_IRQHandler
00001034 g     F .text	00000038 hal_spi_config
00004acc g     F .text	0000007c flash_area_to_sectors
00005950 g     O .text	00000048 sysflash_map_dflt
200063e4 g     O .bss	0000001c nrf52_hal_timer0
000000d8 g       .text	00000000 __isr_vector_end
00000144  w    F .text	00000002 RTC1_IRQHandler
000029c0 g     F .text	0000008a boot_set_pending
0000106c g     F .text	0000004c hal_spi_enable
0000181c g     F .text	00000008 os_cputime_delay_usecs
00000144  w    F .text	00000002 SWI1_EGU1_IRQHandler
000007e0 g     F .text	00000016 spiflash_wait_ready
00004410 g     F .text	0000001e fwrite
00000a12 g     F .text	00000010 spiflash_block_64k_erase
00004e78 g     F .text	00000010 mfg_open
20000140 g     O .data	00000008 g_os_run_list
00000678 g     F .text	00000034 NVIC_Relocate
0000259c g     F .text	0000001c sysinit_app
20000164 g     O .bss	00000004 os_flags
0000188e g     F .text	00000006 os_arch_restore_sr
2000fe50 g       *ABS*	000001b0 __StackLimit
00003fb0 g     F .text	00000086 mbedtls_sha256_update_ret
00000144  w    F .text	00000002 SPIM2_SPIS2_SPI2_IRQHandler
00000144  w    F .text	00000002 NFCT_IRQHandler
000003fc g     F .text	00000010 SystemCoreClockUpdate
00001c7e g     F .text	00000024 os_mbuf_free_chain
00001ae0 g     F .text	00000034 os_msys_init
00001b14 g     F .text	0000000c os_time_get
000011f4 g     F .text	000000ac hal_spi_txrx
00001c34 g     F .text	00000036 os_mbuf_get_pkthdr
000051d4  w    F .text	00000002 .hidden __aeabi_idiv0
00003c42 g     F .text	000000ca bootutil_tlv_iter_begin
00000b76 g     F .text	00000006 _exit
000001a0 g     F .text	0000004c hal_system_clock_start
0000013a  w    F .text	00000002 BusFault_Handler
00004478 g     F .text	00000010 strlen
00000750 g     F .text	0000002a spiflash_read_status
00001986 g     F .text	0000001e os_memblock_put_from_cb
000018b6 g     F .text	00000010 os_eventq_init
00001b20 g     F .text	00000010 os_time_advance
00004192 g     F .text	00000028 hal_flash_init
00000144  w    F .text	00000002 MWU_IRQHandler
00000138  w    F .text	00000002 MemoryManagement_Handler
00000144  w    F .text	00000002 COMP_LPCOMP_IRQHandler
0000184c g     F .text	0000002c os_dev_initialize_all
00001ef4 g     F .text	00000030 boot_custom_start
0000066c g     F .text	0000000c hal_bsp_init
00001894 g     F .text	00000022 os_pkg_init
000010b8 g     F .text	00000068 hal_spi_disable
000005dc g     F .text	00000006 flash_device_base
00000a02 g     F .text	00000010 spiflash_block_32k_erase
000049d4 g     F .text	00000008 vfprintf
000026e4 g     F .text	0000000a boot_trailer_sz
00003d0c g     F .text	000000b8 bootutil_tlv_iter_next
00002872 g     F .text	0000000e boot_write_image_ok
00003de4 g     F .text	000000a4 mbedtls_sha256_starts_ret



Disassembly of section .text:

00000000 <__isr_vector>:
 * NOTE: must be called with interrupts disabled! This function does not call
 * the scheduler
 */
int
os_sched_sleep(struct os_task *t, os_time_t nticks)
{
       0:	20010000 	.word	0x20010000
       4:	000000d9 	.word	0x000000d9
    struct os_task *entry;

    entry = NULL;

    TAILQ_REMOVE(&g_os_run_list, t, t_os_list);
       8:	00000135 	.word	0x00000135
       c:	00000137 	.word	0x00000137
	...
    if (nticks == OS_TIMEOUT_NEVER) {
        t->t_flags |= OS_TASK_FLAG_NO_TIMEOUT;
        TAILQ_INSERT_TAIL(&g_os_sleep_list, t, t_os_list);
    } else {
        TAILQ_FOREACH(entry, &g_os_sleep_list, t_os_list) {
            if ((entry->t_flags & OS_TASK_FLAG_NO_TIMEOUT) ||
      2c:	00001b4b 	.word	0x00001b4b
	...
      38:	00001b91 	.word	0x00001b91
        TAILQ_FOREACH(entry, &g_os_sleep_list, t_os_list) {
      3c:	00001bbb 	.word	0x00001bbb
    TAILQ_REMOVE(&g_os_run_list, t, t_os_list);
      40:	00000145 	.word	0x00000145
      44:	00000145 	.word	0x00000145
        t->t_flags |= OS_TASK_FLAG_NO_TIMEOUT;
      48:	00000145 	.word	0x00000145
      4c:	00000145 	.word	0x00000145
        TAILQ_INSERT_TAIL(&g_os_sleep_list, t, t_os_list);
      50:	00000145 	.word	0x00000145
      54:	00000145 	.word	0x00000145
      58:	00000145 	.word	0x00000145
      5c:	00000145 	.word	0x00000145
      60:	00000145 	.word	0x00000145
                    OS_TIME_TICK_GT(entry->t_next_wakeup, t->t_next_wakeup)) {
                break;
            }
        }
        if (entry) {
            TAILQ_INSERT_BEFORE(entry, t, t_os_list);
      64:	00000145 	.word	0x00000145
      68:	00000145 	.word	0x00000145
      6c:	00000145 	.word	0x00000145
      70:	00000145 	.word	0x00000145
        }
    }

    os_trace_task_stop_ready(t, OS_TASK_SLEEP);
    return (0);
}
      74:	00000145 	.word	0x00000145
            TAILQ_INSERT_TAIL(&g_os_sleep_list, t, t_os_list);
      78:	00000145 	.word	0x00000145
      7c:	00000145 	.word	0x00000145
      80:	00000145 	.word	0x00000145
      84:	00000145 	.word	0x00000145
      88:	00000145 	.word	0x00000145
      8c:	00000145 	.word	0x00000145
      90:	00000145 	.word	0x00000145
      94:	00000145 	.word	0x00000145
      98:	00000145 	.word	0x00000145
      9c:	00000145 	.word	0x00000145
      a0:	00000145 	.word	0x00000145
      a4:	00000145 	.word	0x00000145
      a8:	00000145 	.word	0x00000145
      ac:	00000145 	.word	0x00000145
      b0:	00000145 	.word	0x00000145
      b4:	00000145 	.word	0x00000145
	...
      c0:	00000145 	.word	0x00000145
      c4:	00000145 	.word	0x00000145
      c8:	00000145 	.word	0x00000145
      cc:	00000145 	.word	0x00000145
      d0:	00000145 	.word	0x00000145
      d4:	00000145 	.word	0x00000145

000000d8 <Reset_Handler>:
    .type    Reset_Handler, %function
Reset_Handler:
    .fnstart

    /* Clear BSS */
    mov     r0, #0
      d8:	f04f 0000 	mov.w	r0, #0
    ldr     r2, =__bss_start__
      dc:	4a0c      	ldr	r2, [pc, #48]	; (110 <.bss_zero_loop+0x30>)
    ldr     r3, =__bss_end__
      de:	4b0d      	ldr	r3, [pc, #52]	; (114 <.bss_zero_loop+0x34>)

000000e0 <.bss_zero_loop>:
.bss_zero_loop:
    cmp     r2, r3
      e0:	429a      	cmp	r2, r3
    itt     lt
      e2:	bfbc      	itt	lt
    strlt   r0, [r2], #4
      e4:	f842 0b04 	strlt.w	r0, [r2], #4
    blt    .bss_zero_loop
      e8:	e7fa      	blt.n	e0 <.bss_zero_loop>
 *      of copy from/to are specified by following symbols evaluated in
 *      linker script.
 *      __etext: End of code section, i.e., begin of data sections to copy from.
 *      __data_start__/__data_end__: RAM address range that data should be
 *      copied to. Both must be aligned to 4 bytes boundary.  */
    ldr    r1, =__etext
      ea:	490b      	ldr	r1, [pc, #44]	; (118 <.bss_zero_loop+0x38>)
    ldr    r2, =__data_start__
      ec:	4a0b      	ldr	r2, [pc, #44]	; (11c <.bss_zero_loop+0x3c>)
    ldr    r3, =__data_end__
      ee:	4b0c      	ldr	r3, [pc, #48]	; (120 <.bss_zero_loop+0x40>)

    subs    r3, r2
      f0:	1a9b      	subs	r3, r3, r2
    ble     .LC0
      f2:	dd03      	ble.n	fc <.bss_zero_loop+0x1c>

.LC1:
    subs    r3, 4
      f4:	3b04      	subs	r3, #4
    ldr    r0, [r1,r3]
      f6:	58c8      	ldr	r0, [r1, r3]
    str    r0, [r2,r3]
      f8:	50d0      	str	r0, [r2, r3]
    bgt    .LC1
      fa:	dcfb      	bgt.n	f4 <.bss_zero_loop+0x14>

.LC0:

    LDR     R0, =__HeapBase
      fc:	4809      	ldr	r0, [pc, #36]	; (124 <.bss_zero_loop+0x44>)
    LDR     R1, =__HeapLimit
      fe:	490a      	ldr	r1, [pc, #40]	; (128 <.bss_zero_loop+0x48>)
    BL      _sbrkInit
     100:	f000 f822 	bl	148 <_sbrkInit>

    LDR     R0, =SystemInit
     104:	4809      	ldr	r0, [pc, #36]	; (12c <.bss_zero_loop+0x4c>)
    BLX     R0
     106:	4780      	blx	r0

    BL      hal_system_init
     108:	f000 f826 	bl	158 <hal_system_init>

    LDR     R0, =_start
     10c:	4808      	ldr	r0, [pc, #32]	; (130 <.bss_zero_loop+0x50>)
    BX      R0
     10e:	4700      	bx	r0
    ldr     r2, =__bss_start__
     110:	2000015c 	.word	0x2000015c
    ldr     r3, =__bss_end__
     114:	20006424 	.word	0x20006424
    ldr    r1, =__etext
     118:	000059b0 	.word	0x000059b0
    ldr    r2, =__data_start__
     11c:	200000d8 	.word	0x200000d8
    ldr    r3, =__data_end__
     120:	2000015c 	.word	0x2000015c
    LDR     R0, =__HeapBase
     124:	20006428 	.word	0x20006428
    LDR     R1, =__HeapLimit
     128:	2000fe50 	.word	0x2000fe50
    LDR     R0, =SystemInit
     12c:	0000040d 	.word	0x0000040d
    LDR     R0, =_start
     130:	000005cd 	.word	0x000005cd

00000134 <NMI_Handler>:
/* Dummy Exception Handlers (infinite loops which can be modified) */

    .weak   NMI_Handler
    .type   NMI_Handler, %function
NMI_Handler:
    B       .
     134:	e7fe      	b.n	134 <NMI_Handler>

00000136 <HardFault_Handler>:


    .weak   HardFault_Handler
    .type   HardFault_Handler, %function
HardFault_Handler:
    B       .
     136:	e7fe      	b.n	136 <HardFault_Handler>

00000138 <MemoryManagement_Handler>:


    .weak   MemoryManagement_Handler
    .type   MemoryManagement_Handler, %function
MemoryManagement_Handler:
    B       .
     138:	e7fe      	b.n	138 <MemoryManagement_Handler>

0000013a <BusFault_Handler>:


    .weak   BusFault_Handler
    .type   BusFault_Handler, %function
BusFault_Handler:
    B       .
     13a:	e7fe      	b.n	13a <BusFault_Handler>

0000013c <UsageFault_Handler>:


    .weak   UsageFault_Handler
    .type   UsageFault_Handler, %function
UsageFault_Handler:
    B       .
     13c:	e7fe      	b.n	13c <UsageFault_Handler>


    .weak   SVC_Handler
    .type   SVC_Handler, %function
SVC_Handler:
    B       .
     13e:	e7fe      	b.n	13e <UsageFault_Handler+0x2>


    .weak   PendSV_Handler
    .type   PendSV_Handler, %function
PendSV_Handler:
    B       .
     140:	e7fe      	b.n	140 <UsageFault_Handler+0x4>


    .weak   SysTick_Handler
    .type   SysTick_Handler, %function
SysTick_Handler:
    B       .
     142:	e7fe      	b.n	142 <UsageFault_Handler+0x6>

00000144 <Default_Handler>:
/* IRQ Handlers */

    .globl  Default_Handler
    .type   Default_Handler, %function
Default_Handler:
    B       .
     144:	e7fe      	b.n	144 <Default_Handler>
     146:	bf00      	nop

00000148 <_sbrkInit>:
static char *sbrkLimit __attribute__ ((section (".data")));
static char *brk __attribute__ ((section (".data")));

void
_sbrkInit(char *base, char *limit) {
    sbrkBase = base;
     148:	4b02      	ldr	r3, [pc, #8]	; (154 <_sbrkInit+0xc>)
     14a:	6018      	str	r0, [r3, #0]
    sbrkLimit = limit;
     14c:	6059      	str	r1, [r3, #4]
    brk = base;
     14e:	6098      	str	r0, [r3, #8]
}
     150:	4770      	bx	lr
     152:	bf00      	nop
     154:	200000d8 	.word	0x200000d8

00000158 <hal_system_init>:
 */
void
hal_system_init(void)
{
#if MYNEWT_VAL(MCU_DCDC_ENABLED)
    NRF_POWER->DCDCEN = 1;
     158:	f04f 4380 	mov.w	r3, #1073741824	; 0x40000000
     15c:	2201      	movs	r2, #1
     15e:	f8c3 2578 	str.w	r2, [r3, #1400]	; 0x578
#endif
}
     162:	4770      	bx	lr

00000164 <hal_debugger_connected>:
}

int
hal_debugger_connected(void)
{
    return CoreDebug->DHCSR & CoreDebug_DHCSR_C_DEBUGEN_Msk;
     164:	4b02      	ldr	r3, [pc, #8]	; (170 <hal_debugger_connected+0xc>)
     166:	6818      	ldr	r0, [r3, #0]
}
     168:	f000 0001 	and.w	r0, r0, #1
     16c:	4770      	bx	lr
     16e:	bf00      	nop
     170:	e000edf0 	.word	0xe000edf0

00000174 <hal_system_reset>:
{
     174:	b508      	push	{r3, lr}
        if (hal_debugger_connected()) {
     176:	f7ff fff5 	bl	164 <hal_debugger_connected>
     17a:	b100      	cbz	r0, 17e <hal_system_reset+0xa>
            asm("bkpt");
     17c:	be00      	bkpt	0x0000
  \details Acts as a special kind of Data Memory Barrier.
           It completes when all explicit memory accesses before this instruction complete.
 */
__STATIC_FORCEINLINE void __DSB(void)
{
  __ASM volatile ("dsb 0xF":::"memory");
     17e:	f3bf 8f4f 	dsb	sy
__NO_RETURN __STATIC_INLINE void __NVIC_SystemReset(void)
{
  __DSB();                                                          /* Ensure all outstanding memory accesses included
                                                                       buffered write are completed before reset */
  SCB->AIRCR  = (uint32_t)((0x5FAUL << SCB_AIRCR_VECTKEY_Pos)    |
                           (SCB->AIRCR & SCB_AIRCR_PRIGROUP_Msk) |
     182:	4905      	ldr	r1, [pc, #20]	; (198 <hal_system_reset+0x24>)
     184:	68ca      	ldr	r2, [r1, #12]
     186:	f402 62e0 	and.w	r2, r2, #1792	; 0x700
  SCB->AIRCR  = (uint32_t)((0x5FAUL << SCB_AIRCR_VECTKEY_Pos)    |
     18a:	4b04      	ldr	r3, [pc, #16]	; (19c <hal_system_reset+0x28>)
     18c:	4313      	orrs	r3, r2
     18e:	60cb      	str	r3, [r1, #12]
     190:	f3bf 8f4f 	dsb	sy
                            SCB_AIRCR_SYSRESETREQ_Msk    );         /* Keep priority group unchanged */
  __DSB();                                                          /* Ensure completion of memory access */

  for(;;)                                                           /* wait until reset */
  {
    __NOP();
     194:	bf00      	nop
     196:	e7fd      	b.n	194 <hal_system_reset+0x20>
     198:	e000ed00 	.word	0xe000ed00
     19c:	05fa0004 	.word	0x05fa0004

000001a0 <hal_system_clock_start>:
        }
    }
#endif

    /* Check if this clock source is already running */
    if ((NRF_CLOCK->LFCLKSTAT & regmsk) != regval) {
     1a0:	f04f 4380 	mov.w	r3, #1073741824	; 0x40000000
     1a4:	f8d3 2418 	ldr.w	r2, [r3, #1048]	; 0x418
     1a8:	4b0f      	ldr	r3, [pc, #60]	; (1e8 <Stack_Size+0x38>)
     1aa:	4013      	ands	r3, r2
     1ac:	f1b3 1f01 	cmp.w	r3, #65537	; 0x10001
     1b0:	d018      	beq.n	1e4 <Stack_Size+0x34>
        NRF_CLOCK->TASKS_LFCLKSTOP = 1;
     1b2:	f04f 4380 	mov.w	r3, #1073741824	; 0x40000000
     1b6:	2201      	movs	r2, #1
     1b8:	60da      	str	r2, [r3, #12]
        NRF_CLOCK->EVENTS_LFCLKSTARTED = 0;
     1ba:	2100      	movs	r1, #0
     1bc:	f8c3 1104 	str.w	r1, [r3, #260]	; 0x104
        NRF_CLOCK->LFCLKSRC = clksrc;
     1c0:	f8c3 2518 	str.w	r2, [r3, #1304]	; 0x518
        NRF_CLOCK->TASKS_LFCLKSTART = 1;
     1c4:	609a      	str	r2, [r3, #8]

        /* Wait here till started! */
        while (1) {
            if (NRF_CLOCK->EVENTS_LFCLKSTARTED) {
     1c6:	f04f 4380 	mov.w	r3, #1073741824	; 0x40000000
     1ca:	f8d3 3104 	ldr.w	r3, [r3, #260]	; 0x104
     1ce:	2b00      	cmp	r3, #0
     1d0:	d0f9      	beq.n	1c6 <Stack_Size+0x16>
                if ((NRF_CLOCK->LFCLKSTAT & regmsk) == regval) {
     1d2:	f04f 4380 	mov.w	r3, #1073741824	; 0x40000000
     1d6:	f8d3 2418 	ldr.w	r2, [r3, #1048]	; 0x418
     1da:	4b03      	ldr	r3, [pc, #12]	; (1e8 <Stack_Size+0x38>)
     1dc:	4013      	ands	r3, r2
     1de:	f1b3 1f01 	cmp.w	r3, #65537	; 0x10001
     1e2:	d1f0      	bne.n	1c6 <Stack_Size+0x16>
                }
            }
        }
    }
#endif
}
     1e4:	4770      	bx	lr
     1e6:	bf00      	nop
     1e8:	00010003 	.word	0x00010003

000001ec <errata_16>:
}

#ifdef NRF52
static bool errata_16(void)
{
    if ((((*(uint32_t *)0xF0000FE0) & 0x000000FF) == 0x6) && (((*(uint32_t *)0xF0000FE4) & 0x0000000F) == 0x0)){
     1ec:	4b0b      	ldr	r3, [pc, #44]	; (21c <errata_16+0x30>)
     1ee:	781b      	ldrb	r3, [r3, #0]
     1f0:	2b06      	cmp	r3, #6
     1f2:	d001      	beq.n	1f8 <errata_16+0xc>
        if (((*(uint32_t *)0xF0000FE8) & 0x000000F0) == 0x30){
            return true;
        }
    }

    return false;
     1f4:	2000      	movs	r0, #0
     1f6:	4770      	bx	lr
    if ((((*(uint32_t *)0xF0000FE0) & 0x000000FF) == 0x6) && (((*(uint32_t *)0xF0000FE4) & 0x0000000F) == 0x0)){
     1f8:	4b09      	ldr	r3, [pc, #36]	; (220 <errata_16+0x34>)
     1fa:	681b      	ldr	r3, [r3, #0]
     1fc:	f013 0f0f 	tst.w	r3, #15
     200:	d107      	bne.n	212 <errata_16+0x26>
        if (((*(uint32_t *)0xF0000FE8) & 0x000000F0) == 0x30){
     202:	4b08      	ldr	r3, [pc, #32]	; (224 <errata_16+0x38>)
     204:	681b      	ldr	r3, [r3, #0]
     206:	f003 03f0 	and.w	r3, r3, #240	; 0xf0
     20a:	2b30      	cmp	r3, #48	; 0x30
     20c:	d003      	beq.n	216 <errata_16+0x2a>
    return false;
     20e:	2000      	movs	r0, #0
     210:	4770      	bx	lr
     212:	2000      	movs	r0, #0
     214:	4770      	bx	lr
            return true;
     216:	2001      	movs	r0, #1
}
     218:	4770      	bx	lr
     21a:	bf00      	nop
     21c:	f0000fe0 	.word	0xf0000fe0
     220:	f0000fe4 	.word	0xf0000fe4
     224:	f0000fe8 	.word	0xf0000fe8

00000228 <errata_31>:

static bool errata_31(void)
{
    if ((((*(uint32_t *)0xF0000FE0) & 0x000000FF) == 0x6) && (((*(uint32_t *)0xF0000FE4) & 0x0000000F) == 0x0)){
     228:	4b0f      	ldr	r3, [pc, #60]	; (268 <errata_31+0x40>)
     22a:	781b      	ldrb	r3, [r3, #0]
     22c:	2b06      	cmp	r3, #6
     22e:	d001      	beq.n	234 <errata_31+0xc>
        if (((*(uint32_t *)0xF0000FE8) & 0x000000F0) == 0x50){
            return true;
        }
    }

    return false;
     230:	2000      	movs	r0, #0
     232:	4770      	bx	lr
    if ((((*(uint32_t *)0xF0000FE0) & 0x000000FF) == 0x6) && (((*(uint32_t *)0xF0000FE4) & 0x0000000F) == 0x0)){
     234:	4b0d      	ldr	r3, [pc, #52]	; (26c <errata_31+0x44>)
     236:	681b      	ldr	r3, [r3, #0]
     238:	f013 0f0f 	tst.w	r3, #15
     23c:	d10b      	bne.n	256 <errata_31+0x2e>
        if (((*(uint32_t *)0xF0000FE8) & 0x000000F0) == 0x30){
     23e:	4b0c      	ldr	r3, [pc, #48]	; (270 <errata_31+0x48>)
     240:	681b      	ldr	r3, [r3, #0]
     242:	f003 03f0 	and.w	r3, r3, #240	; 0xf0
     246:	2b30      	cmp	r3, #48	; 0x30
     248:	d007      	beq.n	25a <errata_31+0x32>
        if (((*(uint32_t *)0xF0000FE8) & 0x000000F0) == 0x40){
     24a:	2b40      	cmp	r3, #64	; 0x40
     24c:	d007      	beq.n	25e <errata_31+0x36>
        if (((*(uint32_t *)0xF0000FE8) & 0x000000F0) == 0x50){
     24e:	2b50      	cmp	r3, #80	; 0x50
     250:	d007      	beq.n	262 <errata_31+0x3a>
    return false;
     252:	2000      	movs	r0, #0
     254:	4770      	bx	lr
     256:	2000      	movs	r0, #0
     258:	4770      	bx	lr
            return true;
     25a:	2001      	movs	r0, #1
     25c:	4770      	bx	lr
            return true;
     25e:	2001      	movs	r0, #1
     260:	4770      	bx	lr
            return true;
     262:	2001      	movs	r0, #1
}
     264:	4770      	bx	lr
     266:	bf00      	nop
     268:	f0000fe0 	.word	0xf0000fe0
     26c:	f0000fe4 	.word	0xf0000fe4
     270:	f0000fe8 	.word	0xf0000fe8

00000274 <errata_32>:

static bool errata_32(void)
{
    if ((((*(uint32_t *)0xF0000FE0) & 0x000000FF) == 0x6) && (((*(uint32_t *)0xF0000FE4) & 0x0000000F) == 0x0)){
     274:	4b0b      	ldr	r3, [pc, #44]	; (2a4 <errata_32+0x30>)
     276:	781b      	ldrb	r3, [r3, #0]
     278:	2b06      	cmp	r3, #6
     27a:	d001      	beq.n	280 <errata_32+0xc>
        if (((*(uint32_t *)0xF0000FE8) & 0x000000F0) == 0x30){
            return true;
        }
    }

    return false;
     27c:	2000      	movs	r0, #0
     27e:	4770      	bx	lr
    if ((((*(uint32_t *)0xF0000FE0) & 0x000000FF) == 0x6) && (((*(uint32_t *)0xF0000FE4) & 0x0000000F) == 0x0)){
     280:	4b09      	ldr	r3, [pc, #36]	; (2a8 <errata_32+0x34>)
     282:	681b      	ldr	r3, [r3, #0]
     284:	f013 0f0f 	tst.w	r3, #15
     288:	d107      	bne.n	29a <errata_32+0x26>
        if (((*(uint32_t *)0xF0000FE8) & 0x000000F0) == 0x30){
     28a:	4b08      	ldr	r3, [pc, #32]	; (2ac <errata_32+0x38>)
     28c:	681b      	ldr	r3, [r3, #0]
     28e:	f003 03f0 	and.w	r3, r3, #240	; 0xf0
     292:	2b30      	cmp	r3, #48	; 0x30
     294:	d003      	beq.n	29e <errata_32+0x2a>
    return false;
     296:	2000      	movs	r0, #0
     298:	4770      	bx	lr
     29a:	2000      	movs	r0, #0
     29c:	4770      	bx	lr
            return true;
     29e:	2001      	movs	r0, #1
}
     2a0:	4770      	bx	lr
     2a2:	bf00      	nop
     2a4:	f0000fe0 	.word	0xf0000fe0
     2a8:	f0000fe4 	.word	0xf0000fe4
     2ac:	f0000fe8 	.word	0xf0000fe8

000002b0 <errata_36>:

static bool errata_36(void)
{
    if ((((*(uint32_t *)0xF0000FE0) & 0x000000FF) == 0x6) && (((*(uint32_t *)0xF0000FE4) & 0x0000000F) == 0x0)){
     2b0:	4b0f      	ldr	r3, [pc, #60]	; (2f0 <errata_36+0x40>)
     2b2:	781b      	ldrb	r3, [r3, #0]
     2b4:	2b06      	cmp	r3, #6
     2b6:	d001      	beq.n	2bc <errata_36+0xc>
        if (((*(uint32_t *)0xF0000FE8) & 0x000000F0) == 0x50){
            return true;
        }
    }

    return false;
     2b8:	2000      	movs	r0, #0
     2ba:	4770      	bx	lr
    if ((((*(uint32_t *)0xF0000FE0) & 0x000000FF) == 0x6) && (((*(uint32_t *)0xF0000FE4) & 0x0000000F) == 0x0)){
     2bc:	4b0d      	ldr	r3, [pc, #52]	; (2f4 <errata_36+0x44>)
     2be:	681b      	ldr	r3, [r3, #0]
     2c0:	f013 0f0f 	tst.w	r3, #15
     2c4:	d10b      	bne.n	2de <errata_36+0x2e>
        if (((*(uint32_t *)0xF0000FE8) & 0x000000F0) == 0x30){
     2c6:	4b0c      	ldr	r3, [pc, #48]	; (2f8 <errata_36+0x48>)
     2c8:	681b      	ldr	r3, [r3, #0]
     2ca:	f003 03f0 	and.w	r3, r3, #240	; 0xf0
     2ce:	2b30      	cmp	r3, #48	; 0x30
     2d0:	d007      	beq.n	2e2 <errata_36+0x32>
        if (((*(uint32_t *)0xF0000FE8) & 0x000000F0) == 0x40){
     2d2:	2b40      	cmp	r3, #64	; 0x40
     2d4:	d007      	beq.n	2e6 <errata_36+0x36>
        if (((*(uint32_t *)0xF0000FE8) & 0x000000F0) == 0x50){
     2d6:	2b50      	cmp	r3, #80	; 0x50
     2d8:	d007      	beq.n	2ea <errata_36+0x3a>
    return false;
     2da:	2000      	movs	r0, #0
     2dc:	4770      	bx	lr
     2de:	2000      	movs	r0, #0
     2e0:	4770      	bx	lr
            return true;
     2e2:	2001      	movs	r0, #1
     2e4:	4770      	bx	lr
            return true;
     2e6:	2001      	movs	r0, #1
     2e8:	4770      	bx	lr
            return true;
     2ea:	2001      	movs	r0, #1
}
     2ec:	4770      	bx	lr
     2ee:	bf00      	nop
     2f0:	f0000fe0 	.word	0xf0000fe0
     2f4:	f0000fe4 	.word	0xf0000fe4
     2f8:	f0000fe8 	.word	0xf0000fe8

000002fc <errata_37>:

static bool errata_37(void)
{
    if ((((*(uint32_t *)0xF0000FE0) & 0x000000FF) == 0x6) && (((*(uint32_t *)0xF0000FE4) & 0x0000000F) == 0x0)){
     2fc:	4b0b      	ldr	r3, [pc, #44]	; (32c <errata_37+0x30>)
     2fe:	781b      	ldrb	r3, [r3, #0]
     300:	2b06      	cmp	r3, #6
     302:	d001      	beq.n	308 <errata_37+0xc>
        if (((*(uint32_t *)0xF0000FE8) & 0x000000F0) == 0x30){
            return true;
        }
    }

    return false;
     304:	2000      	movs	r0, #0
     306:	4770      	bx	lr
    if ((((*(uint32_t *)0xF0000FE0) & 0x000000FF) == 0x6) && (((*(uint32_t *)0xF0000FE4) & 0x0000000F) == 0x0)){
     308:	4b09      	ldr	r3, [pc, #36]	; (330 <errata_37+0x34>)
     30a:	681b      	ldr	r3, [r3, #0]
     30c:	f013 0f0f 	tst.w	r3, #15
     310:	d107      	bne.n	322 <errata_37+0x26>
        if (((*(uint32_t *)0xF0000FE8) & 0x000000F0) == 0x30){
     312:	4b08      	ldr	r3, [pc, #32]	; (334 <errata_37+0x38>)
     314:	681b      	ldr	r3, [r3, #0]
     316:	f003 03f0 	and.w	r3, r3, #240	; 0xf0
     31a:	2b30      	cmp	r3, #48	; 0x30
     31c:	d003      	beq.n	326 <errata_37+0x2a>
    return false;
     31e:	2000      	movs	r0, #0
     320:	4770      	bx	lr
     322:	2000      	movs	r0, #0
     324:	4770      	bx	lr
            return true;
     326:	2001      	movs	r0, #1
}
     328:	4770      	bx	lr
     32a:	bf00      	nop
     32c:	f0000fe0 	.word	0xf0000fe0
     330:	f0000fe4 	.word	0xf0000fe4
     334:	f0000fe8 	.word	0xf0000fe8

00000338 <errata_57>:

static bool errata_57(void)
{
    if ((((*(uint32_t *)0xF0000FE0) & 0x000000FF) == 0x6) && (((*(uint32_t *)0xF0000FE4) & 0x0000000F) == 0x0)){
     338:	4b0b      	ldr	r3, [pc, #44]	; (368 <errata_57+0x30>)
     33a:	781b      	ldrb	r3, [r3, #0]
     33c:	2b06      	cmp	r3, #6
     33e:	d001      	beq.n	344 <errata_57+0xc>
        if (((*(uint32_t *)0xF0000FE8) & 0x000000F0) == 0x30){
            return true;
        }
    }

    return false;
     340:	2000      	movs	r0, #0
     342:	4770      	bx	lr
    if ((((*(uint32_t *)0xF0000FE0) & 0x000000FF) == 0x6) && (((*(uint32_t *)0xF0000FE4) & 0x0000000F) == 0x0)){
     344:	4b09      	ldr	r3, [pc, #36]	; (36c <errata_57+0x34>)
     346:	681b      	ldr	r3, [r3, #0]
     348:	f013 0f0f 	tst.w	r3, #15
     34c:	d107      	bne.n	35e <errata_57+0x26>
        if (((*(uint32_t *)0xF0000FE8) & 0x000000F0) == 0x30){
     34e:	4b08      	ldr	r3, [pc, #32]	; (370 <errata_57+0x38>)
     350:	681b      	ldr	r3, [r3, #0]
     352:	f003 03f0 	and.w	r3, r3, #240	; 0xf0
     356:	2b30      	cmp	r3, #48	; 0x30
     358:	d003      	beq.n	362 <errata_57+0x2a>
    return false;
     35a:	2000      	movs	r0, #0
     35c:	4770      	bx	lr
     35e:	2000      	movs	r0, #0
     360:	4770      	bx	lr
            return true;
     362:	2001      	movs	r0, #1
}
     364:	4770      	bx	lr
     366:	bf00      	nop
     368:	f0000fe0 	.word	0xf0000fe0
     36c:	f0000fe4 	.word	0xf0000fe4
     370:	f0000fe8 	.word	0xf0000fe8

00000374 <errata_66>:

static bool errata_66(void)
{
    if ((((*(uint32_t *)0xF0000FE0) & 0x000000FF) == 0x6) && (((*(uint32_t *)0xF0000FE4) & 0x0000000F) == 0x0)){
     374:	4b0b      	ldr	r3, [pc, #44]	; (3a4 <errata_66+0x30>)
     376:	781b      	ldrb	r3, [r3, #0]
     378:	2b06      	cmp	r3, #6
     37a:	d001      	beq.n	380 <errata_66+0xc>
        if (((*(uint32_t *)0xF0000FE8) & 0x000000F0) == 0x50){
            return true;
        }
    }

    return false;
     37c:	2000      	movs	r0, #0
     37e:	4770      	bx	lr
    if ((((*(uint32_t *)0xF0000FE0) & 0x000000FF) == 0x6) && (((*(uint32_t *)0xF0000FE4) & 0x0000000F) == 0x0)){
     380:	4b09      	ldr	r3, [pc, #36]	; (3a8 <errata_66+0x34>)
     382:	681b      	ldr	r3, [r3, #0]
     384:	f013 0f0f 	tst.w	r3, #15
     388:	d107      	bne.n	39a <errata_66+0x26>
        if (((*(uint32_t *)0xF0000FE8) & 0x000000F0) == 0x50){
     38a:	4b08      	ldr	r3, [pc, #32]	; (3ac <errata_66+0x38>)
     38c:	681b      	ldr	r3, [r3, #0]
     38e:	f003 03f0 	and.w	r3, r3, #240	; 0xf0
     392:	2b50      	cmp	r3, #80	; 0x50
     394:	d003      	beq.n	39e <errata_66+0x2a>
    return false;
     396:	2000      	movs	r0, #0
     398:	4770      	bx	lr
     39a:	2000      	movs	r0, #0
     39c:	4770      	bx	lr
            return true;
     39e:	2001      	movs	r0, #1
}
     3a0:	4770      	bx	lr
     3a2:	bf00      	nop
     3a4:	f0000fe0 	.word	0xf0000fe0
     3a8:	f0000fe4 	.word	0xf0000fe4
     3ac:	f0000fe8 	.word	0xf0000fe8

000003b0 <errata_108>:


static bool errata_108(void)
{
    if ((((*(uint32_t *)0xF0000FE0) & 0x000000FF) == 0x6) && (((*(uint32_t *)0xF0000FE4) & 0x0000000F) == 0x0)){
     3b0:	4b0f      	ldr	r3, [pc, #60]	; (3f0 <errata_108+0x40>)
     3b2:	781b      	ldrb	r3, [r3, #0]
     3b4:	2b06      	cmp	r3, #6
     3b6:	d001      	beq.n	3bc <errata_108+0xc>
        if (((*(uint32_t *)0xF0000FE8) & 0x000000F0) == 0x50){
            return true;
        }
    }

    return false;
     3b8:	2000      	movs	r0, #0
     3ba:	4770      	bx	lr
    if ((((*(uint32_t *)0xF0000FE0) & 0x000000FF) == 0x6) && (((*(uint32_t *)0xF0000FE4) & 0x0000000F) == 0x0)){
     3bc:	4b0d      	ldr	r3, [pc, #52]	; (3f4 <errata_108+0x44>)
     3be:	681b      	ldr	r3, [r3, #0]
     3c0:	f013 0f0f 	tst.w	r3, #15
     3c4:	d10b      	bne.n	3de <errata_108+0x2e>
        if (((*(uint32_t *)0xF0000FE8) & 0x000000F0) == 0x30){
     3c6:	4b0c      	ldr	r3, [pc, #48]	; (3f8 <errata_108+0x48>)
     3c8:	681b      	ldr	r3, [r3, #0]
     3ca:	f003 03f0 	and.w	r3, r3, #240	; 0xf0
     3ce:	2b30      	cmp	r3, #48	; 0x30
     3d0:	d007      	beq.n	3e2 <errata_108+0x32>
        if (((*(uint32_t *)0xF0000FE8) & 0x000000F0) == 0x40){
     3d2:	2b40      	cmp	r3, #64	; 0x40
     3d4:	d007      	beq.n	3e6 <errata_108+0x36>
        if (((*(uint32_t *)0xF0000FE8) & 0x000000F0) == 0x50){
     3d6:	2b50      	cmp	r3, #80	; 0x50
     3d8:	d007      	beq.n	3ea <errata_108+0x3a>
    return false;
     3da:	2000      	movs	r0, #0
     3dc:	4770      	bx	lr
     3de:	2000      	movs	r0, #0
     3e0:	4770      	bx	lr
            return true;
     3e2:	2001      	movs	r0, #1
     3e4:	4770      	bx	lr
            return true;
     3e6:	2001      	movs	r0, #1
     3e8:	4770      	bx	lr
            return true;
     3ea:	2001      	movs	r0, #1
}
     3ec:	4770      	bx	lr
     3ee:	bf00      	nop
     3f0:	f0000fe0 	.word	0xf0000fe0
     3f4:	f0000fe4 	.word	0xf0000fe4
     3f8:	f0000fe8 	.word	0xf0000fe8

000003fc <SystemCoreClockUpdate>:
    SystemCoreClock = __SYSTEM_CLOCK_64M;
     3fc:	4b01      	ldr	r3, [pc, #4]	; (404 <SystemCoreClockUpdate+0x8>)
     3fe:	4a02      	ldr	r2, [pc, #8]	; (408 <SystemCoreClockUpdate+0xc>)
     400:	601a      	str	r2, [r3, #0]
}
     402:	4770      	bx	lr
     404:	200000e4 	.word	0x200000e4
     408:	03d09000 	.word	0x03d09000

0000040c <SystemInit>:
{
     40c:	b508      	push	{r3, lr}
    if (errata_16()){
     40e:	f7ff feed 	bl	1ec <errata_16>
     412:	b110      	cbz	r0, 41a <SystemInit+0xe>
        *(volatile uint32_t *)0x4007C074 = 3131961357ul;
     414:	4b60      	ldr	r3, [pc, #384]	; (598 <SystemInit+0x18c>)
     416:	4a61      	ldr	r2, [pc, #388]	; (59c <SystemInit+0x190>)
     418:	601a      	str	r2, [r3, #0]
    if (errata_31()){
     41a:	f7ff ff05 	bl	228 <errata_31>
     41e:	b128      	cbz	r0, 42c <SystemInit+0x20>
        *(volatile uint32_t *)0x4000053C = ((*(volatile uint32_t *)0x10000244) & 0x0000E000) >> 13;
     420:	4b5f      	ldr	r3, [pc, #380]	; (5a0 <SystemInit+0x194>)
     422:	681b      	ldr	r3, [r3, #0]
     424:	f3c3 3342 	ubfx	r3, r3, #13, #3
     428:	4a5e      	ldr	r2, [pc, #376]	; (5a4 <SystemInit+0x198>)
     42a:	6013      	str	r3, [r2, #0]
    if (errata_32()){
     42c:	f7ff ff22 	bl	274 <errata_32>
     430:	b120      	cbz	r0, 43c <SystemInit+0x30>
        CoreDebug->DEMCR &= ~CoreDebug_DEMCR_TRCENA_Msk;
     432:	4a5d      	ldr	r2, [pc, #372]	; (5a8 <SystemInit+0x19c>)
     434:	68d3      	ldr	r3, [r2, #12]
     436:	f023 7380 	bic.w	r3, r3, #16777216	; 0x1000000
     43a:	60d3      	str	r3, [r2, #12]
    if (errata_36()){
     43c:	f7ff ff38 	bl	2b0 <errata_36>
     440:	b140      	cbz	r0, 454 <SystemInit+0x48>
        NRF_CLOCK->EVENTS_DONE = 0;
     442:	f04f 4380 	mov.w	r3, #1073741824	; 0x40000000
     446:	2200      	movs	r2, #0
     448:	f8c3 210c 	str.w	r2, [r3, #268]	; 0x10c
        NRF_CLOCK->EVENTS_CTTO = 0;
     44c:	f8c3 2110 	str.w	r2, [r3, #272]	; 0x110
        NRF_CLOCK->CTIV = 0;
     450:	f8c3 2538 	str.w	r2, [r3, #1336]	; 0x538
    if (errata_37()){
     454:	f7ff ff52 	bl	2fc <errata_37>
     458:	b110      	cbz	r0, 460 <SystemInit+0x54>
        *(volatile uint32_t *)0x400005A0 = 0x3;
     45a:	4b54      	ldr	r3, [pc, #336]	; (5ac <SystemInit+0x1a0>)
     45c:	2203      	movs	r2, #3
     45e:	601a      	str	r2, [r3, #0]
    if (errata_57()){
     460:	f7ff ff6a 	bl	338 <errata_57>
     464:	b158      	cbz	r0, 47e <SystemInit+0x72>
        *(volatile uint32_t *)0x40005610 = 0x00000005;
     466:	4b52      	ldr	r3, [pc, #328]	; (5b0 <SystemInit+0x1a4>)
     468:	2205      	movs	r2, #5
     46a:	601a      	str	r2, [r3, #0]
        *(volatile uint32_t *)0x40005688 = 0x00000001;
     46c:	3378      	adds	r3, #120	; 0x78
     46e:	2201      	movs	r2, #1
     470:	601a      	str	r2, [r3, #0]
        *(volatile uint32_t *)0x40005618 = 0x00000000;
     472:	3b70      	subs	r3, #112	; 0x70
     474:	2200      	movs	r2, #0
     476:	601a      	str	r2, [r3, #0]
        *(volatile uint32_t *)0x40005614 = 0x0000003F;
     478:	3b04      	subs	r3, #4
     47a:	223f      	movs	r2, #63	; 0x3f
     47c:	601a      	str	r2, [r3, #0]
    if (errata_66()){
     47e:	f7ff ff79 	bl	374 <errata_66>
     482:	2800      	cmp	r0, #0
     484:	d046      	beq.n	514 <SystemInit+0x108>
        NRF_TEMP->A0 = NRF_FICR->TEMP.A0;
     486:	f04f 5280 	mov.w	r2, #268435456	; 0x10000000
     48a:	f8d2 1404 	ldr.w	r1, [r2, #1028]	; 0x404
     48e:	4b49      	ldr	r3, [pc, #292]	; (5b4 <SystemInit+0x1a8>)
     490:	f8c3 1520 	str.w	r1, [r3, #1312]	; 0x520
        NRF_TEMP->A1 = NRF_FICR->TEMP.A1;
     494:	f8d2 1408 	ldr.w	r1, [r2, #1032]	; 0x408
     498:	f8c3 1524 	str.w	r1, [r3, #1316]	; 0x524
        NRF_TEMP->A2 = NRF_FICR->TEMP.A2;
     49c:	f8d2 140c 	ldr.w	r1, [r2, #1036]	; 0x40c
     4a0:	f8c3 1528 	str.w	r1, [r3, #1320]	; 0x528
        NRF_TEMP->A3 = NRF_FICR->TEMP.A3;
     4a4:	f8d2 1410 	ldr.w	r1, [r2, #1040]	; 0x410
     4a8:	f8c3 152c 	str.w	r1, [r3, #1324]	; 0x52c
        NRF_TEMP->A4 = NRF_FICR->TEMP.A4;
     4ac:	f8d2 1414 	ldr.w	r1, [r2, #1044]	; 0x414
     4b0:	f8c3 1530 	str.w	r1, [r3, #1328]	; 0x530
        NRF_TEMP->A5 = NRF_FICR->TEMP.A5;
     4b4:	f8d2 1418 	ldr.w	r1, [r2, #1048]	; 0x418
     4b8:	f8c3 1534 	str.w	r1, [r3, #1332]	; 0x534
        NRF_TEMP->B0 = NRF_FICR->TEMP.B0;
     4bc:	f8d2 141c 	ldr.w	r1, [r2, #1052]	; 0x41c
     4c0:	f8c3 1540 	str.w	r1, [r3, #1344]	; 0x540
        NRF_TEMP->B1 = NRF_FICR->TEMP.B1;
     4c4:	f8d2 1420 	ldr.w	r1, [r2, #1056]	; 0x420
     4c8:	f8c3 1544 	str.w	r1, [r3, #1348]	; 0x544
        NRF_TEMP->B2 = NRF_FICR->TEMP.B2;
     4cc:	f8d2 1424 	ldr.w	r1, [r2, #1060]	; 0x424
     4d0:	f8c3 1548 	str.w	r1, [r3, #1352]	; 0x548
        NRF_TEMP->B3 = NRF_FICR->TEMP.B3;
     4d4:	f8d2 1428 	ldr.w	r1, [r2, #1064]	; 0x428
     4d8:	f8c3 154c 	str.w	r1, [r3, #1356]	; 0x54c
        NRF_TEMP->B4 = NRF_FICR->TEMP.B4;
     4dc:	f8d2 142c 	ldr.w	r1, [r2, #1068]	; 0x42c
     4e0:	f8c3 1550 	str.w	r1, [r3, #1360]	; 0x550
        NRF_TEMP->B5 = NRF_FICR->TEMP.B5;
     4e4:	f8d2 1430 	ldr.w	r1, [r2, #1072]	; 0x430
     4e8:	f8c3 1554 	str.w	r1, [r3, #1364]	; 0x554
        NRF_TEMP->T0 = NRF_FICR->TEMP.T0;
     4ec:	f8d2 1434 	ldr.w	r1, [r2, #1076]	; 0x434
     4f0:	f8c3 1560 	str.w	r1, [r3, #1376]	; 0x560
        NRF_TEMP->T1 = NRF_FICR->TEMP.T1;
     4f4:	f8d2 1438 	ldr.w	r1, [r2, #1080]	; 0x438
     4f8:	f8c3 1564 	str.w	r1, [r3, #1380]	; 0x564
        NRF_TEMP->T2 = NRF_FICR->TEMP.T2;
     4fc:	f8d2 143c 	ldr.w	r1, [r2, #1084]	; 0x43c
     500:	f8c3 1568 	str.w	r1, [r3, #1384]	; 0x568
        NRF_TEMP->T3 = NRF_FICR->TEMP.T3;
     504:	f8d2 1440 	ldr.w	r1, [r2, #1088]	; 0x440
     508:	f8c3 156c 	str.w	r1, [r3, #1388]	; 0x56c
        NRF_TEMP->T4 = NRF_FICR->TEMP.T4;
     50c:	f8d2 2444 	ldr.w	r2, [r2, #1092]	; 0x444
     510:	f8c3 2570 	str.w	r2, [r3, #1392]	; 0x570
    if (errata_108()){
     514:	f7ff ff4c 	bl	3b0 <errata_108>
     518:	b128      	cbz	r0, 526 <SystemInit+0x11a>
        *(volatile uint32_t *)0x40000EE4 = *(volatile uint32_t *)0x10000258 & 0x0000004F;
     51a:	4b27      	ldr	r3, [pc, #156]	; (5b8 <SystemInit+0x1ac>)
     51c:	681b      	ldr	r3, [r3, #0]
     51e:	f003 034f 	and.w	r3, r3, #79	; 0x4f
     522:	4a26      	ldr	r2, [pc, #152]	; (5bc <SystemInit+0x1b0>)
     524:	6013      	str	r3, [r2, #0]
        if ((NRF_UICR->NFCPINS & UICR_NFCPINS_PROTECT_Msk) == (UICR_NFCPINS_PROTECT_NFC << UICR_NFCPINS_PROTECT_Pos)){
     526:	f04f 2310 	mov.w	r3, #268439552	; 0x10001000
     52a:	f8d3 320c 	ldr.w	r3, [r3, #524]	; 0x20c
     52e:	f013 0f01 	tst.w	r3, #1
     532:	d104      	bne.n	53e <SystemInit+0x132>
    SystemCoreClockUpdate();
     534:	f7ff ff62 	bl	3fc <SystemCoreClockUpdate>
    NVIC_Relocate();
     538:	f000 f89e 	bl	678 <NVIC_Relocate>
}
     53c:	bd08      	pop	{r3, pc}
            NRF_NVMC->CONFIG = NVMC_CONFIG_WEN_Wen << NVMC_CONFIG_WEN_Pos;
     53e:	4b20      	ldr	r3, [pc, #128]	; (5c0 <SystemInit+0x1b4>)
     540:	2201      	movs	r2, #1
     542:	f8c3 2504 	str.w	r2, [r3, #1284]	; 0x504
            while (NRF_NVMC->READY == NVMC_READY_READY_Busy){}
     546:	4b1e      	ldr	r3, [pc, #120]	; (5c0 <SystemInit+0x1b4>)
     548:	f8d3 3400 	ldr.w	r3, [r3, #1024]	; 0x400
     54c:	2b00      	cmp	r3, #0
     54e:	d0fa      	beq.n	546 <SystemInit+0x13a>
            NRF_UICR->NFCPINS &= ~UICR_NFCPINS_PROTECT_Msk;
     550:	f04f 2210 	mov.w	r2, #268439552	; 0x10001000
     554:	f8d2 320c 	ldr.w	r3, [r2, #524]	; 0x20c
     558:	f023 0301 	bic.w	r3, r3, #1
     55c:	f8c2 320c 	str.w	r3, [r2, #524]	; 0x20c
            while (NRF_NVMC->READY == NVMC_READY_READY_Busy){}
     560:	4b17      	ldr	r3, [pc, #92]	; (5c0 <SystemInit+0x1b4>)
     562:	f8d3 3400 	ldr.w	r3, [r3, #1024]	; 0x400
     566:	2b00      	cmp	r3, #0
     568:	d0fa      	beq.n	560 <SystemInit+0x154>
            NRF_NVMC->CONFIG = NVMC_CONFIG_WEN_Ren << NVMC_CONFIG_WEN_Pos;
     56a:	4b15      	ldr	r3, [pc, #84]	; (5c0 <SystemInit+0x1b4>)
     56c:	2200      	movs	r2, #0
     56e:	f8c3 2504 	str.w	r2, [r3, #1284]	; 0x504
            while (NRF_NVMC->READY == NVMC_READY_READY_Busy){}
     572:	4b13      	ldr	r3, [pc, #76]	; (5c0 <SystemInit+0x1b4>)
     574:	f8d3 3400 	ldr.w	r3, [r3, #1024]	; 0x400
     578:	2b00      	cmp	r3, #0
     57a:	d0fa      	beq.n	572 <SystemInit+0x166>
     57c:	f3bf 8f4f 	dsb	sy
                           (SCB->AIRCR & SCB_AIRCR_PRIGROUP_Msk) |
     580:	4910      	ldr	r1, [pc, #64]	; (5c4 <SystemInit+0x1b8>)
     582:	68ca      	ldr	r2, [r1, #12]
     584:	f402 62e0 	and.w	r2, r2, #1792	; 0x700
  SCB->AIRCR  = (uint32_t)((0x5FAUL << SCB_AIRCR_VECTKEY_Pos)    |
     588:	4b0f      	ldr	r3, [pc, #60]	; (5c8 <SystemInit+0x1bc>)
     58a:	4313      	orrs	r3, r2
     58c:	60cb      	str	r3, [r1, #12]
     58e:	f3bf 8f4f 	dsb	sy
    __NOP();
     592:	bf00      	nop
     594:	e7fd      	b.n	592 <SystemInit+0x186>
     596:	bf00      	nop
     598:	4007c074 	.word	0x4007c074
     59c:	baadf00d 	.word	0xbaadf00d
     5a0:	10000244 	.word	0x10000244
     5a4:	4000053c 	.word	0x4000053c
     5a8:	e000edf0 	.word	0xe000edf0
     5ac:	400005a0 	.word	0x400005a0
     5b0:	40005610 	.word	0x40005610
     5b4:	4000c000 	.word	0x4000c000
     5b8:	10000258 	.word	0x10000258
     5bc:	40000ee4 	.word	0x40000ee4
     5c0:	4001e000 	.word	0x4001e000
     5c4:	e000ed00 	.word	0xe000ed00
     5c8:	05fa0004 	.word	0x05fa0004

000005cc <_start>:

/*
 * Rudimentary startup function.
 */
void _start(void)
{
     5cc:	b508      	push	{r3, lr}
#if !MYNEWT_VAL(OS_SCHEDULING)
    int rc;

    rc = main(0, NULL);
     5ce:	2100      	movs	r1, #0
     5d0:	4608      	mov	r0, r1
     5d2:	f000 f806 	bl	5e2 <main>
#define EXIT_SUCCESS	0
#define EXIT_FAILURE	1
__extern void _exit(int s);
__extern_inline void exit(int err)
{
	_exit(err);
     5d6:	f000 face 	bl	b76 <_exit>

000005da <_init>:
}

void
_init(void)
{
}
     5da:	4770      	bx	lr

000005dc <flash_device_base>:
 * TODO: remove this when mynewt needs to support flash_device_base()
 * for devices with nonzero base addresses.
 */
int flash_device_base(uint8_t fd_id, uintptr_t *ret)
{
    *ret = 0;
     5dc:	2000      	movs	r0, #0
     5de:	6008      	str	r0, [r1, #0]
    return 0;
}
     5e0:	4770      	bx	lr

000005e2 <main>:

int
main(void)
{
     5e2:	b500      	push	{lr}
     5e4:	b085      	sub	sp, #20
    struct boot_rsp rsp;
    uintptr_t flash_base;
    int rc;

    hal_bsp_init();
     5e6:	f000 f841 	bl	66c <hal_bsp_init>

#if !MYNEWT_VAL(OS_SCHEDULING) && MYNEWT_VAL(WATCHDOG_INTERVAL)
    rc = hal_watchdog_init(MYNEWT_VAL(WATCHDOG_INTERVAL));
     5ea:	f247 5030 	movw	r0, #30000	; 0x7530
     5ee:	f000 fe6f 	bl	12d0 <hal_watchdog_init>
    assert(rc == 0);
     5f2:	b9f8      	cbnz	r0, 634 <main+0x52>
#endif

#if defined(MCUBOOT_SERIAL) || defined(MCUBOOT_HAVE_LOGGING) || \
        MYNEWT_VAL(CRYPTO) || MYNEWT_VAL(HASH)
    /* initialize uart/crypto without os */
    os_dev_initialize_all(OS_DEV_INIT_PRIMARY);
     5f4:	2001      	movs	r0, #1
     5f6:	f001 f929 	bl	184c <os_dev_initialize_all>
    os_dev_initialize_all(OS_DEV_INIT_SECONDARY);
     5fa:	2002      	movs	r0, #2
     5fc:	f001 f926 	bl	184c <os_dev_initialize_all>
    sysinit();
     600:	f001 ffa8 	bl	2554 <sysinit_start>
     604:	f001 ffca 	bl	259c <sysinit_app>
     608:	f001 ffaa 	bl	2560 <sysinit_end>
    console_blocking_mode();
     60c:	f001 fea1 	bl	2352 <console_blocking_mode>
#endif
#else
    flash_map_init();
#endif

    rc = boot_go(&rsp);
     610:	a801      	add	r0, sp, #4
     612:	f002 fded 	bl	31f0 <boot_go>
    assert(rc == 0);
     616:	b998      	cbnz	r0, 640 <main+0x5e>

    rc = flash_device_base(rsp.br_flash_dev_id, &flash_base);
     618:	4669      	mov	r1, sp
     61a:	f89d 0008 	ldrb.w	r0, [sp, #8]
     61e:	f7ff ffdd 	bl	5dc <flash_device_base>
    assert(rc == 0);
     622:	b998      	cbnz	r0, 64c <main+0x6a>

#if MYNEWT_VAL(BOOT_CUSTOM_START)
    boot_custom_start(flash_base, &rsp);
     624:	a901      	add	r1, sp, #4
     626:	9800      	ldr	r0, [sp, #0]
     628:	f001 fc64 	bl	1ef4 <boot_custom_start>
    hal_system_start((void *)(flash_base + rsp.br_image_off +
                              rsp.br_hdr->ih_hdr_size));
#endif

    return 0;
}
     62c:	2000      	movs	r0, #0
     62e:	b005      	add	sp, #20
     630:	f85d fb04 	ldr.w	pc, [sp], #4
    assert(rc == 0);
     634:	2300      	movs	r3, #0
     636:	461a      	mov	r2, r3
     638:	4619      	mov	r1, r3
     63a:	4618      	mov	r0, r3
     63c:	f001 f866 	bl	170c <__assert_func>
    assert(rc == 0);
     640:	2300      	movs	r3, #0
     642:	461a      	mov	r2, r3
     644:	4619      	mov	r1, r3
     646:	4618      	mov	r0, r3
     648:	f001 f860 	bl	170c <__assert_func>
    assert(rc == 0);
     64c:	2300      	movs	r3, #0
     64e:	461a      	mov	r2, r3
     650:	4619      	mov	r1, r3
     652:	4618      	mov	r0, r3
     654:	f001 f85a 	bl	170c <__assert_func>

00000658 <hal_bsp_flash_dev>:

/// Return the Flash Device for the ID. 0 for Internal Flash ROM, 1 for External SPI Flash
const struct hal_flash *
hal_bsp_flash_dev(uint8_t id)
{
    if (id >= ARRAY_SIZE(flash_devs)) {
     658:	2801      	cmp	r0, #1
     65a:	d803      	bhi.n	664 <hal_bsp_flash_dev+0xc>
        return NULL;
    }
    return flash_devs[id];
     65c:	4b02      	ldr	r3, [pc, #8]	; (668 <hal_bsp_flash_dev+0x10>)
     65e:	f853 0020 	ldr.w	r0, [r3, r0, lsl #2]
     662:	4770      	bx	lr
        return NULL;
     664:	2000      	movs	r0, #0
}
     666:	4770      	bx	lr
     668:	000051d8 	.word	0x000051d8

0000066c <hal_bsp_init>:
    return cfg_pri;
}

void
hal_bsp_init(void)
{
     66c:	b508      	push	{r3, lr}
    /* Make sure system clocks have started */
    hal_system_clock_start();
     66e:	f7ff fd97 	bl	1a0 <hal_system_clock_start>

    /* Create all available nRF52840 peripherals */
    nrf52_periph_create();
     672:	f000 fe93 	bl	139c <nrf52_periph_create>
}
     676:	bd08      	pop	{r3, pc}

00000678 <NVIC_Relocate>:
     * designated in the linker script.
     */
    current_location = (uint32_t *)&__isr_vector;
    new_location = (uint32_t *)&__vector_tbl_reloc__;

    if (new_location != current_location) {
     678:	4a09      	ldr	r2, [pc, #36]	; (6a0 <NVIC_Relocate+0x28>)
     67a:	4b0a      	ldr	r3, [pc, #40]	; (6a4 <NVIC_Relocate+0x2c>)
     67c:	429a      	cmp	r2, r3
     67e:	d00a      	beq.n	696 <NVIC_Relocate+0x1e>
        for (i = 0; i < NVIC_NUM_VECTORS; i++) {
     680:	2300      	movs	r3, #0
     682:	e006      	b.n	692 <NVIC_Relocate+0x1a>
            new_location[i] = current_location[i];
     684:	4a07      	ldr	r2, [pc, #28]	; (6a4 <NVIC_Relocate+0x2c>)
     686:	f852 1023 	ldr.w	r1, [r2, r3, lsl #2]
     68a:	4a05      	ldr	r2, [pc, #20]	; (6a0 <NVIC_Relocate+0x28>)
     68c:	f842 1023 	str.w	r1, [r2, r3, lsl #2]
        for (i = 0; i < NVIC_NUM_VECTORS; i++) {
     690:	3301      	adds	r3, #1
     692:	2b35      	cmp	r3, #53	; 0x35
     694:	ddf6      	ble.n	684 <NVIC_Relocate+0xc>
    }

    /* Set VTOR except for M0 */
#if ((__CORTEX_M == 0) && (__VTOR_PRESENT == 0))
#else
    SCB->VTOR = (uint32_t)&__vector_tbl_reloc__;
     696:	4a02      	ldr	r2, [pc, #8]	; (6a0 <NVIC_Relocate+0x28>)
     698:	4b03      	ldr	r3, [pc, #12]	; (6a8 <NVIC_Relocate+0x30>)
     69a:	609a      	str	r2, [r3, #8]
#endif
}
     69c:	4770      	bx	lr
     69e:	bf00      	nop
     6a0:	20000000 	.word	0x20000000
     6a4:	00000000 	.word	0x00000000
     6a8:	e000ed00 	.word	0xe000ed00

000006ac <hal_spiflash_sector_info>:
}

static int
hal_spiflash_sector_info(const struct hal_flash *hal_flash_dev, int idx,
        uint32_t *address, uint32_t *sz)
{
     6ac:	b410      	push	{r4}
    const struct spiflash_dev *dev = (const struct spiflash_dev *)hal_flash_dev;

    *address = idx * dev->sector_size;
     6ae:	8d84      	ldrh	r4, [r0, #44]	; 0x2c
     6b0:	fb01 f104 	mul.w	r1, r1, r4
     6b4:	6011      	str	r1, [r2, #0]
    *sz = dev->sector_size;
     6b6:	8d82      	ldrh	r2, [r0, #44]	; 0x2c
     6b8:	601a      	str	r2, [r3, #0]
    return 0;
}
     6ba:	2000      	movs	r0, #0
     6bc:	bc10      	pop	{r4}
     6be:	4770      	bx	lr

000006c0 <spiflash_release_power_down_generic>:
{
     6c0:	b530      	push	{r4, r5, lr}
     6c2:	b083      	sub	sp, #12
     6c4:	4605      	mov	r5, r0
    uint8_t cmd[1] = { SPIFLASH_RELEASE_POWER_DOWN };
     6c6:	ac02      	add	r4, sp, #8
     6c8:	23ab      	movs	r3, #171	; 0xab
     6ca:	f804 3d04 	strb.w	r3, [r4, #-4]!
    hal_gpio_write(dev->ss_pin, 0);
     6ce:	2100      	movs	r1, #0
     6d0:	6a80      	ldr	r0, [r0, #40]	; 0x28
     6d2:	f000 fb44 	bl	d5e <hal_gpio_write>
    hal_spi_txrx(dev->spi_num, cmd, cmd, sizeof cmd);
     6d6:	2301      	movs	r3, #1
     6d8:	4622      	mov	r2, r4
     6da:	4621      	mov	r1, r4
     6dc:	6a28      	ldr	r0, [r5, #32]
     6de:	f000 fd89 	bl	11f4 <hal_spi_txrx>
    hal_gpio_write(dev->ss_pin, 1);
     6e2:	2101      	movs	r1, #1
     6e4:	6aa8      	ldr	r0, [r5, #40]	; 0x28
     6e6:	f000 fb3a 	bl	d5e <hal_gpio_write>
}
     6ea:	b003      	add	sp, #12
     6ec:	bd30      	pop	{r4, r5, pc}

000006ee <spiflash_delay_us>:
{
     6ee:	b508      	push	{r3, lr}
    os_cputime_delay_usecs(usecs);
     6f0:	f001 f894 	bl	181c <os_cputime_delay_usecs>
}
     6f4:	bd08      	pop	{r3, pc}

000006f6 <spiflash_read_jedec_id>:
{
     6f6:	b5f0      	push	{r4, r5, r6, r7, lr}
     6f8:	b083      	sub	sp, #12
     6fa:	4604      	mov	r4, r0
     6fc:	460f      	mov	r7, r1
     6fe:	4616      	mov	r6, r2
     700:	461d      	mov	r5, r3
    uint8_t cmd[4] = { SPIFLASH_READ_JEDEC_ID, 0, 0, 0 };
     702:	239f      	movs	r3, #159	; 0x9f
     704:	f88d 3004 	strb.w	r3, [sp, #4]
     708:	2100      	movs	r1, #0
     70a:	f88d 1005 	strb.w	r1, [sp, #5]
     70e:	f88d 1006 	strb.w	r1, [sp, #6]
     712:	f88d 1007 	strb.w	r1, [sp, #7]
    hal_gpio_write(dev->ss_pin, 0);
     716:	6a80      	ldr	r0, [r0, #40]	; 0x28
     718:	f000 fb21 	bl	d5e <hal_gpio_write>
    hal_spi_txrx(dev->spi_num, cmd, cmd, sizeof cmd);
     71c:	2304      	movs	r3, #4
     71e:	eb0d 0203 	add.w	r2, sp, r3
     722:	4611      	mov	r1, r2
     724:	6a20      	ldr	r0, [r4, #32]
     726:	f000 fd65 	bl	11f4 <hal_spi_txrx>
    hal_gpio_write(dev->ss_pin, 1);
     72a:	2101      	movs	r1, #1
     72c:	6aa0      	ldr	r0, [r4, #40]	; 0x28
     72e:	f000 fb16 	bl	d5e <hal_gpio_write>
    if (manufacturer) {
     732:	b117      	cbz	r7, 73a <spiflash_read_jedec_id+0x44>
        *manufacturer = cmd[1];
     734:	f89d 3005 	ldrb.w	r3, [sp, #5]
     738:	703b      	strb	r3, [r7, #0]
    if (memory_type) {
     73a:	b116      	cbz	r6, 742 <spiflash_read_jedec_id+0x4c>
        *memory_type = cmd[2];
     73c:	f89d 3006 	ldrb.w	r3, [sp, #6]
     740:	7033      	strb	r3, [r6, #0]
    if (capacity) {
     742:	b115      	cbz	r5, 74a <spiflash_read_jedec_id+0x54>
        *capacity = cmd[3];
     744:	f89d 3007 	ldrb.w	r3, [sp, #7]
     748:	702b      	strb	r3, [r5, #0]
}
     74a:	2000      	movs	r0, #0
     74c:	b003      	add	sp, #12
     74e:	bdf0      	pop	{r4, r5, r6, r7, pc}

00000750 <spiflash_read_status>:
{
     750:	b538      	push	{r3, r4, r5, lr}
     752:	4604      	mov	r4, r0
    hal_gpio_write(dev->ss_pin, 0);
     754:	2100      	movs	r1, #0
     756:	6a80      	ldr	r0, [r0, #40]	; 0x28
     758:	f000 fb01 	bl	d5e <hal_gpio_write>
    hal_spi_tx_val(dev->spi_num, cmd);
     75c:	2105      	movs	r1, #5
     75e:	6a20      	ldr	r0, [r4, #32]
     760:	f000 fd0e 	bl	1180 <hal_spi_tx_val>
    val = hal_spi_tx_val(dev->spi_num, 0xFF);
     764:	21ff      	movs	r1, #255	; 0xff
     766:	6a20      	ldr	r0, [r4, #32]
     768:	f000 fd0a 	bl	1180 <hal_spi_tx_val>
     76c:	b2c5      	uxtb	r5, r0
    hal_gpio_write(dev->ss_pin, 1);
     76e:	2101      	movs	r1, #1
     770:	6aa0      	ldr	r0, [r4, #40]	; 0x28
     772:	f000 faf4 	bl	d5e <hal_gpio_write>
}
     776:	4628      	mov	r0, r5
     778:	bd38      	pop	{r3, r4, r5, pc}

0000077a <spiflash_device_ready>:
{
     77a:	b510      	push	{r4, lr}
     77c:	4604      	mov	r4, r0
    dev->ready = !(spiflash_read_status(dev) & SPIFLASH_STATUS_BUSY);
     77e:	f7ff ffe7 	bl	750 <spiflash_read_status>
     782:	f080 0001 	eor.w	r0, r0, #1
     786:	f000 0001 	and.w	r0, r0, #1
     78a:	f884 0030 	strb.w	r0, [r4, #48]	; 0x30
}
     78e:	bd10      	pop	{r4, pc}

00000790 <spiflash_wait_ready_till>:
    if (dev->ready) {
     790:	f890 3030 	ldrb.w	r3, [r0, #48]	; 0x30
     794:	b9eb      	cbnz	r3, 7d2 <spiflash_wait_ready_till+0x42>
{
     796:	b570      	push	{r4, r5, r6, lr}
     798:	4604      	mov	r4, r0
     79a:	460e      	mov	r6, r1
     79c:	4615      	mov	r5, r2
    if (step_us < MYNEWT_VAL(SPIFLASH_READ_STATUS_INTERVAL)) {
     79e:	2a09      	cmp	r2, #9
     7a0:	d904      	bls.n	7ac <spiflash_wait_ready_till+0x1c>
    } else if (step_us > 1000000) {
     7a2:	4b0e      	ldr	r3, [pc, #56]	; (7dc <spiflash_wait_ready_till+0x4c>)
     7a4:	429a      	cmp	r2, r3
     7a6:	d902      	bls.n	7ae <spiflash_wait_ready_till+0x1e>
        step_us = 1000000;
     7a8:	4d0c      	ldr	r5, [pc, #48]	; (7dc <spiflash_wait_ready_till+0x4c>)
     7aa:	e000      	b.n	7ae <spiflash_wait_ready_till+0x1e>
        step_us = MYNEWT_VAL(SPIFLASH_READ_STATUS_INTERVAL);
     7ac:	250a      	movs	r5, #10
    limit = os_cputime_get32() + os_cputime_usecs_to_ticks(timeout_us);
     7ae:	f001 f825 	bl	17fc <os_cputime_get32>
     7b2:	4406      	add	r6, r0
        if (spiflash_device_ready(dev)) {
     7b4:	4620      	mov	r0, r4
     7b6:	f7ff ffe0 	bl	77a <spiflash_device_ready>
     7ba:	b960      	cbnz	r0, 7d6 <spiflash_wait_ready_till+0x46>
        spiflash_delay_us(step_us);
     7bc:	4628      	mov	r0, r5
     7be:	f7ff ff96 	bl	6ee <spiflash_delay_us>
    } while (CPUTIME_LT(os_cputime_get32(), limit));
     7c2:	f001 f81b 	bl	17fc <os_cputime_get32>
     7c6:	1b80      	subs	r0, r0, r6
     7c8:	2800      	cmp	r0, #0
     7ca:	dbf3      	blt.n	7b4 <spiflash_wait_ready_till+0x24>
    int rc = -1;
     7cc:	f04f 30ff 	mov.w	r0, #4294967295	; 0xffffffff
     7d0:	e002      	b.n	7d8 <spiflash_wait_ready_till+0x48>
        return 0;
     7d2:	2000      	movs	r0, #0
}
     7d4:	4770      	bx	lr
            rc = 0;
     7d6:	2000      	movs	r0, #0
}
     7d8:	bd70      	pop	{r4, r5, r6, pc}
     7da:	bf00      	nop
     7dc:	000f4240 	.word	0x000f4240

000007e0 <spiflash_wait_ready>:
{
     7e0:	b508      	push	{r3, lr}
    return spiflash_wait_ready_till(dev, timeout_ms * 1000, timeout_ms * 10);
     7e2:	eb01 0381 	add.w	r3, r1, r1, lsl #2
     7e6:	005a      	lsls	r2, r3, #1
     7e8:	f44f 737a 	mov.w	r3, #1000	; 0x3e8
     7ec:	fb03 f101 	mul.w	r1, r3, r1
     7f0:	f7ff ffce 	bl	790 <spiflash_wait_ready_till>
}
     7f4:	bd08      	pop	{r3, pc}

000007f6 <hal_spiflash_read>:
{
     7f6:	b570      	push	{r4, r5, r6, lr}
     7f8:	b082      	sub	sp, #8
     7fa:	4605      	mov	r5, r0
     7fc:	4616      	mov	r6, r2
     7fe:	461c      	mov	r4, r3
    uint8_t cmd[] = { SPIFLASH_READ,
     800:	2303      	movs	r3, #3
     802:	f88d 3004 	strb.w	r3, [sp, #4]
        (uint8_t)(addr >> 16), (uint8_t)(addr >> 8), (uint8_t)(addr) };
     806:	f3c1 4307 	ubfx	r3, r1, #16, #8
    uint8_t cmd[] = { SPIFLASH_READ,
     80a:	f88d 3005 	strb.w	r3, [sp, #5]
        (uint8_t)(addr >> 16), (uint8_t)(addr >> 8), (uint8_t)(addr) };
     80e:	f3c1 2307 	ubfx	r3, r1, #8, #8
    uint8_t cmd[] = { SPIFLASH_READ,
     812:	f88d 3006 	strb.w	r3, [sp, #6]
     816:	f88d 1007 	strb.w	r1, [sp, #7]
    err = spiflash_wait_ready(dev, 100);
     81a:	2164      	movs	r1, #100	; 0x64
     81c:	f7ff ffe0 	bl	7e0 <spiflash_wait_ready>
    if (!err) {
     820:	b900      	cbnz	r0, 824 <hal_spiflash_read+0x2e>
        if (len > 0) {
     822:	b914      	cbnz	r4, 82a <hal_spiflash_read+0x34>
}
     824:	2000      	movs	r0, #0
     826:	b002      	add	sp, #8
     828:	bd70      	pop	{r4, r5, r6, pc}
    hal_gpio_write(dev->ss_pin, 0);
     82a:	2100      	movs	r1, #0
     82c:	6aa8      	ldr	r0, [r5, #40]	; 0x28
     82e:	f000 fa96 	bl	d5e <hal_gpio_write>
            hal_spi_txrx(dev->spi_num, cmd, NULL, sizeof cmd);
     832:	2304      	movs	r3, #4
     834:	2200      	movs	r2, #0
     836:	eb0d 0103 	add.w	r1, sp, r3
     83a:	6a28      	ldr	r0, [r5, #32]
     83c:	f000 fcda 	bl	11f4 <hal_spi_txrx>
            memset(buf, 0xFF, len);
     840:	4622      	mov	r2, r4
     842:	21ff      	movs	r1, #255	; 0xff
     844:	4630      	mov	r0, r6
     846:	f001 fac5 	bl	1dd4 <memset>
            hal_spi_txrx(dev->spi_num, buf, buf, len);
     84a:	4623      	mov	r3, r4
     84c:	4632      	mov	r2, r6
     84e:	4631      	mov	r1, r6
     850:	6a28      	ldr	r0, [r5, #32]
     852:	f000 fccf 	bl	11f4 <hal_spi_txrx>
    hal_gpio_write(dev->ss_pin, 1);
     856:	2101      	movs	r1, #1
     858:	6aa8      	ldr	r0, [r5, #40]	; 0x28
     85a:	f000 fa80 	bl	d5e <hal_gpio_write>
     85e:	e7e1      	b.n	824 <hal_spiflash_read+0x2e>

00000860 <spiflash_write_enable>:
{
     860:	b510      	push	{r4, lr}
     862:	4604      	mov	r4, r0
    hal_gpio_write(dev->ss_pin, 0);
     864:	2100      	movs	r1, #0
     866:	6a80      	ldr	r0, [r0, #40]	; 0x28
     868:	f000 fa79 	bl	d5e <hal_gpio_write>
    hal_spi_tx_val(dev->spi_num, cmd);
     86c:	2106      	movs	r1, #6
     86e:	6a20      	ldr	r0, [r4, #32]
     870:	f000 fc86 	bl	1180 <hal_spi_tx_val>
    hal_gpio_write(dev->ss_pin, 1);
     874:	2101      	movs	r1, #1
     876:	6aa0      	ldr	r0, [r4, #40]	; 0x28
     878:	f000 fa71 	bl	d5e <hal_gpio_write>
}
     87c:	2000      	movs	r0, #0
     87e:	bd10      	pop	{r4, pc}

00000880 <hal_spiflash_write>:
{
     880:	e92d 47f0 	stmdb	sp!, {r4, r5, r6, r7, r8, r9, sl, lr}
     884:	b082      	sub	sp, #8
     886:	4605      	mov	r5, r0
     888:	460e      	mov	r6, r1
     88a:	4690      	mov	r8, r2
     88c:	461f      	mov	r7, r3
    uint8_t cmd[4] = { SPIFLASH_PAGE_PROGRAM };
     88e:	2300      	movs	r3, #0
     890:	9301      	str	r3, [sp, #4]
     892:	2302      	movs	r3, #2
     894:	f88d 3004 	strb.w	r3, [sp, #4]
    if (spiflash_wait_ready(dev, 100) != 0) {
     898:	2164      	movs	r1, #100	; 0x64
     89a:	f7ff ffa1 	bl	7e0 <spiflash_wait_ready>
     89e:	2800      	cmp	r0, #0
     8a0:	d14a      	bne.n	938 <hal_spiflash_write+0xb8>
     8a2:	4603      	mov	r3, r0
    pp_time_typical = dev->characteristics->tbp1.typical;
     8a4:	6bea      	ldr	r2, [r5, #60]	; 0x3c
     8a6:	f8d2 9028 	ldr.w	r9, [r2, #40]	; 0x28
    pp_time_maximum = dev->characteristics->tpp.maximum;
     8aa:	f8d2 a024 	ldr.w	sl, [r2, #36]	; 0x24
    if (pp_time_maximum < pp_time_typical) {
     8ae:	45d1      	cmp	r9, sl
     8b0:	d840      	bhi.n	934 <hal_spiflash_write+0xb4>
    while (len) {
     8b2:	2f00      	cmp	r7, #0
     8b4:	d042      	beq.n	93c <hal_spiflash_write+0xbc>
        spiflash_write_enable(dev);
     8b6:	4628      	mov	r0, r5
     8b8:	f7ff ffd2 	bl	860 <spiflash_write_enable>
        cmd[1] = (uint8_t)(addr >> 16);
     8bc:	f3c6 4307 	ubfx	r3, r6, #16, #8
     8c0:	f88d 3005 	strb.w	r3, [sp, #5]
        cmd[2] = (uint8_t)(addr >> 8);
     8c4:	f3c6 2307 	ubfx	r3, r6, #8, #8
     8c8:	f88d 3006 	strb.w	r3, [sp, #6]
        cmd[3] = (uint8_t)(addr);
     8cc:	f88d 6007 	strb.w	r6, [sp, #7]
        page_limit = (addr & ~(dev->page_size - 1)) + dev->page_size;
     8d0:	8deb      	ldrh	r3, [r5, #46]	; 0x2e
     8d2:	425c      	negs	r4, r3
     8d4:	4034      	ands	r4, r6
     8d6:	441c      	add	r4, r3
        to_write = page_limit - addr > len ? len :  page_limit - addr;
     8d8:	1ba4      	subs	r4, r4, r6
     8da:	42bc      	cmp	r4, r7
     8dc:	bf28      	it	cs
     8de:	463c      	movcs	r4, r7
    hal_gpio_write(dev->ss_pin, 0);
     8e0:	2100      	movs	r1, #0
     8e2:	6aa8      	ldr	r0, [r5, #40]	; 0x28
     8e4:	f000 fa3b 	bl	d5e <hal_gpio_write>
        hal_spi_txrx(dev->spi_num, cmd, NULL, sizeof cmd);
     8e8:	2304      	movs	r3, #4
     8ea:	2200      	movs	r2, #0
     8ec:	eb0d 0103 	add.w	r1, sp, r3
     8f0:	6a28      	ldr	r0, [r5, #32]
     8f2:	f000 fc7f 	bl	11f4 <hal_spi_txrx>
        hal_spi_txrx(dev->spi_num, (void *)u8buf, NULL, to_write);
     8f6:	4623      	mov	r3, r4
     8f8:	2200      	movs	r2, #0
     8fa:	4641      	mov	r1, r8
     8fc:	6a28      	ldr	r0, [r5, #32]
     8fe:	f000 fc79 	bl	11f4 <hal_spi_txrx>
    hal_gpio_write(dev->ss_pin, 1);
     902:	2101      	movs	r1, #1
     904:	6aa8      	ldr	r0, [r5, #40]	; 0x28
     906:	f000 fa2a 	bl	d5e <hal_gpio_write>
        dev->ready = false;
     90a:	2300      	movs	r3, #0
     90c:	f885 3030 	strb.w	r3, [r5, #48]	; 0x30
        spiflash_delay_us(pp_time_typical);
     910:	4648      	mov	r0, r9
     912:	f7ff feec 	bl	6ee <spiflash_delay_us>
        rc = spiflash_wait_ready_till(dev, pp_time_maximum - pp_time_typical,
     916:	ebaa 0109 	sub.w	r1, sl, r9
     91a:	4a0a      	ldr	r2, [pc, #40]	; (944 <hal_spiflash_write+0xc4>)
     91c:	fba2 3201 	umull	r3, r2, r2, r1
     920:	08d2      	lsrs	r2, r2, #3
     922:	4628      	mov	r0, r5
     924:	f7ff ff34 	bl	790 <spiflash_wait_ready_till>
        if (rc) {
     928:	4603      	mov	r3, r0
     92a:	b938      	cbnz	r0, 93c <hal_spiflash_write+0xbc>
        addr += to_write;
     92c:	4426      	add	r6, r4
        u8buf += to_write;
     92e:	44a0      	add	r8, r4
        len -= to_write;
     930:	1b3f      	subs	r7, r7, r4
     932:	e7be      	b.n	8b2 <hal_spiflash_write+0x32>
        pp_time_maximum = pp_time_typical;
     934:	46ca      	mov	sl, r9
     936:	e7bc      	b.n	8b2 <hal_spiflash_write+0x32>
        rc = -1;
     938:	f04f 33ff 	mov.w	r3, #4294967295	; 0xffffffff
}
     93c:	4618      	mov	r0, r3
     93e:	b002      	add	sp, #8
     940:	e8bd 87f0 	ldmia.w	sp!, {r4, r5, r6, r7, r8, r9, sl, pc}
     944:	cccccccd 	.word	0xcccccccd

00000948 <spiflash_execute_erase>:
{
     948:	b5f8      	push	{r3, r4, r5, r6, r7, lr}
     94a:	4604      	mov	r4, r0
     94c:	460d      	mov	r5, r1
     94e:	4617      	mov	r7, r2
     950:	461e      	mov	r6, r3
    if (spiflash_wait_ready(dev, 100) != 0) {
     952:	2164      	movs	r1, #100	; 0x64
     954:	f7ff ff44 	bl	7e0 <spiflash_wait_ready>
     958:	bb68      	cbnz	r0, 9b6 <spiflash_execute_erase+0x6e>
    spiflash_write_enable(dev);
     95a:	4620      	mov	r0, r4
     95c:	f7ff ff80 	bl	860 <spiflash_write_enable>
    spiflash_read_status(dev);
     960:	4620      	mov	r0, r4
     962:	f7ff fef5 	bl	750 <spiflash_read_status>
    hal_gpio_write(dev->ss_pin, 0);
     966:	2100      	movs	r1, #0
     968:	6aa0      	ldr	r0, [r4, #40]	; 0x28
     96a:	f000 f9f8 	bl	d5e <hal_gpio_write>
    hal_spi_txrx(dev->spi_num, (void *)buf, NULL, size);
     96e:	463b      	mov	r3, r7
     970:	2200      	movs	r2, #0
     972:	4629      	mov	r1, r5
     974:	6a20      	ldr	r0, [r4, #32]
     976:	f000 fc3d 	bl	11f4 <hal_spi_txrx>
    hal_gpio_write(dev->ss_pin, 1);
     97a:	2101      	movs	r1, #1
     97c:	6aa0      	ldr	r0, [r4, #40]	; 0x28
     97e:	f000 f9ee 	bl	d5e <hal_gpio_write>
    dev->ready = false;
     982:	2300      	movs	r3, #0
     984:	f884 3030 	strb.w	r3, [r4, #48]	; 0x30
    start_time = os_cputime_get32();
     988:	f000 ff38 	bl	17fc <os_cputime_get32>
     98c:	4605      	mov	r5, r0
    spiflash_delay_us(delay_spec->typical);
     98e:	6830      	ldr	r0, [r6, #0]
     990:	f7ff fead 	bl	6ee <spiflash_delay_us>
    wait_time_us = os_cputime_ticks_to_usecs(os_cputime_get32() - start_time);
     994:	f000 ff32 	bl	17fc <os_cputime_get32>
     998:	1b40      	subs	r0, r0, r5
    if (wait_time_us > delay_spec->maximum) {
     99a:	6871      	ldr	r1, [r6, #4]
     99c:	4281      	cmp	r1, r0
     99e:	d308      	bcc.n	9b2 <spiflash_execute_erase+0x6a>
        wait_time_us = delay_spec->maximum - wait_time_us;
     9a0:	1a09      	subs	r1, r1, r0
    rc = spiflash_wait_ready_till(dev, wait_time_us, wait_time_us / 50);
     9a2:	4a06      	ldr	r2, [pc, #24]	; (9bc <spiflash_execute_erase+0x74>)
     9a4:	fba2 3201 	umull	r3, r2, r2, r1
     9a8:	0912      	lsrs	r2, r2, #4
     9aa:	4620      	mov	r0, r4
     9ac:	f7ff fef0 	bl	790 <spiflash_wait_ready_till>
}
     9b0:	bdf8      	pop	{r3, r4, r5, r6, r7, pc}
        wait_time_us = 0;
     9b2:	2100      	movs	r1, #0
     9b4:	e7f5      	b.n	9a2 <spiflash_execute_erase+0x5a>
        rc = -1;
     9b6:	f04f 30ff 	mov.w	r0, #4294967295	; 0xffffffff
    return rc;
     9ba:	e7f9      	b.n	9b0 <spiflash_execute_erase+0x68>
     9bc:	51eb851f 	.word	0x51eb851f

000009c0 <spiflash_erase_cmd>:

static int
spiflash_erase_cmd(struct spiflash_dev *dev, uint8_t cmd, uint32_t addr,
                   const struct spiflash_time_spec *time_spec)
{
     9c0:	b500      	push	{lr}
     9c2:	b083      	sub	sp, #12
    uint8_t buf[4] = { cmd, (uint8_t)(addr >> 16U), (uint8_t)(addr >> 8U),
     9c4:	f88d 1004 	strb.w	r1, [sp, #4]
     9c8:	f3c2 4107 	ubfx	r1, r2, #16, #8
     9cc:	f88d 1005 	strb.w	r1, [sp, #5]
     9d0:	f3c2 2107 	ubfx	r1, r2, #8, #8
     9d4:	f88d 1006 	strb.w	r1, [sp, #6]
     9d8:	f88d 2007 	strb.w	r2, [sp, #7]
                       (uint8_t)addr };
    return spiflash_execute_erase(dev, buf, sizeof(buf), time_spec);
     9dc:	2204      	movs	r2, #4
     9de:	eb0d 0102 	add.w	r1, sp, r2
     9e2:	f7ff ffb1 	bl	948 <spiflash_execute_erase>

}
     9e6:	b003      	add	sp, #12
     9e8:	f85d fb04 	ldr.w	pc, [sp], #4

000009ec <spiflash_sector_erase>:

int
spiflash_sector_erase(struct spiflash_dev *dev, uint32_t addr)
{
     9ec:	b508      	push	{r3, lr}
    return spiflash_erase_cmd(dev, SPIFLASH_SECTOR_ERASE, addr,
     9ee:	6bc3      	ldr	r3, [r0, #60]	; 0x3c
     9f0:	460a      	mov	r2, r1
     9f2:	2120      	movs	r1, #32
     9f4:	f7ff ffe4 	bl	9c0 <spiflash_erase_cmd>
                              &dev->characteristics->tse);
}
     9f8:	bd08      	pop	{r3, pc}

000009fa <hal_spiflash_erase_sector>:
{
     9fa:	b508      	push	{r3, lr}
    return spiflash_sector_erase(dev, addr);
     9fc:	f7ff fff6 	bl	9ec <spiflash_sector_erase>
}
     a00:	bd08      	pop	{r3, pc}

00000a02 <spiflash_block_32k_erase>:

#if MYNEWT_VAL(SPIFLASH_BLOCK_ERASE_32BK)
int
spiflash_block_32k_erase(struct spiflash_dev *dev, uint32_t addr)
{
     a02:	b508      	push	{r3, lr}
    return spiflash_erase_cmd(dev, SPIFLASH_BLOCK_ERASE_32KB, addr,
                              &dev->characteristics->tbe1);
     a04:	6bc3      	ldr	r3, [r0, #60]	; 0x3c
    return spiflash_erase_cmd(dev, SPIFLASH_BLOCK_ERASE_32KB, addr,
     a06:	3308      	adds	r3, #8
     a08:	460a      	mov	r2, r1
     a0a:	2152      	movs	r1, #82	; 0x52
     a0c:	f7ff ffd8 	bl	9c0 <spiflash_erase_cmd>
}
     a10:	bd08      	pop	{r3, pc}

00000a12 <spiflash_block_64k_erase>:
#endif

#if MYNEWT_VAL(SPIFLASH_BLOCK_ERASE_64BK)
int
spiflash_block_64k_erase(struct spiflash_dev *dev, uint32_t addr)
{
     a12:	b508      	push	{r3, lr}
    return spiflash_erase_cmd(dev, SPIFLASH_BLOCK_ERASE_64KB, addr,
                              &dev->characteristics->tbe2);
     a14:	6bc3      	ldr	r3, [r0, #60]	; 0x3c
    return spiflash_erase_cmd(dev, SPIFLASH_BLOCK_ERASE_64KB, addr,
     a16:	3310      	adds	r3, #16
     a18:	460a      	mov	r2, r1
     a1a:	21d8      	movs	r1, #216	; 0xd8
     a1c:	f7ff ffd0 	bl	9c0 <spiflash_erase_cmd>
}
     a20:	bd08      	pop	{r3, pc}

00000a22 <spiflash_chip_erase>:
#endif

int
spiflash_chip_erase(struct spiflash_dev *dev)
{
     a22:	b500      	push	{lr}
     a24:	b083      	sub	sp, #12
    uint8_t buf[1] = { SPIFLASH_CHIP_ERASE };
     a26:	a902      	add	r1, sp, #8
     a28:	2360      	movs	r3, #96	; 0x60
     a2a:	f801 3d04 	strb.w	r3, [r1, #-4]!

    return spiflash_execute_erase(dev, buf, sizeof(buf),
                                  &dev->characteristics->tce);
     a2e:	6bc3      	ldr	r3, [r0, #60]	; 0x3c
    return spiflash_execute_erase(dev, buf, sizeof(buf),
     a30:	3318      	adds	r3, #24
     a32:	2201      	movs	r2, #1
     a34:	f7ff ff88 	bl	948 <spiflash_execute_erase>
}
     a38:	b003      	add	sp, #12
     a3a:	f85d fb04 	ldr.w	pc, [sp], #4

00000a3e <spiflash_erase>:

int
spiflash_erase(struct spiflash_dev *dev, uint32_t address, uint32_t size)
{
     a3e:	b570      	push	{r4, r5, r6, lr}
     a40:	4606      	mov	r6, r0
     a42:	4615      	mov	r5, r2
    int rc = 0;

    if (address == 0 && size == dev->hal.hf_size) {
     a44:	460c      	mov	r4, r1
     a46:	b911      	cbnz	r1, a4e <spiflash_erase+0x10>
     a48:	6883      	ldr	r3, [r0, #8]
     a4a:	4293      	cmp	r3, r2
     a4c:	d005      	beq.n	a5a <spiflash_erase+0x1c>
        return spiflash_chip_erase(dev);
    }
    address &= ~0xFFFU;
     a4e:	f424 647f 	bic.w	r4, r4, #4080	; 0xff0
     a52:	f024 040f 	bic.w	r4, r4, #15
    int rc = 0;
     a56:	2300      	movs	r3, #0
    while (size) {
     a58:	e01c      	b.n	a94 <spiflash_erase+0x56>
        return spiflash_chip_erase(dev);
     a5a:	f7ff ffe2 	bl	a22 <spiflash_chip_erase>
     a5e:	4603      	mov	r3, r0
     a60:	e010      	b.n	a84 <spiflash_erase+0x46>
#if MYNEWT_VAL(SPIFLASH_BLOCK_ERASE_64BK)
        if ((address & 0xFFFFU) == 0 && (size >= 0x10000)) {
            /* 64 KB erase if possible */
            rc = spiflash_block_64k_erase(dev, address);
     a62:	4621      	mov	r1, r4
     a64:	4630      	mov	r0, r6
     a66:	f7ff ffd4 	bl	a12 <spiflash_block_64k_erase>
            if (rc) {
     a6a:	4603      	mov	r3, r0
     a6c:	b950      	cbnz	r0, a84 <spiflash_erase+0x46>
                goto err;
            }
            address += 0x10000;
     a6e:	f504 3480 	add.w	r4, r4, #65536	; 0x10000
            size -= 0x10000;
     a72:	f5a5 3580 	sub.w	r5, r5, #65536	; 0x10000
            continue;
     a76:	e00d      	b.n	a94 <spiflash_erase+0x56>
        }
#endif
#if MYNEWT_VAL(SPIFLASH_BLOCK_ERASE_32BK)
        if ((address & 0x7FFFU) == 0 && (size >= 0x8000)) {
            /* 32 KB erase if possible */
            rc = spiflash_block_32k_erase(dev, address);
     a78:	4621      	mov	r1, r4
     a7a:	4630      	mov	r0, r6
     a7c:	f7ff ffc1 	bl	a02 <spiflash_block_32k_erase>
            if (rc) {
     a80:	4603      	mov	r3, r0
     a82:	b108      	cbz	r0, a88 <spiflash_erase+0x4a>
            size = 0;
        }
    }
err:
    return rc;
}
     a84:	4618      	mov	r0, r3
     a86:	bd70      	pop	{r4, r5, r6, pc}
            address += 0x8000;
     a88:	f504 4400 	add.w	r4, r4, #32768	; 0x8000
            size -= 0x8000;
     a8c:	f5a5 4500 	sub.w	r5, r5, #32768	; 0x8000
            continue;
     a90:	e000      	b.n	a94 <spiflash_erase+0x56>
            size = 0;
     a92:	2500      	movs	r5, #0
    while (size) {
     a94:	2d00      	cmp	r5, #0
     a96:	d0f5      	beq.n	a84 <spiflash_erase+0x46>
        if ((address & 0xFFFFU) == 0 && (size >= 0x10000)) {
     a98:	b2a3      	uxth	r3, r4
     a9a:	b913      	cbnz	r3, aa2 <spiflash_erase+0x64>
     a9c:	f5b5 3f80 	cmp.w	r5, #65536	; 0x10000
     aa0:	d2df      	bcs.n	a62 <spiflash_erase+0x24>
        if ((address & 0x7FFFU) == 0 && (size >= 0x8000)) {
     aa2:	f3c4 030e 	ubfx	r3, r4, #0, #15
     aa6:	b913      	cbnz	r3, aae <spiflash_erase+0x70>
     aa8:	f5b5 4f00 	cmp.w	r5, #32768	; 0x8000
     aac:	d2e4      	bcs.n	a78 <spiflash_erase+0x3a>
        rc = spiflash_sector_erase(dev, address);
     aae:	4621      	mov	r1, r4
     ab0:	4630      	mov	r0, r6
     ab2:	f7ff ff9b 	bl	9ec <spiflash_sector_erase>
        if (rc) {
     ab6:	4603      	mov	r3, r0
     ab8:	2800      	cmp	r0, #0
     aba:	d1e3      	bne.n	a84 <spiflash_erase+0x46>
        address += MYNEWT_VAL(SPIFLASH_SECTOR_SIZE);
     abc:	f504 5480 	add.w	r4, r4, #4096	; 0x1000
        if (size > MYNEWT_VAL(SPIFLASH_SECTOR_SIZE)) {
     ac0:	f5b5 5f80 	cmp.w	r5, #4096	; 0x1000
     ac4:	d9e5      	bls.n	a92 <spiflash_erase+0x54>
            size -= MYNEWT_VAL(SPIFLASH_SECTOR_SIZE);
     ac6:	f5a5 5580 	sub.w	r5, r5, #4096	; 0x1000
     aca:	e7e3      	b.n	a94 <spiflash_erase+0x56>

00000acc <hal_spiflash_erase>:
{
     acc:	b508      	push	{r3, lr}
    return spiflash_erase(dev, address, size);
     ace:	f7ff ffb6 	bl	a3e <spiflash_erase>
}
     ad2:	bd08      	pop	{r3, pc}

00000ad4 <spiflash_identify>:

int
spiflash_identify(struct spiflash_dev *dev)
{
     ad4:	b570      	push	{r4, r5, r6, lr}
     ad6:	b082      	sub	sp, #8
     ad8:	4606      	mov	r6, r0
    int i;
    int j;
    uint8_t manufacturer = 0;
     ada:	2300      	movs	r3, #0
     adc:	f88d 3007 	strb.w	r3, [sp, #7]
    uint8_t memory_type = 0;
     ae0:	f88d 3006 	strb.w	r3, [sp, #6]
    uint8_t capacity = 0;
     ae4:	ac02      	add	r4, sp, #8
     ae6:	f804 3d03 	strb.w	r3, [r4, #-3]!

    spiflash_lock(dev);

    /* Only one chip specified, no need for search*/
    if ((sizeof(supported_chips) / sizeof(supported_chips[0])) == 2) {
        supported_chips[0].fc_release_power_down(dev);
     aea:	4d12      	ldr	r5, [pc, #72]	; (b34 <spiflash_identify+0x60>)
     aec:	686b      	ldr	r3, [r5, #4]
     aee:	4798      	blx	r3
        spiflash_read_jedec_id(dev, &manufacturer, &memory_type, &capacity);
     af0:	4623      	mov	r3, r4
     af2:	f10d 0206 	add.w	r2, sp, #6
     af6:	f10d 0107 	add.w	r1, sp, #7
     afa:	4630      	mov	r0, r6
     afc:	f7ff fdfb 	bl	6f6 <spiflash_read_jedec_id>
        /* If BSP defined SpiFlash manufacturer or memory type does not
         * match SpiFlash is most likely not connected, connected to
         * different pins, or of different type.
         * It is unlikely that flash depended packaged will work correctly.
         */
        assert(manufacturer == supported_chips[0].fc_jedec_id.ji_manufacturer &&
     b00:	782a      	ldrb	r2, [r5, #0]
     b02:	f89d 3007 	ldrb.w	r3, [sp, #7]
     b06:	429a      	cmp	r2, r3
     b08:	d10e      	bne.n	b28 <spiflash_identify+0x54>
     b0a:	786a      	ldrb	r2, [r5, #1]
     b0c:	f89d 3006 	ldrb.w	r3, [sp, #6]
     b10:	429a      	cmp	r2, r3
     b12:	d109      	bne.n	b28 <spiflash_identify+0x54>
     b14:	78aa      	ldrb	r2, [r5, #2]
     b16:	f89d 3005 	ldrb.w	r3, [sp, #5]
     b1a:	429a      	cmp	r2, r3
     b1c:	d104      	bne.n	b28 <spiflash_identify+0x54>
            memory_type != supported_chips[0].fc_jedec_id.ji_type ||
            capacity != supported_chips[0].fc_jedec_id.ji_capacity) {
            rc = -1;
            goto err;
        }
        dev->flash_chip = &supported_chips[0];
     b1e:	4b05      	ldr	r3, [pc, #20]	; (b34 <spiflash_identify+0x60>)
     b20:	63b3      	str	r3, [r6, #56]	; 0x38
    }
err:
    spiflash_unlock(dev);

    return rc;
}
     b22:	2000      	movs	r0, #0
     b24:	b002      	add	sp, #8
     b26:	bd70      	pop	{r4, r5, r6, pc}
        assert(manufacturer == supported_chips[0].fc_jedec_id.ji_manufacturer &&
     b28:	2300      	movs	r3, #0
     b2a:	461a      	mov	r2, r3
     b2c:	4619      	mov	r1, r3
     b2e:	4618      	mov	r0, r3
     b30:	f000 fdec 	bl	170c <__assert_func>
     b34:	20000128 	.word	0x20000128

00000b38 <hal_spiflash_init>:

static int
hal_spiflash_init(const struct hal_flash *hal_flash_dev)
{
     b38:	b510      	push	{r4, lr}
     b3a:	4604      	mov	r4, r0
    os_callout_init(&dev->apd_tmo_co, os_eventq_dflt_get(),
                    spiflash_apd_tmo_func, dev);
#endif

#if !MYNEWT_VAL(BUS_DRIVER_PRESENT)
    hal_gpio_init_out(dev->ss_pin, 1);
     b3c:	2101      	movs	r1, #1
     b3e:	6a80      	ldr	r0, [r0, #40]	; 0x28
     b40:	f000 f8f1 	bl	d26 <hal_gpio_init_out>

    (void)hal_spi_disable(dev->spi_num);
     b44:	6a20      	ldr	r0, [r4, #32]
     b46:	f000 fab7 	bl	10b8 <hal_spi_disable>

    rc = hal_spi_config(dev->spi_num, &dev->spi_settings);
     b4a:	f104 0118 	add.w	r1, r4, #24
     b4e:	6a20      	ldr	r0, [r4, #32]
     b50:	f000 fa70 	bl	1034 <hal_spi_config>
    if (rc) {
     b54:	4603      	mov	r3, r0
     b56:	b108      	cbz	r0, b5c <hal_spiflash_init+0x24>
    hal_spi_enable(dev->spi_num);
#endif
    rc = spiflash_identify(dev);

    return rc;
}
     b58:	4618      	mov	r0, r3
     b5a:	bd10      	pop	{r4, pc}
    hal_spi_set_txrx_cb(dev->spi_num, NULL, NULL);
     b5c:	2200      	movs	r2, #0
     b5e:	4611      	mov	r1, r2
     b60:	6a20      	ldr	r0, [r4, #32]
     b62:	f000 fb31 	bl	11c8 <hal_spi_set_txrx_cb>
    hal_spi_enable(dev->spi_num);
     b66:	6a20      	ldr	r0, [r4, #32]
     b68:	f000 fa80 	bl	106c <hal_spi_enable>
    rc = spiflash_identify(dev);
     b6c:	4620      	mov	r0, r4
     b6e:	f7ff ffb1 	bl	ad4 <spiflash_identify>
     b72:	4603      	mov	r3, r0
    return rc;
     b74:	e7f0      	b.n	b58 <hal_spiflash_init+0x20>

00000b76 <_exit>:

void _exit(int status);

void
_exit(int status)
{
     b76:	b508      	push	{r3, lr}
    hal_system_reset();
     b78:	f7ff fafc 	bl	174 <hal_system_reset>

00000b7c <nrf52k_flash_wait_ready>:
static int
nrf52k_flash_wait_ready(void)
{
    int i;

    for (i = 0; i < 100000; i++) {
     b7c:	2300      	movs	r3, #0
     b7e:	4a07      	ldr	r2, [pc, #28]	; (b9c <nrf52k_flash_wait_ready+0x20>)
     b80:	4293      	cmp	r3, r2
     b82:	dc06      	bgt.n	b92 <nrf52k_flash_wait_ready+0x16>
        if (NRF_NVMC->READY == NVMC_READY_READY_Ready) {
     b84:	4a06      	ldr	r2, [pc, #24]	; (ba0 <nrf52k_flash_wait_ready+0x24>)
     b86:	f8d2 2400 	ldr.w	r2, [r2, #1024]	; 0x400
     b8a:	2a01      	cmp	r2, #1
     b8c:	d004      	beq.n	b98 <nrf52k_flash_wait_ready+0x1c>
    for (i = 0; i < 100000; i++) {
     b8e:	3301      	adds	r3, #1
     b90:	e7f5      	b.n	b7e <nrf52k_flash_wait_ready+0x2>
            return 0;
        }
    }
    return -1;
     b92:	f04f 30ff 	mov.w	r0, #4294967295	; 0xffffffff
     b96:	4770      	bx	lr
            return 0;
     b98:	2000      	movs	r0, #0
}
     b9a:	4770      	bx	lr
     b9c:	0001869f 	.word	0x0001869f
     ba0:	4001e000 	.word	0x4001e000

00000ba4 <nrf52k_flash_erase_sector>:
    return rc;
}

static int
nrf52k_flash_erase_sector(const struct hal_flash *dev, uint32_t sector_address)
{
     ba4:	b538      	push	{r3, r4, r5, lr}
     ba6:	460d      	mov	r5, r1
    int sr;
    int rc = -1;

    if (nrf52k_flash_wait_ready()) {
     ba8:	f7ff ffe8 	bl	b7c <nrf52k_flash_wait_ready>
     bac:	b9f0      	cbnz	r0, bec <nrf52k_flash_erase_sector+0x48>
  __ASM volatile ("MRS %0, primask" : "=r" (result) :: "memory");
     bae:	f3ef 8410 	mrs	r4, PRIMASK
  __ASM volatile ("cpsid i" : : : "memory");
     bb2:	b672      	cpsid	i
        return -1;
    }
    __HAL_DISABLE_INTERRUPTS(sr);
    NRF_NVMC->CONFIG = NVMC_CONFIG_WEN_Een; /* Enable erase OP */
     bb4:	4b0f      	ldr	r3, [pc, #60]	; (bf4 <nrf52k_flash_erase_sector+0x50>)
     bb6:	2202      	movs	r2, #2
     bb8:	f8c3 2504 	str.w	r2, [r3, #1284]	; 0x504
    if (nrf52k_flash_wait_ready()) {
     bbc:	f7ff ffde 	bl	b7c <nrf52k_flash_wait_ready>
     bc0:	b148      	cbz	r0, bd6 <nrf52k_flash_erase_sector+0x32>
    int rc = -1;
     bc2:	f04f 33ff 	mov.w	r3, #4294967295	; 0xffffffff
    if (nrf52k_flash_wait_ready()) {
        goto out;
    }
    rc = 0;
out:
    NRF_NVMC->CONFIG = NVMC_CONFIG_WEN_Ren; /* Disable erase OP */
     bc6:	4a0b      	ldr	r2, [pc, #44]	; (bf4 <nrf52k_flash_erase_sector+0x50>)
     bc8:	2100      	movs	r1, #0
     bca:	f8c2 1504 	str.w	r1, [r2, #1284]	; 0x504
    __HAL_ENABLE_INTERRUPTS(sr);
     bce:	b904      	cbnz	r4, bd2 <nrf52k_flash_erase_sector+0x2e>
  __ASM volatile ("cpsie i" : : : "memory");
     bd0:	b662      	cpsie	i
    return rc;
}
     bd2:	4618      	mov	r0, r3
     bd4:	bd38      	pop	{r3, r4, r5, pc}
    NRF_NVMC->ERASEPAGE = sector_address;
     bd6:	4b07      	ldr	r3, [pc, #28]	; (bf4 <nrf52k_flash_erase_sector+0x50>)
     bd8:	f8c3 5508 	str.w	r5, [r3, #1288]	; 0x508
    if (nrf52k_flash_wait_ready()) {
     bdc:	f7ff ffce 	bl	b7c <nrf52k_flash_wait_ready>
     be0:	4603      	mov	r3, r0
     be2:	2800      	cmp	r0, #0
     be4:	d0ef      	beq.n	bc6 <nrf52k_flash_erase_sector+0x22>
    int rc = -1;
     be6:	f04f 33ff 	mov.w	r3, #4294967295	; 0xffffffff
     bea:	e7ec      	b.n	bc6 <nrf52k_flash_erase_sector+0x22>
        return -1;
     bec:	f04f 33ff 	mov.w	r3, #4294967295	; 0xffffffff
     bf0:	e7ef      	b.n	bd2 <nrf52k_flash_erase_sector+0x2e>
     bf2:	bf00      	nop
     bf4:	4001e000 	.word	0x4001e000

00000bf8 <nrf52k_flash_init>:

static int
nrf52k_flash_init(const struct hal_flash *dev)
{
    return 0;
}
     bf8:	2000      	movs	r0, #0
     bfa:	4770      	bx	lr

00000bfc <nrf52k_flash_sector_info>:
    assert(idx < nrf52k_flash_dev.hf_sector_cnt);
     bfc:	297f      	cmp	r1, #127	; 0x7f
     bfe:	dc06      	bgt.n	c0e <nrf52k_flash_sector_info+0x12>
    *address = idx * NRF52K_FLASH_SECTOR_SZ;
     c00:	0309      	lsls	r1, r1, #12
     c02:	6011      	str	r1, [r2, #0]
    *sz = NRF52K_FLASH_SECTOR_SZ;
     c04:	f44f 5280 	mov.w	r2, #4096	; 0x1000
     c08:	601a      	str	r2, [r3, #0]
}
     c0a:	2000      	movs	r0, #0
     c0c:	4770      	bx	lr
{
     c0e:	b508      	push	{r3, lr}
    assert(idx < nrf52k_flash_dev.hf_sector_cnt);
     c10:	2300      	movs	r3, #0
     c12:	461a      	mov	r2, r3
     c14:	4619      	mov	r1, r3
     c16:	4618      	mov	r0, r3
     c18:	f000 fd78 	bl	170c <__assert_func>

00000c1c <nrf52k_flash_write>:
{
     c1c:	e92d 47f0 	stmdb	sp!, {r4, r5, r6, r7, r8, r9, sl, lr}
     c20:	b082      	sub	sp, #8
     c22:	460d      	mov	r5, r1
     c24:	4616      	mov	r6, r2
     c26:	461c      	mov	r4, r3
    if (nrf52k_flash_wait_ready()) {
     c28:	f7ff ffa8 	bl	b7c <nrf52k_flash_wait_ready>
     c2c:	2800      	cmp	r0, #0
     c2e:	d158      	bne.n	ce2 <nrf52k_flash_write+0xc6>
  __ASM volatile ("MRS %0, primask" : "=r" (result) :: "memory");
     c30:	f3ef 8710 	mrs	r7, PRIMASK
  __ASM volatile ("cpsid i" : : : "memory");
     c34:	b672      	cpsid	i
    NRF_NVMC->CONFIG = NVMC_CONFIG_WEN_Wen; /* Enable erase OP */
     c36:	4b2c      	ldr	r3, [pc, #176]	; (ce8 <nrf52k_flash_write+0xcc>)
     c38:	2201      	movs	r2, #1
     c3a:	f8c3 2504 	str.w	r2, [r3, #1284]	; 0x504
    if (tmp) {
     c3e:	f015 0803 	ands.w	r8, r5, #3
     c42:	d10b      	bne.n	c5c <nrf52k_flash_write+0x40>
    while (num_bytes >= sizeof(uint32_t)) {
     c44:	2c03      	cmp	r4, #3
     c46:	d925      	bls.n	c94 <nrf52k_flash_write+0x78>
        if (nrf52k_flash_wait_ready()) {
     c48:	f7ff ff98 	bl	b7c <nrf52k_flash_wait_ready>
     c4c:	2800      	cmp	r0, #0
     c4e:	d139      	bne.n	cc4 <nrf52k_flash_write+0xa8>
        *(uint32_t *)address = *(uint32_t *)src;
     c50:	f856 3b04 	ldr.w	r3, [r6], #4
     c54:	f845 3b04 	str.w	r3, [r5], #4
        num_bytes -= sizeof(uint32_t);
     c58:	3c04      	subs	r4, #4
     c5a:	e7f3      	b.n	c44 <nrf52k_flash_write+0x28>
        if (nrf52k_flash_wait_ready()) {
     c5c:	f7ff ff8e 	bl	b7c <nrf52k_flash_wait_ready>
     c60:	bb68      	cbnz	r0, cbe <nrf52k_flash_write+0xa2>
        val = *(uint32_t *)(address & ~0x3);
     c62:	f025 0a03 	bic.w	sl, r5, #3
     c66:	f8da 3000 	ldr.w	r3, [sl]
     c6a:	9301      	str	r3, [sp, #4]
        cnt = 4 - tmp;
     c6c:	f1c8 0904 	rsb	r9, r8, #4
        if (cnt > num_bytes) {
     c70:	45a1      	cmp	r9, r4
     c72:	d900      	bls.n	c76 <nrf52k_flash_write+0x5a>
            cnt = num_bytes;
     c74:	46a1      	mov	r9, r4
        memcpy((uint8_t *)&val + tmp, src, cnt);
     c76:	464a      	mov	r2, r9
     c78:	4631      	mov	r1, r6
     c7a:	ab01      	add	r3, sp, #4
     c7c:	eb03 0008 	add.w	r0, r3, r8
     c80:	f001 f89b 	bl	1dba <memcpy>
        *(uint32_t *)(address & ~0x3) = val;
     c84:	9b01      	ldr	r3, [sp, #4]
     c86:	f8ca 3000 	str.w	r3, [sl]
        address += cnt;
     c8a:	444d      	add	r5, r9
        num_bytes -= cnt;
     c8c:	eba4 0409 	sub.w	r4, r4, r9
        src += cnt;
     c90:	444e      	add	r6, r9
     c92:	e7d7      	b.n	c44 <nrf52k_flash_write+0x28>
    if (num_bytes) {
     c94:	b164      	cbz	r4, cb0 <nrf52k_flash_write+0x94>
        val = *(uint32_t *)address;
     c96:	682b      	ldr	r3, [r5, #0]
     c98:	a802      	add	r0, sp, #8
     c9a:	f840 3d04 	str.w	r3, [r0, #-4]!
        memcpy(&val, src, num_bytes);
     c9e:	4622      	mov	r2, r4
     ca0:	4631      	mov	r1, r6
     ca2:	f001 f88a 	bl	1dba <memcpy>
        if (nrf52k_flash_wait_ready()) {
     ca6:	f7ff ff69 	bl	b7c <nrf52k_flash_wait_ready>
     caa:	b9b8      	cbnz	r0, cdc <nrf52k_flash_write+0xc0>
        *(uint32_t *)address = val;
     cac:	9b01      	ldr	r3, [sp, #4]
     cae:	602b      	str	r3, [r5, #0]
    if (nrf52k_flash_wait_ready()) {
     cb0:	f7ff ff64 	bl	b7c <nrf52k_flash_wait_ready>
     cb4:	4603      	mov	r3, r0
     cb6:	b138      	cbz	r0, cc8 <nrf52k_flash_write+0xac>
        rc = -1;
     cb8:	f04f 33ff 	mov.w	r3, #4294967295	; 0xffffffff
     cbc:	e004      	b.n	cc8 <nrf52k_flash_write+0xac>
    int rc = -1;
     cbe:	f04f 33ff 	mov.w	r3, #4294967295	; 0xffffffff
     cc2:	e001      	b.n	cc8 <nrf52k_flash_write+0xac>
     cc4:	f04f 33ff 	mov.w	r3, #4294967295	; 0xffffffff
    NRF_NVMC->CONFIG = NVMC_CONFIG_WEN_Ren;
     cc8:	4a07      	ldr	r2, [pc, #28]	; (ce8 <nrf52k_flash_write+0xcc>)
     cca:	2100      	movs	r1, #0
     ccc:	f8c2 1504 	str.w	r1, [r2, #1284]	; 0x504
    __HAL_ENABLE_INTERRUPTS(sr);
     cd0:	b907      	cbnz	r7, cd4 <nrf52k_flash_write+0xb8>
  __ASM volatile ("cpsie i" : : : "memory");
     cd2:	b662      	cpsie	i
}
     cd4:	4618      	mov	r0, r3
     cd6:	b002      	add	sp, #8
     cd8:	e8bd 87f0 	ldmia.w	sp!, {r4, r5, r6, r7, r8, r9, sl, pc}
    int rc = -1;
     cdc:	f04f 33ff 	mov.w	r3, #4294967295	; 0xffffffff
     ce0:	e7f2      	b.n	cc8 <nrf52k_flash_write+0xac>
        return -1;
     ce2:	f04f 33ff 	mov.w	r3, #4294967295	; 0xffffffff
     ce6:	e7f5      	b.n	cd4 <nrf52k_flash_write+0xb8>
     ce8:	4001e000 	.word	0x4001e000

00000cec <nrf52k_flash_read>:
{
     cec:	b508      	push	{r3, lr}
     cee:	4610      	mov	r0, r2
    memcpy(dst, (void *)address, num_bytes);
     cf0:	461a      	mov	r2, r3
     cf2:	f001 f862 	bl	1dba <memcpy>
}
     cf6:	2000      	movs	r0, #0
     cf8:	bd08      	pop	{r3, pc}

00000cfa <hal_gpio_init_in>:
{
    uint32_t conf;
    NRF_GPIO_Type *port;
    int pin_index = HAL_GPIO_INDEX(pin);

    switch (pull) {
     cfa:	2901      	cmp	r1, #1
     cfc:	d003      	beq.n	d06 <hal_gpio_init_in+0xc>
     cfe:	2902      	cmp	r1, #2
     d00:	d00f      	beq.n	d22 <hal_gpio_init_in+0x28>
    case HAL_GPIO_PULL_DOWN:
        conf = GPIO_PIN_CNF_PULL_Pulldown << GPIO_PIN_CNF_PULL_Pos;
        break;
    case HAL_GPIO_PULL_NONE:
    default:
        conf = 0;
     d02:	2100      	movs	r1, #0
        break;
     d04:	e000      	b.n	d08 <hal_gpio_init_in+0xe>
        conf = GPIO_PIN_CNF_PULL_Pullup << GPIO_PIN_CNF_PULL_Pos;
     d06:	210c      	movs	r1, #12
    }

    port = HAL_GPIO_PORT(pin);
    port->PIN_CNF[pin_index] = conf;
     d08:	f04f 42a0 	mov.w	r2, #1342177280	; 0x50000000
     d0c:	f500 73e0 	add.w	r3, r0, #448	; 0x1c0
     d10:	f842 1023 	str.w	r1, [r2, r3, lsl #2]
    port->DIRCLR = HAL_GPIO_MASK(pin);
     d14:	2301      	movs	r3, #1
     d16:	fa03 f000 	lsl.w	r0, r3, r0
     d1a:	f8c2 051c 	str.w	r0, [r2, #1308]	; 0x51c

    return 0;
}
     d1e:	2000      	movs	r0, #0
     d20:	4770      	bx	lr
        conf = GPIO_PIN_CNF_PULL_Pulldown << GPIO_PIN_CNF_PULL_Pos;
     d22:	2104      	movs	r1, #4
     d24:	e7f0      	b.n	d08 <hal_gpio_init_in+0xe>

00000d26 <hal_gpio_init_out>:
{
    NRF_GPIO_Type *port;
    int pin_index = HAL_GPIO_INDEX(pin);

    port = HAL_GPIO_PORT(pin);
    if (val) {
     d26:	b999      	cbnz	r1, d50 <hal_gpio_init_out+0x2a>
        port->OUTSET = HAL_GPIO_MASK(pin);
    } else {
        port->OUTCLR = HAL_GPIO_MASK(pin);
     d28:	2301      	movs	r3, #1
     d2a:	4083      	lsls	r3, r0
     d2c:	f04f 42a0 	mov.w	r2, #1342177280	; 0x50000000
     d30:	f8c2 350c 	str.w	r3, [r2, #1292]	; 0x50c
    }
    port->PIN_CNF[pin_index] = GPIO_PIN_CNF_DIR_Output |
     d34:	f04f 42a0 	mov.w	r2, #1342177280	; 0x50000000
     d38:	f500 73e0 	add.w	r3, r0, #448	; 0x1c0
     d3c:	2103      	movs	r1, #3
     d3e:	f842 1023 	str.w	r1, [r2, r3, lsl #2]
        (GPIO_PIN_CNF_INPUT_Disconnect << GPIO_PIN_CNF_INPUT_Pos);
    port->DIRSET = HAL_GPIO_MASK(pin);
     d42:	2301      	movs	r3, #1
     d44:	fa03 f000 	lsl.w	r0, r3, r0
     d48:	f8c2 0518 	str.w	r0, [r2, #1304]	; 0x518

    return 0;
}
     d4c:	2000      	movs	r0, #0
     d4e:	4770      	bx	lr
        port->OUTSET = HAL_GPIO_MASK(pin);
     d50:	2301      	movs	r3, #1
     d52:	4083      	lsls	r3, r0
     d54:	f04f 42a0 	mov.w	r2, #1342177280	; 0x50000000
     d58:	f8c2 3508 	str.w	r3, [r2, #1288]	; 0x508
     d5c:	e7ea      	b.n	d34 <hal_gpio_init_out+0xe>

00000d5e <hal_gpio_write>:
hal_gpio_write(int pin, int val)
{
    NRF_GPIO_Type *port;

    port = HAL_GPIO_PORT(pin);
    if (val) {
     d5e:	b939      	cbnz	r1, d70 <hal_gpio_write+0x12>
        port->OUTSET = HAL_GPIO_MASK(pin);
    } else {
        port->OUTCLR = HAL_GPIO_MASK(pin);
     d60:	2301      	movs	r3, #1
     d62:	fa03 f000 	lsl.w	r0, r3, r0
     d66:	f04f 43a0 	mov.w	r3, #1342177280	; 0x50000000
     d6a:	f8c3 050c 	str.w	r0, [r3, #1292]	; 0x50c
    }
}
     d6e:	4770      	bx	lr
        port->OUTSET = HAL_GPIO_MASK(pin);
     d70:	2301      	movs	r3, #1
     d72:	fa03 f000 	lsl.w	r0, r3, r0
     d76:	f04f 43a0 	mov.w	r3, #1342177280	; 0x50000000
     d7a:	f8c3 0508 	str.w	r0, [r3, #1288]	; 0x508
     d7e:	4770      	bx	lr

00000d80 <hal_gpio_read>:
hal_gpio_read(int pin)
{
    NRF_GPIO_Type *port;
    port = HAL_GPIO_PORT(pin);

    return (port->DIR & HAL_GPIO_MASK(pin)) ?
     d80:	f04f 43a0 	mov.w	r3, #1342177280	; 0x50000000
     d84:	f8d3 2514 	ldr.w	r2, [r3, #1300]	; 0x514
     d88:	2301      	movs	r3, #1
     d8a:	4083      	lsls	r3, r0
        (port->OUT >> HAL_GPIO_INDEX(pin)) & 1UL :
     d8c:	421a      	tst	r2, r3
     d8e:	d108      	bne.n	da2 <hal_gpio_read+0x22>
        (port->IN >> HAL_GPIO_INDEX(pin)) & 1UL;
     d90:	f04f 43a0 	mov.w	r3, #1342177280	; 0x50000000
     d94:	f8d3 3510 	ldr.w	r3, [r3, #1296]	; 0x510
     d98:	fa23 f000 	lsr.w	r0, r3, r0
        (port->OUT >> HAL_GPIO_INDEX(pin)) & 1UL :
     d9c:	f000 0001 	and.w	r0, r0, #1
}
     da0:	4770      	bx	lr
        (port->OUT >> HAL_GPIO_INDEX(pin)) & 1UL :
     da2:	f04f 43a0 	mov.w	r3, #1342177280	; 0x50000000
     da6:	f8d3 3504 	ldr.w	r3, [r3, #1284]	; 0x504
     daa:	fa23 f000 	lsr.w	r0, r3, r0
     dae:	f000 0001 	and.w	r0, r0, #1
     db2:	4770      	bx	lr

00000db4 <nrf52_irqm_handler>:
    }

#if (MYNEWT_VAL(SPI_0_MASTER) || MYNEWT_VAL(SPI_1_MASTER) || MYNEWT_VAL(SPI_2_MASTER))
static void
nrf52_irqm_handler(struct nrf52_hal_spi *spi)
{
     db4:	b538      	push	{r3, r4, r5, lr}
    NRF_SPIM_Type *spim;
    uint16_t xfr_bytes;
    uint16_t len;

    spim = spi->nhs_spi.spim;
     db6:	6905      	ldr	r5, [r0, #16]
    if (spim->EVENTS_END) {
     db8:	f8d5 3118 	ldr.w	r3, [r5, #280]	; 0x118
     dbc:	b32b      	cbz	r3, e0a <nrf52_irqm_handler+0x56>
        spim->EVENTS_END = 0;
     dbe:	2300      	movs	r3, #0
     dc0:	f8c5 3118 	str.w	r3, [r5, #280]	; 0x118

        /* Should not occur but if no transfer just leave  */
        if (spi->spi_xfr_flag == 0) {
     dc4:	7843      	ldrb	r3, [r0, #1]
     dc6:	b303      	cbz	r3, e0a <nrf52_irqm_handler+0x56>
            return;
        }

        /* Are there more bytes to send? */
        xfr_bytes = spim->TXD.AMOUNT;
     dc8:	f8d5 254c 	ldr.w	r2, [r5, #1356]	; 0x54c
        spi->nhs_bytes_txd += xfr_bytes;
     dcc:	88c3      	ldrh	r3, [r0, #6]
     dce:	fa13 f382 	uxtah	r3, r3, r2
     dd2:	b29b      	uxth	r3, r3
     dd4:	80c3      	strh	r3, [r0, #6]
        if (spi->nhs_bytes_txd < spi->nhs_buflen) {
     dd6:	8881      	ldrh	r1, [r0, #4]
     dd8:	428b      	cmp	r3, r1
     dda:	d217      	bcs.n	e0c <nrf52_irqm_handler+0x58>
     ddc:	b292      	uxth	r2, r2
            spi->nhs_txbuf += xfr_bytes;
     dde:	6984      	ldr	r4, [r0, #24]
     de0:	4414      	add	r4, r2
     de2:	6184      	str	r4, [r0, #24]
            len = spi->nhs_buflen - spi->nhs_bytes_txd;
     de4:	1acb      	subs	r3, r1, r3
     de6:	b29b      	uxth	r3, r3
            len = min(SPIM_TXD_MAXCNT_MAX, len);
     de8:	2bff      	cmp	r3, #255	; 0xff
     dea:	bf28      	it	cs
     dec:	23ff      	movcs	r3, #255	; 0xff
            spim->TXD.PTR = (uint32_t)spi->nhs_txbuf;
     dee:	f8c5 4544 	str.w	r4, [r5, #1348]	; 0x544
            spim->TXD.MAXCNT = len;
     df2:	f8c5 3548 	str.w	r3, [r5, #1352]	; 0x548

            /* If no rxbuf, we need to set rxbuf and maxcnt to 1 */
            if (spi->nhs_rxbuf) {
     df6:	69c1      	ldr	r1, [r0, #28]
     df8:	b129      	cbz	r1, e06 <nrf52_irqm_handler+0x52>
                spi->nhs_rxbuf += xfr_bytes;
     dfa:	440a      	add	r2, r1
     dfc:	61c2      	str	r2, [r0, #28]
                spim->RXD.PTR    = (uint32_t)spi->nhs_rxbuf;
     dfe:	f8c5 2534 	str.w	r2, [r5, #1332]	; 0x534
                spim->RXD.MAXCNT = len;
     e02:	f8c5 3538 	str.w	r3, [r5, #1336]	; 0x538
            }
            spim->TASKS_START = 1;
     e06:	2301      	movs	r3, #1
     e08:	612b      	str	r3, [r5, #16]
            }
            spi->spi_xfr_flag = 0;
            spim->INTENCLR = SPIM_INTENSET_END_Msk;
        }
    }
}
     e0a:	bd38      	pop	{r3, r4, r5, pc}
     e0c:	4604      	mov	r4, r0
            if (spi->txrx_cb_func) {
     e0e:	6a03      	ldr	r3, [r0, #32]
     e10:	b10b      	cbz	r3, e16 <nrf52_irqm_handler+0x62>
                spi->txrx_cb_func(spi->txrx_cb_arg, spi->nhs_buflen);
     e12:	6a40      	ldr	r0, [r0, #36]	; 0x24
     e14:	4798      	blx	r3
            spi->spi_xfr_flag = 0;
     e16:	2300      	movs	r3, #0
     e18:	7063      	strb	r3, [r4, #1]
            spim->INTENCLR = SPIM_INTENSET_END_Msk;
     e1a:	2340      	movs	r3, #64	; 0x40
     e1c:	f8c5 3308 	str.w	r3, [r5, #776]	; 0x308
     e20:	e7f3      	b.n	e0a <nrf52_irqm_handler+0x56>
	...

00000e24 <nrf52_spi0_irq_handler>:

/* Interrupt handlers for SPI ports */
#if MYNEWT_VAL(SPI_0_MASTER) || MYNEWT_VAL(SPI_0_SLAVE)
void
nrf52_spi0_irq_handler(void)
{
     e24:	b508      	push	{r3, lr}
    os_trace_isr_enter();
    if (nrf52_hal_spi0.spi_type == HAL_SPI_TYPE_MASTER) {
     e26:	4b04      	ldr	r3, [pc, #16]	; (e38 <nrf52_spi0_irq_handler+0x14>)
     e28:	781b      	ldrb	r3, [r3, #0]
     e2a:	b103      	cbz	r3, e2e <nrf52_spi0_irq_handler+0xa>
#if MYNEWT_VAL(SPI_0_SLAVE)
        nrf52_irqs_handler(&nrf52_hal_spi0);
#endif
    }
    os_trace_isr_exit();
}
     e2c:	bd08      	pop	{r3, pc}
        nrf52_irqm_handler(&nrf52_hal_spi0);
     e2e:	4802      	ldr	r0, [pc, #8]	; (e38 <nrf52_spi0_irq_handler+0x14>)
     e30:	f7ff ffc0 	bl	db4 <nrf52_irqm_handler>
}
     e34:	e7fa      	b.n	e2c <nrf52_spi0_irq_handler+0x8>
     e36:	bf00      	nop
     e38:	200063bc 	.word	0x200063bc

00000e3c <hal_spi_stop_transfer>:
#endif

static void
hal_spi_stop_transfer(NRF_SPIM_Type *spim)
{
    spim->TASKS_STOP = 1;
     e3c:	2301      	movs	r3, #1
     e3e:	6143      	str	r3, [r0, #20]
    while (!spim->EVENTS_STOPPED) {}
     e40:	f8d0 3104 	ldr.w	r3, [r0, #260]	; 0x104
     e44:	2b00      	cmp	r3, #0
     e46:	d0fb      	beq.n	e40 <hal_spi_stop_transfer+0x4>
    spim->EVENTS_STOPPED = 0;
     e48:	2300      	movs	r3, #0
     e4a:	f8c0 3104 	str.w	r3, [r0, #260]	; 0x104
}
     e4e:	4770      	bx	lr

00000e50 <hal_spi_config_slave>:
}

static int
hal_spi_config_slave(struct nrf52_hal_spi *spi,
                     struct hal_spi_settings *settings)
{
     e50:	b410      	push	{r4}
    int rc;
    uint32_t nrf_config;
    NRF_SPIS_Type *spis;

    spis = spi->nhs_spi.spis;
     e52:	6902      	ldr	r2, [r0, #16]

    rc = 0;
    switch (settings->data_mode) {
     e54:	780b      	ldrb	r3, [r1, #0]
     e56:	2b03      	cmp	r3, #3
     e58:	d80c      	bhi.n	e74 <hal_spi_config_slave+0x24>
     e5a:	e8df f003 	tbb	[pc, r3]
     e5e:	0e02      	.short	0x0e02
     e60:	0805      	.short	0x0805
        case HAL_SPI_MODE0:
            nrf_config = (SPIS_CONFIG_CPOL_ActiveHigh << SPIS_CONFIG_CPOL_Pos) |
     e62:	2300      	movs	r3, #0
    rc = 0;
     e64:	4618      	mov	r0, r3
     e66:	e00a      	b.n	e7e <hal_spi_config_slave+0x2e>
        case HAL_SPI_MODE1:
            nrf_config = (SPIS_CONFIG_CPOL_ActiveHigh << SPIS_CONFIG_CPOL_Pos) |
                         (SPIS_CONFIG_CPHA_Trailing << SPIS_CONFIG_CPHA_Pos);
            break;
        case HAL_SPI_MODE2:
            nrf_config = (SPIS_CONFIG_CPOL_ActiveLow << SPIS_CONFIG_CPOL_Pos) |
     e68:	2304      	movs	r3, #4
    rc = 0;
     e6a:	2000      	movs	r0, #0
                         (SPIS_CONFIG_CPHA_Leading << SPIS_CONFIG_CPHA_Pos);
            break;
     e6c:	e007      	b.n	e7e <hal_spi_config_slave+0x2e>
        case HAL_SPI_MODE3:
            nrf_config = (SPIS_CONFIG_CPOL_ActiveLow << SPIS_CONFIG_CPOL_Pos) |
     e6e:	2306      	movs	r3, #6
    rc = 0;
     e70:	2000      	movs	r0, #0
                         (SPIS_CONFIG_CPHA_Trailing << SPIS_CONFIG_CPHA_Pos);
            break;
     e72:	e004      	b.n	e7e <hal_spi_config_slave+0x2e>
        default:
            nrf_config = 0;
     e74:	2300      	movs	r3, #0
            rc = EINVAL;
     e76:	2016      	movs	r0, #22
            break;
     e78:	e001      	b.n	e7e <hal_spi_config_slave+0x2e>
            nrf_config = (SPIS_CONFIG_CPOL_ActiveHigh << SPIS_CONFIG_CPOL_Pos) |
     e7a:	2302      	movs	r3, #2
    rc = 0;
     e7c:	2000      	movs	r0, #0
    }

    if (settings->data_order == HAL_SPI_LSB_FIRST) {
     e7e:	784c      	ldrb	r4, [r1, #1]
     e80:	2c01      	cmp	r4, #1
     e82:	d005      	beq.n	e90 <hal_spi_config_slave+0x40>
        nrf_config |= SPIS_CONFIG_ORDER_LsbFirst;
    }
    spis->CONFIG = nrf_config;
     e84:	f8c2 3554 	str.w	r3, [r2, #1364]	; 0x554

    /* Only 8-bit word sizes supported. */
    switch (settings->word_size) {
     e88:	788b      	ldrb	r3, [r1, #2]
     e8a:	b923      	cbnz	r3, e96 <hal_spi_config_slave+0x46>
            rc = EINVAL;
            break;
    }

    return rc;
}
     e8c:	bc10      	pop	{r4}
     e8e:	4770      	bx	lr
        nrf_config |= SPIS_CONFIG_ORDER_LsbFirst;
     e90:	f043 0301 	orr.w	r3, r3, #1
     e94:	e7f6      	b.n	e84 <hal_spi_config_slave+0x34>
            rc = EINVAL;
     e96:	2016      	movs	r0, #22
    return rc;
     e98:	e7f8      	b.n	e8c <hal_spi_config_slave+0x3c>
	...

00000e9c <hal_spi_init_master>:

static int
hal_spi_init_master(struct nrf52_hal_spi *spi,
                    struct nrf52_hal_spi_cfg *cfg,
                    nrf52_spi_irq_handler_t handler)
{
     e9c:	b430      	push	{r4, r5}
    NRF_GPIO_Type *port;
    uint32_t pin;

    /*  Configure MOSI */
    port = HAL_GPIO_PORT(cfg->mosi_pin);
    pin = HAL_GPIO_INDEX(cfg->mosi_pin);
     e9e:	784b      	ldrb	r3, [r1, #1]
    port->OUTCLR = (1UL << pin);
     ea0:	2501      	movs	r5, #1
     ea2:	409d      	lsls	r5, r3
     ea4:	f04f 44a0 	mov.w	r4, #1342177280	; 0x50000000
     ea8:	f8c4 550c 	str.w	r5, [r4, #1292]	; 0x50c
    port->PIN_CNF[pin] =
     eac:	f503 73e0 	add.w	r3, r3, #448	; 0x1c0
     eb0:	2503      	movs	r5, #3
     eb2:	f844 5023 	str.w	r5, [r4, r3, lsl #2]
        ((uint32_t)GPIO_PIN_CNF_DIR_Output << GPIO_PIN_CNF_DIR_Pos) |
        ((uint32_t)GPIO_PIN_CNF_INPUT_Disconnect << GPIO_PIN_CNF_INPUT_Pos);

    /* Configure MISO */
    port = HAL_GPIO_PORT(cfg->miso_pin);
    pin = HAL_GPIO_INDEX(cfg->miso_pin);
     eb6:	788b      	ldrb	r3, [r1, #2]
    port->PIN_CNF[pin] =
     eb8:	f503 73e0 	add.w	r3, r3, #448	; 0x1c0
     ebc:	2500      	movs	r5, #0
     ebe:	f844 5023 	str.w	r5, [r4, r3, lsl #2]
        ((uint32_t)GPIO_PIN_CNF_DIR_Input << GPIO_PIN_CNF_DIR_Pos) |
        ((uint32_t)GPIO_PIN_CNF_INPUT_Connect << GPIO_PIN_CNF_INPUT_Pos);

    spim = (NRF_SPIM_Type *)spi->nhs_spi.spim;
     ec2:	6903      	ldr	r3, [r0, #16]
    spim->PSEL.SCK = cfg->sck_pin;
     ec4:	780c      	ldrb	r4, [r1, #0]
     ec6:	f8c3 4508 	str.w	r4, [r3, #1288]	; 0x508
    spim->PSEL.MOSI = cfg->mosi_pin;
     eca:	784c      	ldrb	r4, [r1, #1]
     ecc:	f8c3 450c 	str.w	r4, [r3, #1292]	; 0x50c
    spim->PSEL.MISO = cfg->miso_pin;
     ed0:	7889      	ldrb	r1, [r1, #2]
     ed2:	f8c3 1510 	str.w	r1, [r3, #1296]	; 0x510

    spim->INTENCLR = NRF_SPI_IRQ_DISABLE_ALL;
     ed6:	f04f 31ff 	mov.w	r1, #4294967295	; 0xffffffff
     eda:	f8c3 1308 	str.w	r1, [r3, #776]	; 0x308
    NVIC_SetVector(spi->irq_num, (uint32_t)handler);
     ede:	f990 3014 	ldrsb.w	r3, [r0, #20]
  uint32_t vectors = (uint32_t )SCB->VTOR;
     ee2:	4919      	ldr	r1, [pc, #100]	; (f48 <hal_spi_init_master+0xac>)
     ee4:	6889      	ldr	r1, [r1, #8]
  (* (int *) (vectors + ((int32_t)IRQn + NVIC_USER_IRQ_OFFSET) * 4)) = vector;
     ee6:	3310      	adds	r3, #16
     ee8:	f841 2023 	str.w	r2, [r1, r3, lsl #2]
    NVIC_SetPriority(spi->irq_num, (1 << __NVIC_PRIO_BITS) - 1);
     eec:	f990 3014 	ldrsb.w	r3, [r0, #20]
  if ((int32_t)(IRQn) >= 0)
     ef0:	42ab      	cmp	r3, r5
     ef2:	db22      	blt.n	f3a <hal_spi_init_master+0x9e>
    NVIC->IP[((uint32_t)IRQn)]               = (uint8_t)((priority << (8U - __NVIC_PRIO_BITS)) & (uint32_t)0xFFUL);
     ef4:	f103 4360 	add.w	r3, r3, #3758096384	; 0xe0000000
     ef8:	f503 4361 	add.w	r3, r3, #57600	; 0xe100
     efc:	22e0      	movs	r2, #224	; 0xe0
     efe:	f883 2300 	strb.w	r2, [r3, #768]	; 0x300
    NVIC_ClearPendingIRQ(spi->irq_num);
     f02:	f990 3014 	ldrsb.w	r3, [r0, #20]
  if ((int32_t)(IRQn) >= 0)
     f06:	2b00      	cmp	r3, #0
     f08:	db08      	blt.n	f1c <hal_spi_init_master+0x80>
    NVIC->ICPR[(((uint32_t)IRQn) >> 5UL)] = (uint32_t)(1UL << (((uint32_t)IRQn) & 0x1FUL));
     f0a:	f003 011f 	and.w	r1, r3, #31
     f0e:	095b      	lsrs	r3, r3, #5
     f10:	2201      	movs	r2, #1
     f12:	408a      	lsls	r2, r1
     f14:	3360      	adds	r3, #96	; 0x60
     f16:	490d      	ldr	r1, [pc, #52]	; (f4c <hal_spi_init_master+0xb0>)
     f18:	f841 2023 	str.w	r2, [r1, r3, lsl #2]
    NVIC_EnableIRQ(spi->irq_num);
     f1c:	f990 3014 	ldrsb.w	r3, [r0, #20]
  if ((int32_t)(IRQn) >= 0)
     f20:	2b00      	cmp	r3, #0
     f22:	db07      	blt.n	f34 <hal_spi_init_master+0x98>
    NVIC->ISER[(((uint32_t)IRQn) >> 5UL)] = (uint32_t)(1UL << (((uint32_t)IRQn) & 0x1FUL));
     f24:	f003 011f 	and.w	r1, r3, #31
     f28:	095b      	lsrs	r3, r3, #5
     f2a:	2201      	movs	r2, #1
     f2c:	408a      	lsls	r2, r1
     f2e:	4907      	ldr	r1, [pc, #28]	; (f4c <hal_spi_init_master+0xb0>)
     f30:	f841 2023 	str.w	r2, [r1, r3, lsl #2]

    return 0;
}
     f34:	2000      	movs	r0, #0
     f36:	bc30      	pop	{r4, r5}
     f38:	4770      	bx	lr
    SCB->SHP[(((uint32_t)IRQn) & 0xFUL)-4UL] = (uint8_t)((priority << (8U - __NVIC_PRIO_BITS)) & (uint32_t)0xFFUL);
     f3a:	f003 030f 	and.w	r3, r3, #15
     f3e:	4a04      	ldr	r2, [pc, #16]	; (f50 <hal_spi_init_master+0xb4>)
     f40:	441a      	add	r2, r3
     f42:	23e0      	movs	r3, #224	; 0xe0
     f44:	7613      	strb	r3, [r2, #24]
     f46:	e7dc      	b.n	f02 <hal_spi_init_master+0x66>
     f48:	e000ed00 	.word	0xe000ed00
     f4c:	e000e100 	.word	0xe000e100
     f50:	e000ecfc 	.word	0xe000ecfc

00000f54 <hal_spi_config_master>:
{
     f54:	b410      	push	{r4}
    spim = spi->nhs_spi.spim;
     f56:	6902      	ldr	r2, [r0, #16]
    memcpy(&spi->spi_cfg, settings, sizeof(*settings));
     f58:	680c      	ldr	r4, [r1, #0]
     f5a:	684b      	ldr	r3, [r1, #4]
     f5c:	6084      	str	r4, [r0, #8]
     f5e:	60c3      	str	r3, [r0, #12]
    pin = spim->PSEL.SCK & SPIM_PSEL_SCK_PIN_Msk;
     f60:	f8d2 3508 	ldr.w	r3, [r2, #1288]	; 0x508
     f64:	f003 031f 	and.w	r3, r3, #31
    if (settings->data_mode <= HAL_SPI_MODE1) {
     f68:	7808      	ldrb	r0, [r1, #0]
     f6a:	2801      	cmp	r0, #1
     f6c:	d916      	bls.n	f9c <hal_spi_config_master+0x48>
        port->OUTSET = (1UL << pin);
     f6e:	2001      	movs	r0, #1
     f70:	4098      	lsls	r0, r3
     f72:	f04f 44a0 	mov.w	r4, #1342177280	; 0x50000000
     f76:	f8c4 0508 	str.w	r0, [r4, #1288]	; 0x508
    port->PIN_CNF[pin] =
     f7a:	f503 73e0 	add.w	r3, r3, #448	; 0x1c0
     f7e:	f04f 40a0 	mov.w	r0, #1342177280	; 0x50000000
     f82:	2403      	movs	r4, #3
     f84:	f840 4023 	str.w	r4, [r0, r3, lsl #2]
    switch (settings->word_size) {
     f88:	788b      	ldrb	r3, [r1, #2]
     f8a:	b973      	cbnz	r3, faa <hal_spi_config_master+0x56>
    rc = 0;
     f8c:	2000      	movs	r0, #0
    switch (settings->data_mode) {
     f8e:	780b      	ldrb	r3, [r1, #0]
     f90:	2b03      	cmp	r3, #3
     f92:	d812      	bhi.n	fba <hal_spi_config_master+0x66>
     f94:	e8df f003 	tbb	[pc, r3]
     f98:	0f0d140b 	.word	0x0f0d140b
        port->OUTCLR = (1UL << pin);
     f9c:	2001      	movs	r0, #1
     f9e:	4098      	lsls	r0, r3
     fa0:	f04f 44a0 	mov.w	r4, #1342177280	; 0x50000000
     fa4:	f8c4 050c 	str.w	r0, [r4, #1292]	; 0x50c
     fa8:	e7e7      	b.n	f7a <hal_spi_config_master+0x26>
            rc = EINVAL;
     faa:	2016      	movs	r0, #22
     fac:	e7ef      	b.n	f8e <hal_spi_config_master+0x3a>
            nrf_config = (SPIM_CONFIG_CPOL_ActiveHigh << SPIM_CONFIG_CPOL_Pos) |
     fae:	2300      	movs	r3, #0
     fb0:	e007      	b.n	fc2 <hal_spi_config_master+0x6e>
            nrf_config = (SPIM_CONFIG_CPOL_ActiveLow << SPIM_CONFIG_CPOL_Pos) |
     fb2:	2304      	movs	r3, #4
            break;
     fb4:	e005      	b.n	fc2 <hal_spi_config_master+0x6e>
            nrf_config = (SPIM_CONFIG_CPOL_ActiveLow << SPIM_CONFIG_CPOL_Pos) |
     fb6:	2306      	movs	r3, #6
            break;
     fb8:	e003      	b.n	fc2 <hal_spi_config_master+0x6e>
            nrf_config = 0;
     fba:	2300      	movs	r3, #0
            rc = EINVAL;
     fbc:	2016      	movs	r0, #22
            break;
     fbe:	e000      	b.n	fc2 <hal_spi_config_master+0x6e>
            nrf_config = (SPIM_CONFIG_CPOL_ActiveHigh << SPIM_CONFIG_CPOL_Pos) |
     fc0:	2302      	movs	r3, #2
    if (settings->data_order == HAL_SPI_LSB_FIRST) {
     fc2:	784c      	ldrb	r4, [r1, #1]
     fc4:	2c01      	cmp	r4, #1
     fc6:	d010      	beq.n	fea <hal_spi_config_master+0x96>
    spim->CONFIG = nrf_config;
     fc8:	f8c2 3554 	str.w	r3, [r2, #1364]	; 0x554
    switch (settings->baudrate) {
     fcc:	684b      	ldr	r3, [r1, #4]
     fce:	f5b3 7f7a 	cmp.w	r3, #1000	; 0x3e8
     fd2:	d022      	beq.n	101a <hal_spi_config_master+0xc6>
     fd4:	d80c      	bhi.n	ff0 <hal_spi_config_master+0x9c>
     fd6:	2bfa      	cmp	r3, #250	; 0xfa
     fd8:	d028      	beq.n	102c <hal_spi_config_master+0xd8>
     fda:	f5b3 7ffa 	cmp.w	r3, #500	; 0x1f4
     fde:	d019      	beq.n	1014 <hal_spi_config_master+0xc0>
     fe0:	2b7d      	cmp	r3, #125	; 0x7d
     fe2:	d011      	beq.n	1008 <hal_spi_config_master+0xb4>
            frequency = 0;
     fe4:	2300      	movs	r3, #0
            rc = EINVAL;
     fe6:	2016      	movs	r0, #22
            break;
     fe8:	e010      	b.n	100c <hal_spi_config_master+0xb8>
        nrf_config |= SPIM_CONFIG_ORDER_LsbFirst;
     fea:	f043 0301 	orr.w	r3, r3, #1
     fee:	e7eb      	b.n	fc8 <hal_spi_config_master+0x74>
    switch (settings->baudrate) {
     ff0:	f5b3 6f7a 	cmp.w	r3, #4000	; 0xfa0
     ff4:	d014      	beq.n	1020 <hal_spi_config_master+0xcc>
     ff6:	f5b3 5ffa 	cmp.w	r3, #8000	; 0x1f40
     ffa:	d014      	beq.n	1026 <hal_spi_config_master+0xd2>
     ffc:	f5b3 6ffa 	cmp.w	r3, #2000	; 0x7d0
    1000:	d1f0      	bne.n	fe4 <hal_spi_config_master+0x90>
            frequency = SPIM_FREQUENCY_FREQUENCY_M2;
    1002:	f04f 5300 	mov.w	r3, #536870912	; 0x20000000
            break;
    1006:	e001      	b.n	100c <hal_spi_config_master+0xb8>
            frequency = SPIM_FREQUENCY_FREQUENCY_K125;
    1008:	f04f 7300 	mov.w	r3, #33554432	; 0x2000000
    spim->FREQUENCY = frequency;
    100c:	f8c2 3524 	str.w	r3, [r2, #1316]	; 0x524
}
    1010:	bc10      	pop	{r4}
    1012:	4770      	bx	lr
            frequency = SPIM_FREQUENCY_FREQUENCY_K500;
    1014:	f04f 6300 	mov.w	r3, #134217728	; 0x8000000
            break;
    1018:	e7f8      	b.n	100c <hal_spi_config_master+0xb8>
            frequency = SPIM_FREQUENCY_FREQUENCY_M1;
    101a:	f04f 5380 	mov.w	r3, #268435456	; 0x10000000
            break;
    101e:	e7f5      	b.n	100c <hal_spi_config_master+0xb8>
            frequency = SPIM_FREQUENCY_FREQUENCY_M4;
    1020:	f04f 4380 	mov.w	r3, #1073741824	; 0x40000000
            break;
    1024:	e7f2      	b.n	100c <hal_spi_config_master+0xb8>
            frequency = SPIM_FREQUENCY_FREQUENCY_M8;
    1026:	f04f 4300 	mov.w	r3, #2147483648	; 0x80000000
            break;
    102a:	e7ef      	b.n	100c <hal_spi_config_master+0xb8>
            frequency = SPIM_FREQUENCY_FREQUENCY_K250;
    102c:	f04f 6380 	mov.w	r3, #67108864	; 0x4000000
    1030:	e7ec      	b.n	100c <hal_spi_config_master+0xb8>
	...

00001034 <hal_spi_config>:
{
    int rc;
    struct nrf52_hal_spi *spi;
    NRF_SPIM_Type *spim;

    NRF52_HAL_SPI_RESOLVE(spi_num, spi);
    1034:	2802      	cmp	r0, #2
    1036:	dc10      	bgt.n	105a <hal_spi_config+0x26>
{
    1038:	b508      	push	{r3, lr}
    NRF52_HAL_SPI_RESOLVE(spi_num, spi);
    103a:	4b0b      	ldr	r3, [pc, #44]	; (1068 <hal_spi_config+0x34>)
    103c:	f853 0020 	ldr.w	r0, [r3, r0, lsl #2]
    1040:	b168      	cbz	r0, 105e <hal_spi_config+0x2a>

    /*
     * This looks odd, but the ENABLE register is in the same location for
     * SPIM, SPI and SPIS
     */
    spim = spi->nhs_spi.spim;
    1042:	6903      	ldr	r3, [r0, #16]
    if (spim->ENABLE != 0) {
    1044:	f8d3 3500 	ldr.w	r3, [r3, #1280]	; 0x500
    1048:	b95b      	cbnz	r3, 1062 <hal_spi_config+0x2e>
        return -1;
    }

    if (spi->spi_type  == HAL_SPI_TYPE_MASTER) {
    104a:	7803      	ldrb	r3, [r0, #0]
    104c:	b113      	cbz	r3, 1054 <hal_spi_config+0x20>
        rc = hal_spi_config_master(spi, settings);
    } else {
        rc = hal_spi_config_slave(spi, settings);
    104e:	f7ff feff 	bl	e50 <hal_spi_config_slave>
    }

err:
    return (rc);
}
    1052:	bd08      	pop	{r3, pc}
        rc = hal_spi_config_master(spi, settings);
    1054:	f7ff ff7e 	bl	f54 <hal_spi_config_master>
    1058:	e7fb      	b.n	1052 <hal_spi_config+0x1e>
    NRF52_HAL_SPI_RESOLVE(spi_num, spi);
    105a:	2016      	movs	r0, #22
}
    105c:	4770      	bx	lr
    NRF52_HAL_SPI_RESOLVE(spi_num, spi);
    105e:	2016      	movs	r0, #22
    1060:	e7f7      	b.n	1052 <hal_spi_config+0x1e>
        return -1;
    1062:	f04f 30ff 	mov.w	r0, #4294967295	; 0xffffffff
    1066:	e7f4      	b.n	1052 <hal_spi_config+0x1e>
    1068:	00005260 	.word	0x00005260

0000106c <hal_spi_enable>:
    int rc;
    NRF_SPIS_Type *spis;
    NRF_SPI_Type *nrf_spi;
    struct nrf52_hal_spi *spi;

    NRF52_HAL_SPI_RESOLVE(spi_num, spi);
    106c:	2802      	cmp	r0, #2
    106e:	dc1b      	bgt.n	10a8 <hal_spi_enable+0x3c>
    1070:	4b10      	ldr	r3, [pc, #64]	; (10b4 <hal_spi_enable+0x48>)
    1072:	f853 3020 	ldr.w	r3, [r3, r0, lsl #2]
    1076:	b1cb      	cbz	r3, 10ac <hal_spi_enable+0x40>

    if (spi->spi_type  == HAL_SPI_TYPE_MASTER) {
    1078:	781a      	ldrb	r2, [r3, #0]
    107a:	b17a      	cbz	r2, 109c <hal_spi_enable+0x30>
        /* For now, enable this in normal SPI mode (not spim) */
        nrf_spi = (NRF_SPI_Type *)spi->nhs_spi.spim;
        nrf_spi->ENABLE = (SPI_ENABLE_ENABLE_Enabled << SPI_ENABLE_ENABLE_Pos);
    } else {
        if (spi->txrx_cb_func == NULL) {
    107c:	6a1a      	ldr	r2, [r3, #32]
    107e:	b1ba      	cbz	r2, 10b0 <hal_spi_enable+0x44>
            rc = EINVAL;
            goto err;
        }

        spis = spi->nhs_spi.spis;
    1080:	691b      	ldr	r3, [r3, #16]
        spis->EVENTS_END = 0;
    1082:	2000      	movs	r0, #0
    1084:	f8c3 0104 	str.w	r0, [r3, #260]	; 0x104
        spis->EVENTS_ACQUIRED = 0;
    1088:	f8c3 0128 	str.w	r0, [r3, #296]	; 0x128
        spis->INTENSET = SPIS_INTENSET_END_Msk | SPIS_INTENSET_ACQUIRED_Msk;
    108c:	f240 4202 	movw	r2, #1026	; 0x402
    1090:	f8c3 2304 	str.w	r2, [r3, #772]	; 0x304
        spis->ENABLE = (SPIS_ENABLE_ENABLE_Enabled << SPIS_ENABLE_ENABLE_Pos);
    1094:	2202      	movs	r2, #2
    1096:	f8c3 2500 	str.w	r2, [r3, #1280]	; 0x500
    109a:	4770      	bx	lr
        nrf_spi = (NRF_SPI_Type *)spi->nhs_spi.spim;
    109c:	691b      	ldr	r3, [r3, #16]
        nrf_spi->ENABLE = (SPI_ENABLE_ENABLE_Enabled << SPI_ENABLE_ENABLE_Pos);
    109e:	2201      	movs	r2, #1
    10a0:	f8c3 2500 	str.w	r2, [r3, #1280]	; 0x500
    }
    rc = 0;
    10a4:	2000      	movs	r0, #0
    10a6:	4770      	bx	lr
    NRF52_HAL_SPI_RESOLVE(spi_num, spi);
    10a8:	2016      	movs	r0, #22
    10aa:	4770      	bx	lr
    10ac:	2016      	movs	r0, #22
    10ae:	4770      	bx	lr
            rc = EINVAL;
    10b0:	2016      	movs	r0, #22

err:
    return rc;
}
    10b2:	4770      	bx	lr
    10b4:	00005260 	.word	0x00005260

000010b8 <hal_spi_disable>:
    int rc;
    NRF_SPIS_Type *spis;
    NRF_SPIM_Type *spim;
    struct nrf52_hal_spi *spi;

    NRF52_HAL_SPI_RESOLVE(spi_num, spi);
    10b8:	2802      	cmp	r0, #2
    10ba:	dc2a      	bgt.n	1112 <hal_spi_disable+0x5a>
{
    10bc:	b538      	push	{r3, r4, r5, lr}
    NRF52_HAL_SPI_RESOLVE(spi_num, spi);
    10be:	4b17      	ldr	r3, [pc, #92]	; (111c <hal_spi_disable+0x64>)
    10c0:	f853 4020 	ldr.w	r4, [r3, r0, lsl #2]
    10c4:	b33c      	cbz	r4, 1116 <hal_spi_disable+0x5e>

    if (spi->spi_type  == HAL_SPI_TYPE_MASTER) {
    10c6:	7823      	ldrb	r3, [r4, #0]
    10c8:	b9ab      	cbnz	r3, 10f6 <hal_spi_disable+0x3e>
        spim = spi->nhs_spi.spim;
    10ca:	6925      	ldr	r5, [r4, #16]
        spim->INTENCLR = NRF_SPI_IRQ_DISABLE_ALL;
    10cc:	f04f 33ff 	mov.w	r3, #4294967295	; 0xffffffff
    10d0:	f8c5 3308 	str.w	r3, [r5, #776]	; 0x308

        if (spi->spi_xfr_flag) {
    10d4:	7863      	ldrb	r3, [r4, #1]
    10d6:	b943      	cbnz	r3, 10ea <hal_spi_disable+0x32>
            hal_spi_stop_transfer(spim);
            spi->spi_xfr_flag = 0;
        }
        spim->ENABLE = 0;
    10d8:	2300      	movs	r3, #0
    10da:	f8c5 3500 	str.w	r3, [r5, #1280]	; 0x500
        spis->EVENTS_ACQUIRED = 0;
        spis->ENABLE = 0;
        spi->slave_state = HAL_SPI_SLAVE_STATE_IDLE;
    }

    spi->nhs_txbuf = NULL;
    10de:	2000      	movs	r0, #0
    10e0:	61a0      	str	r0, [r4, #24]
    spi->nhs_rxbuf = NULL;
    10e2:	61e0      	str	r0, [r4, #28]
    spi->nhs_buflen = 0;
    10e4:	80a0      	strh	r0, [r4, #4]
    spi->nhs_bytes_txd = 0;
    10e6:	80e0      	strh	r0, [r4, #6]

    rc = 0;

err:
    return rc;
}
    10e8:	bd38      	pop	{r3, r4, r5, pc}
            hal_spi_stop_transfer(spim);
    10ea:	4628      	mov	r0, r5
    10ec:	f7ff fea6 	bl	e3c <hal_spi_stop_transfer>
            spi->spi_xfr_flag = 0;
    10f0:	2300      	movs	r3, #0
    10f2:	7063      	strb	r3, [r4, #1]
    10f4:	e7f0      	b.n	10d8 <hal_spi_disable+0x20>
        spis = spi->nhs_spi.spis;
    10f6:	6922      	ldr	r2, [r4, #16]
        spis->INTENCLR = NRF_SPI_IRQ_DISABLE_ALL;
    10f8:	f04f 33ff 	mov.w	r3, #4294967295	; 0xffffffff
    10fc:	f8c2 3308 	str.w	r3, [r2, #776]	; 0x308
        spis->EVENTS_END = 0;
    1100:	2300      	movs	r3, #0
    1102:	f8c2 3104 	str.w	r3, [r2, #260]	; 0x104
        spis->EVENTS_ACQUIRED = 0;
    1106:	f8c2 3128 	str.w	r3, [r2, #296]	; 0x128
        spis->ENABLE = 0;
    110a:	f8c2 3500 	str.w	r3, [r2, #1280]	; 0x500
        spi->slave_state = HAL_SPI_SLAVE_STATE_IDLE;
    110e:	70e3      	strb	r3, [r4, #3]
    1110:	e7e5      	b.n	10de <hal_spi_disable+0x26>
    NRF52_HAL_SPI_RESOLVE(spi_num, spi);
    1112:	2016      	movs	r0, #22
}
    1114:	4770      	bx	lr
    NRF52_HAL_SPI_RESOLVE(spi_num, spi);
    1116:	2016      	movs	r0, #22
    return rc;
    1118:	e7e6      	b.n	10e8 <hal_spi_disable+0x30>
    111a:	bf00      	nop
    111c:	00005260 	.word	0x00005260

00001120 <hal_spi_init>:
    NRF52_HAL_SPI_RESOLVE(spi_num, spi);
    1120:	2802      	cmp	r0, #2
    1122:	dc1d      	bgt.n	1160 <hal_spi_init+0x40>
{
    1124:	b538      	push	{r3, r4, r5, lr}
    NRF52_HAL_SPI_RESOLVE(spi_num, spi);
    1126:	4b13      	ldr	r3, [pc, #76]	; (1174 <hal_spi_init+0x54>)
    1128:	f853 4020 	ldr.w	r4, [r3, r0, lsl #2]
    112c:	b1d4      	cbz	r4, 1164 <hal_spi_init+0x44>
    if (cfg == NULL) {
    112e:	b1d9      	cbz	r1, 1168 <hal_spi_init+0x48>
    if ((spi_type != HAL_SPI_TYPE_MASTER) && (spi_type != HAL_SPI_TYPE_SLAVE)) {
    1130:	2a01      	cmp	r2, #1
    1132:	d81b      	bhi.n	116c <hal_spi_init+0x4c>
    spi->spi_type  = spi_type;
    1134:	7022      	strb	r2, [r4, #0]
    if (spi_num == 0) {
    1136:	b9d8      	cbnz	r0, 1170 <hal_spi_init+0x50>
    1138:	460d      	mov	r5, r1
        spi->irq_num = SPIM0_SPIS0_TWIM0_TWIS0_SPI0_TWI0_IRQn;
    113a:	2303      	movs	r3, #3
    113c:	7523      	strb	r3, [r4, #20]
        if (spi_type == HAL_SPI_TYPE_MASTER) {
    113e:	b94a      	cbnz	r2, 1154 <hal_spi_init+0x34>
            spi->nhs_spi.spim = NRF_SPIM0;
    1140:	4b0d      	ldr	r3, [pc, #52]	; (1178 <hal_spi_init+0x58>)
    1142:	6123      	str	r3, [r4, #16]
    hal_spi_disable(spi_num);
    1144:	f7ff ffb8 	bl	10b8 <hal_spi_disable>
        rc = hal_spi_init_master(spi, (struct nrf52_hal_spi_cfg *)cfg,
    1148:	4a0c      	ldr	r2, [pc, #48]	; (117c <hal_spi_init+0x5c>)
    114a:	4629      	mov	r1, r5
    114c:	4620      	mov	r0, r4
    114e:	f7ff fea5 	bl	e9c <hal_spi_init_master>
    1152:	e00c      	b.n	116e <hal_spi_init+0x4e>
            assert(0);
    1154:	2300      	movs	r3, #0
    1156:	461a      	mov	r2, r3
    1158:	4619      	mov	r1, r3
    115a:	4618      	mov	r0, r3
    115c:	f000 fad6 	bl	170c <__assert_func>
    NRF52_HAL_SPI_RESOLVE(spi_num, spi);
    1160:	2016      	movs	r0, #22
}
    1162:	4770      	bx	lr
    NRF52_HAL_SPI_RESOLVE(spi_num, spi);
    1164:	2016      	movs	r0, #22
    1166:	e002      	b.n	116e <hal_spi_init+0x4e>
    rc = EINVAL;
    1168:	2016      	movs	r0, #22
    116a:	e000      	b.n	116e <hal_spi_init+0x4e>
    116c:	2016      	movs	r0, #22
}
    116e:	bd38      	pop	{r3, r4, r5, pc}
    rc = EINVAL;
    1170:	2016      	movs	r0, #22
    return (rc);
    1172:	e7fc      	b.n	116e <hal_spi_init+0x4e>
    1174:	00005260 	.word	0x00005260
    1178:	40003000 	.word	0x40003000
    117c:	00000e25 	.word	0x00000e25

00001180 <hal_spi_tx_val>:
    int rc;
    uint16_t retval;
    NRF_SPI_Type *spi;
    struct nrf52_hal_spi *hal_spi;

    NRF52_HAL_SPI_RESOLVE(spi_num, hal_spi);
    1180:	2802      	cmp	r0, #2
    1182:	dc17      	bgt.n	11b4 <hal_spi_tx_val+0x34>
    1184:	4b0f      	ldr	r3, [pc, #60]	; (11c4 <hal_spi_tx_val+0x44>)
    1186:	f853 3020 	ldr.w	r3, [r3, r0, lsl #2]
    118a:	b1ab      	cbz	r3, 11b8 <hal_spi_tx_val+0x38>

    if (hal_spi->spi_type  == HAL_SPI_TYPE_MASTER) {
    118c:	781a      	ldrb	r2, [r3, #0]
    118e:	b9aa      	cbnz	r2, 11bc <hal_spi_tx_val+0x3c>
        spi = (NRF_SPI_Type *)hal_spi->nhs_spi.spim;
    1190:	691a      	ldr	r2, [r3, #16]
        spi->EVENTS_READY = 0;
    1192:	2300      	movs	r3, #0
    1194:	f8c2 3108 	str.w	r3, [r2, #264]	; 0x108
        spi->TXD = (uint8_t)val;
    1198:	b2c9      	uxtb	r1, r1
    119a:	f8c2 151c 	str.w	r1, [r2, #1308]	; 0x51c
        while (!spi->EVENTS_READY) {}
    119e:	f8d2 3108 	ldr.w	r3, [r2, #264]	; 0x108
    11a2:	2b00      	cmp	r3, #0
    11a4:	d0fb      	beq.n	119e <hal_spi_tx_val+0x1e>
        spi->EVENTS_READY = 0;
    11a6:	2300      	movs	r3, #0
    11a8:	f8c2 3108 	str.w	r3, [r2, #264]	; 0x108
        retval = (uint16_t)spi->RXD;
    11ac:	f8d2 0518 	ldr.w	r0, [r2, #1304]	; 0x518
    11b0:	b280      	uxth	r0, r0
    11b2:	4770      	bx	lr
    }

    return retval;

err:
    return rc;
    11b4:	2016      	movs	r0, #22
    11b6:	4770      	bx	lr
    11b8:	2016      	movs	r0, #22
    11ba:	4770      	bx	lr
        retval = 0xFFFF;
    11bc:	f64f 70ff 	movw	r0, #65535	; 0xffff
}
    11c0:	4770      	bx	lr
    11c2:	bf00      	nop
    11c4:	00005260 	.word	0x00005260

000011c8 <hal_spi_set_txrx_cb>:
{
    int rc;
    NRF_SPIM_Type *spim;
    struct nrf52_hal_spi *spi;

    NRF52_HAL_SPI_RESOLVE(spi_num, spi);
    11c8:	2802      	cmp	r0, #2
    11ca:	dc0a      	bgt.n	11e2 <hal_spi_set_txrx_cb+0x1a>
    11cc:	4b08      	ldr	r3, [pc, #32]	; (11f0 <hal_spi_set_txrx_cb+0x28>)
    11ce:	f853 3020 	ldr.w	r3, [r3, r0, lsl #2]
    11d2:	b143      	cbz	r3, 11e6 <hal_spi_set_txrx_cb+0x1e>

    /*
     * This looks odd, but the ENABLE register is in the same location for
     * SPIM, SPI and SPIS
     */
    spim = spi->nhs_spi.spim;
    11d4:	6918      	ldr	r0, [r3, #16]
    if (spim->ENABLE != 0) {
    11d6:	f8d0 0500 	ldr.w	r0, [r0, #1280]	; 0x500
    11da:	b930      	cbnz	r0, 11ea <hal_spi_set_txrx_cb+0x22>
        rc = -1;
    } else {
        spi->txrx_cb_func = txrx_cb;
    11dc:	6219      	str	r1, [r3, #32]
        spi->txrx_cb_arg = arg;
    11de:	625a      	str	r2, [r3, #36]	; 0x24
    11e0:	4770      	bx	lr
    NRF52_HAL_SPI_RESOLVE(spi_num, spi);
    11e2:	2016      	movs	r0, #22
    11e4:	4770      	bx	lr
    11e6:	2016      	movs	r0, #22
    11e8:	4770      	bx	lr
        rc = -1;
    11ea:	f04f 30ff 	mov.w	r0, #4294967295	; 0xffffffff
        rc = 0;
    }

err:
    return rc;
}
    11ee:	4770      	bx	lr
    11f0:	00005260 	.word	0x00005260

000011f4 <hal_spi_txrx>:
    NRF_SPI_Type *spi;
    NRF_SPIM_Type *spim;
    struct nrf52_hal_spi *hal_spi;

    rc = EINVAL;
    if (!len) {
    11f4:	2b00      	cmp	r3, #0
    11f6:	d046      	beq.n	1286 <hal_spi_txrx+0x92>
{
    11f8:	b5f8      	push	{r3, r4, r5, r6, r7, lr}
    11fa:	460d      	mov	r5, r1
    11fc:	4617      	mov	r7, r2
    11fe:	461e      	mov	r6, r3
        goto err;
    }

    NRF52_HAL_SPI_RESOLVE(spi_num, hal_spi);
    1200:	2802      	cmp	r0, #2
    1202:	dc42      	bgt.n	128a <hal_spi_txrx+0x96>
    1204:	4b25      	ldr	r3, [pc, #148]	; (129c <hal_spi_txrx+0xa8>)
    1206:	f853 3020 	ldr.w	r3, [r3, r0, lsl #2]
    120a:	2b00      	cmp	r3, #0
    120c:	d03f      	beq.n	128e <hal_spi_txrx+0x9a>

    if (hal_spi->spi_type  == HAL_SPI_TYPE_MASTER) {
    120e:	781a      	ldrb	r2, [r3, #0]
    1210:	2a00      	cmp	r2, #0
    1212:	d13e      	bne.n	1292 <hal_spi_txrx+0x9e>
        /* Must have a txbuf for master! */
        if (txbuf == NULL) {
    1214:	2900      	cmp	r1, #0
    1216:	d03e      	beq.n	1296 <hal_spi_txrx+0xa2>

        /*
         * If SPIM is enabled, we want to stop, disable, then enable
         * the legacy SPI interface.
         */
        spim = hal_spi->nhs_spi.spim;
    1218:	691c      	ldr	r4, [r3, #16]
        enabled = spim->ENABLE;
    121a:	f8d4 3500 	ldr.w	r3, [r4, #1280]	; 0x500
        if (enabled == SPIM_ENABLE_ENABLE_Enabled) {
    121e:	2b07      	cmp	r3, #7
    1220:	d004      	beq.n	122c <hal_spi_txrx+0x38>
            hal_spi_disable(spi_num);
            enabled = 0;
        }

        spi = (NRF_SPI_Type *)spim;
        if (enabled == 0) {
    1222:	b95b      	cbnz	r3, 123c <hal_spi_txrx+0x48>
            spi->ENABLE = (SPI_ENABLE_ENABLE_Enabled << SPI_ENABLE_ENABLE_Pos);
    1224:	2301      	movs	r3, #1
    1226:	f8c4 3500 	str.w	r3, [r4, #1280]	; 0x500
    122a:	e007      	b.n	123c <hal_spi_txrx+0x48>
            hal_spi_disable(spi_num);
    122c:	f7ff ff44 	bl	10b8 <hal_spi_disable>
    1230:	e7f8      	b.n	1224 <hal_spi_txrx+0x30>
        }

        while (spi->EVENTS_READY) {
            rxval = (uint8_t)spi->RXD;
    1232:	f8d4 3518 	ldr.w	r3, [r4, #1304]	; 0x518
            spi->EVENTS_READY = 0;
    1236:	2300      	movs	r3, #0
    1238:	f8c4 3108 	str.w	r3, [r4, #264]	; 0x108
        while (spi->EVENTS_READY) {
    123c:	f8d4 3108 	ldr.w	r3, [r4, #264]	; 0x108
    1240:	2b00      	cmp	r3, #0
    1242:	d1f6      	bne.n	1232 <hal_spi_txrx+0x3e>
        }
        txd = (uint8_t *)txbuf;
        spi->TXD = *txd;
    1244:	782b      	ldrb	r3, [r5, #0]
    1246:	f8c4 351c 	str.w	r3, [r4, #1308]	; 0x51c

        txcnt = len - 1;
    124a:	1e71      	subs	r1, r6, #1
        rxd = (uint8_t *)rxbuf;
    124c:	4638      	mov	r0, r7
        for (i = 0; i < len; ++i) {
    124e:	2200      	movs	r2, #0
    1250:	e00d      	b.n	126e <hal_spi_txrx+0x7a>
            if (txcnt) {
                ++txd;
                spi->TXD = *txd;
                --txcnt;
            }
            while (!spi->EVENTS_READY) {}
    1252:	f8d4 3108 	ldr.w	r3, [r4, #264]	; 0x108
    1256:	2b00      	cmp	r3, #0
    1258:	d0fb      	beq.n	1252 <hal_spi_txrx+0x5e>
            spi->EVENTS_READY = 0;
    125a:	2300      	movs	r3, #0
    125c:	f8c4 3108 	str.w	r3, [r4, #264]	; 0x108
            rxval = (uint8_t)spi->RXD;
    1260:	f8d4 3518 	ldr.w	r3, [r4, #1304]	; 0x518
    1264:	b2db      	uxtb	r3, r3
            if (rxbuf) {
    1266:	b10f      	cbz	r7, 126c <hal_spi_txrx+0x78>
                *rxd = rxval;
    1268:	f800 3b01 	strb.w	r3, [r0], #1
        for (i = 0; i < len; ++i) {
    126c:	3201      	adds	r2, #1
    126e:	42b2      	cmp	r2, r6
    1270:	da07      	bge.n	1282 <hal_spi_txrx+0x8e>
            if (txcnt) {
    1272:	2900      	cmp	r1, #0
    1274:	d0ed      	beq.n	1252 <hal_spi_txrx+0x5e>
                spi->TXD = *txd;
    1276:	786b      	ldrb	r3, [r5, #1]
    1278:	f8c4 351c 	str.w	r3, [r4, #1308]	; 0x51c
                --txcnt;
    127c:	3901      	subs	r1, #1
                ++txd;
    127e:	3501      	adds	r5, #1
    1280:	e7e7      	b.n	1252 <hal_spi_txrx+0x5e>
                ++rxd;
            }
        }
        return 0;
    1282:	2000      	movs	r0, #0
    }

err:
    return rc;
}
    1284:	bdf8      	pop	{r3, r4, r5, r6, r7, pc}
    return rc;
    1286:	2016      	movs	r0, #22
}
    1288:	4770      	bx	lr
    return rc;
    128a:	2016      	movs	r0, #22
    128c:	e7fa      	b.n	1284 <hal_spi_txrx+0x90>
    128e:	2016      	movs	r0, #22
    1290:	e7f8      	b.n	1284 <hal_spi_txrx+0x90>
    1292:	2016      	movs	r0, #22
    1294:	e7f6      	b.n	1284 <hal_spi_txrx+0x90>
    1296:	2016      	movs	r0, #22
    1298:	e7f4      	b.n	1284 <hal_spi_txrx+0x90>
    129a:	bf00      	nop
    129c:	00005260 	.word	0x00005260

000012a0 <nrf52_hal_wdt_default_handler>:
#include "mcu/cmsis_nvic.h"
#include "nrf.h"

static void
nrf52_hal_wdt_default_handler(void)
{
    12a0:	b508      	push	{r3, lr}
    assert(0);
    12a2:	2300      	movs	r3, #0
    12a4:	461a      	mov	r2, r3
    12a6:	4619      	mov	r1, r3
    12a8:	4618      	mov	r0, r3
    12aa:	f000 fa2f 	bl	170c <__assert_func>
	...

000012b0 <nrf52_wdt_irq_handler>:
}

/**@brief WDT interrupt handler. */
static void
nrf52_wdt_irq_handler(void)
{
    12b0:	b508      	push	{r3, lr}
    os_trace_isr_enter();
    if (NRF_WDT->INTENSET & WDT_INTENSET_TIMEOUT_Msk) {
    12b2:	4b06      	ldr	r3, [pc, #24]	; (12cc <nrf52_wdt_irq_handler+0x1c>)
    12b4:	f8d3 3304 	ldr.w	r3, [r3, #772]	; 0x304
    12b8:	f013 0f01 	tst.w	r3, #1
    12bc:	d100      	bne.n	12c0 <nrf52_wdt_irq_handler+0x10>
        NRF_WDT->EVENTS_TIMEOUT = 0;
        nrf52_hal_wdt_default_handler();
    }
    os_trace_isr_exit();
}
    12be:	bd08      	pop	{r3, pc}
        NRF_WDT->EVENTS_TIMEOUT = 0;
    12c0:	4b02      	ldr	r3, [pc, #8]	; (12cc <nrf52_wdt_irq_handler+0x1c>)
    12c2:	2200      	movs	r2, #0
    12c4:	f8c3 2100 	str.w	r2, [r3, #256]	; 0x100
        nrf52_hal_wdt_default_handler();
    12c8:	f7ff ffea 	bl	12a0 <nrf52_hal_wdt_default_handler>
    12cc:	40010000 	.word	0x40010000

000012d0 <hal_watchdog_init>:

int
hal_watchdog_init(uint32_t expire_msecs)
{
    12d0:	b508      	push	{r3, lr}
    NRF_WDT->CONFIG = WDT_CONFIG_SLEEP_Msk;
    12d2:	4b17      	ldr	r3, [pc, #92]	; (1330 <hal_watchdog_init+0x60>)
    12d4:	2201      	movs	r2, #1
    12d6:	f8c3 250c 	str.w	r2, [r3, #1292]	; 0x50c

    if (expire_msecs >= 44739243) {
    12da:	4b16      	ldr	r3, [pc, #88]	; (1334 <hal_watchdog_init+0x64>)
    12dc:	4298      	cmp	r0, r3
    12de:	d821      	bhi.n	1324 <hal_watchdog_init+0x54>
        /* maximum allowed time is near 12.5 hours! */
        assert(0);
    } else {
        NRF_WDT->CRV = (expire_msecs * 32) + ((expire_msecs * 96) / 125);
    12e0:	eb00 0240 	add.w	r2, r0, r0, lsl #1
    12e4:	0153      	lsls	r3, r2, #5
    12e6:	4a14      	ldr	r2, [pc, #80]	; (1338 <hal_watchdog_init+0x68>)
    12e8:	fba2 2303 	umull	r2, r3, r2, r3
    12ec:	08db      	lsrs	r3, r3, #3
    12ee:	eb03 1040 	add.w	r0, r3, r0, lsl #5
    12f2:	4b0f      	ldr	r3, [pc, #60]	; (1330 <hal_watchdog_init+0x60>)
    12f4:	f8c3 0504 	str.w	r0, [r3, #1284]	; 0x504
  uint32_t vectors = (uint32_t )SCB->VTOR;
    12f8:	4a10      	ldr	r2, [pc, #64]	; (133c <hal_watchdog_init+0x6c>)
    12fa:	6892      	ldr	r2, [r2, #8]
  (* (int *) (vectors + ((int32_t)IRQn + NVIC_USER_IRQ_OFFSET) * 4)) = vector;
    12fc:	4910      	ldr	r1, [pc, #64]	; (1340 <hal_watchdog_init+0x70>)
    12fe:	f8c2 1080 	str.w	r1, [r2, #128]	; 0x80
    NVIC->IP[((uint32_t)IRQn)]               = (uint8_t)((priority << (8U - __NVIC_PRIO_BITS)) & (uint32_t)0xFFUL);
    1302:	4a10      	ldr	r2, [pc, #64]	; (1344 <hal_watchdog_init+0x74>)
    1304:	21e0      	movs	r1, #224	; 0xe0
    1306:	f882 1310 	strb.w	r1, [r2, #784]	; 0x310
    NVIC->ICPR[(((uint32_t)IRQn) >> 5UL)] = (uint32_t)(1UL << (((uint32_t)IRQn) & 0x1FUL));
    130a:	f44f 3180 	mov.w	r1, #65536	; 0x10000
    130e:	f8c2 1180 	str.w	r1, [r2, #384]	; 0x180
    NVIC->ISER[(((uint32_t)IRQn) >> 5UL)] = (uint32_t)(1UL << (((uint32_t)IRQn) & 0x1FUL));
    1312:	6011      	str	r1, [r2, #0]

    NVIC_SetVector(WDT_IRQn, (uint32_t) nrf52_wdt_irq_handler);
    NVIC_SetPriority(WDT_IRQn, (1 << __NVIC_PRIO_BITS) - 1);
    NVIC_ClearPendingIRQ(WDT_IRQn);
    NVIC_EnableIRQ(WDT_IRQn);
    NRF_WDT->RREN |= 0x1;
    1314:	f8d3 2508 	ldr.w	r2, [r3, #1288]	; 0x508
    1318:	f042 0201 	orr.w	r2, r2, #1
    131c:	f8c3 2508 	str.w	r2, [r3, #1288]	; 0x508

    return (0);
}
    1320:	2000      	movs	r0, #0
    1322:	bd08      	pop	{r3, pc}
        assert(0);
    1324:	2300      	movs	r3, #0
    1326:	461a      	mov	r2, r3
    1328:	4619      	mov	r1, r3
    132a:	4618      	mov	r0, r3
    132c:	f000 f9ee 	bl	170c <__assert_func>
    1330:	40010000 	.word	0x40010000
    1334:	02aaaaaa 	.word	0x02aaaaaa
    1338:	10624dd3 	.word	0x10624dd3
    133c:	e000ed00 	.word	0xe000ed00
    1340:	000012b1 	.word	0x000012b1
    1344:	e000e100 	.word	0xe000e100

00001348 <nrf52_periph_create_timers>:
};
#endif

static void
nrf52_periph_create_timers(void)
{
    1348:	b508      	push	{r3, lr}
    int rc;

    (void)rc;

#if MYNEWT_VAL(TIMER_0)
    rc = hal_timer_init(0, NULL);
    134a:	2100      	movs	r1, #0
    134c:	4608      	mov	r0, r1
    134e:	f000 f919 	bl	1584 <hal_timer_init>
    assert(rc == 0);
    1352:	b920      	cbnz	r0, 135e <nrf52_periph_create_timers+0x16>
    rc = hal_timer_init(5, NULL);
    assert(rc == 0);
#endif

#if MYNEWT_VAL(OS_CPUTIME_TIMER_NUM) >= 0
    rc = os_cputime_init(MYNEWT_VAL(OS_CPUTIME_FREQ));
    1354:	4808      	ldr	r0, [pc, #32]	; (1378 <nrf52_periph_create_timers+0x30>)
    1356:	f000 fa4b 	bl	17f0 <os_cputime_init>
    assert(rc == 0);
    135a:	b930      	cbnz	r0, 136a <nrf52_periph_create_timers+0x22>
#endif
}
    135c:	bd08      	pop	{r3, pc}
    assert(rc == 0);
    135e:	2300      	movs	r3, #0
    1360:	461a      	mov	r2, r3
    1362:	4619      	mov	r1, r3
    1364:	4618      	mov	r0, r3
    1366:	f000 f9d1 	bl	170c <__assert_func>
    assert(rc == 0);
    136a:	2300      	movs	r3, #0
    136c:	461a      	mov	r2, r3
    136e:	4619      	mov	r1, r3
    1370:	4618      	mov	r0, r3
    1372:	f000 f9cb 	bl	170c <__assert_func>
    1376:	bf00      	nop
    1378:	000f4240 	.word	0x000f4240

0000137c <nrf52_periph_create_spi>:
#endif
}

static void
nrf52_periph_create_spi(void)
{
    137c:	b508      	push	{r3, lr}
#if MYNEWT_VAL(BUS_DRIVER_PRESENT)
    rc = bus_spi_hal_dev_create("spi0",
                                &spi0_bus, (struct bus_spi_dev_cfg *)&spi0_cfg);
    assert(rc == 0);
#else
    rc = hal_spi_init(0, (void *)&os_bsp_spi0m_cfg, HAL_SPI_TYPE_MASTER);
    137e:	2200      	movs	r2, #0
    1380:	4905      	ldr	r1, [pc, #20]	; (1398 <nrf52_periph_create_spi+0x1c>)
    1382:	4610      	mov	r0, r2
    1384:	f7ff fecc 	bl	1120 <hal_spi_init>
    assert(rc == 0);
    1388:	b900      	cbnz	r0, 138c <nrf52_periph_create_spi+0x10>
#endif
#if MYNEWT_VAL(SPI_2_SLAVE)
    rc = hal_spi_init(2, (void *)&os_bsp_spi2s_cfg, HAL_SPI_TYPE_SLAVE);
    assert(rc == 0);
#endif
}
    138a:	bd08      	pop	{r3, pc}
    assert(rc == 0);
    138c:	2300      	movs	r3, #0
    138e:	461a      	mov	r2, r3
    1390:	4619      	mov	r1, r3
    1392:	4618      	mov	r0, r3
    1394:	f000 f9ba 	bl	170c <__assert_func>
    1398:	0000526c 	.word	0x0000526c

0000139c <nrf52_periph_create>:

void
nrf52_periph_create(void)
{
    139c:	b508      	push	{r3, lr}
    nrf52_periph_create_timers();
    139e:	f7ff ffd3 	bl	1348 <nrf52_periph_create_timers>
    nrf52_periph_create_pwm();
    nrf52_periph_create_trng();
    nrf52_periph_create_crypto();
    nrf52_periph_create_uart();
    nrf52_periph_create_i2c();
    nrf52_periph_create_spi();
    13a2:	f7ff ffeb 	bl	137c <nrf52_periph_create_spi>
}
    13a6:	bd08      	pop	{r3, pc}

000013a8 <nrf_read_timer_cntr>:
nrf_read_timer_cntr(NRF_TIMER_Type *hwtimer)
{
    uint32_t tcntr;

    /* Force a capture of the timer into 'cntr' capture channel; read it */
    hwtimer->TASKS_CAPTURE[NRF_TIMER_CC_READ] = 1;
    13a8:	2301      	movs	r3, #1
    13aa:	6483      	str	r3, [r0, #72]	; 0x48
    tcntr = hwtimer->CC[NRF_TIMER_CC_READ];
    13ac:	f8d0 0548 	ldr.w	r0, [r0, #1352]	; 0x548

    return tcntr;
}
    13b0:	4770      	bx	lr
	...

000013b4 <nrf_timer_set_ocmp>:
 *
 * @param timer Pointer to timer.
 */
static void
nrf_timer_set_ocmp(struct nrf52_hal_timer *bsptimer, uint32_t expiry)
{
    13b4:	b538      	push	{r3, r4, r5, lr}
    uint32_t temp;
    uint32_t cntr;
    NRF_TIMER_Type *hwtimer;
    NRF_RTC_Type *rtctimer;

    if (bsptimer->tmr_rtc) {
    13b6:	7883      	ldrb	r3, [r0, #2]
    13b8:	b393      	cbz	r3, 1420 <nrf_timer_set_ocmp+0x6c>
        rtctimer = (NRF_RTC_Type *)bsptimer->tmr_reg;
    13ba:	6902      	ldr	r2, [r0, #16]
        rtctimer->INTENCLR = NRF_TIMER_INT_MASK(NRF_RTC_TIMER_CC_INT);
    13bc:	f44f 2380 	mov.w	r3, #262144	; 0x40000
    13c0:	f8c2 3308 	str.w	r3, [r2, #776]	; 0x308
        temp = bsptimer->tmr_cntr;
    13c4:	6843      	ldr	r3, [r0, #4]
        cntr = rtctimer->COUNTER;
    13c6:	f8d2 4504 	ldr.w	r4, [r2, #1284]	; 0x504
        if (rtctimer->EVENTS_OVRFLW) {
    13ca:	f8d2 5104 	ldr.w	r5, [r2, #260]	; 0x104
    13ce:	b11d      	cbz	r5, 13d8 <nrf_timer_set_ocmp+0x24>
            temp += (1UL << 24);
    13d0:	f103 7380 	add.w	r3, r3, #16777216	; 0x1000000
            cntr = rtctimer->COUNTER;
    13d4:	f8d2 4504 	ldr.w	r4, [r2, #1284]	; 0x504
        }
        temp |= cntr;
    13d8:	4323      	orrs	r3, r4
        delta_t = (int32_t)(expiry - temp);
    13da:	1acb      	subs	r3, r1, r3
         * The nrf documentation states that you must set the output
         * compare to 2 greater than the counter to guarantee an interrupt.
         * Since the counter can tick once while we check, we make sure
         * it is greater than 2.
         */
        if (delta_t < 3) {
    13dc:	2b02      	cmp	r3, #2
    13de:	dc0e      	bgt.n	13fe <nrf_timer_set_ocmp+0x4a>
            NVIC_SetPendingIRQ(bsptimer->tmr_irq_num);
    13e0:	7842      	ldrb	r2, [r0, #1]
    13e2:	b253      	sxtb	r3, r2
  if ((int32_t)(IRQn) >= 0)
    13e4:	2b00      	cmp	r3, #0
    13e6:	db15      	blt.n	1414 <nrf_timer_set_ocmp+0x60>
    NVIC->ISPR[(((uint32_t)IRQn) >> 5UL)] = (uint32_t)(1UL << (((uint32_t)IRQn) & 0x1FUL));
    13e8:	f002 021f 	and.w	r2, r2, #31
    13ec:	095b      	lsrs	r3, r3, #5
    13ee:	2101      	movs	r1, #1
    13f0:	fa01 f202 	lsl.w	r2, r1, r2
    13f4:	3340      	adds	r3, #64	; 0x40
    13f6:	491b      	ldr	r1, [pc, #108]	; (1464 <nrf_timer_set_ocmp+0xb0>)
    13f8:	f841 2023 	str.w	r2, [r1, r3, lsl #2]
    13fc:	e00a      	b.n	1414 <nrf_timer_set_ocmp+0x60>
        } else  {
            if (delta_t < (1UL << 24)) {
    13fe:	f1b3 7f80 	cmp.w	r3, #16777216	; 0x1000000
    1402:	d208      	bcs.n	1416 <nrf_timer_set_ocmp+0x62>
                rtctimer->CC[NRF_RTC_TIMER_CC_INT] = expiry & 0x00ffffff;
    1404:	f021 417f 	bic.w	r1, r1, #4278190080	; 0xff000000
    1408:	f8c2 1548 	str.w	r1, [r2, #1352]	; 0x548
            } else {
                /* CC too far ahead. Just make sure we set compare far ahead */
                rtctimer->CC[NRF_RTC_TIMER_CC_INT] = cntr + (1UL << 23);
            }
            rtctimer->INTENSET = NRF_TIMER_INT_MASK(NRF_RTC_TIMER_CC_INT);
    140c:	f44f 2380 	mov.w	r3, #262144	; 0x40000
    1410:	f8c2 3304 	str.w	r3, [r2, #772]	; 0x304
        /* Force interrupt to occur as we may have missed it */
        if ((int32_t)(nrf_read_timer_cntr(hwtimer) - expiry) >= 0) {
            NVIC_SetPendingIRQ(bsptimer->tmr_irq_num);
        }
    }
}
    1414:	bd38      	pop	{r3, r4, r5, pc}
                rtctimer->CC[NRF_RTC_TIMER_CC_INT] = cntr + (1UL << 23);
    1416:	f504 0400 	add.w	r4, r4, #8388608	; 0x800000
    141a:	f8c2 4548 	str.w	r4, [r2, #1352]	; 0x548
    141e:	e7f5      	b.n	140c <nrf_timer_set_ocmp+0x58>
    1420:	460d      	mov	r5, r1
    1422:	4604      	mov	r4, r0
        hwtimer = bsptimer->tmr_reg;
    1424:	6900      	ldr	r0, [r0, #16]
        hwtimer->INTENCLR = NRF_TIMER_INT_MASK(NRF_TIMER_CC_INT);
    1426:	f44f 2300 	mov.w	r3, #524288	; 0x80000
    142a:	f8c0 3308 	str.w	r3, [r0, #776]	; 0x308
        hwtimer->CC[NRF_TIMER_CC_INT] = expiry;
    142e:	f8c0 154c 	str.w	r1, [r0, #1356]	; 0x54c
        hwtimer->EVENTS_COMPARE[NRF_TIMER_CC_INT] = 0;
    1432:	2200      	movs	r2, #0
    1434:	f8c0 214c 	str.w	r2, [r0, #332]	; 0x14c
        hwtimer->INTENSET = NRF_TIMER_INT_MASK(NRF_TIMER_CC_INT);
    1438:	f8c0 3304 	str.w	r3, [r0, #772]	; 0x304
        if ((int32_t)(nrf_read_timer_cntr(hwtimer) - expiry) >= 0) {
    143c:	f7ff ffb4 	bl	13a8 <nrf_read_timer_cntr>
    1440:	1b40      	subs	r0, r0, r5
    1442:	2800      	cmp	r0, #0
    1444:	dbe6      	blt.n	1414 <nrf_timer_set_ocmp+0x60>
            NVIC_SetPendingIRQ(bsptimer->tmr_irq_num);
    1446:	7862      	ldrb	r2, [r4, #1]
    1448:	b253      	sxtb	r3, r2
  if ((int32_t)(IRQn) >= 0)
    144a:	2b00      	cmp	r3, #0
    144c:	dbe2      	blt.n	1414 <nrf_timer_set_ocmp+0x60>
    NVIC->ISPR[(((uint32_t)IRQn) >> 5UL)] = (uint32_t)(1UL << (((uint32_t)IRQn) & 0x1FUL));
    144e:	f002 021f 	and.w	r2, r2, #31
    1452:	095b      	lsrs	r3, r3, #5
    1454:	2101      	movs	r1, #1
    1456:	fa01 f202 	lsl.w	r2, r1, r2
    145a:	3340      	adds	r3, #64	; 0x40
    145c:	4901      	ldr	r1, [pc, #4]	; (1464 <nrf_timer_set_ocmp+0xb0>)
    145e:	f841 2023 	str.w	r2, [r1, r3, lsl #2]
}
    1462:	e7d7      	b.n	1414 <nrf_timer_set_ocmp+0x60>
    1464:	e000e100 	.word	0xe000e100

00001468 <nrf_timer_disable_ocmp>:

/* Disable output compare used for timer */
static void
nrf_timer_disable_ocmp(NRF_TIMER_Type *hwtimer)
{
    hwtimer->INTENCLR = NRF_TIMER_INT_MASK(NRF_TIMER_CC_INT);
    1468:	f44f 2300 	mov.w	r3, #524288	; 0x80000
    146c:	f8c0 3308 	str.w	r3, [r0, #776]	; 0x308
}
    1470:	4770      	bx	lr

00001472 <nrf_rtc_disable_ocmp>:

static void
nrf_rtc_disable_ocmp(NRF_RTC_Type *rtctimer)
{
    rtctimer->INTENCLR = NRF_TIMER_INT_MASK(NRF_RTC_TIMER_CC_INT);
    1472:	f44f 2380 	mov.w	r3, #262144	; 0x40000
    1476:	f8c0 3308 	str.w	r3, [r0, #776]	; 0x308
}
    147a:	4770      	bx	lr

0000147c <hal_timer_read_bsptimer>:

static uint32_t
hal_timer_read_bsptimer(struct nrf52_hal_timer *bsptimer)
{
    147c:	b430      	push	{r4, r5}
    uint32_t low32;
    uint32_t ctx;
    uint32_t tcntr;
    NRF_RTC_Type *rtctimer;

    rtctimer = (NRF_RTC_Type *)bsptimer->tmr_reg;
    147e:	6902      	ldr	r2, [r0, #16]
  __ASM volatile ("MRS %0, primask" : "=r" (result) :: "memory");
    1480:	f3ef 8410 	mrs	r4, PRIMASK
  __ASM volatile ("cpsid i" : : : "memory");
    1484:	b672      	cpsid	i
    __HAL_DISABLE_INTERRUPTS(ctx);
    tcntr = bsptimer->tmr_cntr;
    1486:	6841      	ldr	r1, [r0, #4]
    low32 = rtctimer->COUNTER;
    1488:	f8d2 3504 	ldr.w	r3, [r2, #1284]	; 0x504
    if (rtctimer->EVENTS_OVRFLW) {
    148c:	f8d2 5104 	ldr.w	r5, [r2, #260]	; 0x104
    1490:	b1ad      	cbz	r5, 14be <hal_timer_read_bsptimer+0x42>
        tcntr += (1UL << 24);
    1492:	f101 7180 	add.w	r1, r1, #16777216	; 0x1000000
        bsptimer->tmr_cntr = tcntr;
    1496:	6041      	str	r1, [r0, #4]
        low32 = rtctimer->COUNTER;
    1498:	f8d2 3504 	ldr.w	r3, [r2, #1284]	; 0x504
        rtctimer->EVENTS_OVRFLW = 0;
    149c:	2500      	movs	r5, #0
    149e:	f8c2 5104 	str.w	r5, [r2, #260]	; 0x104
        NVIC_SetPendingIRQ(bsptimer->tmr_irq_num);
    14a2:	7840      	ldrb	r0, [r0, #1]
    14a4:	b242      	sxtb	r2, r0
  if ((int32_t)(IRQn) >= 0)
    14a6:	42aa      	cmp	r2, r5
    14a8:	db09      	blt.n	14be <hal_timer_read_bsptimer+0x42>
    NVIC->ISPR[(((uint32_t)IRQn) >> 5UL)] = (uint32_t)(1UL << (((uint32_t)IRQn) & 0x1FUL));
    14aa:	f000 001f 	and.w	r0, r0, #31
    14ae:	0952      	lsrs	r2, r2, #5
    14b0:	2501      	movs	r5, #1
    14b2:	fa05 f000 	lsl.w	r0, r5, r0
    14b6:	3240      	adds	r2, #64	; 0x40
    14b8:	4d04      	ldr	r5, [pc, #16]	; (14cc <hal_timer_read_bsptimer+0x50>)
    14ba:	f845 0022 	str.w	r0, [r5, r2, lsl #2]
    }
    tcntr |= low32;
    14be:	ea43 0001 	orr.w	r0, r3, r1
    __HAL_ENABLE_INTERRUPTS(ctx);
    14c2:	b904      	cbnz	r4, 14c6 <hal_timer_read_bsptimer+0x4a>
  __ASM volatile ("cpsie i" : : : "memory");
    14c4:	b662      	cpsie	i

    return tcntr;
}
    14c6:	bc30      	pop	{r4, r5}
    14c8:	4770      	bx	lr
    14ca:	bf00      	nop
    14cc:	e000e100 	.word	0xe000e100

000014d0 <hal_timer_chk_queue>:
 *
 * @param bsptimer
 */
static void
hal_timer_chk_queue(struct nrf52_hal_timer *bsptimer)
{
    14d0:	b570      	push	{r4, r5, r6, lr}
    14d2:	4605      	mov	r5, r0
  __ASM volatile ("MRS %0, primask" : "=r" (result) :: "memory");
    14d4:	f3ef 8610 	mrs	r6, PRIMASK
  __ASM volatile ("cpsid i" : : : "memory");
    14d8:	b672      	cpsid	i
    14da:	e013      	b.n	1504 <hal_timer_chk_queue+0x34>
             * If we are within 3 ticks of RTC, we wont be able to set compare.
             * Thus, we have to service this timer early.
             */
            delta = -3;
        } else {
            tcntr = nrf_read_timer_cntr(bsptimer->tmr_reg);
    14dc:	6928      	ldr	r0, [r5, #16]
    14de:	f7ff ff63 	bl	13a8 <nrf_read_timer_cntr>
            delta = 0;
    14e2:	2200      	movs	r2, #0
        }
        if ((int32_t)(tcntr - timer->expiry) >= delta) {
    14e4:	68e3      	ldr	r3, [r4, #12]
    14e6:	1ac0      	subs	r0, r0, r3
    14e8:	4290      	cmp	r0, r2
    14ea:	db19      	blt.n	1520 <hal_timer_chk_queue+0x50>
            TAILQ_REMOVE(&bsptimer->hal_timer_q, timer, link);
    14ec:	6923      	ldr	r3, [r4, #16]
    14ee:	b1a3      	cbz	r3, 151a <hal_timer_chk_queue+0x4a>
    14f0:	6962      	ldr	r2, [r4, #20]
    14f2:	615a      	str	r2, [r3, #20]
    14f4:	6963      	ldr	r3, [r4, #20]
    14f6:	6922      	ldr	r2, [r4, #16]
    14f8:	601a      	str	r2, [r3, #0]
            timer->link.tqe_prev = NULL;
    14fa:	2300      	movs	r3, #0
    14fc:	6163      	str	r3, [r4, #20]
            timer->cb_func(timer->cb_arg);
    14fe:	6863      	ldr	r3, [r4, #4]
    1500:	68a0      	ldr	r0, [r4, #8]
    1502:	4798      	blx	r3
    while ((timer = TAILQ_FIRST(&bsptimer->hal_timer_q)) != NULL) {
    1504:	696c      	ldr	r4, [r5, #20]
    1506:	b15c      	cbz	r4, 1520 <hal_timer_chk_queue+0x50>
        if (bsptimer->tmr_rtc) {
    1508:	78ab      	ldrb	r3, [r5, #2]
    150a:	2b00      	cmp	r3, #0
    150c:	d0e6      	beq.n	14dc <hal_timer_chk_queue+0xc>
            tcntr = hal_timer_read_bsptimer(bsptimer);
    150e:	4628      	mov	r0, r5
    1510:	f7ff ffb4 	bl	147c <hal_timer_read_bsptimer>
            delta = -3;
    1514:	f06f 0202 	mvn.w	r2, #2
    1518:	e7e4      	b.n	14e4 <hal_timer_chk_queue+0x14>
            TAILQ_REMOVE(&bsptimer->hal_timer_q, timer, link);
    151a:	6963      	ldr	r3, [r4, #20]
    151c:	61ab      	str	r3, [r5, #24]
    151e:	e7e9      	b.n	14f4 <hal_timer_chk_queue+0x24>
            break;
        }
    }

    /* Any timers left on queue? If so, we need to set OCMP */
    timer = TAILQ_FIRST(&bsptimer->hal_timer_q);
    1520:	696b      	ldr	r3, [r5, #20]
    if (timer) {
    1522:	b133      	cbz	r3, 1532 <hal_timer_chk_queue+0x62>
        nrf_timer_set_ocmp(bsptimer, timer->expiry);
    1524:	68d9      	ldr	r1, [r3, #12]
    1526:	4628      	mov	r0, r5
    1528:	f7ff ff44 	bl	13b4 <nrf_timer_set_ocmp>
            nrf_rtc_disable_ocmp((NRF_RTC_Type *)bsptimer->tmr_reg);
        } else {
            nrf_timer_disable_ocmp(bsptimer->tmr_reg);
        }
    }
    __HAL_ENABLE_INTERRUPTS(ctx);
    152c:	b906      	cbnz	r6, 1530 <hal_timer_chk_queue+0x60>
  __ASM volatile ("cpsie i" : : : "memory");
    152e:	b662      	cpsie	i
}
    1530:	bd70      	pop	{r4, r5, r6, pc}
        if (bsptimer->tmr_rtc) {
    1532:	78ab      	ldrb	r3, [r5, #2]
    1534:	b11b      	cbz	r3, 153e <hal_timer_chk_queue+0x6e>
            nrf_rtc_disable_ocmp((NRF_RTC_Type *)bsptimer->tmr_reg);
    1536:	6928      	ldr	r0, [r5, #16]
    1538:	f7ff ff9b 	bl	1472 <nrf_rtc_disable_ocmp>
    153c:	e7f6      	b.n	152c <hal_timer_chk_queue+0x5c>
            nrf_timer_disable_ocmp(bsptimer->tmr_reg);
    153e:	6928      	ldr	r0, [r5, #16]
    1540:	f7ff ff92 	bl	1468 <nrf_timer_disable_ocmp>
    1544:	e7f2      	b.n	152c <hal_timer_chk_queue+0x5c>

00001546 <hal_timer_irq_handler>:
#if (MYNEWT_VAL(TIMER_0) || MYNEWT_VAL(TIMER_1) || MYNEWT_VAL(TIMER_2) || \
     MYNEWT_VAL(TIMER_3) || MYNEWT_VAL(TIMER_4))

static void
hal_timer_irq_handler(struct nrf52_hal_timer *bsptimer)
{
    1546:	b510      	push	{r4, lr}
    NRF_TIMER_Type *hwtimer;

    os_trace_isr_enter();

    /* Check interrupt source. If set, clear them */
    hwtimer = bsptimer->tmr_reg;
    1548:	6904      	ldr	r4, [r0, #16]
    compare = hwtimer->EVENTS_COMPARE[NRF_TIMER_CC_INT];
    154a:	f8d4 314c 	ldr.w	r3, [r4, #332]	; 0x14c
    if (compare) {
    154e:	b113      	cbz	r3, 1556 <hal_timer_irq_handler+0x10>
        hwtimer->EVENTS_COMPARE[NRF_TIMER_CC_INT] = 0;
    1550:	2300      	movs	r3, #0
    1552:	f8c4 314c 	str.w	r3, [r4, #332]	; 0x14c
    }

    /* XXX: make these stats? */
    /* Count # of timer isrs */
    ++bsptimer->timer_isrs;
    1556:	6883      	ldr	r3, [r0, #8]
    1558:	3301      	adds	r3, #1
    155a:	6083      	str	r3, [r0, #8]
     * counter is already passed the output compare value), we use the NVIC
     * to set a pending interrupt. This means that there will be no compare
     * flag set, so all we do is check to see if the compare interrupt is
     * enabled.
     */
    if (hwtimer->INTENCLR & NRF_TIMER_INT_MASK(NRF_TIMER_CC_INT)) {
    155c:	f8d4 3308 	ldr.w	r3, [r4, #776]	; 0x308
    1560:	f413 2f00 	tst.w	r3, #524288	; 0x80000
    1564:	d100      	bne.n	1568 <hal_timer_irq_handler+0x22>
        /* XXX: Recommended by nordic to make sure interrupts are cleared */
        compare = hwtimer->EVENTS_COMPARE[NRF_TIMER_CC_INT];
    }

    os_trace_isr_exit();
}
    1566:	bd10      	pop	{r4, pc}
        hal_timer_chk_queue(bsptimer);
    1568:	f7ff ffb2 	bl	14d0 <hal_timer_chk_queue>
        compare = hwtimer->EVENTS_COMPARE[NRF_TIMER_CC_INT];
    156c:	f8d4 314c 	ldr.w	r3, [r4, #332]	; 0x14c
}
    1570:	e7f9      	b.n	1566 <hal_timer_irq_handler+0x20>
	...

00001574 <nrf52_timer0_irq_handler>:
#endif

#if MYNEWT_VAL(TIMER_0)
void
nrf52_timer0_irq_handler(void)
{
    1574:	b508      	push	{r3, lr}
    hal_timer_irq_handler(&nrf52_hal_timer0);
    1576:	4802      	ldr	r0, [pc, #8]	; (1580 <nrf52_timer0_irq_handler+0xc>)
    1578:	f7ff ffe5 	bl	1546 <hal_timer_irq_handler>
}
    157c:	bd08      	pop	{r3, pc}
    157e:	bf00      	nop
    1580:	200063e4 	.word	0x200063e4

00001584 <hal_timer_init>:
    uint8_t irq_num;
    struct nrf52_hal_timer *bsptimer;
    void *hwtimer;
    hal_timer_irq_handler_t irq_isr;

    NRF52_HAL_TIMER_RESOLVE(timer_num, bsptimer);
    1584:	2805      	cmp	r0, #5
    1586:	dc1c      	bgt.n	15c2 <hal_timer_init+0x3e>
    1588:	4b12      	ldr	r3, [pc, #72]	; (15d4 <hal_timer_init+0x50>)
    158a:	f853 3020 	ldr.w	r3, [r3, r0, lsl #2]
    158e:	b1d3      	cbz	r3, 15c6 <hal_timer_init+0x42>

    /* If timer is enabled do not allow init */
    if (bsptimer->tmr_enabled) {
    1590:	781a      	ldrb	r2, [r3, #0]
    1592:	b9d2      	cbnz	r2, 15ca <hal_timer_init+0x46>
        rc = EINVAL;
        goto err;
    }

    switch (timer_num) {
    1594:	b9d8      	cbnz	r0, 15ce <hal_timer_init+0x4a>
    if (hwtimer == NULL) {
        rc = EINVAL;
        goto err;
    }

    bsptimer->tmr_reg = hwtimer;
    1596:	4a10      	ldr	r2, [pc, #64]	; (15d8 <hal_timer_init+0x54>)
    1598:	611a      	str	r2, [r3, #16]
    bsptimer->tmr_irq_num = irq_num;
    159a:	2208      	movs	r2, #8
    159c:	705a      	strb	r2, [r3, #1]
    NVIC->ICER[(((uint32_t)IRQn) >> 5UL)] = (uint32_t)(1UL << (((uint32_t)IRQn) & 0x1FUL));
    159e:	4b0f      	ldr	r3, [pc, #60]	; (15dc <hal_timer_init+0x58>)
    15a0:	f44f 7280 	mov.w	r2, #256	; 0x100
    15a4:	f8c3 2080 	str.w	r2, [r3, #128]	; 0x80
  __ASM volatile ("dsb 0xF":::"memory");
    15a8:	f3bf 8f4f 	dsb	sy
  __ASM volatile ("isb 0xF":::"memory");
    15ac:	f3bf 8f6f 	isb	sy
    NVIC->IP[((uint32_t)IRQn)]               = (uint8_t)((priority << (8U - __NVIC_PRIO_BITS)) & (uint32_t)0xFFUL);
    15b0:	22e0      	movs	r2, #224	; 0xe0
    15b2:	f883 2308 	strb.w	r2, [r3, #776]	; 0x308
  uint32_t vectors = (uint32_t )SCB->VTOR;
    15b6:	f503 6340 	add.w	r3, r3, #3072	; 0xc00
    15ba:	689b      	ldr	r3, [r3, #8]
  (* (int *) (vectors + ((int32_t)IRQn + NVIC_USER_IRQ_OFFSET) * 4)) = vector;
    15bc:	4a08      	ldr	r2, [pc, #32]	; (15e0 <hal_timer_init+0x5c>)
    15be:	661a      	str	r2, [r3, #96]	; 0x60
    /* Disable IRQ, set priority and set vector in table */
    NVIC_DisableIRQ(irq_num);
    NVIC_SetPriority(irq_num, (1 << __NVIC_PRIO_BITS) - 1);
    NVIC_SetVector(irq_num, (uint32_t)irq_isr);

    return 0;
    15c0:	4770      	bx	lr

err:
    return rc;
    15c2:	2016      	movs	r0, #22
    15c4:	4770      	bx	lr
    15c6:	2016      	movs	r0, #22
    15c8:	4770      	bx	lr
    15ca:	2016      	movs	r0, #22
    15cc:	4770      	bx	lr
    15ce:	2016      	movs	r0, #22
}
    15d0:	4770      	bx	lr
    15d2:	bf00      	nop
    15d4:	00005270 	.word	0x00005270
    15d8:	40008000 	.word	0x40008000
    15dc:	e000e100 	.word	0xe000e100
    15e0:	00001575 	.word	0x00001575

000015e4 <hal_timer_config>:
    NRF_TIMER_Type *hwtimer;
#if MYNEWT_VAL(TIMER_5)
    NRF_RTC_Type *rtctimer;
#endif

    NRF52_HAL_TIMER_RESOLVE(timer_num, bsptimer);
    15e4:	2805      	cmp	r0, #5
    15e6:	dc65      	bgt.n	16b4 <hal_timer_config+0xd0>
    15e8:	4b39      	ldr	r3, [pc, #228]	; (16d0 <hal_timer_config+0xec>)
    15ea:	f853 0020 	ldr.w	r0, [r3, r0, lsl #2]
    15ee:	2800      	cmp	r0, #0
    15f0:	d062      	beq.n	16b8 <hal_timer_config+0xd4>
        return 0;
    }
#endif

    /* Set timer to desired frequency */
    div = NRF52_MAX_TIMER_FREQ / freq_hz;
    15f2:	4b38      	ldr	r3, [pc, #224]	; (16d4 <hal_timer_config+0xf0>)
    15f4:	fbb3 f1f1 	udiv	r1, r3, r1
    /*
     * Largest prescaler is 2^9 and must make sure frequency not too high.
     * If hwtimer is NULL it means that the timer was not initialized prior
     * to call.
     */
    if (bsptimer->tmr_enabled || (div == 0) || (div > 512) ||
    15f8:	7803      	ldrb	r3, [r0, #0]
    15fa:	2b00      	cmp	r3, #0
    15fc:	d15e      	bne.n	16bc <hal_timer_config+0xd8>
    15fe:	2900      	cmp	r1, #0
    1600:	d05e      	beq.n	16c0 <hal_timer_config+0xdc>
    1602:	f5b1 7f00 	cmp.w	r1, #512	; 0x200
    1606:	d85d      	bhi.n	16c4 <hal_timer_config+0xe0>
        (bsptimer->tmr_reg == NULL)) {
    1608:	6902      	ldr	r2, [r0, #16]
    if (bsptimer->tmr_enabled || (div == 0) || (div > 512) ||
    160a:	2a00      	cmp	r2, #0
    160c:	d05c      	beq.n	16c8 <hal_timer_config+0xe4>
{
    160e:	b430      	push	{r4, r5}
        rc = EINVAL;
        goto err;
    }

    if (div == 1) {
    1610:	2901      	cmp	r1, #1
    1612:	d013      	beq.n	163c <hal_timer_config+0x58>
        prescaler = 0;
    } else {
        /* Find closest prescaler */
        for (prescaler = 1; prescaler < 10; ++prescaler) {
    1614:	2301      	movs	r3, #1
    1616:	2b09      	cmp	r3, #9
    1618:	d810      	bhi.n	163c <hal_timer_config+0x58>
            if (div <= (1 << prescaler)) {
    161a:	2201      	movs	r2, #1
    161c:	409a      	lsls	r2, r3
    161e:	428a      	cmp	r2, r1
    1620:	d202      	bcs.n	1628 <hal_timer_config+0x44>
        for (prescaler = 1; prescaler < 10; ++prescaler) {
    1622:	3301      	adds	r3, #1
    1624:	b2db      	uxtb	r3, r3
    1626:	e7f6      	b.n	1616 <hal_timer_config+0x32>
                min_delta = div - (1 << (prescaler - 1));
    1628:	1e5c      	subs	r4, r3, #1
    162a:	2501      	movs	r5, #1
    162c:	fa05 f404 	lsl.w	r4, r5, r4
    1630:	1b0c      	subs	r4, r1, r4
                max_delta = (1 << prescaler) - div;
    1632:	1a51      	subs	r1, r2, r1
                if (min_delta < max_delta) {
    1634:	428c      	cmp	r4, r1
    1636:	d201      	bcs.n	163c <hal_timer_config+0x58>
                    prescaler -= 1;
    1638:	3b01      	subs	r3, #1
    163a:	b2db      	uxtb	r3, r3
            }
        }
    }

    /* Now set the actual frequency */
    bsptimer->tmr_freq = NRF52_MAX_TIMER_FREQ / (1 << prescaler);
    163c:	4a25      	ldr	r2, [pc, #148]	; (16d4 <hal_timer_config+0xf0>)
    163e:	411a      	asrs	r2, r3
    1640:	60c2      	str	r2, [r0, #12]
    bsptimer->tmr_enabled = 1;
    1642:	2201      	movs	r2, #1
    1644:	7002      	strb	r2, [r0, #0]
  __ASM volatile ("MRS %0, primask" : "=r" (result) :: "memory");
    1646:	f3ef 8410 	mrs	r4, PRIMASK
  __ASM volatile ("cpsid i" : : : "memory");
    164a:	b672      	cpsid	i

    /* disable interrupts */
    __HAL_DISABLE_INTERRUPTS(ctx);

    /* Make sure HFXO is started */
    if ((NRF_CLOCK->HFCLKSTAT &
    164c:	f04f 4280 	mov.w	r2, #1073741824	; 0x40000000
    1650:	f8d2 240c 	ldr.w	r2, [r2, #1036]	; 0x40c
    1654:	f002 1201 	and.w	r2, r2, #65537	; 0x10001
    1658:	f1b2 1f01 	cmp.w	r2, #65537	; 0x10001
    165c:	d00c      	beq.n	1678 <hal_timer_config+0x94>
         (CLOCK_HFCLKSTAT_SRC_Msk | CLOCK_HFCLKSTAT_STATE_Msk)) !=
        (CLOCK_HFCLKSTAT_SRC_Msk | CLOCK_HFCLKSTAT_STATE_Msk)) {
        NRF_CLOCK->EVENTS_HFCLKSTARTED = 0;
    165e:	f04f 4280 	mov.w	r2, #1073741824	; 0x40000000
    1662:	2100      	movs	r1, #0
    1664:	f8c2 1100 	str.w	r1, [r2, #256]	; 0x100
        NRF_CLOCK->TASKS_HFCLKSTART = 1;
    1668:	2101      	movs	r1, #1
    166a:	6011      	str	r1, [r2, #0]
        while (1) {
            if ((NRF_CLOCK->EVENTS_HFCLKSTARTED) != 0) {
    166c:	f04f 4280 	mov.w	r2, #1073741824	; 0x40000000
    1670:	f8d2 2100 	ldr.w	r2, [r2, #256]	; 0x100
    1674:	2a00      	cmp	r2, #0
    1676:	d0f9      	beq.n	166c <hal_timer_config+0x88>
                break;
            }
        }
    }
    hwtimer = bsptimer->tmr_reg;
    1678:	6902      	ldr	r2, [r0, #16]

    /* Stop the timer first */
    hwtimer->TASKS_STOP = 1;
    167a:	2101      	movs	r1, #1
    167c:	6051      	str	r1, [r2, #4]
    hwtimer->TASKS_CLEAR = 1;
    167e:	60d1      	str	r1, [r2, #12]

    /* Put the timer in timer mode using 32 bits. */
    hwtimer->MODE = TIMER_MODE_MODE_Timer;
    1680:	2500      	movs	r5, #0
    1682:	f8c2 5504 	str.w	r5, [r2, #1284]	; 0x504
    hwtimer->BITMODE = TIMER_BITMODE_BITMODE_32Bit;
    1686:	2503      	movs	r5, #3
    1688:	f8c2 5508 	str.w	r5, [r2, #1288]	; 0x508

    /* Set the pre-scalar */
    hwtimer->PRESCALER = prescaler;
    168c:	f8c2 3510 	str.w	r3, [r2, #1296]	; 0x510

    /* Start the timer */
    hwtimer->TASKS_START = 1;
    1690:	6011      	str	r1, [r2, #0]

    NVIC_EnableIRQ(bsptimer->tmr_irq_num);
    1692:	7842      	ldrb	r2, [r0, #1]
    1694:	b253      	sxtb	r3, r2
  if ((int32_t)(IRQn) >= 0)
    1696:	2b00      	cmp	r3, #0
    1698:	db07      	blt.n	16aa <hal_timer_config+0xc6>
    NVIC->ISER[(((uint32_t)IRQn) >> 5UL)] = (uint32_t)(1UL << (((uint32_t)IRQn) & 0x1FUL));
    169a:	f002 021f 	and.w	r2, r2, #31
    169e:	095b      	lsrs	r3, r3, #5
    16a0:	fa01 f202 	lsl.w	r2, r1, r2
    16a4:	490c      	ldr	r1, [pc, #48]	; (16d8 <hal_timer_config+0xf4>)
    16a6:	f841 2023 	str.w	r2, [r1, r3, lsl #2]

    __HAL_ENABLE_INTERRUPTS(ctx);
    16aa:	b97c      	cbnz	r4, 16cc <hal_timer_config+0xe8>
  __ASM volatile ("cpsie i" : : : "memory");
    16ac:	b662      	cpsie	i

    return 0;
    16ae:	2000      	movs	r0, #0

err:
    return rc;
}
    16b0:	bc30      	pop	{r4, r5}
    16b2:	4770      	bx	lr
    return rc;
    16b4:	2016      	movs	r0, #22
    16b6:	4770      	bx	lr
    16b8:	2016      	movs	r0, #22
    16ba:	4770      	bx	lr
    16bc:	2016      	movs	r0, #22
    16be:	4770      	bx	lr
    16c0:	2016      	movs	r0, #22
    16c2:	4770      	bx	lr
    16c4:	2016      	movs	r0, #22
    16c6:	4770      	bx	lr
    16c8:	2016      	movs	r0, #22
}
    16ca:	4770      	bx	lr
    return 0;
    16cc:	2000      	movs	r0, #0
    16ce:	e7ef      	b.n	16b0 <hal_timer_config+0xcc>
    16d0:	00005270 	.word	0x00005270
    16d4:	00f42400 	.word	0x00f42400
    16d8:	e000e100 	.word	0xe000e100

000016dc <hal_timer_read>:
 *
 * @return uint32_t The timer counter register.
 */
uint32_t
hal_timer_read(int timer_num)
{
    16dc:	b508      	push	{r3, lr}
    int rc;
    uint32_t tcntr;
    struct nrf52_hal_timer *bsptimer;

    NRF52_HAL_TIMER_RESOLVE(timer_num, bsptimer);
    16de:	2805      	cmp	r0, #5
    16e0:	dc0c      	bgt.n	16fc <hal_timer_read+0x20>
    16e2:	4b09      	ldr	r3, [pc, #36]	; (1708 <hal_timer_read+0x2c>)
    16e4:	f853 0020 	ldr.w	r0, [r3, r0, lsl #2]
    16e8:	b140      	cbz	r0, 16fc <hal_timer_read+0x20>
    if (bsptimer->tmr_rtc) {
    16ea:	7883      	ldrb	r3, [r0, #2]
    16ec:	b91b      	cbnz	r3, 16f6 <hal_timer_read+0x1a>
        tcntr = hal_timer_read_bsptimer(bsptimer);
    } else {
        tcntr = nrf_read_timer_cntr(bsptimer->tmr_reg);
    16ee:	6900      	ldr	r0, [r0, #16]
    16f0:	f7ff fe5a 	bl	13a8 <nrf_read_timer_cntr>
    /* Assert here since there is no invalid return code */
err:
    assert(0);
    rc = 0;
    return rc;
}
    16f4:	bd08      	pop	{r3, pc}
        tcntr = hal_timer_read_bsptimer(bsptimer);
    16f6:	f7ff fec1 	bl	147c <hal_timer_read_bsptimer>
    16fa:	e7fb      	b.n	16f4 <hal_timer_read+0x18>
    assert(0);
    16fc:	2300      	movs	r3, #0
    16fe:	461a      	mov	r2, r3
    1700:	4619      	mov	r1, r3
    1702:	4618      	mov	r0, r3
    1704:	f000 f802 	bl	170c <__assert_func>
    1708:	00005270 	.word	0x00005270

0000170c <__assert_func>:
}
#endif

void
__assert_func(const char *file, int line, const char *func, const char *e)
{
    170c:	b508      	push	{r3, lr}
    170e:	4675      	mov	r5, lr
    1710:	4604      	mov	r4, r0
    1712:	460e      	mov	r6, r1
#if MYNEWT_VAL(OS_CRASH_LOG)
    struct log_reboot_info lri;
#endif
    int sr;

    OS_ENTER_CRITICAL(sr);
    1714:	f000 f8b5 	bl	1882 <os_arch_save_sr>
    (void)sr;
    console_blocking_mode();
    1718:	f000 fe1b 	bl	2352 <console_blocking_mode>
    OS_PRINT_ASSERT(file, line, func, e);
    171c:	b18c      	cbz	r4, 1742 <__assert_func+0x36>
    171e:	4633      	mov	r3, r6
    1720:	4622      	mov	r2, r4
    1722:	4629      	mov	r1, r5
    1724:	4809      	ldr	r0, [pc, #36]	; (174c <__assert_func+0x40>)
    1726:	f000 fe35 	bl	2394 <console_printf>

#if MYNEWT_VAL(OS_ASSERT_CB)
    os_assert_cb();
#endif

    if (hal_debugger_connected()) {
    172a:	f7fe fd1b 	bl	164 <hal_debugger_connected>
    172e:	b100      	cbz	r0, 1732 <__assert_func+0x26>
       /*
        * If debugger is attached, breakpoint before the trap.
        */
#if !MYNEWT_VAL(MCU_DEBUG_IGNORE_BKPT)
       asm("bkpt");
    1730:	be00      	bkpt	0x0000
#endif
    }
    SCB->ICSR = SCB_ICSR_NMIPENDSET_Msk;
    1732:	4b07      	ldr	r3, [pc, #28]	; (1750 <__assert_func+0x44>)
    1734:	f04f 4200 	mov.w	r2, #2147483648	; 0x80000000
    1738:	605a      	str	r2, [r3, #4]
    asm("isb");
    173a:	f3bf 8f6f 	isb	sy
    hal_system_reset();
    173e:	f7fe fd19 	bl	174 <hal_system_reset>
    OS_PRINT_ASSERT(file, line, func, e);
    1742:	4629      	mov	r1, r5
    1744:	4803      	ldr	r0, [pc, #12]	; (1754 <__assert_func+0x48>)
    1746:	f000 fe25 	bl	2394 <console_printf>
    174a:	e7ee      	b.n	172a <__assert_func+0x1e>
    174c:	00005298 	.word	0x00005298
    1750:	e000ed00 	.word	0xe000ed00
    1754:	00005288 	.word	0x00005288

00001758 <os_default_irq>:
}

void
os_default_irq(struct trap_frame *tf)
{
    1758:	b500      	push	{lr}
    175a:	b083      	sub	sp, #12
    175c:	4604      	mov	r4, r0
#endif
#if MYNEWT_VAL(OS_CRASH_RESTORE_REGS)
    uint32_t orig_sp;
#endif

    console_blocking_mode();
    175e:	f000 fdf8 	bl	2352 <console_blocking_mode>
    console_printf("Unhandled interrupt (%ld), exception sp 0x%08lx\n",
      SCB->ICSR & SCB_ICSR_VECTACTIVE_Msk, (uint32_t)tf->ef);
    1762:	4d1b      	ldr	r5, [pc, #108]	; (17d0 <os_default_irq+0x78>)
    1764:	6869      	ldr	r1, [r5, #4]
    console_printf("Unhandled interrupt (%ld), exception sp 0x%08lx\n",
    1766:	6822      	ldr	r2, [r4, #0]
    1768:	f3c1 0108 	ubfx	r1, r1, #0, #9
    176c:	4819      	ldr	r0, [pc, #100]	; (17d4 <os_default_irq+0x7c>)
    176e:	f000 fe11 	bl	2394 <console_printf>
    console_printf(" r0:0x%08lx  r1:0x%08lx  r2:0x%08lx  r3:0x%08lx\n",
      tf->ef->r0, tf->ef->r1, tf->ef->r2, tf->ef->r3);
    1772:	6820      	ldr	r0, [r4, #0]
    console_printf(" r0:0x%08lx  r1:0x%08lx  r2:0x%08lx  r3:0x%08lx\n",
    1774:	6883      	ldr	r3, [r0, #8]
    1776:	6842      	ldr	r2, [r0, #4]
    1778:	6801      	ldr	r1, [r0, #0]
    177a:	68c0      	ldr	r0, [r0, #12]
    177c:	9000      	str	r0, [sp, #0]
    177e:	4816      	ldr	r0, [pc, #88]	; (17d8 <os_default_irq+0x80>)
    1780:	f000 fe08 	bl	2394 <console_printf>
    console_printf(" r4:0x%08lx  r5:0x%08lx  r6:0x%08lx  r7:0x%08lx\n",
    1784:	6923      	ldr	r3, [r4, #16]
    1786:	9300      	str	r3, [sp, #0]
    1788:	68e3      	ldr	r3, [r4, #12]
    178a:	68a2      	ldr	r2, [r4, #8]
    178c:	6861      	ldr	r1, [r4, #4]
    178e:	4813      	ldr	r0, [pc, #76]	; (17dc <os_default_irq+0x84>)
    1790:	f000 fe00 	bl	2394 <console_printf>
      tf->r4, tf->r5, tf->r6, tf->r7);
    console_printf(" r8:0x%08lx  r9:0x%08lx r10:0x%08lx r11:0x%08lx\n",
    1794:	6a23      	ldr	r3, [r4, #32]
    1796:	9300      	str	r3, [sp, #0]
    1798:	69e3      	ldr	r3, [r4, #28]
    179a:	69a2      	ldr	r2, [r4, #24]
    179c:	6961      	ldr	r1, [r4, #20]
    179e:	4810      	ldr	r0, [pc, #64]	; (17e0 <os_default_irq+0x88>)
    17a0:	f000 fdf8 	bl	2394 <console_printf>
      tf->r8, tf->r9, tf->r10, tf->r11);
    console_printf("r12:0x%08lx  lr:0x%08lx  pc:0x%08lx psr:0x%08lx\n",
      tf->ef->r12, tf->ef->lr, tf->ef->pc, tf->ef->psr);
    17a4:	6820      	ldr	r0, [r4, #0]
    console_printf("r12:0x%08lx  lr:0x%08lx  pc:0x%08lx psr:0x%08lx\n",
    17a6:	6983      	ldr	r3, [r0, #24]
    17a8:	6942      	ldr	r2, [r0, #20]
    17aa:	6901      	ldr	r1, [r0, #16]
    17ac:	69c0      	ldr	r0, [r0, #28]
    17ae:	9000      	str	r0, [sp, #0]
    17b0:	480c      	ldr	r0, [pc, #48]	; (17e4 <os_default_irq+0x8c>)
    17b2:	f000 fdef 	bl	2394 <console_printf>
    console_printf("ICSR:0x%08lx HFSR:0x%08lx CFSR:0x%08lx\n",
    17b6:	6869      	ldr	r1, [r5, #4]
    17b8:	6aea      	ldr	r2, [r5, #44]	; 0x2c
    17ba:	6aab      	ldr	r3, [r5, #40]	; 0x28
    17bc:	480a      	ldr	r0, [pc, #40]	; (17e8 <os_default_irq+0x90>)
    17be:	f000 fde9 	bl	2394 <console_printf>
      SCB->ICSR, SCB->HFSR, SCB->CFSR);
    console_printf("BFAR:0x%08lx MMFAR:0x%08lx\n", SCB->BFAR, SCB->MMFAR);
    17c2:	6ba9      	ldr	r1, [r5, #56]	; 0x38
    17c4:	6b6a      	ldr	r2, [r5, #52]	; 0x34
    17c6:	4809      	ldr	r0, [pc, #36]	; (17ec <os_default_irq+0x94>)
    17c8:	f000 fde4 	bl	2394 <console_printf>
            : "r0"
        );
    }
#endif

    hal_system_reset();
    17cc:	f7fe fcd2 	bl	174 <hal_system_reset>
    17d0:	e000ed00 	.word	0xe000ed00
    17d4:	000052b0 	.word	0x000052b0
    17d8:	000052e4 	.word	0x000052e4
    17dc:	00005318 	.word	0x00005318
    17e0:	0000534c 	.word	0x0000534c
    17e4:	00005380 	.word	0x00005380
    17e8:	000053b4 	.word	0x000053b4
    17ec:	000053dc 	.word	0x000053dc

000017f0 <os_cputime_init>:
struct os_cputime_data g_os_cputime;
#endif

int
os_cputime_init(uint32_t clock_freq)
{
    17f0:	b508      	push	{r3, lr}

    /* Set the ticks per microsecond. */
#if defined(OS_CPUTIME_FREQ_HIGH)
    g_os_cputime.ticks_per_usec = clock_freq / 1000000U;
#endif
    rc = hal_timer_config(MYNEWT_VAL(OS_CPUTIME_TIMER_NUM), clock_freq);
    17f2:	4601      	mov	r1, r0
    17f4:	2000      	movs	r0, #0
    17f6:	f7ff fef5 	bl	15e4 <hal_timer_config>
    return rc;
}
    17fa:	bd08      	pop	{r3, pc}

000017fc <os_cputime_get32>:
    hal_timer_stop(timer);
}

uint32_t
os_cputime_get32(void)
{
    17fc:	b508      	push	{r3, lr}
    uint32_t cpu_time;

    cpu_time = hal_timer_read(MYNEWT_VAL(OS_CPUTIME_TIMER_NUM));
    17fe:	2000      	movs	r0, #0
    1800:	f7ff ff6c 	bl	16dc <hal_timer_read>
    return cpu_time;
}
    1804:	bd08      	pop	{r3, pc}

00001806 <os_cputime_delay_ticks>:
{
    1806:	b510      	push	{r4, lr}
    1808:	4604      	mov	r4, r0
    until = os_cputime_get32() + ticks;
    180a:	f7ff fff7 	bl	17fc <os_cputime_get32>
    180e:	4404      	add	r4, r0
    while ((int32_t)(os_cputime_get32() - until) < 0) {
    1810:	f7ff fff4 	bl	17fc <os_cputime_get32>
    1814:	1b00      	subs	r0, r0, r4
    1816:	2800      	cmp	r0, #0
    1818:	dbfa      	blt.n	1810 <os_cputime_delay_ticks+0xa>
}
    181a:	bd10      	pop	{r4, pc}

0000181c <os_cputime_delay_usecs>:
{
    181c:	b508      	push	{r3, lr}
    os_cputime_delay_ticks(ticks);
    181e:	f7ff fff2 	bl	1806 <os_cputime_delay_ticks>
}
    1822:	bd08      	pop	{r3, pc}

00001824 <os_dev_initialize>:
 *
 * @return 0 on success, non-zero on failure.
 */
static int
os_dev_initialize(struct os_dev *dev)
{
    1824:	b510      	push	{r4, lr}
    1826:	4604      	mov	r4, r0
    int rc;

    rc = dev->od_init(dev, dev->od_init_arg);
    1828:	6903      	ldr	r3, [r0, #16]
    182a:	6941      	ldr	r1, [r0, #20]
    182c:	4798      	blx	r3
    if (rc != 0) {
    182e:	4603      	mov	r3, r0
    1830:	b128      	cbz	r0, 183e <os_dev_initialize+0x1a>
        if (dev->od_flags & OS_DEV_F_INIT_CRITICAL) {
    1832:	7ee2      	ldrb	r2, [r4, #27]
    1834:	f012 0f08 	tst.w	r2, #8
    1838:	d105      	bne.n	1846 <os_dev_initialize+0x22>
            goto err;
        }
    } else {
        dev->od_flags |= OS_DEV_F_STATUS_READY;
    }
    return 0;
    183a:	2300      	movs	r3, #0
    183c:	e003      	b.n	1846 <os_dev_initialize+0x22>
        dev->od_flags |= OS_DEV_F_STATUS_READY;
    183e:	7ee2      	ldrb	r2, [r4, #27]
    1840:	f042 0201 	orr.w	r2, r2, #1
    1844:	76e2      	strb	r2, [r4, #27]
err:
    return rc;
}
    1846:	4618      	mov	r0, r3
    1848:	bd10      	pop	{r4, pc}
	...

0000184c <os_dev_initialize_all>:
    return (rc);
}

int
os_dev_initialize_all(uint8_t stage)
{
    184c:	b538      	push	{r3, r4, r5, lr}
    184e:	4605      	mov	r5, r0
    struct os_dev *dev;
    int rc = 0;

    STAILQ_FOREACH(dev, &g_os_dev_list, od_next) {
    1850:	4b08      	ldr	r3, [pc, #32]	; (1874 <os_dev_initialize_all+0x28>)
    1852:	681c      	ldr	r4, [r3, #0]
    int rc = 0;
    1854:	2200      	movs	r2, #0
    STAILQ_FOREACH(dev, &g_os_dev_list, od_next) {
    1856:	e000      	b.n	185a <os_dev_initialize_all+0xe>
    1858:	6a24      	ldr	r4, [r4, #32]
    185a:	b144      	cbz	r4, 186e <os_dev_initialize_all+0x22>
        if (dev->od_stage == stage) {
    185c:	7e23      	ldrb	r3, [r4, #24]
    185e:	42ab      	cmp	r3, r5
    1860:	d1fa      	bne.n	1858 <os_dev_initialize_all+0xc>
            rc = os_dev_initialize(dev);
    1862:	4620      	mov	r0, r4
    1864:	f7ff ffde 	bl	1824 <os_dev_initialize>
            if (rc) {
    1868:	4602      	mov	r2, r0
    186a:	2800      	cmp	r0, #0
    186c:	d0f4      	beq.n	1858 <os_dev_initialize_all+0xc>
            }
        }
    }

    return (rc);
}
    186e:	4610      	mov	r0, r2
    1870:	bd38      	pop	{r3, r4, r5, pc}
    1872:	bf00      	nop
    1874:	2000015c 	.word	0x2000015c

00001878 <timer_handler>:
/* XXX: determine how we will deal with running un-privileged */
uint32_t os_flags = OS_RUN_PRIV;

void
timer_handler(void)
{
    1878:	b508      	push	{r3, lr}
    os_time_advance(1);
    187a:	2001      	movs	r0, #1
    187c:	f000 f950 	bl	1b20 <os_time_advance>
}
    1880:	bd08      	pop	{r3, pc}

00001882 <os_arch_save_sr>:
  __ASM volatile ("MRS %0, primask" : "=r" (result) :: "memory");
    1882:	f3ef 8010 	mrs	r0, PRIMASK
  __ASM volatile ("cpsid i" : : : "memory");
    1886:	b672      	cpsid	i
    uint32_t isr_ctx;

    isr_ctx = __get_PRIMASK();
    __disable_irq();
    return (isr_ctx & 1);
}
    1888:	f000 0001 	and.w	r0, r0, #1
    188c:	4770      	bx	lr

0000188e <os_arch_restore_sr>:

void
os_arch_restore_sr(os_sr_t isr_ctx)
{
    if (!isr_ctx) {
    188e:	b900      	cbnz	r0, 1892 <os_arch_restore_sr+0x4>
  __ASM volatile ("cpsie i" : : : "memory");
    1890:	b662      	cpsie	i
        __enable_irq();
    }
}
    1892:	4770      	bx	lr

00001894 <os_pkg_init>:
    hal_system_reset();
}

void
os_pkg_init(void)
{
    1894:	b508      	push	{r3, lr}
    os_error_t err;

    /* Ensure this function only gets called by sysinit. */
    SYSINIT_ASSERT_ACTIVE();

    err = os_dev_initialize_all(OS_DEV_INIT_KERNEL);
    1896:	2003      	movs	r0, #3
    1898:	f7ff ffd8 	bl	184c <os_dev_initialize_all>
    189c:	b2c0      	uxtb	r0, r0
    assert(err == OS_OK);
    189e:	b920      	cbnz	r0, 18aa <os_pkg_init+0x16>

    os_mempool_module_init();
    18a0:	f000 f894 	bl	19cc <os_mempool_module_init>
    os_msys_init();
    18a4:	f000 f91c 	bl	1ae0 <os_msys_init>
}
    18a8:	bd08      	pop	{r3, pc}
    assert(err == OS_OK);
    18aa:	2300      	movs	r3, #0
    18ac:	461a      	mov	r2, r3
    18ae:	4619      	mov	r1, r3
    18b0:	4618      	mov	r0, r3
    18b2:	f7ff ff2b 	bl	170c <__assert_func>

000018b6 <os_eventq_init>:
static struct os_eventq os_eventq_main;

void
os_eventq_init(struct os_eventq *evq)
{
    memset(evq, 0, sizeof(*evq));
    18b6:	2200      	movs	r2, #0
    18b8:	6002      	str	r2, [r0, #0]
    18ba:	6042      	str	r2, [r0, #4]
    STAILQ_INIT(&evq->evq_list);
    18bc:	4603      	mov	r3, r0
    18be:	f843 2f08 	str.w	r2, [r3, #8]!
    18c2:	60c3      	str	r3, [r0, #12]
}
    18c4:	4770      	bx	lr
	...

000018c8 <os_mempool_init_internal>:
    int i;
    uint8_t *block_addr;
    struct os_memblock *block_ptr;

    /* Check for valid parameters */
    if (!mp || (block_size == 0)) {
    18c8:	2800      	cmp	r0, #0
    18ca:	d031      	beq.n	1930 <os_mempool_init_internal+0x68>
{
    18cc:	b430      	push	{r4, r5}
    18ce:	4604      	mov	r4, r0
    if (!mp || (block_size == 0)) {
    18d0:	2a00      	cmp	r2, #0
    18d2:	d02f      	beq.n	1934 <os_mempool_init_internal+0x6c>
        return OS_INVALID_PARM;
    }

    if ((!membuf) && (blocks != 0)) {
    18d4:	b1bb      	cbz	r3, 1906 <os_mempool_init_internal+0x3e>
        return OS_INVALID_PARM;
    }

    if (membuf != NULL) {
    18d6:	b113      	cbz	r3, 18de <os_mempool_init_internal+0x16>
        /* Blocks need to be sized properly and memory buffer should be
         * aligned
         */
        if (((uint32_t)membuf & (OS_ALIGNMENT - 1)) != 0) {
    18d8:	f013 0f03 	tst.w	r3, #3
    18dc:	d12c      	bne.n	1938 <os_mempool_init_internal+0x70>
            return OS_MEM_NOT_ALIGNED;
        }
    }

    /* Initialize the memory pool structure */
    mp->mp_block_size = block_size;
    18de:	6022      	str	r2, [r4, #0]
    mp->mp_num_free = blocks;
    18e0:	80e1      	strh	r1, [r4, #6]
    mp->mp_min_free = blocks;
    18e2:	8121      	strh	r1, [r4, #8]
    mp->mp_flags = flags;
    18e4:	f89d 000c 	ldrb.w	r0, [sp, #12]
    18e8:	72a0      	strb	r0, [r4, #10]
    mp->mp_num_blocks = blocks;
    18ea:	80a1      	strh	r1, [r4, #4]
    mp->mp_membuf_addr = (uint32_t)membuf;
    18ec:	60e3      	str	r3, [r4, #12]
    mp->name = name;
    18ee:	9802      	ldr	r0, [sp, #8]
    18f0:	61a0      	str	r0, [r4, #24]
    SLIST_FIRST(mp) = membuf;
    18f2:	6163      	str	r3, [r4, #20]

    if (blocks > 0) {
    18f4:	b199      	cbz	r1, 191e <os_mempool_init_internal+0x56>
        os_mempool_poison(mp, membuf);
        os_mempool_guard(mp, membuf);
        true_block_size = OS_MEMPOOL_TRUE_BLOCK_SIZE(mp);
    18f6:	f012 0f03 	tst.w	r2, #3
    18fa:	d002      	beq.n	1902 <os_mempool_init_internal+0x3a>
    18fc:	f022 0203 	bic.w	r2, r2, #3
    1900:	3204      	adds	r2, #4

        /* Chain the memory blocks to the free list */
        block_addr = (uint8_t *)membuf;
        block_ptr = (struct os_memblock *)block_addr;
        for (i = 1; i < blocks; i++) {
    1902:	2001      	movs	r0, #1
    1904:	e007      	b.n	1916 <os_mempool_init_internal+0x4e>
    if ((!membuf) && (blocks != 0)) {
    1906:	2900      	cmp	r1, #0
    1908:	d0e5      	beq.n	18d6 <os_mempool_init_internal+0xe>
        return OS_INVALID_PARM;
    190a:	2003      	movs	r0, #3
    190c:	e00e      	b.n	192c <os_mempool_init_internal+0x64>
            block_addr += true_block_size;
    190e:	189d      	adds	r5, r3, r2
            os_mempool_poison(mp, block_addr);
            os_mempool_guard(mp, block_addr);
            SLIST_NEXT(block_ptr, mb_next) = (struct os_memblock *)block_addr;
    1910:	601d      	str	r5, [r3, #0]
        for (i = 1; i < blocks; i++) {
    1912:	3001      	adds	r0, #1
            block_addr += true_block_size;
    1914:	462b      	mov	r3, r5
        for (i = 1; i < blocks; i++) {
    1916:	4281      	cmp	r1, r0
    1918:	dcf9      	bgt.n	190e <os_mempool_init_internal+0x46>
            block_ptr = (struct os_memblock *)block_addr;
        }

        /* Last one in the list should be NULL */
        SLIST_NEXT(block_ptr, mb_next) = NULL;
    191a:	2200      	movs	r2, #0
    191c:	601a      	str	r2, [r3, #0]
    }

    STAILQ_INSERT_TAIL(&g_os_mempool_list, mp, mp_list);
    191e:	2000      	movs	r0, #0
    1920:	6120      	str	r0, [r4, #16]
    1922:	4b06      	ldr	r3, [pc, #24]	; (193c <os_mempool_init_internal+0x74>)
    1924:	685a      	ldr	r2, [r3, #4]
    1926:	6014      	str	r4, [r2, #0]
    1928:	3410      	adds	r4, #16
    192a:	605c      	str	r4, [r3, #4]

    return OS_OK;
}
    192c:	bc30      	pop	{r4, r5}
    192e:	4770      	bx	lr
        return OS_INVALID_PARM;
    1930:	2003      	movs	r0, #3
}
    1932:	4770      	bx	lr
        return OS_INVALID_PARM;
    1934:	2003      	movs	r0, #3
    1936:	e7f9      	b.n	192c <os_mempool_init_internal+0x64>
            return OS_MEM_NOT_ALIGNED;
    1938:	2004      	movs	r0, #4
    193a:	e7f7      	b.n	192c <os_mempool_init_internal+0x64>
    193c:	20006400 	.word	0x20006400

00001940 <os_mempool_init>:

os_error_t
os_mempool_init(struct os_mempool *mp, uint16_t blocks, uint32_t block_size,
                void *membuf, char *name)
{
    1940:	b510      	push	{r4, lr}
    1942:	b082      	sub	sp, #8
    return os_mempool_init_internal(mp, blocks, block_size, membuf, name, 0);
    1944:	2400      	movs	r4, #0
    1946:	9401      	str	r4, [sp, #4]
    1948:	9c04      	ldr	r4, [sp, #16]
    194a:	9400      	str	r4, [sp, #0]
    194c:	f7ff ffbc 	bl	18c8 <os_mempool_init_internal>
}
    1950:	b002      	add	sp, #8
    1952:	bd10      	pop	{r4, pc}

00001954 <os_memblock_get>:
    return 1;
}

void *
os_memblock_get(struct os_mempool *mp)
{
    1954:	b538      	push	{r3, r4, r5, lr}

    os_trace_api_u32(OS_TRACE_ID_MEMBLOCK_GET, (uint32_t)mp);

    /* Check to make sure they passed in a memory pool (or something) */
    block = NULL;
    if (mp) {
    1956:	b1a0      	cbz	r0, 1982 <os_memblock_get+0x2e>
    1958:	4604      	mov	r4, r0
        OS_ENTER_CRITICAL(sr);
    195a:	f7ff ff92 	bl	1882 <os_arch_save_sr>
        /* Check for any free */
        if (mp->mp_num_free) {
    195e:	88e3      	ldrh	r3, [r4, #6]
    1960:	b153      	cbz	r3, 1978 <os_memblock_get+0x24>
            /* Get a free block */
            block = SLIST_FIRST(mp);
    1962:	6965      	ldr	r5, [r4, #20]

            /* Set new free list head */
            SLIST_FIRST(mp) = SLIST_NEXT(block, mb_next);
    1964:	682a      	ldr	r2, [r5, #0]
    1966:	6162      	str	r2, [r4, #20]

            /* Decrement number free by 1 */
            mp->mp_num_free--;
    1968:	3b01      	subs	r3, #1
    196a:	b29b      	uxth	r3, r3
    196c:	80e3      	strh	r3, [r4, #6]
            if (mp->mp_min_free > mp->mp_num_free) {
    196e:	8922      	ldrh	r2, [r4, #8]
    1970:	4293      	cmp	r3, r2
    1972:	d202      	bcs.n	197a <os_memblock_get+0x26>
                mp->mp_min_free = mp->mp_num_free;
    1974:	8123      	strh	r3, [r4, #8]
    1976:	e000      	b.n	197a <os_memblock_get+0x26>
    block = NULL;
    1978:	2500      	movs	r5, #0
            }
        }
        OS_EXIT_CRITICAL(sr);
    197a:	f7ff ff88 	bl	188e <os_arch_restore_sr>
    }

    os_trace_api_ret_u32(OS_TRACE_ID_MEMBLOCK_GET, (uint32_t)block);

    return (void *)block;
}
    197e:	4628      	mov	r0, r5
    1980:	bd38      	pop	{r3, r4, r5, pc}
    block = NULL;
    1982:	2500      	movs	r5, #0
    return (void *)block;
    1984:	e7fb      	b.n	197e <os_memblock_get+0x2a>

00001986 <os_memblock_put_from_cb>:

os_error_t
os_memblock_put_from_cb(struct os_mempool *mp, void *block_addr)
{
    1986:	b538      	push	{r3, r4, r5, lr}
    1988:	4604      	mov	r4, r0
    198a:	460d      	mov	r5, r1

    os_mempool_guard_check(mp, block_addr);
    os_mempool_poison(mp, block_addr);

    block = (struct os_memblock *)block_addr;
    OS_ENTER_CRITICAL(sr);
    198c:	f7ff ff79 	bl	1882 <os_arch_save_sr>

    /* Chain current free list pointer to this block; make this block head */
    SLIST_NEXT(block, mb_next) = SLIST_FIRST(mp);
    1990:	6963      	ldr	r3, [r4, #20]
    1992:	602b      	str	r3, [r5, #0]
    SLIST_FIRST(mp) = block;
    1994:	6165      	str	r5, [r4, #20]

    /* XXX: Should we check that the number free <= number blocks? */
    /* Increment number free */
    mp->mp_num_free++;
    1996:	88e3      	ldrh	r3, [r4, #6]
    1998:	3301      	adds	r3, #1
    199a:	80e3      	strh	r3, [r4, #6]

    OS_EXIT_CRITICAL(sr);
    199c:	f7ff ff77 	bl	188e <os_arch_restore_sr>

    os_trace_api_ret_u32(OS_TRACE_ID_MEMBLOCK_PUT_FROM_CB, (uint32_t)OS_OK);

    return OS_OK;
}
    19a0:	2000      	movs	r0, #0
    19a2:	bd38      	pop	{r3, r4, r5, pc}

000019a4 <os_memblock_put>:

    os_trace_api_u32x2(OS_TRACE_ID_MEMBLOCK_PUT, (uint32_t)mp,
                       (uint32_t)block_addr);

    /* Make sure parameters are valid */
    if ((mp == NULL) || (block_addr == NULL)) {
    19a4:	b168      	cbz	r0, 19c2 <os_memblock_put+0x1e>
{
    19a6:	b508      	push	{r3, lr}
    if ((mp == NULL) || (block_addr == NULL)) {
    19a8:	b169      	cbz	r1, 19c6 <os_memblock_put+0x22>
    }
#endif
    /* If this is an extended mempool with a put callback, call the callback
     * instead of freeing the block directly.
     */
    if (mp->mp_flags & OS_MEMPOOL_F_EXT) {
    19aa:	7a83      	ldrb	r3, [r0, #10]
    19ac:	f013 0f01 	tst.w	r3, #1
    19b0:	d004      	beq.n	19bc <os_memblock_put+0x18>
        mpe = (struct os_mempool_ext *)mp;
        if (mpe->mpe_put_cb != NULL) {
